{
  "contractName": "ChromaBatch",
  "abi": [
    {
      "inputs": [
        {
          "internalType": "uint8[]",
          "name": "seriesNumbers",
          "type": "uint8[]"
        },
        {
          "internalType": "address[]",
          "name": "contractAddress",
          "type": "address[]"
        }
      ],
      "stateMutability": "nonpayable",
      "type": "constructor"
    },
    {
      "anonymous": false,
      "inputs": [
        {
          "indexed": true,
          "internalType": "address",
          "name": "owner",
          "type": "address"
        },
        {
          "indexed": true,
          "internalType": "address",
          "name": "approved",
          "type": "address"
        },
        {
          "indexed": true,
          "internalType": "uint256",
          "name": "tokenId",
          "type": "uint256"
        }
      ],
      "name": "Approval",
      "type": "event"
    },
    {
      "anonymous": false,
      "inputs": [
        {
          "indexed": true,
          "internalType": "address",
          "name": "owner",
          "type": "address"
        },
        {
          "indexed": true,
          "internalType": "address",
          "name": "operator",
          "type": "address"
        },
        {
          "indexed": false,
          "internalType": "bool",
          "name": "approved",
          "type": "bool"
        }
      ],
      "name": "ApprovalForAll",
      "type": "event"
    },
    {
      "anonymous": false,
      "inputs": [
        {
          "indexed": true,
          "internalType": "bool",
          "name": "isVisible",
          "type": "bool"
        }
      ],
      "name": "ChangedVisibility",
      "type": "event"
    },
    {
      "anonymous": false,
      "inputs": [
        {
          "indexed": true,
          "internalType": "address",
          "name": "contractAddress",
          "type": "address"
        },
        {
          "indexed": true,
          "internalType": "uint8",
          "name": "seriesNumber",
          "type": "uint8"
        },
        {
          "indexed": true,
          "internalType": "bool",
          "name": "isActive",
          "type": "bool"
        }
      ],
      "name": "ContractSetup",
      "type": "event"
    },
    {
      "anonymous": false,
      "inputs": [
        {
          "indexed": true,
          "internalType": "address",
          "name": "previousOwner",
          "type": "address"
        },
        {
          "indexed": true,
          "internalType": "address",
          "name": "newOwner",
          "type": "address"
        }
      ],
      "name": "OwnershipTransferred",
      "type": "event"
    },
    {
      "anonymous": false,
      "inputs": [
        {
          "indexed": true,
          "internalType": "address",
          "name": "from",
          "type": "address"
        },
        {
          "indexed": true,
          "internalType": "address",
          "name": "to",
          "type": "address"
        },
        {
          "indexed": true,
          "internalType": "uint256",
          "name": "tokenId",
          "type": "uint256"
        }
      ],
      "name": "Transfer",
      "type": "event"
    },
    {
      "inputs": [],
      "name": "batchMultiplier",
      "outputs": [
        {
          "internalType": "uint256",
          "name": "",
          "type": "uint256"
        }
      ],
      "stateMutability": "view",
      "type": "function",
      "constant": true
    },
    {
      "inputs": [
        {
          "internalType": "uint8",
          "name": "",
          "type": "uint8"
        }
      ],
      "name": "contracts",
      "outputs": [
        {
          "internalType": "contract IChroma",
          "name": "instance",
          "type": "address"
        },
        {
          "internalType": "uint8",
          "name": "seriesNumber",
          "type": "uint8"
        },
        {
          "internalType": "bool",
          "name": "isActive",
          "type": "bool"
        }
      ],
      "stateMutability": "view",
      "type": "function",
      "constant": true
    },
    {
      "inputs": [],
      "name": "isVisible",
      "outputs": [
        {
          "internalType": "bool",
          "name": "",
          "type": "bool"
        }
      ],
      "stateMutability": "view",
      "type": "function",
      "constant": true
    },
    {
      "inputs": [],
      "name": "owner",
      "outputs": [
        {
          "internalType": "address",
          "name": "",
          "type": "address"
        }
      ],
      "stateMutability": "view",
      "type": "function",
      "constant": true
    },
    {
      "inputs": [],
      "name": "renounceOwnership",
      "outputs": [],
      "stateMutability": "nonpayable",
      "type": "function"
    },
    {
      "inputs": [
        {
          "internalType": "uint256",
          "name": "",
          "type": "uint256"
        }
      ],
      "name": "series",
      "outputs": [
        {
          "internalType": "uint8",
          "name": "",
          "type": "uint8"
        }
      ],
      "stateMutability": "view",
      "type": "function",
      "constant": true
    },
    {
      "inputs": [
        {
          "internalType": "address",
          "name": "newOwner",
          "type": "address"
        }
      ],
      "name": "transferOwnership",
      "outputs": [],
      "stateMutability": "nonpayable",
      "type": "function"
    },
    {
      "inputs": [
        {
          "internalType": "uint8",
          "name": "seriesNumber",
          "type": "uint8"
        },
        {
          "internalType": "address",
          "name": "contractAddress",
          "type": "address"
        },
        {
          "internalType": "bool",
          "name": "isActive",
          "type": "bool"
        }
      ],
      "name": "setupContract",
      "outputs": [],
      "stateMutability": "nonpayable",
      "type": "function"
    },
    {
      "inputs": [
        {
          "internalType": "bool",
          "name": "newVisible",
          "type": "bool"
        }
      ],
      "name": "setVisibility",
      "outputs": [],
      "stateMutability": "nonpayable",
      "type": "function"
    },
    {
      "inputs": [
        {
          "internalType": "bytes4",
          "name": "interfaceId",
          "type": "bytes4"
        }
      ],
      "name": "supportsInterface",
      "outputs": [
        {
          "internalType": "bool",
          "name": "",
          "type": "bool"
        }
      ],
      "stateMutability": "view",
      "type": "function",
      "constant": true
    },
    {
      "inputs": [
        {
          "internalType": "address",
          "name": "owner",
          "type": "address"
        }
      ],
      "name": "balanceOf",
      "outputs": [
        {
          "internalType": "uint256",
          "name": "",
          "type": "uint256"
        }
      ],
      "stateMutability": "view",
      "type": "function",
      "constant": true
    },
    {
      "inputs": [
        {
          "internalType": "uint256",
          "name": "batchTokenId",
          "type": "uint256"
        }
      ],
      "name": "ownerOf",
      "outputs": [
        {
          "internalType": "address",
          "name": "",
          "type": "address"
        }
      ],
      "stateMutability": "view",
      "type": "function",
      "constant": true
    },
    {
      "inputs": [
        {
          "internalType": "uint256",
          "name": "",
          "type": "uint256"
        }
      ],
      "name": "getApproved",
      "outputs": [
        {
          "internalType": "address",
          "name": "",
          "type": "address"
        }
      ],
      "stateMutability": "pure",
      "type": "function",
      "constant": true
    },
    {
      "inputs": [
        {
          "internalType": "address",
          "name": "",
          "type": "address"
        },
        {
          "internalType": "address",
          "name": "",
          "type": "address"
        }
      ],
      "name": "isApprovedForAll",
      "outputs": [
        {
          "internalType": "bool",
          "name": "",
          "type": "bool"
        }
      ],
      "stateMutability": "pure",
      "type": "function",
      "constant": true
    },
    {
      "inputs": [
        {
          "internalType": "address",
          "name": "",
          "type": "address"
        },
        {
          "internalType": "uint256",
          "name": "",
          "type": "uint256"
        }
      ],
      "name": "approve",
      "outputs": [],
      "stateMutability": "pure",
      "type": "function",
      "constant": true
    },
    {
      "inputs": [
        {
          "internalType": "address",
          "name": "",
          "type": "address"
        },
        {
          "internalType": "bool",
          "name": "",
          "type": "bool"
        }
      ],
      "name": "setApprovalForAll",
      "outputs": [],
      "stateMutability": "pure",
      "type": "function",
      "constant": true
    },
    {
      "inputs": [
        {
          "internalType": "address",
          "name": "",
          "type": "address"
        },
        {
          "internalType": "address",
          "name": "",
          "type": "address"
        },
        {
          "internalType": "uint256",
          "name": "",
          "type": "uint256"
        }
      ],
      "name": "safeTransferFrom",
      "outputs": [],
      "stateMutability": "pure",
      "type": "function",
      "constant": true
    },
    {
      "inputs": [
        {
          "internalType": "address",
          "name": "",
          "type": "address"
        },
        {
          "internalType": "address",
          "name": "",
          "type": "address"
        },
        {
          "internalType": "uint256",
          "name": "",
          "type": "uint256"
        },
        {
          "internalType": "bytes",
          "name": "",
          "type": "bytes"
        }
      ],
      "name": "safeTransferFrom",
      "outputs": [],
      "stateMutability": "pure",
      "type": "function",
      "constant": true
    },
    {
      "inputs": [
        {
          "internalType": "address",
          "name": "",
          "type": "address"
        },
        {
          "internalType": "address",
          "name": "",
          "type": "address"
        },
        {
          "internalType": "uint256",
          "name": "",
          "type": "uint256"
        }
      ],
      "name": "transferFrom",
      "outputs": [],
      "stateMutability": "pure",
      "type": "function",
      "constant": true
    },
    {
      "inputs": [],
      "name": "totalSupply",
      "outputs": [
        {
          "internalType": "uint256",
          "name": "",
          "type": "uint256"
        }
      ],
      "stateMutability": "view",
      "type": "function",
      "constant": true
    },
    {
      "inputs": [
        {
          "internalType": "address",
          "name": "owner",
          "type": "address"
        },
        {
          "internalType": "uint256",
          "name": "batchIndex",
          "type": "uint256"
        }
      ],
      "name": "tokenOfOwnerByIndex",
      "outputs": [
        {
          "internalType": "uint256",
          "name": "",
          "type": "uint256"
        }
      ],
      "stateMutability": "view",
      "type": "function",
      "constant": true
    },
    {
      "inputs": [
        {
          "internalType": "uint256",
          "name": "batchIndex",
          "type": "uint256"
        }
      ],
      "name": "tokenByIndex",
      "outputs": [
        {
          "internalType": "uint256",
          "name": "",
          "type": "uint256"
        }
      ],
      "stateMutability": "view",
      "type": "function",
      "constant": true
    },
    {
      "inputs": [],
      "name": "name",
      "outputs": [
        {
          "internalType": "string",
          "name": "",
          "type": "string"
        }
      ],
      "stateMutability": "pure",
      "type": "function",
      "constant": true
    },
    {
      "inputs": [],
      "name": "symbol",
      "outputs": [
        {
          "internalType": "string",
          "name": "",
          "type": "string"
        }
      ],
      "stateMutability": "pure",
      "type": "function",
      "constant": true
    },
    {
      "inputs": [
        {
          "internalType": "uint256",
          "name": "batchTokenId",
          "type": "uint256"
        }
      ],
      "name": "tokenURI",
      "outputs": [
        {
          "internalType": "string",
          "name": "",
          "type": "string"
        }
      ],
      "stateMutability": "view",
      "type": "function",
      "constant": true
    }
  ],
  "bytecode": "0x60806040526001600060146101000a81548160ff0219169083151502179055503480156200002c57600080fd5b5060405162003d5038038062003d50833981810160405281019062000052919062000a4a565b6200007262000066620000f960201b60201c565b6200010160201b60201c565b60005b825181108015620000865750815181105b15620000f057620000da838281518110620000a657620000a562000acf565b5b6020026020010151838381518110620000c457620000c362000acf565b5b60200260200101516001620001c560201b60201c565b8080620000e79062000b37565b91505062000075565b50505062000e8f565b600033905090565b60008060009054906101000a900473ffffffffffffffffffffffffffffffffffffffff169050816000806101000a81548173ffffffffffffffffffffffffffffffffffffffff021916908373ffffffffffffffffffffffffffffffffffffffff1602179055508173ffffffffffffffffffffffffffffffffffffffff168173ffffffffffffffffffffffffffffffffffffffff167f8be0079c531659141344cd1fd0a4f28419497f9722a3daafe3b4186f6b6457e060405160405180910390a35050565b620001d5620000f960201b60201c565b73ffffffffffffffffffffffffffffffffffffffff16620001fb6200051060201b60201c565b73ffffffffffffffffffffffffffffffffffffffff161462000254576040517f08c379a00000000000000000000000000000000000000000000000000000000081526004016200024b9062000be5565b60405180910390fd5b8173ffffffffffffffffffffffffffffffffffffffff163073ffffffffffffffffffffffffffffffffffffffff1603620002c5576040517f08c379a0000000000000000000000000000000000000000000000000000000008152600401620002bc9062000c57565b60405180910390fd5b620002db826200053960201b6200198e1760201c565b6200031d576040517f08c379a0000000000000000000000000000000000000000000000000000000008152600401620003149062000cc9565b60405180910390fd5b62000364826040518060400160405280600a81526020017f67657453746174652829000000000000000000000000000000000000000000008152506200054c60201b60201c565b60008290508360ff16600160008660ff1660ff16815260200190815260200160002060000160149054906101000a900460ff1660ff1614620003e65760028490806001815401808255809150506001900390600052602060002090602091828204019190069091909190916101000a81548160ff021916908360ff1602179055505b60405180606001604052808273ffffffffffffffffffffffffffffffffffffffff1681526020018560ff168152602001831515815250600160008660ff1660ff16815260200190815260200160002060008201518160000160006101000a81548173ffffffffffffffffffffffffffffffffffffffff021916908373ffffffffffffffffffffffffffffffffffffffff16021790555060208201518160000160146101000a81548160ff021916908360ff16021790555060408201518160000160156101000a81548160ff0219169083151502179055509050508115158460ff168473ffffffffffffffffffffffffffffffffffffffff167fcac430a20918904744fce2414132ae40977ca7f64fece1edeeb595c7228af43a60405160405180910390a450505050565b60008060009054906101000a900473ffffffffffffffffffffffffffffffffffffffff16905090565b600080823b905060008111915050919050565b600081805190602001209050600081604051602401604051602081830303815290604052907bffffffffffffffffffffffffffffffffffffffffffffffffffffffff19166020820180517bffffffffffffffffffffffffffffffffffffffffffffffffffffffff83818316178352505050509050620005f1848260405180606001604052806023815260200162003d2d60239139620005f860201b620019a11760201c565b5050505050565b60606200060b846200053960201b60201c565b6200064d576040517f08c379a0000000000000000000000000000000000000000000000000000000008152600401620006449062000d61565b60405180910390fd5b6000808573ffffffffffffffffffffffffffffffffffffffff168560405162000677919062000e06565b600060405180830381855afa9150503d8060008114620006b4576040519150601f19603f3d011682016040523d82523d6000602084013e620006b9565b606091505b5091509150620006d1828286620006dc60201b60201c565b925050509392505050565b60608315620006ee5782905062000741565b600083511115620007025782518084602001fd5b816040517f08c379a000000000000000000000000000000000000000000000000000000000815260040162000738919062000e6b565b60405180910390fd5b9392505050565b6000604051905090565b600080fd5b600080fd5b600080fd5b6000601f19601f8301169050919050565b7f4e487b7100000000000000000000000000000000000000000000000000000000600052604160045260246000fd5b620007ac8262000761565b810181811067ffffffffffffffff82111715620007ce57620007cd62000772565b5b80604052505050565b6000620007e362000748565b9050620007f18282620007a1565b919050565b600067ffffffffffffffff82111562000814576200081362000772565b5b602082029050602081019050919050565b600080fd5b600060ff82169050919050565b62000842816200082a565b81146200084e57600080fd5b50565b600081519050620008628162000837565b92915050565b60006200087f6200087984620007f6565b620007d7565b90508083825260208201905060208402830185811115620008a557620008a462000825565b5b835b81811015620008d25780620008bd888262000851565b845260208401935050602081019050620008a7565b5050509392505050565b600082601f830112620008f457620008f36200075c565b5b81516200090684826020860162000868565b91505092915050565b600067ffffffffffffffff8211156200092d576200092c62000772565b5b602082029050602081019050919050565b600073ffffffffffffffffffffffffffffffffffffffff82169050919050565b60006200096b826200093e565b9050919050565b6200097d816200095e565b81146200098957600080fd5b50565b6000815190506200099d8162000972565b92915050565b6000620009ba620009b4846200090f565b620007d7565b90508083825260208201905060208402830185811115620009e057620009df62000825565b5b835b8181101562000a0d5780620009f888826200098c565b845260208401935050602081019050620009e2565b5050509392505050565b600082601f83011262000a2f5762000a2e6200075c565b5b815162000a41848260208601620009a3565b91505092915050565b6000806040838503121562000a645762000a6362000752565b5b600083015167ffffffffffffffff81111562000a855762000a8462000757565b5b62000a9385828601620008dc565b925050602083015167ffffffffffffffff81111562000ab75762000ab662000757565b5b62000ac58582860162000a17565b9150509250929050565b7f4e487b7100000000000000000000000000000000000000000000000000000000600052603260045260246000fd5b7f4e487b7100000000000000000000000000000000000000000000000000000000600052601160045260246000fd5b6000819050919050565b600062000b448262000b2d565b91507fffffffffffffffffffffffffffffffffffffffffffffffffffffffffffffffff820362000b795762000b7862000afe565b5b600182019050919050565b600082825260208201905092915050565b7f4f776e61626c653a2063616c6c6572206973206e6f7420746865206f776e6572600082015250565b600062000bcd60208362000b84565b915062000bda8262000b95565b602082019050919050565b6000602082019050818103600083015262000c008162000bbe565b9050919050565b7f4368726f6d6142617463683a2043616e6e6f74206164642073656c6600000000600082015250565b600062000c3f601c8362000b84565b915062000c4c8262000c07565b602082019050919050565b6000602082019050818103600083015262000c728162000c30565b9050919050565b7f4368726f6d6142617463683a204e6f74206120636f6e74726163740000000000600082015250565b600062000cb1601b8362000b84565b915062000cbe8262000c79565b602082019050919050565b6000602082019050818103600083015262000ce48162000ca2565b9050919050565b7f416464726573733a207374617469632063616c6c20746f206e6f6e2d636f6e7460008201527f7261637400000000000000000000000000000000000000000000000000000000602082015250565b600062000d4960248362000b84565b915062000d568262000ceb565b604082019050919050565b6000602082019050818103600083015262000d7c8162000d3a565b9050919050565b600081519050919050565b600081905092915050565b60005b8381101562000db957808201518184015260208101905062000d9c565b8381111562000dc9576000848401525b50505050565b600062000ddc8262000d83565b62000de8818562000d8e565b935062000dfa81856020860162000d99565b80840191505092915050565b600062000e14828462000dcf565b915081905092915050565b600081519050919050565b600062000e378262000e1f565b62000e43818562000b84565b935062000e5581856020860162000d99565b62000e608162000761565b840191505092915050565b6000602082019050818103600083015262000e87818462000e2a565b905092915050565b612e8e8062000e9f6000396000f3fe608060405234801561001057600080fd5b50600436106101735760003560e01c80636352211e116100de578063a22cb46511610097578063dc22cb6a11610071578063dc22cb6a1461044a578063e985e9c51461047a578063f2fde38b146104aa578063fc3eced0146104c657610173565b8063a22cb465146103e2578063b88d4fde146103fe578063c87b56dd1461041a57610173565b80636352211e1461032057806370a0823114610350578063715018a61461038057806375d4cc831461038a5780638da5cb5b146103a657806395d89b41146103c457610173565b806323b872dd1161013057806323b872dd1461024e57806328c30c071461026a5780632f745c591461028657806335b92d47146102b657806342842e0e146102d45780634f6ccce7146102f057610173565b806301ffc9a71461017857806306fdde03146101a8578063081812fc146101c6578063095ea7b3146101f65780630fb50c261461021257806318160ddd14610230575b600080fd5b610192600480360381019061018d9190611e32565b6104f8565b60405161019f9190611e7a565b60405180910390f35b6101b0610716565b6040516101bd9190611f2e565b60405180910390f35b6101e060048036038101906101db9190611f86565b610753565b6040516101ed9190611ff4565b60405180910390f35b610210600480360381019061020b919061203b565b610790565b005b61021a6107cb565b6040516102279190611e7a565b60405180910390f35b6102386107de565b604051610245919061208a565b60405180910390f35b610268600480360381019061026391906120a5565b610985565b005b610284600480360381019061027f9190612124565b6109c0565b005b6102a0600480360381019061029b919061203b565b610a97565b6040516102ad919061208a565b60405180910390f35b6102be610d7c565b6040516102cb919061208a565b60405180910390f35b6102ee60048036038101906102e991906120a5565b610d82565b005b61030a60048036038101906103059190611f86565b610dbd565b604051610317919061208a565b60405180910390f35b61033a60048036038101906103359190611f86565b611094565b6040516103479190611ff4565b60405180910390f35b61036a60048036038101906103659190612151565b611129565b604051610377919061208a565b60405180910390f35b6103886112dd565b005b6103a4600480360381019061039f91906121b7565b611365565b005b6103ae611681565b6040516103bb9190611ff4565b60405180910390f35b6103cc6116aa565b6040516103d99190611f2e565b60405180910390f35b6103fc60048036038101906103f7919061220a565b6116e7565b005b6104186004803603810190610413919061237f565b611722565b005b610434600480360381019061042f9190611f86565b61175d565b6040516104419190611f2e565b60405180910390f35b610464600480360381019061045f9190611f86565b6117f7565b6040516104719190612411565b60405180910390f35b610494600480360381019061048f919061242c565b61182b565b6040516104a19190611e7a565b60405180910390f35b6104c460048036038101906104bf9190612151565b611833565b005b6104e060048036038101906104db919061246c565b61192a565b6040516104ef939291906124f8565b60405180910390f35b60008060149054906101000a900460ff16610575577f01ffc9a7000000000000000000000000000000000000000000000000000000007bffffffffffffffffffffffffffffffffffffffffffffffffffffffff1916827bffffffffffffffffffffffffffffffffffffffffffffffffffffffff1916149050610711565b7f01ffc9a7000000000000000000000000000000000000000000000000000000007bffffffffffffffffffffffffffffffffffffffffffffffffffffffff1916827bffffffffffffffffffffffffffffffffffffffffffffffffffffffff1916148061063e57507f80ac58cd000000000000000000000000000000000000000000000000000000007bffffffffffffffffffffffffffffffffffffffffffffffffffffffff1916827bffffffffffffffffffffffffffffffffffffffffffffffffffffffff1916145b806106a657507f5b5e139f000000000000000000000000000000000000000000000000000000007bffffffffffffffffffffffffffffffffffffffffffffffffffffffff1916827bffffffffffffffffffffffffffffffffffffffffffffffffffffffff1916145b8061070e57507f780e9d63000000000000000000000000000000000000000000000000000000007bffffffffffffffffffffffffffffffffffffffffffffffffffffffff1916827bffffffffffffffffffffffffffffffffffffffffffffffffffffffff1916145b90505b919050565b60606040518060400160405280600b81526020017f4368726f6d614261746368000000000000000000000000000000000000000000815250905090565b60006040517f08c379a00000000000000000000000000000000000000000000000000000000081526004016107879061257b565b60405180910390fd5b6040517f08c379a00000000000000000000000000000000000000000000000000000000081526004016107c29061257b565b60405180910390fd5b600060149054906101000a900460ff1681565b6000806000905060005b60028054905081101561097d576000600160006002848154811061080f5761080e61259b565b5b90600052602060002090602091828204019190069054906101000a900460ff1660ff1660ff1681526020019081526020016000206040518060600160405290816000820160009054906101000a900473ffffffffffffffffffffffffffffffffffffffff1673ffffffffffffffffffffffffffffffffffffffff1673ffffffffffffffffffffffffffffffffffffffff1681526020016000820160149054906101000a900460ff1660ff1660ff1681526020016000820160159054906101000a900460ff161515151581525050905080604001511561096957806000015173ffffffffffffffffffffffffffffffffffffffff166318160ddd6040518163ffffffff1660e01b8152600401602060405180830381865afa158015610937573d6000803e3d6000fd5b505050506040513d601f19601f8201168201806040525081019061095b91906125df565b83610966919061263b565b92505b50808061097590612691565b9150506107e8565b508091505090565b6040517f08c379a00000000000000000000000000000000000000000000000000000000081526004016109b79061257b565b60405180910390fd5b6109c8611a6e565b73ffffffffffffffffffffffffffffffffffffffff166109e6611681565b73ffffffffffffffffffffffffffffffffffffffff1614610a3c576040517f08c379a0000000000000000000000000000000000000000000000000000000008152600401610a3390612725565b60405180910390fd5b80600060146101000a81548160ff021916908315150217905550600060149054906101000a900460ff1615157f4b10781e5dd8bbac70b7161a4968a9ef6cd6b130ba06b1556b94fcd45b49354560405160405180910390a250565b6000806000905060005b600280549050811015610d3a5760006001600060028481548110610ac857610ac761259b565b5b90600052602060002090602091828204019190069054906101000a900460ff1660ff1660ff1681526020019081526020016000206040518060600160405290816000820160009054906101000a900473ffffffffffffffffffffffffffffffffffffffff1673ffffffffffffffffffffffffffffffffffffffff1673ffffffffffffffffffffffffffffffffffffffff1681526020016000820160149054906101000a900460ff1660ff1660ff1681526020016000820160159054906101000a900460ff1615151515815250509050806040015115610d265760008386610baf9190612745565b90506000826000015173ffffffffffffffffffffffffffffffffffffffff166370a08231896040518263ffffffff1660e01b8152600401610bf09190611ff4565b602060405180830381865afa158015610c0d573d6000803e3d6000fd5b505050506040513d601f19601f82011682018060405250810190610c3191906125df565b905080821015610d1557826000015173ffffffffffffffffffffffffffffffffffffffff16632f745c5989846040518363ffffffff1660e01b8152600401610c7a929190612779565b602060405180830381865afa158015610c97573d6000803e3d6000fd5b505050506040513d601f19601f82011682018060405250810190610cbb91906125df565b61271060028681548110610cd257610cd161259b565b5b90600052602060002090602091828204019190069054906101000a900460ff1660ff16610cff91906127a2565b610d09919061263b565b95505050505050610d76565b8085610d21919061263b565b945050505b508080610d3290612691565b915050610aa1565b506040517f08c379a0000000000000000000000000000000000000000000000000000000008152600401610d6d9061286e565b60405180910390fd5b92915050565b61271081565b6040517f08c379a0000000000000000000000000000000000000000000000000000000008152600401610db49061257b565b60405180910390fd5b6000806000905060005b6002805490508110156110535760006001600060028481548110610dee57610ded61259b565b5b90600052602060002090602091828204019190069054906101000a900460ff1660ff1660ff1681526020019081526020016000206040518060600160405290816000820160009054906101000a900473ffffffffffffffffffffffffffffffffffffffff1673ffffffffffffffffffffffffffffffffffffffff1673ffffffffffffffffffffffffffffffffffffffff1681526020016000820160149054906101000a900460ff1660ff1660ff1681526020016000820160159054906101000a900460ff161515151581525050905080604001511561103f5760008386610ed59190612745565b90506000826000015173ffffffffffffffffffffffffffffffffffffffff166318160ddd6040518163ffffffff1660e01b8152600401602060405180830381865afa158015610f28573d6000803e3d6000fd5b505050506040513d601f19601f82011682018060405250810190610f4c91906125df565b90508082101561102e57826000015173ffffffffffffffffffffffffffffffffffffffff16634f6ccce7836040518263ffffffff1660e01b8152600401610f93919061208a565b602060405180830381865afa158015610fb0573d6000803e3d6000fd5b505050506040513d601f19601f82011682018060405250810190610fd491906125df565b61271060028681548110610feb57610fea61259b565b5b90600052602060002090602091828204019190069054906101000a900460ff1660ff1661101891906127a2565b611022919061263b565b9550505050505061108f565b808561103a919061263b565b945050505b50808061104b90612691565b915050610dc7565b506040517f08c379a000000000000000000000000000000000000000000000000000000000815260040161108690612900565b60405180910390fd5b919050565b60008060006110a284611a76565b915091508173ffffffffffffffffffffffffffffffffffffffff16636352211e826040518263ffffffff1660e01b81526004016110df919061208a565b602060405180830381865afa1580156110fc573d6000803e3d6000fd5b505050506040513d601f19601f820116820180604052508101906111209190612935565b92505050919050565b6000806000905060005b6002805490508110156112d3576000600160006002848154811061115a5761115961259b565b5b90600052602060002090602091828204019190069054906101000a900460ff1660ff1660ff1681526020019081526020016000206040518060600160405290816000820160009054906101000a900473ffffffffffffffffffffffffffffffffffffffff1673ffffffffffffffffffffffffffffffffffffffff1673ffffffffffffffffffffffffffffffffffffffff1681526020016000820160149054906101000a900460ff1660ff1660ff1681526020016000820160159054906101000a900460ff16151515158152505090508060400151156112bf57806000015173ffffffffffffffffffffffffffffffffffffffff166370a08231866040518263ffffffff1660e01b81526004016112709190611ff4565b602060405180830381865afa15801561128d573d6000803e3d6000fd5b505050506040513d601f19601f820116820180604052508101906112b191906125df565b836112bc919061263b565b92505b5080806112cb90612691565b915050611133565b5080915050919050565b6112e5611a6e565b73ffffffffffffffffffffffffffffffffffffffff16611303611681565b73ffffffffffffffffffffffffffffffffffffffff1614611359576040517f08c379a000000000000000000000000000000000000000000000000000000000815260040161135090612725565b60405180910390fd5b6113636000611bfd565b565b61136d611a6e565b73ffffffffffffffffffffffffffffffffffffffff1661138b611681565b73ffffffffffffffffffffffffffffffffffffffff16146113e1576040517f08c379a00000000000000000000000000000000000000000000000000000000081526004016113d890612725565b60405180910390fd5b8173ffffffffffffffffffffffffffffffffffffffff163073ffffffffffffffffffffffffffffffffffffffff160361144f576040517f08c379a0000000000000000000000000000000000000000000000000000000008152600401611446906129ae565b60405180910390fd5b6114588261198e565b611497576040517f08c379a000000000000000000000000000000000000000000000000000000000815260040161148e90612a1a565b60405180910390fd5b6114d6826040518060400160405280600a81526020017f6765745374617465282900000000000000000000000000000000000000000000815250611cc1565b60008290508360ff16600160008660ff1660ff16815260200190815260200160002060000160149054906101000a900460ff1660ff16146115575760028490806001815401808255809150506001900390600052602060002090602091828204019190069091909190916101000a81548160ff021916908360ff1602179055505b60405180606001604052808273ffffffffffffffffffffffffffffffffffffffff1681526020018560ff168152602001831515815250600160008660ff1660ff16815260200190815260200160002060008201518160000160006101000a81548173ffffffffffffffffffffffffffffffffffffffff021916908373ffffffffffffffffffffffffffffffffffffffff16021790555060208201518160000160146101000a81548160ff021916908360ff16021790555060408201518160000160156101000a81548160ff0219169083151502179055509050508115158460ff168473ffffffffffffffffffffffffffffffffffffffff167fcac430a20918904744fce2414132ae40977ca7f64fece1edeeb595c7228af43a60405160405180910390a450505050565b60008060009054906101000a900473ffffffffffffffffffffffffffffffffffffffff16905090565b60606040518060400160405280600381526020017f4348420000000000000000000000000000000000000000000000000000000000815250905090565b6040517f08c379a00000000000000000000000000000000000000000000000000000000081526004016117199061257b565b60405180910390fd5b6040517f08c379a00000000000000000000000000000000000000000000000000000000081526004016117549061257b565b60405180910390fd5b606060008061176b84611a76565b915091508173ffffffffffffffffffffffffffffffffffffffff1663c87b56dd826040518263ffffffff1660e01b81526004016117a8919061208a565b600060405180830381865afa1580156117c5573d6000803e3d6000fd5b505050506040513d6000823e3d601f19601f820116820180604052508101906117ee9190612adb565b92505050919050565b6002818154811061180757600080fd5b9060005260206000209060209182820401919006915054906101000a900460ff1681565b600092915050565b61183b611a6e565b73ffffffffffffffffffffffffffffffffffffffff16611859611681565b73ffffffffffffffffffffffffffffffffffffffff16146118af576040517f08c379a00000000000000000000000000000000000000000000000000000000081526004016118a690612725565b60405180910390fd5b600073ffffffffffffffffffffffffffffffffffffffff168173ffffffffffffffffffffffffffffffffffffffff160361191e576040517f08c379a000000000000000000000000000000000000000000000000000000000815260040161191590612b96565b60405180910390fd5b61192781611bfd565b50565b60016020528060005260406000206000915090508060000160009054906101000a900473ffffffffffffffffffffffffffffffffffffffff16908060000160149054906101000a900460ff16908060000160159054906101000a900460ff16905083565b600080823b905060008111915050919050565b60606119ac8461198e565b6119eb576040517f08c379a00000000000000000000000000000000000000000000000000000000081526004016119e290612c28565b60405180910390fd5b6000808573ffffffffffffffffffffffffffffffffffffffff1685604051611a139190612c8f565b600060405180830381855afa9150503d8060008114611a4e576040519150601f19603f3d011682016040523d82523d6000602084013e611a53565b606091505b5091509150611a63828286611d5f565b925050509392505050565b600033905090565b600080612710831015611abe576040517f08c379a0000000000000000000000000000000000000000000000000000000008152600401611ab590612cf2565b60405180910390fd5b600061271084611ace9190612d41565b90506000600160008360ff1660ff1681526020019081526020016000206040518060600160405290816000820160009054906101000a900473ffffffffffffffffffffffffffffffffffffffff1673ffffffffffffffffffffffffffffffffffffffff1673ffffffffffffffffffffffffffffffffffffffff1681526020016000820160149054906101000a900460ff1660ff1660ff1681526020016000820160159054906101000a900460ff16151515158152505090508160ff16816020015160ff16148015611ba0575080604001515b611bdf576040517f08c379a0000000000000000000000000000000000000000000000000000000008152600401611bd690612de4565b60405180910390fd5b806000015161271086611bf29190612e04565b935093505050915091565b60008060009054906101000a900473ffffffffffffffffffffffffffffffffffffffff169050816000806101000a81548173ffffffffffffffffffffffffffffffffffffffff021916908373ffffffffffffffffffffffffffffffffffffffff1602179055508173ffffffffffffffffffffffffffffffffffffffff168173ffffffffffffffffffffffffffffffffffffffff167f8be0079c531659141344cd1fd0a4f28419497f9722a3daafe3b4186f6b6457e060405160405180910390a35050565b600081805190602001209050600081604051602401604051602081830303815290604052907bffffffffffffffffffffffffffffffffffffffffffffffffffffffff19166020820180517bffffffffffffffffffffffffffffffffffffffffffffffffffffffff83818316178352505050509050611d588482604051806060016040528060238152602001612e36602391396119a1565b5050505050565b60608315611d6f57829050611dbf565b600083511115611d825782518084602001fd5b816040517f08c379a0000000000000000000000000000000000000000000000000000000008152600401611db69190611f2e565b60405180910390fd5b9392505050565b6000604051905090565b600080fd5b600080fd5b60007fffffffff0000000000000000000000000000000000000000000000000000000082169050919050565b611e0f81611dda565b8114611e1a57600080fd5b50565b600081359050611e2c81611e06565b92915050565b600060208284031215611e4857611e47611dd0565b5b6000611e5684828501611e1d565b91505092915050565b60008115159050919050565b611e7481611e5f565b82525050565b6000602082019050611e8f6000830184611e6b565b92915050565b600081519050919050565b600082825260208201905092915050565b60005b83811015611ecf578082015181840152602081019050611eb4565b83811115611ede576000848401525b50505050565b6000601f19601f8301169050919050565b6000611f0082611e95565b611f0a8185611ea0565b9350611f1a818560208601611eb1565b611f2381611ee4565b840191505092915050565b60006020820190508181036000830152611f488184611ef5565b905092915050565b6000819050919050565b611f6381611f50565b8114611f6e57600080fd5b50565b600081359050611f8081611f5a565b92915050565b600060208284031215611f9c57611f9b611dd0565b5b6000611faa84828501611f71565b91505092915050565b600073ffffffffffffffffffffffffffffffffffffffff82169050919050565b6000611fde82611fb3565b9050919050565b611fee81611fd3565b82525050565b60006020820190506120096000830184611fe5565b92915050565b61201881611fd3565b811461202357600080fd5b50565b6000813590506120358161200f565b92915050565b6000806040838503121561205257612051611dd0565b5b600061206085828601612026565b925050602061207185828601611f71565b9150509250929050565b61208481611f50565b82525050565b600060208201905061209f600083018461207b565b92915050565b6000806000606084860312156120be576120bd611dd0565b5b60006120cc86828701612026565b93505060206120dd86828701612026565b92505060406120ee86828701611f71565b9150509250925092565b61210181611e5f565b811461210c57600080fd5b50565b60008135905061211e816120f8565b92915050565b60006020828403121561213a57612139611dd0565b5b60006121488482850161210f565b91505092915050565b60006020828403121561216757612166611dd0565b5b600061217584828501612026565b91505092915050565b600060ff82169050919050565b6121948161217e565b811461219f57600080fd5b50565b6000813590506121b18161218b565b92915050565b6000806000606084860312156121d0576121cf611dd0565b5b60006121de868287016121a2565b93505060206121ef86828701612026565b92505060406122008682870161210f565b9150509250925092565b6000806040838503121561222157612220611dd0565b5b600061222f85828601612026565b92505060206122408582860161210f565b9150509250929050565b600080fd5b600080fd5b7f4e487b7100000000000000000000000000000000000000000000000000000000600052604160045260246000fd5b61228c82611ee4565b810181811067ffffffffffffffff821117156122ab576122aa612254565b5b80604052505050565b60006122be611dc6565b90506122ca8282612283565b919050565b600067ffffffffffffffff8211156122ea576122e9612254565b5b6122f382611ee4565b9050602081019050919050565b82818337600083830152505050565b600061232261231d846122cf565b6122b4565b90508281526020810184848401111561233e5761233d61224f565b5b612349848285612300565b509392505050565b600082601f8301126123665761236561224a565b5b813561237684826020860161230f565b91505092915050565b6000806000806080858703121561239957612398611dd0565b5b60006123a787828801612026565b94505060206123b887828801612026565b93505060406123c987828801611f71565b925050606085013567ffffffffffffffff8111156123ea576123e9611dd5565b5b6123f687828801612351565b91505092959194509250565b61240b8161217e565b82525050565b60006020820190506124266000830184612402565b92915050565b6000806040838503121561244357612442611dd0565b5b600061245185828601612026565b925050602061246285828601612026565b9150509250929050565b60006020828403121561248257612481611dd0565b5b6000612490848285016121a2565b91505092915050565b6000819050919050565b60006124be6124b96124b484611fb3565b612499565b611fb3565b9050919050565b60006124d0826124a3565b9050919050565b60006124e2826124c5565b9050919050565b6124f2816124d7565b82525050565b600060608201905061250d60008301866124e9565b61251a6020830185612402565b6125276040830184611e6b565b949350505050565b7f4368726f6d6142617463683a2053616c65732064697361626c65640000000000600082015250565b6000612565601b83611ea0565b91506125708261252f565b602082019050919050565b6000602082019050818103600083015261259481612558565b9050919050565b7f4e487b7100000000000000000000000000000000000000000000000000000000600052603260045260246000fd5b6000815190506125d981611f5a565b92915050565b6000602082840312156125f5576125f4611dd0565b5b6000612603848285016125ca565b91505092915050565b7f4e487b7100000000000000000000000000000000000000000000000000000000600052601160045260246000fd5b600061264682611f50565b915061265183611f50565b9250827fffffffffffffffffffffffffffffffffffffffffffffffffffffffffffffffff038211156126865761268561260c565b5b828201905092915050565b600061269c82611f50565b91507fffffffffffffffffffffffffffffffffffffffffffffffffffffffffffffffff82036126ce576126cd61260c565b5b600182019050919050565b7f4f776e61626c653a2063616c6c6572206973206e6f7420746865206f776e6572600082015250565b600061270f602083611ea0565b915061271a826126d9565b602082019050919050565b6000602082019050818103600083015261273e81612702565b9050919050565b600061275082611f50565b915061275b83611f50565b92508282101561276e5761276d61260c565b5b828203905092915050565b600060408201905061278e6000830185611fe5565b61279b602083018461207b565b9392505050565b60006127ad82611f50565b91506127b883611f50565b9250817fffffffffffffffffffffffffffffffffffffffffffffffffffffffffffffffff04831182151516156127f1576127f061260c565b5b828202905092915050565b7f4368726f6d6142617463683a206f776e657220696e646578206f7574206f662060008201527f626f756e64730000000000000000000000000000000000000000000000000000602082015250565b6000612858602683611ea0565b9150612863826127fc565b604082019050919050565b600060208201905081810360008301526128878161284b565b9050919050565b7f4368726f6d6142617463683a20676c6f62616c20696e646578206f7574206f6660008201527f20626f756e647300000000000000000000000000000000000000000000000000602082015250565b60006128ea602783611ea0565b91506128f58261288e565b604082019050919050565b60006020820190508181036000830152612919816128dd565b9050919050565b60008151905061292f8161200f565b92915050565b60006020828403121561294b5761294a611dd0565b5b600061295984828501612920565b91505092915050565b7f4368726f6d6142617463683a2043616e6e6f74206164642073656c6600000000600082015250565b6000612998601c83611ea0565b91506129a382612962565b602082019050919050565b600060208201905081810360008301526129c78161298b565b9050919050565b7f4368726f6d6142617463683a204e6f74206120636f6e74726163740000000000600082015250565b6000612a04601b83611ea0565b9150612a0f826129ce565b602082019050919050565b60006020820190508181036000830152612a33816129f7565b9050919050565b600067ffffffffffffffff821115612a5557612a54612254565b5b612a5e82611ee4565b9050602081019050919050565b6000612a7e612a7984612a3a565b6122b4565b905082815260208101848484011115612a9a57612a9961224f565b5b612aa5848285611eb1565b509392505050565b600082601f830112612ac257612ac161224a565b5b8151612ad2848260208601612a6b565b91505092915050565b600060208284031215612af157612af0611dd0565b5b600082015167ffffffffffffffff811115612b0f57612b0e611dd5565b5b612b1b84828501612aad565b91505092915050565b7f4f776e61626c653a206e6577206f776e657220697320746865207a65726f206160008201527f6464726573730000000000000000000000000000000000000000000000000000602082015250565b6000612b80602683611ea0565b9150612b8b82612b24565b604082019050919050565b60006020820190508181036000830152612baf81612b73565b9050919050565b7f416464726573733a207374617469632063616c6c20746f206e6f6e2d636f6e7460008201527f7261637400000000000000000000000000000000000000000000000000000000602082015250565b6000612c12602483611ea0565b9150612c1d82612bb6565b604082019050919050565b60006020820190508181036000830152612c4181612c05565b9050919050565b600081519050919050565b600081905092915050565b6000612c6982612c48565b612c738185612c53565b9350612c83818560208601611eb1565b80840191505092915050565b6000612c9b8284612c5e565b915081905092915050565b7f4368726f6d6142617463683a2042616420426174636820546f6b656e20496400600082015250565b6000612cdc601f83611ea0565b9150612ce782612ca6565b602082019050919050565b60006020820190508181036000830152612d0b81612ccf565b9050919050565b7f4e487b7100000000000000000000000000000000000000000000000000000000600052601260045260246000fd5b6000612d4c82611f50565b9150612d5783611f50565b925082612d6757612d66612d12565b5b828204905092915050565b7f4368726f6d6142617463683a20426174636820546f6b656e206e6f7420666f7560008201527f6e64000000000000000000000000000000000000000000000000000000000000602082015250565b6000612dce602283611ea0565b9150612dd982612d72565b604082019050919050565b60006020820190508181036000830152612dfd81612dc1565b9050919050565b6000612e0f82611f50565b9150612e1a83611f50565b925082612e2a57612e29612d12565b5b82820690509291505056fe4368726f6d6142617463683a20436f6e7472616374206973206e6f74204368726f6d61a2646970667358221220cd9388d0d434cb47d02c7c5a6c6b41635e922c86f14395db6e4184d42df2c51564736f6c634300080f00334368726f6d6142617463683a20436f6e7472616374206973206e6f74204368726f6d61",
  "immutableReferences": {},
  "source": "// SPDX-License-Identifier: MIT\n//\n// by collect-code 2022\n// https://collect-code.com/\n//\npragma solidity ^0.8.2;\nimport \"@openzeppelin/contracts/token/ERC721/IERC721.sol\";\nimport \"@openzeppelin/contracts/token/ERC721/extensions/ERC721Enumerable.sol\";\nimport \"@openzeppelin/contracts/token/ERC721/extensions/IERC721Metadata.sol\";\nimport \"@openzeppelin/contracts/access/Ownable.sol\";\nimport \"@openzeppelin/contracts/utils/Address.sol\";\n\ninterface IChroma is IERC721, IERC721Metadata, IERC721Enumerable {\n\t// struct State {\n\t// \tbool isReleased;\n\t// \tuint256 mintedCount;\n\t// \tuint256 builtCount;\n\t// \tuint256 notBuiltCount;\n\t// \tuint256 currentSupply;\n\t// \tuint256 availableSupply;\n\t// \tuint256 maxBuyout;\n\t// \tbool isAvailable;\n\t// }\n\t// function getState() external view returns (State memory);\n}\n\ncontract ChromaBatch is IERC721, IERC721Metadata, IERC721Enumerable, Ownable {\n\t\n\tstruct Contract {\n\t\tIChroma instance;\n\t\tuint8 seriesNumber;\n\t\tbool isActive;\n\t}\n\n\tbool public isVisible = true;\n\tuint256 public constant batchMultiplier = 10000;\n\tmapping(uint8 => Contract) public contracts;\n\tuint8[] public series;\n\n\tevent ContractSetup(address indexed contractAddress, uint8 indexed seriesNumber, bool indexed isActive);\n\tevent ChangedVisibility(bool indexed isVisible);\n\n\tconstructor(uint8[] memory seriesNumbers, address[] memory contractAddress) {\n\t\tfor(uint256 i = 0 ; i < seriesNumbers.length && i < contractAddress.length ; i++) {\n\t\t\tsetupContract(seriesNumbers[i], contractAddress[i], true);\n\t\t}\n\t}\n\t\n\tfunction setupContract(uint8 seriesNumber, address contractAddress, bool isActive) public onlyOwner {\n\t\trequire(address(this) != contractAddress, \"ChromaBatch: Cannot add self\");\n\t\trequire(Address.isContract(contractAddress), \"ChromaBatch: Not a contract\");\n\t\tvalidateChromaFunction(contractAddress, \"getState()\");\n\t\tIChroma instance = IChroma(contractAddress);\n\t\tif(contracts[seriesNumber].seriesNumber != seriesNumber) {\n\t\t\tseries.push(seriesNumber);\n\t\t}\n\t\tcontracts[seriesNumber] = Contract(instance, seriesNumber, isActive);\n\t\temit ContractSetup(contractAddress, seriesNumber, isActive);\n\t}\n\tfunction setVisibility(bool newVisible) onlyOwner public {\n\t\tisVisible = newVisible;\n\t\temit ChangedVisibility(isVisible);\n\t}\n\n\tfunction validateChromaFunction(address contractAddress, string memory functionSignature) internal view {\n\t\tbytes4 functionSelector = bytes4(keccak256(bytes(functionSignature)));\n\t\tbytes memory data = abi.encodeWithSelector(functionSelector);\n\t\tAddress.functionStaticCall(contractAddress, data, \"ChromaBatch: Contract is not Chroma\");\n\t}\n\n\tfunction getContractForBatchTokenId(uint256 batchTokenId) internal view returns(IChroma instance, uint256 tokenId) {\n\t\trequire(batchTokenId >= batchMultiplier, \"ChromaBatch: Bad Batch Token Id\");\n\t\tuint8 seriesNumber = uint8(batchTokenId / batchMultiplier);\n\t\tContract memory c = contracts[seriesNumber];\n\t\trequire(c.seriesNumber == seriesNumber && c.isActive, \"ChromaBatch: Batch Token not found\");\n\t\treturn (c.instance, batchTokenId % batchMultiplier);\n\t}\n\n\t// IERC165\n\tfunction supportsInterface(bytes4 interfaceId) public view override returns (bool) {\n\t\tif(!isVisible) {\n\t\t\treturn interfaceId == type(IERC165).interfaceId;\n\t\t}\n\t\treturn\n\t\t\tinterfaceId == type(IERC165).interfaceId ||\n\t\t\tinterfaceId == type(IERC721).interfaceId ||\n\t\t\tinterfaceId == type(IERC721Metadata).interfaceId ||\n\t\t\tinterfaceId == type(IERC721Enumerable).interfaceId;\n\t}\n\n\t// IERC721\n\t// getters\n\tfunction balanceOf(address owner) public view override returns (uint256) {\n\t\tuint256 result = 0;\n\t\tfor(uint256 i = 0 ; i < series.length ; i++) {\n\t\t\tContract memory c = contracts[series[i]];\n\t\t\tif(c.isActive) {\n\t\t\t\tresult += c.instance.balanceOf(owner);\n\t\t\t}\n\t\t}\n\t\treturn result;\n\t}\n\tfunction ownerOf(uint256 batchTokenId) public view override returns (address) {\n\t\t(IChroma instance, uint256 tokenId) = getContractForBatchTokenId(batchTokenId);\n\t\treturn instance.ownerOf(tokenId);\n\t}\n\tfunction getApproved(uint256 /* batchTokenId */) public pure override returns (address) {\n\t\trevert(\"ChromaBatch: Sales disabled\");\n\t\t// TODO: Enable sales\n\t\t// (IChroma instance, uint256 tokenId) = getContractForBatchTokenId(batchTokenId);\n\t\t// return instance.getApproved(tokenId);\n\t}\n\tfunction isApprovedForAll(address /* owner */, address /* operator */) public pure override returns (bool) {\n\t\treturn false;\n\t\t// TODO: Enable sales\n\t\t// return instance.isApprovedForAll(owner, operator);\n\t}\n\t// approvals\n\tfunction approve(address /* to */, uint256 /* batchTokenId */) public pure override {\n\t\trevert(\"ChromaBatch: Sales disabled\");\n\t\t// TODO: Enable sales\n\t\t// (IChroma instance, uint256 tokenId) = getContractForBatchTokenId(batchTokenId);\n\t\t// instance.approve(to, tokenId);\n\t}\n\tfunction setApprovalForAll(address /* operator */, bool /* approved */) public pure override {\n\t\trevert(\"ChromaBatch: Sales disabled\");\n\t\t// TODO: Enable sales\n\t\t// instance.setApprovalForAll(operator, approved);\n\t}\n\t// transfers\n\tfunction safeTransferFrom( address /* from */, address /* to */, uint256 /* batchTokenId */) public pure override {\n\t\trevert(\"ChromaBatch: Sales disabled\");\n\t\t// TODO: Enable sales\n\t\t// (IChroma instance, uint256 tokenId) = getContractForBatchTokenId(batchTokenId);\n\t\t// require(instance.isApprovedForAll(from, address(this)), \"ChromaBatch: Approve Chroma Batch first\");\n\t\t// instance.safeTransferFrom(from, to, tokenId);\n\t}\n\tfunction safeTransferFrom(address /* from */, address /* to */, uint256 /* batchTokenId */, bytes memory /* _data */) public pure override {\n\t\trevert(\"ChromaBatch: Sales disabled\");\n\t\t// TODO: Enable sales\n\t\t// (IChroma instance, uint256 tokenId) = getContractForBatchTokenId(batchTokenId);\n\t\t// require(instance.isApprovedForAll(from, address(this)), \"ChromaBatch: Approve Chroma Batch first\");\n\t\t// instance.safeTransferFrom(from, to, tokenId, _data);\n\t}\n\tfunction transferFrom( address /* from */, address /* to */, uint256 /* batchTokenId */) public pure override {\n\t\trevert(\"ChromaBatch: Sales disabled\");\n\t\t// TODO: Enable sales\n\t\t// (IChroma instance, uint256 tokenId) = getContractForBatchTokenId(batchTokenId);\n\t\t// require(instance.isApprovedForAll(from, address(this)), \"ChromaBatch: Approve Chroma Batch first\");\n\t\t// instance.transferFrom(from, to, tokenId);\n\t}\n\n\t// IERC721Enumerable\n\tfunction totalSupply() public view override returns (uint256) {\n\t\tuint256 result = 0;\n\t\tfor(uint256 i = 0 ; i < series.length ; i++) {\n\t\t\tContract memory c = contracts[series[i]];\n\t\t\tif(c.isActive) {\n\t\t\t\tresult += c.instance.totalSupply();\n\t\t\t}\n\t\t}\n\t\treturn result;\n\t}\n\tfunction tokenOfOwnerByIndex(address owner, uint256 batchIndex) public view override returns (uint256) {\n\t\tuint256 batchBalance = 0;\n\t\tfor(uint256 i = 0 ; i < series.length ; i++) {\n\t\t\tContract memory c = contracts[series[i]];\n\t\t\tif(c.isActive) {\n\t\t\t\tuint256 index = batchIndex - batchBalance;\n\t\t\t\tuint256 contractBalance = c.instance.balanceOf(owner);\n\t\t\t\tif(index < contractBalance) {\n\t\t\t\t\treturn (series[i] * batchMultiplier) + c.instance.tokenOfOwnerByIndex(owner, index);\n\t\t\t\t}\n\t\t\t\tbatchBalance += contractBalance;\n\t\t\t}\n\t\t}\n\t\trevert(\"ChromaBatch: owner index out of bounds\");\n\t}\n\tfunction tokenByIndex(uint256 batchIndex) public view override returns (uint256) {\n\t\tuint256 batchSupply = 0;\n\t\tfor(uint256 i = 0 ; i < series.length ; i++) {\n\t\t\tContract memory c = contracts[series[i]];\n\t\t\tif(c.isActive) {\n\t\t\t\tuint256 index = batchIndex - batchSupply;\n\t\t\t\tuint256 contractSupply = c.instance.totalSupply();\n\t\t\t\tif(index < contractSupply) {\n\t\t\t\t\treturn (series[i] * batchMultiplier) + c.instance.tokenByIndex(index);\n\t\t\t\t}\n\t\t\t\tbatchSupply += contractSupply;\n\t\t\t}\n\t\t}\n\t\trevert(\"ChromaBatch: global index out of bounds\");\n\t}\n\n\t// IERC721Metadata\n\tfunction name() public pure override returns (string memory) {\n\t\treturn \"ChromaBatch\";\n\t}\n\tfunction symbol() public pure override returns (string memory) {\n\t\treturn \"CHB\";\n\t}\n\tfunction tokenURI(uint256 batchTokenId) public view override returns (string memory) {\n\t\t(IChroma instance, uint256 tokenId) = getContractForBatchTokenId(batchTokenId);\n\t\treturn instance.tokenURI(tokenId);\n\t}\n}\n",
  "sourcePath": "/Users/roger/Dev/Blockchain/Truffle/cc-euclid/contracts/ChromaBatch.sol",
  "compiler": {
    "name": "solc",
    "version": "0.8.15+commit.e14f2714.Emscripten.clang"
  },
  "schemaVersion": "3.4.7",
  "updatedAt": "2022-07-01T03:25:41.107Z",
  "networkType": "ethereum",
  "devdoc": {
    "kind": "dev",
    "methods": {
      "balanceOf(address)": {
        "details": "Returns the number of tokens in ``owner``'s account."
      },
      "name()": {
        "details": "Returns the token collection name."
      },
      "owner()": {
        "details": "Returns the address of the current owner."
      },
      "renounceOwnership()": {
        "details": "Leaves the contract without owner. It will not be possible to call `onlyOwner` functions anymore. Can only be called by the current owner. NOTE: Renouncing ownership will leave the contract without an owner, thereby removing any functionality that is only available to the owner."
      },
      "supportsInterface(bytes4)": {
        "details": "Returns true if this contract implements the interface defined by `interfaceId`. See the corresponding https://eips.ethereum.org/EIPS/eip-165#how-interfaces-are-identified[EIP section] to learn more about how these ids are created. This function call must use less than 30 000 gas."
      },
      "symbol()": {
        "details": "Returns the token collection symbol."
      },
      "totalSupply()": {
        "details": "Returns the total amount of tokens stored by the contract."
      },
      "transferOwnership(address)": {
        "details": "Transfers ownership of the contract to a new account (`newOwner`). Can only be called by the current owner."
      }
    },
    "version": 1
  },
  "userdoc": {
    "kind": "user",
    "methods": {},
    "version": 1
  }
}