{
  "contractName": "EuclidRandomizer",
  "abi": [
    {
      "inputs": [],
      "stateMutability": "nonpayable",
      "type": "constructor"
    },
    {
      "inputs": [
        {
          "internalType": "address",
          "name": "contractAddress",
          "type": "address"
        },
        {
          "internalType": "address",
          "name": "senderAddress",
          "type": "address"
        },
        {
          "internalType": "uint256",
          "name": "blockNumber",
          "type": "uint256"
        },
        {
          "internalType": "uint256",
          "name": "tokenNumber",
          "type": "uint256"
        }
      ],
      "name": "makeSeed",
      "outputs": [
        {
          "internalType": "uint128",
          "name": "",
          "type": "uint128"
        }
      ],
      "stateMutability": "view",
      "type": "function",
      "constant": true
    },
    {
      "inputs": [
        {
          "internalType": "uint128",
          "name": "seed",
          "type": "uint128"
        }
      ],
      "name": "initialize",
      "outputs": [
        {
          "components": [
            {
              "internalType": "uint32[4]",
              "name": "state",
              "type": "uint32[4]"
            },
            {
              "internalType": "uint32",
              "name": "value",
              "type": "uint32"
            }
          ],
          "internalType": "struct IEuclidRandomizer.RandomizerState",
          "name": "",
          "type": "tuple"
        }
      ],
      "stateMutability": "pure",
      "type": "function",
      "constant": true
    },
    {
      "inputs": [
        {
          "internalType": "bytes16",
          "name": "seed",
          "type": "bytes16"
        }
      ],
      "name": "initialize",
      "outputs": [
        {
          "components": [
            {
              "internalType": "uint32[4]",
              "name": "state",
              "type": "uint32[4]"
            },
            {
              "internalType": "uint32",
              "name": "value",
              "type": "uint32"
            }
          ],
          "internalType": "struct IEuclidRandomizer.RandomizerState",
          "name": "",
          "type": "tuple"
        }
      ],
      "stateMutability": "pure",
      "type": "function",
      "constant": true
    },
    {
      "inputs": [
        {
          "components": [
            {
              "internalType": "uint32[4]",
              "name": "state",
              "type": "uint32[4]"
            },
            {
              "internalType": "uint32",
              "name": "value",
              "type": "uint32"
            }
          ],
          "internalType": "struct IEuclidRandomizer.RandomizerState",
          "name": "self",
          "type": "tuple"
        }
      ],
      "name": "getNextValue",
      "outputs": [
        {
          "components": [
            {
              "internalType": "uint32[4]",
              "name": "state",
              "type": "uint32[4]"
            },
            {
              "internalType": "uint32",
              "name": "value",
              "type": "uint32"
            }
          ],
          "internalType": "struct IEuclidRandomizer.RandomizerState",
          "name": "",
          "type": "tuple"
        }
      ],
      "stateMutability": "pure",
      "type": "function",
      "constant": true
    },
    {
      "inputs": [
        {
          "components": [
            {
              "internalType": "uint32[4]",
              "name": "state",
              "type": "uint32[4]"
            },
            {
              "internalType": "uint32",
              "name": "value",
              "type": "uint32"
            }
          ],
          "internalType": "struct IEuclidRandomizer.RandomizerState",
          "name": "self",
          "type": "tuple"
        },
        {
          "internalType": "uint32",
          "name": "maxExclusive",
          "type": "uint32"
        }
      ],
      "name": "getInt",
      "outputs": [
        {
          "components": [
            {
              "internalType": "uint32[4]",
              "name": "state",
              "type": "uint32[4]"
            },
            {
              "internalType": "uint32",
              "name": "value",
              "type": "uint32"
            }
          ],
          "internalType": "struct IEuclidRandomizer.RandomizerState",
          "name": "",
          "type": "tuple"
        }
      ],
      "stateMutability": "pure",
      "type": "function",
      "constant": true
    },
    {
      "inputs": [
        {
          "components": [
            {
              "internalType": "uint32[4]",
              "name": "state",
              "type": "uint32[4]"
            },
            {
              "internalType": "uint32",
              "name": "value",
              "type": "uint32"
            }
          ],
          "internalType": "struct IEuclidRandomizer.RandomizerState",
          "name": "self",
          "type": "tuple"
        },
        {
          "internalType": "uint32",
          "name": "minInclusive",
          "type": "uint32"
        },
        {
          "internalType": "uint32",
          "name": "maxExclusive",
          "type": "uint32"
        }
      ],
      "name": "getIntRange",
      "outputs": [
        {
          "components": [
            {
              "internalType": "uint32[4]",
              "name": "state",
              "type": "uint32[4]"
            },
            {
              "internalType": "uint32",
              "name": "value",
              "type": "uint32"
            }
          ],
          "internalType": "struct IEuclidRandomizer.RandomizerState",
          "name": "",
          "type": "tuple"
        }
      ],
      "stateMutability": "pure",
      "type": "function",
      "constant": true
    }
  ],
  "bytecode": "0x608060405234801561001057600080fd5b50610e65806100206000396000f3fe608060405234801561001057600080fd5b50600436106100625760003560e01c8063290f10501461006757806356db9ef114610097578063591e5735146100c7578063bd33d1e3146100f7578063be1cfcc414610127578063f192d0e714610157575b600080fd5b610081600480360381019061007c9190610715565b610187565b60405161008e9190610842565b60405180910390f35b6100b160048036038101906100ac91906108a5565b6101e1565b6040516100be9190610842565b60405180910390f35b6100e160048036038101906100dc91906108d2565b610295565b6040516100ee9190610842565b60405180910390f35b610111600480360381019061010c919061096a565b6102d8565b60405161011e9190610842565b60405180910390f35b610141600480360381019061013c9190610997565b6102f3565b60405161014e9190610842565b60405180910390f35b610171600480360381019061016c9190610a58565b61049d565b60405161017e9190610ace565b60405180910390f35b61018f6104e6565b610198846102f3565b935082826101a69190610b18565b84602001516101b59190610b7b565b836101c09190610bac565b846020019063ffffffff16908163ffffffff16815250508390509392505050565b6101e96104e6565b6101f16104e6565b60005b60048110156102725763ffffffff81602061020f9190610be6565b856fffffffffffffffffffffffffffffffff16901c1682600001518260036102379190610c40565b6004811061024857610247610c74565b5b602002019063ffffffff16908163ffffffff1681525050808061026a90610ca3565b9150506101f4565b506000816020019063ffffffff16908163ffffffff168152505080915050919050565b61029d6104e6565b6102a6836102f3565b92508183602001516102b89190610b7b565b836020019063ffffffff16908163ffffffff168152505082905092915050565b6102e06104e6565b6102ec8260801c6101e1565b9050919050565b6102fb6104e6565b6000826000015160036004811061031557610314610c74565b5b60200201519050826000015160026004811061033457610333610c74565b5b6020020151836000015160036004811061035157610350610c74565b5b602002019063ffffffff16908163ffffffff168152505082600001516001600481106103805761037f610c74565b5b6020020151836000015160026004811061039d5761039c610c74565b5b602002019063ffffffff16908163ffffffff168152505082600001516000600481106103cc576103cb610c74565b5b602002015183600001516001600481106103e9576103e8610c74565b5b602002019063ffffffff16908163ffffffff16815250506000836000015160006004811061041a57610419610c74565b5b60200201519050600b8263ffffffff16901b8218915060088263ffffffff16901c8218915060138163ffffffff16901c81831818846000015160006004811061046657610465610c74565b5b602002019063ffffffff16908163ffffffff16815250846020019063ffffffff16908163ffffffff16815250508392505050919050565b6000600b836104ac9190610c40565b408585846040516020016104c39493929190610dd6565b6040516020818303038152906040528051906020012060801c9050949350505050565b60405180604001604052806104f961050c565b8152602001600063ffffffff1681525090565b6040518060800160405280600490602082028036833780820191505090505090565b6000604051905090565b600080fd5b600080fd5b6000601f19601f8301169050919050565b7f4e487b7100000000000000000000000000000000000000000000000000000000600052604160045260246000fd5b61058b82610542565b810181811067ffffffffffffffff821117156105aa576105a9610553565b5b80604052505050565b60006105bd61052e565b90506105c98282610582565b919050565b600080fd5b600067ffffffffffffffff8211156105ee576105ed610553565b5b602082029050919050565b600080fd5b600063ffffffff82169050919050565b610617816105fe565b811461062257600080fd5b50565b6000813590506106348161060e565b92915050565b600061064d610648846105d3565b6105b3565b90508060208402830185811115610667576106666105f9565b5b835b81811015610690578061067c8882610625565b845260208401935050602081019050610669565b5050509392505050565b600082601f8301126106af576106ae6105ce565b5b60046106bc84828561063a565b91505092915050565b600060a082840312156106db576106da61053d565b5b6106e560406105b3565b905060006106f58482850161069a565b600083015250608061070984828501610625565b60208301525092915050565b600080600060e0848603121561072e5761072d610538565b5b600061073c868287016106c5565b93505060a061074d86828701610625565b92505060c061075e86828701610625565b9150509250925092565b600060049050919050565b600081905092915050565b6000819050919050565b610791816105fe565b82525050565b60006107a38383610788565b60208301905092915050565b6000602082019050919050565b6107c581610768565b6107cf8184610773565b92506107da8261077e565b8060005b8381101561080b5781516107f28782610797565b96506107fd836107af565b9250506001810190506107de565b505050505050565b60a08201600082015161082960008501826107bc565b50602082015161083c6080850182610788565b50505050565b600060a0820190506108576000830184610813565b92915050565b60006fffffffffffffffffffffffffffffffff82169050919050565b6108828161085d565b811461088d57600080fd5b50565b60008135905061089f81610879565b92915050565b6000602082840312156108bb576108ba610538565b5b60006108c984828501610890565b91505092915050565b60008060c083850312156108e9576108e8610538565b5b60006108f7858286016106c5565b92505060a061090885828601610625565b9150509250929050565b60007fffffffffffffffffffffffffffffffff0000000000000000000000000000000082169050919050565b61094781610912565b811461095257600080fd5b50565b6000813590506109648161093e565b92915050565b6000602082840312156109805761097f610538565b5b600061098e84828501610955565b91505092915050565b600060a082840312156109ad576109ac610538565b5b60006109bb848285016106c5565b91505092915050565b600073ffffffffffffffffffffffffffffffffffffffff82169050919050565b60006109ef826109c4565b9050919050565b6109ff816109e4565b8114610a0a57600080fd5b50565b600081359050610a1c816109f6565b92915050565b6000819050919050565b610a3581610a22565b8114610a4057600080fd5b50565b600081359050610a5281610a2c565b92915050565b60008060008060808587031215610a7257610a71610538565b5b6000610a8087828801610a0d565b9450506020610a9187828801610a0d565b9350506040610aa287828801610a43565b9250506060610ab387828801610a43565b91505092959194509250565b610ac88161085d565b82525050565b6000602082019050610ae36000830184610abf565b92915050565b7f4e487b7100000000000000000000000000000000000000000000000000000000600052601160045260246000fd5b6000610b23826105fe565b9150610b2e836105fe565b925082821015610b4157610b40610ae9565b5b828203905092915050565b7f4e487b7100000000000000000000000000000000000000000000000000000000600052601260045260246000fd5b6000610b86826105fe565b9150610b91836105fe565b925082610ba157610ba0610b4c565b5b828206905092915050565b6000610bb7826105fe565b9150610bc2836105fe565b92508263ffffffff03821115610bdb57610bda610ae9565b5b828201905092915050565b6000610bf182610a22565b9150610bfc83610a22565b9250817fffffffffffffffffffffffffffffffffffffffffffffffffffffffffffffffff0483118215151615610c3557610c34610ae9565b5b828202905092915050565b6000610c4b82610a22565b9150610c5683610a22565b925082821015610c6957610c68610ae9565b5b828203905092915050565b7f4e487b7100000000000000000000000000000000000000000000000000000000600052603260045260246000fd5b6000610cae82610a22565b91507fffffffffffffffffffffffffffffffffffffffffffffffffffffffffffffffff8203610ce057610cdf610ae9565b5b600182019050919050565b6000819050919050565b6000819050919050565b610d10610d0b82610ceb565b610cf5565b82525050565b60008160601b9050919050565b6000610d2e82610d16565b9050919050565b6000610d4082610d23565b9050919050565b610d58610d53826109e4565b610d35565b82525050565b6000819050919050565b610d79610d7482610a22565b610d5e565b82525050565b600081905092915050565b7f62612d64756d2d74737300000000000000000000000000000000000000000000600082015250565b6000610dc0600a83610d7f565b9150610dcb82610d8a565b600a82019050919050565b6000610de28287610cff565b602082019150610df28286610d47565b601482019150610e028285610d47565b601482019150610e128284610d68565b602082019150610e2182610db3565b91508190509594505050505056fea2646970667358221220ee09c80f1b6cb1b196caf62efa22d3618bb7ecb5354583a2cde7edc086c28ec664736f6c634300080f0033",
  "immutableReferences": {},
  "source": "// SPDX-License-Identifier: MIT\n//\n//  ********  **     **    ******   **        **  *******  \n// /**/////  /**    /**   **////** /**       /** /**////** \n// /**       /**    /**  **    //  /**       /** /**    /**\n// /*******  /**    /** /**        /**       /** /**    /**\n// /**////   /**    /** /**        /**       /** /**    /**\n// /**       /**    /** //**    ** /**       /** /**    ** \n// /******** //*******   //******  /******** /** /*******  \n// ////////   ///////     //////   ////////  //  ///////   \n//\n// by collect-code 2022\n// https://collect-code.com/\n//\n// PRNG - Pseudo Random Number Generator\n// Based on https://github.com/mattdesl/tiny-artblocks#prng\n// by @mattdesl and @piterpasma, MIT\n// Algorithm \"xor128\" from p. 5 of Marsaglia, \"Xorshift RNGs\"\n//\n// - generates multiple random numbers from a single seed\n// - no gas cost if used inside inside a read call\n// - allows getters to be called as many times as needed\n//\npragma solidity ^0.8.2;\nimport \"./IEuclidRandomizer.sol\";\n\ncontract EuclidRandomizer is IEuclidRandomizer {\n\tconstructor() {}\n\tfunction makeSeed(address contractAddress, address senderAddress, uint blockNumber, uint256 tokenNumber) public view override returns (uint128) {\n\t\treturn uint128(bytes16(keccak256(abi.encodePacked(blockhash(blockNumber-11), contractAddress, senderAddress, tokenNumber, \"ba-dum-tss\"))));\n\t}\n\tfunction initialize(uint128 seed) public pure override returns (RandomizerState memory) {\n\t\tRandomizerState memory self;\n\t\tfor (uint i = 0; i < 4; i++) {\n\t\t\tself.state[3-i] = uint32( (seed >> (32*i)) & 0xffffffff );\n\t\t}\n\t\tself.value = 0;\n\t\treturn self;\n\t}\n\tfunction initialize(bytes16 seed) public pure override returns (RandomizerState memory) {\n\t\treturn initialize(uint128(seed));\n\t}\n\t// Returns next random uint32 between 0x0 and 0xffffffff\n\tfunction getNextValue(RandomizerState memory self) public pure override returns (RandomizerState memory) {\n\t\tuint32 t = self.state[3];\n\t\tself.state[3] = self.state[2];\n\t\tself.state[2] = self.state[1];\n\t\tself.state[1] = self.state[0];\n\t\tuint32 s = self.state[0];\n\t\tt ^= t << 11;\n\t\tt ^= t >> 8;\n\t\tself.value = self.state[0] = t ^ s ^ (s >> 19);\n\t\treturn self;\n\t}\n\tfunction getInt(RandomizerState memory self, uint32 maxExclusive) public pure override returns (RandomizerState memory) {\n\t\tself = getNextValue(self);\n\t\tself.value = self.value % maxExclusive;\n\t\treturn self;\n\t}\n\tfunction getIntRange(RandomizerState memory self, uint32 minInclusive, uint32 maxExclusive) public pure override returns (RandomizerState memory) {\n\t\tself = getNextValue(self);\n\t\tself.value = minInclusive + (self.value % (maxExclusive-minInclusive));\n\t\treturn self;\n\t}\n}\n",
  "sourcePath": "/Users/roger/Dev/Blockchain/Truffle/cc-euclid/contracts/EuclidRandomizer.sol",
  "compiler": {
    "name": "solc",
    "version": "0.8.15+commit.e14f2714.Emscripten.clang"
  },
  "schemaVersion": "3.4.7",
  "updatedAt": "2022-07-01T03:30:54.026Z",
  "networkType": "ethereum",
  "devdoc": {
    "kind": "dev",
    "methods": {},
    "version": 1
  },
  "userdoc": {
    "kind": "user",
    "methods": {},
    "version": 1
  }
}