{
  "contractName": "EuclidRandomizerTest",
  "abi": [
    {
      "inputs": [
        {
          "internalType": "uint32",
          "name": "shuffleCount",
          "type": "uint32"
        },
        {
          "internalType": "address",
          "name": "randomizer_",
          "type": "address"
        }
      ],
      "stateMutability": "nonpayable",
      "type": "constructor"
    },
    {
      "inputs": [
        {
          "internalType": "uint128",
          "name": "hash",
          "type": "uint128"
        }
      ],
      "name": "generateMemoryInitialState",
      "outputs": [
        {
          "internalType": "uint32[4]",
          "name": "",
          "type": "uint32[4]"
        }
      ],
      "stateMutability": "view",
      "type": "function"
    },
    {
      "inputs": [
        {
          "internalType": "uint128",
          "name": "hash",
          "type": "uint128"
        }
      ],
      "name": "generateMemorySequence",
      "outputs": [
        {
          "internalType": "uint32[100]",
          "name": "",
          "type": "uint32[100]"
        }
      ],
      "stateMutability": "view",
      "type": "function"
    },
    {
      "inputs": [
        {
          "internalType": "uint128",
          "name": "hash",
          "type": "uint128"
        },
        {
          "internalType": "uint32",
          "name": "maxExclusive",
          "type": "uint32"
        }
      ],
      "name": "generateMemorySequenceInt",
      "outputs": [
        {
          "internalType": "uint32[100]",
          "name": "",
          "type": "uint32[100]"
        }
      ],
      "stateMutability": "view",
      "type": "function"
    },
    {
      "inputs": [
        {
          "internalType": "uint128",
          "name": "hash",
          "type": "uint128"
        },
        {
          "internalType": "uint32",
          "name": "minInclusive",
          "type": "uint32"
        },
        {
          "internalType": "uint32",
          "name": "maxExclusive",
          "type": "uint32"
        }
      ],
      "name": "generateMemorySequenceIntRange",
      "outputs": [
        {
          "internalType": "uint32[100]",
          "name": "",
          "type": "uint32[100]"
        }
      ],
      "stateMutability": "view",
      "type": "function"
    },
    {
      "inputs": [],
      "name": "getShuffleSize",
      "outputs": [
        {
          "internalType": "uint32",
          "name": "",
          "type": "uint32"
        }
      ],
      "stateMutability": "view",
      "type": "function"
    },
    {
      "inputs": [],
      "name": "getShufflePos",
      "outputs": [
        {
          "internalType": "uint32",
          "name": "",
          "type": "uint32"
        }
      ],
      "stateMutability": "view",
      "type": "function"
    },
    {
      "inputs": [
        {
          "internalType": "uint32",
          "name": "tokenNumber",
          "type": "uint32"
        }
      ],
      "name": "getShuffleId",
      "outputs": [
        {
          "internalType": "uint32",
          "name": "",
          "type": "uint32"
        }
      ],
      "stateMutability": "view",
      "type": "function"
    },
    {
      "inputs": [],
      "name": "getSeed",
      "outputs": [
        {
          "internalType": "uint128",
          "name": "",
          "type": "uint128"
        }
      ],
      "stateMutability": "view",
      "type": "function"
    },
    {
      "inputs": [],
      "name": "generateShuffleId",
      "outputs": [
        {
          "internalType": "uint32",
          "name": "",
          "type": "uint32"
        }
      ],
      "stateMutability": "nonpayable",
      "type": "function"
    }
  ],
  "bytecode": "0x60806040523480156200001157600080fd5b506040516200168238038062001682833981810160405281019062000037919062000198565b806000806101000a81548173ffffffffffffffffffffffffffffffffffffffff021916908373ffffffffffffffffffffffffffffffffffffffff16021790555073__EuclidShuffle_________________________63ddec1e756001846040518363ffffffff1660e01b8152600401620000b3929190620001f7565b60006040518083038186803b158015620000cc57600080fd5b505af4158015620000e1573d6000803e3d6000fd5b50505050505062000224565b600080fd5b600063ffffffff82169050919050565b6200010d81620000f2565b81146200011957600080fd5b50565b6000815190506200012d8162000102565b92915050565b600073ffffffffffffffffffffffffffffffffffffffff82169050919050565b6000620001608262000133565b9050919050565b620001728162000153565b81146200017e57600080fd5b50565b600081519050620001928162000167565b92915050565b60008060408385031215620001b257620001b1620000ed565b5b6000620001c2858286016200011c565b9250506020620001d58582860162000181565b9150509250929050565b8082525050565b620001f181620000f2565b82525050565b60006040820190506200020e6000830185620001df565b6200021d6020830184620001e6565b9392505050565b61144e80620002346000396000f3fe608060405234801561001057600080fd5b50600436106100935760003560e01c80633f2b38c3116100665780633f2b38c314610134578063905a0bcb14610152578063a8fb083214610182578063abb138fd146101a0578063ce76a3a4146101d057610093565b80630b7acea71461009857806331546d81146100c857806339b51fb7146100e657806339e7357c14610116575b600080fd5b6100b260048036038101906100ad9190610ad1565b610200565b6040516100bf9190610bb9565b60405180910390f35b6100d06103a4565b6040516100dd9190610be4565b60405180910390f35b61010060048036038101906100fb9190610ad1565b61049d565b60405161010d9190610c83565b60405180910390f35b61011e610551565b60405161012b9190610cad565b60405180910390f35b61013c61060d565b6040516101499190610be4565b60405180910390f35b61016c60048036038101906101679190610cf4565b610629565b6040516101799190610be4565b60405180910390f35b61018a6106c8565b6040516101979190610be4565b60405180910390f35b6101ba60048036038101906101b59190610d21565b6106e4565b6040516101c79190610bb9565b60405180910390f35b6101ea60048036038101906101e59190610d61565b61088b565b6040516101f79190610bb9565b60405180910390f35b610208610a35565b60008060009054906101000a900473ffffffffffffffffffffffffffffffffffffffff1673ffffffffffffffffffffffffffffffffffffffff166356db9ef1846040518263ffffffff1660e01b81526004016102649190610cad565b60a060405180830381865afa158015610281573d6000803e3d6000fd5b505050506040513d601f19601f820116820180604052508101906102a59190610f65565b90506102af610a35565b60005b60648110156103995760008054906101000a900473ffffffffffffffffffffffffffffffffffffffff1673ffffffffffffffffffffffffffffffffffffffff1663be1cfcc4846040518263ffffffff1660e01b81526004016103149190611023565b60a060405180830381865afa158015610331573d6000803e3d6000fd5b505050506040513d601f19601f820116820180604052508101906103559190610f65565b9250826020015182826064811061036f5761036e61103e565b5b602002019063ffffffff16908163ffffffff16815250508080610391906110a6565b9150506102b2565b508092505050919050565b60008073__EuclidShuffle_________________________63039982de60008054906101000a900473ffffffffffffffffffffffffffffffffffffffff1660016103ec610551565b6040518463ffffffff1660e01b815260040161040a93929190611183565b602060405180830381865af4158015610427573d6000803e3d6000fd5b505050506040513d601f19601f8201168201806040525081019061044b91906111ba565b905060008163ffffffff1611610496576040517f08c379a000000000000000000000000000000000000000000000000000000000815260040161048d90611244565b60405180910390fd5b8091505090565b6104a5610a58565b60008060009054906101000a900473ffffffffffffffffffffffffffffffffffffffff1673ffffffffffffffffffffffffffffffffffffffff166356db9ef1846040518263ffffffff1660e01b81526004016105019190610cad565b60a060405180830381865afa15801561051e573d6000803e3d6000fd5b505050506040513d601f19601f820116820180604052508101906105429190610f65565b90508060000151915050919050565b60008060009054906101000a900473ffffffffffffffffffffffffffffffffffffffff1673ffffffffffffffffffffffffffffffffffffffff1663f192d0e73033436001800160049054906101000a900463ffffffff166040518563ffffffff1660e01b81526004016105c794939291906112c5565b602060405180830381865afa1580156105e4573d6000803e3d6000fd5b505050506040513d601f19601f82011682018060405250810190610608919061131f565b905090565b60006001800160049054906101000a900463ffffffff16905090565b60006001800160049054906101000a900463ffffffff1663ffffffff168263ffffffff16111561068e576040517f08c379a000000000000000000000000000000000000000000000000000000000815260040161068590611398565b60405180910390fd5b600160000160008363ffffffff1663ffffffff16815260200190815260200160002060009054906101000a900463ffffffff169050919050565b60006001800160009054906101000a900463ffffffff16905090565b6106ec610a35565b60008060009054906101000a900473ffffffffffffffffffffffffffffffffffffffff1673ffffffffffffffffffffffffffffffffffffffff166356db9ef1856040518263ffffffff1660e01b81526004016107489190610cad565b60a060405180830381865afa158015610765573d6000803e3d6000fd5b505050506040513d601f19601f820116820180604052508101906107899190610f65565b9050610793610a35565b60005b606481101561087f5760008054906101000a900473ffffffffffffffffffffffffffffffffffffffff1673ffffffffffffffffffffffffffffffffffffffff1663591e573584876040518363ffffffff1660e01b81526004016107fa9291906113b8565b60a060405180830381865afa158015610817573d6000803e3d6000fd5b505050506040513d601f19601f8201168201806040525081019061083b9190610f65565b925082602001518282606481106108555761085461103e565b5b602002019063ffffffff16908163ffffffff16815250508080610877906110a6565b915050610796565b50809250505092915050565b610893610a35565b60008060009054906101000a900473ffffffffffffffffffffffffffffffffffffffff1673ffffffffffffffffffffffffffffffffffffffff166356db9ef1866040518263ffffffff1660e01b81526004016108ef9190610cad565b60a060405180830381865afa15801561090c573d6000803e3d6000fd5b505050506040513d601f19601f820116820180604052508101906109309190610f65565b905061093a610a35565b60005b6064811015610a285760008054906101000a900473ffffffffffffffffffffffffffffffffffffffff1673ffffffffffffffffffffffffffffffffffffffff1663290f10508488886040518463ffffffff1660e01b81526004016109a3939291906113e1565b60a060405180830381865afa1580156109c0573d6000803e3d6000fd5b505050506040513d601f19601f820116820180604052508101906109e49190610f65565b925082602001518282606481106109fe576109fd61103e565b5b602002019063ffffffff16908163ffffffff16815250508080610a20906110a6565b91505061093d565b5080925050509392505050565b60405180610c800160405280606490602082028036833780820191505090505090565b6040518060800160405280600490602082028036833780820191505090505090565b6000604051905090565b600080fd5b60006fffffffffffffffffffffffffffffffff82169050919050565b610aae81610a89565b8114610ab957600080fd5b50565b600081359050610acb81610aa5565b92915050565b600060208284031215610ae757610ae6610a84565b5b6000610af584828501610abc565b91505092915050565b600060649050919050565b600081905092915050565b6000819050919050565b600063ffffffff82169050919050565b610b3781610b1e565b82525050565b6000610b498383610b2e565b60208301905092915050565b6000602082019050919050565b610b6b81610afe565b610b758184610b09565b9250610b8082610b14565b8060005b83811015610bb1578151610b988782610b3d565b9650610ba383610b55565b925050600181019050610b84565b505050505050565b6000610c8082019050610bcf6000830184610b62565b92915050565b610bde81610b1e565b82525050565b6000602082019050610bf96000830184610bd5565b92915050565b600060049050919050565b600081905092915050565b6000819050919050565b6000602082019050919050565b610c3581610bff565b610c3f8184610c0a565b9250610c4a82610c15565b8060005b83811015610c7b578151610c628782610b3d565b9650610c6d83610c1f565b925050600181019050610c4e565b505050505050565b6000608082019050610c986000830184610c2c565b92915050565b610ca781610a89565b82525050565b6000602082019050610cc26000830184610c9e565b92915050565b610cd181610b1e565b8114610cdc57600080fd5b50565b600081359050610cee81610cc8565b92915050565b600060208284031215610d0a57610d09610a84565b5b6000610d1884828501610cdf565b91505092915050565b60008060408385031215610d3857610d37610a84565b5b6000610d4685828601610abc565b9250506020610d5785828601610cdf565b9150509250929050565b600080600060608486031215610d7a57610d79610a84565b5b6000610d8886828701610abc565b9350506020610d9986828701610cdf565b9250506040610daa86828701610cdf565b9150509250925092565b600080fd5b6000601f19601f8301169050919050565b7f4e487b7100000000000000000000000000000000000000000000000000000000600052604160045260246000fd5b610e0282610db9565b810181811067ffffffffffffffff82111715610e2157610e20610dca565b5b80604052505050565b6000610e34610a7a565b9050610e408282610df9565b919050565b600080fd5b600067ffffffffffffffff821115610e6557610e64610dca565b5b602082029050919050565b600080fd5b600081519050610e8481610cc8565b92915050565b6000610e9d610e9884610e4a565b610e2a565b90508060208402830185811115610eb757610eb6610e70565b5b835b81811015610ee05780610ecc8882610e75565b845260208401935050602081019050610eb9565b5050509392505050565b600082601f830112610eff57610efe610e45565b5b6004610f0c848285610e8a565b91505092915050565b600060a08284031215610f2b57610f2a610db4565b5b610f356040610e2a565b90506000610f4584828501610eea565b6000830152506080610f5984828501610e75565b60208301525092915050565b600060a08284031215610f7b57610f7a610a84565b5b6000610f8984828501610f15565b91505092915050565b600081905092915050565b610fa681610bff565b610fb08184610f92565b9250610fbb82610c15565b8060005b83811015610fec578151610fd38782610b3d565b9650610fde83610c1f565b925050600181019050610fbf565b505050505050565b60a08201600082015161100a6000850182610f9d565b50602082015161101d6080850182610b2e565b50505050565b600060a0820190506110386000830184610ff4565b92915050565b7f4e487b7100000000000000000000000000000000000000000000000000000000600052603260045260246000fd5b7f4e487b7100000000000000000000000000000000000000000000000000000000600052601160045260246000fd5b6000819050919050565b60006110b18261109c565b91507fffffffffffffffffffffffffffffffffffffffffffffffffffffffffffffffff82036110e3576110e261106d565b5b600182019050919050565b600073ffffffffffffffffffffffffffffffffffffffff82169050919050565b6000819050919050565b600061113361112e611129846110ee565b61110e565b6110ee565b9050919050565b600061114582611118565b9050919050565b60006111578261113a565b9050919050565b6111678161114c565b82525050565b8082525050565b61117d81610a89565b82525050565b6000606082019050611198600083018661115e565b6111a5602083018561116d565b6111b26040830184611174565b949350505050565b6000602082840312156111d0576111cf610a84565b5b60006111de84828501610e75565b91505092915050565b600082825260208201905092915050565b7f536f6c64206f7574000000000000000000000000000000000000000000000000600082015250565b600061122e6008836111e7565b9150611239826111f8565b602082019050919050565b6000602082019050818103600083015261125d81611221565b9050919050565b600061126f826110ee565b9050919050565b61127f81611264565b82525050565b61128e8161109c565b82525050565b60006112af6112aa6112a584610b1e565b61110e565b61109c565b9050919050565b6112bf81611294565b82525050565b60006080820190506112da6000830187611276565b6112e76020830186611276565b6112f46040830185611285565b61130160608301846112b6565b95945050505050565b60008151905061131981610aa5565b92915050565b60006020828403121561133557611334610a84565b5b60006113438482850161130a565b91505092915050565b7f496e76616c696420746f6b656e00000000000000000000000000000000000000600082015250565b6000611382600d836111e7565b915061138d8261134c565b602082019050919050565b600060208201905081810360008301526113b181611375565b9050919050565b600060c0820190506113cd6000830185610ff4565b6113da60a0830184610bd5565b9392505050565b600060e0820190506113f66000830186610ff4565b61140360a0830185610bd5565b61141060c0830184610bd5565b94935050505056fea26469706673582212209f4c9ec90824d85433bfd4c51a7d7246ce161e1f1f1068d0ba0ced4dd3632ec164736f6c634300080f0033",
  "immutableReferences": {},
  "source": "// SPDX-License-Identifier: MIT\npragma solidity ^0.8.2;\nimport \"./IEuclidRandomizer.sol\";\nimport \"./EuclidShuffle.sol\";\n\ncontract EuclidRandomizerTest {\n\n\tIEuclidRandomizer randomizer;\n\tEuclidShuffle.ShuffleState storageShuffle;\n\n\tconstructor(uint32 shuffleCount, address randomizer_) {\n\t\trandomizer = IEuclidRandomizer(randomizer_);\n\t\tEuclidShuffle.initialize(storageShuffle, shuffleCount);\n\t}\n\n\t//-----------------------\n\t// Memory tests\n\tfunction generateMemoryInitialState(uint128 hash) public view returns (uint32[4] memory) {\n\t\tIEuclidRandomizer.RandomizerState memory memState = randomizer.initialize(hash);\n\t\treturn memState.state;\n\t}\n\tfunction generateMemorySequence(uint128 hash) public view returns (uint32[100] memory) {\n\t\tIEuclidRandomizer.RandomizerState memory memState = randomizer.initialize(hash);\n\t\tuint32[100] memory memSequence;\n\t\tfor (uint i = 0; i < 100; i++) {\n\t\t\tmemState = randomizer.getNextValue(memState);\n\t\t\tmemSequence[i] = memState.value;\n\t\t}\n\t\treturn memSequence;\n\t}\n\tfunction generateMemorySequenceInt(uint128 hash, uint32 maxExclusive) public view returns (uint32[100] memory) {\n\t\tIEuclidRandomizer.RandomizerState memory memState = randomizer.initialize(hash);\n\t\tuint32[100] memory memSequence;\n\t\tfor (uint i = 0; i < 100; i++) {\n\t\t\tmemState = randomizer.getInt(memState, maxExclusive);\n\t\t\tmemSequence[i] = memState.value;\n\t\t}\n\t\treturn memSequence;\n\t}\n\tfunction generateMemorySequenceIntRange(uint128 hash, uint32 minInclusive, uint32 maxExclusive) public view returns (uint32[100] memory) {\n\t\tIEuclidRandomizer.RandomizerState memory memState = randomizer.initialize(hash);\n\t\tuint32[100] memory memSequence;\n\t\tfor (uint i = 0; i < 100; i++) {\n\t\t\tmemState = randomizer.getIntRange(memState, minInclusive, maxExclusive);\n\t\t\tmemSequence[i] = memState.value;\n\t\t}\n\t\treturn memSequence;\n\t}\n\n\t//-----------------------\n\t// Shuffle tests\n\tfunction getShuffleSize() public view returns(uint32) {\n\t\treturn storageShuffle.size;\n\t}\n\tfunction getShufflePos() public view returns(uint32) {\n\t\treturn storageShuffle.pos;\n\t}\n\tfunction getShuffleId(uint32 tokenNumber) public view returns(uint32) {\n\t\trequire(tokenNumber <= storageShuffle.pos, 'Invalid token');\n\t\treturn storageShuffle.ids[tokenNumber];\n\t}\n\tfunction getSeed() public view returns(uint128) {\n\t\treturn randomizer.makeSeed(address(this), msg.sender, block.number, storageShuffle.pos);\n\t}\n\tfunction generateShuffleId() public returns(uint32) {\n\t\tuint32 newId = EuclidShuffle.getNextShuffleId(randomizer, storageShuffle, getSeed());\n\t\trequire(newId > 0, 'Sold out');\n\t\treturn newId;\n\t}\n}\n",
  "sourcePath": "/Users/roger/Dev/Blockchain/Truffle/cc-euclid/contracts/EuclidRandomizerTest.sol",
  "compiler": {
    "name": "solc",
    "version": "0.8.15+commit.e14f2714.Emscripten.clang"
  },
  "schemaVersion": "3.4.7",
  "updatedAt": "2022-06-30T01:30:53.861Z",
  "devdoc": {
    "kind": "dev",
    "methods": {},
    "version": 1
  },
  "userdoc": {
    "kind": "user",
    "methods": {},
    "version": 1
  }
}