{
  "contractName": "Randomizer",
  "abi": [
    {
      "inputs": [
        {
          "internalType": "bytes16",
          "name": "seed",
          "type": "bytes16"
        }
      ],
      "name": "initialize_m",
      "outputs": [
        {
          "components": [
            {
              "internalType": "uint32[4]",
              "name": "state",
              "type": "uint32[4]"
            },
            {
              "internalType": "uint32",
              "name": "value",
              "type": "uint32"
            }
          ],
          "internalType": "struct RandomizerStateMemory",
          "name": "",
          "type": "tuple"
        }
      ],
      "stateMutability": "pure",
      "type": "function"
    },
    {
      "inputs": [
        {
          "internalType": "address",
          "name": "seed",
          "type": "address"
        }
      ],
      "name": "initialize_m",
      "outputs": [
        {
          "components": [
            {
              "internalType": "uint32[4]",
              "name": "state",
              "type": "uint32[4]"
            },
            {
              "internalType": "uint32",
              "name": "value",
              "type": "uint32"
            }
          ],
          "internalType": "struct RandomizerStateMemory",
          "name": "",
          "type": "tuple"
        }
      ],
      "stateMutability": "pure",
      "type": "function"
    },
    {
      "inputs": [
        {
          "internalType": "uint128",
          "name": "seed",
          "type": "uint128"
        }
      ],
      "name": "initialize_m",
      "outputs": [
        {
          "components": [
            {
              "internalType": "uint32[4]",
              "name": "state",
              "type": "uint32[4]"
            },
            {
              "internalType": "uint32",
              "name": "value",
              "type": "uint32"
            }
          ],
          "internalType": "struct RandomizerStateMemory",
          "name": "",
          "type": "tuple"
        }
      ],
      "stateMutability": "pure",
      "type": "function"
    },
    {
      "inputs": [
        {
          "components": [
            {
              "internalType": "uint32[4]",
              "name": "state",
              "type": "uint32[4]"
            },
            {
              "internalType": "uint32",
              "name": "value",
              "type": "uint32"
            }
          ],
          "internalType": "struct RandomizerStateMemory",
          "name": "self",
          "type": "tuple"
        }
      ],
      "name": "getNextValue_m",
      "outputs": [
        {
          "components": [
            {
              "internalType": "uint32[4]",
              "name": "state",
              "type": "uint32[4]"
            },
            {
              "internalType": "uint32",
              "name": "value",
              "type": "uint32"
            }
          ],
          "internalType": "struct RandomizerStateMemory",
          "name": "",
          "type": "tuple"
        }
      ],
      "stateMutability": "pure",
      "type": "function"
    },
    {
      "inputs": [
        {
          "components": [
            {
              "internalType": "uint32[4]",
              "name": "state",
              "type": "uint32[4]"
            },
            {
              "internalType": "uint32",
              "name": "value",
              "type": "uint32"
            }
          ],
          "internalType": "struct RandomizerStateMemory",
          "name": "self",
          "type": "tuple"
        },
        {
          "internalType": "uint32",
          "name": "maxExclusive",
          "type": "uint32"
        }
      ],
      "name": "getInt_m",
      "outputs": [
        {
          "components": [
            {
              "internalType": "uint32[4]",
              "name": "state",
              "type": "uint32[4]"
            },
            {
              "internalType": "uint32",
              "name": "value",
              "type": "uint32"
            }
          ],
          "internalType": "struct RandomizerStateMemory",
          "name": "",
          "type": "tuple"
        }
      ],
      "stateMutability": "pure",
      "type": "function"
    },
    {
      "inputs": [
        {
          "components": [
            {
              "internalType": "uint32[4]",
              "name": "state",
              "type": "uint32[4]"
            },
            {
              "internalType": "uint32",
              "name": "value",
              "type": "uint32"
            }
          ],
          "internalType": "struct RandomizerStateMemory",
          "name": "self",
          "type": "tuple"
        },
        {
          "internalType": "uint32",
          "name": "minInclusive",
          "type": "uint32"
        },
        {
          "internalType": "uint32",
          "name": "maxExclusive",
          "type": "uint32"
        }
      ],
      "name": "getIntRange_m",
      "outputs": [
        {
          "components": [
            {
              "internalType": "uint32[4]",
              "name": "state",
              "type": "uint32[4]"
            },
            {
              "internalType": "uint32",
              "name": "value",
              "type": "uint32"
            }
          ],
          "internalType": "struct RandomizerStateMemory",
          "name": "",
          "type": "tuple"
        }
      ],
      "stateMutability": "pure",
      "type": "function"
    }
  ],
  "bytecode": "0x611980610053600b82828239805160001a607314610046577f4e487b7100000000000000000000000000000000000000000000000000000000600052600060045260246000fd5b30600052607381538281f3fe730000000000000000000000000000000000000000301460806040526004361061010a5760003560e01c806372e1613c116100a1578063b5a6b9ab11610070578063b5a6b9ab14610353578063d2d5a22c14610383578063ed8b9b9c146103b3578063f2e0df2b146103f05761010a565b806372e1613c14610294578063733bf303146102bd5780637c072856146102fa578063aaa0baba1461032a5761010a565b806337a7ef20116100dd57806337a7ef20146101e95780633d517782146102125780634787c8621461024257806350e64ed31461026b5761010a565b80630f12cd181461010f5780631bbedbca1461013f57806328d19fd01461016f5780632b2e2679146101ac575b600080fd5b610129600480360381019061012491906110c8565b610419565b60405161013691906111e2565b60405180910390f35b610159600480360381019061015491906111fd565b61045c565b60405161016691906111e2565b60405180910390f35b81801561017b57600080fd5b5061019660048036038101906101919190611260565b610624565b6040516101a3919061129c565b60405180910390f35b8180156101b857600080fd5b506101d360048036038101906101ce91906112ed565b610947565b6040516101e0919061129c565b60405180910390f35b8180156101f557600080fd5b50610210600480360381019061020b9190611398565b610997565b005b61022c600480360381019061022791906113eb565b6109aa565b60405161023991906111e2565b60405180910390f35b81801561024e57600080fd5b5061026960048036038101906102649190611476565b6109c5565b005b81801561027757600080fd5b50610292600480360381019061028d91906114c9565b6109d5565b005b8180156102a057600080fd5b506102bb60048036038101906102b69190611551565b6109e6565b005b8180156102c957600080fd5b506102e460048036038101906102df9190611591565b610a7d565b6040516102f1919061129c565b60405180910390f35b610314600480360381019061030f91906115be565b610cee565b60405161032191906111e2565b60405180910390f35b81801561033657600080fd5b50610351600480360381019061034c9190611611565b610d48565b005b61036d60048036038101906103689190611651565b610d56565b60405161037a91906111e2565b60405180910390f35b61039d6004803603810190610398919061167e565b610d6e565b6040516103aa91906111e2565b60405180910390f35b8180156103bf57600080fd5b506103da60048036038101906103d591906116ab565b610e22565b6040516103e7919061129c565b60405180910390f35b8180156103fc57600080fd5b50610417600480360381019061041291906116eb565b610e40565b005b610421610e99565b61042a8361045c565b925081836020015161043c919061176d565b836020019063ffffffff16908163ffffffff168152505082905092915050565b610464610e99565b6000826000015160036004811061047e5761047d61179e565b5b60200201519050826000015160026004811061049d5761049c61179e565b5b602002015183600001516003600481106104ba576104b961179e565b5b602002019063ffffffff16908163ffffffff168152505082600001516001600481106104e9576104e861179e565b5b602002015183600001516002600481106105065761050561179e565b5b602002019063ffffffff16908163ffffffff168152505082600001516000600481106105355761053461179e565b5b602002015183600001516001600481106105525761055161179e565b5b602002019063ffffffff16908163ffffffff1681525050600083600001516000600481106105835761058261179e565b5b60200201519050600b8263ffffffff16901b8218915060088263ffffffff16901c8218915060138163ffffffff16901c8183181884600001516000600481106105cf576105ce61179e565b5b602002019063ffffffff16908163ffffffff168152505083600001516000600481106105fe576105fd61179e565b5b6020020151846020019063ffffffff16908163ffffffff16815250508392505050919050565b60008160020160009054906101000a900463ffffffff1663ffffffff168260020160049054906101000a900463ffffffff1663ffffffff160361066a5760009050610942565b60018260020160048282829054906101000a900463ffffffff1661068e91906117fc565b92506101000a81548163ffffffff021916908363ffffffff1602179055508160020160009054906101000a900463ffffffff1663ffffffff168260020160049054906101000a900463ffffffff1663ffffffff1603610734578160010160008360020160049054906101000a900463ffffffff1663ffffffff1663ffffffff16815260200190815260200160002060009054906101000a900463ffffffff169050610942565b6000600161076e846000018560020160049054906101000a900463ffffffff168660020160009054906101000a900463ffffffff16610947565b61077891906117fc565b90506000808460010160008463ffffffff1663ffffffff16815260200190815260200160002060009054906101000a900463ffffffff1663ffffffff16116107c057816107f3565b8360010160008363ffffffff1663ffffffff16815260200190815260200160002060009054906101000a900463ffffffff165b905060008460010160008660020160049054906101000a900463ffffffff1663ffffffff1663ffffffff16815260200190815260200160002060009054906101000a900463ffffffff1663ffffffff1611610862578360020160049054906101000a900463ffffffff166108a9565b8360010160008560020160049054906101000a900463ffffffff1663ffffffff1663ffffffff16815260200190815260200160002060009054906101000a900463ffffffff165b8460010160008463ffffffff1663ffffffff16815260200190815260200160002060006101000a81548163ffffffff021916908363ffffffff160217905550808460010160008660020160049054906101000a900463ffffffff1663ffffffff1663ffffffff16815260200190815260200160002060006101000a81548163ffffffff021916908363ffffffff16021790555080925050505b919050565b60008083836109569190611836565b905060008163ffffffff161161096d576000610982565b8061097786610a7d565b610981919061176d565b5b8461098d91906117fc565b9150509392505050565b6109a5838360801c83610e40565b505050565b6109b2610e99565b6109be8260801c610d6e565b9050919050565b6109d0838383610e40565b505050565b6109e2828260801c6109e6565b5050565b60005b6004811015610a785763ffffffff816020610a049190611874565b836fffffffffffffffffffffffffffffffff16901c1683600001826003610a2b91906118ce565b60048110610a3c57610a3b61179e565b5b600891828204019190066004026101000a81548163ffffffff021916908363ffffffff1602179055508080610a7090611902565b9150506109e9565b505050565b60008082600001600360048110610a9757610a9661179e565b5b600891828204019190066004029054906101000a900463ffffffff16905082600001600260048110610acc57610acb61179e565b5b600891828204019190066004029054906101000a900463ffffffff1683600001600360048110610aff57610afe61179e565b5b600891828204019190066004026101000a81548163ffffffff021916908363ffffffff16021790555082600001600160048110610b3f57610b3e61179e565b5b600891828204019190066004029054906101000a900463ffffffff1683600001600260048110610b7257610b7161179e565b5b600891828204019190066004026101000a81548163ffffffff021916908363ffffffff16021790555082600001600060048110610bb257610bb161179e565b5b600891828204019190066004029054906101000a900463ffffffff1683600001600160048110610be557610be461179e565b5b600891828204019190066004026101000a81548163ffffffff021916908363ffffffff160217905550600083600001600060048110610c2757610c2661179e565b5b600891828204019190066004029054906101000a900463ffffffff169050600b8263ffffffff16901b8218915060088263ffffffff16901c8218915060138163ffffffff16901c8183181884600001600060048110610c8957610c8861179e565b5b600891828204019190066004026101000a81548163ffffffff021916908363ffffffff16021790555083600001600060048110610cc957610cc861179e565b5b600891828204019190066004029054906101000a900463ffffffff1692505050919050565b610cf6610e99565b610cff8461045c565b93508282610d0d9190611836565b8460200151610d1c919061176d565b83610d2791906117fc565b846020019063ffffffff16908163ffffffff16815250508390509392505050565b610d5282826109e6565b5050565b610d5e610e99565b610d6782610d6e565b9050919050565b610d76610e99565b610d7e610e99565b60005b6004811015610dff5763ffffffff816020610d9c9190611874565b856fffffffffffffffffffffffffffffffff16901c168260000151826003610dc491906118ce565b60048110610dd557610dd461179e565b5b602002019063ffffffff16908163ffffffff16815250508080610df790611902565b915050610d81565b506000816020019063ffffffff16908163ffffffff168152505080915050919050565b600081610e2e84610a7d565b610e38919061176d565b905092915050565b610e4d83600001836109e6565b808360020160006101000a81548163ffffffff021916908363ffffffff16021790555060008360020160046101000a81548163ffffffff021916908363ffffffff160217905550505050565b6040518060400160405280610eac610ebf565b8152602001600063ffffffff1681525090565b6040518060800160405280600490602082028036833780820191505090505090565b6000604051905090565b600080fd5b600080fd5b6000601f19601f8301169050919050565b7f4e487b7100000000000000000000000000000000000000000000000000000000600052604160045260246000fd5b610f3e82610ef5565b810181811067ffffffffffffffff82111715610f5d57610f5c610f06565b5b80604052505050565b6000610f70610ee1565b9050610f7c8282610f35565b919050565b600080fd5b600067ffffffffffffffff821115610fa157610fa0610f06565b5b602082029050919050565b600080fd5b600063ffffffff82169050919050565b610fca81610fb1565b8114610fd557600080fd5b50565b600081359050610fe781610fc1565b92915050565b6000611000610ffb84610f86565b610f66565b9050806020840283018581111561101a57611019610fac565b5b835b81811015611043578061102f8882610fd8565b84526020840193505060208101905061101c565b5050509392505050565b600082601f83011261106257611061610f81565b5b600461106f848285610fed565b91505092915050565b600060a0828403121561108e5761108d610ef0565b5b6110986040610f66565b905060006110a88482850161104d565b60008301525060806110bc84828501610fd8565b60208301525092915050565b60008060c083850312156110df576110de610eeb565b5b60006110ed85828601611078565b92505060a06110fe85828601610fd8565b9150509250929050565b600060049050919050565b600081905092915050565b6000819050919050565b61113181610fb1565b82525050565b60006111438383611128565b60208301905092915050565b6000602082019050919050565b61116581611108565b61116f8184611113565b925061117a8261111e565b8060005b838110156111ab5781516111928782611137565b965061119d8361114f565b92505060018101905061117e565b505050505050565b60a0820160008201516111c9600085018261115c565b5060208201516111dc6080850182611128565b50505050565b600060a0820190506111f760008301846111b3565b92915050565b600060a0828403121561121357611212610eeb565b5b600061122184828501611078565b91505092915050565b6000819050919050565b61123d8161122a565b811461124857600080fd5b50565b60008135905061125a81611234565b92915050565b60006020828403121561127657611275610eeb565b5b60006112848482850161124b565b91505092915050565b61129681610fb1565b82525050565b60006020820190506112b1600083018461128d565b92915050565b6000819050919050565b6112ca816112b7565b81146112d557600080fd5b50565b6000813590506112e7816112c1565b92915050565b60008060006060848603121561130657611305610eeb565b5b6000611314868287016112d8565b935050602061132586828701610fd8565b925050604061133686828701610fd8565b9150509250925092565b60007fffffffffffffffffffffffffffffffff0000000000000000000000000000000082169050919050565b61137581611340565b811461138057600080fd5b50565b6000813590506113928161136c565b92915050565b6000806000606084860312156113b1576113b0610eeb565b5b60006113bf8682870161124b565b93505060206113d086828701611383565b92505060406113e186828701610fd8565b9150509250925092565b60006020828403121561140157611400610eeb565b5b600061140f84828501611383565b91505092915050565b600073ffffffffffffffffffffffffffffffffffffffff82169050919050565b600061144382611418565b9050919050565b61145381611438565b811461145e57600080fd5b50565b6000813590506114708161144a565b92915050565b60008060006060848603121561148f5761148e610eeb565b5b600061149d8682870161124b565b93505060206114ae86828701611461565b92505060406114bf86828701610fd8565b9150509250925092565b600080604083850312156114e0576114df610eeb565b5b60006114ee858286016112d8565b92505060206114ff85828601611383565b9150509250929050565b60006fffffffffffffffffffffffffffffffff82169050919050565b61152e81611509565b811461153957600080fd5b50565b60008135905061154b81611525565b92915050565b6000806040838503121561156857611567610eeb565b5b6000611576858286016112d8565b92505060206115878582860161153c565b9150509250929050565b6000602082840312156115a7576115a6610eeb565b5b60006115b5848285016112d8565b91505092915050565b600080600060e084860312156115d7576115d6610eeb565b5b60006115e586828701611078565b93505060a06115f686828701610fd8565b92505060c061160786828701610fd8565b9150509250925092565b6000806040838503121561162857611627610eeb565b5b6000611636858286016112d8565b925050602061164785828601611461565b9150509250929050565b60006020828403121561166757611666610eeb565b5b600061167584828501611461565b91505092915050565b60006020828403121561169457611693610eeb565b5b60006116a28482850161153c565b91505092915050565b600080604083850312156116c2576116c1610eeb565b5b60006116d0858286016112d8565b92505060206116e185828601610fd8565b9150509250929050565b60008060006060848603121561170457611703610eeb565b5b60006117128682870161124b565b93505060206117238682870161153c565b925050604061173486828701610fd8565b9150509250925092565b7f4e487b7100000000000000000000000000000000000000000000000000000000600052601260045260246000fd5b600061177882610fb1565b915061178383610fb1565b9250826117935761179261173e565b5b828206905092915050565b7f4e487b7100000000000000000000000000000000000000000000000000000000600052603260045260246000fd5b7f4e487b7100000000000000000000000000000000000000000000000000000000600052601160045260246000fd5b600061180782610fb1565b915061181283610fb1565b92508263ffffffff0382111561182b5761182a6117cd565b5b828201905092915050565b600061184182610fb1565b915061184c83610fb1565b92508282101561185f5761185e6117cd565b5b828203905092915050565b6000819050919050565b600061187f8261186a565b915061188a8361186a565b9250817fffffffffffffffffffffffffffffffffffffffffffffffffffffffffffffffff04831182151516156118c3576118c26117cd565b5b828202905092915050565b60006118d98261186a565b91506118e48361186a565b9250828210156118f7576118f66117cd565b5b828203905092915050565b600061190d8261186a565b91507fffffffffffffffffffffffffffffffffffffffffffffffffffffffffffffffff820361193f5761193e6117cd565b5b60018201905091905056fea2646970667358221220b037bc6943aa6ff75e5b1ef7f936a1e04f476a6b072b48920849badcd5c2098164736f6c634300080f0033",
  "immutableReferences": {},
  "source": "// SPDX-License-Identifier: MIT\npragma solidity ^0.8.2;\n\nstruct RandomizerStateMemory {\n\tuint32[4] state;\n\tuint32 value;\n}\nstruct RandomizerStateStorage {\n\tuint32[4] state;\n}\nstruct ShuffleStateStorage {\n\tRandomizerStateStorage state;\n\tmapping(uint32 => uint32) ids;\n\tuint32 size;\n\tuint32 pos;\n}\n\nlibrary Randomizer {\n\n\t//-------------------------------\n\t// Memory version\n\t// - resides inside a single read call\n\t// - no gas cost\n\t//\n\tfunction initialize_m(uint128 seed) public pure returns (RandomizerStateMemory memory) {\n\t\tRandomizerStateMemory memory self;\n\t\tfor (uint i = 0; i < 4; i++) {\n\t\t\tself.state[3-i] = uint32( (seed >> (32*i)) & 0xffffffff );\n\t\t}\n\t\tself.value = 0;\n\t\treturn self;\n\t}\n\tfunction initialize_m(bytes16 seed) public pure returns (RandomizerStateMemory memory) {\n\t\treturn initialize_m(uint128(seed));\n\t}\n\tfunction initialize_m(address seed) public pure returns (RandomizerStateMemory memory) {\n\t\treturn initialize_m(uint128(uint160(seed)));\n\t}\n\t// Returns next random uint32 between 0x0 and 0xffffffff\n\tfunction getNextValue_m(RandomizerStateMemory memory self) public pure returns (RandomizerStateMemory memory) {\n\t\t// tentative to save gas, actually increases cost\n\t\t// uint8 i0 = self.index;\n\t\t// uint8 i3 = (self.index+3)%4;\n\t\t// uint32 s = self.state[i0];\n\t\t// uint32 t = self.state[i3];\n\t\t// t ^= t << 11;\n\t\t// t ^= t >> 8;\n\t\t// self.value = t ^ s ^ (s >> 19);\n\t\t// self.state[i3] = self.value;\n\t\t// self.index = i3;\n\t\tuint32 t = self.state[3];\n\t\tself.state[3] = self.state[2];\n\t\tself.state[2] = self.state[1];\n\t\tself.state[1] = self.state[0];\n\t\tuint32 s = self.state[0];\n\t\tt ^= t << 11;\n\t\tt ^= t >> 8;\n\t\tself.state[0] = t ^ s ^ (s >> 19);\n\t\tself.value = self.state[0];\n\t\treturn self;\n\t}\n\tfunction getInt_m(RandomizerStateMemory memory self, uint32 maxExclusive) public pure returns (RandomizerStateMemory memory) {\n\t\tself = getNextValue_m(self);\n\t\tself.value = self.value % maxExclusive;\n\t\treturn self;\n\t}\n\tfunction getIntRange_m(RandomizerStateMemory memory self, uint32 minInclusive, uint32 maxExclusive) public pure returns (RandomizerStateMemory memory) {\n\t\tself = getNextValue_m(self);\n\t\tself.value = minInclusive + (self.value % (maxExclusive-minInclusive));\n\t\treturn self;\n\t}\n\n\n\t//-------------------------------\n\t// Storage version\n\t// - persistent state\n\t// - costs gas\n\t//\n\t// Hash seed is 128 bits / 16 bytes / 32 char hex\n\tfunction initialize_s(RandomizerStateStorage storage self, uint128 seed) public {\n\t\tfor (uint i = 0; i < 4; i++) {\n\t\t\tself.state[3-i] = uint32( (seed >> (32*i)) & 0xffffffff );\n\t\t}\n\t}\n\tfunction initialize_s(RandomizerStateStorage storage self, bytes16 seed) public {\n\t\tinitialize_s(self, uint128(seed));\n\t}\n\tfunction initialize_s(RandomizerStateStorage storage self, address seed) public {\n\t\tinitialize_s(self, uint128(uint160(seed)));\n\t}\n\t// Returns next random uint32 between 0x0 and 0xffffffff\n\tfunction getNextValue_s(RandomizerStateStorage storage self) public returns (uint32) {\n\t\tuint32 t = self.state[3];\n\t\tself.state[3] = self.state[2];\n\t\tself.state[2] = self.state[1];\n\t\tself.state[1] = self.state[0];\n\t\tuint32 s = self.state[0];\n\t\tt ^= t << 11;\n\t\tt ^= t >> 8;\n\t\tself.state[0] = t ^ s ^ (s >> 19);\n\t\treturn self.state[0];\n\t}\n\tfunction getInt_s(RandomizerStateStorage storage self, uint32 maxExclusive) public returns (uint32) {\n\t\treturn getNextValue_s(self) % maxExclusive;\n\t}\n\tfunction getIntRange_s(RandomizerStateStorage storage self, uint32 minInclusive, uint32 maxExclusive) public returns (uint32) {\n\t\tuint32 d = maxExclusive - minInclusive;\n\t\treturn minInclusive + ( d > 0 ? (getNextValue_s(self) % d) : 0 );\n\t}\n\n\t//----------------------------------\n\t// FisherYates shuffle\n\t//\n\t// Initializes Shuffle storage\n\tfunction initialize_shuffle(ShuffleStateStorage storage self, uint128 seed, uint32 size) public {\n\t\tinitialize_s(self.state, seed);\n\t\tself.size = size;\n\t\tself.pos = 0;\n\t}\n\tfunction initialize_shuffle(ShuffleStateStorage storage self, bytes16 seed, uint32 size) public {\n\t\tinitialize_shuffle(self, uint128(seed), size);\n\t}\n\tfunction initialize_shuffle(ShuffleStateStorage storage self, address seed, uint32 size) public {\n\t\tinitialize_shuffle(self, uint128(uint160(seed)), size);\n\t}\n\t// Return new shuffled id from storage\n\t// Ids keys and values range from 1..size\n\t// Returns 0 when all ids have bee used\n\tfunction getNextShuffleId(ShuffleStateStorage storage self) public returns (uint32) {\n\t\tif(self.pos == self.size) return 0; // no more ids available\n\t\tself.pos += 1;\n\t\tif(self.pos == self.size) return self.ids[self.pos]; // last\n\t\t// choose a random cell and swap for current position\n\t\tuint32 swapPos = getIntRange_s(self.state, self.pos, self.size) + 1;\n\t\tuint32 newId = self.ids[swapPos] > 0 ? self.ids[swapPos] : swapPos;\n\t\tself.ids[swapPos] = self.ids[self.pos] > 0 ? self.ids[self.pos] : self.pos;\n\t\tself.ids[self.pos] = newId;\n\t\treturn newId;\n\t}\n\n}\n",
  "sourcePath": "/Users/roger/Dev/Blockchain/Truffle/cc-euclid/contracts/Randomizer.sol",
  "compiler": {
    "name": "solc",
    "version": "0.8.15+commit.e14f2714.Emscripten.clang"
  },
  "schemaVersion": "3.4.7",
  "updatedAt": "2022-06-30T00:01:39.066Z",
  "devdoc": {
    "kind": "dev",
    "methods": {},
    "version": 1
  },
  "userdoc": {
    "kind": "user",
    "methods": {},
    "version": 1
  }
}