{
  "contractName": "RandomizerTest",
  "abi": [
    {
      "inputs": [
        {
          "internalType": "uint32",
          "name": "shuffleCount",
          "type": "uint32"
        }
      ],
      "stateMutability": "nonpayable",
      "type": "constructor"
    },
    {
      "inputs": [
        {
          "internalType": "uint128",
          "name": "hash",
          "type": "uint128"
        }
      ],
      "name": "generateMemoryInitialState",
      "outputs": [
        {
          "internalType": "uint32[4]",
          "name": "",
          "type": "uint32[4]"
        }
      ],
      "stateMutability": "pure",
      "type": "function"
    },
    {
      "inputs": [
        {
          "internalType": "uint128",
          "name": "hash",
          "type": "uint128"
        }
      ],
      "name": "generateMemorySequence",
      "outputs": [
        {
          "internalType": "uint32[100]",
          "name": "",
          "type": "uint32[100]"
        }
      ],
      "stateMutability": "pure",
      "type": "function"
    },
    {
      "inputs": [],
      "name": "getStorageState",
      "outputs": [
        {
          "internalType": "uint32[4]",
          "name": "",
          "type": "uint32[4]"
        }
      ],
      "stateMutability": "view",
      "type": "function"
    },
    {
      "inputs": [],
      "name": "getStorageSequence",
      "outputs": [
        {
          "internalType": "uint32[]",
          "name": "",
          "type": "uint32[]"
        }
      ],
      "stateMutability": "view",
      "type": "function"
    },
    {
      "inputs": [],
      "name": "generateStorageValue",
      "outputs": [
        {
          "internalType": "uint32",
          "name": "",
          "type": "uint32"
        }
      ],
      "stateMutability": "nonpayable",
      "type": "function"
    },
    {
      "inputs": [],
      "name": "getShuffleState",
      "outputs": [
        {
          "internalType": "uint32[4]",
          "name": "",
          "type": "uint32[4]"
        }
      ],
      "stateMutability": "view",
      "type": "function"
    },
    {
      "inputs": [],
      "name": "getShuffleSize",
      "outputs": [
        {
          "internalType": "uint32",
          "name": "",
          "type": "uint32"
        }
      ],
      "stateMutability": "view",
      "type": "function"
    },
    {
      "inputs": [],
      "name": "getShufflePos",
      "outputs": [
        {
          "internalType": "uint32",
          "name": "",
          "type": "uint32"
        }
      ],
      "stateMutability": "view",
      "type": "function"
    },
    {
      "inputs": [
        {
          "internalType": "uint32",
          "name": "tokenNumber",
          "type": "uint32"
        }
      ],
      "name": "getShuffleId",
      "outputs": [
        {
          "internalType": "uint32",
          "name": "",
          "type": "uint32"
        }
      ],
      "stateMutability": "view",
      "type": "function"
    },
    {
      "inputs": [],
      "name": "generateShuffleId",
      "outputs": [
        {
          "internalType": "uint32",
          "name": "",
          "type": "uint32"
        }
      ],
      "stateMutability": "nonpayable",
      "type": "function"
    }
  ],
  "bytecode": "0x60806040523480156200001157600080fd5b50604051620012ef380380620012ef833981810160405281019062000037919062000162565b73__Randomizer____________________________63aaa0baba6000306040518363ffffffff1660e01b815260040162000073929190620001e0565b60006040518083038186803b1580156200008c57600080fd5b505af4158015620000a1573d6000803e3d6000fd5b5050505073__Randomizer____________________________634787c862600230846040518463ffffffff1660e01b8152600401620000e39392919062000225565b60006040518083038186803b158015620000fc57600080fd5b505af415801562000111573d6000803e3d6000fd5b505050505062000262565b600080fd5b600063ffffffff82169050919050565b6200013c8162000121565b81146200014857600080fd5b50565b6000815190506200015c8162000131565b92915050565b6000602082840312156200017b576200017a6200011c565b5b60006200018b848285016200014b565b91505092915050565b8082525050565b600073ffffffffffffffffffffffffffffffffffffffff82169050919050565b6000620001c8826200019b565b9050919050565b620001da81620001bb565b82525050565b6000604082019050620001f7600083018562000194565b620002066020830184620001cf565b9392505050565b8082525050565b6200021f8162000121565b82525050565b60006060820190506200023c60008301866200020d565b6200024b6020830185620001cf565b6200025a604083018462000214565b949350505050565b61107d80620002726000396000f3fe608060405234801561001057600080fd5b506004361061009e5760003560e01c80634d09f900116100665780634d09f9001461015d578063559417921461017b578063905a0bcb14610199578063a8fb0832146101c9578063f62818cf146101e75761009e565b8063044b3b62146100a35780630b7acea7146100c157806331546d81146100f157806339b51fb71461010f5780633f2b38c31461013f575b600080fd5b6100ab610205565b6040516100b891906108e7565b60405180910390f35b6100db60048036038101906100d69190610959565b610282565b6040516100e89190610a0a565b60405180910390f35b6100f96103e1565b6040516101069190610a35565b60405180910390f35b61012960048036038101906101249190610959565b6104af565b60405161013691906108e7565b60405180910390f35b610147610540565b6040516101549190610a35565b60405180910390f35b61016561055c565b60405161017291906108e7565b60405180910390f35b6101836105d5565b6040516101909190610ae7565b60405180910390f35b6101b360048036038101906101ae9190610b35565b610659565b6040516101c09190610a35565b60405180910390f35b6101d16106f8565b6040516101de9190610a35565b60405180910390f35b6101ef610714565b6040516101fc9190610a35565b60405180910390f35b61020d6107e7565b6002600001600001600480602002604051908101604052809291908260048015610278576020028201916000905b82829054906101000a900463ffffffff1663ffffffff168152602001906004019060208260030104928301926001038202915080841161023b5790505b5050505050905090565b61028a610809565b600073__Randomizer____________________________63d2d5a22c846040518263ffffffff1660e01b81526004016102c39190610b71565b60a060405180830381865af41580156102e0573d6000803e3d6000fd5b505050506040513d601f19601f820116820180604052508101906103049190610d3d565b905061030e610809565b60005b60648110156103d65773__Randomizer____________________________631bbedbca846040518263ffffffff1660e01b81526004016103519190610e22565b60a060405180830381865af415801561036e573d6000803e3d6000fd5b505050506040513d601f19601f820116820180604052508101906103929190610d3d565b925082602001518282606481106103ac576103ab610e3d565b5b602002019063ffffffff16908163ffffffff168152505080806103ce90610ea5565b915050610311565b508092505050919050565b60008073__Randomizer____________________________6328d19fd060026040518263ffffffff1660e01b815260040161041c9190610ef4565b602060405180830381865af4158015610439573d6000803e3d6000fd5b505050506040513d601f19601f8201168201806040525081019061045d9190610f0f565b905060008163ffffffff16116104a8576040517f08c379a000000000000000000000000000000000000000000000000000000000815260040161049f90610f99565b60405180910390fd5b8091505090565b6104b76107e7565b600073__Randomizer____________________________63d2d5a22c846040518263ffffffff1660e01b81526004016104f09190610b71565b60a060405180830381865af415801561050d573d6000803e3d6000fd5b505050506040513d601f19601f820116820180604052508101906105319190610d3d565b90508060000151915050919050565b60006002800160049054906101000a900463ffffffff16905090565b6105646107e7565b600080016004806020026040519081016040528092919082600480156105cb576020028201916000905b82829054906101000a900463ffffffff1663ffffffff168152602001906004019060208260030104928301926001038202915080841161058e5790505b5050505050905090565b6060600180548060200260200160405190810160405280929190818152602001828054801561064f57602002820191906000526020600020906000905b82829054906101000a900463ffffffff1663ffffffff16815260200190600401906020826003010492830192600103820291508084116106125790505b5050505050905090565b60006002800160049054906101000a900463ffffffff1663ffffffff168263ffffffff1611156106be576040517f08c379a00000000000000000000000000000000000000000000000000000000081526004016106b590611005565b60405180910390fd5b600260010160008363ffffffff1663ffffffff16815260200190815260200160002060009054906101000a900463ffffffff169050919050565b60006002800160009054906101000a900463ffffffff16905090565b60008073__Randomizer____________________________63733bf30360006040518263ffffffff1660e01b815260040161074f919061102c565b602060405180830381865af415801561076c573d6000803e3d6000fd5b505050506040513d601f19601f820116820180604052508101906107909190610f0f565b905060018190806001815401808255809150506001900390600052602060002090600891828204019190066004029091909190916101000a81548163ffffffff021916908363ffffffff1602179055508091505090565b6040518060800160405280600490602082028036833780820191505090505090565b60405180610c800160405280606490602082028036833780820191505090505090565b600060049050919050565b600081905092915050565b6000819050919050565b600063ffffffff82169050919050565b6108658161084c565b82525050565b6000610877838361085c565b60208301905092915050565b6000602082019050919050565b6108998161082c565b6108a38184610837565b92506108ae82610842565b8060005b838110156108df5781516108c6878261086b565b96506108d183610883565b9250506001810190506108b2565b505050505050565b60006080820190506108fc6000830184610890565b92915050565b6000604051905090565b600080fd5b60006fffffffffffffffffffffffffffffffff82169050919050565b61093681610911565b811461094157600080fd5b50565b6000813590506109538161092d565b92915050565b60006020828403121561096f5761096e61090c565b5b600061097d84828501610944565b91505092915050565b600060649050919050565b600081905092915050565b6000819050919050565b6000602082019050919050565b6109bc81610986565b6109c68184610991565b92506109d18261099c565b8060005b83811015610a025781516109e9878261086b565b96506109f4836109a6565b9250506001810190506109d5565b505050505050565b6000610c8082019050610a2060008301846109b3565b92915050565b610a2f8161084c565b82525050565b6000602082019050610a4a6000830184610a26565b92915050565b600081519050919050565b600082825260208201905092915050565b6000819050602082019050919050565b6000602082019050919050565b6000610a9482610a50565b610a9e8185610a5b565b9350610aa983610a6c565b8060005b83811015610ada578151610ac1888261086b565b9750610acc83610a7c565b925050600181019050610aad565b5085935050505092915050565b60006020820190508181036000830152610b018184610a89565b905092915050565b610b128161084c565b8114610b1d57600080fd5b50565b600081359050610b2f81610b09565b92915050565b600060208284031215610b4b57610b4a61090c565b5b6000610b5984828501610b20565b91505092915050565b610b6b81610911565b82525050565b6000602082019050610b866000830184610b62565b92915050565b600080fd5b6000601f19601f8301169050919050565b7f4e487b7100000000000000000000000000000000000000000000000000000000600052604160045260246000fd5b610bda82610b91565b810181811067ffffffffffffffff82111715610bf957610bf8610ba2565b5b80604052505050565b6000610c0c610902565b9050610c188282610bd1565b919050565b600080fd5b600067ffffffffffffffff821115610c3d57610c3c610ba2565b5b602082029050919050565b600080fd5b600081519050610c5c81610b09565b92915050565b6000610c75610c7084610c22565b610c02565b90508060208402830185811115610c8f57610c8e610c48565b5b835b81811015610cb85780610ca48882610c4d565b845260208401935050602081019050610c91565b5050509392505050565b600082601f830112610cd757610cd6610c1d565b5b6004610ce4848285610c62565b91505092915050565b600060a08284031215610d0357610d02610b8c565b5b610d0d6040610c02565b90506000610d1d84828501610cc2565b6000830152506080610d3184828501610c4d565b60208301525092915050565b600060a08284031215610d5357610d5261090c565b5b6000610d6184828501610ced565b91505092915050565b600081905092915050565b610d7e8161084c565b82525050565b6000610d908383610d75565b60208301905092915050565b610da58161082c565b610daf8184610d6a565b9250610dba82610842565b8060005b83811015610deb578151610dd28782610d84565b9650610ddd83610883565b925050600181019050610dbe565b505050505050565b60a082016000820151610e096000850182610d9c565b506020820151610e1c6080850182610d75565b50505050565b600060a082019050610e376000830184610df3565b92915050565b7f4e487b7100000000000000000000000000000000000000000000000000000000600052603260045260246000fd5b7f4e487b7100000000000000000000000000000000000000000000000000000000600052601160045260246000fd5b6000819050919050565b6000610eb082610e9b565b91507fffffffffffffffffffffffffffffffffffffffffffffffffffffffffffffffff8203610ee257610ee1610e6c565b5b600182019050919050565b8082525050565b6000602082019050610f096000830184610eed565b92915050565b600060208284031215610f2557610f2461090c565b5b6000610f3384828501610c4d565b91505092915050565b600082825260208201905092915050565b7f536f6c64206f7574000000000000000000000000000000000000000000000000600082015250565b6000610f83600883610f3c565b9150610f8e82610f4d565b602082019050919050565b60006020820190508181036000830152610fb281610f76565b9050919050565b7f496e76616c696420746f6b656e00000000000000000000000000000000000000600082015250565b6000610fef600d83610f3c565b9150610ffa82610fb9565b602082019050919050565b6000602082019050818103600083015261101e81610fe2565b9050919050565b8082525050565b60006020820190506110416000830184611025565b9291505056fea26469706673582212204e54b85475898740cf9291b1a0d6d10dbe5906aad9cac2c862f3bf7d4d9326f464736f6c634300080f0033",
  "deployedBytecode": "0x608060405234801561001057600080fd5b506004361061009e5760003560e01c80634d09f900116100665780634d09f9001461015d578063559417921461017b578063905a0bcb14610199578063a8fb0832146101c9578063f62818cf146101e75761009e565b8063044b3b62146100a35780630b7acea7146100c157806331546d81146100f157806339b51fb71461010f5780633f2b38c31461013f575b600080fd5b6100ab610205565b6040516100b891906108e7565b60405180910390f35b6100db60048036038101906100d69190610959565b610282565b6040516100e89190610a0a565b60405180910390f35b6100f96103e1565b6040516101069190610a35565b60405180910390f35b61012960048036038101906101249190610959565b6104af565b60405161013691906108e7565b60405180910390f35b610147610540565b6040516101549190610a35565b60405180910390f35b61016561055c565b60405161017291906108e7565b60405180910390f35b6101836105d5565b6040516101909190610ae7565b60405180910390f35b6101b360048036038101906101ae9190610b35565b610659565b6040516101c09190610a35565b60405180910390f35b6101d16106f8565b6040516101de9190610a35565b60405180910390f35b6101ef610714565b6040516101fc9190610a35565b60405180910390f35b61020d6107e7565b6002600001600001600480602002604051908101604052809291908260048015610278576020028201916000905b82829054906101000a900463ffffffff1663ffffffff168152602001906004019060208260030104928301926001038202915080841161023b5790505b5050505050905090565b61028a610809565b600073__Randomizer____________________________63d2d5a22c846040518263ffffffff1660e01b81526004016102c39190610b71565b60a060405180830381865af41580156102e0573d6000803e3d6000fd5b505050506040513d601f19601f820116820180604052508101906103049190610d3d565b905061030e610809565b60005b60648110156103d65773__Randomizer____________________________631bbedbca846040518263ffffffff1660e01b81526004016103519190610e22565b60a060405180830381865af415801561036e573d6000803e3d6000fd5b505050506040513d601f19601f820116820180604052508101906103929190610d3d565b925082602001518282606481106103ac576103ab610e3d565b5b602002019063ffffffff16908163ffffffff168152505080806103ce90610ea5565b915050610311565b508092505050919050565b60008073__Randomizer____________________________6328d19fd060026040518263ffffffff1660e01b815260040161041c9190610ef4565b602060405180830381865af4158015610439573d6000803e3d6000fd5b505050506040513d601f19601f8201168201806040525081019061045d9190610f0f565b905060008163ffffffff16116104a8576040517f08c379a000000000000000000000000000000000000000000000000000000000815260040161049f90610f99565b60405180910390fd5b8091505090565b6104b76107e7565b600073__Randomizer____________________________63d2d5a22c846040518263ffffffff1660e01b81526004016104f09190610b71565b60a060405180830381865af415801561050d573d6000803e3d6000fd5b505050506040513d601f19601f820116820180604052508101906105319190610d3d565b90508060000151915050919050565b60006002800160049054906101000a900463ffffffff16905090565b6105646107e7565b600080016004806020026040519081016040528092919082600480156105cb576020028201916000905b82829054906101000a900463ffffffff1663ffffffff168152602001906004019060208260030104928301926001038202915080841161058e5790505b5050505050905090565b6060600180548060200260200160405190810160405280929190818152602001828054801561064f57602002820191906000526020600020906000905b82829054906101000a900463ffffffff1663ffffffff16815260200190600401906020826003010492830192600103820291508084116106125790505b5050505050905090565b60006002800160049054906101000a900463ffffffff1663ffffffff168263ffffffff1611156106be576040517f08c379a00000000000000000000000000000000000000000000000000000000081526004016106b590611005565b60405180910390fd5b600260010160008363ffffffff1663ffffffff16815260200190815260200160002060009054906101000a900463ffffffff169050919050565b60006002800160009054906101000a900463ffffffff16905090565b60008073__Randomizer____________________________63733bf30360006040518263ffffffff1660e01b815260040161074f919061102c565b602060405180830381865af415801561076c573d6000803e3d6000fd5b505050506040513d601f19601f820116820180604052508101906107909190610f0f565b905060018190806001815401808255809150506001900390600052602060002090600891828204019190066004029091909190916101000a81548163ffffffff021916908363ffffffff1602179055508091505090565b6040518060800160405280600490602082028036833780820191505090505090565b60405180610c800160405280606490602082028036833780820191505090505090565b600060049050919050565b600081905092915050565b6000819050919050565b600063ffffffff82169050919050565b6108658161084c565b82525050565b6000610877838361085c565b60208301905092915050565b6000602082019050919050565b6108998161082c565b6108a38184610837565b92506108ae82610842565b8060005b838110156108df5781516108c6878261086b565b96506108d183610883565b9250506001810190506108b2565b505050505050565b60006080820190506108fc6000830184610890565b92915050565b6000604051905090565b600080fd5b60006fffffffffffffffffffffffffffffffff82169050919050565b61093681610911565b811461094157600080fd5b50565b6000813590506109538161092d565b92915050565b60006020828403121561096f5761096e61090c565b5b600061097d84828501610944565b91505092915050565b600060649050919050565b600081905092915050565b6000819050919050565b6000602082019050919050565b6109bc81610986565b6109c68184610991565b92506109d18261099c565b8060005b83811015610a025781516109e9878261086b565b96506109f4836109a6565b9250506001810190506109d5565b505050505050565b6000610c8082019050610a2060008301846109b3565b92915050565b610a2f8161084c565b82525050565b6000602082019050610a4a6000830184610a26565b92915050565b600081519050919050565b600082825260208201905092915050565b6000819050602082019050919050565b6000602082019050919050565b6000610a9482610a50565b610a9e8185610a5b565b9350610aa983610a6c565b8060005b83811015610ada578151610ac1888261086b565b9750610acc83610a7c565b925050600181019050610aad565b5085935050505092915050565b60006020820190508181036000830152610b018184610a89565b905092915050565b610b128161084c565b8114610b1d57600080fd5b50565b600081359050610b2f81610b09565b92915050565b600060208284031215610b4b57610b4a61090c565b5b6000610b5984828501610b20565b91505092915050565b610b6b81610911565b82525050565b6000602082019050610b866000830184610b62565b92915050565b600080fd5b6000601f19601f8301169050919050565b7f4e487b7100000000000000000000000000000000000000000000000000000000600052604160045260246000fd5b610bda82610b91565b810181811067ffffffffffffffff82111715610bf957610bf8610ba2565b5b80604052505050565b6000610c0c610902565b9050610c188282610bd1565b919050565b600080fd5b600067ffffffffffffffff821115610c3d57610c3c610ba2565b5b602082029050919050565b600080fd5b600081519050610c5c81610b09565b92915050565b6000610c75610c7084610c22565b610c02565b90508060208402830185811115610c8f57610c8e610c48565b5b835b81811015610cb85780610ca48882610c4d565b845260208401935050602081019050610c91565b5050509392505050565b600082601f830112610cd757610cd6610c1d565b5b6004610ce4848285610c62565b91505092915050565b600060a08284031215610d0357610d02610b8c565b5b610d0d6040610c02565b90506000610d1d84828501610cc2565b6000830152506080610d3184828501610c4d565b60208301525092915050565b600060a08284031215610d5357610d5261090c565b5b6000610d6184828501610ced565b91505092915050565b600081905092915050565b610d7e8161084c565b82525050565b6000610d908383610d75565b60208301905092915050565b610da58161082c565b610daf8184610d6a565b9250610dba82610842565b8060005b83811015610deb578151610dd28782610d84565b9650610ddd83610883565b925050600181019050610dbe565b505050505050565b60a082016000820151610e096000850182610d9c565b506020820151610e1c6080850182610d75565b50505050565b600060a082019050610e376000830184610df3565b92915050565b7f4e487b7100000000000000000000000000000000000000000000000000000000600052603260045260246000fd5b7f4e487b7100000000000000000000000000000000000000000000000000000000600052601160045260246000fd5b6000819050919050565b6000610eb082610e9b565b91507fffffffffffffffffffffffffffffffffffffffffffffffffffffffffffffffff8203610ee257610ee1610e6c565b5b600182019050919050565b8082525050565b6000602082019050610f096000830184610eed565b92915050565b600060208284031215610f2557610f2461090c565b5b6000610f3384828501610c4d565b91505092915050565b600082825260208201905092915050565b7f536f6c64206f7574000000000000000000000000000000000000000000000000600082015250565b6000610f83600883610f3c565b9150610f8e82610f4d565b602082019050919050565b60006020820190508181036000830152610fb281610f76565b9050919050565b7f496e76616c696420746f6b656e00000000000000000000000000000000000000600082015250565b6000610fef600d83610f3c565b9150610ffa82610fb9565b602082019050919050565b6000602082019050818103600083015261101e81610fe2565b9050919050565b8082525050565b60006020820190506110416000830184611025565b9291505056fea26469706673582212204e54b85475898740cf9291b1a0d6d10dbe5906aad9cac2c862f3bf7d4d9326f464736f6c634300080f0033",
  "immutableReferences": {},
  "source": "// SPDX-License-Identifier: MIT\npragma solidity ^0.8.2;\n\nimport \"./Randomizer.sol\";\n\ncontract RandomizerTest {\n\tRandomizerStateStorage storageState;\n\tuint32[] storageSequence;\n\n\tShuffleStateStorage storageShuffle;\n\n\tconstructor(uint32 shuffleCount) {\n\t\tRandomizer.initialize_s(storageState, address(this));\n\t\tRandomizer.initialize_shuffle(storageShuffle, address(this), shuffleCount);\n\t}\n\n\t//-----------------------\n\t// Memory tests\n\tfunction generateMemoryInitialState(uint128 hash) public pure returns (uint32[4] memory) {\n\t\tRandomizerStateMemory memory memState = Randomizer.initialize_m(hash);\n\t\treturn memState.state;\n\t}\n\tfunction generateMemorySequence(uint128 hash) public pure returns (uint32[100] memory) {\n\t\tRandomizerStateMemory memory memState = Randomizer.initialize_m(hash);\n\t\tuint32[100] memory memSequence;\n\t\tfor (uint i = 0; i < 100; i++) {\n\t\t\tmemState = Randomizer.getNextValue_m(memState);\n\t\t\tmemSequence[i] = memState.value;\n\t\t}\n\t\treturn memSequence;\n\t}\n\n\t//-----------------------\n\t// Storage tests\n\tfunction getStorageState() public view returns(uint32[4] memory) {\n\t\treturn storageState.state;\n\t}\n\tfunction getStorageSequence() public view returns(uint32[] memory) {\n\t\treturn storageSequence;\n\t}\n\tfunction generateStorageValue() public returns(uint32) {\n\t\tuint32 r = Randomizer.getNextValue_s(storageState);\n\t\tstorageSequence.push(r);\n\t\treturn r;\n\t}\n\n\t//-----------------------\n\t// Shuffle tests\n\tfunction getShuffleState() public view returns(uint32[4] memory) {\n\t\treturn storageShuffle.state.state;\n\t}\n\tfunction getShuffleSize() public view returns(uint32) {\n\t\treturn storageShuffle.size;\n\t}\n\tfunction getShufflePos() public view returns(uint32) {\n\t\treturn storageShuffle.pos;\n\t}\n\tfunction getShuffleId(uint32 tokenNumber) public view returns(uint32) {\n\t\trequire(tokenNumber <= storageShuffle.pos, 'Invalid token');\n\t\treturn storageShuffle.ids[tokenNumber];\n\t}\n\tfunction generateShuffleId() public returns(uint32) {\n\t\tuint32 newId = Randomizer.getNextShuffleId(storageShuffle);\n\t\trequire(newId > 0, 'Sold out');\n\t\treturn newId;\n\t}\n\n}\n",
  "sourcePath": "/Users/roger/Dev/Blockchain/Truffle/cc-euclid/contracts/RandomizerTest.sol",
  "compiler": {
    "name": "solc",
    "version": "0.8.15+commit.e14f2714.Emscripten.clang"
  },
  "schemaVersion": "3.4.7",
  "updatedAt": "2022-06-30T00:01:39.091Z",
  "devdoc": {
    "kind": "dev",
    "methods": {},
    "version": 1
  },
  "userdoc": {
    "kind": "user",
    "methods": {},
    "version": 1
  }
}