{
  "contractName": "WhitelistTest",
  "abi": [
    {
      "inputs": [],
      "stateMutability": "nonpayable",
      "type": "constructor"
    },
    {
      "anonymous": false,
      "inputs": [
        {
          "indexed": false,
          "internalType": "uint256[]",
          "name": "tokenIds",
          "type": "uint256[]"
        },
        {
          "indexed": true,
          "internalType": "uint8",
          "name": "quantity",
          "type": "uint8"
        }
      ],
      "name": "Minted",
      "type": "event"
    },
    {
      "inputs": [],
      "name": "whitelist",
      "outputs": [
        {
          "internalType": "contract IParent",
          "name": "parent",
          "type": "address"
        },
        {
          "internalType": "uint8",
          "name": "mintsPerSource",
          "type": "uint8"
        },
        {
          "internalType": "uint8",
          "name": "mintsPerBuilt",
          "type": "uint8"
        }
      ],
      "stateMutability": "view",
      "type": "function"
    },
    {
      "inputs": [
        {
          "internalType": "address",
          "name": "contractAddress",
          "type": "address"
        },
        {
          "internalType": "uint8",
          "name": "newMintsPerSource",
          "type": "uint8"
        },
        {
          "internalType": "uint8",
          "name": "newMintsPerBuilt",
          "type": "uint8"
        }
      ],
      "name": "setupWhitelistContract",
      "outputs": [],
      "stateMutability": "nonpayable",
      "type": "function"
    },
    {
      "inputs": [],
      "name": "chroma_totalSupply",
      "outputs": [
        {
          "internalType": "uint256",
          "name": "",
          "type": "uint256"
        }
      ],
      "stateMutability": "view",
      "type": "function"
    },
    {
      "inputs": [
        {
          "internalType": "uint256",
          "name": "tokenId",
          "type": "uint256"
        }
      ],
      "name": "chroma_tokenURI",
      "outputs": [
        {
          "internalType": "string",
          "name": "",
          "type": "string"
        }
      ],
      "stateMutability": "view",
      "type": "function"
    },
    {
      "inputs": [
        {
          "internalType": "uint256",
          "name": "tokenId",
          "type": "uint256"
        }
      ],
      "name": "wl_isTokenBuilt",
      "outputs": [
        {
          "internalType": "bool",
          "name": "",
          "type": "bool"
        }
      ],
      "stateMutability": "view",
      "type": "function"
    },
    {
      "inputs": [
        {
          "internalType": "uint256",
          "name": "tokenId",
          "type": "uint256"
        }
      ],
      "name": "wl_calcAllowedMintsPerTokenId",
      "outputs": [
        {
          "internalType": "uint8",
          "name": "",
          "type": "uint8"
        }
      ],
      "stateMutability": "view",
      "type": "function"
    },
    {
      "inputs": [
        {
          "internalType": "uint256",
          "name": "tokenId",
          "type": "uint256"
        }
      ],
      "name": "wl_calcAvailableMintsPerTokenId",
      "outputs": [
        {
          "internalType": "uint8",
          "name": "",
          "type": "uint8"
        }
      ],
      "stateMutability": "view",
      "type": "function"
    },
    {
      "inputs": [
        {
          "internalType": "address",
          "name": "to",
          "type": "address"
        }
      ],
      "name": "wl_getAvailableMintsForUser",
      "outputs": [
        {
          "internalType": "uint256[]",
          "name": "",
          "type": "uint256[]"
        },
        {
          "internalType": "uint8[]",
          "name": "",
          "type": "uint8[]"
        }
      ],
      "stateMutability": "view",
      "type": "function"
    },
    {
      "inputs": [
        {
          "internalType": "uint256[]",
          "name": "tokenIds",
          "type": "uint256[]"
        }
      ],
      "name": "wl_claimTokenIds",
      "outputs": [
        {
          "internalType": "uint8",
          "name": "quantity",
          "type": "uint8"
        }
      ],
      "stateMutability": "nonpayable",
      "type": "function"
    }
  ],
  "bytecode": "0x608060405234801561001057600080fd5b50611329806100206000396000f3fe608060405234801561001057600080fd5b50600436106100935760003560e01c8063ad4decd411610066578063ad4decd414610134578063b33fb06214610152578063b634054c14610182578063c646db58146101b2578063caae1aaa146101e357610093565b80637e7a1d0b14610098578063888b98db146100c857806393e59dc1146100e45780639c2d476714610104575b600080fd5b6100b260048036038101906100ad919061073f565b610213565b6040516100bf9190610788565b60405180910390f35b6100e260048036038101906100dd919061082d565b610297565b005b6100ec61030a565b6040516100fb939291906108df565b60405180910390f35b61011e6004803603810190610119919061073f565b61035c565b60405161012b91906109af565b60405180910390f35b61013c610408565b60405161014991906109e0565b60405180910390f35b61016c60048036038101906101679190610b43565b6104a2565b6040516101799190610788565b60405180910390f35b61019c6004803603810190610197919061073f565b610561565b6040516101a99190610788565b60405180910390f35b6101cc60048036038101906101c79190610b8c565b6105e5565b6040516101da929190610d35565b60405180910390f35b6101fd60048036038101906101f8919061073f565b610671565b60405161020a9190610d87565b60405180910390f35b600073__Whitelist_____________________________637352275b6000846040518363ffffffff1660e01b815260040161024f929190610db8565b602060405180830381865af415801561026c573d6000803e3d6000fd5b505050506040513d601f19601f820116820180604052508101906102909190610df6565b9050919050565b73__Whitelist_____________________________63b533218960008585856040518563ffffffff1660e01b81526004016102d59493929190610e41565b60006040518083038186803b1580156102ed57600080fd5b505af4158015610301573d6000803e3d6000fd5b50505050505050565b60008060000160009054906101000a900473ffffffffffffffffffffffffffffffffffffffff16908060000160149054906101000a900460ff16908060000160159054906101000a900460ff16905083565b60606000800160009054906101000a900473ffffffffffffffffffffffffffffffffffffffff1673ffffffffffffffffffffffffffffffffffffffff1663c87b56dd836040518263ffffffff1660e01b81526004016103bb91906109e0565b600060405180830381865afa1580156103d8573d6000803e3d6000fd5b505050506040513d6000823e3d601f19601f820116820180604052508101906104019190610f2c565b9050919050565b60008060000160009054906101000a900473ffffffffffffffffffffffffffffffffffffffff1673ffffffffffffffffffffffffffffffffffffffff166318160ddd6040518163ffffffff1660e01b8152600401602060405180830381865afa158015610479573d6000803e3d6000fd5b505050506040513d601f19601f8201168201806040525081019061049d9190610f8a565b905090565b600073__Whitelist_____________________________63da36dd0d6000846040518363ffffffff1660e01b81526004016104de92919061104d565b602060405180830381865af41580156104fb573d6000803e3d6000fd5b505050506040513d601f19601f8201168201806040525081019061051f9190610df6565b90508060ff167f06bcfe99ecaf69608991e206065b488afc7d78b0e7e406a8a392df433691c9e283604051610554919061107d565b60405180910390a2919050565b600073__Whitelist_____________________________63276caf5e6000846040518363ffffffff1660e01b815260040161059d929190610db8565b602060405180830381865af41580156105ba573d6000803e3d6000fd5b505050506040513d601f19601f820116820180604052508101906105de9190610df6565b9050919050565b60608073__Whitelist_____________________________63a9f652f56000856040518363ffffffff1660e01b815260040161062292919061109f565b600060405180830381865af415801561063f573d6000803e3d6000fd5b505050506040513d6000823e3d601f19601f820116820180604052508101906106689190611222565b91509150915091565b600073__Whitelist_____________________________637962a73f6000846040518363ffffffff1660e01b81526004016106ad929190610db8565b602060405180830381865af41580156106ca573d6000803e3d6000fd5b505050506040513d601f19601f820116820180604052508101906106ee91906112c6565b9050919050565b6000604051905090565b600080fd5b600080fd5b6000819050919050565b61071c81610709565b811461072757600080fd5b50565b60008135905061073981610713565b92915050565b600060208284031215610755576107546106ff565b5b60006107638482850161072a565b91505092915050565b600060ff82169050919050565b6107828161076c565b82525050565b600060208201905061079d6000830184610779565b92915050565b600073ffffffffffffffffffffffffffffffffffffffff82169050919050565b60006107ce826107a3565b9050919050565b6107de816107c3565b81146107e957600080fd5b50565b6000813590506107fb816107d5565b92915050565b61080a8161076c565b811461081557600080fd5b50565b60008135905061082781610801565b92915050565b600080600060608486031215610846576108456106ff565b5b6000610854868287016107ec565b935050602061086586828701610818565b925050604061087686828701610818565b9150509250925092565b6000819050919050565b60006108a56108a061089b846107a3565b610880565b6107a3565b9050919050565b60006108b78261088a565b9050919050565b60006108c9826108ac565b9050919050565b6108d9816108be565b82525050565b60006060820190506108f460008301866108d0565b6109016020830185610779565b61090e6040830184610779565b949350505050565b600081519050919050565b600082825260208201905092915050565b60005b83811015610950578082015181840152602081019050610935565b8381111561095f576000848401525b50505050565b6000601f19601f8301169050919050565b600061098182610916565b61098b8185610921565b935061099b818560208601610932565b6109a481610965565b840191505092915050565b600060208201905081810360008301526109c98184610976565b905092915050565b6109da81610709565b82525050565b60006020820190506109f560008301846109d1565b92915050565b600080fd5b7f4e487b7100000000000000000000000000000000000000000000000000000000600052604160045260246000fd5b610a3882610965565b810181811067ffffffffffffffff82111715610a5757610a56610a00565b5b80604052505050565b6000610a6a6106f5565b9050610a768282610a2f565b919050565b600067ffffffffffffffff821115610a9657610a95610a00565b5b602082029050602081019050919050565b600080fd5b6000610abf610aba84610a7b565b610a60565b90508083825260208201905060208402830185811115610ae257610ae1610aa7565b5b835b81811015610b0b5780610af7888261072a565b845260208401935050602081019050610ae4565b5050509392505050565b600082601f830112610b2a57610b296109fb565b5b8135610b3a848260208601610aac565b91505092915050565b600060208284031215610b5957610b586106ff565b5b600082013567ffffffffffffffff811115610b7757610b76610704565b5b610b8384828501610b15565b91505092915050565b600060208284031215610ba257610ba16106ff565b5b6000610bb0848285016107ec565b91505092915050565b600081519050919050565b600082825260208201905092915050565b6000819050602082019050919050565b610bee81610709565b82525050565b6000610c008383610be5565b60208301905092915050565b6000602082019050919050565b6000610c2482610bb9565b610c2e8185610bc4565b9350610c3983610bd5565b8060005b83811015610c6a578151610c518882610bf4565b9750610c5c83610c0c565b925050600181019050610c3d565b5085935050505092915050565b600081519050919050565b600082825260208201905092915050565b6000819050602082019050919050565b610cac8161076c565b82525050565b6000610cbe8383610ca3565b60208301905092915050565b6000602082019050919050565b6000610ce282610c77565b610cec8185610c82565b9350610cf783610c93565b8060005b83811015610d28578151610d0f8882610cb2565b9750610d1a83610cca565b925050600181019050610cfb565b5085935050505092915050565b60006040820190508181036000830152610d4f8185610c19565b90508181036020830152610d638184610cd7565b90509392505050565b60008115159050919050565b610d8181610d6c565b82525050565b6000602082019050610d9c6000830184610d78565b92915050565b8082525050565b610db281610709565b82525050565b6000604082019050610dcd6000830185610da2565b610dda6020830184610da9565b9392505050565b600081519050610df081610801565b92915050565b600060208284031215610e0c57610e0b6106ff565b5b6000610e1a84828501610de1565b91505092915050565b610e2c816107c3565b82525050565b610e3b8161076c565b82525050565b6000608082019050610e566000830187610da2565b610e636020830186610e23565b610e706040830185610e32565b610e7d6060830184610e32565b95945050505050565b600080fd5b600067ffffffffffffffff821115610ea657610ea5610a00565b5b610eaf82610965565b9050602081019050919050565b6000610ecf610eca84610e8b565b610a60565b905082815260208101848484011115610eeb57610eea610e86565b5b610ef6848285610932565b509392505050565b600082601f830112610f1357610f126109fb565b5b8151610f23848260208601610ebc565b91505092915050565b600060208284031215610f4257610f416106ff565b5b600082015167ffffffffffffffff811115610f6057610f5f610704565b5b610f6c84828501610efe565b91505092915050565b600081519050610f8481610713565b92915050565b600060208284031215610fa057610f9f6106ff565b5b6000610fae84828501610f75565b91505092915050565b600082825260208201905092915050565b610fd181610709565b82525050565b6000610fe38383610fc8565b60208301905092915050565b6000610ffa82610bb9565b6110048185610fb7565b935061100f83610bd5565b8060005b838110156110405781516110278882610fd7565b975061103283610c0c565b925050600181019050611013565b5085935050505092915050565b60006040820190506110626000830185610da2565b81810360208301526110748184610fef565b90509392505050565b600060208201905081810360008301526110978184610c19565b905092915050565b60006040820190506110b46000830185610da2565b6110c16020830184610e23565b9392505050565b60006110db6110d684610a7b565b610a60565b905080838252602082019050602084028301858111156110fe576110fd610aa7565b5b835b8181101561112757806111138882610f75565b845260208401935050602081019050611100565b5050509392505050565b600082601f830112611146576111456109fb565b5b81516111568482602086016110c8565b91505092915050565b600067ffffffffffffffff82111561117a57611179610a00565b5b602082029050602081019050919050565b600061119e6111998461115f565b610a60565b905080838252602082019050602084028301858111156111c1576111c0610aa7565b5b835b818110156111ea57806111d68882610de1565b8452602084019350506020810190506111c3565b5050509392505050565b600082601f830112611209576112086109fb565b5b815161121984826020860161118b565b91505092915050565b60008060408385031215611239576112386106ff565b5b600083015167ffffffffffffffff81111561125757611256610704565b5b61126385828601611131565b925050602083015167ffffffffffffffff81111561128457611283610704565b5b611290858286016111f4565b9150509250929050565b6112a381610d6c565b81146112ae57600080fd5b50565b6000815190506112c08161129a565b92915050565b6000602082840312156112dc576112db6106ff565b5b60006112ea848285016112b1565b9150509291505056fea26469706673582212203921a260a7b70dcf8648d3def9930436fcae0377242f5d62bea8672222387d0664736f6c634300080f0033",
  "immutableReferences": {},
  "source": "// SPDX-License-Identifier: MIT\npragma solidity ^0.8.2;\n\nimport \"./Whitelist.sol\";\n\ncontract WhitelistTest {\n\n\tWhitelistStorage public whitelist;\n\n\tevent Minted(uint256[] tokenIds, uint8 indexed quantity);\n\n\tconstructor() {\n\t}\n\n\tfunction setupWhitelistContract(address contractAddress, uint8 newMintsPerSource, uint8 newMintsPerBuilt) public {\n\t\tWhitelist.setupContract(whitelist, contractAddress, newMintsPerSource, newMintsPerBuilt);\n\t}\n\n\t//------------------------------\n\t// Test functions\n\t//\n\tfunction chroma_totalSupply() public view returns (uint256) {\n\t\treturn whitelist.parent.totalSupply();\n\t}\n\tfunction chroma_tokenURI(uint256 tokenId) public view returns (string memory) {\n\t\treturn whitelist.parent.tokenURI(tokenId);\n\t}\n\tfunction wl_isTokenBuilt(uint256 tokenId) public view returns (bool) {\n\t\treturn Whitelist.isTokenBuilt(whitelist, tokenId);\n\t}\n\tfunction wl_calcAllowedMintsPerTokenId(uint256 tokenId) public view returns (uint8) {\n\t\treturn Whitelist.calcAllowedMintsPerTokenId(whitelist, tokenId);\n\t}\n\tfunction wl_calcAvailableMintsPerTokenId(uint256 tokenId) public view returns (uint8) {\n\t\treturn Whitelist.calcAvailableMintsPerTokenId(whitelist, tokenId);\n\t}\n\tfunction wl_getAvailableMintsForUser(address to) public view returns (uint256[] memory, uint8[] memory) {\n\t\treturn Whitelist.getAvailableMintsForUser(whitelist, to);\n\t}\n\tfunction wl_claimTokenIds(uint256[] memory tokenIds) public returns(uint8 quantity) {\n\t\tquantity = Whitelist.claimTokenIds(whitelist, tokenIds);\n\t\temit Minted(tokenIds, quantity);\n\t}\n}\n",
  "sourcePath": "/Users/roger/Dev/Blockchain/Truffle/cc-euclid/contracts/WhitelistTest.sol",
  "compiler": {
    "name": "solc",
    "version": "0.8.15+commit.e14f2714.Emscripten.clang"
  },
  "schemaVersion": "3.4.7",
  "updatedAt": "2022-06-30T00:01:39.110Z",
  "devdoc": {
    "kind": "dev",
    "methods": {},
    "version": 1
  },
  "userdoc": {
    "kind": "user",
    "methods": {},
    "version": 1
  }
}