{
  "contractName": "ChromaFour",
  "abi": [
    {
      "inputs": [],
      "stateMutability": "nonpayable",
      "type": "constructor"
    },
    {
      "anonymous": false,
      "inputs": [
        {
          "indexed": true,
          "internalType": "address",
          "name": "owner",
          "type": "address"
        },
        {
          "indexed": true,
          "internalType": "address",
          "name": "approved",
          "type": "address"
        },
        {
          "indexed": true,
          "internalType": "uint256",
          "name": "tokenId",
          "type": "uint256"
        }
      ],
      "name": "Approval",
      "type": "event"
    },
    {
      "anonymous": false,
      "inputs": [
        {
          "indexed": true,
          "internalType": "address",
          "name": "owner",
          "type": "address"
        },
        {
          "indexed": true,
          "internalType": "address",
          "name": "operator",
          "type": "address"
        },
        {
          "indexed": false,
          "internalType": "bool",
          "name": "approved",
          "type": "bool"
        }
      ],
      "name": "ApprovalForAll",
      "type": "event"
    },
    {
      "anonymous": false,
      "inputs": [
        {
          "indexed": true,
          "internalType": "address",
          "name": "previousOwner",
          "type": "address"
        },
        {
          "indexed": true,
          "internalType": "address",
          "name": "newOwner",
          "type": "address"
        }
      ],
      "name": "OwnershipTransferred",
      "type": "event"
    },
    {
      "anonymous": false,
      "inputs": [
        {
          "indexed": true,
          "internalType": "address",
          "name": "from",
          "type": "address"
        },
        {
          "indexed": true,
          "internalType": "address",
          "name": "to",
          "type": "address"
        },
        {
          "indexed": true,
          "internalType": "uint256",
          "name": "tokenId",
          "type": "uint256"
        }
      ],
      "name": "Transfer",
      "type": "event"
    },
    {
      "inputs": [
        {
          "internalType": "address",
          "name": "to",
          "type": "address"
        },
        {
          "internalType": "uint256",
          "name": "tokenId",
          "type": "uint256"
        }
      ],
      "name": "approve",
      "outputs": [],
      "stateMutability": "nonpayable",
      "type": "function"
    },
    {
      "inputs": [
        {
          "internalType": "address",
          "name": "owner",
          "type": "address"
        }
      ],
      "name": "balanceOf",
      "outputs": [
        {
          "internalType": "uint256",
          "name": "",
          "type": "uint256"
        }
      ],
      "stateMutability": "view",
      "type": "function",
      "constant": true
    },
    {
      "inputs": [],
      "name": "baseURI",
      "outputs": [
        {
          "internalType": "string",
          "name": "",
          "type": "string"
        }
      ],
      "stateMutability": "view",
      "type": "function",
      "constant": true
    },
    {
      "inputs": [
        {
          "internalType": "uint256",
          "name": "tokenId",
          "type": "uint256"
        }
      ],
      "name": "buildCode",
      "outputs": [],
      "stateMutability": "nonpayable",
      "type": "function"
    },
    {
      "inputs": [
        {
          "internalType": "address",
          "name": "to",
          "type": "address"
        },
        {
          "internalType": "uint256",
          "name": "quantity",
          "type": "uint256"
        },
        {
          "internalType": "bool",
          "name": "build",
          "type": "bool"
        }
      ],
      "name": "buyCode",
      "outputs": [
        {
          "internalType": "uint256",
          "name": "",
          "type": "uint256"
        }
      ],
      "stateMutability": "payable",
      "type": "function",
      "payable": true
    },
    {
      "inputs": [
        {
          "internalType": "uint256",
          "name": "quantity",
          "type": "uint256"
        }
      ],
      "name": "calculatePriceForQuantity",
      "outputs": [
        {
          "internalType": "uint256",
          "name": "",
          "type": "uint256"
        }
      ],
      "stateMutability": "view",
      "type": "function",
      "constant": true
    },
    {
      "inputs": [
        {
          "internalType": "uint256",
          "name": "tokenId",
          "type": "uint256"
        }
      ],
      "name": "getApproved",
      "outputs": [
        {
          "internalType": "address",
          "name": "",
          "type": "address"
        }
      ],
      "stateMutability": "view",
      "type": "function",
      "constant": true
    },
    {
      "inputs": [],
      "name": "getConfig",
      "outputs": [
        {
          "components": [
            {
              "internalType": "string",
              "name": "seriesCode",
              "type": "string"
            },
            {
              "internalType": "uint256",
              "name": "initialSupply",
              "type": "uint256"
            },
            {
              "internalType": "uint256",
              "name": "maxSupply",
              "type": "uint256"
            },
            {
              "internalType": "uint256",
              "name": "initialPrice",
              "type": "uint256"
            },
            {
              "internalType": "uint8",
              "name": "gridSize",
              "type": "uint8"
            }
          ],
          "internalType": "struct CollectCode.Config",
          "name": "",
          "type": "tuple"
        }
      ],
      "stateMutability": "view",
      "type": "function",
      "constant": true
    },
    {
      "inputs": [
        {
          "internalType": "address",
          "name": "from",
          "type": "address"
        }
      ],
      "name": "getOwnedTokens",
      "outputs": [
        {
          "internalType": "uint256[]",
          "name": "",
          "type": "uint256[]"
        }
      ],
      "stateMutability": "view",
      "type": "function",
      "constant": true
    },
    {
      "inputs": [],
      "name": "getPrices",
      "outputs": [
        {
          "internalType": "uint256[]",
          "name": "",
          "type": "uint256[]"
        }
      ],
      "stateMutability": "view",
      "type": "function",
      "constant": true
    },
    {
      "inputs": [],
      "name": "getState",
      "outputs": [
        {
          "components": [
            {
              "internalType": "bool",
              "name": "isReleased",
              "type": "bool"
            },
            {
              "internalType": "uint256",
              "name": "mintedCount",
              "type": "uint256"
            },
            {
              "internalType": "uint256",
              "name": "builtCount",
              "type": "uint256"
            },
            {
              "internalType": "uint256",
              "name": "notBuiltCount",
              "type": "uint256"
            },
            {
              "internalType": "uint256",
              "name": "currentSupply",
              "type": "uint256"
            },
            {
              "internalType": "uint256",
              "name": "availableSupply",
              "type": "uint256"
            },
            {
              "internalType": "uint256",
              "name": "maxBuyout",
              "type": "uint256"
            },
            {
              "internalType": "bool",
              "name": "isAvailable",
              "type": "bool"
            }
          ],
          "internalType": "struct CollectCode.State",
          "name": "",
          "type": "tuple"
        }
      ],
      "stateMutability": "view",
      "type": "function",
      "constant": true
    },
    {
      "inputs": [
        {
          "internalType": "address",
          "name": "from",
          "type": "address"
        },
        {
          "internalType": "uint256",
          "name": "tokenId",
          "type": "uint256"
        }
      ],
      "name": "getTokenInfo",
      "outputs": [
        {
          "components": [
            {
              "internalType": "address",
              "name": "owner",
              "type": "address"
            },
            {
              "internalType": "bool",
              "name": "youOwnIt",
              "type": "bool"
            },
            {
              "internalType": "bool",
              "name": "isBuilt",
              "type": "bool"
            },
            {
              "internalType": "address",
              "name": "builder",
              "type": "address"
            },
            {
              "internalType": "uint256",
              "name": "sequenceNumber",
              "type": "uint256"
            },
            {
              "internalType": "uint256[]",
              "name": "sequenceTokens",
              "type": "uint256[]"
            }
          ],
          "internalType": "struct CollectCode.TokenInfo",
          "name": "",
          "type": "tuple"
        }
      ],
      "stateMutability": "view",
      "type": "function",
      "constant": true
    },
    {
      "inputs": [
        {
          "internalType": "address",
          "name": "to",
          "type": "address"
        }
      ],
      "name": "giftCode",
      "outputs": [
        {
          "internalType": "uint256",
          "name": "",
          "type": "uint256"
        }
      ],
      "stateMutability": "nonpayable",
      "type": "function"
    },
    {
      "inputs": [
        {
          "internalType": "address",
          "name": "owner",
          "type": "address"
        },
        {
          "internalType": "address",
          "name": "operator",
          "type": "address"
        }
      ],
      "name": "isApprovedForAll",
      "outputs": [
        {
          "internalType": "bool",
          "name": "",
          "type": "bool"
        }
      ],
      "stateMutability": "view",
      "type": "function",
      "constant": true
    },
    {
      "inputs": [],
      "name": "name",
      "outputs": [
        {
          "internalType": "string",
          "name": "",
          "type": "string"
        }
      ],
      "stateMutability": "view",
      "type": "function",
      "constant": true
    },
    {
      "inputs": [],
      "name": "owner",
      "outputs": [
        {
          "internalType": "address",
          "name": "",
          "type": "address"
        }
      ],
      "stateMutability": "view",
      "type": "function",
      "constant": true
    },
    {
      "inputs": [
        {
          "internalType": "uint256",
          "name": "tokenId",
          "type": "uint256"
        }
      ],
      "name": "ownerOf",
      "outputs": [
        {
          "internalType": "address",
          "name": "",
          "type": "address"
        }
      ],
      "stateMutability": "view",
      "type": "function",
      "constant": true
    },
    {
      "inputs": [],
      "name": "renounceOwnership",
      "outputs": [],
      "stateMutability": "nonpayable",
      "type": "function"
    },
    {
      "inputs": [
        {
          "internalType": "address",
          "name": "from",
          "type": "address"
        },
        {
          "internalType": "address",
          "name": "to",
          "type": "address"
        },
        {
          "internalType": "uint256",
          "name": "tokenId",
          "type": "uint256"
        }
      ],
      "name": "safeTransferFrom",
      "outputs": [],
      "stateMutability": "nonpayable",
      "type": "function"
    },
    {
      "inputs": [
        {
          "internalType": "address",
          "name": "from",
          "type": "address"
        },
        {
          "internalType": "address",
          "name": "to",
          "type": "address"
        },
        {
          "internalType": "uint256",
          "name": "tokenId",
          "type": "uint256"
        },
        {
          "internalType": "bytes",
          "name": "_data",
          "type": "bytes"
        }
      ],
      "name": "safeTransferFrom",
      "outputs": [],
      "stateMutability": "nonpayable",
      "type": "function"
    },
    {
      "inputs": [
        {
          "internalType": "address",
          "name": "operator",
          "type": "address"
        },
        {
          "internalType": "bool",
          "name": "approved",
          "type": "bool"
        }
      ],
      "name": "setApprovalForAll",
      "outputs": [],
      "stateMutability": "nonpayable",
      "type": "function"
    },
    {
      "inputs": [
        {
          "internalType": "bytes4",
          "name": "interfaceId",
          "type": "bytes4"
        }
      ],
      "name": "supportsInterface",
      "outputs": [
        {
          "internalType": "bool",
          "name": "",
          "type": "bool"
        }
      ],
      "stateMutability": "view",
      "type": "function",
      "constant": true
    },
    {
      "inputs": [],
      "name": "symbol",
      "outputs": [
        {
          "internalType": "string",
          "name": "",
          "type": "string"
        }
      ],
      "stateMutability": "view",
      "type": "function",
      "constant": true
    },
    {
      "inputs": [
        {
          "internalType": "uint256",
          "name": "index",
          "type": "uint256"
        }
      ],
      "name": "tokenByIndex",
      "outputs": [
        {
          "internalType": "uint256",
          "name": "",
          "type": "uint256"
        }
      ],
      "stateMutability": "view",
      "type": "function",
      "constant": true
    },
    {
      "inputs": [
        {
          "internalType": "address",
          "name": "owner",
          "type": "address"
        },
        {
          "internalType": "uint256",
          "name": "index",
          "type": "uint256"
        }
      ],
      "name": "tokenOfOwnerByIndex",
      "outputs": [
        {
          "internalType": "uint256",
          "name": "",
          "type": "uint256"
        }
      ],
      "stateMutability": "view",
      "type": "function",
      "constant": true
    },
    {
      "inputs": [
        {
          "internalType": "uint256",
          "name": "tokenId",
          "type": "uint256"
        }
      ],
      "name": "tokenURI",
      "outputs": [
        {
          "internalType": "string",
          "name": "",
          "type": "string"
        }
      ],
      "stateMutability": "view",
      "type": "function",
      "constant": true
    },
    {
      "inputs": [],
      "name": "totalSupply",
      "outputs": [
        {
          "internalType": "uint256",
          "name": "",
          "type": "uint256"
        }
      ],
      "stateMutability": "view",
      "type": "function",
      "constant": true
    },
    {
      "inputs": [
        {
          "internalType": "address",
          "name": "from",
          "type": "address"
        },
        {
          "internalType": "address",
          "name": "to",
          "type": "address"
        },
        {
          "internalType": "uint256",
          "name": "tokenId",
          "type": "uint256"
        }
      ],
      "name": "transferFrom",
      "outputs": [],
      "stateMutability": "nonpayable",
      "type": "function"
    },
    {
      "inputs": [
        {
          "internalType": "address",
          "name": "newOwner",
          "type": "address"
        }
      ],
      "name": "transferOwnership",
      "outputs": [],
      "stateMutability": "nonpayable",
      "type": "function"
    },
    {
      "inputs": [],
      "name": "withdraw",
      "outputs": [],
      "stateMutability": "nonpayable",
      "type": "function"
    }
  ],
  "bytecode": "0x60806040523480156200001157600080fd5b506040518060400160405280600781526020017f4348524f4d4134000000000000000000000000000000000000000000000000008152506040518060400160405280600381526020017f4348340000000000000000000000000000000000000000000000000000000000815250620000966301ffc9a760e01b6200035660201b60201c565b8160069080519060200190620000ae92919062000467565b508060079080519060200190620000c792919062000467565b50620000e06380ac58cd60e01b6200035660201b60201c565b620000f8635b5e139f60e01b6200035660201b60201c565b6200011063780e9d6360e01b6200035660201b60201c565b50506000620001246200045f60201b60201c565b905080600a60006101000a81548173ffffffffffffffffffffffffffffffffffffffff021916908373ffffffffffffffffffffffffffffffffffffffff1602179055508073ffffffffffffffffffffffffffffffffffffffff16600073ffffffffffffffffffffffffffffffffffffffff167f8be0079c531659141344cd1fd0a4f28419497f9722a3daafe3b4186f6b6457e060405160405180910390a35060405180610100016040528060001515815260200160008152602001600081526020016000815260200160008152602001600081526020016000815260200160001515815250601060008201518160000160006101000a81548160ff0219169083151502179055506020820151816001015560408201518160020155606082015181600301556080820151816004015560a0820151816005015560c0820151816006015560e08201518160070160006101000a81548160ff0219169083151502179055509050506040518060a001604052806040518060400160405280600781526020017f6368726f6d6134000000000000000000000000000000000000000000000000008152508152602001602881526020016050815260200160028152602001600460ff16815250600b60008201518160000190805190602001906200030d92919062000467565b5060208201518160010155604082015181600201556060820151816003015560808201518160040160006101000a81548160ff021916908360ff1602179055509050506200051d565b63ffffffff60e01b817bffffffffffffffffffffffffffffffffffffffffffffffffffffffff19161415620003f3576040517f08c379a000000000000000000000000000000000000000000000000000000000815260040180806020018281038252601c8152602001807f4552433136353a20696e76616c696420696e746572666163652069640000000081525060200191505060405180910390fd5b6001600080837bffffffffffffffffffffffffffffffffffffffffffffffffffffffff19167bffffffffffffffffffffffffffffffffffffffffffffffffffffffff1916815260200190815260200160002060006101000a81548160ff02191690831515021790555050565b600033905090565b828054600181600116156101000203166002900490600052602060002090601f0160209004810192826200049f5760008555620004eb565b82601f10620004ba57805160ff1916838001178555620004eb565b82800160010185558215620004eb579182015b82811115620004ea578251825591602001919060010190620004cd565b5b509050620004fa9190620004fe565b5090565b5b8082111562000519576000816000905550600101620004ff565b5090565b6154d5806200052d6000396000f3fe6080604052600436106101cc5760003560e01c806370a08231116100f7578063bbd7d20911610095578063d9d6165511610064578063d9d61655146106a2578063e93f0689146106df578063e985e9c51461071c578063f2fde38b14610759576101cc565b8063bbd7d209146105d2578063bd9a548b1461060f578063c3f909d41461063a578063c87b56dd14610665576101cc565b80638da5cb5b116100d15780638da5cb5b1461052a57806395d89b4114610555578063a22cb46514610580578063b88d4fde146105a9576101cc565b806370a08231146104ad578063715018a6146104ea578063867a5b3714610501576101cc565b806323b872dd1161016f5780634f6ccce71161013e5780634f6ccce7146103cb57806356d6555c146104085780636352211e146104455780636c0360eb14610482576101cc565b806323b872dd146103255780632f745c591461034e5780633ccfd60b1461038b57806342842e0e146103a2576101cc565b8063081812fc116101ab578063081812fc14610269578063095ea7b3146102a657806318160ddd146102cf5780631865c57d146102fa576101cc565b80628bdca9146101d157806301ffc9a71461020157806306fdde031461023e575b600080fd5b6101eb60048036038101906101e6919061400a565b610782565b6040516101f89190614dae565b60405180910390f35b34801561020d57600080fd5b50610228600480360381019061022391906140c3565b610834565b6040516102359190614b63565b60405180910390f35b34801561024a57600080fd5b5061025361089b565b6040516102609190614bd1565b60405180910390f35b34801561027557600080fd5b50610290600480360381019061028b919061416e565b61093d565b60405161029d9190614b04565b60405180910390f35b3480156102b257600080fd5b506102cd60048036038101906102c89190613fce565b6109d8565b005b3480156102db57600080fd5b506102e4610b1c565b6040516102f19190614dae565b60405180910390f35b34801561030657600080fd5b5061030f610b2d565b60405161031c9190614d55565b60405180910390f35b34801561033157600080fd5b5061034c60048036038101906103479190613ec8565b610bba565b005b34801561035a57600080fd5b5061037560048036038101906103709190613fce565b610c30565b6040516103829190614dae565b60405180910390f35b34801561039757600080fd5b506103a0610c8b565b005b3480156103ae57600080fd5b506103c960048036038101906103c49190613ec8565b610d83565b005b3480156103d757600080fd5b506103f260048036038101906103ed919061416e565b610da3565b6040516103ff9190614dae565b60405180910390f35b34801561041457600080fd5b5061042f600480360381019061042a9190613e63565b610dc6565b60405161043c9190614dae565b60405180910390f35b34801561045157600080fd5b5061046c6004803603810190610467919061416e565b610f52565b6040516104799190614b04565b60405180910390f35b34801561048e57600080fd5b50610497610f89565b6040516104a49190614bd1565b60405180910390f35b3480156104b957600080fd5b506104d460048036038101906104cf9190613e63565b61102b565b6040516104e19190614dae565b60405180910390f35b3480156104f657600080fd5b506104ff611100565b005b34801561050d57600080fd5b506105286004803603810190610523919061416e565b611270565b005b34801561053657600080fd5b5061053f6113a7565b60405161054c9190614b04565b60405180910390f35b34801561056157600080fd5b5061056a6113d1565b6040516105779190614bd1565b60405180910390f35b34801561058c57600080fd5b506105a760048036038101906105a29190613f92565b611473565b005b3480156105b557600080fd5b506105d060048036038101906105cb9190613f17565b611629565b005b3480156105de57600080fd5b506105f960048036038101906105f49190613fce565b6116a1565b6040516106069190614d71565b60405180910390f35b34801561061b57600080fd5b5061062461193a565b6040516106319190614b1f565b60405180910390f35b34801561064657600080fd5b5061064f611a89565b60405161065c9190614d33565b60405180910390f35b34801561067157600080fd5b5061068c6004803603810190610687919061416e565b611b80565b6040516106999190614bd1565b60405180910390f35b3480156106ae57600080fd5b506106c960048036038101906106c49190613e63565b611e05565b6040516106d69190614b1f565b60405180910390f35b3480156106eb57600080fd5b506107066004803603810190610701919061416e565b611e9f565b6040516107139190614dae565b60405180910390f35b34801561072857600080fd5b50610743600480360381019061073e9190613e8c565b611ef7565b6040516107509190614b63565b60405180910390f35b34801561076557600080fd5b50610780600480360381019061077b9190613e63565b611f8b565b005b6000601060000160009054906101000a900460ff166107d6576040517f08c379a00000000000000000000000000000000000000000000000000000000081526004016107cd90614c13565b60405180910390fd5b6107df83611e9f565b3414610820576040517f08c379a000000000000000000000000000000000000000000000000000000000815260040161081790614c33565b60405180910390fd5b61082b848484612180565b90509392505050565b6000806000837bffffffffffffffffffffffffffffffffffffffffffffffffffffffff19167bffffffffffffffffffffffffffffffffffffffffffffffffffffffff1916815260200190815260200160002060009054906101000a900460ff169050919050565b606060068054600181600116156101000203166002900480601f0160208091040260200160405190810160405280929190818152602001828054600181600116156101000203166002900480156109335780601f1061090857610100808354040283529160200191610933565b820191906000526020600020905b81548152906001019060200180831161091657829003601f168201915b5050505050905090565b600061094882612400565b61099d576040517f08c379a000000000000000000000000000000000000000000000000000000000815260040180806020018281038252602c8152602001806153f9602c913960400191505060405180910390fd5b6004600083815260200190815260200160002060009054906101000a900473ffffffffffffffffffffffffffffffffffffffff169050919050565b60006109e382610f52565b90508073ffffffffffffffffffffffffffffffffffffffff168373ffffffffffffffffffffffffffffffffffffffff161415610a6a576040517f08c379a000000000000000000000000000000000000000000000000000000000815260040180806020018281038252602181526020018061544e6021913960400191505060405180910390fd5b8073ffffffffffffffffffffffffffffffffffffffff16610a8961241d565b73ffffffffffffffffffffffffffffffffffffffff161480610ab85750610ab781610ab261241d565b611ef7565b5b610b0d576040517f08c379a000000000000000000000000000000000000000000000000000000000815260040180806020018281038252603881526020018061534c6038913960400191505060405180910390fd5b610b178383612425565b505050565b6000610b2860026124de565b905090565b610b35613a76565b6010604051806101000160405290816000820160009054906101000a900460ff161515151581526020016001820154815260200160028201548152602001600382015481526020016004820154815260200160058201548152602001600682015481526020016007820160009054906101000a900460ff161515151581525050905090565b610bcb610bc561241d565b826124f3565b610c20576040517f08c379a000000000000000000000000000000000000000000000000000000000815260040180806020018281038252603181526020018061546f6031913960400191505060405180910390fd5b610c2b8383836125e7565b505050565b6000610c8382600160008673ffffffffffffffffffffffffffffffffffffffff1673ffffffffffffffffffffffffffffffffffffffff16815260200190815260200160002061282a90919063ffffffff16565b905092915050565b610c9361241d565b73ffffffffffffffffffffffffffffffffffffffff16610cb16113a7565b73ffffffffffffffffffffffffffffffffffffffff1614610d3a576040517f08c379a00000000000000000000000000000000000000000000000000000000081526004018080602001828103825260208152602001807f4f776e61626c653a2063616c6c6572206973206e6f7420746865206f776e657281525060200191505060405180910390fd5b3373ffffffffffffffffffffffffffffffffffffffff166108fc479081150290604051600060405180830381858888f19350505050158015610d80573d6000803e3d6000fd5b50565b610d9e83838360405180602001604052806000815250611629565b505050565b600080610dba83600261284490919063ffffffff16565b50905080915050919050565b6000610dd061241d565b73ffffffffffffffffffffffffffffffffffffffff16610dee6113a7565b73ffffffffffffffffffffffffffffffffffffffff1614610e77576040517f08c379a00000000000000000000000000000000000000000000000000000000081526004018080602001828103825260208152602001807f4f776e61626c653a2063616c6c6572206973206e6f7420746865206f776e657281525060200191505060405180910390fd5b601060000160009054906101000a900460ff1615610eca576040517f08c379a0000000000000000000000000000000000000000000000000000000008152600401610ec190614c53565b60405180910390fd5b610ed26113a7565b73ffffffffffffffffffffffffffffffffffffffff168273ffffffffffffffffffffffffffffffffffffffff1614610f3f576040517f08c379a0000000000000000000000000000000000000000000000000000000008152600401610f3690614cb3565b60405180910390fd5b610f4b82600180612180565b9050919050565b6000610f82826040518060600160405280602981526020016153ae6029913960026128709092919063ffffffff16565b9050919050565b606060098054600181600116156101000203166002900480601f0160208091040260200160405190810160405280929190818152602001828054600181600116156101000203166002900480156110215780601f10610ff657610100808354040283529160200191611021565b820191906000526020600020905b81548152906001019060200180831161100457829003601f168201915b5050505050905090565b60008073ffffffffffffffffffffffffffffffffffffffff168273ffffffffffffffffffffffffffffffffffffffff1614156110b2576040517f08c379a000000000000000000000000000000000000000000000000000000000815260040180806020018281038252602a815260200180615384602a913960400191505060405180910390fd5b6110f9600160008473ffffffffffffffffffffffffffffffffffffffff1673ffffffffffffffffffffffffffffffffffffffff16815260200190815260200160002061288f565b9050919050565b61110861241d565b73ffffffffffffffffffffffffffffffffffffffff166111266113a7565b73ffffffffffffffffffffffffffffffffffffffff16146111af576040517f08c379a00000000000000000000000000000000000000000000000000000000081526004018080602001828103825260208152602001807f4f776e61626c653a2063616c6c6572206973206e6f7420746865206f776e657281525060200191505060405180910390fd5b600073ffffffffffffffffffffffffffffffffffffffff16600a60009054906101000a900473ffffffffffffffffffffffffffffffffffffffff1673ffffffffffffffffffffffffffffffffffffffff167f8be0079c531659141344cd1fd0a4f28419497f9722a3daafe3b4186f6b6457e060405160405180910390a36000600a60006101000a81548173ffffffffffffffffffffffffffffffffffffffff021916908373ffffffffffffffffffffffffffffffffffffffff160217905550565b61127981612400565b6112b8576040517f08c379a00000000000000000000000000000000000000000000000000000000081526004016112af90614c93565b60405180910390fd5b60006018600083815260200190815260200160002080546001816001161561010002031660029004905014611322576040517f08c379a000000000000000000000000000000000000000000000000000000000815260040161131990614d13565b60405180910390fd5b61132b81610f52565b73ffffffffffffffffffffffffffffffffffffffff163373ffffffffffffffffffffffffffffffffffffffff1614611398576040517f08c379a000000000000000000000000000000000000000000000000000000000815260040161138f90614cb3565b60405180910390fd5b6113a4338260006128a4565b50565b6000600a60009054906101000a900473ffffffffffffffffffffffffffffffffffffffff16905090565b606060078054600181600116156101000203166002900480601f0160208091040260200160405190810160405280929190818152602001828054600181600116156101000203166002900480156114695780601f1061143e57610100808354040283529160200191611469565b820191906000526020600020905b81548152906001019060200180831161144c57829003601f168201915b5050505050905090565b61147b61241d565b73ffffffffffffffffffffffffffffffffffffffff168273ffffffffffffffffffffffffffffffffffffffff16141561151c576040517f08c379a00000000000000000000000000000000000000000000000000000000081526004018080602001828103825260198152602001807f4552433732313a20617070726f766520746f2063616c6c65720000000000000081525060200191505060405180910390fd5b806005600061152961241d565b73ffffffffffffffffffffffffffffffffffffffff1673ffffffffffffffffffffffffffffffffffffffff16815260200190815260200160002060008473ffffffffffffffffffffffffffffffffffffffff1673ffffffffffffffffffffffffffffffffffffffff16815260200190815260200160002060006101000a81548160ff0219169083151502179055508173ffffffffffffffffffffffffffffffffffffffff166115d661241d565b73ffffffffffffffffffffffffffffffffffffffff167f17307eab39ab6107e8899845ad3d59bd9653f200f220920489ca2b5937696c318360405180821515815260200191505060405180910390a35050565b61163a61163461241d565b836124f3565b61168f576040517f08c379a000000000000000000000000000000000000000000000000000000000815260040180806020018281038252603181526020018061546f6031913960400191505060405180910390fd5b61169b84848484612ab8565b50505050565b6116a9613abf565b6116b282612400565b6116f1576040517f08c379a00000000000000000000000000000000000000000000000000000000081526004016116e890614c93565b60405180910390fd5b60606000601960008581526020019081526020016000205411156118265760006019600085815260200190815260200160002054905060006001850190505b60006019600083815260200190815260200160002054118015611778575060196000868152602001908152602001600020546019600083815260200190815260200160002054115b15611790578180600101925050806001019050611730565b508067ffffffffffffffff811180156117a857600080fd5b506040519080825280602002602001820160405280156117d75781602001602082028036833780820191505090505b50915060005b818110156118235780600160196000888152602001908152602001600020548703010183828151811061180c57fe5b6020026020010181815250508060010190506117dd565b50505b6040518060c0016040528061183a85610f52565b73ffffffffffffffffffffffffffffffffffffffff16815260200161185e85610f52565b73ffffffffffffffffffffffffffffffffffffffff168673ffffffffffffffffffffffffffffffffffffffff1614151581526020016000601860008781526020019081526020016000208054600181600116156101000203166002900490501115158152602001601a600086815260200190815260200160002060009054906101000a900473ffffffffffffffffffffffffffffffffffffffff1673ffffffffffffffffffffffffffffffffffffffff168152602001601960008681526020019081526020016000205481526020018281525091505092915050565b6060600080611947610b1c565b11801561195f5750600b6002015461195d610b1c565b105b156119f65773__Utils_________________________________63dee392f360106006015460016040518363ffffffff1660e01b81526004016119a3929190614e29565b60206040518083038186803b1580156119bb57600080fd5b505af41580156119cf573d6000803e3d6000fd5b505050506040513d601f19601f820116820180604052508101906119f39190614197565b90505b60008167ffffffffffffffff81118015611a0f57600080fd5b50604051908082528060200260200182016040528015611a3e5781602001602082028036833780820191505090505b5090506000600190505b828111611a8057611a5881611e9f565b826001830381518110611a6757fe5b6020026020010181815250508080600101915050611a48565b50809250505090565b611a91613b25565b600b6040518060a0016040529081600082018054600181600116156101000203166002900480601f016020809104026020016040519081016040528092919081815260200182805460018160011615610100020316600290048015611b375780601f10611b0c57610100808354040283529160200191611b37565b820191906000526020600020905b815481529060010190602001808311611b1a57829003601f168201915b505050505081526020016001820154815260200160028201548152602001600382015481526020016004820160009054906101000a900460ff1660ff1660ff1681525050905090565b6060611b8b82612400565b611bca576040517f08c379a0000000000000000000000000000000000000000000000000000000008152600401611bc190614c93565b60405180910390fd5b600b60000173__Utils_________________________________63385fe678846040518263ffffffff1660e01b8152600401611c069190614d93565b60006040518083038186803b158015611c1e57600080fd5b505af4158015611c32573d6000803e3d6000fd5b505050506040513d6000823e3d601f19601f82011682018060405250810190611c5b919061412d565b60006018600086815260200190815260200160002080546001816001161561010002031660029004905011611c9f5760405180602001604052806000815250611ddd565b73__Utils_________________________________638d0a9bd473__Utils_________________________________631e1a5fb8600b60040160009054906101000a900460ff16601860008a81526020019081526020016000206040518363ffffffff1660e01b8152600401611d16929190614ea4565b60006040518083038186803b158015611d2e57600080fd5b505af4158015611d42573d6000803e3d6000fd5b505050506040513d6000823e3d601f19601f82011682018060405250810190611d6b9190614059565b6040518263ffffffff1660e01b8152600401611d879190614b41565b60006040518083038186803b158015611d9f57600080fd5b505af4158015611db3573d6000803e3d6000fd5b505050506040513d6000823e3d601f19601f82011682018060405250810190611ddc919061412d565b5b604051602001611def93929190614ab2565b6040516020818303038152906040529050919050565b60606000611e128361102b565b67ffffffffffffffff81118015611e2857600080fd5b50604051908082528060200260200182016040528015611e575781602001602082028036833780820191505090505b50905060005b8151811015611e9557611e708482610c30565b828281518110611e7c57fe5b6020026020010181815250508080600101915050611e5d565b5080915050919050565b600080600090506000600190505b838111611eed57662386f26fc10000600b60030154611eda83601060010154612b2a90919063ffffffff16565b0202820191508080600101915050611ead565b5080915050919050565b6000600560008473ffffffffffffffffffffffffffffffffffffffff1673ffffffffffffffffffffffffffffffffffffffff16815260200190815260200160002060008373ffffffffffffffffffffffffffffffffffffffff1673ffffffffffffffffffffffffffffffffffffffff16815260200190815260200160002060009054906101000a900460ff16905092915050565b611f9361241d565b73ffffffffffffffffffffffffffffffffffffffff16611fb16113a7565b73ffffffffffffffffffffffffffffffffffffffff161461203a576040517f08c379a00000000000000000000000000000000000000000000000000000000081526004018080602001828103825260208152602001807f4f776e61626c653a2063616c6c6572206973206e6f7420746865206f776e657281525060200191505060405180910390fd5b600073ffffffffffffffffffffffffffffffffffffffff168173ffffffffffffffffffffffffffffffffffffffff1614156120c0576040517f08c379a00000000000000000000000000000000000000000000000000000000081526004018080602001828103825260268152602001806152b06026913960400191505060405180910390fd5b8073ffffffffffffffffffffffffffffffffffffffff16600a60009054906101000a900473ffffffffffffffffffffffffffffffffffffffff1673ffffffffffffffffffffffffffffffffffffffff167f8be0079c531659141344cd1fd0a4f28419497f9722a3daafe3b4186f6b6457e060405160405180910390a380600a60006101000a81548173ffffffffffffffffffffffffffffffffffffffff021916908373ffffffffffffffffffffffffffffffffffffffff16021790555050565b60008083116121c4576040517f08c379a00000000000000000000000000000000000000000000000000000000081526004016121bb90614bf3565b60405180910390fd5b601060000160009054906101000a900460ff161561231c57600b6002015460106001015410612228576040517f08c379a000000000000000000000000000000000000000000000000000000000815260040161221f90614cf3565b60405180910390fd5b60106004015460106001015410612274576040517f08c379a000000000000000000000000000000000000000000000000000000000815260040161226b90614cd3565b60405180910390fd5b60106004015461229284601060010154612b2a90919063ffffffff16565b11156122d3576040517f08c379a00000000000000000000000000000000000000000000000000000000081526004016122ca90614c73565b60405180910390fd5b60106006015483111561231b576040517f08c379a000000000000000000000000000000000000000000000000000000000815260040161231290614c73565b60405180910390fd5b5b60005b838110156123f5576000601060000160009054906101000a900460ff161561235f5761235a6001601060010154612b2a90919063ffffffff16565b612362565b60005b905061236e8682612bb2565b6001601060000160006101000a81548160ff0219169083151502179055508060106001018190555060008111156123b5576010600301600081548092919060010191905055505b83156123de576123d98682600188146123d157600185016123d4565b60005b6128a4565b6123e7565b6123e6612da6565b5b50808060010191505061231f565b508290509392505050565b600061241682600261308890919063ffffffff16565b9050919050565b600033905090565b816004600083815260200190815260200160002060006101000a81548173ffffffffffffffffffffffffffffffffffffffff021916908373ffffffffffffffffffffffffffffffffffffffff160217905550808273ffffffffffffffffffffffffffffffffffffffff1661249883610f52565b73ffffffffffffffffffffffffffffffffffffffff167f8c5be1e5ebec7d5bd14f71427d1e84f3dd0314c0f7b2291e5b200ac8c7c3b92560405160405180910390a45050565b60006124ec826000016130a2565b9050919050565b60006124fe82612400565b612553576040517f08c379a000000000000000000000000000000000000000000000000000000000815260040180806020018281038252602c815260200180615320602c913960400191505060405180910390fd5b600061255e83610f52565b90508073ffffffffffffffffffffffffffffffffffffffff168473ffffffffffffffffffffffffffffffffffffffff1614806125cd57508373ffffffffffffffffffffffffffffffffffffffff166125b58461093d565b73ffffffffffffffffffffffffffffffffffffffff16145b806125de57506125dd8185611ef7565b5b91505092915050565b8273ffffffffffffffffffffffffffffffffffffffff1661260782610f52565b73ffffffffffffffffffffffffffffffffffffffff1614612673576040517f08c379a00000000000000000000000000000000000000000000000000000000081526004018080602001828103825260298152602001806154256029913960400191505060405180910390fd5b600073ffffffffffffffffffffffffffffffffffffffff168273ffffffffffffffffffffffffffffffffffffffff1614156126f9576040517f08c379a00000000000000000000000000000000000000000000000000000000081526004018080602001828103825260248152602001806152d66024913960400191505060405180910390fd5b6127048383836130b3565b61270f600082612425565b61276081600160008673ffffffffffffffffffffffffffffffffffffffff1673ffffffffffffffffffffffffffffffffffffffff1681526020019081526020016000206130b890919063ffffffff16565b506127b281600160008573ffffffffffffffffffffffffffffffffffffffff1673ffffffffffffffffffffffffffffffffffffffff1681526020019081526020016000206130d290919063ffffffff16565b506127c9818360026130ec9092919063ffffffff16565b50808273ffffffffffffffffffffffffffffffffffffffff168473ffffffffffffffffffffffffffffffffffffffff167fddf252ad1be2c89b69c2b068fc378daa952ba7f163c4a11628f55a4df523b3ef60405160405180910390a4505050565b60006128398360000183613121565b60001c905092915050565b60008060008061285786600001866131a4565b915091508160001c8160001c9350935050509250929050565b6000612883846000018460001b8461323d565b60001c90509392505050565b600061289d82600001613333565b9050919050565b82601a600084815260200190815260200160002060006101000a81548173ffffffffffffffffffffffffffffffffffffffff021916908373ffffffffffffffffffffffffffffffffffffffff16021790555080601960008481526020019081526020016000208190555073__Utils_________________________________639f7311e03060601b8560601b73__Utils_________________________________6306e952f36040518163ffffffff1660e01b815260040160206040518083038186803b15801561297457600080fd5b505af4158015612988573d6000803e3d6000fd5b505050506040513d601f19601f820116820180604052508101906129ac919061409a565b6002600b60040160009054906101000a900460ff1602600b60040160009054906101000a900460ff1660ff1688026040518663ffffffff1660e01b81526004016129fa959493929190614b7e565b60006040518083038186803b158015612a1257600080fd5b505af4158015612a26573d6000803e3d6000fd5b505050506040513d6000823e3d601f19601f82011682018060405250810190612a4f91906140ec565b601860008481526020019081526020016000209080519060200190612a75929190613b57565b506000821115612aab57601060030160008154809291906001900391905055506010600201600081548092919060010191905055505b612ab3612da6565b505050565b612ac38484846125e7565b612acf84848484613344565b612b24576040517f08c379a000000000000000000000000000000000000000000000000000000000815260040180806020018281038252603281526020018061527e6032913960400191505060405180910390fd5b50505050565b600080828401905083811015612ba8576040517f08c379a000000000000000000000000000000000000000000000000000000000815260040180806020018281038252601b8152602001807f536166654d6174683a206164646974696f6e206f766572666c6f77000000000081525060200191505060405180910390fd5b8091505092915050565b600073ffffffffffffffffffffffffffffffffffffffff168273ffffffffffffffffffffffffffffffffffffffff161415612c55576040517f08c379a00000000000000000000000000000000000000000000000000000000081526004018080602001828103825260208152602001807f4552433732313a206d696e7420746f20746865207a65726f206164647265737381525060200191505060405180910390fd5b612c5e81612400565b15612cd1576040517f08c379a000000000000000000000000000000000000000000000000000000000815260040180806020018281038252601c8152602001807f4552433732313a20746f6b656e20616c7265616479206d696e7465640000000081525060200191505060405180910390fd5b612cdd600083836130b3565b612d2e81600160008573ffffffffffffffffffffffffffffffffffffffff1673ffffffffffffffffffffffffffffffffffffffff1681526020019081526020016000206130d290919063ffffffff16565b50612d45818360026130ec9092919063ffffffff16565b50808273ffffffffffffffffffffffffffffffffffffffff16600073ffffffffffffffffffffffffffffffffffffffff167fddf252ad1be2c89b69c2b068fc378daa952ba7f163c4a11628f55a4df523b3ef60405160405180910390a45050565b600b600101546010600101541015612dcc57600b60010154601060040181905550612f26565b600073__Utils_________________________________63eaa041fe600b60020154600a6040518363ffffffff1660e01b8152600401612e0d929190614e00565b60206040518083038186803b158015612e2557600080fd5b505af4158015612e39573d6000803e3d6000fd5b505050506040513d601f19601f82011682018060405250810190612e5d9190614197565b905073__Utils_________________________________63058afb766010600301546000846040518463ffffffff1660e01b8152600401612ea093929190614dc9565b60206040518083038186803b158015612eb857600080fd5b505af4158015612ecc573d6000803e3d6000fd5b505050506040513d601f19601f82011682018060405250810190612ef09190614197565b816010600101540103601060040181905550600b600201546010600401541115612f2457600b600201546010600401819055505b505b6010600101546010600401540360106005018190555073__Utils_________________________________6352fec20d60106005015473__Utils_________________________________63eaa041fe600b6002015460056040518363ffffffff1660e01b8152600401612f9b929190614e52565b60206040518083038186803b158015612fb357600080fd5b505af4158015612fc7573d6000803e3d6000fd5b505050506040513d601f19601f82011682018060405250810190612feb9190614197565b6040518363ffffffff1660e01b8152600401613008929190614e7b565b60206040518083038186803b15801561302057600080fd5b505af4158015613034573d6000803e3d6000fd5b505050506040513d601f19601f820116820180604052508101906130589190614197565b601060060181905550600060106005015411601060070160006101000a81548160ff021916908315150217905550565b600061309a836000018360001b61355d565b905092915050565b600081600001805490509050919050565b505050565b60006130ca836000018360001b613580565b905092915050565b60006130e4836000018360001b613668565b905092915050565b6000613118846000018460001b8473ffffffffffffffffffffffffffffffffffffffff1660001b6136d8565b90509392505050565b600081836000018054905011613182576040517f08c379a000000000000000000000000000000000000000000000000000000000815260040180806020018281038252602281526020018061525c6022913960400191505060405180910390fd5b82600001828154811061319157fe5b9060005260206000200154905092915050565b60008082846000018054905011613206576040517f08c379a00000000000000000000000000000000000000000000000000000000081526004018080602001828103825260228152602001806153d76022913960400191505060405180910390fd5b600084600001848154811061321757fe5b906000526020600020906002020190508060000154816001015492509250509250929050565b60008084600101600085815260200190815260200160002054905060008114158390613304576040517f08c379a00000000000000000000000000000000000000000000000000000000081526004018080602001828103825283818151815260200191508051906020019080838360005b838110156132c95780820151818401526020810190506132ae565b50505050905090810190601f1680156132f65780820380516001836020036101000a031916815260200191505b509250505060405180910390fd5b5084600001600182038154811061331757fe5b9060005260206000209060020201600101549150509392505050565b600081600001805490509050919050565b60006133658473ffffffffffffffffffffffffffffffffffffffff166137b4565b6133725760019050613555565b60006134dc63150b7a0260e01b61338761241d565b888787604051602401808573ffffffffffffffffffffffffffffffffffffffff1681526020018473ffffffffffffffffffffffffffffffffffffffff16815260200183815260200180602001828103825283818151815260200191508051906020019080838360005b8381101561340b5780820151818401526020810190506133f0565b50505050905090810190601f1680156134385780820380516001836020036101000a031916815260200191505b5095505050505050604051602081830303815290604052907bffffffffffffffffffffffffffffffffffffffffffffffffffffffff19166020820180517bffffffffffffffffffffffffffffffffffffffffffffffffffffffff838183161783525050505060405180606001604052806032815260200161527e603291398773ffffffffffffffffffffffffffffffffffffffff166137c79092919063ffffffff16565b905060008180602001905160208110156134f557600080fd5b8101908080519060200190929190505050905063150b7a0260e01b7bffffffffffffffffffffffffffffffffffffffffffffffffffffffff1916817bffffffffffffffffffffffffffffffffffffffffffffffffffffffff191614925050505b949350505050565b600080836001016000848152602001908152602001600020541415905092915050565b6000808360010160008481526020019081526020016000205490506000811461365c57600060018203905060006001866000018054905003905060008660000182815481106135cb57fe5b90600052602060002001549050808760000184815481106135e857fe5b906000526020600020018190555060018301876001016000838152602001908152602001600020819055508660000180548061362057fe5b60019003818190600052602060002001600090559055866001016000878152602001908152602001600020600090556001945050505050613662565b60009150505b92915050565b600061367483836137df565b6136cd5782600001829080600181540180825580915050600190039060005260206000200160009091909190915055826000018054905083600101600084815260200190815260200160002081905550600190506136d2565b600090505b92915050565b600080846001016000858152602001908152602001600020549050600081141561377f578460000160405180604001604052808681526020018581525090806001815401808255809150506001900390600052602060002090600202016000909190919091506000820151816000015560208201518160010155505084600001805490508560010160008681526020019081526020016000208190555060019150506137ad565b8285600001600183038154811061379257fe5b90600052602060002090600202016001018190555060009150505b9392505050565b600080823b905060008111915050919050565b60606137d68484600085613802565b90509392505050565b600080836001016000848152602001908152602001600020541415905092915050565b60608247101561385d576040517f08c379a00000000000000000000000000000000000000000000000000000000081526004018080602001828103825260268152602001806152fa6026913960400191505060405180910390fd5b613866856137b4565b6138d8576040517f08c379a000000000000000000000000000000000000000000000000000000000815260040180806020018281038252601d8152602001807f416464726573733a2063616c6c20746f206e6f6e2d636f6e747261637400000081525060200191505060405180910390fd5b6000808673ffffffffffffffffffffffffffffffffffffffff1685876040518082805190602001908083835b602083106139275780518252602082019150602081019050602083039250613904565b6001836020036101000a03801982511681845116808217855250505050505090500191505060006040518083038185875af1925050503d8060008114613989576040519150601f19603f3d011682016040523d82523d6000602084013e61398e565b606091505b509150915061399e8282866139aa565b92505050949350505050565b606083156139ba57829050613a6f565b6000835111156139cd5782518084602001fd5b816040517f08c379a00000000000000000000000000000000000000000000000000000000081526004018080602001828103825283818151815260200191508051906020019080838360005b83811015613a34578082015181840152602081019050613a19565b50505050905090810190601f168015613a615780820380516001836020036101000a031916815260200191505b509250505060405180910390fd5b9392505050565b6040518061010001604052806000151581526020016000815260200160008152602001600081526020016000815260200160008152602001600081526020016000151581525090565b6040518060c00160405280600073ffffffffffffffffffffffffffffffffffffffff168152602001600015158152602001600015158152602001600073ffffffffffffffffffffffffffffffffffffffff16815260200160008152602001606081525090565b6040518060a0016040528060608152602001600081526020016000815260200160008152602001600060ff1681525090565b828054600181600116156101000203166002900490600052602060002090601f016020900481019282613b8d5760008555613bd4565b82601f10613ba657805160ff1916838001178555613bd4565b82800160010185558215613bd4579182015b82811115613bd3578251825591602001919060010190613bb8565b5b509050613be19190613be5565b5090565b5b80821115613bfe576000816000905550600101613be6565b5090565b6000613c15613c1084614f05565b614ed4565b90508083825260208201905082856020860282011115613c3457600080fd5b60005b85811015613c645781613c4a8882613e4e565b845260208401935060208301925050600181019050613c37565b5050509392505050565b6000613c81613c7c84614f31565b614ed4565b905082815260208101848484011115613c9957600080fd5b613ca484828561517c565b509392505050565b6000613cbf613cba84614f31565b614ed4565b905082815260208101848484011115613cd757600080fd5b613ce284828561518b565b509392505050565b6000613cfd613cf884614f61565b614ed4565b905082815260208101848484011115613d1557600080fd5b613d2084828561518b565b509392505050565b600081359050613d37816151d1565b92915050565b600082601f830112613d4e57600080fd5b8151613d5e848260208601613c02565b91505092915050565b600081359050613d76816151e8565b92915050565b600081519050613d8b816151ff565b92915050565b600081359050613da081615216565b92915050565b600082601f830112613db757600080fd5b8135613dc7848260208601613c6e565b91505092915050565b600082601f830112613de157600080fd5b8151613df1848260208601613cac565b91505092915050565b600082601f830112613e0b57600080fd5b8151613e1b848260208601613cea565b91505092915050565b600081359050613e338161522d565b92915050565b600081519050613e488161522d565b92915050565b600081519050613e5d81615244565b92915050565b600060208284031215613e7557600080fd5b6000613e8384828501613d28565b91505092915050565b60008060408385031215613e9f57600080fd5b6000613ead85828601613d28565b9250506020613ebe85828601613d28565b9150509250929050565b600080600060608486031215613edd57600080fd5b6000613eeb86828701613d28565b9350506020613efc86828701613d28565b9250506040613f0d86828701613e24565b9150509250925092565b60008060008060808587031215613f2d57600080fd5b6000613f3b87828801613d28565b9450506020613f4c87828801613d28565b9350506040613f5d87828801613e24565b925050606085013567ffffffffffffffff811115613f7a57600080fd5b613f8687828801613da6565b91505092959194509250565b60008060408385031215613fa557600080fd5b6000613fb385828601613d28565b9250506020613fc485828601613d67565b9150509250929050565b60008060408385031215613fe157600080fd5b6000613fef85828601613d28565b925050602061400085828601613e24565b9150509250929050565b60008060006060848603121561401f57600080fd5b600061402d86828701613d28565b935050602061403e86828701613e24565b925050604061404f86828701613d67565b9150509250925092565b60006020828403121561406b57600080fd5b600082015167ffffffffffffffff81111561408557600080fd5b61409184828501613d3d565b91505092915050565b6000602082840312156140ac57600080fd5b60006140ba84828501613d7c565b91505092915050565b6000602082840312156140d557600080fd5b60006140e384828501613d91565b91505092915050565b6000602082840312156140fe57600080fd5b600082015167ffffffffffffffff81111561411857600080fd5b61412484828501613dd0565b91505092915050565b60006020828403121561413f57600080fd5b600082015167ffffffffffffffff81111561415957600080fd5b61416584828501613dfa565b91505092915050565b60006020828403121561418057600080fd5b600061418e84828501613e24565b91505092915050565b6000602082840312156141a957600080fd5b60006141b784828501613e39565b91505092915050565b60006141cc8383614a58565b60208301905092915050565b60006141e48383614aa3565b60208301905092915050565b6141f981615087565b82525050565b61420881615087565b82525050565b600061421982614fdb565b6142238185615016565b935061422e83614f91565b8060005b8381101561425f57815161424688826141c0565b975061425183614ffc565b925050600181019050614232565b5085935050505092915050565b600061427782614fdb565b6142818185615027565b935061428c83614f91565b8060005b838110156142bd5781516142a488826141c0565b97506142af83614ffc565b925050600181019050614290565b5085935050505092915050565b60006142d582614fe6565b6142df8185615038565b93506142ea83614fa1565b8060005b8381101561431b57815161430288826141d8565b975061430d83615009565b9250506001810190506142ee565b5085935050505092915050565b61433181615099565b82525050565b61434081615099565b82525050565b61434f816150a5565b82525050565b6000815460018116600081146143725760018114614398576143dc565b607f60028304166143838187615049565b955060ff1983168652602086019350506143dc565b600282046143a68187615049565b95506143b185614fb1565b60005b828110156143d3578154818901526001820191506020810190506143b4565b80880195505050505b505092915050565b6143ed81615134565b82525050565b6143fc81615146565b82525050565b61440b81615158565b82525050565b61441a8161516a565b82525050565b600061442b82614ff1565b614435818561505a565b935061444581856020860161518b565b61444e816151c0565b840191505092915050565b600061446482614ff1565b61446e818561506b565b935061447e81856020860161518b565b614487816151c0565b840191505092915050565b600061449d82614ff1565b6144a7818561507c565b93506144b781856020860161518b565b80840191505092915050565b6000815460018116600081146144e0576001811461450557614549565b607f60028304166144f1818761507c565b955060ff1983168652808601935050614549565b60028204614513818761507c565b955061451e85614fc6565b60005b8281101561454057815481890152600182019150602081019050614521565b82880195505050505b505092915050565b600061455e60238361507c565b91507f68747470733a2f2f636f6c6c6563742d636f64652e636f6d2f6170692f746f6b60008301527f656e2f00000000000000000000000000000000000000000000000000000000006020830152602382019050919050565b60006145c4600e8361506b565b91507f43433a4261645175616e746974790000000000000000000000000000000000006000830152602082019050919050565b6000614604600e8361506b565b91507f43433a20556e72656c65617365640000000000000000000000000000000000006000830152602082019050919050565b6000614644600b8361506b565b91507f43433a42616456616c75650000000000000000000000000000000000000000006000830152602082019050919050565b600061468460108361506b565b91507f43433a416c7265616479497373756564000000000000000000000000000000006000830152602082019050919050565b60006146c4600a8361506b565b91507f43433a546f6f4d616e79000000000000000000000000000000000000000000006000830152602082019050919050565b6000614704600d8361506b565b91507f43433a426164546f6b656e4964000000000000000000000000000000000000006000830152602082019050919050565b6000614744600b8361506b565b91507f43433a4e6f744f776e65720000000000000000000000000000000000000000006000830152602082019050919050565b6000614784600e8361506b565b91507f43433a556e617661696c61626c650000000000000000000000000000000000006000830152602082019050919050565b60006147c460158361507c565b91507f2f6d657461646174613f763d3126706978656c733d00000000000000000000006000830152601582019050919050565b6000614804600a8361506b565b91507f43433a536f6c644f7574000000000000000000000000000000000000000000006000830152602082019050919050565b6000614844600f8361506b565b91507f43433a416c72656164794275696c7400000000000000000000000000000000006000830152602082019050919050565b600061488460018361507c565b91507f2f000000000000000000000000000000000000000000000000000000000000006000830152600182019050919050565b600060a08301600083015184820360008601526148d48282614420565b91505060208301516148e96020860182614a58565b5060408301516148fc6040860182614a58565b50606083015161490f6060860182614a58565b5060808301516149226080860182614a85565b508091505092915050565b610100820160008201516149446000850182614328565b5060208201516149576020850182614a58565b50604082015161496a6040850182614a58565b50606082015161497d6060850182614a58565b5060808201516149906080850182614a58565b5060a08201516149a360a0850182614a58565b5060c08201516149b660c0850182614a58565b5060e08201516149c960e0850182614328565b50505050565b600060c0830160008301516149e760008601826141f0565b5060208301516149fa6020860182614328565b506040830151614a0d6040860182614328565b506060830151614a2060608601826141f0565b506080830151614a336080860182614a58565b5060a083015184820360a0860152614a4b828261420e565b9150508091505092915050565b614a618161511d565b82525050565b614a708161511d565b82525050565b614a7f8161511d565b82525050565b614a8e81615127565b82525050565b614a9d81615127565b82525050565b614aac81615127565b82525050565b6000614abd82614551565b9150614ac982866144c3565b9150614ad482614877565b9150614ae08285614492565b9150614aeb826147b7565b9150614af78284614492565b9150819050949350505050565b6000602082019050614b1960008301846141ff565b92915050565b60006020820190508181036000830152614b39818461426c565b905092915050565b60006020820190508181036000830152614b5b81846142ca565b905092915050565b6000602082019050614b786000830184614337565b92915050565b600060a082019050614b936000830188614346565b614ba06020830187614346565b614bad6040830186614346565b614bba6060830185614a94565b614bc76080830184614a76565b9695505050505050565b60006020820190508181036000830152614beb8184614459565b905092915050565b60006020820190508181036000830152614c0c816145b7565b9050919050565b60006020820190508181036000830152614c2c816145f7565b9050919050565b60006020820190508181036000830152614c4c81614637565b9050919050565b60006020820190508181036000830152614c6c81614677565b9050919050565b60006020820190508181036000830152614c8c816146b7565b9050919050565b60006020820190508181036000830152614cac816146f7565b9050919050565b60006020820190508181036000830152614ccc81614737565b9050919050565b60006020820190508181036000830152614cec81614777565b9050919050565b60006020820190508181036000830152614d0c816147f7565b9050919050565b60006020820190508181036000830152614d2c81614837565b9050919050565b60006020820190508181036000830152614d4d81846148b7565b905092915050565b600061010082019050614d6b600083018461492d565b92915050565b60006020820190508181036000830152614d8b81846149cf565b905092915050565b6000602082019050614da86000830184614a76565b92915050565b6000602082019050614dc36000830184614a67565b92915050565b6000606082019050614dde6000830186614a76565b614deb60208301856143e4565b614df86040830184614a76565b949350505050565b6000604082019050614e156000830185614a76565b614e2260208301846143f3565b9392505050565b6000604082019050614e3e6000830185614a76565b614e4b6020830184614402565b9392505050565b6000604082019050614e676000830185614a76565b614e746020830184614411565b9392505050565b6000604082019050614e906000830185614a76565b614e9d6020830184614a76565b9392505050565b6000604082019050614eb96000830185614a94565b8181036020830152614ecb8184614355565b90509392505050565b6000604051905081810181811067ffffffffffffffff82111715614efb57614efa6151be565b5b8060405250919050565b600067ffffffffffffffff821115614f2057614f1f6151be565b5b602082029050602081019050919050565b600067ffffffffffffffff821115614f4c57614f4b6151be565b5b601f19601f8301169050602081019050919050565b600067ffffffffffffffff821115614f7c57614f7b6151be565b5b601f19601f8301169050602081019050919050565b6000819050602082019050919050565b6000819050602082019050919050565b60008190508160005260206000209050919050565b60008190508160005260206000209050919050565b600081519050919050565b600081519050919050565b600081519050919050565b6000602082019050919050565b6000602082019050919050565b600082825260208201905092915050565b600082825260208201905092915050565b600082825260208201905092915050565b600082825260208201905092915050565b600082825260208201905092915050565b600082825260208201905092915050565b600081905092915050565b6000615092826150fd565b9050919050565b60008115159050919050565b60007fffffffffffffffffffffffffffffffffffffffff00000000000000000000000082169050919050565b60007fffffffff0000000000000000000000000000000000000000000000000000000082169050919050565b600073ffffffffffffffffffffffffffffffffffffffff82169050919050565b6000819050919050565b600060ff82169050919050565b600061513f8261511d565b9050919050565b60006151518261511d565b9050919050565b60006151638261511d565b9050919050565b60006151758261511d565b9050919050565b82818337600083830152505050565b60005b838110156151a957808201518184015260208101905061518e565b838111156151b8576000848401525b50505050565bfe5b6000601f19601f8301169050919050565b6151da81615087565b81146151e557600080fd5b50565b6151f181615099565b81146151fc57600080fd5b50565b615208816150a5565b811461521357600080fd5b50565b61521f816150d1565b811461522a57600080fd5b50565b6152368161511d565b811461524157600080fd5b50565b61524d81615127565b811461525857600080fd5b5056fe456e756d657261626c655365743a20696e646578206f7574206f6620626f756e64734552433732313a207472616e7366657220746f206e6f6e20455243373231526563656976657220696d706c656d656e7465724f776e61626c653a206e6577206f776e657220697320746865207a65726f20616464726573734552433732313a207472616e7366657220746f20746865207a65726f2061646472657373416464726573733a20696e73756666696369656e742062616c616e636520666f722063616c6c4552433732313a206f70657261746f7220717565727920666f72206e6f6e6578697374656e7420746f6b656e4552433732313a20617070726f76652063616c6c6572206973206e6f74206f776e6572206e6f7220617070726f76656420666f7220616c6c4552433732313a2062616c616e636520717565727920666f7220746865207a65726f20616464726573734552433732313a206f776e657220717565727920666f72206e6f6e6578697374656e7420746f6b656e456e756d657261626c654d61703a20696e646578206f7574206f6620626f756e64734552433732313a20617070726f76656420717565727920666f72206e6f6e6578697374656e7420746f6b656e4552433732313a207472616e73666572206f6620746f6b656e2074686174206973206e6f74206f776e4552433732313a20617070726f76616c20746f2063757272656e74206f776e65724552433732313a207472616e736665722063616c6c6572206973206e6f74206f776e6572206e6f7220617070726f766564a2646970667358221220cd37f1d0cd807c4a929146f25cbc1c85857e0cba0433f8028ccd6742fe7df52964736f6c63430007060033",
  "immutableReferences": {},
  "source": "//\n// CollectCode v1.0\n// CHROMA Collection, 2021\n// https://collect-code.com/\n// https://twitter.com/CollectCoder\n//\n\n// SPDX-License-Identifier: MIT\n// Same version as openzeppelin 3.4\npragma solidity >=0.6.0 <0.8.0;\npragma abicoder v2;\n\nimport \"./CollectCode.sol\";\nimport \"./Utils.sol\";\n\ncontract ChromaFour is CollectCode\n{\n    uint8 internal constant GRID_SIZE = 4;\n    constructor() ERC721(\"CHROMA4\", \"CH4\") CollectCode()\n    {\n        config_ = Config (\n            \"chroma4\",  // (seriesCode)\n            40,         // (initialSupply)\n            80,         // (maxSupply)\n            2,          // (initialPrice) ETH cents\n            GRID_SIZE   // (gridSize)\n        );\n    }\n}\n",
  "sourcePath": "/Users/roger/Dev/Blockchain/Truffle/cc-chroma/contracts/ChromaFour.sol",
  "compiler": {
    "name": "solc",
    "version": "0.7.6+commit.7338295f.Emscripten.clang"
  },
  "schemaVersion": "3.4.10",
  "updatedAt": "2022-10-27T03:28:34.626Z",
  "networkType": "ethereum",
  "devdoc": {
    "kind": "dev",
    "methods": {
      "approve(address,uint256)": {
        "details": "See {IERC721-approve}."
      },
      "balanceOf(address)": {
        "details": "See {IERC721-balanceOf}."
      },
      "baseURI()": {
        "details": "Returns the base URI set via {_setBaseURI}. This will be automatically added as a prefix in {tokenURI} to each token's URI, or to the token ID if no specific URI is set for that token ID."
      },
      "getApproved(uint256)": {
        "details": "See {IERC721-getApproved}."
      },
      "isApprovedForAll(address,address)": {
        "details": "See {IERC721-isApprovedForAll}."
      },
      "name()": {
        "details": "See {IERC721Metadata-name}."
      },
      "owner()": {
        "details": "Returns the address of the current owner."
      },
      "ownerOf(uint256)": {
        "details": "See {IERC721-ownerOf}."
      },
      "renounceOwnership()": {
        "details": "Leaves the contract without owner. It will not be possible to call `onlyOwner` functions anymore. Can only be called by the current owner. NOTE: Renouncing ownership will leave the contract without an owner, thereby removing any functionality that is only available to the owner."
      },
      "safeTransferFrom(address,address,uint256)": {
        "details": "See {IERC721-safeTransferFrom}."
      },
      "safeTransferFrom(address,address,uint256,bytes)": {
        "details": "See {IERC721-safeTransferFrom}."
      },
      "setApprovalForAll(address,bool)": {
        "details": "See {IERC721-setApprovalForAll}."
      },
      "supportsInterface(bytes4)": {
        "details": "See {IERC165-supportsInterface}. Time complexity O(1), guaranteed to always use less than 30 000 gas."
      },
      "symbol()": {
        "details": "See {IERC721Metadata-symbol}."
      },
      "tokenByIndex(uint256)": {
        "details": "See {IERC721Enumerable-tokenByIndex}."
      },
      "tokenOfOwnerByIndex(address,uint256)": {
        "details": "See {IERC721Enumerable-tokenOfOwnerByIndex}."
      },
      "tokenURI(uint256)": {
        "details": "See {IERC721Metadata-tokenURI}."
      },
      "totalSupply()": {
        "details": "See {IERC721Enumerable-totalSupply}."
      },
      "transferFrom(address,address,uint256)": {
        "details": "See {IERC721-transferFrom}."
      },
      "transferOwnership(address)": {
        "details": "Transfers ownership of the contract to a new account (`newOwner`). Can only be called by the current owner."
      }
    },
    "version": 1
  },
  "userdoc": {
    "kind": "user",
    "methods": {},
    "version": 1
  }
}