{
  "contractName": "Utils",
  "abi": [
    {
      "inputs": [
        {
          "internalType": "uint256",
          "name": "blockNumber",
          "type": "uint256"
        }
      ],
      "name": "convertBlockHashToAddress",
      "outputs": [
        {
          "internalType": "address",
          "name": "",
          "type": "address"
        }
      ],
      "stateMutability": "view",
      "type": "function",
      "constant": true
    },
    {
      "inputs": [],
      "name": "getBlockSeed",
      "outputs": [
        {
          "internalType": "bytes20",
          "name": "",
          "type": "bytes20"
        }
      ],
      "stateMutability": "view",
      "type": "function",
      "constant": true
    },
    {
      "inputs": [
        {
          "internalType": "uint8[]",
          "name": "values",
          "type": "uint8[]"
        }
      ],
      "name": "convertToHexString",
      "outputs": [
        {
          "internalType": "string",
          "name": "",
          "type": "string"
        }
      ],
      "stateMutability": "pure",
      "type": "function",
      "constant": true
    },
    {
      "inputs": [
        {
          "internalType": "uint256",
          "name": "value",
          "type": "uint256"
        },
        {
          "internalType": "uint256",
          "name": "min",
          "type": "uint256"
        },
        {
          "internalType": "uint256",
          "name": "max",
          "type": "uint256"
        }
      ],
      "name": "clamp_uint256",
      "outputs": [
        {
          "internalType": "uint256",
          "name": "",
          "type": "uint256"
        }
      ],
      "stateMutability": "pure",
      "type": "function",
      "constant": true
    },
    {
      "inputs": [
        {
          "internalType": "uint256",
          "name": "a",
          "type": "uint256"
        },
        {
          "internalType": "uint256",
          "name": "b",
          "type": "uint256"
        }
      ],
      "name": "min_uint256",
      "outputs": [
        {
          "internalType": "uint256",
          "name": "",
          "type": "uint256"
        }
      ],
      "stateMutability": "pure",
      "type": "function",
      "constant": true
    },
    {
      "inputs": [
        {
          "internalType": "uint256",
          "name": "a",
          "type": "uint256"
        },
        {
          "internalType": "uint256",
          "name": "b",
          "type": "uint256"
        }
      ],
      "name": "max_uint256",
      "outputs": [
        {
          "internalType": "uint256",
          "name": "",
          "type": "uint256"
        }
      ],
      "stateMutability": "pure",
      "type": "function",
      "constant": true
    },
    {
      "inputs": [
        {
          "internalType": "uint256",
          "name": "value",
          "type": "uint256"
        },
        {
          "internalType": "uint256",
          "name": "percentage",
          "type": "uint256"
        }
      ],
      "name": "percent_uint256",
      "outputs": [
        {
          "internalType": "uint256",
          "name": "",
          "type": "uint256"
        }
      ],
      "stateMutability": "pure",
      "type": "function",
      "constant": true
    },
    {
      "inputs": [
        {
          "internalType": "int256",
          "name": "min",
          "type": "int256"
        },
        {
          "internalType": "int256",
          "name": "max",
          "type": "int256"
        },
        {
          "internalType": "int256",
          "name": "stepCount",
          "type": "int256"
        },
        {
          "internalType": "int256",
          "name": "stepIndex",
          "type": "int256"
        }
      ],
      "name": "step_int",
      "outputs": [
        {
          "internalType": "int256",
          "name": "",
          "type": "int256"
        }
      ],
      "stateMutability": "pure",
      "type": "function",
      "constant": true
    },
    {
      "inputs": [
        {
          "internalType": "uint8",
          "name": "min",
          "type": "uint8"
        },
        {
          "internalType": "uint8",
          "name": "max",
          "type": "uint8"
        },
        {
          "internalType": "uint8",
          "name": "stepCount",
          "type": "uint8"
        },
        {
          "internalType": "uint8",
          "name": "stepIndex",
          "type": "uint8"
        }
      ],
      "name": "step_uint8",
      "outputs": [
        {
          "internalType": "uint8",
          "name": "",
          "type": "uint8"
        }
      ],
      "stateMutability": "pure",
      "type": "function",
      "constant": true
    },
    {
      "inputs": [
        {
          "internalType": "uint256",
          "name": "value",
          "type": "uint256"
        },
        {
          "internalType": "uint256",
          "name": "min",
          "type": "uint256"
        },
        {
          "internalType": "uint256",
          "name": "max",
          "type": "uint256"
        }
      ],
      "name": "map_uint256",
      "outputs": [
        {
          "internalType": "uint256",
          "name": "",
          "type": "uint256"
        }
      ],
      "stateMutability": "pure",
      "type": "function",
      "constant": true
    },
    {
      "inputs": [
        {
          "internalType": "uint8",
          "name": "value",
          "type": "uint8"
        },
        {
          "internalType": "uint8",
          "name": "min",
          "type": "uint8"
        },
        {
          "internalType": "uint8",
          "name": "max",
          "type": "uint8"
        }
      ],
      "name": "map_uint8",
      "outputs": [
        {
          "internalType": "uint8",
          "name": "",
          "type": "uint8"
        }
      ],
      "stateMutability": "pure",
      "type": "function",
      "constant": true
    },
    {
      "inputs": [
        {
          "internalType": "bytes20",
          "name": "buffer",
          "type": "bytes20"
        },
        {
          "internalType": "uint256",
          "name": "bits",
          "type": "uint256"
        }
      ],
      "name": "lshift_bytes20",
      "outputs": [
        {
          "internalType": "bytes20",
          "name": "",
          "type": "bytes20"
        }
      ],
      "stateMutability": "pure",
      "type": "function",
      "constant": true
    },
    {
      "inputs": [
        {
          "internalType": "bytes20",
          "name": "buffer",
          "type": "bytes20"
        }
      ],
      "name": "sum_bytes20",
      "outputs": [
        {
          "internalType": "uint256",
          "name": "",
          "type": "uint256"
        }
      ],
      "stateMutability": "pure",
      "type": "function",
      "constant": true
    },
    {
      "inputs": [
        {
          "internalType": "uint8",
          "name": "h",
          "type": "uint8"
        },
        {
          "internalType": "uint8",
          "name": "s",
          "type": "uint8"
        },
        {
          "internalType": "uint8",
          "name": "v",
          "type": "uint8"
        }
      ],
      "name": "hsvToRgb",
      "outputs": [
        {
          "internalType": "bytes1",
          "name": "",
          "type": "bytes1"
        },
        {
          "internalType": "bytes1",
          "name": "",
          "type": "bytes1"
        },
        {
          "internalType": "bytes1",
          "name": "",
          "type": "bytes1"
        }
      ],
      "stateMutability": "pure",
      "type": "function",
      "constant": true
    },
    {
      "inputs": [
        {
          "internalType": "bytes20",
          "name": "s0",
          "type": "bytes20"
        },
        {
          "internalType": "bytes20",
          "name": "s1",
          "type": "bytes20"
        },
        {
          "internalType": "bytes20",
          "name": "s2",
          "type": "bytes20"
        },
        {
          "internalType": "uint8",
          "name": "colorCount",
          "type": "uint8"
        },
        {
          "internalType": "uint256",
          "name": "offset",
          "type": "uint256"
        }
      ],
      "name": "reduceColors",
      "outputs": [
        {
          "internalType": "bytes",
          "name": "",
          "type": "bytes"
        }
      ],
      "stateMutability": "pure",
      "type": "function",
      "constant": true
    },
    {
      "inputs": [
        {
          "internalType": "uint8",
          "name": "gridSize",
          "type": "uint8"
        },
        {
          "internalType": "bytes",
          "name": "c3",
          "type": "bytes"
        }
      ],
      "name": "makePixels",
      "outputs": [
        {
          "internalType": "uint8[]",
          "name": "",
          "type": "uint8[]"
        }
      ],
      "stateMutability": "pure",
      "type": "function",
      "constant": true
    },
    {
      "inputs": [
        {
          "internalType": "uint256",
          "name": "n",
          "type": "uint256"
        },
        {
          "internalType": "uint8",
          "name": "radix",
          "type": "uint8"
        }
      ],
      "name": "utoa",
      "outputs": [
        {
          "internalType": "string",
          "name": "",
          "type": "string"
        }
      ],
      "stateMutability": "pure",
      "type": "function",
      "constant": true
    },
    {
      "inputs": [
        {
          "internalType": "uint256",
          "name": "n",
          "type": "uint256"
        }
      ],
      "name": "utoa",
      "outputs": [
        {
          "internalType": "string",
          "name": "",
          "type": "string"
        }
      ],
      "stateMutability": "pure",
      "type": "function",
      "constant": true
    },
    {
      "inputs": [
        {
          "internalType": "uint8",
          "name": "u",
          "type": "uint8"
        }
      ],
      "name": "_utoa",
      "outputs": [
        {
          "internalType": "bytes1",
          "name": "",
          "type": "bytes1"
        }
      ],
      "stateMutability": "pure",
      "type": "function",
      "constant": true
    }
  ],
  "bytecode": "0x611783610026600b82828239805160001a60731461001957fe5b30600052607381538281f3fe730000000000000000000000000000000000000000301460806040526004361061012b5760003560e01c80636e22945f116100b7578063bc6881a11161007b578063bc6881a114610963578063c8d9d644146109bb578063dee392f314610a11578063eaa041fe14610a5d578063ed87ec5e14610aa95761012b565b80636e22945f1461058f5780638b0798cd146105fe5780638d0a9bd4146106605780639f7311e014610791578063a207e8f4146108905761012b565b80631e1a5fb8116100fe5780631e1a5fb81461027a57806329f1b5a414610397578063385fe6781461044b57806347e2c71c146104f257806352fec20d146105435761012b565b8063058afb761461013057806306e952f3146101865780631132fae4146101b35780631bed1fe91461021a575b600080fd5b6101706004803603606081101561014657600080fd5b81019080803590602001909291908035906020019092919080359060200190929190505050610b13565b6040518082815260200191505060405180910390f35b61018e610b3b565b60405180826bffffffffffffffffffffffff1916815260200191505060405180910390f35b6101e2600480360360208110156101c957600080fd5b81019080803560ff169060200190929190505050610ba3565b60405180827effffffffffffffffffffffffffffffffffffffffffffffffffffffffffffff1916815260200191505060405180910390f35b6102646004803603608081101561023057600080fd5b8101908080359060200190929190803590602001909291908035906020019092919080359060200190929190505050610c2d565b6040518082815260200191505060405180910390f35b6103406004803603604081101561029057600080fd5b81019080803560ff169060200190929190803590602001906401000000008111156102ba57600080fd5b8201836020820111156102cc57600080fd5b803590602001918460018302840111640100000000831117156102ee57600080fd5b91908080601f016020809104026020016040519081016040528093929190818152602001838380828437600081840152601f19601f820116905080830192505050505050509192919290505050610c86565b6040518080602001828103825283818151815260200191508051906020019060200280838360005b83811015610383578082015181840152602081019050610368565b505050509050019250505060405180910390f35b6103d0600480360360408110156103ad57600080fd5b8101908080359060200190929190803560ff169060200190929190505050610e96565b6040518080602001828103825283818151815260200191508051906020019080838360005b838110156104105780820151818401526020810190506103f5565b50505050905090810190601f16801561043d5780820380516001836020036101000a031916815260200191505b509250505060405180910390f35b6104776004803603602081101561046157600080fd5b810190808035906020019092919050505061108d565b6040518080602001828103825283818151815260200191508051906020019080838360005b838110156104b757808201518184015260208101905061049c565b50505050905090810190601f1680156104e45780820380516001836020036101000a031916815260200191505b509250505060405180910390f35b61052d6004803603602081101561050857600080fd5b8101908080356bffffffffffffffffffffffff191690602001909291905050506110a1565b6040518082815260200191505060405180910390f35b6105796004803603604081101561055957600080fd5b8101908080359060200190929190803590602001909291905050506110e9565b6040518082815260200191505060405180910390f35b6105e5600480360360808110156105a557600080fd5b81019080803560ff169060200190929190803560ff169060200190929190803560ff169060200190929190803560ff169060200190929190505050611102565b604051808260ff16815260200191505060405180910390f35b6106476004803603606081101561061457600080fd5b81019080803560ff169060200190929190803560ff169060200190929190803560ff16906020019092919050505061114b565b604051808260ff16815260200191505060405180910390f35b6107166004803603602081101561067657600080fd5b810190808035906020019064010000000081111561069357600080fd5b8201836020820111156106a557600080fd5b803590602001918460208302840111640100000000831117156106c757600080fd5b919080806020026020016040519081016040528093929190818152602001838360200280828437600081840152601f19601f820116905080830192505050505050509192919290505050611170565b6040518080602001828103825283818151815260200191508051906020019080838360005b8381101561075657808201518184015260208101905061073b565b50505050905090810190601f1680156107835780820380516001836020036101000a031916815260200191505b509250505060405180910390f35b610815600480360360a08110156107a757600080fd5b8101908080356bffffffffffffffffffffffff1916906020019092919080356bffffffffffffffffffffffff1916906020019092919080356bffffffffffffffffffffffff19169060200190929190803560ff169060200190929190803590602001909291905050506112b7565b6040518080602001828103825283818151815260200191508051906020019080838360005b8381101561085557808201518184015260208101905061083a565b50505050905090810190601f1680156108825780820380516001836020036101000a031916815260200191505b509250505060405180910390f35b6108d9600480360360608110156108a657600080fd5b81019080803560ff169060200190929190803560ff169060200190929190803560ff16906020019092919050505061153c565b60405180847effffffffffffffffffffffffffffffffffffffffffffffffffffffffffffff19168152602001837effffffffffffffffffffffffffffffffffffffffffffffffffffffffffffff19168152602001827effffffffffffffffffffffffffffffffffffffffffffffffffffffffffffff19168152602001935050505060405180910390f35b61098f6004803603602081101561097957600080fd5b81019080803590602001909291905050506116ab565b604051808273ffffffffffffffffffffffffffffffffffffffff16815260200191505060405180910390f35b6109fb600480360360608110156109d157600080fd5b810190808035906020019092919080359060200190929190803590602001909291905050506116b9565b6040518082815260200191505060405180910390f35b610a4760048036036040811015610a2757600080fd5b8101908080359060200190929190803590602001909291905050506116d5565b6040518082815260200191505060405180910390f35b610a9360048036036040811015610a7357600080fd5b8101908080359060200190929190803590602001909291905050506116ee565b6040518082815260200191505060405180910390f35b610aee60048036036040811015610abf57600080fd5b8101908080356bffffffffffffffffffffffff1916906020019092919080359060200190929190505050611705565b60405180826bffffffffffffffffffffffff1916815260200191505060405180910390f35b6000828410610b3057818411610b295783610b2b565b815b610b32565b825b90509392505050565b600080610b47436116ab565b9050600073ffffffffffffffffffffffffffffffffffffffff168173ffffffffffffffffffffffffffffffffffffffff16148015610b855750600043115b15610b9957610b96600143036116ab565b90505b8060601b91505090565b6000600a8260ff161015610be1577f300000000000000000000000000000000000000000000000000000000000000060f81c820160f81b9050610c28565b60108260ff161015610c20577f610000000000000000000000000000000000000000000000000000000000000060f81c600a83030160f81b9050610c28565b600060f81b90505b919050565b60008082131580610c3f575060018313155b80610c4957508385145b15610c5657849050610c7e565b600183038212610c6857839050610c7e565b816001840386860381610c7757fe5b0502850190505b949350505050565b606060008060038586020260ff1667ffffffffffffffff81118015610caa57600080fd5b50604051908082528060200260200182016040528015610cd95781602001602082028036833780820191505090505b50905060005b8560ff168160ff161015610e8a5760005b8660ff168160ff161015610e7c57610d50866000600384020160ff1681518110610d1657fe5b602001015160f81c60f81b60f81c87600060038b8601020160ff1681518110610d3b57fe5b602001015160f81c60f81b60f81c8985611102565b838580600101965060ff1681518110610d6557fe5b602002602001019060ff16908160ff1681525050610dcb866001600384020160ff1681518110610d9157fe5b602001015160f81c60f81b60f81c87600160038b8601020160ff1681518110610db657fe5b602001015160f81c60f81b60f81c8985611102565b838580600101965060ff1681518110610de057fe5b602002602001019060ff16908160ff1681525050610e46866002600384020160ff1681518110610e0c57fe5b602001015160f81c60f81b60f81c87600260038b8601020160ff1681518110610e3157fe5b602001015160f81c60f81b60f81c8985611102565b838580600101965060ff1681518110610e5b57fe5b602002602001019060ff16908160ff16815250508080600101915050610cf0565b508080600101915050610cdf565b50809250505092915050565b60606000831480610eaa575060028260ff16105b80610eb8575060108260ff16115b15610efa576040518060400160405280600181526020017f30000000000000000000000000000000000000000000000000000000000000008152509050611087565b600061010067ffffffffffffffff81118015610f1557600080fd5b506040519080825280601f01601f191660200182016040528015610f485781602001600182028036833780820191505090505b50905060005b6000851115610fc157610f6c8460ff168681610f6657fe5b06610ba3565b828280600101935081518110610f7e57fe5b60200101907effffffffffffffffffffffffffffffffffffffffffffffffffffffffffffff1916908160001a9053508360ff168581610fb957fe5b049450610f4e565b60008167ffffffffffffffff81118015610fda57600080fd5b506040519080825280601f01601f19166020018201604052801561100d5781602001600182028036833780820191505090505b50905060005b8281101561107f57836001828503038151811061102c57fe5b602001015160f81c60f81b82828151811061104357fe5b60200101907effffffffffffffffffffffffffffffffffffffffffffffffffffffffffffff1916908160001a9053508080600101915050611013565b508093505050505b92915050565b606061109a82600a610e96565b9050919050565b6000806000905060005b60148160ff1610156110df57838160ff16601481106110c657fe5b1a60f81b60f81c60ff16820191508060010190506110ab565b5080915050919050565b60008183106110f857816110fa565b825b905092915050565b60008061111d8660ff168660ff168660ff168660ff16610c2d565b90506000811261113d5760ff81136111355780611138565b60ff5b611140565b60005b915050949350505050565b600060ff83830360ff168560ff16028161116157fe5b058360ff160190509392505050565b60606000600283510267ffffffffffffffff8111801561118f57600080fd5b506040519080825280601f01601f1916602001820160405280156111c25781602001600182028036833780820191505090505b50905060005b83518160ff1610156112ad5760005b60028160ff16101561129f576000808260ff161461120e57600f868460ff168151811061120057fe5b60200260200101511661122d565b6004868460ff168151811061121f57fe5b602002602001015160ff16901c5b905060098160ff1611611246578060300160f81b61124e565b8060370160f81b5b8483600286020160ff168151811061126257fe5b60200101907effffffffffffffffffffffffffffffffffffffffffffffffffffffffffffff1916908160001a9053505080806001019150506111d7565b5080806001019150506111c8565b5080915050919050565b606060006003840260ff1667ffffffffffffffff811180156112d857600080fd5b506040519080825280601f01601f19166020018201604052801561130b5781602001600182028036833780820191505090505b5090506000611319876110a1565b611322896110a1565b0190506000611330876110a1565b9050600061134388600888028401611705565b905060005b8760ff168160ff16101561152b576000828260ff166014811061136757fe5b1a60f81b60f81c905060006113bf6101006003880286600a870160ff166014811061138e57fe5b1a60f81b60f81c60ff1601816113a057fe5b06601e60028d60ff16816113b057fe5b046005030260400160ff61114b565b9050600061140f6101008887600a880160ff16601481106113dc57fe5b1a60f81b60f81c60ff1601816113ee57fe5b068417601e60028e60ff168161140057fe5b0460050302607f0160ff61114b565b90506101006114408460ff16886114366101008c8c018161142c57fe5b06606460f061114b565b60ff168a016116b9565b8161144757fe5b06925061145583838361153c565b8a6000600389020160ff168151811061146a57fe5b602001018b600160038a020160ff168151811061148357fe5b602001018c600260038b020160ff168151811061149c57fe5b60200101837effffffffffffffffffffffffffffffffffffffffffffffffffffffffffffff191660001a9053837effffffffffffffffffffffffffffffffffffffffffffffffffffffffffffff191660001a9053837effffffffffffffffffffffffffffffffffffffffffffffffffffffffffffff191660001a90535050505050508080600101915050611348565b508394505050505095945050505050565b6000806000808560ff161415611563578360f81b8460f81b8560f81b9250925092506116a2565b6000602b8760ff168161157257fe5b0460ff16905060006006602b83028960ff1603029050600060088860ff03880260ff16901c60ff1690506000600880848b60ff1602901d60ff038960ff1602901d905060006008808560ff038c60ff1602901d60ff038a60ff1602901d905060008514156115f6578860f81b8160f81b8460f81b97509750975050505050506116a2565b600185141561161b578160f81b8960f81b8460f81b97509750975050505050506116a2565b6002851415611640578260f81b8960f81b8260f81b97509750975050505050506116a2565b6003851415611665578260f81b8260f81b8a60f81b97509750975050505050506116a2565b600485141561168a578060f81b8360f81b8a60f81b97509750975050505050506116a2565b8860f81b8360f81b8360f81b97509750975050505050505b93509350939050565b6000814060601c9050919050565b600060ff8383038502816116c957fe5b04830190509392505050565b60008183116116e457816116e6565b825b905092915050565b60006064828402816116fc57fe5b04905092915050565b600060a0828161171157fe5b0660a003836bffffffffffffffffffffffff1916901c60a0838161173157fe5b06846bffffffffffffffffffffffff1916901b1790509291505056fea2646970667358221220fb734dd14e56fdc65fc9302d90692fed7ca642c4e927366d0213239dbcce875b64736f6c63430007060033",
  "immutableReferences": {},
  "source": "//\n// CollectCode v1.0\n// CHROMA Collection, 2021\n// https://collect-code.com/\n// https://twitter.com/CollectCoder\n//\n\n// SPDX-License-Identifier: MIT\n// Same version as openzeppelin 3.4\npragma solidity >=0.6.0 <0.8.0;\n\nlibrary Utils\n{\n    //---------------------------\n    // Convert\n    //\n\n    function convertBlockHashToAddress(uint256 blockNumber) public view returns (address)\n    {\n        // https://docs.soliditylang.org/en/v0.7.6/types.html#address\n        return address(uint160(bytes20(blockhash(blockNumber))));\n    }\n\n    function getBlockSeed() public view returns (bytes20)\n    {\n        address s = convertBlockHashToAddress(block.number);\n        if( s == address(0) && block.number > 0 )\n            s = convertBlockHashToAddress(block.number-1);\n        return bytes20(s);\n    }\n\n    function convertToHexString(uint8[] memory values) public pure returns (string memory)\n    {\n        bytes memory result = new bytes(values.length*2);\n        for(uint8 i = 0; i < values.length; i++)\n        {\n            for(uint8 j = 0 ; j < 2; j++)\n            {\n                uint8 v = ( j == 0 ? (values[i]>>4) : (values[i] & 0x0f) );\n                result[i*2+j] = v > 9 ? byte(55+v) : byte(48+v);\n            }\n        }\n        return string(result);\n    }\n\n    //---------------------------\n    // Math\n    //\n\n    function clamp_uint256(uint256 value, uint256 min, uint256 max) public pure returns (uint256)\n    {\n        return value < min ? min : value > max ? max : value;\n    }\n\n    function min_uint256(uint256 a, uint256 b) public pure returns (uint256) {\n        return a < b ? a : b;\n    }\n\n    function max_uint256(uint256 a, uint256 b) public pure returns (uint256) {\n        return a > b ? a : b;\n    }\n\n    function percent_uint256(uint256 value, uint256 percentage) public pure returns (uint256)\n    {\n        return value * percentage / 100;\n    }\n\n    //---------------------------\n    // Pixels\n    //\n    function step_int(int min, int max, int stepCount, int stepIndex) public pure returns (int)\n    {\n        if( stepIndex <= 0 || stepCount <= 1 || min == max )\n            return min;\n        if( stepIndex >= stepCount - 1 )\n            return max;\n        return min + (((max - min) / (stepCount - 1)) * stepIndex);\n    }\n    function step_uint8(uint8 min, uint8 max, uint8 stepCount, uint8 stepIndex) public pure returns (uint8)\n    {\n        int result = step_int( min, max, stepCount, stepIndex );\n        return result < 0 ? 0 : result > 255 ? 255 : uint8(result);\n    }\n\n    function map_uint256(uint256 value, uint256 min, uint256 max) public pure returns (uint256)\n    {\n        return min + ((value * (max - min)) / 255);\n    }\n\n    function map_uint8(uint8 value, uint8 min, uint8 max) public pure returns (uint8)\n    {\n        return uint8(int(min) + ((int(value) * int(max - min)) / 255));\n    }\n\n    // function rshift_bytes20(bytes20 buffer, uint256 bits) public pure returns (bytes20)\n    // {\n    //     return (buffer >> (bits%160)) | (buffer << (160-(bits%160)));\n    // }\n\n    function lshift_bytes20(bytes20 buffer, uint256 bits) public pure returns (bytes20)\n    {\n        return (buffer << (bits%160)) | (buffer >> (160-(bits%160)));\n    }\n\n    function sum_bytes20(bytes20 buffer) public pure returns (uint256)\n    {\n        uint256 sum = 0;\n        for(uint8 i = 0 ; i < 20 ; ++i) {\n            sum += uint8(buffer[i]);\n        }\n        return sum;\n    }\n\n    // HSV Conversion from\n    // https://stackoverflow.com/a/14733008/360930\n    function hsvToRgb(uint8 h, uint8 s, uint8 v) public pure returns (byte, byte, byte)\n    {\n        if (s == 0) {\n            return (byte(v), byte(v), byte(v));\n        }\n        int region = h / 43;\n        int remainder = (h - (region * 43)) * 6; \n        int p = (v * (255 - s)) >> 8;\n        int q = (v * (255 - ((s * remainder) >> 8))) >> 8;\n        int t = (v * (255 - ((s * (255 - remainder)) >> 8))) >> 8;\n        if(region == 0) {\n            return(byte(v), byte(uint8(t)), byte(uint8(p)));\n        } else if (region == 1) {\n            return(byte(uint8(q)), byte(v), byte(uint8(p)));\n        } else if (region == 2) {\n            return(byte(uint8(p)), byte(v), byte(uint8(t)));\n        } else if (region == 3) {\n            return(byte(uint8(p)), byte(uint8(q)), byte(v));\n        } else if (region == 4) {\n            return(byte(uint8(t)), byte(uint8(p)), byte(v));\n        }\n        return(byte(v), byte(uint8(p)), byte(uint8(q)));\n    }\n\n    function reduceColors(bytes20 s0, bytes20 s1, bytes20 s2, uint8 colorCount, uint256 offset) public pure returns (bytes memory)\n    {\n        bytes memory c3 = new bytes(colorCount*3);\n        uint256 sum0 = sum_bytes20(s0) + sum_bytes20(s1);\n        uint256 sum2 = sum_bytes20(s2);\n        bytes20 hues = lshift_bytes20(s2, sum2 + (offset*8));\n        for(uint8 c = 0 ; c < colorCount ; c++) {\n            uint8 h = uint8(hues[c]);\n            uint8 s = map_uint8(uint8((uint256(uint8(hues[c+10])) + sum0*3) % 256), (64+(5-(colorCount/2))*30), 255);\n            uint8 v = map_uint8(h|uint8((uint256(uint8(hues[c+10])) + sum0) % 256), (127+(5-(colorCount/2))*30), 255);\n            h = uint8(map_uint256(h, sum2, sum2+map_uint8(uint8((sum2+sum0)%256),100,240))%256);\n            // h = uint8(map_uint256(h, lh, lh+192)%256);\n            (c3[c*3+0], c3[c*3+1], c3[c*3+2]) = hsvToRgb(h,s,v);\n        }\n        return (c3);\n    }\n\n    function makePixels(uint8 gridSize, bytes memory c3) public pure returns (uint8[] memory)\n    {\n        uint8 i = 0;\n        uint8[] memory pixels = new uint8[](gridSize*gridSize*3);\n        for(uint8 y = 0 ; y < gridSize ; y++) {\n            for(uint8 x = 0 ; x < gridSize ; x++) {\n                pixels[i++] = step_uint8( uint8(c3[x*3+0]), uint8(c3[(x+gridSize)*3+0]), gridSize, y );\n                pixels[i++] = step_uint8( uint8(c3[x*3+1]), uint8(c3[(x+gridSize)*3+1]), gridSize, y );\n                pixels[i++] = step_uint8( uint8(c3[x*3+2]), uint8(c3[(x+gridSize)*3+2]), gridSize, y );\n            }\n        }\n        return pixels;\n    }\n\n    //\n    // From truffle/Assert.sol\n    // MIT Licence\n    //\n    uint8 constant ZERO = uint8(bytes1('0'));\n    uint8 constant A = uint8(bytes1('a'));\n    bytes1 constant MINUS = bytes1('-');\n    function utoa(uint n) public pure returns (string memory)\n    {\n        return utoa(n, 10);\n    }\n    function utoa(uint n, uint8 radix) public pure returns (string memory) {\n        if (n == 0 || radix < 2 || radix > 16)\n            return '0';\n        bytes memory bts = new bytes(256);\n        uint i;\n        while (n > 0) {\n            bts[i++] = _utoa(uint8(uint(n % radix))); // Turn it to ascii.\n            n /= radix;\n        }\n        // Reverse\n        bytes memory rev = new bytes(i);\n        for (uint j = 0; j < i; j++)\n            rev[j] = bts[i - j - 1];\n        return string(rev);\n    }\n    function _utoa(uint8 u) public pure returns (bytes1) {\n        if (u < 10)\n            return bytes1(u + ZERO);\n        else if (u < 16)\n            return bytes1(u - 10 + A);\n        else\n            return 0;\n    }\n}\n",
  "sourcePath": "/Users/roger/Dev/Blockchain/Truffle/cc-chroma/contracts/Utils.sol",
  "compiler": {
    "name": "solc",
    "version": "0.7.6+commit.7338295f.Emscripten.clang"
  },
  "schemaVersion": "3.4.10",
  "updatedAt": "2022-10-27T03:28:37.997Z",
  "networkType": "ethereum",
  "devdoc": {
    "kind": "dev",
    "methods": {},
    "version": 1
  },
  "userdoc": {
    "kind": "user",
    "methods": {},
    "version": 1
  }
}