{
	"contracts/EuclidFormula.sol": {
		"EuclidFormula": {
			"abi": [
				{
					"inputs": [
						{
							"internalType": "address",
							"name": "randomizer_",
							"type": "address"
						}
					],
					"stateMutability": "nonpayable",
					"type": "constructor"
				},
				{
					"inputs": [
						{
							"internalType": "uint128",
							"name": "hash",
							"type": "uint128"
						},
						{
							"internalType": "uint256",
							"name": "tokenId",
							"type": "uint256"
						}
					],
					"name": "generateFormula",
					"outputs": [
						{
							"internalType": "string",
							"name": "",
							"type": "string"
						}
					],
					"stateMutability": "view",
					"type": "function"
				},
				{
					"inputs": [
						{
							"internalType": "uint256",
							"name": "tokenId",
							"type": "uint256"
						}
					],
					"name": "supplyDataFromTokenId",
					"outputs": [
						{
							"internalType": "uint8[6]",
							"name": "",
							"type": "uint8[6]"
						}
					],
					"stateMutability": "pure",
					"type": "function"
				}
			],
			"devdoc": {
				"kind": "dev",
				"methods": {},
				"version": 1
			},
			"evm": {
				"assembly": "    /* \"contracts/EuclidFormula.sol\":716:6889  contract EuclidFormula is IEuclidFormula {... */\n  mstore(0x40, 0x80)\n    /* \"contracts/EuclidFormula.sol\":820:904  constructor(address randomizer_) {... */\n  callvalue\n  dup1\n  iszero\n  tag_1\n  jumpi\n  0x00\n  dup1\n  revert\ntag_1:\n  pop\n  mload(0x40)\n  sub(codesize, bytecodeSize)\n  dup1\n  bytecodeSize\n  dup4\n  codecopy\n  dup2\n  dup2\n  add\n  0x40\n  mstore\n  dup2\n  add\n  swap1\n  tag_2\n  swap2\n  swap1\n  tag_3\n  jump\t// in\ntag_2:\n    /* \"contracts/EuclidFormula.sol\":888:899  randomizer_ */\n  dup1\n    /* \"contracts/EuclidFormula.sol\":857:867  randomizer */\n  0x00\n  dup1\n    /* \"contracts/EuclidFormula.sol\":857:900  randomizer = IEuclidRandomizer(randomizer_) */\n  0x0100\n  exp\n  dup2\n  sload\n  dup2\n  0xffffffffffffffffffffffffffffffffffffffff\n  mul\n  not\n  and\n  swap1\n  dup4\n  0xffffffffffffffffffffffffffffffffffffffff\n  and\n  mul\n  or\n  swap1\n  sstore\n  pop\n    /* \"contracts/EuclidFormula.sol\":820:904  constructor(address randomizer_) {... */\n  pop\n    /* \"contracts/EuclidFormula.sol\":716:6889  contract EuclidFormula is IEuclidFormula {... */\n  jump(tag_6)\n    /* \"#utility.yul\":88:205   */\ntag_8:\n    /* \"#utility.yul\":197:198   */\n  0x00\n    /* \"#utility.yul\":194:195   */\n  dup1\n    /* \"#utility.yul\":187:199   */\n  revert\n    /* \"#utility.yul\":334:460   */\ntag_10:\n    /* \"#utility.yul\":371:378   */\n  0x00\n    /* \"#utility.yul\":411:453   */\n  0xffffffffffffffffffffffffffffffffffffffff\n    /* \"#utility.yul\":404:409   */\n  dup3\n    /* \"#utility.yul\":400:454   */\n  and\n    /* \"#utility.yul\":389:454   */\n  swap1\n  pop\n    /* \"#utility.yul\":334:460   */\n  swap2\n  swap1\n  pop\n  jump\t// out\n    /* \"#utility.yul\":466:562   */\ntag_11:\n    /* \"#utility.yul\":503:510   */\n  0x00\n    /* \"#utility.yul\":532:556   */\n  tag_20\n    /* \"#utility.yul\":550:555   */\n  dup3\n    /* \"#utility.yul\":532:556   */\n  tag_10\n  jump\t// in\ntag_20:\n    /* \"#utility.yul\":521:556   */\n  swap1\n  pop\n    /* \"#utility.yul\":466:562   */\n  swap2\n  swap1\n  pop\n  jump\t// out\n    /* \"#utility.yul\":568:690   */\ntag_12:\n    /* \"#utility.yul\":641:665   */\n  tag_22\n    /* \"#utility.yul\":659:664   */\n  dup2\n    /* \"#utility.yul\":641:665   */\n  tag_11\n  jump\t// in\ntag_22:\n    /* \"#utility.yul\":634:639   */\n  dup2\n    /* \"#utility.yul\":631:666   */\n  eq\n    /* \"#utility.yul\":621:684   */\n  tag_23\n  jumpi\n    /* \"#utility.yul\":680:681   */\n  0x00\n    /* \"#utility.yul\":677:678   */\n  dup1\n    /* \"#utility.yul\":670:682   */\n  revert\n    /* \"#utility.yul\":621:684   */\ntag_23:\n    /* \"#utility.yul\":568:690   */\n  pop\n  jump\t// out\n    /* \"#utility.yul\":696:839   */\ntag_13:\n    /* \"#utility.yul\":753:758   */\n  0x00\n    /* \"#utility.yul\":784:790   */\n  dup2\n    /* \"#utility.yul\":778:791   */\n  mload\n    /* \"#utility.yul\":769:791   */\n  swap1\n  pop\n    /* \"#utility.yul\":800:833   */\n  tag_25\n    /* \"#utility.yul\":827:832   */\n  dup2\n    /* \"#utility.yul\":800:833   */\n  tag_12\n  jump\t// in\ntag_25:\n    /* \"#utility.yul\":696:839   */\n  swap3\n  swap2\n  pop\n  pop\n  jump\t// out\n    /* \"#utility.yul\":845:1196   */\ntag_3:\n    /* \"#utility.yul\":915:921   */\n  0x00\n    /* \"#utility.yul\":964:966   */\n  0x20\n    /* \"#utility.yul\":952:961   */\n  dup3\n    /* \"#utility.yul\":943:950   */\n  dup5\n    /* \"#utility.yul\":939:962   */\n  sub\n    /* \"#utility.yul\":935:967   */\n  slt\n    /* \"#utility.yul\":932:1051   */\n  iszero\n  tag_27\n  jumpi\n    /* \"#utility.yul\":970:1049   */\n  tag_28\n  tag_8\n  jump\t// in\ntag_28:\n    /* \"#utility.yul\":932:1051   */\ntag_27:\n    /* \"#utility.yul\":1090:1091   */\n  0x00\n    /* \"#utility.yul\":1115:1179   */\n  tag_29\n    /* \"#utility.yul\":1171:1178   */\n  dup5\n    /* \"#utility.yul\":1162:1168   */\n  dup3\n    /* \"#utility.yul\":1151:1160   */\n  dup6\n    /* \"#utility.yul\":1147:1169   */\n  add\n    /* \"#utility.yul\":1115:1179   */\n  tag_13\n  jump\t// in\ntag_29:\n    /* \"#utility.yul\":1105:1179   */\n  swap2\n  pop\n    /* \"#utility.yul\":1061:1189   */\n  pop\n    /* \"#utility.yul\":845:1196   */\n  swap3\n  swap2\n  pop\n  pop\n  jump\t// out\n    /* \"contracts/EuclidFormula.sol\":716:6889  contract EuclidFormula is IEuclidFormula {... */\ntag_6:\n  dataSize(sub_0)\n  dup1\n  dataOffset(sub_0)\n  0x00\n  codecopy\n  0x00\n  return\nstop\n\nsub_0: assembly {\n        /* \"contracts/EuclidFormula.sol\":716:6889  contract EuclidFormula is IEuclidFormula {... */\n      mstore(0x40, 0x80)\n      callvalue\n      dup1\n      iszero\n      tag_1\n      jumpi\n      0x00\n      dup1\n      revert\n    tag_1:\n      pop\n      jumpi(tag_2, lt(calldatasize, 0x04))\n      shr(0xe0, calldataload(0x00))\n      dup1\n      0x9e36c585\n      eq\n      tag_3\n      jumpi\n      dup1\n      0xa654ca61\n      eq\n      tag_4\n      jumpi\n    tag_2:\n      0x00\n      dup1\n      revert\n        /* \"contracts/EuclidFormula.sol\":907:5767  function generateFormula(uint128 hash, uint256 tokenId) public view override returns (string memory) {... */\n    tag_3:\n      tag_5\n      0x04\n      dup1\n      calldatasize\n      sub\n      dup2\n      add\n      swap1\n      tag_6\n      swap2\n      swap1\n      tag_7\n      jump\t// in\n    tag_6:\n      tag_8\n      jump\t// in\n    tag_5:\n      mload(0x40)\n      tag_9\n      swap2\n      swap1\n      tag_10\n      jump\t// in\n    tag_9:\n      mload(0x40)\n      dup1\n      swap2\n      sub\n      swap1\n      return\n        /* \"contracts/EuclidFormula.sol\":5771:6223  function supplyDataFromTokenId(uint256 tokenId) public pure returns (uint8[6] memory) {... */\n    tag_4:\n      tag_11\n      0x04\n      dup1\n      calldatasize\n      sub\n      dup2\n      add\n      swap1\n      tag_12\n      swap2\n      swap1\n      tag_13\n      jump\t// in\n    tag_12:\n      tag_14\n      jump\t// in\n    tag_11:\n      mload(0x40)\n      tag_15\n      swap2\n      swap1\n      tag_16\n      jump\t// in\n    tag_15:\n      mload(0x40)\n      dup1\n      swap2\n      sub\n      swap1\n      return\n        /* \"contracts/EuclidFormula.sol\":907:5767  function generateFormula(uint128 hash, uint256 tokenId) public view override returns (string memory) {... */\n    tag_8:\n        /* \"contracts/EuclidFormula.sol\":993:1006  string memory */\n      0x60\n        /* \"contracts/EuclidFormula.sol\":1012:1056  IEuclidRandomizer.RandomizerState memory rnd */\n      0x00\n        /* \"contracts/EuclidFormula.sol\":1059:1069  randomizer */\n      dup1\n      0x00\n      swap1\n      sload\n      swap1\n      0x0100\n      exp\n      swap1\n      div\n      0xffffffffffffffffffffffffffffffffffffffff\n      and\n        /* \"contracts/EuclidFormula.sol\":1059:1080  randomizer.initialize */\n      0xffffffffffffffffffffffffffffffffffffffff\n      and\n      0x56db9ef1\n        /* \"contracts/EuclidFormula.sol\":1081:1085  hash */\n      dup6\n        /* \"contracts/EuclidFormula.sol\":1059:1086  randomizer.initialize(hash) */\n      mload(0x40)\n      dup3\n      0xffffffff\n      and\n      0xe0\n      shl\n      dup2\n      mstore\n      0x04\n      add\n      tag_18\n      swap2\n      swap1\n      tag_19\n      jump\t// in\n    tag_18:\n      0xa0\n      mload(0x40)\n      dup1\n      dup4\n      sub\n      dup2\n      dup7\n      gas\n      staticcall\n      iszero\n      dup1\n      iszero\n      tag_21\n      jumpi\n      returndatasize\n      0x00\n      dup1\n      returndatacopy\n      revert(0x00, returndatasize)\n    tag_21:\n      pop\n      pop\n      pop\n      pop\n      mload(0x40)\n      returndatasize\n      not(0x1f)\n      0x1f\n      dup3\n      add\n      and\n      dup3\n      add\n      dup1\n      0x40\n      mstore\n      pop\n      dup2\n      add\n      swap1\n      tag_22\n      swap2\n      swap1\n      tag_23\n      jump\t// in\n    tag_22:\n        /* \"contracts/EuclidFormula.sol\":1012:1086  IEuclidRandomizer.RandomizerState memory rnd = randomizer.initialize(hash) */\n      swap1\n      pop\n        /* \"contracts/EuclidFormula.sol\":1090:1116  uint8[6] memory supplyData */\n      0x00\n        /* \"contracts/EuclidFormula.sol\":1119:1149  supplyDataFromTokenId(tokenId) */\n      tag_24\n        /* \"contracts/EuclidFormula.sol\":1141:1148  tokenId */\n      dup5\n        /* \"contracts/EuclidFormula.sol\":1119:1140  supplyDataFromTokenId */\n      tag_14\n        /* \"contracts/EuclidFormula.sol\":1119:1149  supplyDataFromTokenId(tokenId) */\n      jump\t// in\n    tag_24:\n        /* \"contracts/EuclidFormula.sol\":1090:1149  uint8[6] memory supplyData = supplyDataFromTokenId(tokenId) */\n      swap1\n      pop\n        /* \"contracts/EuclidFormula.sol\":1153:1173  bytes memory formula */\n      0x60\n        /* \"contracts/EuclidFormula.sol\":1196:1206  randomizer */\n      0x00\n      dup1\n      sload\n      swap1\n      0x0100\n      exp\n      swap1\n      div\n      0xffffffffffffffffffffffffffffffffffffffff\n      and\n        /* \"contracts/EuclidFormula.sol\":1196:1213  randomizer.getInt */\n      0xffffffffffffffffffffffffffffffffffffffff\n      and\n      0x591e5735\n        /* \"contracts/EuclidFormula.sol\":1214:1217  rnd */\n      dup5\n        /* \"contracts/EuclidFormula.sol\":1219:1229  supplyData */\n      dup5\n        /* \"contracts/EuclidFormula.sol\":1230:1231  0 */\n      0x00\n        /* \"contracts/EuclidFormula.sol\":1219:1232  supplyData[0] */\n      0x06\n      dup2\n      lt\n      tag_25\n      jumpi\n      tag_26\n      tag_27\n      jump\t// in\n    tag_26:\n    tag_25:\n      0x20\n      mul\n      add\n      mload\n        /* \"contracts/EuclidFormula.sol\":1196:1233  randomizer.getInt(rnd, supplyData[0]) */\n      mload(0x40)\n      dup4\n      0xffffffff\n      and\n      0xe0\n      shl\n      dup2\n      mstore\n      0x04\n      add\n      tag_28\n      swap3\n      swap2\n      swap1\n      tag_29\n      jump\t// in\n    tag_28:\n      0xa0\n      mload(0x40)\n      dup1\n      dup4\n      sub\n      dup2\n      dup7\n      gas\n      staticcall\n      iszero\n      dup1\n      iszero\n      tag_31\n      jumpi\n      returndatasize\n      0x00\n      dup1\n      returndatacopy\n      revert(0x00, returndatasize)\n    tag_31:\n      pop\n      pop\n      pop\n      pop\n      mload(0x40)\n      returndatasize\n      not(0x1f)\n      0x1f\n      dup3\n      add\n      and\n      dup3\n      add\n      dup1\n      0x40\n      mstore\n      pop\n      dup2\n      add\n      swap1\n      tag_32\n      swap2\n      swap1\n      tag_23\n      jump\t// in\n    tag_32:\n        /* \"contracts/EuclidFormula.sol\":1190:1233  rnd = randomizer.getInt(rnd, supplyData[0]) */\n      swap3\n      pop\n        /* \"contracts/EuclidFormula.sol\":1237:1246  uint32 pa */\n      0x00\n        /* \"contracts/EuclidFormula.sol\":1249:1252  rnd */\n      dup4\n        /* \"contracts/EuclidFormula.sol\":1249:1258  rnd.value */\n      0x20\n      add\n      mload\n        /* \"contracts/EuclidFormula.sol\":1237:1258  uint32 pa = rnd.value */\n      swap1\n      pop\n        /* \"contracts/EuclidFormula.sol\":1289:1296  formula */\n      dup2\n        /* \"contracts/EuclidFormula.sol\":1304:1317  pa.toString() */\n      tag_33\n        /* \"contracts/EuclidFormula.sol\":1304:1306  pa */\n      dup3\n        /* \"contracts/EuclidFormula.sol\":1304:1315  pa.toString */\n      0xffffffff\n      and\n      tag_34\n        /* \"contracts/EuclidFormula.sol\":1304:1317  pa.toString() */\n      jump\t// in\n    tag_33:\n        /* \"contracts/EuclidFormula.sol\":1272:1318  abi.encodePacked(formula, 'pa', pa.toString()) */\n      add(0x20, mload(0x40))\n      tag_35\n      swap3\n      swap2\n      swap1\n      tag_36\n      jump\t// in\n    tag_35:\n      mload(0x40)\n      0x20\n      dup2\n      dup4\n      sub\n      sub\n      dup2\n      mstore\n      swap1\n      0x40\n      mstore\n        /* \"contracts/EuclidFormula.sol\":1262:1318  formula = abi.encodePacked(formula, 'pa', pa.toString()) */\n      swap2\n      pop\n        /* \"contracts/EuclidFormula.sol\":1345:1355  randomizer */\n      0x00\n      dup1\n      sload\n      swap1\n      0x0100\n      exp\n      swap1\n      div\n      0xffffffffffffffffffffffffffffffffffffffff\n      and\n        /* \"contracts/EuclidFormula.sol\":1345:1367  randomizer.getIntRange */\n      0xffffffffffffffffffffffffffffffffffffffff\n      and\n      0x290f1050\n        /* \"contracts/EuclidFormula.sol\":1368:1371  rnd */\n      dup6\n        /* \"contracts/EuclidFormula.sol\":1373:1383  supplyData */\n      dup6\n        /* \"contracts/EuclidFormula.sol\":1384:1385  2 */\n      0x02\n        /* \"contracts/EuclidFormula.sol\":1373:1386  supplyData[2] */\n      0x06\n      dup2\n      lt\n      tag_37\n      jumpi\n      tag_38\n      tag_27\n      jump\t// in\n    tag_38:\n    tag_37:\n      0x20\n      mul\n      add\n      mload\n        /* \"contracts/EuclidFormula.sol\":1402:1403  1 */\n      0x01\n        /* \"contracts/EuclidFormula.sol\":1388:1398  supplyData */\n      dup8\n        /* \"contracts/EuclidFormula.sol\":1399:1400  3 */\n      0x03\n        /* \"contracts/EuclidFormula.sol\":1388:1401  supplyData[3] */\n      0x06\n      dup2\n      lt\n      tag_39\n      jumpi\n      tag_40\n      tag_27\n      jump\t// in\n    tag_40:\n    tag_39:\n      0x20\n      mul\n      add\n      mload\n        /* \"contracts/EuclidFormula.sol\":1388:1403  supplyData[3]+1 */\n      tag_41\n      swap2\n      swap1\n      tag_42\n      jump\t// in\n    tag_41:\n        /* \"contracts/EuclidFormula.sol\":1345:1404  randomizer.getIntRange(rnd, supplyData[2], supplyData[3]+1) */\n      mload(0x40)\n      dup5\n      0xffffffff\n      and\n      0xe0\n      shl\n      dup2\n      mstore\n      0x04\n      add\n      tag_43\n      swap4\n      swap3\n      swap2\n      swap1\n      tag_44\n      jump\t// in\n    tag_43:\n      0xa0\n      mload(0x40)\n      dup1\n      dup4\n      sub\n      dup2\n      dup7\n      gas\n      staticcall\n      iszero\n      dup1\n      iszero\n      tag_46\n      jumpi\n      returndatasize\n      0x00\n      dup1\n      returndatacopy\n      revert(0x00, returndatasize)\n    tag_46:\n      pop\n      pop\n      pop\n      pop\n      mload(0x40)\n      returndatasize\n      not(0x1f)\n      0x1f\n      dup3\n      add\n      and\n      dup3\n      add\n      dup1\n      0x40\n      mstore\n      pop\n      dup2\n      add\n      swap1\n      tag_47\n      swap2\n      swap1\n      tag_23\n      jump\t// in\n    tag_47:\n        /* \"contracts/EuclidFormula.sol\":1339:1404  rnd = randomizer.getIntRange(rnd, supplyData[2], supplyData[3]+1) */\n      swap4\n      pop\n        /* \"contracts/EuclidFormula.sol\":1408:1425  uint32 shapeCount */\n      0x00\n        /* \"contracts/EuclidFormula.sol\":1428:1431  rnd */\n      dup5\n        /* \"contracts/EuclidFormula.sol\":1428:1437  rnd.value */\n      0x20\n      add\n      mload\n        /* \"contracts/EuclidFormula.sol\":1408:1437  uint32 shapeCount = rnd.value */\n      swap1\n      pop\n        /* \"contracts/EuclidFormula.sol\":1461:1477  uint32 drawCount */\n      0x00\n        /* \"contracts/EuclidFormula.sol\":1488:1498  shapeCount */\n      dup2\n        /* \"contracts/EuclidFormula.sol\":1484:1485  3 */\n      0x03\n        /* \"contracts/EuclidFormula.sol\":1484:1498  3 * shapeCount */\n      tag_48\n      swap2\n      swap1\n      tag_49\n      jump\t// in\n    tag_48:\n        /* \"contracts/EuclidFormula.sol\":1480:1481  9 */\n      0x09\n        /* \"contracts/EuclidFormula.sol\":1480:1498  9 + 3 * shapeCount */\n      tag_50\n      swap2\n      swap1\n      tag_51\n      jump\t// in\n    tag_50:\n        /* \"contracts/EuclidFormula.sol\":1461:1498  uint32 drawCount = 9 + 3 * shapeCount */\n      swap1\n      pop\n        /* \"contracts/EuclidFormula.sol\":1502:1525  uint32[] memory indices */\n      0x00\n        /* \"contracts/EuclidFormula.sol\":1541:1550  drawCount */\n      dup2\n        /* \"contracts/EuclidFormula.sol\":1528:1551  new uint32[](drawCount) */\n      0xffffffff\n      and\n      0xffffffffffffffff\n      dup2\n      gt\n      iszero\n      tag_52\n      jumpi\n      tag_53\n      tag_54\n      jump\t// in\n    tag_53:\n    tag_52:\n      mload(0x40)\n      swap1\n      dup1\n      dup3\n      mstore\n      dup1\n      0x20\n      mul\n      0x20\n      add\n      dup3\n      add\n      0x40\n      mstore\n      dup1\n      iszero\n      tag_55\n      jumpi\n      dup2\n      0x20\n      add\n      0x20\n      dup3\n      mul\n      dup1\n      calldatasize\n      dup4\n      calldatacopy\n      dup1\n      dup3\n      add\n      swap2\n      pop\n      pop\n      swap1\n      pop\n    tag_55:\n      pop\n        /* \"contracts/EuclidFormula.sol\":1502:1551  uint32[] memory indices = new uint32[](drawCount) */\n      swap1\n      pop\n        /* \"contracts/EuclidFormula.sol\":1555:1575  uint32[] memory draw */\n      0x00\n        /* \"contracts/EuclidFormula.sol\":1591:1601  supplyData */\n      dup7\n        /* \"contracts/EuclidFormula.sol\":1602:1603  5 */\n      0x05\n        /* \"contracts/EuclidFormula.sol\":1591:1604  supplyData[5] */\n      0x06\n      dup2\n      lt\n      tag_56\n      jumpi\n      tag_57\n      tag_27\n      jump\t// in\n    tag_57:\n    tag_56:\n      0x20\n      mul\n      add\n      mload\n        /* \"contracts/EuclidFormula.sol\":1578:1605  new uint32[](supplyData[5]) */\n      0xff\n      and\n      0xffffffffffffffff\n      dup2\n      gt\n      iszero\n      tag_58\n      jumpi\n      tag_59\n      tag_54\n      jump\t// in\n    tag_59:\n    tag_58:\n      mload(0x40)\n      swap1\n      dup1\n      dup3\n      mstore\n      dup1\n      0x20\n      mul\n      0x20\n      add\n      dup3\n      add\n      0x40\n      mstore\n      dup1\n      iszero\n      tag_60\n      jumpi\n      dup2\n      0x20\n      add\n      0x20\n      dup3\n      mul\n      dup1\n      calldatasize\n      dup4\n      calldatacopy\n      dup1\n      dup3\n      add\n      swap2\n      pop\n      pop\n      swap1\n      pop\n    tag_60:\n      pop\n        /* \"contracts/EuclidFormula.sol\":1555:1605  uint32[] memory draw = new uint32[](supplyData[5]) */\n      swap1\n      pop\n        /* \"contracts/EuclidFormula.sol\":1614:1622  uint32 i */\n      0x00\n        /* \"contracts/EuclidFormula.sol\":1609:1668  for (uint32 i = 0; i < indices.length ; i++) indices[i] = i */\n    tag_61:\n        /* \"contracts/EuclidFormula.sol\":1632:1639  indices */\n      dup3\n        /* \"contracts/EuclidFormula.sol\":1632:1646  indices.length */\n      mload\n        /* \"contracts/EuclidFormula.sol\":1628:1629  i */\n      dup2\n        /* \"contracts/EuclidFormula.sol\":1628:1646  i < indices.length */\n      0xffffffff\n      and\n      lt\n        /* \"contracts/EuclidFormula.sol\":1609:1668  for (uint32 i = 0; i < indices.length ; i++) indices[i] = i */\n      iszero\n      tag_62\n      jumpi\n        /* \"contracts/EuclidFormula.sol\":1667:1668  i */\n      dup1\n        /* \"contracts/EuclidFormula.sol\":1654:1661  indices */\n      dup4\n        /* \"contracts/EuclidFormula.sol\":1662:1663  i */\n      dup3\n        /* \"contracts/EuclidFormula.sol\":1654:1664  indices[i] */\n      0xffffffff\n      and\n      dup2\n      mload\n      dup2\n      lt\n      tag_64\n      jumpi\n      tag_65\n      tag_27\n      jump\t// in\n    tag_65:\n    tag_64:\n      0x20\n      mul\n      0x20\n      add\n      add\n        /* \"contracts/EuclidFormula.sol\":1654:1668  indices[i] = i */\n      swap1\n      0xffffffff\n      and\n      swap1\n      dup2\n      0xffffffff\n      and\n      dup2\n      mstore\n      pop\n      pop\n        /* \"contracts/EuclidFormula.sol\":1649:1652  i++ */\n      dup1\n      dup1\n      tag_66\n      swap1\n      tag_67\n      jump\t// in\n    tag_66:\n      swap2\n      pop\n      pop\n        /* \"contracts/EuclidFormula.sol\":1609:1668  for (uint32 i = 0; i < indices.length ; i++) indices[i] = i */\n      jump(tag_61)\n    tag_62:\n      pop\n        /* \"contracts/EuclidFormula.sol\":1677:1685  uint32 i */\n      0x00\n        /* \"contracts/EuclidFormula.sol\":1672:1844  for (uint32 i = 0; i < draw.length ; i++) {... */\n    tag_68:\n        /* \"contracts/EuclidFormula.sol\":1695:1699  draw */\n      dup2\n        /* \"contracts/EuclidFormula.sol\":1695:1706  draw.length */\n      mload\n        /* \"contracts/EuclidFormula.sol\":1691:1692  i */\n      dup2\n        /* \"contracts/EuclidFormula.sol\":1691:1706  i < draw.length */\n      0xffffffff\n      and\n      lt\n        /* \"contracts/EuclidFormula.sol\":1672:1844  for (uint32 i = 0; i < draw.length ; i++) {... */\n      iszero\n      tag_69\n      jumpi\n        /* \"contracts/EuclidFormula.sol\":1725:1735  randomizer */\n      0x00\n      dup1\n      sload\n      swap1\n      0x0100\n      exp\n      swap1\n      div\n      0xffffffffffffffffffffffffffffffffffffffff\n      and\n        /* \"contracts/EuclidFormula.sol\":1725:1747  randomizer.getIntRange */\n      0xffffffffffffffffffffffffffffffffffffffff\n      and\n      0x290f1050\n        /* \"contracts/EuclidFormula.sol\":1748:1751  rnd */\n      dup11\n        /* \"contracts/EuclidFormula.sol\":1753:1754  i */\n      dup4\n        /* \"contracts/EuclidFormula.sol\":1763:1770  indices */\n      dup7\n        /* \"contracts/EuclidFormula.sol\":1763:1777  indices.length */\n      mload\n        /* \"contracts/EuclidFormula.sol\":1725:1779  randomizer.getIntRange(rnd, i, uint32(indices.length)) */\n      mload(0x40)\n      dup5\n      0xffffffff\n      and\n      0xe0\n      shl\n      dup2\n      mstore\n      0x04\n      add\n      tag_71\n      swap4\n      swap3\n      swap2\n      swap1\n      tag_72\n      jump\t// in\n    tag_71:\n      0xa0\n      mload(0x40)\n      dup1\n      dup4\n      sub\n      dup2\n      dup7\n      gas\n      staticcall\n      iszero\n      dup1\n      iszero\n      tag_74\n      jumpi\n      returndatasize\n      0x00\n      dup1\n      returndatacopy\n      revert(0x00, returndatasize)\n    tag_74:\n      pop\n      pop\n      pop\n      pop\n      mload(0x40)\n      returndatasize\n      not(0x1f)\n      0x1f\n      dup3\n      add\n      and\n      dup3\n      add\n      dup1\n      0x40\n      mstore\n      pop\n      dup2\n      add\n      swap1\n      tag_75\n      swap2\n      swap1\n      tag_23\n      jump\t// in\n    tag_75:\n        /* \"contracts/EuclidFormula.sol\":1719:1779  rnd = randomizer.getIntRange(rnd, i, uint32(indices.length)) */\n      swap9\n      pop\n        /* \"contracts/EuclidFormula.sol\":1794:1801  indices */\n      dup3\n        /* \"contracts/EuclidFormula.sol\":1802:1805  rnd */\n      dup10\n        /* \"contracts/EuclidFormula.sol\":1802:1811  rnd.value */\n      0x20\n      add\n      mload\n        /* \"contracts/EuclidFormula.sol\":1794:1812  indices[rnd.value] */\n      0xffffffff\n      and\n      dup2\n      mload\n      dup2\n      lt\n      tag_76\n      jumpi\n      tag_77\n      tag_27\n      jump\t// in\n    tag_77:\n    tag_76:\n      0x20\n      mul\n      0x20\n      add\n      add\n      mload\n        /* \"contracts/EuclidFormula.sol\":1784:1788  draw */\n      dup3\n        /* \"contracts/EuclidFormula.sol\":1789:1790  i */\n      dup3\n        /* \"contracts/EuclidFormula.sol\":1784:1791  draw[i] */\n      0xffffffff\n      and\n      dup2\n      mload\n      dup2\n      lt\n      tag_78\n      jumpi\n      tag_79\n      tag_27\n      jump\t// in\n    tag_79:\n    tag_78:\n      0x20\n      mul\n      0x20\n      add\n      add\n        /* \"contracts/EuclidFormula.sol\":1784:1812  draw[i] = indices[rnd.value] */\n      swap1\n      0xffffffff\n      and\n      swap1\n      dup2\n      0xffffffff\n      and\n      dup2\n      mstore\n      pop\n      pop\n        /* \"contracts/EuclidFormula.sol\":1838:1839  i */\n      dup1\n        /* \"contracts/EuclidFormula.sol\":1817:1824  indices */\n      dup4\n        /* \"contracts/EuclidFormula.sol\":1825:1828  rnd */\n      dup11\n        /* \"contracts/EuclidFormula.sol\":1825:1834  rnd.value */\n      0x20\n      add\n      mload\n        /* \"contracts/EuclidFormula.sol\":1817:1835  indices[rnd.value] */\n      0xffffffff\n      and\n      dup2\n      mload\n      dup2\n      lt\n      tag_80\n      jumpi\n      tag_81\n      tag_27\n      jump\t// in\n    tag_81:\n    tag_80:\n      0x20\n      mul\n      0x20\n      add\n      add\n        /* \"contracts/EuclidFormula.sol\":1817:1839  indices[rnd.value] = i */\n      swap1\n      0xffffffff\n      and\n      swap1\n      dup2\n      0xffffffff\n      and\n      dup2\n      mstore\n      pop\n      pop\n        /* \"contracts/EuclidFormula.sol\":1709:1712  i++ */\n      dup1\n      dup1\n      tag_82\n      swap1\n      tag_67\n      jump\t// in\n    tag_82:\n      swap2\n      pop\n      pop\n        /* \"contracts/EuclidFormula.sol\":1672:1844  for (uint32 i = 0; i < draw.length ; i++) {... */\n      jump(tag_68)\n    tag_69:\n      pop\n        /* \"contracts/EuclidFormula.sol\":1847:1860  uint8 drawing */\n      0x00\n        /* \"contracts/EuclidFormula.sol\":1864:1880  bytes1 propValue */\n      dup1\n        /* \"contracts/EuclidFormula.sol\":1917:2107  drawProp(rnd, drawing++, draw, bytes(pa==0?'01234568A':pa==1?'0123678A':pa==2?'02459':pa==3?'499999':pa==4?'02345A':pa==5?'01345A':pa==6?'0123457A':pa==7?'012367A':pa==8?'045':'012345678A')) */\n      tag_83\n        /* \"contracts/EuclidFormula.sol\":1926:1929  rnd */\n      dup11\n        /* \"contracts/EuclidFormula.sol\":1931:1940  drawing++ */\n      dup4\n      dup1\n      tag_84\n      swap1\n      tag_85\n      jump\t// in\n    tag_84:\n      swap5\n      pop\n        /* \"contracts/EuclidFormula.sol\":1942:1946  draw */\n      dup6\n        /* \"contracts/EuclidFormula.sol\":1958:1959  0 */\n      0x00\n        /* \"contracts/EuclidFormula.sol\":1954:1956  pa */\n      dup12\n        /* \"contracts/EuclidFormula.sol\":1954:1959  pa==0 */\n      0xffffffff\n      and\n      eq\n        /* \"contracts/EuclidFormula.sol\":1954:2105  pa==0?'01234568A':pa==1?'0123678A':pa==2?'02459':pa==3?'499999':pa==4?'02345A':pa==5?'01345A':pa==6?'0123457A':pa==7?'012367A':pa==8?'045':'012345678A' */\n      tag_86\n      jumpi\n        /* \"contracts/EuclidFormula.sol\":1976:1977  1 */\n      0x01\n        /* \"contracts/EuclidFormula.sol\":1972:1974  pa */\n      dup12\n        /* \"contracts/EuclidFormula.sol\":1972:1977  pa==1 */\n      0xffffffff\n      and\n      eq\n        /* \"contracts/EuclidFormula.sol\":1972:2105  pa==1?'0123678A':pa==2?'02459':pa==3?'499999':pa==4?'02345A':pa==5?'01345A':pa==6?'0123457A':pa==7?'012367A':pa==8?'045':'012345678A' */\n      tag_87\n      jumpi\n        /* \"contracts/EuclidFormula.sol\":1993:1994  2 */\n      0x02\n        /* \"contracts/EuclidFormula.sol\":1989:1991  pa */\n      dup12\n        /* \"contracts/EuclidFormula.sol\":1989:1994  pa==2 */\n      0xffffffff\n      and\n      eq\n        /* \"contracts/EuclidFormula.sol\":1989:2105  pa==2?'02459':pa==3?'499999':pa==4?'02345A':pa==5?'01345A':pa==6?'0123457A':pa==7?'012367A':pa==8?'045':'012345678A' */\n      tag_88\n      jumpi\n        /* \"contracts/EuclidFormula.sol\":2007:2008  3 */\n      0x03\n        /* \"contracts/EuclidFormula.sol\":2003:2005  pa */\n      dup12\n        /* \"contracts/EuclidFormula.sol\":2003:2008  pa==3 */\n      0xffffffff\n      and\n      eq\n        /* \"contracts/EuclidFormula.sol\":2003:2105  pa==3?'499999':pa==4?'02345A':pa==5?'01345A':pa==6?'0123457A':pa==7?'012367A':pa==8?'045':'012345678A' */\n      tag_89\n      jumpi\n        /* \"contracts/EuclidFormula.sol\":2022:2023  4 */\n      0x04\n        /* \"contracts/EuclidFormula.sol\":2018:2020  pa */\n      dup12\n        /* \"contracts/EuclidFormula.sol\":2018:2023  pa==4 */\n      0xffffffff\n      and\n      eq\n        /* \"contracts/EuclidFormula.sol\":2018:2105  pa==4?'02345A':pa==5?'01345A':pa==6?'0123457A':pa==7?'012367A':pa==8?'045':'012345678A' */\n      tag_90\n      jumpi\n        /* \"contracts/EuclidFormula.sol\":2037:2038  5 */\n      0x05\n        /* \"contracts/EuclidFormula.sol\":2033:2035  pa */\n      dup12\n        /* \"contracts/EuclidFormula.sol\":2033:2038  pa==5 */\n      0xffffffff\n      and\n      eq\n        /* \"contracts/EuclidFormula.sol\":2033:2105  pa==5?'01345A':pa==6?'0123457A':pa==7?'012367A':pa==8?'045':'012345678A' */\n      tag_91\n      jumpi\n        /* \"contracts/EuclidFormula.sol\":2052:2053  6 */\n      0x06\n        /* \"contracts/EuclidFormula.sol\":2048:2050  pa */\n      dup12\n        /* \"contracts/EuclidFormula.sol\":2048:2053  pa==6 */\n      0xffffffff\n      and\n      eq\n        /* \"contracts/EuclidFormula.sol\":2048:2105  pa==6?'0123457A':pa==7?'012367A':pa==8?'045':'012345678A' */\n      tag_92\n      jumpi\n        /* \"contracts/EuclidFormula.sol\":2069:2070  7 */\n      0x07\n        /* \"contracts/EuclidFormula.sol\":2065:2067  pa */\n      dup12\n        /* \"contracts/EuclidFormula.sol\":2065:2070  pa==7 */\n      0xffffffff\n      and\n      eq\n        /* \"contracts/EuclidFormula.sol\":2065:2105  pa==7?'012367A':pa==8?'045':'012345678A' */\n      tag_93\n      jumpi\n        /* \"contracts/EuclidFormula.sol\":2085:2086  8 */\n      0x08\n        /* \"contracts/EuclidFormula.sol\":2081:2083  pa */\n      dup12\n        /* \"contracts/EuclidFormula.sol\":2081:2086  pa==8 */\n      0xffffffff\n      and\n      eq\n        /* \"contracts/EuclidFormula.sol\":2081:2105  pa==8?'045':'012345678A' */\n      tag_94\n      jumpi\n      mload(0x40)\n      dup1\n      0x40\n      add\n      0x40\n      mstore\n      dup1\n      0x0a\n      dup2\n      mstore\n      0x20\n      add\n      0x3031323334353637384100000000000000000000000000000000000000000000\n      dup2\n      mstore\n      pop\n      jump(tag_95)\n    tag_94:\n      mload(0x40)\n      dup1\n      0x40\n      add\n      0x40\n      mstore\n      dup1\n      0x03\n      dup2\n      mstore\n      0x20\n      add\n      0x3034350000000000000000000000000000000000000000000000000000000000\n      dup2\n      mstore\n      pop\n    tag_95:\n        /* \"contracts/EuclidFormula.sol\":2065:2105  pa==7?'012367A':pa==8?'045':'012345678A' */\n      jump(tag_96)\n    tag_93:\n      mload(0x40)\n      dup1\n      0x40\n      add\n      0x40\n      mstore\n      dup1\n      0x07\n      dup2\n      mstore\n      0x20\n      add\n      0x3031323336374100000000000000000000000000000000000000000000000000\n      dup2\n      mstore\n      pop\n    tag_96:\n        /* \"contracts/EuclidFormula.sol\":2048:2105  pa==6?'0123457A':pa==7?'012367A':pa==8?'045':'012345678A' */\n      jump(tag_97)\n    tag_92:\n      mload(0x40)\n      dup1\n      0x40\n      add\n      0x40\n      mstore\n      dup1\n      0x08\n      dup2\n      mstore\n      0x20\n      add\n      0x3031323334353741000000000000000000000000000000000000000000000000\n      dup2\n      mstore\n      pop\n    tag_97:\n        /* \"contracts/EuclidFormula.sol\":2033:2105  pa==5?'01345A':pa==6?'0123457A':pa==7?'012367A':pa==8?'045':'012345678A' */\n      jump(tag_98)\n    tag_91:\n      mload(0x40)\n      dup1\n      0x40\n      add\n      0x40\n      mstore\n      dup1\n      0x06\n      dup2\n      mstore\n      0x20\n      add\n      0x3031333435410000000000000000000000000000000000000000000000000000\n      dup2\n      mstore\n      pop\n    tag_98:\n        /* \"contracts/EuclidFormula.sol\":2018:2105  pa==4?'02345A':pa==5?'01345A':pa==6?'0123457A':pa==7?'012367A':pa==8?'045':'012345678A' */\n      jump(tag_99)\n    tag_90:\n      mload(0x40)\n      dup1\n      0x40\n      add\n      0x40\n      mstore\n      dup1\n      0x06\n      dup2\n      mstore\n      0x20\n      add\n      0x3032333435410000000000000000000000000000000000000000000000000000\n      dup2\n      mstore\n      pop\n    tag_99:\n        /* \"contracts/EuclidFormula.sol\":2003:2105  pa==3?'499999':pa==4?'02345A':pa==5?'01345A':pa==6?'0123457A':pa==7?'012367A':pa==8?'045':'012345678A' */\n      jump(tag_100)\n    tag_89:\n      mload(0x40)\n      dup1\n      0x40\n      add\n      0x40\n      mstore\n      dup1\n      0x06\n      dup2\n      mstore\n      0x20\n      add\n      0x3439393939390000000000000000000000000000000000000000000000000000\n      dup2\n      mstore\n      pop\n    tag_100:\n        /* \"contracts/EuclidFormula.sol\":1989:2105  pa==2?'02459':pa==3?'499999':pa==4?'02345A':pa==5?'01345A':pa==6?'0123457A':pa==7?'012367A':pa==8?'045':'012345678A' */\n      jump(tag_101)\n    tag_88:\n      mload(0x40)\n      dup1\n      0x40\n      add\n      0x40\n      mstore\n      dup1\n      0x05\n      dup2\n      mstore\n      0x20\n      add\n      0x3032343539000000000000000000000000000000000000000000000000000000\n      dup2\n      mstore\n      pop\n    tag_101:\n        /* \"contracts/EuclidFormula.sol\":1972:2105  pa==1?'0123678A':pa==2?'02459':pa==3?'499999':pa==4?'02345A':pa==5?'01345A':pa==6?'0123457A':pa==7?'012367A':pa==8?'045':'012345678A' */\n      jump(tag_102)\n    tag_87:\n      mload(0x40)\n      dup1\n      0x40\n      add\n      0x40\n      mstore\n      dup1\n      0x08\n      dup2\n      mstore\n      0x20\n      add\n      0x3031323336373841000000000000000000000000000000000000000000000000\n      dup2\n      mstore\n      pop\n    tag_102:\n        /* \"contracts/EuclidFormula.sol\":1954:2105  pa==0?'01234568A':pa==1?'0123678A':pa==2?'02459':pa==3?'499999':pa==4?'02345A':pa==5?'01345A':pa==6?'0123457A':pa==7?'012367A':pa==8?'045':'012345678A' */\n      jump(tag_103)\n    tag_86:\n      mload(0x40)\n      dup1\n      0x40\n      add\n      0x40\n      mstore\n      dup1\n      0x09\n      dup2\n      mstore\n      0x20\n      add\n      0x3031323334353638410000000000000000000000000000000000000000000000\n      dup2\n      mstore\n      pop\n    tag_103:\n        /* \"contracts/EuclidFormula.sol\":1917:1925  drawProp */\n      tag_104\n        /* \"contracts/EuclidFormula.sol\":1917:2107  drawProp(rnd, drawing++, draw, bytes(pa==0?'01234568A':pa==1?'0123678A':pa==2?'02459':pa==3?'499999':pa==4?'02345A':pa==5?'01345A':pa==6?'0123457A':pa==7?'012367A':pa==8?'045':'012345678A')) */\n      jump\t// in\n    tag_83:\n        /* \"contracts/EuclidFormula.sol\":1898:2107  (rnd, propValue) = drawProp(rnd, drawing++, draw, bytes(pa==0?'01234568A':pa==1?'0123678A':pa==2?'02459':pa==3?'499999':pa==4?'02345A':pa==5?'01345A':pa==6?'0123457A':pa==7?'012367A':pa==8?'045':'012345678A')) */\n      dup1\n      swap3\n      pop\n      dup2\n      swap12\n      pop\n      pop\n      pop\n        /* \"contracts/EuclidFormula.sol\":2138:2145  formula */\n      dup8\n        /* \"contracts/EuclidFormula.sol\":2154:2163  propValue */\n      dup2\n        /* \"contracts/EuclidFormula.sol\":2121:2164  abi.encodePacked(formula, '.bg', propValue) */\n      add(0x20, mload(0x40))\n      tag_105\n      swap3\n      swap2\n      swap1\n      tag_106\n      jump\t// in\n    tag_105:\n      mload(0x40)\n      0x20\n      dup2\n      dup4\n      sub\n      sub\n      dup2\n      mstore\n      swap1\n      0x40\n      mstore\n        /* \"contracts/EuclidFormula.sol\":2111:2164  formula = abi.encodePacked(formula, '.bg', propValue) */\n      swap8\n      pop\n        /* \"contracts/EuclidFormula.sol\":2201:2266  drawProp(rnd, drawing++, draw, bytes(pa==3?'0000112':'00001123')) */\n      tag_107\n        /* \"contracts/EuclidFormula.sol\":2210:2213  rnd */\n      dup11\n        /* \"contracts/EuclidFormula.sol\":2215:2224  drawing++ */\n      dup4\n      dup1\n      tag_108\n      swap1\n      tag_85\n      jump\t// in\n    tag_108:\n      swap5\n      pop\n        /* \"contracts/EuclidFormula.sol\":2226:2230  draw */\n      dup6\n        /* \"contracts/EuclidFormula.sol\":2242:2243  3 */\n      0x03\n        /* \"contracts/EuclidFormula.sol\":2238:2240  pa */\n      dup12\n        /* \"contracts/EuclidFormula.sol\":2238:2243  pa==3 */\n      0xffffffff\n      and\n      eq\n        /* \"contracts/EuclidFormula.sol\":2238:2264  pa==3?'0000112':'00001123' */\n      tag_109\n      jumpi\n      mload(0x40)\n      dup1\n      0x40\n      add\n      0x40\n      mstore\n      dup1\n      0x08\n      dup2\n      mstore\n      0x20\n      add\n      0x3030303031313233000000000000000000000000000000000000000000000000\n      dup2\n      mstore\n      pop\n      jump(tag_110)\n    tag_109:\n      mload(0x40)\n      dup1\n      0x40\n      add\n      0x40\n      mstore\n      dup1\n      0x07\n      dup2\n      mstore\n      0x20\n      add\n      0x3030303031313200000000000000000000000000000000000000000000000000\n      dup2\n      mstore\n      pop\n    tag_110:\n        /* \"contracts/EuclidFormula.sol\":2201:2209  drawProp */\n      tag_104\n        /* \"contracts/EuclidFormula.sol\":2201:2266  drawProp(rnd, drawing++, draw, bytes(pa==3?'0000112':'00001123')) */\n      jump\t// in\n    tag_107:\n        /* \"contracts/EuclidFormula.sol\":2182:2266  (rnd, propValue) = drawProp(rnd, drawing++, draw, bytes(pa==3?'0000112':'00001123')) */\n      dup1\n      swap3\n      pop\n      dup2\n      swap12\n      pop\n      pop\n      pop\n        /* \"contracts/EuclidFormula.sol\":2297:2304  formula */\n      dup8\n        /* \"contracts/EuclidFormula.sol\":2313:2322  propValue */\n      dup2\n        /* \"contracts/EuclidFormula.sol\":2280:2323  abi.encodePacked(formula, '.ma', propValue) */\n      add(0x20, mload(0x40))\n      tag_111\n      swap3\n      swap2\n      swap1\n      tag_112\n      jump\t// in\n    tag_111:\n      mload(0x40)\n      0x20\n      dup2\n      dup4\n      sub\n      sub\n      dup2\n      mstore\n      swap1\n      0x40\n      mstore\n        /* \"contracts/EuclidFormula.sol\":2270:2323  formula = abi.encodePacked(formula, '.ma', propValue) */\n      swap8\n      pop\n        /* \"contracts/EuclidFormula.sol\":2360:2445  drawProp(rnd, drawing++, draw, bytes(pa==1?'022233':pa==3?'01122233':'011222334566')) */\n      tag_113\n        /* \"contracts/EuclidFormula.sol\":2369:2372  rnd */\n      dup11\n        /* \"contracts/EuclidFormula.sol\":2374:2383  drawing++ */\n      dup4\n      dup1\n      tag_114\n      swap1\n      tag_85\n      jump\t// in\n    tag_114:\n      swap5\n      pop\n        /* \"contracts/EuclidFormula.sol\":2385:2389  draw */\n      dup6\n        /* \"contracts/EuclidFormula.sol\":2401:2402  1 */\n      0x01\n        /* \"contracts/EuclidFormula.sol\":2397:2399  pa */\n      dup12\n        /* \"contracts/EuclidFormula.sol\":2397:2402  pa==1 */\n      0xffffffff\n      and\n      eq\n        /* \"contracts/EuclidFormula.sol\":2397:2443  pa==1?'022233':pa==3?'01122233':'011222334566' */\n      tag_115\n      jumpi\n        /* \"contracts/EuclidFormula.sol\":2416:2417  3 */\n      0x03\n        /* \"contracts/EuclidFormula.sol\":2412:2414  pa */\n      dup12\n        /* \"contracts/EuclidFormula.sol\":2412:2417  pa==3 */\n      0xffffffff\n      and\n      eq\n        /* \"contracts/EuclidFormula.sol\":2412:2443  pa==3?'01122233':'011222334566' */\n      tag_116\n      jumpi\n      mload(0x40)\n      dup1\n      0x40\n      add\n      0x40\n      mstore\n      dup1\n      0x0c\n      dup2\n      mstore\n      0x20\n      add\n      0x3031313232323333343536360000000000000000000000000000000000000000\n      dup2\n      mstore\n      pop\n      jump(tag_117)\n    tag_116:\n      mload(0x40)\n      dup1\n      0x40\n      add\n      0x40\n      mstore\n      dup1\n      0x08\n      dup2\n      mstore\n      0x20\n      add\n      0x3031313232323333000000000000000000000000000000000000000000000000\n      dup2\n      mstore\n      pop\n    tag_117:\n        /* \"contracts/EuclidFormula.sol\":2397:2443  pa==1?'022233':pa==3?'01122233':'011222334566' */\n      jump(tag_118)\n    tag_115:\n      mload(0x40)\n      dup1\n      0x40\n      add\n      0x40\n      mstore\n      dup1\n      0x06\n      dup2\n      mstore\n      0x20\n      add\n      0x3032323233330000000000000000000000000000000000000000000000000000\n      dup2\n      mstore\n      pop\n    tag_118:\n        /* \"contracts/EuclidFormula.sol\":2360:2368  drawProp */\n      tag_104\n        /* \"contracts/EuclidFormula.sol\":2360:2445  drawProp(rnd, drawing++, draw, bytes(pa==1?'022233':pa==3?'01122233':'011222334566')) */\n      jump\t// in\n    tag_113:\n        /* \"contracts/EuclidFormula.sol\":2341:2445  (rnd, propValue) = drawProp(rnd, drawing++, draw, bytes(pa==1?'022233':pa==3?'01122233':'011222334566')) */\n      dup1\n      swap3\n      pop\n      dup2\n      swap12\n      pop\n      pop\n      pop\n        /* \"contracts/EuclidFormula.sol\":2476:2483  formula */\n      dup8\n        /* \"contracts/EuclidFormula.sol\":2492:2501  propValue */\n      dup2\n        /* \"contracts/EuclidFormula.sol\":2459:2502  abi.encodePacked(formula, '.tr', propValue) */\n      add(0x20, mload(0x40))\n      tag_119\n      swap3\n      swap2\n      swap1\n      tag_120\n      jump\t// in\n    tag_119:\n      mload(0x40)\n      0x20\n      dup2\n      dup4\n      sub\n      sub\n      dup2\n      mstore\n      swap1\n      0x40\n      mstore\n        /* \"contracts/EuclidFormula.sol\":2449:2502  formula = abi.encodePacked(formula, '.tr', propValue) */\n      swap8\n      pop\n        /* \"contracts/EuclidFormula.sol\":2525:2628  drawProp(rnd, drawing++, draw, bytes(pa==0?'01111':pa==3?'01111':pa==6?'02223':pa==7?'02223':'011113')) */\n      tag_121\n        /* \"contracts/EuclidFormula.sol\":2534:2537  rnd */\n      dup11\n        /* \"contracts/EuclidFormula.sol\":2539:2548  drawing++ */\n      dup4\n      dup1\n      tag_122\n      swap1\n      tag_85\n      jump\t// in\n    tag_122:\n      swap5\n      pop\n        /* \"contracts/EuclidFormula.sol\":2550:2554  draw */\n      dup6\n        /* \"contracts/EuclidFormula.sol\":2566:2567  0 */\n      0x00\n        /* \"contracts/EuclidFormula.sol\":2562:2564  pa */\n      dup12\n        /* \"contracts/EuclidFormula.sol\":2562:2567  pa==0 */\n      0xffffffff\n      and\n      eq\n        /* \"contracts/EuclidFormula.sol\":2562:2626  pa==0?'01111':pa==3?'01111':pa==6?'02223':pa==7?'02223':'011113' */\n      tag_123\n      jumpi\n        /* \"contracts/EuclidFormula.sol\":2580:2581  3 */\n      0x03\n        /* \"contracts/EuclidFormula.sol\":2576:2578  pa */\n      dup12\n        /* \"contracts/EuclidFormula.sol\":2576:2581  pa==3 */\n      0xffffffff\n      and\n      eq\n        /* \"contracts/EuclidFormula.sol\":2576:2626  pa==3?'01111':pa==6?'02223':pa==7?'02223':'011113' */\n      tag_124\n      jumpi\n        /* \"contracts/EuclidFormula.sol\":2594:2595  6 */\n      0x06\n        /* \"contracts/EuclidFormula.sol\":2590:2592  pa */\n      dup12\n        /* \"contracts/EuclidFormula.sol\":2590:2595  pa==6 */\n      0xffffffff\n      and\n      eq\n        /* \"contracts/EuclidFormula.sol\":2590:2626  pa==6?'02223':pa==7?'02223':'011113' */\n      tag_125\n      jumpi\n        /* \"contracts/EuclidFormula.sol\":2608:2609  7 */\n      0x07\n        /* \"contracts/EuclidFormula.sol\":2604:2606  pa */\n      dup12\n        /* \"contracts/EuclidFormula.sol\":2604:2609  pa==7 */\n      0xffffffff\n      and\n      eq\n        /* \"contracts/EuclidFormula.sol\":2604:2626  pa==7?'02223':'011113' */\n      tag_126\n      jumpi\n      mload(0x40)\n      dup1\n      0x40\n      add\n      0x40\n      mstore\n      dup1\n      0x06\n      dup2\n      mstore\n      0x20\n      add\n      0x3031313131330000000000000000000000000000000000000000000000000000\n      dup2\n      mstore\n      pop\n      jump(tag_127)\n    tag_126:\n      mload(0x40)\n      dup1\n      0x40\n      add\n      0x40\n      mstore\n      dup1\n      0x05\n      dup2\n      mstore\n      0x20\n      add\n      0x3032323233000000000000000000000000000000000000000000000000000000\n      dup2\n      mstore\n      pop\n    tag_127:\n        /* \"contracts/EuclidFormula.sol\":2590:2626  pa==6?'02223':pa==7?'02223':'011113' */\n      jump(tag_128)\n    tag_125:\n      mload(0x40)\n      dup1\n      0x40\n      add\n      0x40\n      mstore\n      dup1\n      0x05\n      dup2\n      mstore\n      0x20\n      add\n      0x3032323233000000000000000000000000000000000000000000000000000000\n      dup2\n      mstore\n      pop\n    tag_128:\n        /* \"contracts/EuclidFormula.sol\":2576:2626  pa==3?'01111':pa==6?'02223':pa==7?'02223':'011113' */\n      jump(tag_129)\n    tag_124:\n      mload(0x40)\n      dup1\n      0x40\n      add\n      0x40\n      mstore\n      dup1\n      0x05\n      dup2\n      mstore\n      0x20\n      add\n      0x3031313131000000000000000000000000000000000000000000000000000000\n      dup2\n      mstore\n      pop\n    tag_129:\n        /* \"contracts/EuclidFormula.sol\":2562:2626  pa==0?'01111':pa==3?'01111':pa==6?'02223':pa==7?'02223':'011113' */\n      jump(tag_130)\n    tag_123:\n      mload(0x40)\n      dup1\n      0x40\n      add\n      0x40\n      mstore\n      dup1\n      0x05\n      dup2\n      mstore\n      0x20\n      add\n      0x3031313131000000000000000000000000000000000000000000000000000000\n      dup2\n      mstore\n      pop\n    tag_130:\n        /* \"contracts/EuclidFormula.sol\":2525:2533  drawProp */\n      tag_104\n        /* \"contracts/EuclidFormula.sol\":2525:2628  drawProp(rnd, drawing++, draw, bytes(pa==0?'01111':pa==3?'01111':pa==6?'02223':pa==7?'02223':'011113')) */\n      jump\t// in\n    tag_121:\n        /* \"contracts/EuclidFormula.sol\":2506:2628  (rnd, propValue) = drawProp(rnd, drawing++, draw, bytes(pa==0?'01111':pa==3?'01111':pa==6?'02223':pa==7?'02223':'011113')) */\n      dup1\n      swap3\n      pop\n      dup2\n      swap12\n      pop\n      pop\n      pop\n        /* \"contracts/EuclidFormula.sol\":2659:2666  formula */\n      dup8\n        /* \"contracts/EuclidFormula.sol\":2668:2677  propValue */\n      dup2\n        /* \"contracts/EuclidFormula.sol\":2642:2678  abi.encodePacked(formula, propValue) */\n      add(0x20, mload(0x40))\n      tag_131\n      swap3\n      swap2\n      swap1\n      tag_132\n      jump\t// in\n    tag_131:\n      mload(0x40)\n      0x20\n      dup2\n      dup4\n      sub\n      sub\n      dup2\n      mstore\n      swap1\n      0x40\n      mstore\n        /* \"contracts/EuclidFormula.sol\":2632:2678  formula = abi.encodePacked(formula, propValue) */\n      swap8\n      pop\n        /* \"contracts/EuclidFormula.sol\":2701:2766  drawProp(rnd, drawing++, draw, bytes(pa==3?'00':'0000003333334')) */\n      tag_133\n        /* \"contracts/EuclidFormula.sol\":2710:2713  rnd */\n      dup11\n        /* \"contracts/EuclidFormula.sol\":2715:2724  drawing++ */\n      dup4\n      dup1\n      tag_134\n      swap1\n      tag_85\n      jump\t// in\n    tag_134:\n      swap5\n      pop\n        /* \"contracts/EuclidFormula.sol\":2726:2730  draw */\n      dup6\n        /* \"contracts/EuclidFormula.sol\":2742:2743  3 */\n      0x03\n        /* \"contracts/EuclidFormula.sol\":2738:2740  pa */\n      dup12\n        /* \"contracts/EuclidFormula.sol\":2738:2743  pa==3 */\n      0xffffffff\n      and\n      eq\n        /* \"contracts/EuclidFormula.sol\":2738:2764  pa==3?'00':'0000003333334' */\n      tag_135\n      jumpi\n      mload(0x40)\n      dup1\n      0x40\n      add\n      0x40\n      mstore\n      dup1\n      0x0d\n      dup2\n      mstore\n      0x20\n      add\n      0x3030303030303333333333333400000000000000000000000000000000000000\n      dup2\n      mstore\n      pop\n      jump(tag_136)\n    tag_135:\n      mload(0x40)\n      dup1\n      0x40\n      add\n      0x40\n      mstore\n      dup1\n      0x02\n      dup2\n      mstore\n      0x20\n      add\n      0x3030000000000000000000000000000000000000000000000000000000000000\n      dup2\n      mstore\n      pop\n    tag_136:\n        /* \"contracts/EuclidFormula.sol\":2701:2709  drawProp */\n      tag_104\n        /* \"contracts/EuclidFormula.sol\":2701:2766  drawProp(rnd, drawing++, draw, bytes(pa==3?'00':'0000003333334')) */\n      jump\t// in\n    tag_133:\n        /* \"contracts/EuclidFormula.sol\":2682:2766  (rnd, propValue) = drawProp(rnd, drawing++, draw, bytes(pa==3?'00':'0000003333334')) */\n      dup1\n      swap3\n      pop\n      dup2\n      swap12\n      pop\n      pop\n      pop\n        /* \"contracts/EuclidFormula.sol\":2797:2804  formula */\n      dup8\n        /* \"contracts/EuclidFormula.sol\":2806:2815  propValue */\n      dup2\n        /* \"contracts/EuclidFormula.sol\":2780:2816  abi.encodePacked(formula, propValue) */\n      add(0x20, mload(0x40))\n      tag_137\n      swap3\n      swap2\n      swap1\n      tag_132\n      jump\t// in\n    tag_137:\n      mload(0x40)\n      0x20\n      dup2\n      dup4\n      sub\n      sub\n      dup2\n      mstore\n      swap1\n      0x40\n      mstore\n        /* \"contracts/EuclidFormula.sol\":2770:2816  formula = abi.encodePacked(formula, propValue) */\n      swap8\n      pop\n        /* \"contracts/EuclidFormula.sol\":2839:2901  drawProp(rnd, drawing++, draw, bytes(pa==3?'00':'0000001111')) */\n      tag_138\n        /* \"contracts/EuclidFormula.sol\":2848:2851  rnd */\n      dup11\n        /* \"contracts/EuclidFormula.sol\":2853:2862  drawing++ */\n      dup4\n      dup1\n      tag_139\n      swap1\n      tag_85\n      jump\t// in\n    tag_139:\n      swap5\n      pop\n        /* \"contracts/EuclidFormula.sol\":2864:2868  draw */\n      dup6\n        /* \"contracts/EuclidFormula.sol\":2880:2881  3 */\n      0x03\n        /* \"contracts/EuclidFormula.sol\":2876:2878  pa */\n      dup12\n        /* \"contracts/EuclidFormula.sol\":2876:2881  pa==3 */\n      0xffffffff\n      and\n      eq\n        /* \"contracts/EuclidFormula.sol\":2876:2899  pa==3?'00':'0000001111' */\n      tag_140\n      jumpi\n      mload(0x40)\n      dup1\n      0x40\n      add\n      0x40\n      mstore\n      dup1\n      0x0a\n      dup2\n      mstore\n      0x20\n      add\n      0x3030303030303131313100000000000000000000000000000000000000000000\n      dup2\n      mstore\n      pop\n      jump(tag_141)\n    tag_140:\n      mload(0x40)\n      dup1\n      0x40\n      add\n      0x40\n      mstore\n      dup1\n      0x02\n      dup2\n      mstore\n      0x20\n      add\n      0x3030000000000000000000000000000000000000000000000000000000000000\n      dup2\n      mstore\n      pop\n    tag_141:\n        /* \"contracts/EuclidFormula.sol\":2839:2847  drawProp */\n      tag_104\n        /* \"contracts/EuclidFormula.sol\":2839:2901  drawProp(rnd, drawing++, draw, bytes(pa==3?'00':'0000001111')) */\n      jump\t// in\n    tag_138:\n        /* \"contracts/EuclidFormula.sol\":2820:2901  (rnd, propValue) = drawProp(rnd, drawing++, draw, bytes(pa==3?'00':'0000001111')) */\n      dup1\n      swap3\n      pop\n      dup2\n      swap12\n      pop\n      pop\n      pop\n        /* \"contracts/EuclidFormula.sol\":2932:2939  formula */\n      dup8\n        /* \"contracts/EuclidFormula.sol\":2941:2950  propValue */\n      dup2\n        /* \"contracts/EuclidFormula.sol\":2915:2951  abi.encodePacked(formula, propValue) */\n      add(0x20, mload(0x40))\n      tag_142\n      swap3\n      swap2\n      swap1\n      tag_132\n      jump\t// in\n    tag_142:\n      mload(0x40)\n      0x20\n      dup2\n      dup4\n      sub\n      sub\n      dup2\n      mstore\n      swap1\n      0x40\n      mstore\n        /* \"contracts/EuclidFormula.sol\":2905:2951  formula = abi.encodePacked(formula, propValue) */\n      swap8\n      pop\n        /* \"contracts/EuclidFormula.sol\":2974:3018  drawProp(rnd, drawing++, draw, '0000000123') */\n      tag_143\n        /* \"contracts/EuclidFormula.sol\":2983:2986  rnd */\n      dup11\n        /* \"contracts/EuclidFormula.sol\":2988:2997  drawing++ */\n      dup4\n      dup1\n      tag_144\n      swap1\n      tag_85\n      jump\t// in\n    tag_144:\n      swap5\n      pop\n        /* \"contracts/EuclidFormula.sol\":2999:3003  draw */\n      dup6\n        /* \"contracts/EuclidFormula.sol\":2974:3018  drawProp(rnd, drawing++, draw, '0000000123') */\n      mload(0x40)\n      dup1\n      0x40\n      add\n      0x40\n      mstore\n      dup1\n      0x0a\n      dup2\n      mstore\n      0x20\n      add\n      0x3030303030303031323300000000000000000000000000000000000000000000\n      dup2\n      mstore\n      pop\n        /* \"contracts/EuclidFormula.sol\":2974:2982  drawProp */\n      tag_104\n        /* \"contracts/EuclidFormula.sol\":2974:3018  drawProp(rnd, drawing++, draw, '0000000123') */\n      jump\t// in\n    tag_143:\n        /* \"contracts/EuclidFormula.sol\":2955:3018  (rnd, propValue) = drawProp(rnd, drawing++, draw, '0000000123') */\n      dup1\n      swap3\n      pop\n      dup2\n      swap12\n      pop\n      pop\n      pop\n        /* \"contracts/EuclidFormula.sol\":3049:3056  formula */\n      dup8\n        /* \"contracts/EuclidFormula.sol\":3058:3067  propValue */\n      dup2\n        /* \"contracts/EuclidFormula.sol\":3032:3068  abi.encodePacked(formula, propValue) */\n      add(0x20, mload(0x40))\n      tag_145\n      swap3\n      swap2\n      swap1\n      tag_132\n      jump\t// in\n    tag_145:\n      mload(0x40)\n      0x20\n      dup2\n      dup4\n      sub\n      sub\n      dup2\n      mstore\n      swap1\n      0x40\n      mstore\n        /* \"contracts/EuclidFormula.sol\":3022:3068  formula = abi.encodePacked(formula, propValue) */\n      swap8\n      pop\n        /* \"contracts/EuclidFormula.sol\":3105:3229  drawProp(rnd, drawing++, draw, bytes(pa==3?'0111111244445555':pa==6?'0111111244445555':pa==8?'5155544':'01111112344445555')) */\n      tag_146\n        /* \"contracts/EuclidFormula.sol\":3114:3117  rnd */\n      dup11\n        /* \"contracts/EuclidFormula.sol\":3119:3128  drawing++ */\n      dup4\n      dup1\n      tag_147\n      swap1\n      tag_85\n      jump\t// in\n    tag_147:\n      swap5\n      pop\n        /* \"contracts/EuclidFormula.sol\":3130:3134  draw */\n      dup6\n        /* \"contracts/EuclidFormula.sol\":3146:3147  3 */\n      0x03\n        /* \"contracts/EuclidFormula.sol\":3142:3144  pa */\n      dup12\n        /* \"contracts/EuclidFormula.sol\":3142:3147  pa==3 */\n      0xffffffff\n      and\n      eq\n        /* \"contracts/EuclidFormula.sol\":3142:3227  pa==3?'0111111244445555':pa==6?'0111111244445555':pa==8?'5155544':'01111112344445555' */\n      tag_148\n      jumpi\n        /* \"contracts/EuclidFormula.sol\":3171:3172  6 */\n      0x06\n        /* \"contracts/EuclidFormula.sol\":3167:3169  pa */\n      dup12\n        /* \"contracts/EuclidFormula.sol\":3167:3172  pa==6 */\n      0xffffffff\n      and\n      eq\n        /* \"contracts/EuclidFormula.sol\":3167:3227  pa==6?'0111111244445555':pa==8?'5155544':'01111112344445555' */\n      tag_149\n      jumpi\n        /* \"contracts/EuclidFormula.sol\":3196:3197  8 */\n      0x08\n        /* \"contracts/EuclidFormula.sol\":3192:3194  pa */\n      dup12\n        /* \"contracts/EuclidFormula.sol\":3192:3197  pa==8 */\n      0xffffffff\n      and\n      eq\n        /* \"contracts/EuclidFormula.sol\":3192:3227  pa==8?'5155544':'01111112344445555' */\n      tag_150\n      jumpi\n      mload(0x40)\n      dup1\n      0x40\n      add\n      0x40\n      mstore\n      dup1\n      0x11\n      dup2\n      mstore\n      0x20\n      add\n      0x3031313131313132333434343435353535000000000000000000000000000000\n      dup2\n      mstore\n      pop\n      jump(tag_151)\n    tag_150:\n      mload(0x40)\n      dup1\n      0x40\n      add\n      0x40\n      mstore\n      dup1\n      0x07\n      dup2\n      mstore\n      0x20\n      add\n      0x3531353535343400000000000000000000000000000000000000000000000000\n      dup2\n      mstore\n      pop\n    tag_151:\n        /* \"contracts/EuclidFormula.sol\":3167:3227  pa==6?'0111111244445555':pa==8?'5155544':'01111112344445555' */\n      jump(tag_152)\n    tag_149:\n      mload(0x40)\n      dup1\n      0x40\n      add\n      0x40\n      mstore\n      dup1\n      0x10\n      dup2\n      mstore\n      0x20\n      add\n      0x3031313131313132343434343535353500000000000000000000000000000000\n      dup2\n      mstore\n      pop\n    tag_152:\n        /* \"contracts/EuclidFormula.sol\":3142:3227  pa==3?'0111111244445555':pa==6?'0111111244445555':pa==8?'5155544':'01111112344445555' */\n      jump(tag_153)\n    tag_148:\n      mload(0x40)\n      dup1\n      0x40\n      add\n      0x40\n      mstore\n      dup1\n      0x10\n      dup2\n      mstore\n      0x20\n      add\n      0x3031313131313132343434343535353500000000000000000000000000000000\n      dup2\n      mstore\n      pop\n    tag_153:\n        /* \"contracts/EuclidFormula.sol\":3105:3113  drawProp */\n      tag_104\n        /* \"contracts/EuclidFormula.sol\":3105:3229  drawProp(rnd, drawing++, draw, bytes(pa==3?'0111111244445555':pa==6?'0111111244445555':pa==8?'5155544':'01111112344445555')) */\n      jump\t// in\n    tag_146:\n        /* \"contracts/EuclidFormula.sol\":3086:3229  (rnd, propValue) = drawProp(rnd, drawing++, draw, bytes(pa==3?'0111111244445555':pa==6?'0111111244445555':pa==8?'5155544':'01111112344445555')) */\n      dup1\n      swap3\n      pop\n      dup2\n      swap12\n      pop\n      pop\n      pop\n        /* \"contracts/EuclidFormula.sol\":3260:3267  formula */\n      dup8\n        /* \"contracts/EuclidFormula.sol\":3276:3285  propValue */\n      dup2\n        /* \"contracts/EuclidFormula.sol\":3243:3286  abi.encodePacked(formula, '.fx', propValue) */\n      add(0x20, mload(0x40))\n      tag_154\n      swap3\n      swap2\n      swap1\n      tag_155\n      jump\t// in\n    tag_154:\n      mload(0x40)\n      0x20\n      dup2\n      dup4\n      sub\n      sub\n      dup2\n      mstore\n      swap1\n      0x40\n      mstore\n        /* \"contracts/EuclidFormula.sol\":3233:3286  formula = abi.encodePacked(formula, '.fx', propValue) */\n      swap8\n      pop\n        /* \"contracts/EuclidFormula.sol\":3309:3398  drawProp(rnd, drawing++, draw, bytes(pa==1?'02':pa==2?'02':pa==3?'02':pa==6?'013':'012')) */\n      tag_156\n        /* \"contracts/EuclidFormula.sol\":3318:3321  rnd */\n      dup11\n        /* \"contracts/EuclidFormula.sol\":3323:3332  drawing++ */\n      dup4\n      dup1\n      tag_157\n      swap1\n      tag_85\n      jump\t// in\n    tag_157:\n      swap5\n      pop\n        /* \"contracts/EuclidFormula.sol\":3334:3338  draw */\n      dup6\n        /* \"contracts/EuclidFormula.sol\":3350:3351  1 */\n      0x01\n        /* \"contracts/EuclidFormula.sol\":3346:3348  pa */\n      dup12\n        /* \"contracts/EuclidFormula.sol\":3346:3351  pa==1 */\n      0xffffffff\n      and\n      eq\n        /* \"contracts/EuclidFormula.sol\":3346:3396  pa==1?'02':pa==2?'02':pa==3?'02':pa==6?'013':'012' */\n      tag_158\n      jumpi\n        /* \"contracts/EuclidFormula.sol\":3361:3362  2 */\n      0x02\n        /* \"contracts/EuclidFormula.sol\":3357:3359  pa */\n      dup12\n        /* \"contracts/EuclidFormula.sol\":3357:3362  pa==2 */\n      0xffffffff\n      and\n      eq\n        /* \"contracts/EuclidFormula.sol\":3357:3396  pa==2?'02':pa==3?'02':pa==6?'013':'012' */\n      tag_159\n      jumpi\n        /* \"contracts/EuclidFormula.sol\":3372:3373  3 */\n      0x03\n        /* \"contracts/EuclidFormula.sol\":3368:3370  pa */\n      dup12\n        /* \"contracts/EuclidFormula.sol\":3368:3373  pa==3 */\n      0xffffffff\n      and\n      eq\n        /* \"contracts/EuclidFormula.sol\":3368:3396  pa==3?'02':pa==6?'013':'012' */\n      tag_160\n      jumpi\n        /* \"contracts/EuclidFormula.sol\":3383:3384  6 */\n      0x06\n        /* \"contracts/EuclidFormula.sol\":3379:3381  pa */\n      dup12\n        /* \"contracts/EuclidFormula.sol\":3379:3384  pa==6 */\n      0xffffffff\n      and\n      eq\n        /* \"contracts/EuclidFormula.sol\":3379:3396  pa==6?'013':'012' */\n      tag_161\n      jumpi\n      mload(0x40)\n      dup1\n      0x40\n      add\n      0x40\n      mstore\n      dup1\n      0x03\n      dup2\n      mstore\n      0x20\n      add\n      0x3031320000000000000000000000000000000000000000000000000000000000\n      dup2\n      mstore\n      pop\n      jump(tag_162)\n    tag_161:\n      mload(0x40)\n      dup1\n      0x40\n      add\n      0x40\n      mstore\n      dup1\n      0x03\n      dup2\n      mstore\n      0x20\n      add\n      0x3031330000000000000000000000000000000000000000000000000000000000\n      dup2\n      mstore\n      pop\n    tag_162:\n        /* \"contracts/EuclidFormula.sol\":3368:3396  pa==3?'02':pa==6?'013':'012' */\n      jump(tag_163)\n    tag_160:\n      mload(0x40)\n      dup1\n      0x40\n      add\n      0x40\n      mstore\n      dup1\n      0x02\n      dup2\n      mstore\n      0x20\n      add\n      0x3032000000000000000000000000000000000000000000000000000000000000\n      dup2\n      mstore\n      pop\n    tag_163:\n        /* \"contracts/EuclidFormula.sol\":3357:3396  pa==2?'02':pa==3?'02':pa==6?'013':'012' */\n      jump(tag_164)\n    tag_159:\n      mload(0x40)\n      dup1\n      0x40\n      add\n      0x40\n      mstore\n      dup1\n      0x02\n      dup2\n      mstore\n      0x20\n      add\n      0x3032000000000000000000000000000000000000000000000000000000000000\n      dup2\n      mstore\n      pop\n    tag_164:\n        /* \"contracts/EuclidFormula.sol\":3346:3396  pa==1?'02':pa==2?'02':pa==3?'02':pa==6?'013':'012' */\n      jump(tag_165)\n    tag_158:\n      mload(0x40)\n      dup1\n      0x40\n      add\n      0x40\n      mstore\n      dup1\n      0x02\n      dup2\n      mstore\n      0x20\n      add\n      0x3032000000000000000000000000000000000000000000000000000000000000\n      dup2\n      mstore\n      pop\n    tag_165:\n        /* \"contracts/EuclidFormula.sol\":3309:3317  drawProp */\n      tag_104\n        /* \"contracts/EuclidFormula.sol\":3309:3398  drawProp(rnd, drawing++, draw, bytes(pa==1?'02':pa==2?'02':pa==3?'02':pa==6?'013':'012')) */\n      jump\t// in\n    tag_156:\n        /* \"contracts/EuclidFormula.sol\":3290:3398  (rnd, propValue) = drawProp(rnd, drawing++, draw, bytes(pa==1?'02':pa==2?'02':pa==3?'02':pa==6?'013':'012')) */\n      dup1\n      swap3\n      pop\n      dup2\n      swap12\n      pop\n      pop\n      pop\n        /* \"contracts/EuclidFormula.sol\":3429:3436  formula */\n      dup8\n        /* \"contracts/EuclidFormula.sol\":3438:3447  propValue */\n      dup2\n        /* \"contracts/EuclidFormula.sol\":3412:3448  abi.encodePacked(formula, propValue) */\n      add(0x20, mload(0x40))\n      tag_166\n      swap3\n      swap2\n      swap1\n      tag_132\n      jump\t// in\n    tag_166:\n      mload(0x40)\n      0x20\n      dup2\n      dup4\n      sub\n      sub\n      dup2\n      mstore\n      swap1\n      0x40\n      mstore\n        /* \"contracts/EuclidFormula.sol\":3402:3448  formula = abi.encodePacked(formula, propValue) */\n      swap8\n      pop\n        /* \"contracts/EuclidFormula.sol\":3485:3526  randomizeProp(rnd, 0, '0123456789ABCDEF') */\n      tag_167\n        /* \"contracts/EuclidFormula.sol\":3499:3502  rnd */\n      dup11\n        /* \"contracts/EuclidFormula.sol\":3504:3505  0 */\n      0x00\n        /* \"contracts/EuclidFormula.sol\":3485:3526  randomizeProp(rnd, 0, '0123456789ABCDEF') */\n      mload(0x40)\n      dup1\n      0x40\n      add\n      0x40\n      mstore\n      dup1\n      0x10\n      dup2\n      mstore\n      0x20\n      add\n      0x3031323334353637383941424344454600000000000000000000000000000000\n      dup2\n      mstore\n      pop\n        /* \"contracts/EuclidFormula.sol\":3485:3498  randomizeProp */\n      tag_168\n        /* \"contracts/EuclidFormula.sol\":3485:3526  randomizeProp(rnd, 0, '0123456789ABCDEF') */\n      jump\t// in\n    tag_167:\n        /* \"contracts/EuclidFormula.sol\":3466:3526  (rnd, propValue) = randomizeProp(rnd, 0, '0123456789ABCDEF') */\n      dup1\n      swap3\n      pop\n      dup2\n      swap12\n      pop\n      pop\n      pop\n        /* \"contracts/EuclidFormula.sol\":3557:3564  formula */\n      dup8\n        /* \"contracts/EuclidFormula.sol\":3573:3582  propValue */\n      dup2\n        /* \"contracts/EuclidFormula.sol\":3540:3583  abi.encodePacked(formula, '.rn', propValue) */\n      add(0x20, mload(0x40))\n      tag_169\n      swap3\n      swap2\n      swap1\n      tag_170\n      jump\t// in\n    tag_169:\n      mload(0x40)\n      0x20\n      dup2\n      dup4\n      sub\n      sub\n      dup2\n      mstore\n      swap1\n      0x40\n      mstore\n        /* \"contracts/EuclidFormula.sol\":3530:3583  formula = abi.encodePacked(formula, '.rn', propValue) */\n      swap8\n      pop\n        /* \"contracts/EuclidFormula.sol\":3606:3647  randomizeProp(rnd, 0, '0123456789ABCDEF') */\n      tag_171\n        /* \"contracts/EuclidFormula.sol\":3620:3623  rnd */\n      dup11\n        /* \"contracts/EuclidFormula.sol\":3625:3626  0 */\n      0x00\n        /* \"contracts/EuclidFormula.sol\":3606:3647  randomizeProp(rnd, 0, '0123456789ABCDEF') */\n      mload(0x40)\n      dup1\n      0x40\n      add\n      0x40\n      mstore\n      dup1\n      0x10\n      dup2\n      mstore\n      0x20\n      add\n      0x3031323334353637383941424344454600000000000000000000000000000000\n      dup2\n      mstore\n      pop\n        /* \"contracts/EuclidFormula.sol\":3606:3619  randomizeProp */\n      tag_168\n        /* \"contracts/EuclidFormula.sol\":3606:3647  randomizeProp(rnd, 0, '0123456789ABCDEF') */\n      jump\t// in\n    tag_171:\n        /* \"contracts/EuclidFormula.sol\":3587:3647  (rnd, propValue) = randomizeProp(rnd, 0, '0123456789ABCDEF') */\n      dup1\n      swap3\n      pop\n      dup2\n      swap12\n      pop\n      pop\n      pop\n        /* \"contracts/EuclidFormula.sol\":3678:3685  formula */\n      dup8\n        /* \"contracts/EuclidFormula.sol\":3687:3696  propValue */\n      dup2\n        /* \"contracts/EuclidFormula.sol\":3661:3697  abi.encodePacked(formula, propValue) */\n      add(0x20, mload(0x40))\n      tag_172\n      swap3\n      swap2\n      swap1\n      tag_132\n      jump\t// in\n    tag_172:\n      mload(0x40)\n      0x20\n      dup2\n      dup4\n      sub\n      sub\n      dup2\n      mstore\n      swap1\n      0x40\n      mstore\n        /* \"contracts/EuclidFormula.sol\":3651:3697  formula = abi.encodePacked(formula, propValue) */\n      swap8\n      pop\n        /* \"contracts/EuclidFormula.sol\":3728:3736  uint32 i */\n      0x00\n        /* \"contracts/EuclidFormula.sol\":3723:5727  for (uint32 i = 0; i < shapeCount ; i++) {... */\n    tag_173:\n        /* \"contracts/EuclidFormula.sol\":3746:3756  shapeCount */\n      dup7\n        /* \"contracts/EuclidFormula.sol\":3742:3756  i < shapeCount */\n      0xffffffff\n      and\n        /* \"contracts/EuclidFormula.sol\":3742:3743  i */\n      dup2\n        /* \"contracts/EuclidFormula.sol\":3742:3756  i < shapeCount */\n      0xffffffff\n      and\n      lt\n        /* \"contracts/EuclidFormula.sol\":3723:5727  for (uint32 i = 0; i < shapeCount ; i++) {... */\n      iszero\n      tag_174\n      jumpi\n        /* \"contracts/EuclidFormula.sol\":3786:3802  bytes1 baseShape */\n      0x00\n        /* \"contracts/EuclidFormula.sol\":3816:3817  0 */\n      dup1\n        /* \"contracts/EuclidFormula.sol\":3811:3812  i */\n      dup3\n        /* \"contracts/EuclidFormula.sol\":3811:3817  i == 0 */\n      0xffffffff\n      and\n      sub\n        /* \"contracts/EuclidFormula.sol\":3807:3984  if (i == 0) {... */\n      tag_176\n      jumpi\n        /* \"contracts/EuclidFormula.sol\":3837:3850  bytes('CTQP') */\n      mload(0x40)\n      dup1\n      0x40\n      add\n      0x40\n      mstore\n      dup1\n      0x04\n      dup2\n      mstore\n      0x20\n      add\n      0x4354515000000000000000000000000000000000000000000000000000000000\n      dup2\n      mstore\n      pop\n        /* \"contracts/EuclidFormula.sol\":3861:3871  supplyData */\n      dup12\n        /* \"contracts/EuclidFormula.sol\":3872:3873  1 */\n      0x01\n        /* \"contracts/EuclidFormula.sol\":3861:3874  supplyData[1] */\n      0x06\n      dup2\n      lt\n      tag_177\n      jumpi\n      tag_178\n      tag_27\n      jump\t// in\n    tag_178:\n    tag_177:\n      0x20\n      mul\n      add\n      mload\n        /* \"contracts/EuclidFormula.sol\":3851:3874  tokenId % supplyData[1] */\n      0xff\n      and\n        /* \"contracts/EuclidFormula.sol\":3851:3858  tokenId */\n      dup16\n        /* \"contracts/EuclidFormula.sol\":3851:3874  tokenId % supplyData[1] */\n      tag_179\n      swap2\n      swap1\n      tag_180\n      jump\t// in\n    tag_179:\n        /* \"contracts/EuclidFormula.sol\":3837:3875  bytes('CTQP')[tokenId % supplyData[1]] */\n      dup2\n      mload\n      dup2\n      lt\n      tag_181\n      jumpi\n      tag_182\n      tag_27\n      jump\t// in\n    tag_182:\n    tag_181:\n      0x20\n      add\n      add\n      mload\n      0xf8\n      shr\n      0xf8\n      shl\n        /* \"contracts/EuclidFormula.sol\":3825:3875  baseShape = bytes('CTQP')[tokenId % supplyData[1]] */\n      swap1\n      pop\n        /* \"contracts/EuclidFormula.sol\":3807:3984  if (i == 0) {... */\n      jump(tag_183)\n    tag_176:\n        /* \"contracts/EuclidFormula.sol\":3899:3909  randomizer */\n      0x00\n      dup1\n      sload\n      swap1\n      0x0100\n      exp\n      swap1\n      div\n      0xffffffffffffffffffffffffffffffffffffffff\n      and\n        /* \"contracts/EuclidFormula.sol\":3899:3916  randomizer.getInt */\n      0xffffffffffffffffffffffffffffffffffffffff\n      and\n      0x591e5735\n        /* \"contracts/EuclidFormula.sol\":3917:3920  rnd */\n      dup14\n        /* \"contracts/EuclidFormula.sol\":3922:3932  supplyData */\n      dup14\n        /* \"contracts/EuclidFormula.sol\":3933:3934  1 */\n      0x01\n        /* \"contracts/EuclidFormula.sol\":3922:3935  supplyData[1] */\n      0x06\n      dup2\n      lt\n      tag_184\n      jumpi\n      tag_185\n      tag_27\n      jump\t// in\n    tag_185:\n    tag_184:\n      0x20\n      mul\n      add\n      mload\n        /* \"contracts/EuclidFormula.sol\":3899:3936  randomizer.getInt(rnd, supplyData[1]) */\n      mload(0x40)\n      dup4\n      0xffffffff\n      and\n      0xe0\n      shl\n      dup2\n      mstore\n      0x04\n      add\n      tag_186\n      swap3\n      swap2\n      swap1\n      tag_29\n      jump\t// in\n    tag_186:\n      0xa0\n      mload(0x40)\n      dup1\n      dup4\n      sub\n      dup2\n      dup7\n      gas\n      staticcall\n      iszero\n      dup1\n      iszero\n      tag_188\n      jumpi\n      returndatasize\n      0x00\n      dup1\n      returndatacopy\n      revert(0x00, returndatasize)\n    tag_188:\n      pop\n      pop\n      pop\n      pop\n      mload(0x40)\n      returndatasize\n      not(0x1f)\n      0x1f\n      dup3\n      add\n      and\n      dup3\n      add\n      dup1\n      0x40\n      mstore\n      pop\n      dup2\n      add\n      swap1\n      tag_189\n      swap2\n      swap1\n      tag_23\n      jump\t// in\n    tag_189:\n        /* \"contracts/EuclidFormula.sol\":3893:3936  rnd = randomizer.getInt(rnd, supplyData[1]) */\n      swap12\n      pop\n        /* \"contracts/EuclidFormula.sol\":3954:3967  bytes('CTQP') */\n      mload(0x40)\n      dup1\n      0x40\n      add\n      0x40\n      mstore\n      dup1\n      0x04\n      dup2\n      mstore\n      0x20\n      add\n      0x4354515000000000000000000000000000000000000000000000000000000000\n      dup2\n      mstore\n      pop\n        /* \"contracts/EuclidFormula.sol\":3968:3971  rnd */\n      dup13\n        /* \"contracts/EuclidFormula.sol\":3968:3977  rnd.value */\n      0x20\n      add\n      mload\n        /* \"contracts/EuclidFormula.sol\":3954:3978  bytes('CTQP')[rnd.value] */\n      0xffffffff\n      and\n      dup2\n      mload\n      dup2\n      lt\n      tag_190\n      jumpi\n      tag_191\n      tag_27\n      jump\t// in\n    tag_191:\n    tag_190:\n      0x20\n      add\n      add\n      mload\n      0xf8\n      shr\n      0xf8\n      shl\n        /* \"contracts/EuclidFormula.sol\":3942:3978  baseShape = bytes('CTQP')[rnd.value] */\n      swap1\n      pop\n        /* \"contracts/EuclidFormula.sol\":3807:3984  if (i == 0) {... */\n    tag_183:\n        /* \"contracts/EuclidFormula.sol\":3994:4004  randomizer */\n      0x00\n      dup1\n      sload\n      swap1\n      0x0100\n      exp\n      swap1\n      div\n      0xffffffffffffffffffffffffffffffffffffffff\n      and\n        /* \"contracts/EuclidFormula.sol\":3994:4011  randomizer.getInt */\n      0xffffffffffffffffffffffffffffffffffffffff\n      and\n      0x591e5735\n        /* \"contracts/EuclidFormula.sol\":4012:4015  rnd */\n      dup14\n        /* \"contracts/EuclidFormula.sol\":4017:4027  supplyData */\n      dup14\n        /* \"contracts/EuclidFormula.sol\":4028:4029  4 */\n      0x04\n        /* \"contracts/EuclidFormula.sol\":4017:4030  supplyData[4] */\n      0x06\n      dup2\n      lt\n      tag_192\n      jumpi\n      tag_193\n      tag_27\n      jump\t// in\n    tag_193:\n    tag_192:\n      0x20\n      mul\n      add\n      mload\n        /* \"contracts/EuclidFormula.sol\":3994:4031  randomizer.getInt(rnd, supplyData[4]) */\n      mload(0x40)\n      dup4\n      0xffffffff\n      and\n      0xe0\n      shl\n      dup2\n      mstore\n      0x04\n      add\n      tag_194\n      swap3\n      swap2\n      swap1\n      tag_29\n      jump\t// in\n    tag_194:\n      0xa0\n      mload(0x40)\n      dup1\n      dup4\n      sub\n      dup2\n      dup7\n      gas\n      staticcall\n      iszero\n      dup1\n      iszero\n      tag_196\n      jumpi\n      returndatasize\n      0x00\n      dup1\n      returndatacopy\n      revert(0x00, returndatasize)\n    tag_196:\n      pop\n      pop\n      pop\n      pop\n      mload(0x40)\n      returndatasize\n      not(0x1f)\n      0x1f\n      dup3\n      add\n      and\n      dup3\n      add\n      dup1\n      0x40\n      mstore\n      pop\n      dup2\n      add\n      swap1\n      tag_197\n      swap2\n      swap1\n      tag_23\n      jump\t// in\n    tag_197:\n        /* \"contracts/EuclidFormula.sol\":3988:4031  rnd = randomizer.getInt(rnd, supplyData[4]) */\n      swap12\n      pop\n        /* \"contracts/EuclidFormula.sol\":4036:4055  bytes1 shapeVariant */\n      0x00\n        /* \"contracts/EuclidFormula.sol\":4064:4078  baseShape=='T' */\n      0x5400000000000000000000000000000000000000000000000000000000000000\n        /* \"contracts/EuclidFormula.sol\":4064:4073  baseShape */\n      dup3\n        /* \"contracts/EuclidFormula.sol\":4064:4078  baseShape=='T' */\n      not(0xffffffffffffffffffffffffffffffffffffffffffffffffffffffffffffff)\n      and\n      eq\n        /* \"contracts/EuclidFormula.sol\":4064:4152  baseShape=='T'?'04261537':baseShape=='Q'?'00112200':baseShape=='P'?'56678865':'00000000' */\n      tag_198\n      jumpi\n        /* \"contracts/EuclidFormula.sol\":4090:4104  baseShape=='Q' */\n      0x5100000000000000000000000000000000000000000000000000000000000000\n        /* \"contracts/EuclidFormula.sol\":4090:4099  baseShape */\n      dup3\n        /* \"contracts/EuclidFormula.sol\":4090:4104  baseShape=='Q' */\n      not(0xffffffffffffffffffffffffffffffffffffffffffffffffffffffffffffff)\n      and\n      eq\n        /* \"contracts/EuclidFormula.sol\":4090:4152  baseShape=='Q'?'00112200':baseShape=='P'?'56678865':'00000000' */\n      tag_199\n      jumpi\n        /* \"contracts/EuclidFormula.sol\":4116:4130  baseShape=='P' */\n      0x5000000000000000000000000000000000000000000000000000000000000000\n        /* \"contracts/EuclidFormula.sol\":4116:4125  baseShape */\n      dup3\n        /* \"contracts/EuclidFormula.sol\":4116:4130  baseShape=='P' */\n      not(0xffffffffffffffffffffffffffffffffffffffffffffffffffffffffffffff)\n      and\n      eq\n        /* \"contracts/EuclidFormula.sol\":4116:4152  baseShape=='P'?'56678865':'00000000' */\n      tag_200\n      jumpi\n      mload(0x40)\n      dup1\n      0x40\n      add\n      0x40\n      mstore\n      dup1\n      0x08\n      dup2\n      mstore\n      0x20\n      add\n      0x3030303030303030000000000000000000000000000000000000000000000000\n      dup2\n      mstore\n      pop\n      jump(tag_201)\n    tag_200:\n      mload(0x40)\n      dup1\n      0x40\n      add\n      0x40\n      mstore\n      dup1\n      0x08\n      dup2\n      mstore\n      0x20\n      add\n      0x3536363738383635000000000000000000000000000000000000000000000000\n      dup2\n      mstore\n      pop\n    tag_201:\n        /* \"contracts/EuclidFormula.sol\":4090:4152  baseShape=='Q'?'00112200':baseShape=='P'?'56678865':'00000000' */\n      jump(tag_202)\n    tag_199:\n      mload(0x40)\n      dup1\n      0x40\n      add\n      0x40\n      mstore\n      dup1\n      0x08\n      dup2\n      mstore\n      0x20\n      add\n      0x3030313132323030000000000000000000000000000000000000000000000000\n      dup2\n      mstore\n      pop\n    tag_202:\n        /* \"contracts/EuclidFormula.sol\":4064:4152  baseShape=='T'?'04261537':baseShape=='Q'?'00112200':baseShape=='P'?'56678865':'00000000' */\n      jump(tag_203)\n    tag_198:\n      mload(0x40)\n      dup1\n      0x40\n      add\n      0x40\n      mstore\n      dup1\n      0x08\n      dup2\n      mstore\n      0x20\n      add\n      0x3034323631353337000000000000000000000000000000000000000000000000\n      dup2\n      mstore\n      pop\n    tag_203:\n        /* \"contracts/EuclidFormula.sol\":4154:4157  rnd */\n      dup14\n        /* \"contracts/EuclidFormula.sol\":4154:4163  rnd.value */\n      0x20\n      add\n      mload\n        /* \"contracts/EuclidFormula.sol\":4058:4164  bytes(baseShape=='T'?'04261537':baseShape=='Q'?'00112200':baseShape=='P'?'56678865':'00000000')[rnd.value] */\n      0xffffffff\n      and\n      dup2\n      mload\n      dup2\n      lt\n      tag_204\n      jumpi\n      tag_205\n      tag_27\n      jump\t// in\n    tag_205:\n    tag_204:\n      0x20\n      add\n      add\n      mload\n      0xf8\n      shr\n      0xf8\n      shl\n        /* \"contracts/EuclidFormula.sol\":4036:4164  bytes1 shapeVariant = bytes(baseShape=='T'?'04261537':baseShape=='Q'?'00112200':baseShape=='P'?'56678865':'00000000')[rnd.value] */\n      swap1\n      pop\n        /* \"contracts/EuclidFormula.sol\":4196:4203  formula */\n      dup11\n        /* \"contracts/EuclidFormula.sol\":4212:4221  baseShape */\n      dup3\n        /* \"contracts/EuclidFormula.sol\":4223:4235  shapeVariant */\n      dup3\n        /* \"contracts/EuclidFormula.sol\":4179:4236  abi.encodePacked(formula, '.sh', baseShape, shapeVariant) */\n      add(0x20, mload(0x40))\n      tag_206\n      swap4\n      swap3\n      swap2\n      swap1\n      tag_207\n      jump\t// in\n    tag_206:\n      mload(0x40)\n      0x20\n      dup2\n      dup4\n      sub\n      sub\n      dup2\n      mstore\n      swap1\n      0x40\n      mstore\n        /* \"contracts/EuclidFormula.sol\":4169:4236  formula = abi.encodePacked(formula, '.sh', baseShape, shapeVariant) */\n      swap11\n      pop\n        /* \"contracts/EuclidFormula.sol\":4249:4250  0 */\n      0x00\n        /* \"contracts/EuclidFormula.sol\":4245:4246  i */\n      dup4\n        /* \"contracts/EuclidFormula.sol\":4245:4250  i > 0 */\n      0xffffffff\n      and\n      gt\n        /* \"contracts/EuclidFormula.sol\":4241:4752  if (i > 0) {... */\n      iszero\n      tag_208\n      jumpi\n        /* \"contracts/EuclidFormula.sol\":4293:4334  randomizeProp(rnd, 0, 'FFCCMMMMMMMIIAAA') */\n      tag_209\n        /* \"contracts/EuclidFormula.sol\":4307:4310  rnd */\n      dup14\n        /* \"contracts/EuclidFormula.sol\":4312:4313  0 */\n      0x00\n        /* \"contracts/EuclidFormula.sol\":4293:4334  randomizeProp(rnd, 0, 'FFCCMMMMMMMIIAAA') */\n      mload(0x40)\n      dup1\n      0x40\n      add\n      0x40\n      mstore\n      dup1\n      0x10\n      dup2\n      mstore\n      0x20\n      add\n      0x464643434d4d4d4d4d4d4d494941414100000000000000000000000000000000\n      dup2\n      mstore\n      pop\n        /* \"contracts/EuclidFormula.sol\":4293:4306  randomizeProp */\n      tag_168\n        /* \"contracts/EuclidFormula.sol\":4293:4334  randomizeProp(rnd, 0, 'FFCCMMMMMMMIIAAA') */\n      jump\t// in\n    tag_209:\n        /* \"contracts/EuclidFormula.sol\":4274:4334  (rnd, propValue) = randomizeProp(rnd, 0, 'FFCCMMMMMMMIIAAA') */\n      dup1\n      swap6\n      pop\n      dup2\n      swap15\n      pop\n      pop\n      pop\n        /* \"contracts/EuclidFormula.sol\":4367:4374  formula */\n      dup11\n        /* \"contracts/EuclidFormula.sol\":4382:4391  propValue */\n      dup5\n        /* \"contracts/EuclidFormula.sol\":4350:4392  abi.encodePacked(formula, 'fr', propValue) */\n      add(0x20, mload(0x40))\n      tag_210\n      swap3\n      swap2\n      swap1\n      tag_211\n      jump\t// in\n    tag_210:\n      mload(0x40)\n      0x20\n      dup2\n      dup4\n      sub\n      sub\n      dup2\n      mstore\n      swap1\n      0x40\n      mstore\n        /* \"contracts/EuclidFormula.sol\":4340:4392  formula = abi.encodePacked(formula, 'fr', propValue) */\n      swap11\n      pop\n        /* \"contracts/EuclidFormula.sol\":4417:4458  randomizeProp(rnd, 0, '0123456789ABCDEF') */\n      tag_212\n        /* \"contracts/EuclidFormula.sol\":4431:4434  rnd */\n      dup14\n        /* \"contracts/EuclidFormula.sol\":4436:4437  0 */\n      0x00\n        /* \"contracts/EuclidFormula.sol\":4417:4458  randomizeProp(rnd, 0, '0123456789ABCDEF') */\n      mload(0x40)\n      dup1\n      0x40\n      add\n      0x40\n      mstore\n      dup1\n      0x10\n      dup2\n      mstore\n      0x20\n      add\n      0x3031323334353637383941424344454600000000000000000000000000000000\n      dup2\n      mstore\n      pop\n        /* \"contracts/EuclidFormula.sol\":4417:4430  randomizeProp */\n      tag_168\n        /* \"contracts/EuclidFormula.sol\":4417:4458  randomizeProp(rnd, 0, '0123456789ABCDEF') */\n      jump\t// in\n    tag_212:\n        /* \"contracts/EuclidFormula.sol\":4398:4458  (rnd, propValue) = randomizeProp(rnd, 0, '0123456789ABCDEF') */\n      dup1\n      swap6\n      pop\n      dup2\n      swap15\n      pop\n      pop\n      pop\n        /* \"contracts/EuclidFormula.sol\":4491:4498  formula */\n      dup11\n        /* \"contracts/EuclidFormula.sol\":4500:4509  propValue */\n      dup5\n        /* \"contracts/EuclidFormula.sol\":4474:4510  abi.encodePacked(formula, propValue) */\n      add(0x20, mload(0x40))\n      tag_213\n      swap3\n      swap2\n      swap1\n      tag_132\n      jump\t// in\n    tag_213:\n      mload(0x40)\n      0x20\n      dup2\n      dup4\n      sub\n      sub\n      dup2\n      mstore\n      swap1\n      0x40\n      mstore\n        /* \"contracts/EuclidFormula.sol\":4464:4510  formula = abi.encodePacked(formula, propValue) */\n      swap11\n      pop\n        /* \"contracts/EuclidFormula.sol\":4535:4576  randomizeProp(rnd, 0, '0123456789ABCDEF') */\n      tag_214\n        /* \"contracts/EuclidFormula.sol\":4549:4552  rnd */\n      dup14\n        /* \"contracts/EuclidFormula.sol\":4554:4555  0 */\n      0x00\n        /* \"contracts/EuclidFormula.sol\":4535:4576  randomizeProp(rnd, 0, '0123456789ABCDEF') */\n      mload(0x40)\n      dup1\n      0x40\n      add\n      0x40\n      mstore\n      dup1\n      0x10\n      dup2\n      mstore\n      0x20\n      add\n      0x3031323334353637383941424344454600000000000000000000000000000000\n      dup2\n      mstore\n      pop\n        /* \"contracts/EuclidFormula.sol\":4535:4548  randomizeProp */\n      tag_168\n        /* \"contracts/EuclidFormula.sol\":4535:4576  randomizeProp(rnd, 0, '0123456789ABCDEF') */\n      jump\t// in\n    tag_214:\n        /* \"contracts/EuclidFormula.sol\":4516:4576  (rnd, propValue) = randomizeProp(rnd, 0, '0123456789ABCDEF') */\n      dup1\n      swap6\n      pop\n      dup2\n      swap15\n      pop\n      pop\n      pop\n        /* \"contracts/EuclidFormula.sol\":4609:4616  formula */\n      dup11\n        /* \"contracts/EuclidFormula.sol\":4618:4627  propValue */\n      dup5\n        /* \"contracts/EuclidFormula.sol\":4592:4628  abi.encodePacked(formula, propValue) */\n      add(0x20, mload(0x40))\n      tag_215\n      swap3\n      swap2\n      swap1\n      tag_132\n      jump\t// in\n    tag_215:\n      mload(0x40)\n      0x20\n      dup2\n      dup4\n      sub\n      sub\n      dup2\n      mstore\n      swap1\n      0x40\n      mstore\n        /* \"contracts/EuclidFormula.sol\":4582:4628  formula = abi.encodePacked(formula, propValue) */\n      swap11\n      pop\n        /* \"contracts/EuclidFormula.sol\":4653:4694  randomizeProp(rnd, 0, '0123456789ABCDEF') */\n      tag_216\n        /* \"contracts/EuclidFormula.sol\":4667:4670  rnd */\n      dup14\n        /* \"contracts/EuclidFormula.sol\":4672:4673  0 */\n      0x00\n        /* \"contracts/EuclidFormula.sol\":4653:4694  randomizeProp(rnd, 0, '0123456789ABCDEF') */\n      mload(0x40)\n      dup1\n      0x40\n      add\n      0x40\n      mstore\n      dup1\n      0x10\n      dup2\n      mstore\n      0x20\n      add\n      0x3031323334353637383941424344454600000000000000000000000000000000\n      dup2\n      mstore\n      pop\n        /* \"contracts/EuclidFormula.sol\":4653:4666  randomizeProp */\n      tag_168\n        /* \"contracts/EuclidFormula.sol\":4653:4694  randomizeProp(rnd, 0, '0123456789ABCDEF') */\n      jump\t// in\n    tag_216:\n        /* \"contracts/EuclidFormula.sol\":4634:4694  (rnd, propValue) = randomizeProp(rnd, 0, '0123456789ABCDEF') */\n      dup1\n      swap6\n      pop\n      dup2\n      swap15\n      pop\n      pop\n      pop\n        /* \"contracts/EuclidFormula.sol\":4727:4734  formula */\n      dup11\n        /* \"contracts/EuclidFormula.sol\":4736:4745  propValue */\n      dup5\n        /* \"contracts/EuclidFormula.sol\":4710:4746  abi.encodePacked(formula, propValue) */\n      add(0x20, mload(0x40))\n      tag_217\n      swap3\n      swap2\n      swap1\n      tag_132\n      jump\t// in\n    tag_217:\n      mload(0x40)\n      0x20\n      dup2\n      dup4\n      sub\n      sub\n      dup2\n      mstore\n      swap1\n      0x40\n      mstore\n        /* \"contracts/EuclidFormula.sol\":4700:4746  formula = abi.encodePacked(formula, propValue) */\n      swap11\n      pop\n        /* \"contracts/EuclidFormula.sol\":4241:4752  if (i > 0) {... */\n    tag_208:\n        /* \"contracts/EuclidFormula.sol\":4790:4819  randomizeProp(rnd, 0, 'SDDT') */\n      tag_218\n        /* \"contracts/EuclidFormula.sol\":4804:4807  rnd */\n      dup14\n        /* \"contracts/EuclidFormula.sol\":4809:4810  0 */\n      0x00\n        /* \"contracts/EuclidFormula.sol\":4790:4819  randomizeProp(rnd, 0, 'SDDT') */\n      mload(0x40)\n      dup1\n      0x40\n      add\n      0x40\n      mstore\n      dup1\n      0x04\n      dup2\n      mstore\n      0x20\n      add\n      0x5344445400000000000000000000000000000000000000000000000000000000\n      dup2\n      mstore\n      pop\n        /* \"contracts/EuclidFormula.sol\":4790:4803  randomizeProp */\n      tag_168\n        /* \"contracts/EuclidFormula.sol\":4790:4819  randomizeProp(rnd, 0, 'SDDT') */\n      jump\t// in\n    tag_218:\n        /* \"contracts/EuclidFormula.sol\":4771:4819  (rnd, propValue) = randomizeProp(rnd, 0, 'SDDT') */\n      dup1\n      swap6\n      pop\n      dup2\n      swap15\n      pop\n      pop\n      pop\n        /* \"contracts/EuclidFormula.sol\":4851:4858  formula */\n      dup11\n        /* \"contracts/EuclidFormula.sol\":4866:4875  propValue */\n      dup5\n        /* \"contracts/EuclidFormula.sol\":4834:4876  abi.encodePacked(formula, 'in', propValue) */\n      add(0x20, mload(0x40))\n      tag_219\n      swap3\n      swap2\n      swap1\n      tag_220\n      jump\t// in\n    tag_219:\n      mload(0x40)\n      0x20\n      dup2\n      dup4\n      sub\n      sub\n      dup2\n      mstore\n      swap1\n      0x40\n      mstore\n        /* \"contracts/EuclidFormula.sol\":4824:4876  formula = abi.encodePacked(formula, 'in', propValue) */\n      swap11\n      pop\n        /* \"contracts/EuclidFormula.sol\":4900:4941  randomizeProp(rnd, 0, '0123456789ABCDEF') */\n      tag_221\n        /* \"contracts/EuclidFormula.sol\":4914:4917  rnd */\n      dup14\n        /* \"contracts/EuclidFormula.sol\":4919:4920  0 */\n      0x00\n        /* \"contracts/EuclidFormula.sol\":4900:4941  randomizeProp(rnd, 0, '0123456789ABCDEF') */\n      mload(0x40)\n      dup1\n      0x40\n      add\n      0x40\n      mstore\n      dup1\n      0x10\n      dup2\n      mstore\n      0x20\n      add\n      0x3031323334353637383941424344454600000000000000000000000000000000\n      dup2\n      mstore\n      pop\n        /* \"contracts/EuclidFormula.sol\":4900:4913  randomizeProp */\n      tag_168\n        /* \"contracts/EuclidFormula.sol\":4900:4941  randomizeProp(rnd, 0, '0123456789ABCDEF') */\n      jump\t// in\n    tag_221:\n        /* \"contracts/EuclidFormula.sol\":4881:4941  (rnd, propValue) = randomizeProp(rnd, 0, '0123456789ABCDEF') */\n      dup1\n      swap6\n      pop\n      dup2\n      swap15\n      pop\n      pop\n      pop\n        /* \"contracts/EuclidFormula.sol\":4973:4980  formula */\n      dup11\n        /* \"contracts/EuclidFormula.sol\":4982:4991  propValue */\n      dup5\n        /* \"contracts/EuclidFormula.sol\":4956:4992  abi.encodePacked(formula, propValue) */\n      add(0x20, mload(0x40))\n      tag_222\n      swap3\n      swap2\n      swap1\n      tag_132\n      jump\t// in\n    tag_222:\n      mload(0x40)\n      0x20\n      dup2\n      dup4\n      sub\n      sub\n      dup2\n      mstore\n      swap1\n      0x40\n      mstore\n        /* \"contracts/EuclidFormula.sol\":4946:4992  formula = abi.encodePacked(formula, propValue) */\n      swap11\n      pop\n        /* \"contracts/EuclidFormula.sol\":5016:5057  randomizeProp(rnd, 0, '0123456789ABCDEF') */\n      tag_223\n        /* \"contracts/EuclidFormula.sol\":5030:5033  rnd */\n      dup14\n        /* \"contracts/EuclidFormula.sol\":5035:5036  0 */\n      0x00\n        /* \"contracts/EuclidFormula.sol\":5016:5057  randomizeProp(rnd, 0, '0123456789ABCDEF') */\n      mload(0x40)\n      dup1\n      0x40\n      add\n      0x40\n      mstore\n      dup1\n      0x10\n      dup2\n      mstore\n      0x20\n      add\n      0x3031323334353637383941424344454600000000000000000000000000000000\n      dup2\n      mstore\n      pop\n        /* \"contracts/EuclidFormula.sol\":5016:5029  randomizeProp */\n      tag_168\n        /* \"contracts/EuclidFormula.sol\":5016:5057  randomizeProp(rnd, 0, '0123456789ABCDEF') */\n      jump\t// in\n    tag_223:\n        /* \"contracts/EuclidFormula.sol\":4997:5057  (rnd, propValue) = randomizeProp(rnd, 0, '0123456789ABCDEF') */\n      dup1\n      swap6\n      pop\n      dup2\n      swap15\n      pop\n      pop\n      pop\n        /* \"contracts/EuclidFormula.sol\":5089:5096  formula */\n      dup11\n        /* \"contracts/EuclidFormula.sol\":5098:5107  propValue */\n      dup5\n        /* \"contracts/EuclidFormula.sol\":5072:5108  abi.encodePacked(formula, propValue) */\n      add(0x20, mload(0x40))\n      tag_224\n      swap3\n      swap2\n      swap1\n      tag_132\n      jump\t// in\n    tag_224:\n      mload(0x40)\n      0x20\n      dup2\n      dup4\n      sub\n      sub\n      dup2\n      mstore\n      swap1\n      0x40\n      mstore\n        /* \"contracts/EuclidFormula.sol\":5062:5108  formula = abi.encodePacked(formula, propValue) */\n      swap11\n      pop\n        /* \"contracts/EuclidFormula.sol\":5147:5184  drawProp(rnd, drawing++, draw, '012') */\n      tag_225\n        /* \"contracts/EuclidFormula.sol\":5156:5159  rnd */\n      dup14\n        /* \"contracts/EuclidFormula.sol\":5161:5170  drawing++ */\n      dup7\n      dup1\n      tag_226\n      swap1\n      tag_85\n      jump\t// in\n    tag_226:\n      swap8\n      pop\n        /* \"contracts/EuclidFormula.sol\":5172:5176  draw */\n      dup9\n        /* \"contracts/EuclidFormula.sol\":5147:5184  drawProp(rnd, drawing++, draw, '012') */\n      mload(0x40)\n      dup1\n      0x40\n      add\n      0x40\n      mstore\n      dup1\n      0x03\n      dup2\n      mstore\n      0x20\n      add\n      0x3031320000000000000000000000000000000000000000000000000000000000\n      dup2\n      mstore\n      pop\n        /* \"contracts/EuclidFormula.sol\":5147:5155  drawProp */\n      tag_104\n        /* \"contracts/EuclidFormula.sol\":5147:5184  drawProp(rnd, drawing++, draw, '012') */\n      jump\t// in\n    tag_225:\n        /* \"contracts/EuclidFormula.sol\":5128:5184  (rnd, propValue) = drawProp(rnd, drawing++, draw, '012') */\n      dup1\n      swap6\n      pop\n      dup2\n      swap15\n      pop\n      pop\n      pop\n        /* \"contracts/EuclidFormula.sol\":5216:5223  formula */\n      dup11\n        /* \"contracts/EuclidFormula.sol\":5231:5240  propValue */\n      dup5\n        /* \"contracts/EuclidFormula.sol\":5199:5241  abi.encodePacked(formula, 'st', propValue) */\n      add(0x20, mload(0x40))\n      tag_227\n      swap3\n      swap2\n      swap1\n      tag_228\n      jump\t// in\n    tag_227:\n      mload(0x40)\n      0x20\n      dup2\n      dup4\n      sub\n      sub\n      dup2\n      mstore\n      swap1\n      0x40\n      mstore\n        /* \"contracts/EuclidFormula.sol\":5189:5241  formula = abi.encodePacked(formula, 'st', propValue) */\n      swap11\n      pop\n        /* \"contracts/EuclidFormula.sol\":5265:5303  drawProp(rnd, drawing++, draw, '0123') */\n      tag_229\n        /* \"contracts/EuclidFormula.sol\":5274:5277  rnd */\n      dup14\n        /* \"contracts/EuclidFormula.sol\":5279:5288  drawing++ */\n      dup7\n      dup1\n      tag_230\n      swap1\n      tag_85\n      jump\t// in\n    tag_230:\n      swap8\n      pop\n        /* \"contracts/EuclidFormula.sol\":5290:5294  draw */\n      dup9\n        /* \"contracts/EuclidFormula.sol\":5265:5303  drawProp(rnd, drawing++, draw, '0123') */\n      mload(0x40)\n      dup1\n      0x40\n      add\n      0x40\n      mstore\n      dup1\n      0x04\n      dup2\n      mstore\n      0x20\n      add\n      0x3031323300000000000000000000000000000000000000000000000000000000\n      dup2\n      mstore\n      pop\n        /* \"contracts/EuclidFormula.sol\":5265:5273  drawProp */\n      tag_104\n        /* \"contracts/EuclidFormula.sol\":5265:5303  drawProp(rnd, drawing++, draw, '0123') */\n      jump\t// in\n    tag_229:\n        /* \"contracts/EuclidFormula.sol\":5246:5303  (rnd, propValue) = drawProp(rnd, drawing++, draw, '0123') */\n      dup1\n      swap6\n      pop\n      dup2\n      swap15\n      pop\n      pop\n      pop\n        /* \"contracts/EuclidFormula.sol\":5335:5342  formula */\n      dup11\n        /* \"contracts/EuclidFormula.sol\":5344:5353  propValue */\n      dup5\n        /* \"contracts/EuclidFormula.sol\":5318:5354  abi.encodePacked(formula, propValue) */\n      add(0x20, mload(0x40))\n      tag_231\n      swap3\n      swap2\n      swap1\n      tag_132\n      jump\t// in\n    tag_231:\n      mload(0x40)\n      0x20\n      dup2\n      dup4\n      sub\n      sub\n      dup2\n      mstore\n      swap1\n      0x40\n      mstore\n        /* \"contracts/EuclidFormula.sol\":5308:5354  formula = abi.encodePacked(formula, propValue) */\n      swap11\n      pop\n        /* \"contracts/EuclidFormula.sol\":5378:5418  drawProp(rnd, drawing++, draw, '011223') */\n      tag_232\n        /* \"contracts/EuclidFormula.sol\":5387:5390  rnd */\n      dup14\n        /* \"contracts/EuclidFormula.sol\":5392:5401  drawing++ */\n      dup7\n      dup1\n      tag_233\n      swap1\n      tag_85\n      jump\t// in\n    tag_233:\n      swap8\n      pop\n        /* \"contracts/EuclidFormula.sol\":5403:5407  draw */\n      dup9\n        /* \"contracts/EuclidFormula.sol\":5378:5418  drawProp(rnd, drawing++, draw, '011223') */\n      mload(0x40)\n      dup1\n      0x40\n      add\n      0x40\n      mstore\n      dup1\n      0x06\n      dup2\n      mstore\n      0x20\n      add\n      0x3031313232330000000000000000000000000000000000000000000000000000\n      dup2\n      mstore\n      pop\n        /* \"contracts/EuclidFormula.sol\":5378:5386  drawProp */\n      tag_104\n        /* \"contracts/EuclidFormula.sol\":5378:5418  drawProp(rnd, drawing++, draw, '011223') */\n      jump\t// in\n    tag_232:\n        /* \"contracts/EuclidFormula.sol\":5359:5418  (rnd, propValue) = drawProp(rnd, drawing++, draw, '011223') */\n      dup1\n      swap6\n      pop\n      dup2\n      swap15\n      pop\n      pop\n      pop\n        /* \"contracts/EuclidFormula.sol\":5450:5457  formula */\n      dup11\n        /* \"contracts/EuclidFormula.sol\":5459:5468  propValue */\n      dup5\n        /* \"contracts/EuclidFormula.sol\":5433:5469  abi.encodePacked(formula, propValue) */\n      add(0x20, mload(0x40))\n      tag_234\n      swap3\n      swap2\n      swap1\n      tag_132\n      jump\t// in\n    tag_234:\n      mload(0x40)\n      0x20\n      dup2\n      dup4\n      sub\n      sub\n      dup2\n      mstore\n      swap1\n      0x40\n      mstore\n        /* \"contracts/EuclidFormula.sol\":5423:5469  formula = abi.encodePacked(formula, propValue) */\n      swap11\n      pop\n        /* \"contracts/EuclidFormula.sol\":5508:5549  randomizeProp(rnd, 0, '0123456789ABCDEF') */\n      tag_235\n        /* \"contracts/EuclidFormula.sol\":5522:5525  rnd */\n      dup14\n        /* \"contracts/EuclidFormula.sol\":5527:5528  0 */\n      0x00\n        /* \"contracts/EuclidFormula.sol\":5508:5549  randomizeProp(rnd, 0, '0123456789ABCDEF') */\n      mload(0x40)\n      dup1\n      0x40\n      add\n      0x40\n      mstore\n      dup1\n      0x10\n      dup2\n      mstore\n      0x20\n      add\n      0x3031323334353637383941424344454600000000000000000000000000000000\n      dup2\n      mstore\n      pop\n        /* \"contracts/EuclidFormula.sol\":5508:5521  randomizeProp */\n      tag_168\n        /* \"contracts/EuclidFormula.sol\":5508:5549  randomizeProp(rnd, 0, '0123456789ABCDEF') */\n      jump\t// in\n    tag_235:\n        /* \"contracts/EuclidFormula.sol\":5489:5549  (rnd, propValue) = randomizeProp(rnd, 0, '0123456789ABCDEF') */\n      dup1\n      swap6\n      pop\n      dup2\n      swap15\n      pop\n      pop\n      pop\n        /* \"contracts/EuclidFormula.sol\":5581:5588  formula */\n      dup11\n        /* \"contracts/EuclidFormula.sol\":5596:5605  propValue */\n      dup5\n        /* \"contracts/EuclidFormula.sol\":5564:5606  abi.encodePacked(formula, 'rn', propValue) */\n      add(0x20, mload(0x40))\n      tag_236\n      swap3\n      swap2\n      swap1\n      tag_237\n      jump\t// in\n    tag_236:\n      mload(0x40)\n      0x20\n      dup2\n      dup4\n      sub\n      sub\n      dup2\n      mstore\n      swap1\n      0x40\n      mstore\n        /* \"contracts/EuclidFormula.sol\":5554:5606  formula = abi.encodePacked(formula, 'rn', propValue) */\n      swap11\n      pop\n        /* \"contracts/EuclidFormula.sol\":5630:5671  randomizeProp(rnd, 0, '0123456789ABCDEF') */\n      tag_238\n        /* \"contracts/EuclidFormula.sol\":5644:5647  rnd */\n      dup14\n        /* \"contracts/EuclidFormula.sol\":5649:5650  0 */\n      0x00\n        /* \"contracts/EuclidFormula.sol\":5630:5671  randomizeProp(rnd, 0, '0123456789ABCDEF') */\n      mload(0x40)\n      dup1\n      0x40\n      add\n      0x40\n      mstore\n      dup1\n      0x10\n      dup2\n      mstore\n      0x20\n      add\n      0x3031323334353637383941424344454600000000000000000000000000000000\n      dup2\n      mstore\n      pop\n        /* \"contracts/EuclidFormula.sol\":5630:5643  randomizeProp */\n      tag_168\n        /* \"contracts/EuclidFormula.sol\":5630:5671  randomizeProp(rnd, 0, '0123456789ABCDEF') */\n      jump\t// in\n    tag_238:\n        /* \"contracts/EuclidFormula.sol\":5611:5671  (rnd, propValue) = randomizeProp(rnd, 0, '0123456789ABCDEF') */\n      dup1\n      swap6\n      pop\n      dup2\n      swap15\n      pop\n      pop\n      pop\n        /* \"contracts/EuclidFormula.sol\":5703:5710  formula */\n      dup11\n        /* \"contracts/EuclidFormula.sol\":5712:5721  propValue */\n      dup5\n        /* \"contracts/EuclidFormula.sol\":5686:5722  abi.encodePacked(formula, propValue) */\n      add(0x20, mload(0x40))\n      tag_239\n      swap3\n      swap2\n      swap1\n      tag_132\n      jump\t// in\n    tag_239:\n      mload(0x40)\n      0x20\n      dup2\n      dup4\n      sub\n      sub\n      dup2\n      mstore\n      swap1\n      0x40\n      mstore\n        /* \"contracts/EuclidFormula.sol\":5676:5722  formula = abi.encodePacked(formula, propValue) */\n      swap11\n      pop\n        /* \"contracts/EuclidFormula.sol\":3764:5727  {... */\n      pop\n      pop\n        /* \"contracts/EuclidFormula.sol\":3759:3762  i++ */\n      dup1\n      dup1\n      tag_240\n      swap1\n      tag_67\n      jump\t// in\n    tag_240:\n      swap2\n      pop\n      pop\n        /* \"contracts/EuclidFormula.sol\":3723:5727  for (uint32 i = 0; i < shapeCount ; i++) {... */\n      jump(tag_173)\n    tag_174:\n      pop\n        /* \"contracts/EuclidFormula.sol\":5755:5762  formula */\n      dup8\n        /* \"contracts/EuclidFormula.sol\":5741:5763  return string(formula) */\n      swap11\n      pop\n      pop\n      pop\n      pop\n      pop\n      pop\n      pop\n      pop\n      pop\n      pop\n      pop\n        /* \"contracts/EuclidFormula.sol\":907:5767  function generateFormula(uint128 hash, uint256 tokenId) public view override returns (string memory) {... */\n      swap3\n      swap2\n      pop\n      pop\n      jump\t// out\n        /* \"contracts/EuclidFormula.sol\":5771:6223  function supplyDataFromTokenId(uint256 tokenId) public pure returns (uint8[6] memory) {... */\n    tag_14:\n        /* \"contracts/EuclidFormula.sol\":5840:5855  uint8[6] memory */\n      tag_241\n      tag_242\n      jump\t// in\n    tag_241:\n        /* \"contracts/EuclidFormula.sol\":5875:5878  714 */\n      0x02ca\n        /* \"contracts/EuclidFormula.sol\":5865:5872  tokenId */\n      dup3\n        /* \"contracts/EuclidFormula.sol\":5865:5878  tokenId > 714 */\n      gt\n        /* \"contracts/EuclidFormula.sol\":5861:5906  if (tokenId > 714) return [9, 4, 2, 5, 8, 12] */\n      iszero\n      tag_244\n      jumpi\n        /* \"contracts/EuclidFormula.sol\":5880:5906  return [9, 4, 2, 5, 8, 12] */\n      mload(0x40)\n      dup1\n      0xc0\n      add\n      0x40\n      mstore\n      dup1\n        /* \"contracts/EuclidFormula.sol\":5888:5889  9 */\n      0x09\n        /* \"contracts/EuclidFormula.sol\":5880:5906  return [9, 4, 2, 5, 8, 12] */\n      0xff\n      and\n      dup2\n      mstore\n      0x20\n      add\n        /* \"contracts/EuclidFormula.sol\":5891:5892  4 */\n      0x04\n        /* \"contracts/EuclidFormula.sol\":5880:5906  return [9, 4, 2, 5, 8, 12] */\n      0xff\n      and\n      dup2\n      mstore\n      0x20\n      add\n        /* \"contracts/EuclidFormula.sol\":5894:5895  2 */\n      0x02\n        /* \"contracts/EuclidFormula.sol\":5880:5906  return [9, 4, 2, 5, 8, 12] */\n      0xff\n      and\n      dup2\n      mstore\n      0x20\n      add\n        /* \"contracts/EuclidFormula.sol\":5897:5898  5 */\n      0x05\n        /* \"contracts/EuclidFormula.sol\":5880:5906  return [9, 4, 2, 5, 8, 12] */\n      0xff\n      and\n      dup2\n      mstore\n      0x20\n      add\n        /* \"contracts/EuclidFormula.sol\":5900:5901  8 */\n      0x08\n        /* \"contracts/EuclidFormula.sol\":5880:5906  return [9, 4, 2, 5, 8, 12] */\n      0xff\n      and\n      dup2\n      mstore\n      0x20\n      add\n        /* \"contracts/EuclidFormula.sol\":5903:5905  12 */\n      0x0c\n        /* \"contracts/EuclidFormula.sol\":5880:5906  return [9, 4, 2, 5, 8, 12] */\n      0xff\n      and\n      dup2\n      mstore\n      pop\n      swap1\n      pop\n      jump(tag_243)\n        /* \"contracts/EuclidFormula.sol\":5861:5906  if (tokenId > 714) return [9, 4, 2, 5, 8, 12] */\n    tag_244:\n        /* \"contracts/EuclidFormula.sol\":5924:5927  273 */\n      0x0111\n        /* \"contracts/EuclidFormula.sol\":5914:5921  tokenId */\n      dup3\n        /* \"contracts/EuclidFormula.sol\":5914:5927  tokenId > 273 */\n      gt\n        /* \"contracts/EuclidFormula.sol\":5910:5955  if (tokenId > 273) return [7, 4, 1, 4, 8, 11] */\n      iszero\n      tag_245\n      jumpi\n        /* \"contracts/EuclidFormula.sol\":5929:5955  return [7, 4, 1, 4, 8, 11] */\n      mload(0x40)\n      dup1\n      0xc0\n      add\n      0x40\n      mstore\n      dup1\n        /* \"contracts/EuclidFormula.sol\":5937:5938  7 */\n      0x07\n        /* \"contracts/EuclidFormula.sol\":5929:5955  return [7, 4, 1, 4, 8, 11] */\n      0xff\n      and\n      dup2\n      mstore\n      0x20\n      add\n        /* \"contracts/EuclidFormula.sol\":5940:5941  4 */\n      0x04\n        /* \"contracts/EuclidFormula.sol\":5929:5955  return [7, 4, 1, 4, 8, 11] */\n      0xff\n      and\n      dup2\n      mstore\n      0x20\n      add\n        /* \"contracts/EuclidFormula.sol\":5943:5944  1 */\n      0x01\n        /* \"contracts/EuclidFormula.sol\":5929:5955  return [7, 4, 1, 4, 8, 11] */\n      0xff\n      and\n      dup2\n      mstore\n      0x20\n      add\n        /* \"contracts/EuclidFormula.sol\":5946:5947  4 */\n      0x04\n        /* \"contracts/EuclidFormula.sol\":5929:5955  return [7, 4, 1, 4, 8, 11] */\n      0xff\n      and\n      dup2\n      mstore\n      0x20\n      add\n        /* \"contracts/EuclidFormula.sol\":5949:5950  8 */\n      0x08\n        /* \"contracts/EuclidFormula.sol\":5929:5955  return [7, 4, 1, 4, 8, 11] */\n      0xff\n      and\n      dup2\n      mstore\n      0x20\n      add\n        /* \"contracts/EuclidFormula.sol\":5952:5954  11 */\n      0x0b\n        /* \"contracts/EuclidFormula.sol\":5929:5955  return [7, 4, 1, 4, 8, 11] */\n      0xff\n      and\n      dup2\n      mstore\n      pop\n      swap1\n      pop\n      jump(tag_243)\n        /* \"contracts/EuclidFormula.sol\":5910:5955  if (tokenId > 273) return [7, 4, 1, 4, 8, 11] */\n    tag_245:\n        /* \"contracts/EuclidFormula.sol\":5973:5976  104 */\n      0x68\n        /* \"contracts/EuclidFormula.sol\":5963:5970  tokenId */\n      dup3\n        /* \"contracts/EuclidFormula.sol\":5963:5976  tokenId > 104 */\n      gt\n        /* \"contracts/EuclidFormula.sol\":5959:6004  if (tokenId > 104) return [5, 4, 1, 3, 8, 10] */\n      iszero\n      tag_246\n      jumpi\n        /* \"contracts/EuclidFormula.sol\":5978:6004  return [5, 4, 1, 3, 8, 10] */\n      mload(0x40)\n      dup1\n      0xc0\n      add\n      0x40\n      mstore\n      dup1\n        /* \"contracts/EuclidFormula.sol\":5986:5987  5 */\n      0x05\n        /* \"contracts/EuclidFormula.sol\":5978:6004  return [5, 4, 1, 3, 8, 10] */\n      0xff\n      and\n      dup2\n      mstore\n      0x20\n      add\n        /* \"contracts/EuclidFormula.sol\":5989:5990  4 */\n      0x04\n        /* \"contracts/EuclidFormula.sol\":5978:6004  return [5, 4, 1, 3, 8, 10] */\n      0xff\n      and\n      dup2\n      mstore\n      0x20\n      add\n        /* \"contracts/EuclidFormula.sol\":5992:5993  1 */\n      0x01\n        /* \"contracts/EuclidFormula.sol\":5978:6004  return [5, 4, 1, 3, 8, 10] */\n      0xff\n      and\n      dup2\n      mstore\n      0x20\n      add\n        /* \"contracts/EuclidFormula.sol\":5995:5996  3 */\n      0x03\n        /* \"contracts/EuclidFormula.sol\":5978:6004  return [5, 4, 1, 3, 8, 10] */\n      0xff\n      and\n      dup2\n      mstore\n      0x20\n      add\n        /* \"contracts/EuclidFormula.sol\":5998:5999  8 */\n      0x08\n        /* \"contracts/EuclidFormula.sol\":5978:6004  return [5, 4, 1, 3, 8, 10] */\n      0xff\n      and\n      dup2\n      mstore\n      0x20\n      add\n        /* \"contracts/EuclidFormula.sol\":6001:6003  10 */\n      0x0a\n        /* \"contracts/EuclidFormula.sol\":5978:6004  return [5, 4, 1, 3, 8, 10] */\n      0xff\n      and\n      dup2\n      mstore\n      pop\n      swap1\n      pop\n      jump(tag_243)\n        /* \"contracts/EuclidFormula.sol\":5959:6004  if (tokenId > 104) return [5, 4, 1, 3, 8, 10] */\n    tag_246:\n        /* \"contracts/EuclidFormula.sol\":6022:6024  40 */\n      0x28\n        /* \"contracts/EuclidFormula.sol\":6012:6019  tokenId */\n      dup3\n        /* \"contracts/EuclidFormula.sol\":6012:6024  tokenId > 40 */\n      gt\n        /* \"contracts/EuclidFormula.sol\":6008:6051  if (tokenId > 40) return [4, 4, 1, 2, 4, 9] */\n      iszero\n      tag_247\n      jumpi\n        /* \"contracts/EuclidFormula.sol\":6026:6051  return [4, 4, 1, 2, 4, 9] */\n      mload(0x40)\n      dup1\n      0xc0\n      add\n      0x40\n      mstore\n      dup1\n        /* \"contracts/EuclidFormula.sol\":6034:6035  4 */\n      0x04\n        /* \"contracts/EuclidFormula.sol\":6026:6051  return [4, 4, 1, 2, 4, 9] */\n      0xff\n      and\n      dup2\n      mstore\n      0x20\n      add\n        /* \"contracts/EuclidFormula.sol\":6037:6038  4 */\n      0x04\n        /* \"contracts/EuclidFormula.sol\":6026:6051  return [4, 4, 1, 2, 4, 9] */\n      0xff\n      and\n      dup2\n      mstore\n      0x20\n      add\n        /* \"contracts/EuclidFormula.sol\":6040:6041  1 */\n      0x01\n        /* \"contracts/EuclidFormula.sol\":6026:6051  return [4, 4, 1, 2, 4, 9] */\n      0xff\n      and\n      dup2\n      mstore\n      0x20\n      add\n        /* \"contracts/EuclidFormula.sol\":6043:6044  2 */\n      0x02\n        /* \"contracts/EuclidFormula.sol\":6026:6051  return [4, 4, 1, 2, 4, 9] */\n      0xff\n      and\n      dup2\n      mstore\n      0x20\n      add\n        /* \"contracts/EuclidFormula.sol\":6046:6047  4 */\n      0x04\n        /* \"contracts/EuclidFormula.sol\":6026:6051  return [4, 4, 1, 2, 4, 9] */\n      0xff\n      and\n      dup2\n      mstore\n      0x20\n      add\n        /* \"contracts/EuclidFormula.sol\":6049:6050  9 */\n      0x09\n        /* \"contracts/EuclidFormula.sol\":6026:6051  return [4, 4, 1, 2, 4, 9] */\n      0xff\n      and\n      dup2\n      mstore\n      pop\n      swap1\n      pop\n      jump(tag_243)\n        /* \"contracts/EuclidFormula.sol\":6008:6051  if (tokenId > 40) return [4, 4, 1, 2, 4, 9] */\n    tag_247:\n        /* \"contracts/EuclidFormula.sol\":6069:6071  15 */\n      0x0f\n        /* \"contracts/EuclidFormula.sol\":6059:6066  tokenId */\n      dup3\n        /* \"contracts/EuclidFormula.sol\":6059:6071  tokenId > 15 */\n      gt\n        /* \"contracts/EuclidFormula.sol\":6055:6098  if (tokenId > 15) return [3, 4, 1, 2, 2, 8] */\n      iszero\n      tag_248\n      jumpi\n        /* \"contracts/EuclidFormula.sol\":6073:6098  return [3, 4, 1, 2, 2, 8] */\n      mload(0x40)\n      dup1\n      0xc0\n      add\n      0x40\n      mstore\n      dup1\n        /* \"contracts/EuclidFormula.sol\":6081:6082  3 */\n      0x03\n        /* \"contracts/EuclidFormula.sol\":6073:6098  return [3, 4, 1, 2, 2, 8] */\n      0xff\n      and\n      dup2\n      mstore\n      0x20\n      add\n        /* \"contracts/EuclidFormula.sol\":6084:6085  4 */\n      0x04\n        /* \"contracts/EuclidFormula.sol\":6073:6098  return [3, 4, 1, 2, 2, 8] */\n      0xff\n      and\n      dup2\n      mstore\n      0x20\n      add\n        /* \"contracts/EuclidFormula.sol\":6087:6088  1 */\n      0x01\n        /* \"contracts/EuclidFormula.sol\":6073:6098  return [3, 4, 1, 2, 2, 8] */\n      0xff\n      and\n      dup2\n      mstore\n      0x20\n      add\n        /* \"contracts/EuclidFormula.sol\":6090:6091  2 */\n      0x02\n        /* \"contracts/EuclidFormula.sol\":6073:6098  return [3, 4, 1, 2, 2, 8] */\n      0xff\n      and\n      dup2\n      mstore\n      0x20\n      add\n        /* \"contracts/EuclidFormula.sol\":6093:6094  2 */\n      0x02\n        /* \"contracts/EuclidFormula.sol\":6073:6098  return [3, 4, 1, 2, 2, 8] */\n      0xff\n      and\n      dup2\n      mstore\n      0x20\n      add\n        /* \"contracts/EuclidFormula.sol\":6096:6097  8 */\n      0x08\n        /* \"contracts/EuclidFormula.sol\":6073:6098  return [3, 4, 1, 2, 2, 8] */\n      0xff\n      and\n      dup2\n      mstore\n      pop\n      swap1\n      pop\n      jump(tag_243)\n        /* \"contracts/EuclidFormula.sol\":6055:6098  if (tokenId > 15) return [3, 4, 1, 2, 2, 8] */\n    tag_248:\n        /* \"contracts/EuclidFormula.sol\":6116:6117  6 */\n      0x06\n        /* \"contracts/EuclidFormula.sol\":6106:6113  tokenId */\n      dup3\n        /* \"contracts/EuclidFormula.sol\":6106:6117  tokenId > 6 */\n      gt\n        /* \"contracts/EuclidFormula.sol\":6102:6144  if (tokenId > 6) return [2, 3, 1, 1, 1, 7] */\n      iszero\n      tag_249\n      jumpi\n        /* \"contracts/EuclidFormula.sol\":6119:6144  return [2, 3, 1, 1, 1, 7] */\n      mload(0x40)\n      dup1\n      0xc0\n      add\n      0x40\n      mstore\n      dup1\n        /* \"contracts/EuclidFormula.sol\":6127:6128  2 */\n      0x02\n        /* \"contracts/EuclidFormula.sol\":6119:6144  return [2, 3, 1, 1, 1, 7] */\n      0xff\n      and\n      dup2\n      mstore\n      0x20\n      add\n        /* \"contracts/EuclidFormula.sol\":6130:6131  3 */\n      0x03\n        /* \"contracts/EuclidFormula.sol\":6119:6144  return [2, 3, 1, 1, 1, 7] */\n      0xff\n      and\n      dup2\n      mstore\n      0x20\n      add\n        /* \"contracts/EuclidFormula.sol\":6133:6134  1 */\n      0x01\n        /* \"contracts/EuclidFormula.sol\":6119:6144  return [2, 3, 1, 1, 1, 7] */\n      0xff\n      and\n      dup2\n      mstore\n      0x20\n      add\n        /* \"contracts/EuclidFormula.sol\":6136:6137  1 */\n      0x01\n        /* \"contracts/EuclidFormula.sol\":6119:6144  return [2, 3, 1, 1, 1, 7] */\n      0xff\n      and\n      dup2\n      mstore\n      0x20\n      add\n        /* \"contracts/EuclidFormula.sol\":6139:6140  1 */\n      0x01\n        /* \"contracts/EuclidFormula.sol\":6119:6144  return [2, 3, 1, 1, 1, 7] */\n      0xff\n      and\n      dup2\n      mstore\n      0x20\n      add\n        /* \"contracts/EuclidFormula.sol\":6142:6143  7 */\n      0x07\n        /* \"contracts/EuclidFormula.sol\":6119:6144  return [2, 3, 1, 1, 1, 7] */\n      0xff\n      and\n      dup2\n      mstore\n      pop\n      swap1\n      pop\n      jump(tag_243)\n        /* \"contracts/EuclidFormula.sol\":6102:6144  if (tokenId > 6) return [2, 3, 1, 1, 1, 7] */\n    tag_249:\n        /* \"contracts/EuclidFormula.sol\":6162:6163  2 */\n      0x02\n        /* \"contracts/EuclidFormula.sol\":6152:6159  tokenId */\n      dup3\n        /* \"contracts/EuclidFormula.sol\":6152:6163  tokenId > 2 */\n      gt\n        /* \"contracts/EuclidFormula.sol\":6148:6190  if (tokenId > 2) return [1, 3, 1, 1, 1, 6] */\n      iszero\n      tag_250\n      jumpi\n        /* \"contracts/EuclidFormula.sol\":6165:6190  return [1, 3, 1, 1, 1, 6] */\n      mload(0x40)\n      dup1\n      0xc0\n      add\n      0x40\n      mstore\n      dup1\n        /* \"contracts/EuclidFormula.sol\":6173:6174  1 */\n      0x01\n        /* \"contracts/EuclidFormula.sol\":6165:6190  return [1, 3, 1, 1, 1, 6] */\n      0xff\n      and\n      dup2\n      mstore\n      0x20\n      add\n        /* \"contracts/EuclidFormula.sol\":6176:6177  3 */\n      0x03\n        /* \"contracts/EuclidFormula.sol\":6165:6190  return [1, 3, 1, 1, 1, 6] */\n      0xff\n      and\n      dup2\n      mstore\n      0x20\n      add\n        /* \"contracts/EuclidFormula.sol\":6179:6180  1 */\n      0x01\n        /* \"contracts/EuclidFormula.sol\":6165:6190  return [1, 3, 1, 1, 1, 6] */\n      0xff\n      and\n      dup2\n      mstore\n      0x20\n      add\n        /* \"contracts/EuclidFormula.sol\":6182:6183  1 */\n      0x01\n        /* \"contracts/EuclidFormula.sol\":6165:6190  return [1, 3, 1, 1, 1, 6] */\n      0xff\n      and\n      dup2\n      mstore\n      0x20\n      add\n        /* \"contracts/EuclidFormula.sol\":6185:6186  1 */\n      0x01\n        /* \"contracts/EuclidFormula.sol\":6165:6190  return [1, 3, 1, 1, 1, 6] */\n      0xff\n      and\n      dup2\n      mstore\n      0x20\n      add\n        /* \"contracts/EuclidFormula.sol\":6188:6189  6 */\n      0x06\n        /* \"contracts/EuclidFormula.sol\":6165:6190  return [1, 3, 1, 1, 1, 6] */\n      0xff\n      and\n      dup2\n      mstore\n      pop\n      swap1\n      pop\n      jump(tag_243)\n        /* \"contracts/EuclidFormula.sol\":6148:6190  if (tokenId > 2) return [1, 3, 1, 1, 1, 6] */\n    tag_250:\n        /* \"contracts/EuclidFormula.sol\":6194:6219  return [1, 3, 1, 1, 1, 5] */\n      mload(0x40)\n      dup1\n      0xc0\n      add\n      0x40\n      mstore\n      dup1\n        /* \"contracts/EuclidFormula.sol\":6202:6203  1 */\n      0x01\n        /* \"contracts/EuclidFormula.sol\":6194:6219  return [1, 3, 1, 1, 1, 5] */\n      0xff\n      and\n      dup2\n      mstore\n      0x20\n      add\n        /* \"contracts/EuclidFormula.sol\":6205:6206  3 */\n      0x03\n        /* \"contracts/EuclidFormula.sol\":6194:6219  return [1, 3, 1, 1, 1, 5] */\n      0xff\n      and\n      dup2\n      mstore\n      0x20\n      add\n        /* \"contracts/EuclidFormula.sol\":6208:6209  1 */\n      0x01\n        /* \"contracts/EuclidFormula.sol\":6194:6219  return [1, 3, 1, 1, 1, 5] */\n      0xff\n      and\n      dup2\n      mstore\n      0x20\n      add\n        /* \"contracts/EuclidFormula.sol\":6211:6212  1 */\n      0x01\n        /* \"contracts/EuclidFormula.sol\":6194:6219  return [1, 3, 1, 1, 1, 5] */\n      0xff\n      and\n      dup2\n      mstore\n      0x20\n      add\n        /* \"contracts/EuclidFormula.sol\":6214:6215  1 */\n      0x01\n        /* \"contracts/EuclidFormula.sol\":6194:6219  return [1, 3, 1, 1, 1, 5] */\n      0xff\n      and\n      dup2\n      mstore\n      0x20\n      add\n        /* \"contracts/EuclidFormula.sol\":6217:6218  5 */\n      0x05\n        /* \"contracts/EuclidFormula.sol\":6194:6219  return [1, 3, 1, 1, 1, 5] */\n      0xff\n      and\n      dup2\n      mstore\n      pop\n      swap1\n      pop\n        /* \"contracts/EuclidFormula.sol\":5771:6223  function supplyDataFromTokenId(uint256 tokenId) public pure returns (uint8[6] memory) {... */\n    tag_243:\n      swap2\n      swap1\n      pop\n      jump\t// out\n        /* \"@openzeppelin/contracts/utils/Strings.sol\":328:1031  function toString(uint256 value) internal pure returns (string memory) {... */\n    tag_34:\n        /* \"@openzeppelin/contracts/utils/Strings.sol\":384:397  string memory */\n      0x60\n        /* \"@openzeppelin/contracts/utils/Strings.sol\":610:611  0 */\n      0x00\n        /* \"@openzeppelin/contracts/utils/Strings.sol\":601:606  value */\n      dup3\n        /* \"@openzeppelin/contracts/utils/Strings.sol\":601:611  value == 0 */\n      sub\n        /* \"@openzeppelin/contracts/utils/Strings.sol\":597:648  if (value == 0) {... */\n      tag_252\n      jumpi\n        /* \"@openzeppelin/contracts/utils/Strings.sol\":627:637  return \"0\" */\n      mload(0x40)\n      dup1\n      0x40\n      add\n      0x40\n      mstore\n      dup1\n      0x01\n      dup2\n      mstore\n      0x20\n      add\n      0x3000000000000000000000000000000000000000000000000000000000000000\n      dup2\n      mstore\n      pop\n      swap1\n      pop\n      jump(tag_251)\n        /* \"@openzeppelin/contracts/utils/Strings.sol\":597:648  if (value == 0) {... */\n    tag_252:\n        /* \"@openzeppelin/contracts/utils/Strings.sol\":657:669  uint256 temp */\n      0x00\n        /* \"@openzeppelin/contracts/utils/Strings.sol\":672:677  value */\n      dup3\n        /* \"@openzeppelin/contracts/utils/Strings.sol\":657:677  uint256 temp = value */\n      swap1\n      pop\n        /* \"@openzeppelin/contracts/utils/Strings.sol\":687:701  uint256 digits */\n      0x00\n        /* \"@openzeppelin/contracts/utils/Strings.sol\":711:786  while (temp != 0) {... */\n    tag_253:\n        /* \"@openzeppelin/contracts/utils/Strings.sol\":726:727  0 */\n      0x00\n        /* \"@openzeppelin/contracts/utils/Strings.sol\":718:722  temp */\n      dup3\n        /* \"@openzeppelin/contracts/utils/Strings.sol\":718:727  temp != 0 */\n      eq\n        /* \"@openzeppelin/contracts/utils/Strings.sol\":711:786  while (temp != 0) {... */\n      tag_254\n      jumpi\n        /* \"@openzeppelin/contracts/utils/Strings.sol\":743:751  digits++ */\n      dup1\n      dup1\n      tag_255\n      swap1\n      tag_256\n      jump\t// in\n    tag_255:\n      swap2\n      pop\n      pop\n        /* \"@openzeppelin/contracts/utils/Strings.sol\":773:775  10 */\n      0x0a\n        /* \"@openzeppelin/contracts/utils/Strings.sol\":765:775  temp /= 10 */\n      dup3\n      tag_257\n      swap2\n      swap1\n      tag_258\n      jump\t// in\n    tag_257:\n      swap2\n      pop\n        /* \"@openzeppelin/contracts/utils/Strings.sol\":711:786  while (temp != 0) {... */\n      jump(tag_253)\n    tag_254:\n        /* \"@openzeppelin/contracts/utils/Strings.sol\":795:814  bytes memory buffer */\n      0x00\n        /* \"@openzeppelin/contracts/utils/Strings.sol\":827:833  digits */\n      dup2\n        /* \"@openzeppelin/contracts/utils/Strings.sol\":817:834  new bytes(digits) */\n      0xffffffffffffffff\n      dup2\n      gt\n      iszero\n      tag_259\n      jumpi\n      tag_260\n      tag_54\n      jump\t// in\n    tag_260:\n    tag_259:\n      mload(0x40)\n      swap1\n      dup1\n      dup3\n      mstore\n      dup1\n      0x1f\n      add\n      not(0x1f)\n      and\n      0x20\n      add\n      dup3\n      add\n      0x40\n      mstore\n      dup1\n      iszero\n      tag_261\n      jumpi\n      dup2\n      0x20\n      add\n      0x01\n      dup3\n      mul\n      dup1\n      calldatasize\n      dup4\n      calldatacopy\n      dup1\n      dup3\n      add\n      swap2\n      pop\n      pop\n      swap1\n      pop\n    tag_261:\n      pop\n        /* \"@openzeppelin/contracts/utils/Strings.sol\":795:834  bytes memory buffer = new bytes(digits) */\n      swap1\n      pop\n        /* \"@openzeppelin/contracts/utils/Strings.sol\":844:994  while (value != 0) {... */\n    tag_262:\n        /* \"@openzeppelin/contracts/utils/Strings.sol\":860:861  0 */\n      0x00\n        /* \"@openzeppelin/contracts/utils/Strings.sol\":851:856  value */\n      dup6\n        /* \"@openzeppelin/contracts/utils/Strings.sol\":851:861  value != 0 */\n      eq\n        /* \"@openzeppelin/contracts/utils/Strings.sol\":844:994  while (value != 0) {... */\n      tag_263\n      jumpi\n        /* \"@openzeppelin/contracts/utils/Strings.sol\":887:888  1 */\n      0x01\n        /* \"@openzeppelin/contracts/utils/Strings.sol\":877:888  digits -= 1 */\n      dup3\n      tag_264\n      swap2\n      swap1\n      tag_265\n      jump\t// in\n    tag_264:\n      swap2\n      pop\n        /* \"@openzeppelin/contracts/utils/Strings.sol\":953:955  10 */\n      0x0a\n        /* \"@openzeppelin/contracts/utils/Strings.sol\":945:950  value */\n      dup6\n        /* \"@openzeppelin/contracts/utils/Strings.sol\":945:955  value % 10 */\n      tag_266\n      swap2\n      swap1\n      tag_180\n      jump\t// in\n    tag_266:\n        /* \"@openzeppelin/contracts/utils/Strings.sol\":932:934  48 */\n      0x30\n        /* \"@openzeppelin/contracts/utils/Strings.sol\":932:956  48 + uint256(value % 10) */\n      tag_267\n      swap2\n      swap1\n      tag_268\n      jump\t// in\n    tag_267:\n        /* \"@openzeppelin/contracts/utils/Strings.sol\":919:958  bytes1(uint8(48 + uint256(value % 10))) */\n      0xf8\n      shl\n        /* \"@openzeppelin/contracts/utils/Strings.sol\":902:908  buffer */\n      dup2\n        /* \"@openzeppelin/contracts/utils/Strings.sol\":909:915  digits */\n      dup4\n        /* \"@openzeppelin/contracts/utils/Strings.sol\":902:916  buffer[digits] */\n      dup2\n      mload\n      dup2\n      lt\n      tag_269\n      jumpi\n      tag_270\n      tag_27\n      jump\t// in\n    tag_270:\n    tag_269:\n      0x20\n      add\n      add\n        /* \"@openzeppelin/contracts/utils/Strings.sol\":902:958  buffer[digits] = bytes1(uint8(48 + uint256(value % 10))) */\n      swap1\n      not(0xffffffffffffffffffffffffffffffffffffffffffffffffffffffffffffff)\n      and\n      swap1\n      dup2\n      0x00\n      byte\n      swap1\n      mstore8\n      pop\n        /* \"@openzeppelin/contracts/utils/Strings.sol\":981:983  10 */\n      0x0a\n        /* \"@openzeppelin/contracts/utils/Strings.sol\":972:983  value /= 10 */\n      dup6\n      tag_271\n      swap2\n      swap1\n      tag_258\n      jump\t// in\n    tag_271:\n      swap5\n      pop\n        /* \"@openzeppelin/contracts/utils/Strings.sol\":844:994  while (value != 0) {... */\n      jump(tag_262)\n    tag_263:\n        /* \"@openzeppelin/contracts/utils/Strings.sol\":1017:1023  buffer */\n      dup1\n        /* \"@openzeppelin/contracts/utils/Strings.sol\":1003:1024  return string(buffer) */\n      swap4\n      pop\n      pop\n      pop\n      pop\n        /* \"@openzeppelin/contracts/utils/Strings.sol\":328:1031  function toString(uint256 value) internal pure returns (string memory) {... */\n    tag_251:\n      swap2\n      swap1\n      pop\n      jump\t// out\n        /* \"contracts/EuclidFormula.sol\":6227:6591  function drawProp(IEuclidRandomizer.RandomizerState memory rnd, uint8 drawing, uint32[] memory draw, bytes memory values) internal view returns(IEuclidRandomizer.RandomizerState memory, bytes1) {... */\n    tag_104:\n        /* \"contracts/EuclidFormula.sol\":6371:6411  IEuclidRandomizer.RandomizerState memory */\n      tag_272\n      tag_273\n      jump\t// in\n    tag_272:\n        /* \"contracts/EuclidFormula.sol\":6413:6419  bytes1 */\n      0x00\n        /* \"contracts/EuclidFormula.sol\":6425:6432  uint8 i */\n      dup1\n        /* \"contracts/EuclidFormula.sol\":6435:6436  0 */\n      0x00\n        /* \"contracts/EuclidFormula.sol\":6425:6436  uint8 i = 0 */\n      swap1\n      pop\n        /* \"contracts/EuclidFormula.sol\":6440:6498  for (; i < draw.length; i++) if (drawing == draw[i]) break */\n    tag_275:\n        /* \"contracts/EuclidFormula.sol\":6451:6455  draw */\n      dup5\n        /* \"contracts/EuclidFormula.sol\":6451:6462  draw.length */\n      mload\n        /* \"contracts/EuclidFormula.sol\":6447:6448  i */\n      dup2\n        /* \"contracts/EuclidFormula.sol\":6447:6462  i < draw.length */\n      0xff\n      and\n      lt\n        /* \"contracts/EuclidFormula.sol\":6440:6498  for (; i < draw.length; i++) if (drawing == draw[i]) break */\n      iszero\n      tag_276\n      jumpi\n        /* \"contracts/EuclidFormula.sol\":6484:6488  draw */\n      dup5\n        /* \"contracts/EuclidFormula.sol\":6489:6490  i */\n      dup2\n        /* \"contracts/EuclidFormula.sol\":6484:6491  draw[i] */\n      0xff\n      and\n      dup2\n      mload\n      dup2\n      lt\n      tag_278\n      jumpi\n      tag_279\n      tag_27\n      jump\t// in\n    tag_279:\n    tag_278:\n      0x20\n      mul\n      0x20\n      add\n      add\n      mload\n        /* \"contracts/EuclidFormula.sol\":6473:6491  drawing == draw[i] */\n      0xffffffff\n      and\n        /* \"contracts/EuclidFormula.sol\":6473:6480  drawing */\n      dup7\n        /* \"contracts/EuclidFormula.sol\":6473:6491  drawing == draw[i] */\n      0xff\n      and\n      sub\n        /* \"contracts/EuclidFormula.sol\":6469:6498  if (drawing == draw[i]) break */\n      iszero\n        /* \"contracts/EuclidFormula.sol\":6493:6498  break */\n      tag_276\n        /* \"contracts/EuclidFormula.sol\":6469:6498  if (drawing == draw[i]) break */\n      jumpi\n        /* \"contracts/EuclidFormula.sol\":6464:6467  i++ */\n      dup1\n      dup1\n      tag_281\n      swap1\n      tag_85\n      jump\t// in\n    tag_281:\n      swap2\n      pop\n      pop\n        /* \"contracts/EuclidFormula.sol\":6440:6498  for (; i < draw.length; i++) if (drawing == draw[i]) break */\n      jump(tag_275)\n    tag_276:\n        /* \"contracts/EuclidFormula.sol\":6511:6515  draw */\n      dup5\n        /* \"contracts/EuclidFormula.sol\":6511:6522  draw.length */\n      mload\n        /* \"contracts/EuclidFormula.sol\":6506:6507  i */\n      dup2\n        /* \"contracts/EuclidFormula.sol\":6506:6522  i == draw.length */\n      0xff\n      and\n      sub\n        /* \"contracts/EuclidFormula.sol\":6502:6547  if (i == draw.length) return (rnd, values[0]) */\n      tag_282\n      jumpi\n        /* \"contracts/EuclidFormula.sol\":6532:6535  rnd */\n      dup7\n        /* \"contracts/EuclidFormula.sol\":6537:6543  values */\n      dup5\n        /* \"contracts/EuclidFormula.sol\":6544:6545  0 */\n      0x00\n        /* \"contracts/EuclidFormula.sol\":6537:6546  values[0] */\n      dup2\n      mload\n      dup2\n      lt\n      tag_283\n      jumpi\n      tag_284\n      tag_27\n      jump\t// in\n    tag_284:\n    tag_283:\n      0x20\n      add\n      add\n      mload\n      0xf8\n      shr\n      0xf8\n      shl\n        /* \"contracts/EuclidFormula.sol\":6524:6547  return (rnd, values[0]) */\n      swap3\n      pop\n      swap3\n      pop\n      pop\n      jump(tag_274)\n        /* \"contracts/EuclidFormula.sol\":6502:6547  if (i == draw.length) return (rnd, values[0]) */\n    tag_282:\n        /* \"contracts/EuclidFormula.sol\":6558:6587  randomizeProp(rnd, 1, values) */\n      tag_285\n        /* \"contracts/EuclidFormula.sol\":6572:6575  rnd */\n      dup8\n        /* \"contracts/EuclidFormula.sol\":6577:6578  1 */\n      0x01\n        /* \"contracts/EuclidFormula.sol\":6580:6586  values */\n      dup7\n        /* \"contracts/EuclidFormula.sol\":6558:6571  randomizeProp */\n      tag_168\n        /* \"contracts/EuclidFormula.sol\":6558:6587  randomizeProp(rnd, 1, values) */\n      jump\t// in\n    tag_285:\n        /* \"contracts/EuclidFormula.sol\":6551:6587  return randomizeProp(rnd, 1, values) */\n      swap3\n      pop\n      swap3\n      pop\n      pop\n        /* \"contracts/EuclidFormula.sol\":6227:6591  function drawProp(IEuclidRandomizer.RandomizerState memory rnd, uint8 drawing, uint32[] memory draw, bytes memory values) internal view returns(IEuclidRandomizer.RandomizerState memory, bytes1) {... */\n    tag_274:\n      swap5\n      pop\n      swap5\n      swap3\n      pop\n      pop\n      pop\n      jump\t// out\n        /* \"contracts/EuclidFormula.sol\":6595:6887  function randomizeProp(IEuclidRandomizer.RandomizerState memory rnd, uint32 startIndex, bytes memory values) internal view returns(IEuclidRandomizer.RandomizerState memory, bytes1) {... */\n    tag_168:\n        /* \"contracts/EuclidFormula.sol\":6726:6766  IEuclidRandomizer.RandomizerState memory */\n      tag_286\n      tag_273\n      jump\t// in\n    tag_286:\n        /* \"contracts/EuclidFormula.sol\":6768:6774  bytes1 */\n      0x00\n        /* \"contracts/EuclidFormula.sol\":6786:6796  randomizer */\n      dup1\n      0x00\n      swap1\n      sload\n      swap1\n      0x0100\n      exp\n      swap1\n      div\n      0xffffffffffffffffffffffffffffffffffffffff\n      and\n        /* \"contracts/EuclidFormula.sol\":6786:6808  randomizer.getIntRange */\n      0xffffffffffffffffffffffffffffffffffffffff\n      and\n      0x290f1050\n        /* \"contracts/EuclidFormula.sol\":6809:6812  rnd */\n      dup7\n        /* \"contracts/EuclidFormula.sol\":6814:6824  startIndex */\n      dup7\n        /* \"contracts/EuclidFormula.sol\":6833:6839  values */\n      dup7\n        /* \"contracts/EuclidFormula.sol\":6833:6846  values.length */\n      mload\n        /* \"contracts/EuclidFormula.sol\":6786:6848  randomizer.getIntRange(rnd, startIndex, uint32(values.length)) */\n      mload(0x40)\n      dup5\n      0xffffffff\n      and\n      0xe0\n      shl\n      dup2\n      mstore\n      0x04\n      add\n      tag_288\n      swap4\n      swap3\n      swap2\n      swap1\n      tag_72\n      jump\t// in\n    tag_288:\n      0xa0\n      mload(0x40)\n      dup1\n      dup4\n      sub\n      dup2\n      dup7\n      gas\n      staticcall\n      iszero\n      dup1\n      iszero\n      tag_290\n      jumpi\n      returndatasize\n      0x00\n      dup1\n      returndatacopy\n      revert(0x00, returndatasize)\n    tag_290:\n      pop\n      pop\n      pop\n      pop\n      mload(0x40)\n      returndatasize\n      not(0x1f)\n      0x1f\n      dup3\n      add\n      and\n      dup3\n      add\n      dup1\n      0x40\n      mstore\n      pop\n      dup2\n      add\n      swap1\n      tag_291\n      swap2\n      swap1\n      tag_23\n      jump\t// in\n    tag_291:\n        /* \"contracts/EuclidFormula.sol\":6780:6848  rnd = randomizer.getIntRange(rnd, startIndex, uint32(values.length)) */\n      swap5\n      pop\n        /* \"contracts/EuclidFormula.sol\":6860:6863  rnd */\n      dup5\n        /* \"contracts/EuclidFormula.sol\":6865:6871  values */\n      dup4\n        /* \"contracts/EuclidFormula.sol\":6872:6875  rnd */\n      dup7\n        /* \"contracts/EuclidFormula.sol\":6872:6881  rnd.value */\n      0x20\n      add\n      mload\n        /* \"contracts/EuclidFormula.sol\":6865:6882  values[rnd.value] */\n      0xffffffff\n      and\n      dup2\n      mload\n      dup2\n      lt\n      tag_292\n      jumpi\n      tag_293\n      tag_27\n      jump\t// in\n    tag_293:\n    tag_292:\n      0x20\n      add\n      add\n      mload\n      0xf8\n      shr\n      0xf8\n      shl\n        /* \"contracts/EuclidFormula.sol\":6852:6883  return (rnd, values[rnd.value]) */\n      swap2\n      pop\n      swap2\n      pop\n        /* \"contracts/EuclidFormula.sol\":6595:6887  function randomizeProp(IEuclidRandomizer.RandomizerState memory rnd, uint32 startIndex, bytes memory values) internal view returns(IEuclidRandomizer.RandomizerState memory, bytes1) {... */\n      swap4\n      pop\n      swap4\n      swap2\n      pop\n      pop\n      jump\t// out\n    tag_242:\n      mload(0x40)\n      dup1\n      0xc0\n      add\n      0x40\n      mstore\n      dup1\n      0x06\n      swap1\n      0x20\n      dup3\n      mul\n      dup1\n      calldatasize\n      dup4\n      calldatacopy\n      dup1\n      dup3\n      add\n      swap2\n      pop\n      pop\n      swap1\n      pop\n      pop\n      swap1\n      jump\t// out\n    tag_273:\n      mload(0x40)\n      dup1\n      0x40\n      add\n      0x40\n      mstore\n      dup1\n      tag_294\n      tag_295\n      jump\t// in\n    tag_294:\n      dup2\n      mstore\n      0x20\n      add\n      and(0xffffffff, 0x00)\n      dup2\n      mstore\n      pop\n      swap1\n      jump\t// out\n    tag_295:\n      mload(0x40)\n      dup1\n      0x80\n      add\n      0x40\n      mstore\n      dup1\n      0x04\n      swap1\n      0x20\n      dup3\n      mul\n      dup1\n      calldatasize\n      dup4\n      calldatacopy\n      dup1\n      dup3\n      add\n      swap2\n      pop\n      pop\n      swap1\n      pop\n      pop\n      swap1\n      jump\t// out\n        /* \"#utility.yul\":7:82   */\n    tag_296:\n        /* \"#utility.yul\":40:46   */\n      0x00\n        /* \"#utility.yul\":73:75   */\n      0x40\n        /* \"#utility.yul\":67:76   */\n      mload\n        /* \"#utility.yul\":57:76   */\n      swap1\n      pop\n        /* \"#utility.yul\":7:82   */\n      swap1\n      jump\t// out\n        /* \"#utility.yul\":88:205   */\n    tag_297:\n        /* \"#utility.yul\":197:198   */\n      0x00\n        /* \"#utility.yul\":194:195   */\n      dup1\n        /* \"#utility.yul\":187:199   */\n      revert\n        /* \"#utility.yul\":334:452   */\n    tag_299:\n        /* \"#utility.yul\":371:378   */\n      0x00\n        /* \"#utility.yul\":411:445   */\n      0xffffffffffffffffffffffffffffffff\n        /* \"#utility.yul\":404:409   */\n      dup3\n        /* \"#utility.yul\":400:446   */\n      and\n        /* \"#utility.yul\":389:446   */\n      swap1\n      pop\n        /* \"#utility.yul\":334:452   */\n      swap2\n      swap1\n      pop\n      jump\t// out\n        /* \"#utility.yul\":458:580   */\n    tag_300:\n        /* \"#utility.yul\":531:555   */\n      tag_382\n        /* \"#utility.yul\":549:554   */\n      dup2\n        /* \"#utility.yul\":531:555   */\n      tag_299\n      jump\t// in\n    tag_382:\n        /* \"#utility.yul\":524:529   */\n      dup2\n        /* \"#utility.yul\":521:556   */\n      eq\n        /* \"#utility.yul\":511:574   */\n      tag_383\n      jumpi\n        /* \"#utility.yul\":570:571   */\n      0x00\n        /* \"#utility.yul\":567:568   */\n      dup1\n        /* \"#utility.yul\":560:572   */\n      revert\n        /* \"#utility.yul\":511:574   */\n    tag_383:\n        /* \"#utility.yul\":458:580   */\n      pop\n      jump\t// out\n        /* \"#utility.yul\":586:725   */\n    tag_301:\n        /* \"#utility.yul\":632:637   */\n      0x00\n        /* \"#utility.yul\":670:676   */\n      dup2\n        /* \"#utility.yul\":657:677   */\n      calldataload\n        /* \"#utility.yul\":648:677   */\n      swap1\n      pop\n        /* \"#utility.yul\":686:719   */\n      tag_385\n        /* \"#utility.yul\":713:718   */\n      dup2\n        /* \"#utility.yul\":686:719   */\n      tag_300\n      jump\t// in\n    tag_385:\n        /* \"#utility.yul\":586:725   */\n      swap3\n      swap2\n      pop\n      pop\n      jump\t// out\n        /* \"#utility.yul\":731:808   */\n    tag_302:\n        /* \"#utility.yul\":768:775   */\n      0x00\n        /* \"#utility.yul\":797:802   */\n      dup2\n        /* \"#utility.yul\":786:802   */\n      swap1\n      pop\n        /* \"#utility.yul\":731:808   */\n      swap2\n      swap1\n      pop\n      jump\t// out\n        /* \"#utility.yul\":814:936   */\n    tag_303:\n        /* \"#utility.yul\":887:911   */\n      tag_388\n        /* \"#utility.yul\":905:910   */\n      dup2\n        /* \"#utility.yul\":887:911   */\n      tag_302\n      jump\t// in\n    tag_388:\n        /* \"#utility.yul\":880:885   */\n      dup2\n        /* \"#utility.yul\":877:912   */\n      eq\n        /* \"#utility.yul\":867:930   */\n      tag_389\n      jumpi\n        /* \"#utility.yul\":926:927   */\n      0x00\n        /* \"#utility.yul\":923:924   */\n      dup1\n        /* \"#utility.yul\":916:928   */\n      revert\n        /* \"#utility.yul\":867:930   */\n    tag_389:\n        /* \"#utility.yul\":814:936   */\n      pop\n      jump\t// out\n        /* \"#utility.yul\":942:1081   */\n    tag_304:\n        /* \"#utility.yul\":988:993   */\n      0x00\n        /* \"#utility.yul\":1026:1032   */\n      dup2\n        /* \"#utility.yul\":1013:1033   */\n      calldataload\n        /* \"#utility.yul\":1004:1033   */\n      swap1\n      pop\n        /* \"#utility.yul\":1042:1075   */\n      tag_391\n        /* \"#utility.yul\":1069:1074   */\n      dup2\n        /* \"#utility.yul\":1042:1075   */\n      tag_303\n      jump\t// in\n    tag_391:\n        /* \"#utility.yul\":942:1081   */\n      swap3\n      swap2\n      pop\n      pop\n      jump\t// out\n        /* \"#utility.yul\":1087:1561   */\n    tag_7:\n        /* \"#utility.yul\":1155:1161   */\n      0x00\n        /* \"#utility.yul\":1163:1169   */\n      dup1\n        /* \"#utility.yul\":1212:1214   */\n      0x40\n        /* \"#utility.yul\":1200:1209   */\n      dup4\n        /* \"#utility.yul\":1191:1198   */\n      dup6\n        /* \"#utility.yul\":1187:1210   */\n      sub\n        /* \"#utility.yul\":1183:1215   */\n      slt\n        /* \"#utility.yul\":1180:1299   */\n      iszero\n      tag_393\n      jumpi\n        /* \"#utility.yul\":1218:1297   */\n      tag_394\n      tag_297\n      jump\t// in\n    tag_394:\n        /* \"#utility.yul\":1180:1299   */\n    tag_393:\n        /* \"#utility.yul\":1338:1339   */\n      0x00\n        /* \"#utility.yul\":1363:1416   */\n      tag_395\n        /* \"#utility.yul\":1408:1415   */\n      dup6\n        /* \"#utility.yul\":1399:1405   */\n      dup3\n        /* \"#utility.yul\":1388:1397   */\n      dup7\n        /* \"#utility.yul\":1384:1406   */\n      add\n        /* \"#utility.yul\":1363:1416   */\n      tag_301\n      jump\t// in\n    tag_395:\n        /* \"#utility.yul\":1353:1416   */\n      swap3\n      pop\n        /* \"#utility.yul\":1309:1426   */\n      pop\n        /* \"#utility.yul\":1465:1467   */\n      0x20\n        /* \"#utility.yul\":1491:1544   */\n      tag_396\n        /* \"#utility.yul\":1536:1543   */\n      dup6\n        /* \"#utility.yul\":1527:1533   */\n      dup3\n        /* \"#utility.yul\":1516:1525   */\n      dup7\n        /* \"#utility.yul\":1512:1534   */\n      add\n        /* \"#utility.yul\":1491:1544   */\n      tag_304\n      jump\t// in\n    tag_396:\n        /* \"#utility.yul\":1481:1544   */\n      swap2\n      pop\n        /* \"#utility.yul\":1436:1554   */\n      pop\n        /* \"#utility.yul\":1087:1561   */\n      swap3\n      pop\n      swap3\n      swap1\n      pop\n      jump\t// out\n        /* \"#utility.yul\":1567:1666   */\n    tag_305:\n        /* \"#utility.yul\":1619:1625   */\n      0x00\n        /* \"#utility.yul\":1653:1658   */\n      dup2\n        /* \"#utility.yul\":1647:1659   */\n      mload\n        /* \"#utility.yul\":1637:1659   */\n      swap1\n      pop\n        /* \"#utility.yul\":1567:1666   */\n      swap2\n      swap1\n      pop\n      jump\t// out\n        /* \"#utility.yul\":1672:1841   */\n    tag_306:\n        /* \"#utility.yul\":1756:1767   */\n      0x00\n        /* \"#utility.yul\":1790:1796   */\n      dup3\n        /* \"#utility.yul\":1785:1788   */\n      dup3\n        /* \"#utility.yul\":1778:1797   */\n      mstore\n        /* \"#utility.yul\":1830:1834   */\n      0x20\n        /* \"#utility.yul\":1825:1828   */\n      dup3\n        /* \"#utility.yul\":1821:1835   */\n      add\n        /* \"#utility.yul\":1806:1835   */\n      swap1\n      pop\n        /* \"#utility.yul\":1672:1841   */\n      swap3\n      swap2\n      pop\n      pop\n      jump\t// out\n        /* \"#utility.yul\":1847:2093   */\n    tag_307:\n        /* \"#utility.yul\":1928:1929   */\n      0x00\n        /* \"#utility.yul\":1938:2051   */\n    tag_400:\n        /* \"#utility.yul\":1952:1958   */\n      dup4\n        /* \"#utility.yul\":1949:1950   */\n      dup2\n        /* \"#utility.yul\":1946:1959   */\n      lt\n        /* \"#utility.yul\":1938:2051   */\n      iszero\n      tag_402\n      jumpi\n        /* \"#utility.yul\":2037:2038   */\n      dup1\n        /* \"#utility.yul\":2032:2035   */\n      dup3\n        /* \"#utility.yul\":2028:2039   */\n      add\n        /* \"#utility.yul\":2022:2040   */\n      mload\n        /* \"#utility.yul\":2018:2019   */\n      dup2\n        /* \"#utility.yul\":2013:2016   */\n      dup5\n        /* \"#utility.yul\":2009:2020   */\n      add\n        /* \"#utility.yul\":2002:2041   */\n      mstore\n        /* \"#utility.yul\":1974:1976   */\n      0x20\n        /* \"#utility.yul\":1971:1972   */\n      dup2\n        /* \"#utility.yul\":1967:1977   */\n      add\n        /* \"#utility.yul\":1962:1977   */\n      swap1\n      pop\n        /* \"#utility.yul\":1938:2051   */\n      jump(tag_400)\n    tag_402:\n        /* \"#utility.yul\":2085:2086   */\n      0x00\n        /* \"#utility.yul\":2076:2082   */\n      dup5\n        /* \"#utility.yul\":2071:2074   */\n      dup5\n        /* \"#utility.yul\":2067:2083   */\n      add\n        /* \"#utility.yul\":2060:2087   */\n      mstore\n        /* \"#utility.yul\":1909:2093   */\n      pop\n        /* \"#utility.yul\":1847:2093   */\n      pop\n      pop\n      pop\n      jump\t// out\n        /* \"#utility.yul\":2099:2201   */\n    tag_308:\n        /* \"#utility.yul\":2140:2146   */\n      0x00\n        /* \"#utility.yul\":2191:2193   */\n      0x1f\n        /* \"#utility.yul\":2187:2194   */\n      not\n        /* \"#utility.yul\":2182:2184   */\n      0x1f\n        /* \"#utility.yul\":2175:2180   */\n      dup4\n        /* \"#utility.yul\":2171:2185   */\n      add\n        /* \"#utility.yul\":2167:2195   */\n      and\n        /* \"#utility.yul\":2157:2195   */\n      swap1\n      pop\n        /* \"#utility.yul\":2099:2201   */\n      swap2\n      swap1\n      pop\n      jump\t// out\n        /* \"#utility.yul\":2207:2584   */\n    tag_309:\n        /* \"#utility.yul\":2295:2298   */\n      0x00\n        /* \"#utility.yul\":2323:2362   */\n      tag_405\n        /* \"#utility.yul\":2356:2361   */\n      dup3\n        /* \"#utility.yul\":2323:2362   */\n      tag_305\n      jump\t// in\n    tag_405:\n        /* \"#utility.yul\":2378:2449   */\n      tag_406\n        /* \"#utility.yul\":2442:2448   */\n      dup2\n        /* \"#utility.yul\":2437:2440   */\n      dup6\n        /* \"#utility.yul\":2378:2449   */\n      tag_306\n      jump\t// in\n    tag_406:\n        /* \"#utility.yul\":2371:2449   */\n      swap4\n      pop\n        /* \"#utility.yul\":2458:2523   */\n      tag_407\n        /* \"#utility.yul\":2516:2522   */\n      dup2\n        /* \"#utility.yul\":2511:2514   */\n      dup6\n        /* \"#utility.yul\":2504:2508   */\n      0x20\n        /* \"#utility.yul\":2497:2502   */\n      dup7\n        /* \"#utility.yul\":2493:2509   */\n      add\n        /* \"#utility.yul\":2458:2523   */\n      tag_307\n      jump\t// in\n    tag_407:\n        /* \"#utility.yul\":2548:2577   */\n      tag_408\n        /* \"#utility.yul\":2570:2576   */\n      dup2\n        /* \"#utility.yul\":2548:2577   */\n      tag_308\n      jump\t// in\n    tag_408:\n        /* \"#utility.yul\":2543:2546   */\n      dup5\n        /* \"#utility.yul\":2539:2578   */\n      add\n        /* \"#utility.yul\":2532:2578   */\n      swap2\n      pop\n        /* \"#utility.yul\":2299:2584   */\n      pop\n        /* \"#utility.yul\":2207:2584   */\n      swap3\n      swap2\n      pop\n      pop\n      jump\t// out\n        /* \"#utility.yul\":2590:2903   */\n    tag_10:\n        /* \"#utility.yul\":2703:2707   */\n      0x00\n        /* \"#utility.yul\":2741:2743   */\n      0x20\n        /* \"#utility.yul\":2730:2739   */\n      dup3\n        /* \"#utility.yul\":2726:2744   */\n      add\n        /* \"#utility.yul\":2718:2744   */\n      swap1\n      pop\n        /* \"#utility.yul\":2790:2799   */\n      dup2\n        /* \"#utility.yul\":2784:2788   */\n      dup2\n        /* \"#utility.yul\":2780:2800   */\n      sub\n        /* \"#utility.yul\":2776:2777   */\n      0x00\n        /* \"#utility.yul\":2765:2774   */\n      dup4\n        /* \"#utility.yul\":2761:2778   */\n      add\n        /* \"#utility.yul\":2754:2801   */\n      mstore\n        /* \"#utility.yul\":2818:2896   */\n      tag_410\n        /* \"#utility.yul\":2891:2895   */\n      dup2\n        /* \"#utility.yul\":2882:2888   */\n      dup5\n        /* \"#utility.yul\":2818:2896   */\n      tag_309\n      jump\t// in\n    tag_410:\n        /* \"#utility.yul\":2810:2896   */\n      swap1\n      pop\n        /* \"#utility.yul\":2590:2903   */\n      swap3\n      swap2\n      pop\n      pop\n      jump\t// out\n        /* \"#utility.yul\":2909:3238   */\n    tag_13:\n        /* \"#utility.yul\":2968:2974   */\n      0x00\n        /* \"#utility.yul\":3017:3019   */\n      0x20\n        /* \"#utility.yul\":3005:3014   */\n      dup3\n        /* \"#utility.yul\":2996:3003   */\n      dup5\n        /* \"#utility.yul\":2992:3015   */\n      sub\n        /* \"#utility.yul\":2988:3020   */\n      slt\n        /* \"#utility.yul\":2985:3104   */\n      iszero\n      tag_412\n      jumpi\n        /* \"#utility.yul\":3023:3102   */\n      tag_413\n      tag_297\n      jump\t// in\n    tag_413:\n        /* \"#utility.yul\":2985:3104   */\n    tag_412:\n        /* \"#utility.yul\":3143:3144   */\n      0x00\n        /* \"#utility.yul\":3168:3221   */\n      tag_414\n        /* \"#utility.yul\":3213:3220   */\n      dup5\n        /* \"#utility.yul\":3204:3210   */\n      dup3\n        /* \"#utility.yul\":3193:3202   */\n      dup6\n        /* \"#utility.yul\":3189:3211   */\n      add\n        /* \"#utility.yul\":3168:3221   */\n      tag_304\n      jump\t// in\n    tag_414:\n        /* \"#utility.yul\":3158:3221   */\n      swap2\n      pop\n        /* \"#utility.yul\":3114:3231   */\n      pop\n        /* \"#utility.yul\":2909:3238   */\n      swap3\n      swap2\n      pop\n      pop\n      jump\t// out\n        /* \"#utility.yul\":3244:3346   */\n    tag_310:\n        /* \"#utility.yul\":3307:3313   */\n      0x00\n        /* \"#utility.yul\":3335:3339   */\n      0x06\n        /* \"#utility.yul\":3325:3339   */\n      swap1\n      pop\n        /* \"#utility.yul\":3244:3346   */\n      swap2\n      swap1\n      pop\n      jump\t// out\n        /* \"#utility.yul\":3352:3493   */\n    tag_311:\n        /* \"#utility.yul\":3447:3458   */\n      0x00\n        /* \"#utility.yul\":3484:3487   */\n      dup2\n        /* \"#utility.yul\":3469:3487   */\n      swap1\n      pop\n        /* \"#utility.yul\":3352:3493   */\n      swap3\n      swap2\n      pop\n      pop\n      jump\t// out\n        /* \"#utility.yul\":3499:3595   */\n    tag_312:\n        /* \"#utility.yul\":3562:3566   */\n      0x00\n        /* \"#utility.yul\":3585:3588   */\n      dup2\n        /* \"#utility.yul\":3577:3588   */\n      swap1\n      pop\n        /* \"#utility.yul\":3499:3595   */\n      swap2\n      swap1\n      pop\n      jump\t// out\n        /* \"#utility.yul\":3601:3687   */\n    tag_313:\n        /* \"#utility.yul\":3636:3643   */\n      0x00\n        /* \"#utility.yul\":3676:3680   */\n      0xff\n        /* \"#utility.yul\":3669:3674   */\n      dup3\n        /* \"#utility.yul\":3665:3681   */\n      and\n        /* \"#utility.yul\":3654:3681   */\n      swap1\n      pop\n        /* \"#utility.yul\":3601:3687   */\n      swap2\n      swap1\n      pop\n      jump\t// out\n        /* \"#utility.yul\":3693:3795   */\n    tag_314:\n        /* \"#utility.yul\":3766:3788   */\n      tag_420\n        /* \"#utility.yul\":3782:3787   */\n      dup2\n        /* \"#utility.yul\":3766:3788   */\n      tag_313\n      jump\t// in\n    tag_420:\n        /* \"#utility.yul\":3761:3764   */\n      dup3\n        /* \"#utility.yul\":3754:3789   */\n      mstore\n        /* \"#utility.yul\":3693:3795   */\n      pop\n      pop\n      jump\t// out\n        /* \"#utility.yul\":3801:3972   */\n    tag_315:\n        /* \"#utility.yul\":3866:3876   */\n      0x00\n        /* \"#utility.yul\":3887:3929   */\n      tag_422\n        /* \"#utility.yul\":3925:3928   */\n      dup4\n        /* \"#utility.yul\":3917:3923   */\n      dup4\n        /* \"#utility.yul\":3887:3929   */\n      tag_314\n      jump\t// in\n    tag_422:\n        /* \"#utility.yul\":3961:3965   */\n      0x20\n        /* \"#utility.yul\":3956:3959   */\n      dup4\n        /* \"#utility.yul\":3952:3966   */\n      add\n        /* \"#utility.yul\":3938:3966   */\n      swap1\n      pop\n        /* \"#utility.yul\":3801:3972   */\n      swap3\n      swap2\n      pop\n      pop\n      jump\t// out\n        /* \"#utility.yul\":3978:4087   */\n    tag_316:\n        /* \"#utility.yul\":4044:4048   */\n      0x00\n        /* \"#utility.yul\":4076:4080   */\n      0x20\n        /* \"#utility.yul\":4071:4074   */\n      dup3\n        /* \"#utility.yul\":4067:4081   */\n      add\n        /* \"#utility.yul\":4059:4081   */\n      swap1\n      pop\n        /* \"#utility.yul\":3978:4087   */\n      swap2\n      swap1\n      pop\n      jump\t// out\n        /* \"#utility.yul\":4121:4799   */\n    tag_317:\n        /* \"#utility.yul\":4253:4303   */\n      tag_425\n        /* \"#utility.yul\":4297:4302   */\n      dup2\n        /* \"#utility.yul\":4253:4303   */\n      tag_310\n      jump\t// in\n    tag_425:\n        /* \"#utility.yul\":4319:4401   */\n      tag_426\n        /* \"#utility.yul\":4394:4400   */\n      dup2\n        /* \"#utility.yul\":4389:4392   */\n      dup5\n        /* \"#utility.yul\":4319:4401   */\n      tag_311\n      jump\t// in\n    tag_426:\n        /* \"#utility.yul\":4312:4401   */\n      swap3\n      pop\n        /* \"#utility.yul\":4425:4477   */\n      tag_427\n        /* \"#utility.yul\":4471:4476   */\n      dup3\n        /* \"#utility.yul\":4425:4477   */\n      tag_312\n      jump\t// in\n    tag_427:\n        /* \"#utility.yul\":4500:4507   */\n      dup1\n        /* \"#utility.yul\":4531:4532   */\n      0x00\n        /* \"#utility.yul\":4516:4792   */\n    tag_428:\n        /* \"#utility.yul\":4541:4547   */\n      dup4\n        /* \"#utility.yul\":4538:4539   */\n      dup2\n        /* \"#utility.yul\":4535:4548   */\n      lt\n        /* \"#utility.yul\":4516:4792   */\n      iszero\n      tag_430\n      jumpi\n        /* \"#utility.yul\":4617:4623   */\n      dup2\n        /* \"#utility.yul\":4611:4624   */\n      mload\n        /* \"#utility.yul\":4644:4703   */\n      tag_431\n        /* \"#utility.yul\":4699:4702   */\n      dup8\n        /* \"#utility.yul\":4684:4697   */\n      dup3\n        /* \"#utility.yul\":4644:4703   */\n      tag_315\n      jump\t// in\n    tag_431:\n        /* \"#utility.yul\":4637:4703   */\n      swap7\n      pop\n        /* \"#utility.yul\":4726:4782   */\n      tag_432\n        /* \"#utility.yul\":4775:4781   */\n      dup4\n        /* \"#utility.yul\":4726:4782   */\n      tag_316\n      jump\t// in\n    tag_432:\n        /* \"#utility.yul\":4716:4782   */\n      swap3\n      pop\n        /* \"#utility.yul\":4576:4792   */\n      pop\n        /* \"#utility.yul\":4563:4564   */\n      0x01\n        /* \"#utility.yul\":4560:4561   */\n      dup2\n        /* \"#utility.yul\":4556:4565   */\n      add\n        /* \"#utility.yul\":4551:4565   */\n      swap1\n      pop\n        /* \"#utility.yul\":4516:4792   */\n      jump(tag_428)\n    tag_430:\n        /* \"#utility.yul\":4520:4534   */\n      pop\n        /* \"#utility.yul\":4229:4799   */\n      pop\n      pop\n      pop\n        /* \"#utility.yul\":4121:4799   */\n      pop\n      pop\n      jump\t// out\n        /* \"#utility.yul\":4805:5112   */\n    tag_16:\n        /* \"#utility.yul\":4940:4944   */\n      0x00\n        /* \"#utility.yul\":4978:4981   */\n      0xc0\n        /* \"#utility.yul\":4967:4976   */\n      dup3\n        /* \"#utility.yul\":4963:4982   */\n      add\n        /* \"#utility.yul\":4955:4982   */\n      swap1\n      pop\n        /* \"#utility.yul\":4992:5105   */\n      tag_434\n        /* \"#utility.yul\":5102:5103   */\n      0x00\n        /* \"#utility.yul\":5091:5100   */\n      dup4\n        /* \"#utility.yul\":5087:5104   */\n      add\n        /* \"#utility.yul\":5078:5084   */\n      dup5\n        /* \"#utility.yul\":4992:5105   */\n      tag_317\n      jump\t// in\n    tag_434:\n        /* \"#utility.yul\":4805:5112   */\n      swap3\n      swap2\n      pop\n      pop\n      jump\t// out\n        /* \"#utility.yul\":5118:5236   */\n    tag_318:\n        /* \"#utility.yul\":5205:5229   */\n      tag_436\n        /* \"#utility.yul\":5223:5228   */\n      dup2\n        /* \"#utility.yul\":5205:5229   */\n      tag_299\n      jump\t// in\n    tag_436:\n        /* \"#utility.yul\":5200:5203   */\n      dup3\n        /* \"#utility.yul\":5193:5230   */\n      mstore\n        /* \"#utility.yul\":5118:5236   */\n      pop\n      pop\n      jump\t// out\n        /* \"#utility.yul\":5242:5464   */\n    tag_19:\n        /* \"#utility.yul\":5335:5339   */\n      0x00\n        /* \"#utility.yul\":5373:5375   */\n      0x20\n        /* \"#utility.yul\":5362:5371   */\n      dup3\n        /* \"#utility.yul\":5358:5376   */\n      add\n        /* \"#utility.yul\":5350:5376   */\n      swap1\n      pop\n        /* \"#utility.yul\":5386:5457   */\n      tag_438\n        /* \"#utility.yul\":5454:5455   */\n      0x00\n        /* \"#utility.yul\":5443:5452   */\n      dup4\n        /* \"#utility.yul\":5439:5456   */\n      add\n        /* \"#utility.yul\":5430:5436   */\n      dup5\n        /* \"#utility.yul\":5386:5457   */\n      tag_318\n      jump\t// in\n    tag_438:\n        /* \"#utility.yul\":5242:5464   */\n      swap3\n      swap2\n      pop\n      pop\n      jump\t// out\n        /* \"#utility.yul\":5470:5587   */\n    tag_319:\n        /* \"#utility.yul\":5579:5580   */\n      0x00\n        /* \"#utility.yul\":5576:5577   */\n      dup1\n        /* \"#utility.yul\":5569:5581   */\n      revert\n        /* \"#utility.yul\":5593:5773   */\n    tag_54:\n        /* \"#utility.yul\":5641:5718   */\n      0x4e487b7100000000000000000000000000000000000000000000000000000000\n        /* \"#utility.yul\":5638:5639   */\n      0x00\n        /* \"#utility.yul\":5631:5719   */\n      mstore\n        /* \"#utility.yul\":5738:5742   */\n      0x41\n        /* \"#utility.yul\":5735:5736   */\n      0x04\n        /* \"#utility.yul\":5728:5743   */\n      mstore\n        /* \"#utility.yul\":5762:5766   */\n      0x24\n        /* \"#utility.yul\":5759:5760   */\n      0x00\n        /* \"#utility.yul\":5752:5767   */\n      revert\n        /* \"#utility.yul\":5779:6060   */\n    tag_320:\n        /* \"#utility.yul\":5862:5889   */\n      tag_442\n        /* \"#utility.yul\":5884:5888   */\n      dup3\n        /* \"#utility.yul\":5862:5889   */\n      tag_308\n      jump\t// in\n    tag_442:\n        /* \"#utility.yul\":5854:5860   */\n      dup2\n        /* \"#utility.yul\":5850:5890   */\n      add\n        /* \"#utility.yul\":5992:5998   */\n      dup2\n        /* \"#utility.yul\":5980:5990   */\n      dup2\n        /* \"#utility.yul\":5977:5999   */\n      lt\n        /* \"#utility.yul\":5956:5974   */\n      0xffffffffffffffff\n        /* \"#utility.yul\":5944:5954   */\n      dup3\n        /* \"#utility.yul\":5941:5975   */\n      gt\n        /* \"#utility.yul\":5938:6000   */\n      or\n        /* \"#utility.yul\":5935:6023   */\n      iszero\n      tag_443\n      jumpi\n        /* \"#utility.yul\":6003:6021   */\n      tag_444\n      tag_54\n      jump\t// in\n    tag_444:\n        /* \"#utility.yul\":5935:6023   */\n    tag_443:\n        /* \"#utility.yul\":6043:6053   */\n      dup1\n        /* \"#utility.yul\":6039:6041   */\n      0x40\n        /* \"#utility.yul\":6032:6054   */\n      mstore\n        /* \"#utility.yul\":5822:6060   */\n      pop\n        /* \"#utility.yul\":5779:6060   */\n      pop\n      pop\n      jump\t// out\n        /* \"#utility.yul\":6066:6195   */\n    tag_321:\n        /* \"#utility.yul\":6100:6106   */\n      0x00\n        /* \"#utility.yul\":6127:6147   */\n      tag_446\n      tag_296\n      jump\t// in\n    tag_446:\n        /* \"#utility.yul\":6117:6147   */\n      swap1\n      pop\n        /* \"#utility.yul\":6156:6189   */\n      tag_447\n        /* \"#utility.yul\":6184:6188   */\n      dup3\n        /* \"#utility.yul\":6176:6182   */\n      dup3\n        /* \"#utility.yul\":6156:6189   */\n      tag_320\n      jump\t// in\n    tag_447:\n        /* \"#utility.yul\":6066:6195   */\n      swap2\n      swap1\n      pop\n      jump\t// out\n        /* \"#utility.yul\":6324:6441   */\n    tag_323:\n        /* \"#utility.yul\":6433:6434   */\n      0x00\n        /* \"#utility.yul\":6430:6431   */\n      dup1\n        /* \"#utility.yul\":6423:6435   */\n      revert\n        /* \"#utility.yul\":6447:6695   */\n    tag_324:\n        /* \"#utility.yul\":6521:6525   */\n      0x00\n        /* \"#utility.yul\":6611:6629   */\n      0xffffffffffffffff\n        /* \"#utility.yul\":6603:6609   */\n      dup3\n        /* \"#utility.yul\":6600:6630   */\n      gt\n        /* \"#utility.yul\":6597:6653   */\n      iszero\n      tag_451\n      jumpi\n        /* \"#utility.yul\":6633:6651   */\n      tag_452\n      tag_54\n      jump\t// in\n    tag_452:\n        /* \"#utility.yul\":6597:6653   */\n    tag_451:\n        /* \"#utility.yul\":6683:6687   */\n      0x20\n        /* \"#utility.yul\":6675:6681   */\n      dup3\n        /* \"#utility.yul\":6671:6688   */\n      mul\n        /* \"#utility.yul\":6663:6688   */\n      swap1\n      pop\n        /* \"#utility.yul\":6447:6695   */\n      swap2\n      swap1\n      pop\n      jump\t// out\n        /* \"#utility.yul\":6701:6818   */\n    tag_325:\n        /* \"#utility.yul\":6810:6811   */\n      0x00\n        /* \"#utility.yul\":6807:6808   */\n      dup1\n        /* \"#utility.yul\":6800:6812   */\n      revert\n        /* \"#utility.yul\":6824:6917   */\n    tag_326:\n        /* \"#utility.yul\":6860:6867   */\n      0x00\n        /* \"#utility.yul\":6900:6910   */\n      0xffffffff\n        /* \"#utility.yul\":6893:6898   */\n      dup3\n        /* \"#utility.yul\":6889:6911   */\n      and\n        /* \"#utility.yul\":6878:6911   */\n      swap1\n      pop\n        /* \"#utility.yul\":6824:6917   */\n      swap2\n      swap1\n      pop\n      jump\t// out\n        /* \"#utility.yul\":6923:7043   */\n    tag_327:\n        /* \"#utility.yul\":6995:7018   */\n      tag_456\n        /* \"#utility.yul\":7012:7017   */\n      dup2\n        /* \"#utility.yul\":6995:7018   */\n      tag_326\n      jump\t// in\n    tag_456:\n        /* \"#utility.yul\":6988:6993   */\n      dup2\n        /* \"#utility.yul\":6985:7019   */\n      eq\n        /* \"#utility.yul\":6975:7037   */\n      tag_457\n      jumpi\n        /* \"#utility.yul\":7033:7034   */\n      0x00\n        /* \"#utility.yul\":7030:7031   */\n      dup1\n        /* \"#utility.yul\":7023:7035   */\n      revert\n        /* \"#utility.yul\":6975:7037   */\n    tag_457:\n        /* \"#utility.yul\":6923:7043   */\n      pop\n      jump\t// out\n        /* \"#utility.yul\":7049:7190   */\n    tag_328:\n        /* \"#utility.yul\":7105:7110   */\n      0x00\n        /* \"#utility.yul\":7136:7142   */\n      dup2\n        /* \"#utility.yul\":7130:7143   */\n      mload\n        /* \"#utility.yul\":7121:7143   */\n      swap1\n      pop\n        /* \"#utility.yul\":7152:7184   */\n      tag_459\n        /* \"#utility.yul\":7178:7183   */\n      dup2\n        /* \"#utility.yul\":7152:7184   */\n      tag_327\n      jump\t// in\n    tag_459:\n        /* \"#utility.yul\":7049:7190   */\n      swap3\n      swap2\n      pop\n      pop\n      jump\t// out\n        /* \"#utility.yul\":7213:7875   */\n    tag_329:\n        /* \"#utility.yul\":7317:7322   */\n      0x00\n        /* \"#utility.yul\":7342:7420   */\n      tag_461\n        /* \"#utility.yul\":7358:7419   */\n      tag_462\n        /* \"#utility.yul\":7412:7418   */\n      dup5\n        /* \"#utility.yul\":7358:7419   */\n      tag_324\n      jump\t// in\n    tag_462:\n        /* \"#utility.yul\":7342:7420   */\n      tag_321\n      jump\t// in\n    tag_461:\n        /* \"#utility.yul\":7333:7420   */\n      swap1\n      pop\n        /* \"#utility.yul\":7440:7445   */\n      dup1\n        /* \"#utility.yul\":7493:7497   */\n      0x20\n        /* \"#utility.yul\":7485:7491   */\n      dup5\n        /* \"#utility.yul\":7481:7498   */\n      mul\n        /* \"#utility.yul\":7473:7479   */\n      dup4\n        /* \"#utility.yul\":7469:7499   */\n      add\n        /* \"#utility.yul\":7522:7525   */\n      dup6\n        /* \"#utility.yul\":7514:7520   */\n      dup2\n        /* \"#utility.yul\":7511:7526   */\n      gt\n        /* \"#utility.yul\":7508:7630   */\n      iszero\n      tag_463\n      jumpi\n        /* \"#utility.yul\":7541:7620   */\n      tag_464\n      tag_325\n      jump\t// in\n    tag_464:\n        /* \"#utility.yul\":7508:7630   */\n    tag_463:\n        /* \"#utility.yul\":7656:7662   */\n      dup4\n        /* \"#utility.yul\":7639:7869   */\n    tag_465:\n        /* \"#utility.yul\":7673:7679   */\n      dup2\n        /* \"#utility.yul\":7668:7671   */\n      dup2\n        /* \"#utility.yul\":7665:7680   */\n      lt\n        /* \"#utility.yul\":7639:7869   */\n      iszero\n      tag_467\n      jumpi\n        /* \"#utility.yul\":7748:7751   */\n      dup1\n        /* \"#utility.yul\":7777:7824   */\n      tag_468\n        /* \"#utility.yul\":7820:7823   */\n      dup9\n        /* \"#utility.yul\":7808:7818   */\n      dup3\n        /* \"#utility.yul\":7777:7824   */\n      tag_328\n      jump\t// in\n    tag_468:\n        /* \"#utility.yul\":7772:7775   */\n      dup5\n        /* \"#utility.yul\":7765:7825   */\n      mstore\n        /* \"#utility.yul\":7854:7858   */\n      0x20\n        /* \"#utility.yul\":7849:7852   */\n      dup5\n        /* \"#utility.yul\":7845:7859   */\n      add\n        /* \"#utility.yul\":7838:7859   */\n      swap4\n      pop\n        /* \"#utility.yul\":7715:7869   */\n      pop\n        /* \"#utility.yul\":7699:7703   */\n      0x20\n        /* \"#utility.yul\":7694:7697   */\n      dup2\n        /* \"#utility.yul\":7690:7704   */\n      add\n        /* \"#utility.yul\":7683:7704   */\n      swap1\n      pop\n        /* \"#utility.yul\":7639:7869   */\n      jump(tag_465)\n    tag_467:\n        /* \"#utility.yul\":7643:7664   */\n      pop\n        /* \"#utility.yul\":7323:7875   */\n      pop\n      pop\n        /* \"#utility.yul\":7213:7875   */\n      swap4\n      swap3\n      pop\n      pop\n      pop\n      jump\t// out\n        /* \"#utility.yul\":7898:8257   */\n    tag_330:\n        /* \"#utility.yul\":7977:7982   */\n      0x00\n        /* \"#utility.yul\":8026:8029   */\n      dup3\n        /* \"#utility.yul\":8019:8023   */\n      0x1f\n        /* \"#utility.yul\":8011:8017   */\n      dup4\n        /* \"#utility.yul\":8007:8024   */\n      add\n        /* \"#utility.yul\":8003:8030   */\n      slt\n        /* \"#utility.yul\":7993:8115   */\n      tag_470\n      jumpi\n        /* \"#utility.yul\":8034:8113   */\n      tag_471\n      tag_323\n      jump\t// in\n    tag_471:\n        /* \"#utility.yul\":7993:8115   */\n    tag_470:\n        /* \"#utility.yul\":8138:8142   */\n      0x04\n        /* \"#utility.yul\":8160:8251   */\n      tag_472\n        /* \"#utility.yul\":8247:8250   */\n      dup5\n        /* \"#utility.yul\":8239:8245   */\n      dup3\n        /* \"#utility.yul\":8231:8237   */\n      dup6\n        /* \"#utility.yul\":8160:8251   */\n      tag_329\n      jump\t// in\n    tag_472:\n        /* \"#utility.yul\":8151:8251   */\n      swap2\n      pop\n        /* \"#utility.yul\":7983:8257   */\n      pop\n        /* \"#utility.yul\":7898:8257   */\n      swap3\n      swap2\n      pop\n      pop\n      jump\t// out\n        /* \"#utility.yul\":8311:8950   */\n    tag_331:\n        /* \"#utility.yul\":8404:8409   */\n      0x00\n        /* \"#utility.yul\":8448:8452   */\n      0xa0\n        /* \"#utility.yul\":8436:8445   */\n      dup3\n        /* \"#utility.yul\":8431:8434   */\n      dup5\n        /* \"#utility.yul\":8427:8446   */\n      sub\n        /* \"#utility.yul\":8423:8453   */\n      slt\n        /* \"#utility.yul\":8420:8537   */\n      iszero\n      tag_474\n      jumpi\n        /* \"#utility.yul\":8456:8535   */\n      tag_475\n      tag_319\n      jump\t// in\n    tag_475:\n        /* \"#utility.yul\":8420:8537   */\n    tag_474:\n        /* \"#utility.yul\":8555:8576   */\n      tag_476\n        /* \"#utility.yul\":8571:8575   */\n      0x40\n        /* \"#utility.yul\":8555:8576   */\n      tag_321\n      jump\t// in\n    tag_476:\n        /* \"#utility.yul\":8546:8576   */\n      swap1\n      pop\n        /* \"#utility.yul\":8636:8637   */\n      0x00\n        /* \"#utility.yul\":8676:8758   */\n      tag_477\n        /* \"#utility.yul\":8754:8757   */\n      dup5\n        /* \"#utility.yul\":8745:8751   */\n      dup3\n        /* \"#utility.yul\":8734:8743   */\n      dup6\n        /* \"#utility.yul\":8730:8752   */\n      add\n        /* \"#utility.yul\":8676:8758   */\n      tag_330\n      jump\t// in\n    tag_477:\n        /* \"#utility.yul\":8669:8673   */\n      0x00\n        /* \"#utility.yul\":8662:8667   */\n      dup4\n        /* \"#utility.yul\":8658:8674   */\n      add\n        /* \"#utility.yul\":8651:8759   */\n      mstore\n        /* \"#utility.yul\":8586:8770   */\n      pop\n        /* \"#utility.yul\":8830:8833   */\n      0x80\n        /* \"#utility.yul\":8872:8931   */\n      tag_478\n        /* \"#utility.yul\":8927:8930   */\n      dup5\n        /* \"#utility.yul\":8918:8924   */\n      dup3\n        /* \"#utility.yul\":8907:8916   */\n      dup6\n        /* \"#utility.yul\":8903:8925   */\n      add\n        /* \"#utility.yul\":8872:8931   */\n      tag_328\n      jump\t// in\n    tag_478:\n        /* \"#utility.yul\":8865:8869   */\n      0x20\n        /* \"#utility.yul\":8858:8863   */\n      dup4\n        /* \"#utility.yul\":8854:8870   */\n      add\n        /* \"#utility.yul\":8847:8932   */\n      mstore\n        /* \"#utility.yul\":8780:8943   */\n      pop\n        /* \"#utility.yul\":8311:8950   */\n      swap3\n      swap2\n      pop\n      pop\n      jump\t// out\n        /* \"#utility.yul\":8956:9374   */\n    tag_23:\n        /* \"#utility.yul\":9059:9065   */\n      0x00\n        /* \"#utility.yul\":9108:9111   */\n      0xa0\n        /* \"#utility.yul\":9096:9105   */\n      dup3\n        /* \"#utility.yul\":9087:9094   */\n      dup5\n        /* \"#utility.yul\":9083:9106   */\n      sub\n        /* \"#utility.yul\":9079:9112   */\n      slt\n        /* \"#utility.yul\":9076:9196   */\n      iszero\n      tag_480\n      jumpi\n        /* \"#utility.yul\":9115:9194   */\n      tag_481\n      tag_297\n      jump\t// in\n    tag_481:\n        /* \"#utility.yul\":9076:9196   */\n    tag_480:\n        /* \"#utility.yul\":9235:9236   */\n      0x00\n        /* \"#utility.yul\":9260:9357   */\n      tag_482\n        /* \"#utility.yul\":9349:9356   */\n      dup5\n        /* \"#utility.yul\":9340:9346   */\n      dup3\n        /* \"#utility.yul\":9329:9338   */\n      dup6\n        /* \"#utility.yul\":9325:9347   */\n      add\n        /* \"#utility.yul\":9260:9357   */\n      tag_331\n      jump\t// in\n    tag_482:\n        /* \"#utility.yul\":9250:9357   */\n      swap2\n      pop\n        /* \"#utility.yul\":9206:9367   */\n      pop\n        /* \"#utility.yul\":8956:9374   */\n      swap3\n      swap2\n      pop\n      pop\n      jump\t// out\n        /* \"#utility.yul\":9380:9560   */\n    tag_27:\n        /* \"#utility.yul\":9428:9505   */\n      0x4e487b7100000000000000000000000000000000000000000000000000000000\n        /* \"#utility.yul\":9425:9426   */\n      0x00\n        /* \"#utility.yul\":9418:9506   */\n      mstore\n        /* \"#utility.yul\":9525:9529   */\n      0x32\n        /* \"#utility.yul\":9522:9523   */\n      0x04\n        /* \"#utility.yul\":9515:9530   */\n      mstore\n        /* \"#utility.yul\":9549:9553   */\n      0x24\n        /* \"#utility.yul\":9546:9547   */\n      0x00\n        /* \"#utility.yul\":9539:9554   */\n      revert\n        /* \"#utility.yul\":9566:9669   */\n    tag_332:\n        /* \"#utility.yul\":9630:9636   */\n      0x00\n        /* \"#utility.yul\":9658:9662   */\n      0x04\n        /* \"#utility.yul\":9648:9662   */\n      swap1\n      pop\n        /* \"#utility.yul\":9566:9669   */\n      swap2\n      swap1\n      pop\n      jump\t// out\n        /* \"#utility.yul\":9675:9807   */\n    tag_333:\n        /* \"#utility.yul\":9761:9772   */\n      0x00\n        /* \"#utility.yul\":9798:9801   */\n      dup2\n        /* \"#utility.yul\":9783:9801   */\n      swap1\n      pop\n        /* \"#utility.yul\":9675:9807   */\n      swap3\n      swap2\n      pop\n      pop\n      jump\t// out\n        /* \"#utility.yul\":9813:9910   */\n    tag_334:\n        /* \"#utility.yul\":9877:9881   */\n      0x00\n        /* \"#utility.yul\":9900:9903   */\n      dup2\n        /* \"#utility.yul\":9892:9903   */\n      swap1\n      pop\n        /* \"#utility.yul\":9813:9910   */\n      swap2\n      swap1\n      pop\n      jump\t// out\n        /* \"#utility.yul\":9916:10021   */\n    tag_335:\n        /* \"#utility.yul\":9991:10014   */\n      tag_488\n        /* \"#utility.yul\":10008:10013   */\n      dup2\n        /* \"#utility.yul\":9991:10014   */\n      tag_326\n      jump\t// in\n    tag_488:\n        /* \"#utility.yul\":9986:9989   */\n      dup3\n        /* \"#utility.yul\":9979:10015   */\n      mstore\n        /* \"#utility.yul\":9916:10021   */\n      pop\n      pop\n      jump\t// out\n        /* \"#utility.yul\":10027:10202   */\n    tag_336:\n        /* \"#utility.yul\":10094:10104   */\n      0x00\n        /* \"#utility.yul\":10115:10159   */\n      tag_490\n        /* \"#utility.yul\":10155:10158   */\n      dup4\n        /* \"#utility.yul\":10147:10153   */\n      dup4\n        /* \"#utility.yul\":10115:10159   */\n      tag_335\n      jump\t// in\n    tag_490:\n        /* \"#utility.yul\":10191:10195   */\n      0x20\n        /* \"#utility.yul\":10186:10189   */\n      dup4\n        /* \"#utility.yul\":10182:10196   */\n      add\n        /* \"#utility.yul\":10168:10196   */\n      swap1\n      pop\n        /* \"#utility.yul\":10027:10202   */\n      swap3\n      swap2\n      pop\n      pop\n      jump\t// out\n        /* \"#utility.yul\":10208:10318   */\n    tag_337:\n        /* \"#utility.yul\":10275:10279   */\n      0x00\n        /* \"#utility.yul\":10307:10311   */\n      0x20\n        /* \"#utility.yul\":10302:10305   */\n      dup3\n        /* \"#utility.yul\":10298:10312   */\n      add\n        /* \"#utility.yul\":10290:10312   */\n      swap1\n      pop\n        /* \"#utility.yul\":10208:10318   */\n      swap2\n      swap1\n      pop\n      jump\t// out\n        /* \"#utility.yul\":10354:11020   */\n    tag_338:\n        /* \"#utility.yul\":10478:10529   */\n      tag_493\n        /* \"#utility.yul\":10523:10528   */\n      dup2\n        /* \"#utility.yul\":10478:10529   */\n      tag_332\n      jump\t// in\n    tag_493:\n        /* \"#utility.yul\":10545:10618   */\n      tag_494\n        /* \"#utility.yul\":10611:10617   */\n      dup2\n        /* \"#utility.yul\":10606:10609   */\n      dup5\n        /* \"#utility.yul\":10545:10618   */\n      tag_333\n      jump\t// in\n    tag_494:\n        /* \"#utility.yul\":10538:10618   */\n      swap3\n      pop\n        /* \"#utility.yul\":10642:10695   */\n      tag_495\n        /* \"#utility.yul\":10689:10694   */\n      dup3\n        /* \"#utility.yul\":10642:10695   */\n      tag_334\n      jump\t// in\n    tag_495:\n        /* \"#utility.yul\":10718:10725   */\n      dup1\n        /* \"#utility.yul\":10749:10750   */\n      0x00\n        /* \"#utility.yul\":10734:11013   */\n    tag_496:\n        /* \"#utility.yul\":10759:10765   */\n      dup4\n        /* \"#utility.yul\":10756:10757   */\n      dup2\n        /* \"#utility.yul\":10753:10766   */\n      lt\n        /* \"#utility.yul\":10734:11013   */\n      iszero\n      tag_498\n      jumpi\n        /* \"#utility.yul\":10835:10841   */\n      dup2\n        /* \"#utility.yul\":10829:10842   */\n      mload\n        /* \"#utility.yul\":10862:10923   */\n      tag_499\n        /* \"#utility.yul\":10919:10922   */\n      dup8\n        /* \"#utility.yul\":10904:10917   */\n      dup3\n        /* \"#utility.yul\":10862:10923   */\n      tag_336\n      jump\t// in\n    tag_499:\n        /* \"#utility.yul\":10855:10923   */\n      swap7\n      pop\n        /* \"#utility.yul\":10946:11003   */\n      tag_500\n        /* \"#utility.yul\":10996:11002   */\n      dup4\n        /* \"#utility.yul\":10946:11003   */\n      tag_337\n      jump\t// in\n    tag_500:\n        /* \"#utility.yul\":10936:11003   */\n      swap3\n      pop\n        /* \"#utility.yul\":10794:11013   */\n      pop\n        /* \"#utility.yul\":10781:10782   */\n      0x01\n        /* \"#utility.yul\":10778:10779   */\n      dup2\n        /* \"#utility.yul\":10774:10783   */\n      add\n        /* \"#utility.yul\":10769:10783   */\n      swap1\n      pop\n        /* \"#utility.yul\":10734:11013   */\n      jump(tag_496)\n    tag_498:\n        /* \"#utility.yul\":10738:10752   */\n      pop\n        /* \"#utility.yul\":10454:11020   */\n      pop\n      pop\n      pop\n        /* \"#utility.yul\":10354:11020   */\n      pop\n      pop\n      jump\t// out\n        /* \"#utility.yul\":11118:11685   */\n    tag_339:\n        /* \"#utility.yul\":11281:11285   */\n      0xa0\n        /* \"#utility.yul\":11276:11279   */\n      dup3\n        /* \"#utility.yul\":11272:11286   */\n      add\n        /* \"#utility.yul\":11369:11373   */\n      0x00\n        /* \"#utility.yul\":11362:11367   */\n      dup3\n        /* \"#utility.yul\":11358:11374   */\n      add\n        /* \"#utility.yul\":11352:11375   */\n      mload\n        /* \"#utility.yul\":11388:11495   */\n      tag_502\n        /* \"#utility.yul\":11489:11493   */\n      0x00\n        /* \"#utility.yul\":11484:11487   */\n      dup6\n        /* \"#utility.yul\":11480:11494   */\n      add\n        /* \"#utility.yul\":11466:11478   */\n      dup3\n        /* \"#utility.yul\":11388:11495   */\n      tag_338\n      jump\t// in\n    tag_502:\n        /* \"#utility.yul\":11296:11505   */\n      pop\n        /* \"#utility.yul\":11588:11592   */\n      0x20\n        /* \"#utility.yul\":11581:11586   */\n      dup3\n        /* \"#utility.yul\":11577:11593   */\n      add\n        /* \"#utility.yul\":11571:11594   */\n      mload\n        /* \"#utility.yul\":11607:11668   */\n      tag_503\n        /* \"#utility.yul\":11662:11666   */\n      0x80\n        /* \"#utility.yul\":11657:11660   */\n      dup6\n        /* \"#utility.yul\":11653:11667   */\n      add\n        /* \"#utility.yul\":11639:11651   */\n      dup3\n        /* \"#utility.yul\":11607:11668   */\n      tag_335\n      jump\t// in\n    tag_503:\n        /* \"#utility.yul\":11515:11678   */\n      pop\n        /* \"#utility.yul\":11250:11685   */\n      pop\n        /* \"#utility.yul\":11118:11685   */\n      pop\n      pop\n      jump\t// out\n        /* \"#utility.yul\":11691:11751   */\n    tag_340:\n        /* \"#utility.yul\":11719:11722   */\n      0x00\n        /* \"#utility.yul\":11740:11745   */\n      dup2\n        /* \"#utility.yul\":11733:11745   */\n      swap1\n      pop\n        /* \"#utility.yul\":11691:11751   */\n      swap2\n      swap1\n      pop\n      jump\t// out\n        /* \"#utility.yul\":11757:11893   */\n    tag_341:\n        /* \"#utility.yul\":11804:11813   */\n      0x00\n        /* \"#utility.yul\":11837:11887   */\n      tag_506\n        /* \"#utility.yul\":11854:11886   */\n      tag_507\n        /* \"#utility.yul\":11863:11885   */\n      tag_508\n        /* \"#utility.yul\":11879:11884   */\n      dup5\n        /* \"#utility.yul\":11863:11885   */\n      tag_313\n      jump\t// in\n    tag_508:\n        /* \"#utility.yul\":11854:11886   */\n      tag_340\n      jump\t// in\n    tag_507:\n        /* \"#utility.yul\":11837:11887   */\n      tag_326\n      jump\t// in\n    tag_506:\n        /* \"#utility.yul\":11824:11887   */\n      swap1\n      pop\n        /* \"#utility.yul\":11757:11893   */\n      swap2\n      swap1\n      pop\n      jump\t// out\n        /* \"#utility.yul\":11899:12024   */\n    tag_342:\n        /* \"#utility.yul\":11983:12017   */\n      tag_510\n        /* \"#utility.yul\":12011:12016   */\n      dup2\n        /* \"#utility.yul\":11983:12017   */\n      tag_341\n      jump\t// in\n    tag_510:\n        /* \"#utility.yul\":11978:11981   */\n      dup3\n        /* \"#utility.yul\":11971:12018   */\n      mstore\n        /* \"#utility.yul\":11899:12024   */\n      pop\n      pop\n      jump\t// out\n        /* \"#utility.yul\":12030:12490   */\n    tag_29:\n        /* \"#utility.yul\":12214:12218   */\n      0x00\n        /* \"#utility.yul\":12252:12255   */\n      0xc0\n        /* \"#utility.yul\":12241:12250   */\n      dup3\n        /* \"#utility.yul\":12237:12256   */\n      add\n        /* \"#utility.yul\":12229:12256   */\n      swap1\n      pop\n        /* \"#utility.yul\":12266:12403   */\n      tag_512\n        /* \"#utility.yul\":12400:12401   */\n      0x00\n        /* \"#utility.yul\":12389:12398   */\n      dup4\n        /* \"#utility.yul\":12385:12402   */\n      add\n        /* \"#utility.yul\":12376:12382   */\n      dup6\n        /* \"#utility.yul\":12266:12403   */\n      tag_339\n      jump\t// in\n    tag_512:\n        /* \"#utility.yul\":12413:12483   */\n      tag_513\n        /* \"#utility.yul\":12478:12481   */\n      0xa0\n        /* \"#utility.yul\":12467:12476   */\n      dup4\n        /* \"#utility.yul\":12463:12482   */\n      add\n        /* \"#utility.yul\":12454:12460   */\n      dup5\n        /* \"#utility.yul\":12413:12483   */\n      tag_342\n      jump\t// in\n    tag_513:\n        /* \"#utility.yul\":12030:12490   */\n      swap4\n      swap3\n      pop\n      pop\n      pop\n      jump\t// out\n        /* \"#utility.yul\":12496:12594   */\n    tag_343:\n        /* \"#utility.yul\":12547:12553   */\n      0x00\n        /* \"#utility.yul\":12581:12586   */\n      dup2\n        /* \"#utility.yul\":12575:12587   */\n      mload\n        /* \"#utility.yul\":12565:12587   */\n      swap1\n      pop\n        /* \"#utility.yul\":12496:12594   */\n      swap2\n      swap1\n      pop\n      jump\t// out\n        /* \"#utility.yul\":12600:12747   */\n    tag_344:\n        /* \"#utility.yul\":12701:12712   */\n      0x00\n        /* \"#utility.yul\":12738:12741   */\n      dup2\n        /* \"#utility.yul\":12723:12741   */\n      swap1\n      pop\n        /* \"#utility.yul\":12600:12747   */\n      swap3\n      swap2\n      pop\n      pop\n      jump\t// out\n        /* \"#utility.yul\":12753:13139   */\n    tag_345:\n        /* \"#utility.yul\":12857:12860   */\n      0x00\n        /* \"#utility.yul\":12885:12923   */\n      tag_517\n        /* \"#utility.yul\":12917:12922   */\n      dup3\n        /* \"#utility.yul\":12885:12923   */\n      tag_343\n      jump\t// in\n    tag_517:\n        /* \"#utility.yul\":12939:13027   */\n      tag_518\n        /* \"#utility.yul\":13020:13026   */\n      dup2\n        /* \"#utility.yul\":13015:13018   */\n      dup6\n        /* \"#utility.yul\":12939:13027   */\n      tag_344\n      jump\t// in\n    tag_518:\n        /* \"#utility.yul\":12932:13027   */\n      swap4\n      pop\n        /* \"#utility.yul\":13036:13101   */\n      tag_519\n        /* \"#utility.yul\":13094:13100   */\n      dup2\n        /* \"#utility.yul\":13089:13092   */\n      dup6\n        /* \"#utility.yul\":13082:13086   */\n      0x20\n        /* \"#utility.yul\":13075:13080   */\n      dup7\n        /* \"#utility.yul\":13071:13087   */\n      add\n        /* \"#utility.yul\":13036:13101   */\n      tag_307\n      jump\t// in\n    tag_519:\n        /* \"#utility.yul\":13126:13132   */\n      dup1\n        /* \"#utility.yul\":13121:13124   */\n      dup5\n        /* \"#utility.yul\":13117:13133   */\n      add\n        /* \"#utility.yul\":13110:13133   */\n      swap2\n      pop\n        /* \"#utility.yul\":12861:13139   */\n      pop\n        /* \"#utility.yul\":12753:13139   */\n      swap3\n      swap2\n      pop\n      pop\n      jump\t// out\n        /* \"#utility.yul\":13145:13293   */\n    tag_346:\n        /* \"#utility.yul\":13247:13258   */\n      0x00\n        /* \"#utility.yul\":13284:13287   */\n      dup2\n        /* \"#utility.yul\":13269:13287   */\n      swap1\n      pop\n        /* \"#utility.yul\":13145:13293   */\n      swap3\n      swap2\n      pop\n      pop\n      jump\t// out\n        /* \"#utility.yul\":13299:13451   */\n    tag_347:\n        /* \"#utility.yul\":13439:13443   */\n      0x7061000000000000000000000000000000000000000000000000000000000000\n        /* \"#utility.yul\":13435:13436   */\n      0x00\n        /* \"#utility.yul\":13427:13433   */\n      dup3\n        /* \"#utility.yul\":13423:13437   */\n      add\n        /* \"#utility.yul\":13416:13444   */\n      mstore\n        /* \"#utility.yul\":13299:13451   */\n      pop\n      jump\t// out\n        /* \"#utility.yul\":13457:13857   */\n    tag_348:\n        /* \"#utility.yul\":13617:13620   */\n      0x00\n        /* \"#utility.yul\":13638:13722   */\n      tag_523\n        /* \"#utility.yul\":13720:13721   */\n      0x02\n        /* \"#utility.yul\":13715:13718   */\n      dup4\n        /* \"#utility.yul\":13638:13722   */\n      tag_346\n      jump\t// in\n    tag_523:\n        /* \"#utility.yul\":13631:13722   */\n      swap2\n      pop\n        /* \"#utility.yul\":13731:13824   */\n      tag_524\n        /* \"#utility.yul\":13820:13823   */\n      dup3\n        /* \"#utility.yul\":13731:13824   */\n      tag_347\n      jump\t// in\n    tag_524:\n        /* \"#utility.yul\":13849:13850   */\n      0x02\n        /* \"#utility.yul\":13844:13847   */\n      dup3\n        /* \"#utility.yul\":13840:13851   */\n      add\n        /* \"#utility.yul\":13833:13851   */\n      swap1\n      pop\n        /* \"#utility.yul\":13457:13857   */\n      swap2\n      swap1\n      pop\n      jump\t// out\n        /* \"#utility.yul\":13863:14253   */\n    tag_349:\n        /* \"#utility.yul\":13969:13972   */\n      0x00\n        /* \"#utility.yul\":13997:14036   */\n      tag_526\n        /* \"#utility.yul\":14030:14035   */\n      dup3\n        /* \"#utility.yul\":13997:14036   */\n      tag_305\n      jump\t// in\n    tag_526:\n        /* \"#utility.yul\":14052:14141   */\n      tag_527\n        /* \"#utility.yul\":14134:14140   */\n      dup2\n        /* \"#utility.yul\":14129:14132   */\n      dup6\n        /* \"#utility.yul\":14052:14141   */\n      tag_346\n      jump\t// in\n    tag_527:\n        /* \"#utility.yul\":14045:14141   */\n      swap4\n      pop\n        /* \"#utility.yul\":14150:14215   */\n      tag_528\n        /* \"#utility.yul\":14208:14214   */\n      dup2\n        /* \"#utility.yul\":14203:14206   */\n      dup6\n        /* \"#utility.yul\":14196:14200   */\n      0x20\n        /* \"#utility.yul\":14189:14194   */\n      dup7\n        /* \"#utility.yul\":14185:14201   */\n      add\n        /* \"#utility.yul\":14150:14215   */\n      tag_307\n      jump\t// in\n    tag_528:\n        /* \"#utility.yul\":14240:14246   */\n      dup1\n        /* \"#utility.yul\":14235:14238   */\n      dup5\n        /* \"#utility.yul\":14231:14247   */\n      add\n        /* \"#utility.yul\":14224:14247   */\n      swap2\n      pop\n        /* \"#utility.yul\":13973:14253   */\n      pop\n        /* \"#utility.yul\":13863:14253   */\n      swap3\n      swap2\n      pop\n      pop\n      jump\t// out\n        /* \"#utility.yul\":14259:14956   */\n    tag_36:\n        /* \"#utility.yul\":14538:14541   */\n      0x00\n        /* \"#utility.yul\":14560:14653   */\n      tag_530\n        /* \"#utility.yul\":14649:14652   */\n      dup3\n        /* \"#utility.yul\":14640:14646   */\n      dup6\n        /* \"#utility.yul\":14560:14653   */\n      tag_345\n      jump\t// in\n    tag_530:\n        /* \"#utility.yul\":14553:14653   */\n      swap2\n      pop\n        /* \"#utility.yul\":14670:14818   */\n      tag_531\n        /* \"#utility.yul\":14814:14817   */\n      dup3\n        /* \"#utility.yul\":14670:14818   */\n      tag_348\n      jump\t// in\n    tag_531:\n        /* \"#utility.yul\":14663:14818   */\n      swap2\n      pop\n        /* \"#utility.yul\":14835:14930   */\n      tag_532\n        /* \"#utility.yul\":14926:14929   */\n      dup3\n        /* \"#utility.yul\":14917:14923   */\n      dup5\n        /* \"#utility.yul\":14835:14930   */\n      tag_349\n      jump\t// in\n    tag_532:\n        /* \"#utility.yul\":14828:14930   */\n      swap2\n      pop\n        /* \"#utility.yul\":14947:14950   */\n      dup2\n        /* \"#utility.yul\":14940:14950   */\n      swap1\n      pop\n        /* \"#utility.yul\":14259:14956   */\n      swap4\n      swap3\n      pop\n      pop\n      pop\n      jump\t// out\n        /* \"#utility.yul\":14962:15142   */\n    tag_350:\n        /* \"#utility.yul\":15010:15087   */\n      0x4e487b7100000000000000000000000000000000000000000000000000000000\n        /* \"#utility.yul\":15007:15008   */\n      0x00\n        /* \"#utility.yul\":15000:15088   */\n      mstore\n        /* \"#utility.yul\":15107:15111   */\n      0x11\n        /* \"#utility.yul\":15104:15105   */\n      0x04\n        /* \"#utility.yul\":15097:15112   */\n      mstore\n        /* \"#utility.yul\":15131:15135   */\n      0x24\n        /* \"#utility.yul\":15128:15129   */\n      0x00\n        /* \"#utility.yul\":15121:15136   */\n      revert\n        /* \"#utility.yul\":15148:15336   */\n    tag_42:\n        /* \"#utility.yul\":15186:15189   */\n      0x00\n        /* \"#utility.yul\":15205:15223   */\n      tag_535\n        /* \"#utility.yul\":15221:15222   */\n      dup3\n        /* \"#utility.yul\":15205:15223   */\n      tag_313\n      jump\t// in\n    tag_535:\n        /* \"#utility.yul\":15200:15223   */\n      swap2\n      pop\n        /* \"#utility.yul\":15237:15255   */\n      tag_536\n        /* \"#utility.yul\":15253:15254   */\n      dup4\n        /* \"#utility.yul\":15237:15255   */\n      tag_313\n      jump\t// in\n    tag_536:\n        /* \"#utility.yul\":15232:15255   */\n      swap3\n      pop\n        /* \"#utility.yul\":15278:15279   */\n      dup3\n        /* \"#utility.yul\":15275:15276   */\n      dup3\n        /* \"#utility.yul\":15271:15280   */\n      add\n        /* \"#utility.yul\":15264:15280   */\n      swap1\n      pop\n        /* \"#utility.yul\":15301:15305   */\n      0xff\n        /* \"#utility.yul\":15296:15299   */\n      dup2\n        /* \"#utility.yul\":15293:15306   */\n      gt\n        /* \"#utility.yul\":15290:15329   */\n      iszero\n      tag_537\n      jumpi\n        /* \"#utility.yul\":15309:15327   */\n      tag_538\n      tag_350\n      jump\t// in\n    tag_538:\n        /* \"#utility.yul\":15290:15329   */\n    tag_537:\n        /* \"#utility.yul\":15148:15336   */\n      swap3\n      swap2\n      pop\n      pop\n      jump\t// out\n        /* \"#utility.yul\":15342:15907   */\n    tag_44:\n        /* \"#utility.yul\":15551:15555   */\n      0x00\n        /* \"#utility.yul\":15589:15592   */\n      0xe0\n        /* \"#utility.yul\":15578:15587   */\n      dup3\n        /* \"#utility.yul\":15574:15593   */\n      add\n        /* \"#utility.yul\":15566:15593   */\n      swap1\n      pop\n        /* \"#utility.yul\":15603:15740   */\n      tag_540\n        /* \"#utility.yul\":15737:15738   */\n      0x00\n        /* \"#utility.yul\":15726:15735   */\n      dup4\n        /* \"#utility.yul\":15722:15739   */\n      add\n        /* \"#utility.yul\":15713:15719   */\n      dup7\n        /* \"#utility.yul\":15603:15740   */\n      tag_339\n      jump\t// in\n    tag_540:\n        /* \"#utility.yul\":15750:15820   */\n      tag_541\n        /* \"#utility.yul\":15815:15818   */\n      0xa0\n        /* \"#utility.yul\":15804:15813   */\n      dup4\n        /* \"#utility.yul\":15800:15819   */\n      add\n        /* \"#utility.yul\":15791:15797   */\n      dup6\n        /* \"#utility.yul\":15750:15820   */\n      tag_342\n      jump\t// in\n    tag_541:\n        /* \"#utility.yul\":15830:15900   */\n      tag_542\n        /* \"#utility.yul\":15895:15898   */\n      0xc0\n        /* \"#utility.yul\":15884:15893   */\n      dup4\n        /* \"#utility.yul\":15880:15899   */\n      add\n        /* \"#utility.yul\":15871:15877   */\n      dup5\n        /* \"#utility.yul\":15830:15900   */\n      tag_342\n      jump\t// in\n    tag_542:\n        /* \"#utility.yul\":15342:15907   */\n      swap5\n      swap4\n      pop\n      pop\n      pop\n      pop\n      jump\t// out\n        /* \"#utility.yul\":15913:16188   */\n    tag_49:\n        /* \"#utility.yul\":15952:15959   */\n      0x00\n        /* \"#utility.yul\":15975:15994   */\n      tag_544\n        /* \"#utility.yul\":15992:15993   */\n      dup3\n        /* \"#utility.yul\":15975:15994   */\n      tag_326\n      jump\t// in\n    tag_544:\n        /* \"#utility.yul\":15970:15994   */\n      swap2\n      pop\n        /* \"#utility.yul\":16008:16027   */\n      tag_545\n        /* \"#utility.yul\":16025:16026   */\n      dup4\n        /* \"#utility.yul\":16008:16027   */\n      tag_326\n      jump\t// in\n    tag_545:\n        /* \"#utility.yul\":16003:16027   */\n      swap3\n      pop\n        /* \"#utility.yul\":16062:16063   */\n      dup3\n        /* \"#utility.yul\":16059:16060   */\n      dup3\n        /* \"#utility.yul\":16055:16064   */\n      mul\n        /* \"#utility.yul\":16084:16113   */\n      tag_546\n        /* \"#utility.yul\":16101:16112   */\n      dup2\n        /* \"#utility.yul\":16084:16113   */\n      tag_326\n      jump\t// in\n    tag_546:\n        /* \"#utility.yul\":16073:16113   */\n      swap2\n      pop\n        /* \"#utility.yul\":16145:16156   */\n      dup1\n        /* \"#utility.yul\":16136:16143   */\n      dup3\n        /* \"#utility.yul\":16133:16157   */\n      eq\n        /* \"#utility.yul\":16123:16181   */\n      tag_547\n      jumpi\n        /* \"#utility.yul\":16161:16179   */\n      tag_548\n      tag_350\n      jump\t// in\n    tag_548:\n        /* \"#utility.yul\":16123:16181   */\n    tag_547:\n        /* \"#utility.yul\":15960:16188   */\n      pop\n        /* \"#utility.yul\":15913:16188   */\n      swap3\n      swap2\n      pop\n      pop\n      jump\t// out\n        /* \"#utility.yul\":16194:16391   */\n    tag_51:\n        /* \"#utility.yul\":16233:16236   */\n      0x00\n        /* \"#utility.yul\":16252:16271   */\n      tag_550\n        /* \"#utility.yul\":16269:16270   */\n      dup3\n        /* \"#utility.yul\":16252:16271   */\n      tag_326\n      jump\t// in\n    tag_550:\n        /* \"#utility.yul\":16247:16271   */\n      swap2\n      pop\n        /* \"#utility.yul\":16285:16304   */\n      tag_551\n        /* \"#utility.yul\":16302:16303   */\n      dup4\n        /* \"#utility.yul\":16285:16304   */\n      tag_326\n      jump\t// in\n    tag_551:\n        /* \"#utility.yul\":16280:16304   */\n      swap3\n      pop\n        /* \"#utility.yul\":16327:16328   */\n      dup3\n        /* \"#utility.yul\":16324:16325   */\n      dup3\n        /* \"#utility.yul\":16320:16329   */\n      add\n        /* \"#utility.yul\":16313:16329   */\n      swap1\n      pop\n        /* \"#utility.yul\":16350:16360   */\n      0xffffffff\n        /* \"#utility.yul\":16345:16348   */\n      dup2\n        /* \"#utility.yul\":16342:16361   */\n      gt\n        /* \"#utility.yul\":16339:16384   */\n      iszero\n      tag_552\n      jumpi\n        /* \"#utility.yul\":16364:16382   */\n      tag_553\n      tag_350\n      jump\t// in\n    tag_553:\n        /* \"#utility.yul\":16339:16384   */\n    tag_552:\n        /* \"#utility.yul\":16194:16391   */\n      swap3\n      swap2\n      pop\n      pop\n      jump\t// out\n        /* \"#utility.yul\":16397:16572   */\n    tag_67:\n        /* \"#utility.yul\":16435:16438   */\n      0x00\n        /* \"#utility.yul\":16458:16481   */\n      tag_555\n        /* \"#utility.yul\":16475:16480   */\n      dup3\n        /* \"#utility.yul\":16458:16481   */\n      tag_326\n      jump\t// in\n    tag_555:\n        /* \"#utility.yul\":16449:16481   */\n      swap2\n      pop\n        /* \"#utility.yul\":16503:16513   */\n      0xffffffff\n        /* \"#utility.yul\":16496:16501   */\n      dup3\n        /* \"#utility.yul\":16493:16514   */\n      sub\n        /* \"#utility.yul\":16490:16537   */\n      tag_556\n      jumpi\n        /* \"#utility.yul\":16517:16535   */\n      tag_557\n      tag_350\n      jump\t// in\n    tag_557:\n        /* \"#utility.yul\":16490:16537   */\n    tag_556:\n        /* \"#utility.yul\":16564:16565   */\n      0x01\n        /* \"#utility.yul\":16557:16562   */\n      dup3\n        /* \"#utility.yul\":16553:16566   */\n      add\n        /* \"#utility.yul\":16546:16566   */\n      swap1\n      pop\n        /* \"#utility.yul\":16397:16572   */\n      swap2\n      swap1\n      pop\n      jump\t// out\n        /* \"#utility.yul\":16578:16693   */\n    tag_351:\n        /* \"#utility.yul\":16663:16686   */\n      tag_559\n        /* \"#utility.yul\":16680:16685   */\n      dup2\n        /* \"#utility.yul\":16663:16686   */\n      tag_326\n      jump\t// in\n    tag_559:\n        /* \"#utility.yul\":16658:16661   */\n      dup3\n        /* \"#utility.yul\":16651:16687   */\n      mstore\n        /* \"#utility.yul\":16578:16693   */\n      pop\n      pop\n      jump\t// out\n        /* \"#utility.yul\":16699:17268   */\n    tag_72:\n        /* \"#utility.yul\":16910:16914   */\n      0x00\n        /* \"#utility.yul\":16948:16951   */\n      0xe0\n        /* \"#utility.yul\":16937:16946   */\n      dup3\n        /* \"#utility.yul\":16933:16952   */\n      add\n        /* \"#utility.yul\":16925:16952   */\n      swap1\n      pop\n        /* \"#utility.yul\":16962:17099   */\n      tag_561\n        /* \"#utility.yul\":17096:17097   */\n      0x00\n        /* \"#utility.yul\":17085:17094   */\n      dup4\n        /* \"#utility.yul\":17081:17098   */\n      add\n        /* \"#utility.yul\":17072:17078   */\n      dup7\n        /* \"#utility.yul\":16962:17099   */\n      tag_339\n      jump\t// in\n    tag_561:\n        /* \"#utility.yul\":17109:17180   */\n      tag_562\n        /* \"#utility.yul\":17175:17178   */\n      0xa0\n        /* \"#utility.yul\":17164:17173   */\n      dup4\n        /* \"#utility.yul\":17160:17179   */\n      add\n        /* \"#utility.yul\":17151:17157   */\n      dup6\n        /* \"#utility.yul\":17109:17180   */\n      tag_351\n      jump\t// in\n    tag_562:\n        /* \"#utility.yul\":17190:17261   */\n      tag_563\n        /* \"#utility.yul\":17256:17259   */\n      0xc0\n        /* \"#utility.yul\":17245:17254   */\n      dup4\n        /* \"#utility.yul\":17241:17260   */\n      add\n        /* \"#utility.yul\":17232:17238   */\n      dup5\n        /* \"#utility.yul\":17190:17261   */\n      tag_351\n      jump\t// in\n    tag_563:\n        /* \"#utility.yul\":16699:17268   */\n      swap5\n      swap4\n      pop\n      pop\n      pop\n      pop\n      jump\t// out\n        /* \"#utility.yul\":17274:17441   */\n    tag_85:\n        /* \"#utility.yul\":17311:17314   */\n      0x00\n        /* \"#utility.yul\":17334:17356   */\n      tag_565\n        /* \"#utility.yul\":17350:17355   */\n      dup3\n        /* \"#utility.yul\":17334:17356   */\n      tag_313\n      jump\t// in\n    tag_565:\n        /* \"#utility.yul\":17325:17356   */\n      swap2\n      pop\n        /* \"#utility.yul\":17378:17382   */\n      0xff\n        /* \"#utility.yul\":17371:17376   */\n      dup3\n        /* \"#utility.yul\":17368:17383   */\n      sub\n        /* \"#utility.yul\":17365:17406   */\n      tag_566\n      jumpi\n        /* \"#utility.yul\":17386:17404   */\n      tag_567\n      tag_350\n      jump\t// in\n    tag_567:\n        /* \"#utility.yul\":17365:17406   */\n    tag_566:\n        /* \"#utility.yul\":17433:17434   */\n      0x01\n        /* \"#utility.yul\":17426:17431   */\n      dup3\n        /* \"#utility.yul\":17422:17435   */\n      add\n        /* \"#utility.yul\":17415:17435   */\n      swap1\n      pop\n        /* \"#utility.yul\":17274:17441   */\n      swap2\n      swap1\n      pop\n      jump\t// out\n        /* \"#utility.yul\":17447:17600   */\n    tag_352:\n        /* \"#utility.yul\":17587:17592   */\n      0x2e62670000000000000000000000000000000000000000000000000000000000\n        /* \"#utility.yul\":17583:17584   */\n      0x00\n        /* \"#utility.yul\":17575:17581   */\n      dup3\n        /* \"#utility.yul\":17571:17585   */\n      add\n        /* \"#utility.yul\":17564:17593   */\n      mstore\n        /* \"#utility.yul\":17447:17600   */\n      pop\n      jump\t// out\n        /* \"#utility.yul\":17606:18006   */\n    tag_353:\n        /* \"#utility.yul\":17766:17769   */\n      0x00\n        /* \"#utility.yul\":17787:17871   */\n      tag_570\n        /* \"#utility.yul\":17869:17870   */\n      0x03\n        /* \"#utility.yul\":17864:17867   */\n      dup4\n        /* \"#utility.yul\":17787:17871   */\n      tag_346\n      jump\t// in\n    tag_570:\n        /* \"#utility.yul\":17780:17871   */\n      swap2\n      pop\n        /* \"#utility.yul\":17880:17973   */\n      tag_571\n        /* \"#utility.yul\":17969:17972   */\n      dup3\n        /* \"#utility.yul\":17880:17973   */\n      tag_352\n      jump\t// in\n    tag_571:\n        /* \"#utility.yul\":17998:17999   */\n      0x03\n        /* \"#utility.yul\":17993:17996   */\n      dup3\n        /* \"#utility.yul\":17989:18000   */\n      add\n        /* \"#utility.yul\":17982:18000   */\n      swap1\n      pop\n        /* \"#utility.yul\":17606:18006   */\n      swap2\n      swap1\n      pop\n      jump\t// out\n        /* \"#utility.yul\":18012:18161   */\n    tag_354:\n        /* \"#utility.yul\":18048:18055   */\n      0x00\n        /* \"#utility.yul\":18088:18154   */\n      0xff00000000000000000000000000000000000000000000000000000000000000\n        /* \"#utility.yul\":18081:18086   */\n      dup3\n        /* \"#utility.yul\":18077:18155   */\n      and\n        /* \"#utility.yul\":18066:18155   */\n      swap1\n      pop\n        /* \"#utility.yul\":18012:18161   */\n      swap2\n      swap1\n      pop\n      jump\t// out\n        /* \"#utility.yul\":18167:18245   */\n    tag_355:\n        /* \"#utility.yul\":18205:18212   */\n      0x00\n        /* \"#utility.yul\":18234:18239   */\n      dup2\n        /* \"#utility.yul\":18223:18239   */\n      swap1\n      pop\n        /* \"#utility.yul\":18167:18245   */\n      swap2\n      swap1\n      pop\n      jump\t// out\n        /* \"#utility.yul\":18251:18404   */\n    tag_356:\n        /* \"#utility.yul\":18354:18397   */\n      tag_575\n        /* \"#utility.yul\":18373:18396   */\n      tag_576\n        /* \"#utility.yul\":18390:18395   */\n      dup3\n        /* \"#utility.yul\":18373:18396   */\n      tag_354\n      jump\t// in\n    tag_576:\n        /* \"#utility.yul\":18354:18397   */\n      tag_355\n      jump\t// in\n    tag_575:\n        /* \"#utility.yul\":18349:18352   */\n      dup3\n        /* \"#utility.yul\":18342:18398   */\n      mstore\n        /* \"#utility.yul\":18251:18404   */\n      pop\n      pop\n      jump\t// out\n        /* \"#utility.yul\":18410:19083   */\n    tag_106:\n        /* \"#utility.yul\":18667:18670   */\n      0x00\n        /* \"#utility.yul\":18689:18782   */\n      tag_578\n        /* \"#utility.yul\":18778:18781   */\n      dup3\n        /* \"#utility.yul\":18769:18775   */\n      dup6\n        /* \"#utility.yul\":18689:18782   */\n      tag_345\n      jump\t// in\n    tag_578:\n        /* \"#utility.yul\":18682:18782   */\n      swap2\n      pop\n        /* \"#utility.yul\":18799:18947   */\n      tag_579\n        /* \"#utility.yul\":18943:18946   */\n      dup3\n        /* \"#utility.yul\":18799:18947   */\n      tag_353\n      jump\t// in\n    tag_579:\n        /* \"#utility.yul\":18792:18947   */\n      swap2\n      pop\n        /* \"#utility.yul\":18957:19030   */\n      tag_580\n        /* \"#utility.yul\":19026:19029   */\n      dup3\n        /* \"#utility.yul\":19017:19023   */\n      dup5\n        /* \"#utility.yul\":18957:19030   */\n      tag_356\n      jump\t// in\n    tag_580:\n        /* \"#utility.yul\":19055:19056   */\n      0x01\n        /* \"#utility.yul\":19050:19053   */\n      dup3\n        /* \"#utility.yul\":19046:19057   */\n      add\n        /* \"#utility.yul\":19039:19057   */\n      swap2\n      pop\n        /* \"#utility.yul\":19074:19077   */\n      dup2\n        /* \"#utility.yul\":19067:19077   */\n      swap1\n      pop\n        /* \"#utility.yul\":18410:19083   */\n      swap4\n      swap3\n      pop\n      pop\n      pop\n      jump\t// out\n        /* \"#utility.yul\":19089:19242   */\n    tag_357:\n        /* \"#utility.yul\":19229:19234   */\n      0x2e6d610000000000000000000000000000000000000000000000000000000000\n        /* \"#utility.yul\":19225:19226   */\n      0x00\n        /* \"#utility.yul\":19217:19223   */\n      dup3\n        /* \"#utility.yul\":19213:19227   */\n      add\n        /* \"#utility.yul\":19206:19235   */\n      mstore\n        /* \"#utility.yul\":19089:19242   */\n      pop\n      jump\t// out\n        /* \"#utility.yul\":19248:19648   */\n    tag_358:\n        /* \"#utility.yul\":19408:19411   */\n      0x00\n        /* \"#utility.yul\":19429:19513   */\n      tag_583\n        /* \"#utility.yul\":19511:19512   */\n      0x03\n        /* \"#utility.yul\":19506:19509   */\n      dup4\n        /* \"#utility.yul\":19429:19513   */\n      tag_346\n      jump\t// in\n    tag_583:\n        /* \"#utility.yul\":19422:19513   */\n      swap2\n      pop\n        /* \"#utility.yul\":19522:19615   */\n      tag_584\n        /* \"#utility.yul\":19611:19614   */\n      dup3\n        /* \"#utility.yul\":19522:19615   */\n      tag_357\n      jump\t// in\n    tag_584:\n        /* \"#utility.yul\":19640:19641   */\n      0x03\n        /* \"#utility.yul\":19635:19638   */\n      dup3\n        /* \"#utility.yul\":19631:19642   */\n      add\n        /* \"#utility.yul\":19624:19642   */\n      swap1\n      pop\n        /* \"#utility.yul\":19248:19648   */\n      swap2\n      swap1\n      pop\n      jump\t// out\n        /* \"#utility.yul\":19654:20327   */\n    tag_112:\n        /* \"#utility.yul\":19911:19914   */\n      0x00\n        /* \"#utility.yul\":19933:20026   */\n      tag_586\n        /* \"#utility.yul\":20022:20025   */\n      dup3\n        /* \"#utility.yul\":20013:20019   */\n      dup6\n        /* \"#utility.yul\":19933:20026   */\n      tag_345\n      jump\t// in\n    tag_586:\n        /* \"#utility.yul\":19926:20026   */\n      swap2\n      pop\n        /* \"#utility.yul\":20043:20191   */\n      tag_587\n        /* \"#utility.yul\":20187:20190   */\n      dup3\n        /* \"#utility.yul\":20043:20191   */\n      tag_358\n      jump\t// in\n    tag_587:\n        /* \"#utility.yul\":20036:20191   */\n      swap2\n      pop\n        /* \"#utility.yul\":20201:20274   */\n      tag_588\n        /* \"#utility.yul\":20270:20273   */\n      dup3\n        /* \"#utility.yul\":20261:20267   */\n      dup5\n        /* \"#utility.yul\":20201:20274   */\n      tag_356\n      jump\t// in\n    tag_588:\n        /* \"#utility.yul\":20299:20300   */\n      0x01\n        /* \"#utility.yul\":20294:20297   */\n      dup3\n        /* \"#utility.yul\":20290:20301   */\n      add\n        /* \"#utility.yul\":20283:20301   */\n      swap2\n      pop\n        /* \"#utility.yul\":20318:20321   */\n      dup2\n        /* \"#utility.yul\":20311:20321   */\n      swap1\n      pop\n        /* \"#utility.yul\":19654:20327   */\n      swap4\n      swap3\n      pop\n      pop\n      pop\n      jump\t// out\n        /* \"#utility.yul\":20333:20486   */\n    tag_359:\n        /* \"#utility.yul\":20473:20478   */\n      0x2e74720000000000000000000000000000000000000000000000000000000000\n        /* \"#utility.yul\":20469:20470   */\n      0x00\n        /* \"#utility.yul\":20461:20467   */\n      dup3\n        /* \"#utility.yul\":20457:20471   */\n      add\n        /* \"#utility.yul\":20450:20479   */\n      mstore\n        /* \"#utility.yul\":20333:20486   */\n      pop\n      jump\t// out\n        /* \"#utility.yul\":20492:20892   */\n    tag_360:\n        /* \"#utility.yul\":20652:20655   */\n      0x00\n        /* \"#utility.yul\":20673:20757   */\n      tag_591\n        /* \"#utility.yul\":20755:20756   */\n      0x03\n        /* \"#utility.yul\":20750:20753   */\n      dup4\n        /* \"#utility.yul\":20673:20757   */\n      tag_346\n      jump\t// in\n    tag_591:\n        /* \"#utility.yul\":20666:20757   */\n      swap2\n      pop\n        /* \"#utility.yul\":20766:20859   */\n      tag_592\n        /* \"#utility.yul\":20855:20858   */\n      dup3\n        /* \"#utility.yul\":20766:20859   */\n      tag_359\n      jump\t// in\n    tag_592:\n        /* \"#utility.yul\":20884:20885   */\n      0x03\n        /* \"#utility.yul\":20879:20882   */\n      dup3\n        /* \"#utility.yul\":20875:20886   */\n      add\n        /* \"#utility.yul\":20868:20886   */\n      swap1\n      pop\n        /* \"#utility.yul\":20492:20892   */\n      swap2\n      swap1\n      pop\n      jump\t// out\n        /* \"#utility.yul\":20898:21571   */\n    tag_120:\n        /* \"#utility.yul\":21155:21158   */\n      0x00\n        /* \"#utility.yul\":21177:21270   */\n      tag_594\n        /* \"#utility.yul\":21266:21269   */\n      dup3\n        /* \"#utility.yul\":21257:21263   */\n      dup6\n        /* \"#utility.yul\":21177:21270   */\n      tag_345\n      jump\t// in\n    tag_594:\n        /* \"#utility.yul\":21170:21270   */\n      swap2\n      pop\n        /* \"#utility.yul\":21287:21435   */\n      tag_595\n        /* \"#utility.yul\":21431:21434   */\n      dup3\n        /* \"#utility.yul\":21287:21435   */\n      tag_360\n      jump\t// in\n    tag_595:\n        /* \"#utility.yul\":21280:21435   */\n      swap2\n      pop\n        /* \"#utility.yul\":21445:21518   */\n      tag_596\n        /* \"#utility.yul\":21514:21517   */\n      dup3\n        /* \"#utility.yul\":21505:21511   */\n      dup5\n        /* \"#utility.yul\":21445:21518   */\n      tag_356\n      jump\t// in\n    tag_596:\n        /* \"#utility.yul\":21543:21544   */\n      0x01\n        /* \"#utility.yul\":21538:21541   */\n      dup3\n        /* \"#utility.yul\":21534:21545   */\n      add\n        /* \"#utility.yul\":21527:21545   */\n      swap2\n      pop\n        /* \"#utility.yul\":21562:21565   */\n      dup2\n        /* \"#utility.yul\":21555:21565   */\n      swap1\n      pop\n        /* \"#utility.yul\":20898:21571   */\n      swap4\n      swap3\n      pop\n      pop\n      pop\n      jump\t// out\n        /* \"#utility.yul\":21577:21984   */\n    tag_132:\n        /* \"#utility.yul\":21733:21736   */\n      0x00\n        /* \"#utility.yul\":21755:21848   */\n      tag_598\n        /* \"#utility.yul\":21844:21847   */\n      dup3\n        /* \"#utility.yul\":21835:21841   */\n      dup6\n        /* \"#utility.yul\":21755:21848   */\n      tag_345\n      jump\t// in\n    tag_598:\n        /* \"#utility.yul\":21748:21848   */\n      swap2\n      pop\n        /* \"#utility.yul\":21858:21931   */\n      tag_599\n        /* \"#utility.yul\":21927:21930   */\n      dup3\n        /* \"#utility.yul\":21918:21924   */\n      dup5\n        /* \"#utility.yul\":21858:21931   */\n      tag_356\n      jump\t// in\n    tag_599:\n        /* \"#utility.yul\":21956:21957   */\n      0x01\n        /* \"#utility.yul\":21951:21954   */\n      dup3\n        /* \"#utility.yul\":21947:21958   */\n      add\n        /* \"#utility.yul\":21940:21958   */\n      swap2\n      pop\n        /* \"#utility.yul\":21975:21978   */\n      dup2\n        /* \"#utility.yul\":21968:21978   */\n      swap1\n      pop\n        /* \"#utility.yul\":21577:21984   */\n      swap4\n      swap3\n      pop\n      pop\n      pop\n      jump\t// out\n        /* \"#utility.yul\":21990:22143   */\n    tag_361:\n        /* \"#utility.yul\":22130:22135   */\n      0x2e66780000000000000000000000000000000000000000000000000000000000\n        /* \"#utility.yul\":22126:22127   */\n      0x00\n        /* \"#utility.yul\":22118:22124   */\n      dup3\n        /* \"#utility.yul\":22114:22128   */\n      add\n        /* \"#utility.yul\":22107:22136   */\n      mstore\n        /* \"#utility.yul\":21990:22143   */\n      pop\n      jump\t// out\n        /* \"#utility.yul\":22149:22549   */\n    tag_362:\n        /* \"#utility.yul\":22309:22312   */\n      0x00\n        /* \"#utility.yul\":22330:22414   */\n      tag_602\n        /* \"#utility.yul\":22412:22413   */\n      0x03\n        /* \"#utility.yul\":22407:22410   */\n      dup4\n        /* \"#utility.yul\":22330:22414   */\n      tag_346\n      jump\t// in\n    tag_602:\n        /* \"#utility.yul\":22323:22414   */\n      swap2\n      pop\n        /* \"#utility.yul\":22423:22516   */\n      tag_603\n        /* \"#utility.yul\":22512:22515   */\n      dup3\n        /* \"#utility.yul\":22423:22516   */\n      tag_361\n      jump\t// in\n    tag_603:\n        /* \"#utility.yul\":22541:22542   */\n      0x03\n        /* \"#utility.yul\":22536:22539   */\n      dup3\n        /* \"#utility.yul\":22532:22543   */\n      add\n        /* \"#utility.yul\":22525:22543   */\n      swap1\n      pop\n        /* \"#utility.yul\":22149:22549   */\n      swap2\n      swap1\n      pop\n      jump\t// out\n        /* \"#utility.yul\":22555:23228   */\n    tag_155:\n        /* \"#utility.yul\":22812:22815   */\n      0x00\n        /* \"#utility.yul\":22834:22927   */\n      tag_605\n        /* \"#utility.yul\":22923:22926   */\n      dup3\n        /* \"#utility.yul\":22914:22920   */\n      dup6\n        /* \"#utility.yul\":22834:22927   */\n      tag_345\n      jump\t// in\n    tag_605:\n        /* \"#utility.yul\":22827:22927   */\n      swap2\n      pop\n        /* \"#utility.yul\":22944:23092   */\n      tag_606\n        /* \"#utility.yul\":23088:23091   */\n      dup3\n        /* \"#utility.yul\":22944:23092   */\n      tag_362\n      jump\t// in\n    tag_606:\n        /* \"#utility.yul\":22937:23092   */\n      swap2\n      pop\n        /* \"#utility.yul\":23102:23175   */\n      tag_607\n        /* \"#utility.yul\":23171:23174   */\n      dup3\n        /* \"#utility.yul\":23162:23168   */\n      dup5\n        /* \"#utility.yul\":23102:23175   */\n      tag_356\n      jump\t// in\n    tag_607:\n        /* \"#utility.yul\":23200:23201   */\n      0x01\n        /* \"#utility.yul\":23195:23198   */\n      dup3\n        /* \"#utility.yul\":23191:23202   */\n      add\n        /* \"#utility.yul\":23184:23202   */\n      swap2\n      pop\n        /* \"#utility.yul\":23219:23222   */\n      dup2\n        /* \"#utility.yul\":23212:23222   */\n      swap1\n      pop\n        /* \"#utility.yul\":22555:23228   */\n      swap4\n      swap3\n      pop\n      pop\n      pop\n      jump\t// out\n        /* \"#utility.yul\":23234:23387   */\n    tag_363:\n        /* \"#utility.yul\":23374:23379   */\n      0x2e726e0000000000000000000000000000000000000000000000000000000000\n        /* \"#utility.yul\":23370:23371   */\n      0x00\n        /* \"#utility.yul\":23362:23368   */\n      dup3\n        /* \"#utility.yul\":23358:23372   */\n      add\n        /* \"#utility.yul\":23351:23380   */\n      mstore\n        /* \"#utility.yul\":23234:23387   */\n      pop\n      jump\t// out\n        /* \"#utility.yul\":23393:23793   */\n    tag_364:\n        /* \"#utility.yul\":23553:23556   */\n      0x00\n        /* \"#utility.yul\":23574:23658   */\n      tag_610\n        /* \"#utility.yul\":23656:23657   */\n      0x03\n        /* \"#utility.yul\":23651:23654   */\n      dup4\n        /* \"#utility.yul\":23574:23658   */\n      tag_346\n      jump\t// in\n    tag_610:\n        /* \"#utility.yul\":23567:23658   */\n      swap2\n      pop\n        /* \"#utility.yul\":23667:23760   */\n      tag_611\n        /* \"#utility.yul\":23756:23759   */\n      dup3\n        /* \"#utility.yul\":23667:23760   */\n      tag_363\n      jump\t// in\n    tag_611:\n        /* \"#utility.yul\":23785:23786   */\n      0x03\n        /* \"#utility.yul\":23780:23783   */\n      dup3\n        /* \"#utility.yul\":23776:23787   */\n      add\n        /* \"#utility.yul\":23769:23787   */\n      swap1\n      pop\n        /* \"#utility.yul\":23393:23793   */\n      swap2\n      swap1\n      pop\n      jump\t// out\n        /* \"#utility.yul\":23799:24472   */\n    tag_170:\n        /* \"#utility.yul\":24056:24059   */\n      0x00\n        /* \"#utility.yul\":24078:24171   */\n      tag_613\n        /* \"#utility.yul\":24167:24170   */\n      dup3\n        /* \"#utility.yul\":24158:24164   */\n      dup6\n        /* \"#utility.yul\":24078:24171   */\n      tag_345\n      jump\t// in\n    tag_613:\n        /* \"#utility.yul\":24071:24171   */\n      swap2\n      pop\n        /* \"#utility.yul\":24188:24336   */\n      tag_614\n        /* \"#utility.yul\":24332:24335   */\n      dup3\n        /* \"#utility.yul\":24188:24336   */\n      tag_364\n      jump\t// in\n    tag_614:\n        /* \"#utility.yul\":24181:24336   */\n      swap2\n      pop\n        /* \"#utility.yul\":24346:24419   */\n      tag_615\n        /* \"#utility.yul\":24415:24418   */\n      dup3\n        /* \"#utility.yul\":24406:24412   */\n      dup5\n        /* \"#utility.yul\":24346:24419   */\n      tag_356\n      jump\t// in\n    tag_615:\n        /* \"#utility.yul\":24444:24445   */\n      0x01\n        /* \"#utility.yul\":24439:24442   */\n      dup3\n        /* \"#utility.yul\":24435:24446   */\n      add\n        /* \"#utility.yul\":24428:24446   */\n      swap2\n      pop\n        /* \"#utility.yul\":24463:24466   */\n      dup2\n        /* \"#utility.yul\":24456:24466   */\n      swap1\n      pop\n        /* \"#utility.yul\":23799:24472   */\n      swap4\n      swap3\n      pop\n      pop\n      pop\n      jump\t// out\n        /* \"#utility.yul\":24478:24658   */\n    tag_365:\n        /* \"#utility.yul\":24526:24603   */\n      0x4e487b7100000000000000000000000000000000000000000000000000000000\n        /* \"#utility.yul\":24523:24524   */\n      0x00\n        /* \"#utility.yul\":24516:24604   */\n      mstore\n        /* \"#utility.yul\":24623:24627   */\n      0x12\n        /* \"#utility.yul\":24620:24621   */\n      0x04\n        /* \"#utility.yul\":24613:24628   */\n      mstore\n        /* \"#utility.yul\":24647:24651   */\n      0x24\n        /* \"#utility.yul\":24644:24645   */\n      0x00\n        /* \"#utility.yul\":24637:24652   */\n      revert\n        /* \"#utility.yul\":24664:24840   */\n    tag_180:\n        /* \"#utility.yul\":24696:24697   */\n      0x00\n        /* \"#utility.yul\":24713:24733   */\n      tag_618\n        /* \"#utility.yul\":24731:24732   */\n      dup3\n        /* \"#utility.yul\":24713:24733   */\n      tag_302\n      jump\t// in\n    tag_618:\n        /* \"#utility.yul\":24708:24733   */\n      swap2\n      pop\n        /* \"#utility.yul\":24747:24767   */\n      tag_619\n        /* \"#utility.yul\":24765:24766   */\n      dup4\n        /* \"#utility.yul\":24747:24767   */\n      tag_302\n      jump\t// in\n    tag_619:\n        /* \"#utility.yul\":24742:24767   */\n      swap3\n      pop\n        /* \"#utility.yul\":24786:24787   */\n      dup3\n        /* \"#utility.yul\":24776:24811   */\n      tag_620\n      jumpi\n        /* \"#utility.yul\":24791:24809   */\n      tag_621\n      tag_365\n      jump\t// in\n    tag_621:\n        /* \"#utility.yul\":24776:24811   */\n    tag_620:\n        /* \"#utility.yul\":24832:24833   */\n      dup3\n        /* \"#utility.yul\":24829:24830   */\n      dup3\n        /* \"#utility.yul\":24825:24834   */\n      mod\n        /* \"#utility.yul\":24820:24834   */\n      swap1\n      pop\n        /* \"#utility.yul\":24664:24840   */\n      swap3\n      swap2\n      pop\n      pop\n      jump\t// out\n        /* \"#utility.yul\":24846:24999   */\n    tag_366:\n        /* \"#utility.yul\":24986:24991   */\n      0x2e73680000000000000000000000000000000000000000000000000000000000\n        /* \"#utility.yul\":24982:24983   */\n      0x00\n        /* \"#utility.yul\":24974:24980   */\n      dup3\n        /* \"#utility.yul\":24970:24984   */\n      add\n        /* \"#utility.yul\":24963:24992   */\n      mstore\n        /* \"#utility.yul\":24846:24999   */\n      pop\n      jump\t// out\n        /* \"#utility.yul\":25005:25405   */\n    tag_367:\n        /* \"#utility.yul\":25165:25168   */\n      0x00\n        /* \"#utility.yul\":25186:25270   */\n      tag_624\n        /* \"#utility.yul\":25268:25269   */\n      0x03\n        /* \"#utility.yul\":25263:25266   */\n      dup4\n        /* \"#utility.yul\":25186:25270   */\n      tag_346\n      jump\t// in\n    tag_624:\n        /* \"#utility.yul\":25179:25270   */\n      swap2\n      pop\n        /* \"#utility.yul\":25279:25372   */\n      tag_625\n        /* \"#utility.yul\":25368:25371   */\n      dup3\n        /* \"#utility.yul\":25279:25372   */\n      tag_366\n      jump\t// in\n    tag_625:\n        /* \"#utility.yul\":25397:25398   */\n      0x03\n        /* \"#utility.yul\":25392:25395   */\n      dup3\n        /* \"#utility.yul\":25388:25399   */\n      add\n        /* \"#utility.yul\":25381:25399   */\n      swap1\n      pop\n        /* \"#utility.yul\":25005:25405   */\n      swap2\n      swap1\n      pop\n      jump\t// out\n        /* \"#utility.yul\":25411:26220   */\n    tag_207:\n        /* \"#utility.yul\":25694:25697   */\n      0x00\n        /* \"#utility.yul\":25716:25809   */\n      tag_627\n        /* \"#utility.yul\":25805:25808   */\n      dup3\n        /* \"#utility.yul\":25796:25802   */\n      dup7\n        /* \"#utility.yul\":25716:25809   */\n      tag_345\n      jump\t// in\n    tag_627:\n        /* \"#utility.yul\":25709:25809   */\n      swap2\n      pop\n        /* \"#utility.yul\":25826:25974   */\n      tag_628\n        /* \"#utility.yul\":25970:25973   */\n      dup3\n        /* \"#utility.yul\":25826:25974   */\n      tag_367\n      jump\t// in\n    tag_628:\n        /* \"#utility.yul\":25819:25974   */\n      swap2\n      pop\n        /* \"#utility.yul\":25984:26057   */\n      tag_629\n        /* \"#utility.yul\":26053:26056   */\n      dup3\n        /* \"#utility.yul\":26044:26050   */\n      dup6\n        /* \"#utility.yul\":25984:26057   */\n      tag_356\n      jump\t// in\n    tag_629:\n        /* \"#utility.yul\":26082:26083   */\n      0x01\n        /* \"#utility.yul\":26077:26080   */\n      dup3\n        /* \"#utility.yul\":26073:26084   */\n      add\n        /* \"#utility.yul\":26066:26084   */\n      swap2\n      pop\n        /* \"#utility.yul\":26094:26167   */\n      tag_630\n        /* \"#utility.yul\":26163:26166   */\n      dup3\n        /* \"#utility.yul\":26154:26160   */\n      dup5\n        /* \"#utility.yul\":26094:26167   */\n      tag_356\n      jump\t// in\n    tag_630:\n        /* \"#utility.yul\":26192:26193   */\n      0x01\n        /* \"#utility.yul\":26187:26190   */\n      dup3\n        /* \"#utility.yul\":26183:26194   */\n      add\n        /* \"#utility.yul\":26176:26194   */\n      swap2\n      pop\n        /* \"#utility.yul\":26211:26214   */\n      dup2\n        /* \"#utility.yul\":26204:26214   */\n      swap1\n      pop\n        /* \"#utility.yul\":25411:26220   */\n      swap5\n      swap4\n      pop\n      pop\n      pop\n      pop\n      jump\t// out\n        /* \"#utility.yul\":26226:26378   */\n    tag_368:\n        /* \"#utility.yul\":26366:26370   */\n      0x6672000000000000000000000000000000000000000000000000000000000000\n        /* \"#utility.yul\":26362:26363   */\n      0x00\n        /* \"#utility.yul\":26354:26360   */\n      dup3\n        /* \"#utility.yul\":26350:26364   */\n      add\n        /* \"#utility.yul\":26343:26371   */\n      mstore\n        /* \"#utility.yul\":26226:26378   */\n      pop\n      jump\t// out\n        /* \"#utility.yul\":26384:26784   */\n    tag_369:\n        /* \"#utility.yul\":26544:26547   */\n      0x00\n        /* \"#utility.yul\":26565:26649   */\n      tag_633\n        /* \"#utility.yul\":26647:26648   */\n      0x02\n        /* \"#utility.yul\":26642:26645   */\n      dup4\n        /* \"#utility.yul\":26565:26649   */\n      tag_346\n      jump\t// in\n    tag_633:\n        /* \"#utility.yul\":26558:26649   */\n      swap2\n      pop\n        /* \"#utility.yul\":26658:26751   */\n      tag_634\n        /* \"#utility.yul\":26747:26750   */\n      dup3\n        /* \"#utility.yul\":26658:26751   */\n      tag_368\n      jump\t// in\n    tag_634:\n        /* \"#utility.yul\":26776:26777   */\n      0x02\n        /* \"#utility.yul\":26771:26774   */\n      dup3\n        /* \"#utility.yul\":26767:26778   */\n      add\n        /* \"#utility.yul\":26760:26778   */\n      swap1\n      pop\n        /* \"#utility.yul\":26384:26784   */\n      swap2\n      swap1\n      pop\n      jump\t// out\n        /* \"#utility.yul\":26790:27463   */\n    tag_211:\n        /* \"#utility.yul\":27047:27050   */\n      0x00\n        /* \"#utility.yul\":27069:27162   */\n      tag_636\n        /* \"#utility.yul\":27158:27161   */\n      dup3\n        /* \"#utility.yul\":27149:27155   */\n      dup6\n        /* \"#utility.yul\":27069:27162   */\n      tag_345\n      jump\t// in\n    tag_636:\n        /* \"#utility.yul\":27062:27162   */\n      swap2\n      pop\n        /* \"#utility.yul\":27179:27327   */\n      tag_637\n        /* \"#utility.yul\":27323:27326   */\n      dup3\n        /* \"#utility.yul\":27179:27327   */\n      tag_369\n      jump\t// in\n    tag_637:\n        /* \"#utility.yul\":27172:27327   */\n      swap2\n      pop\n        /* \"#utility.yul\":27337:27410   */\n      tag_638\n        /* \"#utility.yul\":27406:27409   */\n      dup3\n        /* \"#utility.yul\":27397:27403   */\n      dup5\n        /* \"#utility.yul\":27337:27410   */\n      tag_356\n      jump\t// in\n    tag_638:\n        /* \"#utility.yul\":27435:27436   */\n      0x01\n        /* \"#utility.yul\":27430:27433   */\n      dup3\n        /* \"#utility.yul\":27426:27437   */\n      add\n        /* \"#utility.yul\":27419:27437   */\n      swap2\n      pop\n        /* \"#utility.yul\":27454:27457   */\n      dup2\n        /* \"#utility.yul\":27447:27457   */\n      swap1\n      pop\n        /* \"#utility.yul\":26790:27463   */\n      swap4\n      swap3\n      pop\n      pop\n      pop\n      jump\t// out\n        /* \"#utility.yul\":27469:27621   */\n    tag_370:\n        /* \"#utility.yul\":27609:27613   */\n      0x696e000000000000000000000000000000000000000000000000000000000000\n        /* \"#utility.yul\":27605:27606   */\n      0x00\n        /* \"#utility.yul\":27597:27603   */\n      dup3\n        /* \"#utility.yul\":27593:27607   */\n      add\n        /* \"#utility.yul\":27586:27614   */\n      mstore\n        /* \"#utility.yul\":27469:27621   */\n      pop\n      jump\t// out\n        /* \"#utility.yul\":27627:28027   */\n    tag_371:\n        /* \"#utility.yul\":27787:27790   */\n      0x00\n        /* \"#utility.yul\":27808:27892   */\n      tag_641\n        /* \"#utility.yul\":27890:27891   */\n      0x02\n        /* \"#utility.yul\":27885:27888   */\n      dup4\n        /* \"#utility.yul\":27808:27892   */\n      tag_346\n      jump\t// in\n    tag_641:\n        /* \"#utility.yul\":27801:27892   */\n      swap2\n      pop\n        /* \"#utility.yul\":27901:27994   */\n      tag_642\n        /* \"#utility.yul\":27990:27993   */\n      dup3\n        /* \"#utility.yul\":27901:27994   */\n      tag_370\n      jump\t// in\n    tag_642:\n        /* \"#utility.yul\":28019:28020   */\n      0x02\n        /* \"#utility.yul\":28014:28017   */\n      dup3\n        /* \"#utility.yul\":28010:28021   */\n      add\n        /* \"#utility.yul\":28003:28021   */\n      swap1\n      pop\n        /* \"#utility.yul\":27627:28027   */\n      swap2\n      swap1\n      pop\n      jump\t// out\n        /* \"#utility.yul\":28033:28706   */\n    tag_220:\n        /* \"#utility.yul\":28290:28293   */\n      0x00\n        /* \"#utility.yul\":28312:28405   */\n      tag_644\n        /* \"#utility.yul\":28401:28404   */\n      dup3\n        /* \"#utility.yul\":28392:28398   */\n      dup6\n        /* \"#utility.yul\":28312:28405   */\n      tag_345\n      jump\t// in\n    tag_644:\n        /* \"#utility.yul\":28305:28405   */\n      swap2\n      pop\n        /* \"#utility.yul\":28422:28570   */\n      tag_645\n        /* \"#utility.yul\":28566:28569   */\n      dup3\n        /* \"#utility.yul\":28422:28570   */\n      tag_371\n      jump\t// in\n    tag_645:\n        /* \"#utility.yul\":28415:28570   */\n      swap2\n      pop\n        /* \"#utility.yul\":28580:28653   */\n      tag_646\n        /* \"#utility.yul\":28649:28652   */\n      dup3\n        /* \"#utility.yul\":28640:28646   */\n      dup5\n        /* \"#utility.yul\":28580:28653   */\n      tag_356\n      jump\t// in\n    tag_646:\n        /* \"#utility.yul\":28678:28679   */\n      0x01\n        /* \"#utility.yul\":28673:28676   */\n      dup3\n        /* \"#utility.yul\":28669:28680   */\n      add\n        /* \"#utility.yul\":28662:28680   */\n      swap2\n      pop\n        /* \"#utility.yul\":28697:28700   */\n      dup2\n        /* \"#utility.yul\":28690:28700   */\n      swap1\n      pop\n        /* \"#utility.yul\":28033:28706   */\n      swap4\n      swap3\n      pop\n      pop\n      pop\n      jump\t// out\n        /* \"#utility.yul\":28712:28864   */\n    tag_372:\n        /* \"#utility.yul\":28852:28856   */\n      0x7374000000000000000000000000000000000000000000000000000000000000\n        /* \"#utility.yul\":28848:28849   */\n      0x00\n        /* \"#utility.yul\":28840:28846   */\n      dup3\n        /* \"#utility.yul\":28836:28850   */\n      add\n        /* \"#utility.yul\":28829:28857   */\n      mstore\n        /* \"#utility.yul\":28712:28864   */\n      pop\n      jump\t// out\n        /* \"#utility.yul\":28870:29270   */\n    tag_373:\n        /* \"#utility.yul\":29030:29033   */\n      0x00\n        /* \"#utility.yul\":29051:29135   */\n      tag_649\n        /* \"#utility.yul\":29133:29134   */\n      0x02\n        /* \"#utility.yul\":29128:29131   */\n      dup4\n        /* \"#utility.yul\":29051:29135   */\n      tag_346\n      jump\t// in\n    tag_649:\n        /* \"#utility.yul\":29044:29135   */\n      swap2\n      pop\n        /* \"#utility.yul\":29144:29237   */\n      tag_650\n        /* \"#utility.yul\":29233:29236   */\n      dup3\n        /* \"#utility.yul\":29144:29237   */\n      tag_372\n      jump\t// in\n    tag_650:\n        /* \"#utility.yul\":29262:29263   */\n      0x02\n        /* \"#utility.yul\":29257:29260   */\n      dup3\n        /* \"#utility.yul\":29253:29264   */\n      add\n        /* \"#utility.yul\":29246:29264   */\n      swap1\n      pop\n        /* \"#utility.yul\":28870:29270   */\n      swap2\n      swap1\n      pop\n      jump\t// out\n        /* \"#utility.yul\":29276:29949   */\n    tag_228:\n        /* \"#utility.yul\":29533:29536   */\n      0x00\n        /* \"#utility.yul\":29555:29648   */\n      tag_652\n        /* \"#utility.yul\":29644:29647   */\n      dup3\n        /* \"#utility.yul\":29635:29641   */\n      dup6\n        /* \"#utility.yul\":29555:29648   */\n      tag_345\n      jump\t// in\n    tag_652:\n        /* \"#utility.yul\":29548:29648   */\n      swap2\n      pop\n        /* \"#utility.yul\":29665:29813   */\n      tag_653\n        /* \"#utility.yul\":29809:29812   */\n      dup3\n        /* \"#utility.yul\":29665:29813   */\n      tag_373\n      jump\t// in\n    tag_653:\n        /* \"#utility.yul\":29658:29813   */\n      swap2\n      pop\n        /* \"#utility.yul\":29823:29896   */\n      tag_654\n        /* \"#utility.yul\":29892:29895   */\n      dup3\n        /* \"#utility.yul\":29883:29889   */\n      dup5\n        /* \"#utility.yul\":29823:29896   */\n      tag_356\n      jump\t// in\n    tag_654:\n        /* \"#utility.yul\":29921:29922   */\n      0x01\n        /* \"#utility.yul\":29916:29919   */\n      dup3\n        /* \"#utility.yul\":29912:29923   */\n      add\n        /* \"#utility.yul\":29905:29923   */\n      swap2\n      pop\n        /* \"#utility.yul\":29940:29943   */\n      dup2\n        /* \"#utility.yul\":29933:29943   */\n      swap1\n      pop\n        /* \"#utility.yul\":29276:29949   */\n      swap4\n      swap3\n      pop\n      pop\n      pop\n      jump\t// out\n        /* \"#utility.yul\":29955:30107   */\n    tag_374:\n        /* \"#utility.yul\":30095:30099   */\n      0x726e000000000000000000000000000000000000000000000000000000000000\n        /* \"#utility.yul\":30091:30092   */\n      0x00\n        /* \"#utility.yul\":30083:30089   */\n      dup3\n        /* \"#utility.yul\":30079:30093   */\n      add\n        /* \"#utility.yul\":30072:30100   */\n      mstore\n        /* \"#utility.yul\":29955:30107   */\n      pop\n      jump\t// out\n        /* \"#utility.yul\":30113:30513   */\n    tag_375:\n        /* \"#utility.yul\":30273:30276   */\n      0x00\n        /* \"#utility.yul\":30294:30378   */\n      tag_657\n        /* \"#utility.yul\":30376:30377   */\n      0x02\n        /* \"#utility.yul\":30371:30374   */\n      dup4\n        /* \"#utility.yul\":30294:30378   */\n      tag_346\n      jump\t// in\n    tag_657:\n        /* \"#utility.yul\":30287:30378   */\n      swap2\n      pop\n        /* \"#utility.yul\":30387:30480   */\n      tag_658\n        /* \"#utility.yul\":30476:30479   */\n      dup3\n        /* \"#utility.yul\":30387:30480   */\n      tag_374\n      jump\t// in\n    tag_658:\n        /* \"#utility.yul\":30505:30506   */\n      0x02\n        /* \"#utility.yul\":30500:30503   */\n      dup3\n        /* \"#utility.yul\":30496:30507   */\n      add\n        /* \"#utility.yul\":30489:30507   */\n      swap1\n      pop\n        /* \"#utility.yul\":30113:30513   */\n      swap2\n      swap1\n      pop\n      jump\t// out\n        /* \"#utility.yul\":30519:31192   */\n    tag_237:\n        /* \"#utility.yul\":30776:30779   */\n      0x00\n        /* \"#utility.yul\":30798:30891   */\n      tag_660\n        /* \"#utility.yul\":30887:30890   */\n      dup3\n        /* \"#utility.yul\":30878:30884   */\n      dup6\n        /* \"#utility.yul\":30798:30891   */\n      tag_345\n      jump\t// in\n    tag_660:\n        /* \"#utility.yul\":30791:30891   */\n      swap2\n      pop\n        /* \"#utility.yul\":30908:31056   */\n      tag_661\n        /* \"#utility.yul\":31052:31055   */\n      dup3\n        /* \"#utility.yul\":30908:31056   */\n      tag_375\n      jump\t// in\n    tag_661:\n        /* \"#utility.yul\":30901:31056   */\n      swap2\n      pop\n        /* \"#utility.yul\":31066:31139   */\n      tag_662\n        /* \"#utility.yul\":31135:31138   */\n      dup3\n        /* \"#utility.yul\":31126:31132   */\n      dup5\n        /* \"#utility.yul\":31066:31139   */\n      tag_356\n      jump\t// in\n    tag_662:\n        /* \"#utility.yul\":31164:31165   */\n      0x01\n        /* \"#utility.yul\":31159:31162   */\n      dup3\n        /* \"#utility.yul\":31155:31166   */\n      add\n        /* \"#utility.yul\":31148:31166   */\n      swap2\n      pop\n        /* \"#utility.yul\":31183:31186   */\n      dup2\n        /* \"#utility.yul\":31176:31186   */\n      swap1\n      pop\n        /* \"#utility.yul\":30519:31192   */\n      swap4\n      swap3\n      pop\n      pop\n      pop\n      jump\t// out\n        /* \"#utility.yul\":31198:31431   */\n    tag_256:\n        /* \"#utility.yul\":31237:31240   */\n      0x00\n        /* \"#utility.yul\":31260:31284   */\n      tag_664\n        /* \"#utility.yul\":31278:31283   */\n      dup3\n        /* \"#utility.yul\":31260:31284   */\n      tag_302\n      jump\t// in\n    tag_664:\n        /* \"#utility.yul\":31251:31284   */\n      swap2\n      pop\n        /* \"#utility.yul\":31306:31372   */\n      0xffffffffffffffffffffffffffffffffffffffffffffffffffffffffffffffff\n        /* \"#utility.yul\":31299:31304   */\n      dup3\n        /* \"#utility.yul\":31296:31373   */\n      sub\n        /* \"#utility.yul\":31293:31396   */\n      tag_665\n      jumpi\n        /* \"#utility.yul\":31376:31394   */\n      tag_666\n      tag_350\n      jump\t// in\n    tag_666:\n        /* \"#utility.yul\":31293:31396   */\n    tag_665:\n        /* \"#utility.yul\":31423:31424   */\n      0x01\n        /* \"#utility.yul\":31416:31421   */\n      dup3\n        /* \"#utility.yul\":31412:31425   */\n      add\n        /* \"#utility.yul\":31405:31425   */\n      swap1\n      pop\n        /* \"#utility.yul\":31198:31431   */\n      swap2\n      swap1\n      pop\n      jump\t// out\n        /* \"#utility.yul\":31437:31622   */\n    tag_258:\n        /* \"#utility.yul\":31477:31478   */\n      0x00\n        /* \"#utility.yul\":31494:31514   */\n      tag_668\n        /* \"#utility.yul\":31512:31513   */\n      dup3\n        /* \"#utility.yul\":31494:31514   */\n      tag_302\n      jump\t// in\n    tag_668:\n        /* \"#utility.yul\":31489:31514   */\n      swap2\n      pop\n        /* \"#utility.yul\":31528:31548   */\n      tag_669\n        /* \"#utility.yul\":31546:31547   */\n      dup4\n        /* \"#utility.yul\":31528:31548   */\n      tag_302\n      jump\t// in\n    tag_669:\n        /* \"#utility.yul\":31523:31548   */\n      swap3\n      pop\n        /* \"#utility.yul\":31567:31568   */\n      dup3\n        /* \"#utility.yul\":31557:31592   */\n      tag_670\n      jumpi\n        /* \"#utility.yul\":31572:31590   */\n      tag_671\n      tag_365\n      jump\t// in\n    tag_671:\n        /* \"#utility.yul\":31557:31592   */\n    tag_670:\n        /* \"#utility.yul\":31614:31615   */\n      dup3\n        /* \"#utility.yul\":31611:31612   */\n      dup3\n        /* \"#utility.yul\":31607:31616   */\n      div\n        /* \"#utility.yul\":31602:31616   */\n      swap1\n      pop\n        /* \"#utility.yul\":31437:31622   */\n      swap3\n      swap2\n      pop\n      pop\n      jump\t// out\n        /* \"#utility.yul\":31628:31822   */\n    tag_265:\n        /* \"#utility.yul\":31668:31672   */\n      0x00\n        /* \"#utility.yul\":31688:31708   */\n      tag_673\n        /* \"#utility.yul\":31706:31707   */\n      dup3\n        /* \"#utility.yul\":31688:31708   */\n      tag_302\n      jump\t// in\n    tag_673:\n        /* \"#utility.yul\":31683:31708   */\n      swap2\n      pop\n        /* \"#utility.yul\":31722:31742   */\n      tag_674\n        /* \"#utility.yul\":31740:31741   */\n      dup4\n        /* \"#utility.yul\":31722:31742   */\n      tag_302\n      jump\t// in\n    tag_674:\n        /* \"#utility.yul\":31717:31742   */\n      swap3\n      pop\n        /* \"#utility.yul\":31766:31767   */\n      dup3\n        /* \"#utility.yul\":31763:31764   */\n      dup3\n        /* \"#utility.yul\":31759:31768   */\n      sub\n        /* \"#utility.yul\":31751:31768   */\n      swap1\n      pop\n        /* \"#utility.yul\":31790:31791   */\n      dup2\n        /* \"#utility.yul\":31784:31788   */\n      dup2\n        /* \"#utility.yul\":31781:31792   */\n      gt\n        /* \"#utility.yul\":31778:31815   */\n      iszero\n      tag_675\n      jumpi\n        /* \"#utility.yul\":31795:31813   */\n      tag_676\n      tag_350\n      jump\t// in\n    tag_676:\n        /* \"#utility.yul\":31778:31815   */\n    tag_675:\n        /* \"#utility.yul\":31628:31822   */\n      swap3\n      swap2\n      pop\n      pop\n      jump\t// out\n        /* \"#utility.yul\":31828:32019   */\n    tag_268:\n        /* \"#utility.yul\":31868:31871   */\n      0x00\n        /* \"#utility.yul\":31887:31907   */\n      tag_678\n        /* \"#utility.yul\":31905:31906   */\n      dup3\n        /* \"#utility.yul\":31887:31907   */\n      tag_302\n      jump\t// in\n    tag_678:\n        /* \"#utility.yul\":31882:31907   */\n      swap2\n      pop\n        /* \"#utility.yul\":31921:31941   */\n      tag_679\n        /* \"#utility.yul\":31939:31940   */\n      dup4\n        /* \"#utility.yul\":31921:31941   */\n      tag_302\n      jump\t// in\n    tag_679:\n        /* \"#utility.yul\":31916:31941   */\n      swap3\n      pop\n        /* \"#utility.yul\":31964:31965   */\n      dup3\n        /* \"#utility.yul\":31961:31962   */\n      dup3\n        /* \"#utility.yul\":31957:31966   */\n      add\n        /* \"#utility.yul\":31950:31966   */\n      swap1\n      pop\n        /* \"#utility.yul\":31985:31988   */\n      dup1\n        /* \"#utility.yul\":31982:31983   */\n      dup3\n        /* \"#utility.yul\":31979:31989   */\n      gt\n        /* \"#utility.yul\":31976:32012   */\n      iszero\n      tag_680\n      jumpi\n        /* \"#utility.yul\":31992:32010   */\n      tag_681\n      tag_350\n      jump\t// in\n    tag_681:\n        /* \"#utility.yul\":31976:32012   */\n    tag_680:\n        /* \"#utility.yul\":31828:32019   */\n      swap3\n      swap2\n      pop\n      pop\n      jump\t// out\n\n    auxdata: 0xa2646970667358221220fc8e983cbb3d1f61075b8616542706009f119840877d388c1c7b4eca03d1637c64736f6c63430008140033\n}\n",
				"bytecode": {
					"linkReferences": {},
					"object": "608060405234801562000010575f80fd5b5060405162003211380380620032118339818101604052810190620000369190620000e1565b805f806101000a81548173ffffffffffffffffffffffffffffffffffffffff021916908373ffffffffffffffffffffffffffffffffffffffff1602179055505062000111565b5f80fd5b5f73ffffffffffffffffffffffffffffffffffffffff82169050919050565b5f620000ab8262000080565b9050919050565b620000bd816200009f565b8114620000c8575f80fd5b50565b5f81519050620000db81620000b2565b92915050565b5f60208284031215620000f957620000f86200007c565b5b5f6200010884828501620000cb565b91505092915050565b6130f2806200011f5f395ff3fe608060405234801561000f575f80fd5b5060043610610034575f3560e01c80639e36c58514610038578063a654ca6114610068575b5f80fd5b610052600480360381019061004d919061224a565b610098565b60405161005f9190612312565b60405180910390f35b610082600480360381019061007d9190612332565b611bd2565b60405161008f919061240e565b60405180910390f35b60605f805f9054906101000a900473ffffffffffffffffffffffffffffffffffffffff1673ffffffffffffffffffffffffffffffffffffffff166356db9ef1856040518263ffffffff1660e01b81526004016100f49190612436565b60a060405180830381865afa15801561010f573d5f803e3d5ffd5b505050506040513d601f19601f820116820180604052508101906101339190612607565b90505f61013f84611bd2565b905060605f8054906101000a900473ffffffffffffffffffffffffffffffffffffffff1673ffffffffffffffffffffffffffffffffffffffff1663591e573584845f6006811061019257610191612632565b5b60200201516040518363ffffffff1660e01b81526004016101b492919061276a565b60a060405180830381865afa1580156101cf573d5f803e3d5ffd5b505050506040513d601f19601f820116820180604052508101906101f39190612607565b92505f836020015190508161020d8263ffffffff16611e7c565b60405160200161021e929190612859565b60405160208183030381529060405291505f8054906101000a900473ffffffffffffffffffffffffffffffffffffffff1673ffffffffffffffffffffffffffffffffffffffff1663290f1050858560026006811061027f5761027e612632565b5b602002015160018760036006811061029a57610299612632565b5b60200201516102a991906128b4565b6040518463ffffffff1660e01b81526004016102c7939291906128e8565b60a060405180830381865afa1580156102e2573d5f803e3d5ffd5b505050506040513d601f19601f820116820180604052508101906103069190612607565b93505f846020015190505f81600361031e919061291d565b600961032a9190612959565b90505f8163ffffffff1667ffffffffffffffff81111561034d5761034c612453565b5b60405190808252806020026020018201604052801561037b5781602001602082028036833780820191505090505b5090505f8660056006811061039357610392612632565b5b602002015160ff1667ffffffffffffffff8111156103b4576103b3612453565b5b6040519080825280602002602001820160405280156103e25781602001602082028036833780820191505090505b5090505f5b82518163ffffffff16101561043d5780838263ffffffff16815181106104105761040f612632565b5b602002602001019063ffffffff16908163ffffffff1681525050808061043590612990565b9150506103e7565b505f5b81518163ffffffff161015610590575f8054906101000a900473ffffffffffffffffffffffffffffffffffffffff1673ffffffffffffffffffffffffffffffffffffffff1663290f10508a8386516040518463ffffffff1660e01b81526004016104ac939291906129ca565b60a060405180830381865afa1580156104c7573d5f803e3d5ffd5b505050506040513d601f19601f820116820180604052508101906104eb9190612607565b985082896020015163ffffffff168151811061050a57610509612632565b5b6020026020010151828263ffffffff168151811061052b5761052a612632565b5b602002602001019063ffffffff16908163ffffffff168152505080838a6020015163ffffffff168151811061056357610562612632565b5b602002602001019063ffffffff16908163ffffffff1681525050808061058890612990565b915050610440565b505f806108798a83806105a2906129ff565b9450855f8b63ffffffff161461083d5760018b63ffffffff16146108015760028b63ffffffff16146107c55760038b63ffffffff16146107895760048b63ffffffff161461074d5760058b63ffffffff16146107115760068b63ffffffff16146106d55760078b63ffffffff16146106995760088b63ffffffff161461065d576040518060400160405280600a81526020017f3031323334353637384100000000000000000000000000000000000000000000815250610694565b6040518060400160405280600381526020017f30343500000000000000000000000000000000000000000000000000000000008152505b6106d0565b6040518060400160405280600781526020017f30313233363741000000000000000000000000000000000000000000000000008152505b61070c565b6040518060400160405280600881526020017f30313233343537410000000000000000000000000000000000000000000000008152505b610748565b6040518060400160405280600681526020017f30313334354100000000000000000000000000000000000000000000000000008152505b610784565b6040518060400160405280600681526020017f30323334354100000000000000000000000000000000000000000000000000008152505b6107c0565b6040518060400160405280600681526020017f34393939393900000000000000000000000000000000000000000000000000008152505b6107fc565b6040518060400160405280600581526020017f30323435390000000000000000000000000000000000000000000000000000008152505b610838565b6040518060400160405280600881526020017f30313233363738410000000000000000000000000000000000000000000000008152505b610874565b6040518060400160405280600981526020017f30313233343536384100000000000000000000000000000000000000000000008152505b611fd5565b809250819b5050508781604051602001610894929190612abc565b604051602081830303815290604052975061093c8a83806108b4906129ff565b94508560038b63ffffffff1614610900576040518060400160405280600881526020017f3030303031313233000000000000000000000000000000000000000000000000815250610937565b6040518060400160405280600781526020017f30303030313132000000000000000000000000000000000000000000000000008152505b611fd5565b809250819b5050508781604051602001610957929190612b38565b6040516020818303038152906040529750610a498a8380610977906129ff565b94508560018b63ffffffff1614610a0d5760038b63ffffffff16146109d1576040518060400160405280600c81526020017f3031313232323333343536360000000000000000000000000000000000000000815250610a08565b6040518060400160405280600881526020017f30313132323233330000000000000000000000000000000000000000000000008152505b610a44565b6040518060400160405280600681526020017f30323232333300000000000000000000000000000000000000000000000000008152505b611fd5565b809250819b5050508781604051602001610a64929190612bb4565b6040516020818303038152906040529750610be98a8380610a84906129ff565b9450855f8b63ffffffff1614610bad5760038b63ffffffff1614610b715760068b63ffffffff1614610b355760078b63ffffffff1614610af9576040518060400160405280600681526020017f3031313131330000000000000000000000000000000000000000000000000000815250610b30565b6040518060400160405280600581526020017f30323232330000000000000000000000000000000000000000000000000000008152505b610b6c565b6040518060400160405280600581526020017f30323232330000000000000000000000000000000000000000000000000000008152505b610ba8565b6040518060400160405280600581526020017f30313131310000000000000000000000000000000000000000000000000000008152505b610be4565b6040518060400160405280600581526020017f30313131310000000000000000000000000000000000000000000000000000008152505b611fd5565b809250819b5050508781604051602001610c04929190612be6565b6040516020818303038152906040529750610cac8a8380610c24906129ff565b94508560038b63ffffffff1614610c70576040518060400160405280600d81526020017f3030303030303333333333333400000000000000000000000000000000000000815250610ca7565b6040518060400160405280600281526020017f30300000000000000000000000000000000000000000000000000000000000008152505b611fd5565b809250819b5050508781604051602001610cc7929190612be6565b6040516020818303038152906040529750610d6f8a8380610ce7906129ff565b94508560038b63ffffffff1614610d33576040518060400160405280600a81526020017f3030303030303131313100000000000000000000000000000000000000000000815250610d6a565b6040518060400160405280600281526020017f30300000000000000000000000000000000000000000000000000000000000008152505b611fd5565b809250819b5050508781604051602001610d8a929190612be6565b6040516020818303038152906040529750610de88a8380610daa906129ff565b9450856040518060400160405280600a81526020017f3030303030303031323300000000000000000000000000000000000000000000815250611fd5565b809250819b5050508781604051602001610e03929190612be6565b6040516020818303038152906040529750610f3f8a8380610e23906129ff565b94508560038b63ffffffff1614610f035760068b63ffffffff1614610ec75760088b63ffffffff1614610e8b576040518060400160405280601181526020017f3031313131313132333434343435353535000000000000000000000000000000815250610ec2565b6040518060400160405280600781526020017f35313535353434000000000000000000000000000000000000000000000000008152505b610efe565b6040518060400160405280601081526020017f30313131313131323434343435353535000000000000000000000000000000008152505b610f3a565b6040518060400160405280601081526020017f30313131313131323434343435353535000000000000000000000000000000008152505b611fd5565b809250819b5050508781604051602001610f5a929190612c57565b60405160208183030381529060405297506110e08a8380610f7a906129ff565b94508560018b63ffffffff16146110a45760028b63ffffffff16146110685760038b63ffffffff161461102c5760068b63ffffffff1614610ff0576040518060400160405280600381526020017f3031320000000000000000000000000000000000000000000000000000000000815250611027565b6040518060400160405280600381526020017f30313300000000000000000000000000000000000000000000000000000000008152505b611063565b6040518060400160405280600281526020017f30320000000000000000000000000000000000000000000000000000000000008152505b61109f565b6040518060400160405280600281526020017f30320000000000000000000000000000000000000000000000000000000000008152505b6110db565b6040518060400160405280600281526020017f30320000000000000000000000000000000000000000000000000000000000008152505b611fd5565b809250819b50505087816040516020016110fb929190612be6565b604051602081830303815290604052975061114c8a5f6040518060400160405280601081526020017f303132333435363738394142434445460000000000000000000000000000000081525061207f565b809250819b5050508781604051602001611167929190612cd3565b60405160208183030381529060405297506111b88a5f6040518060400160405280601081526020017f303132333435363738394142434445460000000000000000000000000000000081525061207f565b809250819b50505087816040516020016111d3929190612be6565b60405160208183030381529060405297505f5b8663ffffffff168163ffffffff161015611bbe575f808263ffffffff1603611288576040518060400160405280600481526020017f43545150000000000000000000000000000000000000000000000000000000008152508b60016006811061125257611251612632565b5b602002015160ff168f6112659190612d32565b8151811061127657611275612632565b5b602001015160f81c60f81b905061139b565b5f8054906101000a900473ffffffffffffffffffffffffffffffffffffffff1673ffffffffffffffffffffffffffffffffffffffff1663591e57358d8d6001600681106112d8576112d7612632565b5b60200201516040518363ffffffff1660e01b81526004016112fa92919061276a565b60a060405180830381865afa158015611315573d5f803e3d5ffd5b505050506040513d601f19601f820116820180604052508101906113399190612607565b9b506040518060400160405280600481526020017f43545150000000000000000000000000000000000000000000000000000000008152508c6020015163ffffffff168151811061138d5761138c612632565b5b602001015160f81c60f81b90505b5f8054906101000a900473ffffffffffffffffffffffffffffffffffffffff1673ffffffffffffffffffffffffffffffffffffffff1663591e57358d8d6004600681106113eb576113ea612632565b5b60200201516040518363ffffffff1660e01b815260040161140d92919061276a565b60a060405180830381865afa158015611428573d5f803e3d5ffd5b505050506040513d601f19601f8201168201806040525081019061144c9190612607565b9b505f7f5400000000000000000000000000000000000000000000000000000000000000827effffffffffffffffffffffffffffffffffffffffffffffffffffffffffffff1916146115dd577f5100000000000000000000000000000000000000000000000000000000000000827effffffffffffffffffffffffffffffffffffffffffffffffffffffffffffff1916146115a1577f5000000000000000000000000000000000000000000000000000000000000000827effffffffffffffffffffffffffffffffffffffffffffffffffffffffffffff191614611565576040518060400160405280600881526020017f303030303030303000000000000000000000000000000000000000000000000081525061159c565b6040518060400160405280600881526020017f35363637383836350000000000000000000000000000000000000000000000008152505b6115d8565b6040518060400160405280600881526020017f30303131323230300000000000000000000000000000000000000000000000008152505b611614565b6040518060400160405280600881526020017f30343236313533370000000000000000000000000000000000000000000000008152505b8d6020015163ffffffff16815181106116305761162f612632565b5b602001015160f81c60f81b90508a828260405160200161165293929190612dac565b6040516020818303038152906040529a505f8363ffffffff161115611822576116b18d5f6040518060400160405280601081526020017f464643434d4d4d4d4d4d4d49494141410000000000000000000000000000000081525061207f565b809550819e5050508a846040516020016116cc929190612e39565b6040516020818303038152906040529a5061171d8d5f6040518060400160405280601081526020017f303132333435363738394142434445460000000000000000000000000000000081525061207f565b809550819e5050508a84604051602001611738929190612be6565b6040516020818303038152906040529a506117898d5f6040518060400160405280601081526020017f303132333435363738394142434445460000000000000000000000000000000081525061207f565b809550819e5050508a846040516020016117a4929190612be6565b6040516020818303038152906040529a506117f58d5f6040518060400160405280601081526020017f303132333435363738394142434445460000000000000000000000000000000081525061207f565b809550819e5050508a84604051602001611810929190612be6565b6040516020818303038152906040529a505b6118628d5f6040518060400160405280600481526020017f534444540000000000000000000000000000000000000000000000000000000081525061207f565b809550819e5050508a8460405160200161187d929190612eb5565b6040516020818303038152906040529a506118ce8d5f6040518060400160405280601081526020017f303132333435363738394142434445460000000000000000000000000000000081525061207f565b809550819e5050508a846040516020016118e9929190612be6565b6040516020818303038152906040529a5061193a8d5f6040518060400160405280601081526020017f303132333435363738394142434445460000000000000000000000000000000081525061207f565b809550819e5050508a84604051602001611955929190612be6565b6040516020818303038152906040529a506119b38d8680611975906129ff565b9750886040518060400160405280600381526020017f3031320000000000000000000000000000000000000000000000000000000000815250611fd5565b809550819e5050508a846040516020016119ce929190612f31565b6040516020818303038152906040529a50611a2c8d86806119ee906129ff565b9750886040518060400160405280600481526020017f3031323300000000000000000000000000000000000000000000000000000000815250611fd5565b809550819e5050508a84604051602001611a47929190612be6565b6040516020818303038152906040529a50611aa58d8680611a67906129ff565b9750886040518060400160405280600681526020017f3031313232330000000000000000000000000000000000000000000000000000815250611fd5565b809550819e5050508a84604051602001611ac0929190612be6565b6040516020818303038152906040529a50611b118d5f6040518060400160405280601081526020017f303132333435363738394142434445460000000000000000000000000000000081525061207f565b809550819e5050508a84604051602001611b2c929190612fad565b6040516020818303038152906040529a50611b7d8d5f6040518060400160405280601081526020017f303132333435363738394142434445460000000000000000000000000000000081525061207f565b809550819e5050508a84604051602001611b98929190612be6565b6040516020818303038152906040529a5050508080611bb690612990565b9150506111e6565b50879a505050505050505050505092915050565b611bda61215c565b6102ca821115611c30576040518060c00160405280600960ff168152602001600460ff168152602001600260ff168152602001600560ff168152602001600860ff168152602001600c60ff168152509050611e77565b610111821115611c86576040518060c00160405280600760ff168152602001600460ff168152602001600160ff168152602001600460ff168152602001600860ff168152602001600b60ff168152509050611e77565b6068821115611cdb576040518060c00160405280600560ff168152602001600460ff168152602001600160ff168152602001600360ff168152602001600860ff168152602001600a60ff168152509050611e77565b6028821115611d30576040518060c00160405280600460ff168152602001600460ff168152602001600160ff168152602001600260ff168152602001600460ff168152602001600960ff168152509050611e77565b600f821115611d85576040518060c00160405280600360ff168152602001600460ff168152602001600160ff168152602001600260ff168152602001600260ff168152602001600860ff168152509050611e77565b6006821115611dda576040518060c00160405280600260ff168152602001600360ff168152602001600160ff168152602001600160ff168152602001600160ff168152602001600760ff168152509050611e77565b6002821115611e2f576040518060c00160405280600160ff168152602001600360ff168152602001600160ff168152602001600160ff168152602001600160ff168152602001600660ff168152509050611e77565b6040518060c00160405280600160ff168152602001600360ff168152602001600160ff168152602001600160ff168152602001600160ff168152602001600560ff1681525090505b919050565b60605f8203611ec2576040518060400160405280600181526020017f30000000000000000000000000000000000000000000000000000000000000008152509050611fd0565b5f8290505f5b5f8214611ef1578080611eda90612fdf565b915050600a82611eea9190613026565b9150611ec8565b5f8167ffffffffffffffff811115611f0c57611f0b612453565b5b6040519080825280601f01601f191660200182016040528015611f3e5781602001600182028036833780820191505090505b5090505b5f8514611fc957600182611f569190613056565b9150600a85611f659190612d32565b6030611f719190613089565b60f81b818381518110611f8757611f86612632565b5b60200101907effffffffffffffffffffffffffffffffffffffffffffffffffffffffffffff191690815f1a905350600a85611fc29190613026565b9450611f42565b8093505050505b919050565b611fdd61217e565b5f805f90505b84518160ff16101561203057848160ff168151811061200557612004612632565b5b602002602001015163ffffffff168660ff160315612030578080612028906129ff565b915050611fe3565b84518160ff16036120645786845f8151811061204f5761204e612632565b5b602001015160f81c60f81b9250925050612076565b6120708760018661207f565b92509250505b94509492505050565b61208761217e565b5f805f9054906101000a900473ffffffffffffffffffffffffffffffffffffffff1673ffffffffffffffffffffffffffffffffffffffff1663290f1050868686516040518463ffffffff1660e01b81526004016120e6939291906129ca565b60a060405180830381865afa158015612101573d5f803e3d5ffd5b505050506040513d601f19601f820116820180604052508101906121259190612607565b94508483866020015163ffffffff168151811061214557612144612632565b5b602001015160f81c60f81b91509150935093915050565b6040518060c00160405280600690602082028036833780820191505090505090565b60405180604001604052806121916121a3565b81526020015f63ffffffff1681525090565b6040518060800160405280600490602082028036833780820191505090505090565b5f604051905090565b5f80fd5b5f6fffffffffffffffffffffffffffffffff82169050919050565b6121f6816121d2565b8114612200575f80fd5b50565b5f81359050612211816121ed565b92915050565b5f819050919050565b61222981612217565b8114612233575f80fd5b50565b5f8135905061224481612220565b92915050565b5f80604083850312156122605761225f6121ce565b5b5f61226d85828601612203565b925050602061227e85828601612236565b9150509250929050565b5f81519050919050565b5f82825260208201905092915050565b5f5b838110156122bf5780820151818401526020810190506122a4565b5f8484015250505050565b5f601f19601f8301169050919050565b5f6122e482612288565b6122ee8185612292565b93506122fe8185602086016122a2565b612307816122ca565b840191505092915050565b5f6020820190508181035f83015261232a81846122da565b905092915050565b5f60208284031215612347576123466121ce565b5b5f61235484828501612236565b91505092915050565b5f60069050919050565b5f81905092915050565b5f819050919050565b5f60ff82169050919050565b61238f8161237a565b82525050565b5f6123a08383612386565b60208301905092915050565b5f602082019050919050565b6123c18161235d565b6123cb8184612367565b92506123d682612371565b805f5b838110156124065781516123ed8782612395565b96506123f8836123ac565b9250506001810190506123d9565b505050505050565b5f60c0820190506124215f8301846123b8565b92915050565b612430816121d2565b82525050565b5f6020820190506124495f830184612427565b92915050565b5f80fd5b7f4e487b71000000000000000000000000000000000000000000000000000000005f52604160045260245ffd5b612489826122ca565b810181811067ffffffffffffffff821117156124a8576124a7612453565b5b80604052505050565b5f6124ba6121c5565b90506124c68282612480565b919050565b5f80fd5b5f67ffffffffffffffff8211156124e9576124e8612453565b5b602082029050919050565b5f80fd5b5f63ffffffff82169050919050565b612510816124f8565b811461251a575f80fd5b50565b5f8151905061252b81612507565b92915050565b5f61254361253e846124cf565b6124b1565b9050806020840283018581111561255d5761255c6124f4565b5b835b818110156125865780612572888261251d565b84526020840193505060208101905061255f565b5050509392505050565b5f82601f8301126125a4576125a36124cb565b5b60046125b1848285612531565b91505092915050565b5f60a082840312156125cf576125ce61244f565b5b6125d960406124b1565b90505f6125e884828501612590565b5f8301525060806125fb8482850161251d565b60208301525092915050565b5f60a0828403121561261c5761261b6121ce565b5b5f612629848285016125ba565b91505092915050565b7f4e487b71000000000000000000000000000000000000000000000000000000005f52603260045260245ffd5b5f60049050919050565b5f81905092915050565b5f819050919050565b612685816124f8565b82525050565b5f612696838361267c565b60208301905092915050565b5f602082019050919050565b6126b78161265f565b6126c18184612669565b92506126cc82612673565b805f5b838110156126fc5781516126e3878261268b565b96506126ee836126a2565b9250506001810190506126cf565b505050505050565b60a082015f8201516127185f8501826126ae565b50602082015161272b608085018261267c565b50505050565b5f819050919050565b5f61275461274f61274a8461237a565b612731565b6124f8565b9050919050565b6127648161273a565b82525050565b5f60c08201905061277d5f830185612704565b61278a60a083018461275b565b9392505050565b5f81519050919050565b5f81905092915050565b5f6127af82612791565b6127b9818561279b565b93506127c98185602086016122a2565b80840191505092915050565b5f81905092915050565b7f70610000000000000000000000000000000000000000000000000000000000005f82015250565b5f6128136002836127d5565b915061281e826127df565b600282019050919050565b5f61283382612288565b61283d81856127d5565b935061284d8185602086016122a2565b80840191505092915050565b5f61286482856127a5565b915061286f82612807565b915061287b8284612829565b91508190509392505050565b7f4e487b71000000000000000000000000000000000000000000000000000000005f52601160045260245ffd5b5f6128be8261237a565b91506128c98361237a565b9250828201905060ff8111156128e2576128e1612887565b5b92915050565b5f60e0820190506128fb5f830186612704565b61290860a083018561275b565b61291560c083018461275b565b949350505050565b5f612927826124f8565b9150612932836124f8565b9250828202612940816124f8565b915080821461295257612951612887565b5b5092915050565b5f612963826124f8565b915061296e836124f8565b9250828201905063ffffffff81111561298a57612989612887565b5b92915050565b5f61299a826124f8565b915063ffffffff82036129b0576129af612887565b5b600182019050919050565b6129c4816124f8565b82525050565b5f60e0820190506129dd5f830186612704565b6129ea60a08301856129bb565b6129f760c08301846129bb565b949350505050565b5f612a098261237a565b915060ff8203612a1c57612a1b612887565b5b600182019050919050565b7f2e626700000000000000000000000000000000000000000000000000000000005f82015250565b5f612a5b6003836127d5565b9150612a6682612a27565b600382019050919050565b5f7fff0000000000000000000000000000000000000000000000000000000000000082169050919050565b5f819050919050565b612ab6612ab182612a71565b612a9c565b82525050565b5f612ac782856127a5565b9150612ad282612a4f565b9150612ade8284612aa5565b6001820191508190509392505050565b7f2e6d6100000000000000000000000000000000000000000000000000000000005f82015250565b5f612b226003836127d5565b9150612b2d82612aee565b600382019050919050565b5f612b4382856127a5565b9150612b4e82612b16565b9150612b5a8284612aa5565b6001820191508190509392505050565b7f2e747200000000000000000000000000000000000000000000000000000000005f82015250565b5f612b9e6003836127d5565b9150612ba982612b6a565b600382019050919050565b5f612bbf82856127a5565b9150612bca82612b92565b9150612bd68284612aa5565b6001820191508190509392505050565b5f612bf182856127a5565b9150612bfd8284612aa5565b6001820191508190509392505050565b7f2e667800000000000000000000000000000000000000000000000000000000005f82015250565b5f612c416003836127d5565b9150612c4c82612c0d565b600382019050919050565b5f612c6282856127a5565b9150612c6d82612c35565b9150612c798284612aa5565b6001820191508190509392505050565b7f2e726e00000000000000000000000000000000000000000000000000000000005f82015250565b5f612cbd6003836127d5565b9150612cc882612c89565b600382019050919050565b5f612cde82856127a5565b9150612ce982612cb1565b9150612cf58284612aa5565b6001820191508190509392505050565b7f4e487b71000000000000000000000000000000000000000000000000000000005f52601260045260245ffd5b5f612d3c82612217565b9150612d4783612217565b925082612d5757612d56612d05565b5b828206905092915050565b7f2e736800000000000000000000000000000000000000000000000000000000005f82015250565b5f612d966003836127d5565b9150612da182612d62565b600382019050919050565b5f612db782866127a5565b9150612dc282612d8a565b9150612dce8285612aa5565b600182019150612dde8284612aa5565b600182019150819050949350505050565b7f66720000000000000000000000000000000000000000000000000000000000005f82015250565b5f612e236002836127d5565b9150612e2e82612def565b600282019050919050565b5f612e4482856127a5565b9150612e4f82612e17565b9150612e5b8284612aa5565b6001820191508190509392505050565b7f696e0000000000000000000000000000000000000000000000000000000000005f82015250565b5f612e9f6002836127d5565b9150612eaa82612e6b565b600282019050919050565b5f612ec082856127a5565b9150612ecb82612e93565b9150612ed78284612aa5565b6001820191508190509392505050565b7f73740000000000000000000000000000000000000000000000000000000000005f82015250565b5f612f1b6002836127d5565b9150612f2682612ee7565b600282019050919050565b5f612f3c82856127a5565b9150612f4782612f0f565b9150612f538284612aa5565b6001820191508190509392505050565b7f726e0000000000000000000000000000000000000000000000000000000000005f82015250565b5f612f976002836127d5565b9150612fa282612f63565b600282019050919050565b5f612fb882856127a5565b9150612fc382612f8b565b9150612fcf8284612aa5565b6001820191508190509392505050565b5f612fe982612217565b91507fffffffffffffffffffffffffffffffffffffffffffffffffffffffffffffffff820361301b5761301a612887565b5b600182019050919050565b5f61303082612217565b915061303b83612217565b92508261304b5761304a612d05565b5b828204905092915050565b5f61306082612217565b915061306b83612217565b925082820390508181111561308357613082612887565b5b92915050565b5f61309382612217565b915061309e83612217565b92508282019050808211156130b6576130b5612887565b5b9291505056fea2646970667358221220fc8e983cbb3d1f61075b8616542706009f119840877d388c1c7b4eca03d1637c64736f6c63430008140033",
					"opcodes": "PUSH1 0x80 PUSH1 0x40 MSTORE CALLVALUE DUP1 ISZERO PUSH3 0x10 JUMPI PUSH0 DUP1 REVERT JUMPDEST POP PUSH1 0x40 MLOAD PUSH3 0x3211 CODESIZE SUB DUP1 PUSH3 0x3211 DUP4 CODECOPY DUP2 DUP2 ADD PUSH1 0x40 MSTORE DUP2 ADD SWAP1 PUSH3 0x36 SWAP2 SWAP1 PUSH3 0xE1 JUMP JUMPDEST DUP1 PUSH0 DUP1 PUSH2 0x100 EXP DUP2 SLOAD DUP2 PUSH20 0xFFFFFFFFFFFFFFFFFFFFFFFFFFFFFFFFFFFFFFFF MUL NOT AND SWAP1 DUP4 PUSH20 0xFFFFFFFFFFFFFFFFFFFFFFFFFFFFFFFFFFFFFFFF AND MUL OR SWAP1 SSTORE POP POP PUSH3 0x111 JUMP JUMPDEST PUSH0 DUP1 REVERT JUMPDEST PUSH0 PUSH20 0xFFFFFFFFFFFFFFFFFFFFFFFFFFFFFFFFFFFFFFFF DUP3 AND SWAP1 POP SWAP2 SWAP1 POP JUMP JUMPDEST PUSH0 PUSH3 0xAB DUP3 PUSH3 0x80 JUMP JUMPDEST SWAP1 POP SWAP2 SWAP1 POP JUMP JUMPDEST PUSH3 0xBD DUP2 PUSH3 0x9F JUMP JUMPDEST DUP2 EQ PUSH3 0xC8 JUMPI PUSH0 DUP1 REVERT JUMPDEST POP JUMP JUMPDEST PUSH0 DUP2 MLOAD SWAP1 POP PUSH3 0xDB DUP2 PUSH3 0xB2 JUMP JUMPDEST SWAP3 SWAP2 POP POP JUMP JUMPDEST PUSH0 PUSH1 0x20 DUP3 DUP5 SUB SLT ISZERO PUSH3 0xF9 JUMPI PUSH3 0xF8 PUSH3 0x7C JUMP JUMPDEST JUMPDEST PUSH0 PUSH3 0x108 DUP5 DUP3 DUP6 ADD PUSH3 0xCB JUMP JUMPDEST SWAP2 POP POP SWAP3 SWAP2 POP POP JUMP JUMPDEST PUSH2 0x30F2 DUP1 PUSH3 0x11F PUSH0 CODECOPY PUSH0 RETURN INVALID PUSH1 0x80 PUSH1 0x40 MSTORE CALLVALUE DUP1 ISZERO PUSH2 0xF JUMPI PUSH0 DUP1 REVERT JUMPDEST POP PUSH1 0x4 CALLDATASIZE LT PUSH2 0x34 JUMPI PUSH0 CALLDATALOAD PUSH1 0xE0 SHR DUP1 PUSH4 0x9E36C585 EQ PUSH2 0x38 JUMPI DUP1 PUSH4 0xA654CA61 EQ PUSH2 0x68 JUMPI JUMPDEST PUSH0 DUP1 REVERT JUMPDEST PUSH2 0x52 PUSH1 0x4 DUP1 CALLDATASIZE SUB DUP2 ADD SWAP1 PUSH2 0x4D SWAP2 SWAP1 PUSH2 0x224A JUMP JUMPDEST PUSH2 0x98 JUMP JUMPDEST PUSH1 0x40 MLOAD PUSH2 0x5F SWAP2 SWAP1 PUSH2 0x2312 JUMP JUMPDEST PUSH1 0x40 MLOAD DUP1 SWAP2 SUB SWAP1 RETURN JUMPDEST PUSH2 0x82 PUSH1 0x4 DUP1 CALLDATASIZE SUB DUP2 ADD SWAP1 PUSH2 0x7D SWAP2 SWAP1 PUSH2 0x2332 JUMP JUMPDEST PUSH2 0x1BD2 JUMP JUMPDEST PUSH1 0x40 MLOAD PUSH2 0x8F SWAP2 SWAP1 PUSH2 0x240E JUMP JUMPDEST PUSH1 0x40 MLOAD DUP1 SWAP2 SUB SWAP1 RETURN JUMPDEST PUSH1 0x60 PUSH0 DUP1 PUSH0 SWAP1 SLOAD SWAP1 PUSH2 0x100 EXP SWAP1 DIV PUSH20 0xFFFFFFFFFFFFFFFFFFFFFFFFFFFFFFFFFFFFFFFF AND PUSH20 0xFFFFFFFFFFFFFFFFFFFFFFFFFFFFFFFFFFFFFFFF AND PUSH4 0x56DB9EF1 DUP6 PUSH1 0x40 MLOAD DUP3 PUSH4 0xFFFFFFFF AND PUSH1 0xE0 SHL DUP2 MSTORE PUSH1 0x4 ADD PUSH2 0xF4 SWAP2 SWAP1 PUSH2 0x2436 JUMP JUMPDEST PUSH1 0xA0 PUSH1 0x40 MLOAD DUP1 DUP4 SUB DUP2 DUP7 GAS STATICCALL ISZERO DUP1 ISZERO PUSH2 0x10F JUMPI RETURNDATASIZE PUSH0 DUP1 RETURNDATACOPY RETURNDATASIZE PUSH0 REVERT JUMPDEST POP POP POP POP PUSH1 0x40 MLOAD RETURNDATASIZE PUSH1 0x1F NOT PUSH1 0x1F DUP3 ADD AND DUP3 ADD DUP1 PUSH1 0x40 MSTORE POP DUP2 ADD SWAP1 PUSH2 0x133 SWAP2 SWAP1 PUSH2 0x2607 JUMP JUMPDEST SWAP1 POP PUSH0 PUSH2 0x13F DUP5 PUSH2 0x1BD2 JUMP JUMPDEST SWAP1 POP PUSH1 0x60 PUSH0 DUP1 SLOAD SWAP1 PUSH2 0x100 EXP SWAP1 DIV PUSH20 0xFFFFFFFFFFFFFFFFFFFFFFFFFFFFFFFFFFFFFFFF AND PUSH20 0xFFFFFFFFFFFFFFFFFFFFFFFFFFFFFFFFFFFFFFFF AND PUSH4 0x591E5735 DUP5 DUP5 PUSH0 PUSH1 0x6 DUP2 LT PUSH2 0x192 JUMPI PUSH2 0x191 PUSH2 0x2632 JUMP JUMPDEST JUMPDEST PUSH1 0x20 MUL ADD MLOAD PUSH1 0x40 MLOAD DUP4 PUSH4 0xFFFFFFFF AND PUSH1 0xE0 SHL DUP2 MSTORE PUSH1 0x4 ADD PUSH2 0x1B4 SWAP3 SWAP2 SWAP1 PUSH2 0x276A JUMP JUMPDEST PUSH1 0xA0 PUSH1 0x40 MLOAD DUP1 DUP4 SUB DUP2 DUP7 GAS STATICCALL ISZERO DUP1 ISZERO PUSH2 0x1CF JUMPI RETURNDATASIZE PUSH0 DUP1 RETURNDATACOPY RETURNDATASIZE PUSH0 REVERT JUMPDEST POP POP POP POP PUSH1 0x40 MLOAD RETURNDATASIZE PUSH1 0x1F NOT PUSH1 0x1F DUP3 ADD AND DUP3 ADD DUP1 PUSH1 0x40 MSTORE POP DUP2 ADD SWAP1 PUSH2 0x1F3 SWAP2 SWAP1 PUSH2 0x2607 JUMP JUMPDEST SWAP3 POP PUSH0 DUP4 PUSH1 0x20 ADD MLOAD SWAP1 POP DUP2 PUSH2 0x20D DUP3 PUSH4 0xFFFFFFFF AND PUSH2 0x1E7C JUMP JUMPDEST PUSH1 0x40 MLOAD PUSH1 0x20 ADD PUSH2 0x21E SWAP3 SWAP2 SWAP1 PUSH2 0x2859 JUMP JUMPDEST PUSH1 0x40 MLOAD PUSH1 0x20 DUP2 DUP4 SUB SUB DUP2 MSTORE SWAP1 PUSH1 0x40 MSTORE SWAP2 POP PUSH0 DUP1 SLOAD SWAP1 PUSH2 0x100 EXP SWAP1 DIV PUSH20 0xFFFFFFFFFFFFFFFFFFFFFFFFFFFFFFFFFFFFFFFF AND PUSH20 0xFFFFFFFFFFFFFFFFFFFFFFFFFFFFFFFFFFFFFFFF AND PUSH4 0x290F1050 DUP6 DUP6 PUSH1 0x2 PUSH1 0x6 DUP2 LT PUSH2 0x27F JUMPI PUSH2 0x27E PUSH2 0x2632 JUMP JUMPDEST JUMPDEST PUSH1 0x20 MUL ADD MLOAD PUSH1 0x1 DUP8 PUSH1 0x3 PUSH1 0x6 DUP2 LT PUSH2 0x29A JUMPI PUSH2 0x299 PUSH2 0x2632 JUMP JUMPDEST JUMPDEST PUSH1 0x20 MUL ADD MLOAD PUSH2 0x2A9 SWAP2 SWAP1 PUSH2 0x28B4 JUMP JUMPDEST PUSH1 0x40 MLOAD DUP5 PUSH4 0xFFFFFFFF AND PUSH1 0xE0 SHL DUP2 MSTORE PUSH1 0x4 ADD PUSH2 0x2C7 SWAP4 SWAP3 SWAP2 SWAP1 PUSH2 0x28E8 JUMP JUMPDEST PUSH1 0xA0 PUSH1 0x40 MLOAD DUP1 DUP4 SUB DUP2 DUP7 GAS STATICCALL ISZERO DUP1 ISZERO PUSH2 0x2E2 JUMPI RETURNDATASIZE PUSH0 DUP1 RETURNDATACOPY RETURNDATASIZE PUSH0 REVERT JUMPDEST POP POP POP POP PUSH1 0x40 MLOAD RETURNDATASIZE PUSH1 0x1F NOT PUSH1 0x1F DUP3 ADD AND DUP3 ADD DUP1 PUSH1 0x40 MSTORE POP DUP2 ADD SWAP1 PUSH2 0x306 SWAP2 SWAP1 PUSH2 0x2607 JUMP JUMPDEST SWAP4 POP PUSH0 DUP5 PUSH1 0x20 ADD MLOAD SWAP1 POP PUSH0 DUP2 PUSH1 0x3 PUSH2 0x31E SWAP2 SWAP1 PUSH2 0x291D JUMP JUMPDEST PUSH1 0x9 PUSH2 0x32A SWAP2 SWAP1 PUSH2 0x2959 JUMP JUMPDEST SWAP1 POP PUSH0 DUP2 PUSH4 0xFFFFFFFF AND PUSH8 0xFFFFFFFFFFFFFFFF DUP2 GT ISZERO PUSH2 0x34D JUMPI PUSH2 0x34C PUSH2 0x2453 JUMP JUMPDEST JUMPDEST PUSH1 0x40 MLOAD SWAP1 DUP1 DUP3 MSTORE DUP1 PUSH1 0x20 MUL PUSH1 0x20 ADD DUP3 ADD PUSH1 0x40 MSTORE DUP1 ISZERO PUSH2 0x37B JUMPI DUP2 PUSH1 0x20 ADD PUSH1 0x20 DUP3 MUL DUP1 CALLDATASIZE DUP4 CALLDATACOPY DUP1 DUP3 ADD SWAP2 POP POP SWAP1 POP JUMPDEST POP SWAP1 POP PUSH0 DUP7 PUSH1 0x5 PUSH1 0x6 DUP2 LT PUSH2 0x393 JUMPI PUSH2 0x392 PUSH2 0x2632 JUMP JUMPDEST JUMPDEST PUSH1 0x20 MUL ADD MLOAD PUSH1 0xFF AND PUSH8 0xFFFFFFFFFFFFFFFF DUP2 GT ISZERO PUSH2 0x3B4 JUMPI PUSH2 0x3B3 PUSH2 0x2453 JUMP JUMPDEST JUMPDEST PUSH1 0x40 MLOAD SWAP1 DUP1 DUP3 MSTORE DUP1 PUSH1 0x20 MUL PUSH1 0x20 ADD DUP3 ADD PUSH1 0x40 MSTORE DUP1 ISZERO PUSH2 0x3E2 JUMPI DUP2 PUSH1 0x20 ADD PUSH1 0x20 DUP3 MUL DUP1 CALLDATASIZE DUP4 CALLDATACOPY DUP1 DUP3 ADD SWAP2 POP POP SWAP1 POP JUMPDEST POP SWAP1 POP PUSH0 JUMPDEST DUP3 MLOAD DUP2 PUSH4 0xFFFFFFFF AND LT ISZERO PUSH2 0x43D JUMPI DUP1 DUP4 DUP3 PUSH4 0xFFFFFFFF AND DUP2 MLOAD DUP2 LT PUSH2 0x410 JUMPI PUSH2 0x40F PUSH2 0x2632 JUMP JUMPDEST JUMPDEST PUSH1 0x20 MUL PUSH1 0x20 ADD ADD SWAP1 PUSH4 0xFFFFFFFF AND SWAP1 DUP2 PUSH4 0xFFFFFFFF AND DUP2 MSTORE POP POP DUP1 DUP1 PUSH2 0x435 SWAP1 PUSH2 0x2990 JUMP JUMPDEST SWAP2 POP POP PUSH2 0x3E7 JUMP JUMPDEST POP PUSH0 JUMPDEST DUP2 MLOAD DUP2 PUSH4 0xFFFFFFFF AND LT ISZERO PUSH2 0x590 JUMPI PUSH0 DUP1 SLOAD SWAP1 PUSH2 0x100 EXP SWAP1 DIV PUSH20 0xFFFFFFFFFFFFFFFFFFFFFFFFFFFFFFFFFFFFFFFF AND PUSH20 0xFFFFFFFFFFFFFFFFFFFFFFFFFFFFFFFFFFFFFFFF AND PUSH4 0x290F1050 DUP11 DUP4 DUP7 MLOAD PUSH1 0x40 MLOAD DUP5 PUSH4 0xFFFFFFFF AND PUSH1 0xE0 SHL DUP2 MSTORE PUSH1 0x4 ADD PUSH2 0x4AC SWAP4 SWAP3 SWAP2 SWAP1 PUSH2 0x29CA JUMP JUMPDEST PUSH1 0xA0 PUSH1 0x40 MLOAD DUP1 DUP4 SUB DUP2 DUP7 GAS STATICCALL ISZERO DUP1 ISZERO PUSH2 0x4C7 JUMPI RETURNDATASIZE PUSH0 DUP1 RETURNDATACOPY RETURNDATASIZE PUSH0 REVERT JUMPDEST POP POP POP POP PUSH1 0x40 MLOAD RETURNDATASIZE PUSH1 0x1F NOT PUSH1 0x1F DUP3 ADD AND DUP3 ADD DUP1 PUSH1 0x40 MSTORE POP DUP2 ADD SWAP1 PUSH2 0x4EB SWAP2 SWAP1 PUSH2 0x2607 JUMP JUMPDEST SWAP9 POP DUP3 DUP10 PUSH1 0x20 ADD MLOAD PUSH4 0xFFFFFFFF AND DUP2 MLOAD DUP2 LT PUSH2 0x50A JUMPI PUSH2 0x509 PUSH2 0x2632 JUMP JUMPDEST JUMPDEST PUSH1 0x20 MUL PUSH1 0x20 ADD ADD MLOAD DUP3 DUP3 PUSH4 0xFFFFFFFF AND DUP2 MLOAD DUP2 LT PUSH2 0x52B JUMPI PUSH2 0x52A PUSH2 0x2632 JUMP JUMPDEST JUMPDEST PUSH1 0x20 MUL PUSH1 0x20 ADD ADD SWAP1 PUSH4 0xFFFFFFFF AND SWAP1 DUP2 PUSH4 0xFFFFFFFF AND DUP2 MSTORE POP POP DUP1 DUP4 DUP11 PUSH1 0x20 ADD MLOAD PUSH4 0xFFFFFFFF AND DUP2 MLOAD DUP2 LT PUSH2 0x563 JUMPI PUSH2 0x562 PUSH2 0x2632 JUMP JUMPDEST JUMPDEST PUSH1 0x20 MUL PUSH1 0x20 ADD ADD SWAP1 PUSH4 0xFFFFFFFF AND SWAP1 DUP2 PUSH4 0xFFFFFFFF AND DUP2 MSTORE POP POP DUP1 DUP1 PUSH2 0x588 SWAP1 PUSH2 0x2990 JUMP JUMPDEST SWAP2 POP POP PUSH2 0x440 JUMP JUMPDEST POP PUSH0 DUP1 PUSH2 0x879 DUP11 DUP4 DUP1 PUSH2 0x5A2 SWAP1 PUSH2 0x29FF JUMP JUMPDEST SWAP5 POP DUP6 PUSH0 DUP12 PUSH4 0xFFFFFFFF AND EQ PUSH2 0x83D JUMPI PUSH1 0x1 DUP12 PUSH4 0xFFFFFFFF AND EQ PUSH2 0x801 JUMPI PUSH1 0x2 DUP12 PUSH4 0xFFFFFFFF AND EQ PUSH2 0x7C5 JUMPI PUSH1 0x3 DUP12 PUSH4 0xFFFFFFFF AND EQ PUSH2 0x789 JUMPI PUSH1 0x4 DUP12 PUSH4 0xFFFFFFFF AND EQ PUSH2 0x74D JUMPI PUSH1 0x5 DUP12 PUSH4 0xFFFFFFFF AND EQ PUSH2 0x711 JUMPI PUSH1 0x6 DUP12 PUSH4 0xFFFFFFFF AND EQ PUSH2 0x6D5 JUMPI PUSH1 0x7 DUP12 PUSH4 0xFFFFFFFF AND EQ PUSH2 0x699 JUMPI PUSH1 0x8 DUP12 PUSH4 0xFFFFFFFF AND EQ PUSH2 0x65D JUMPI PUSH1 0x40 MLOAD DUP1 PUSH1 0x40 ADD PUSH1 0x40 MSTORE DUP1 PUSH1 0xA DUP2 MSTORE PUSH1 0x20 ADD PUSH32 0x3031323334353637384100000000000000000000000000000000000000000000 DUP2 MSTORE POP PUSH2 0x694 JUMP JUMPDEST PUSH1 0x40 MLOAD DUP1 PUSH1 0x40 ADD PUSH1 0x40 MSTORE DUP1 PUSH1 0x3 DUP2 MSTORE PUSH1 0x20 ADD PUSH32 0x3034350000000000000000000000000000000000000000000000000000000000 DUP2 MSTORE POP JUMPDEST PUSH2 0x6D0 JUMP JUMPDEST PUSH1 0x40 MLOAD DUP1 PUSH1 0x40 ADD PUSH1 0x40 MSTORE DUP1 PUSH1 0x7 DUP2 MSTORE PUSH1 0x20 ADD PUSH32 0x3031323336374100000000000000000000000000000000000000000000000000 DUP2 MSTORE POP JUMPDEST PUSH2 0x70C JUMP JUMPDEST PUSH1 0x40 MLOAD DUP1 PUSH1 0x40 ADD PUSH1 0x40 MSTORE DUP1 PUSH1 0x8 DUP2 MSTORE PUSH1 0x20 ADD PUSH32 0x3031323334353741000000000000000000000000000000000000000000000000 DUP2 MSTORE POP JUMPDEST PUSH2 0x748 JUMP JUMPDEST PUSH1 0x40 MLOAD DUP1 PUSH1 0x40 ADD PUSH1 0x40 MSTORE DUP1 PUSH1 0x6 DUP2 MSTORE PUSH1 0x20 ADD PUSH32 0x3031333435410000000000000000000000000000000000000000000000000000 DUP2 MSTORE POP JUMPDEST PUSH2 0x784 JUMP JUMPDEST PUSH1 0x40 MLOAD DUP1 PUSH1 0x40 ADD PUSH1 0x40 MSTORE DUP1 PUSH1 0x6 DUP2 MSTORE PUSH1 0x20 ADD PUSH32 0x3032333435410000000000000000000000000000000000000000000000000000 DUP2 MSTORE POP JUMPDEST PUSH2 0x7C0 JUMP JUMPDEST PUSH1 0x40 MLOAD DUP1 PUSH1 0x40 ADD PUSH1 0x40 MSTORE DUP1 PUSH1 0x6 DUP2 MSTORE PUSH1 0x20 ADD PUSH32 0x3439393939390000000000000000000000000000000000000000000000000000 DUP2 MSTORE POP JUMPDEST PUSH2 0x7FC JUMP JUMPDEST PUSH1 0x40 MLOAD DUP1 PUSH1 0x40 ADD PUSH1 0x40 MSTORE DUP1 PUSH1 0x5 DUP2 MSTORE PUSH1 0x20 ADD PUSH32 0x3032343539000000000000000000000000000000000000000000000000000000 DUP2 MSTORE POP JUMPDEST PUSH2 0x838 JUMP JUMPDEST PUSH1 0x40 MLOAD DUP1 PUSH1 0x40 ADD PUSH1 0x40 MSTORE DUP1 PUSH1 0x8 DUP2 MSTORE PUSH1 0x20 ADD PUSH32 0x3031323336373841000000000000000000000000000000000000000000000000 DUP2 MSTORE POP JUMPDEST PUSH2 0x874 JUMP JUMPDEST PUSH1 0x40 MLOAD DUP1 PUSH1 0x40 ADD PUSH1 0x40 MSTORE DUP1 PUSH1 0x9 DUP2 MSTORE PUSH1 0x20 ADD PUSH32 0x3031323334353638410000000000000000000000000000000000000000000000 DUP2 MSTORE POP JUMPDEST PUSH2 0x1FD5 JUMP JUMPDEST DUP1 SWAP3 POP DUP2 SWAP12 POP POP POP DUP8 DUP2 PUSH1 0x40 MLOAD PUSH1 0x20 ADD PUSH2 0x894 SWAP3 SWAP2 SWAP1 PUSH2 0x2ABC JUMP JUMPDEST PUSH1 0x40 MLOAD PUSH1 0x20 DUP2 DUP4 SUB SUB DUP2 MSTORE SWAP1 PUSH1 0x40 MSTORE SWAP8 POP PUSH2 0x93C DUP11 DUP4 DUP1 PUSH2 0x8B4 SWAP1 PUSH2 0x29FF JUMP JUMPDEST SWAP5 POP DUP6 PUSH1 0x3 DUP12 PUSH4 0xFFFFFFFF AND EQ PUSH2 0x900 JUMPI PUSH1 0x40 MLOAD DUP1 PUSH1 0x40 ADD PUSH1 0x40 MSTORE DUP1 PUSH1 0x8 DUP2 MSTORE PUSH1 0x20 ADD PUSH32 0x3030303031313233000000000000000000000000000000000000000000000000 DUP2 MSTORE POP PUSH2 0x937 JUMP JUMPDEST PUSH1 0x40 MLOAD DUP1 PUSH1 0x40 ADD PUSH1 0x40 MSTORE DUP1 PUSH1 0x7 DUP2 MSTORE PUSH1 0x20 ADD PUSH32 0x3030303031313200000000000000000000000000000000000000000000000000 DUP2 MSTORE POP JUMPDEST PUSH2 0x1FD5 JUMP JUMPDEST DUP1 SWAP3 POP DUP2 SWAP12 POP POP POP DUP8 DUP2 PUSH1 0x40 MLOAD PUSH1 0x20 ADD PUSH2 0x957 SWAP3 SWAP2 SWAP1 PUSH2 0x2B38 JUMP JUMPDEST PUSH1 0x40 MLOAD PUSH1 0x20 DUP2 DUP4 SUB SUB DUP2 MSTORE SWAP1 PUSH1 0x40 MSTORE SWAP8 POP PUSH2 0xA49 DUP11 DUP4 DUP1 PUSH2 0x977 SWAP1 PUSH2 0x29FF JUMP JUMPDEST SWAP5 POP DUP6 PUSH1 0x1 DUP12 PUSH4 0xFFFFFFFF AND EQ PUSH2 0xA0D JUMPI PUSH1 0x3 DUP12 PUSH4 0xFFFFFFFF AND EQ PUSH2 0x9D1 JUMPI PUSH1 0x40 MLOAD DUP1 PUSH1 0x40 ADD PUSH1 0x40 MSTORE DUP1 PUSH1 0xC DUP2 MSTORE PUSH1 0x20 ADD PUSH32 0x3031313232323333343536360000000000000000000000000000000000000000 DUP2 MSTORE POP PUSH2 0xA08 JUMP JUMPDEST PUSH1 0x40 MLOAD DUP1 PUSH1 0x40 ADD PUSH1 0x40 MSTORE DUP1 PUSH1 0x8 DUP2 MSTORE PUSH1 0x20 ADD PUSH32 0x3031313232323333000000000000000000000000000000000000000000000000 DUP2 MSTORE POP JUMPDEST PUSH2 0xA44 JUMP JUMPDEST PUSH1 0x40 MLOAD DUP1 PUSH1 0x40 ADD PUSH1 0x40 MSTORE DUP1 PUSH1 0x6 DUP2 MSTORE PUSH1 0x20 ADD PUSH32 0x3032323233330000000000000000000000000000000000000000000000000000 DUP2 MSTORE POP JUMPDEST PUSH2 0x1FD5 JUMP JUMPDEST DUP1 SWAP3 POP DUP2 SWAP12 POP POP POP DUP8 DUP2 PUSH1 0x40 MLOAD PUSH1 0x20 ADD PUSH2 0xA64 SWAP3 SWAP2 SWAP1 PUSH2 0x2BB4 JUMP JUMPDEST PUSH1 0x40 MLOAD PUSH1 0x20 DUP2 DUP4 SUB SUB DUP2 MSTORE SWAP1 PUSH1 0x40 MSTORE SWAP8 POP PUSH2 0xBE9 DUP11 DUP4 DUP1 PUSH2 0xA84 SWAP1 PUSH2 0x29FF JUMP JUMPDEST SWAP5 POP DUP6 PUSH0 DUP12 PUSH4 0xFFFFFFFF AND EQ PUSH2 0xBAD JUMPI PUSH1 0x3 DUP12 PUSH4 0xFFFFFFFF AND EQ PUSH2 0xB71 JUMPI PUSH1 0x6 DUP12 PUSH4 0xFFFFFFFF AND EQ PUSH2 0xB35 JUMPI PUSH1 0x7 DUP12 PUSH4 0xFFFFFFFF AND EQ PUSH2 0xAF9 JUMPI PUSH1 0x40 MLOAD DUP1 PUSH1 0x40 ADD PUSH1 0x40 MSTORE DUP1 PUSH1 0x6 DUP2 MSTORE PUSH1 0x20 ADD PUSH32 0x3031313131330000000000000000000000000000000000000000000000000000 DUP2 MSTORE POP PUSH2 0xB30 JUMP JUMPDEST PUSH1 0x40 MLOAD DUP1 PUSH1 0x40 ADD PUSH1 0x40 MSTORE DUP1 PUSH1 0x5 DUP2 MSTORE PUSH1 0x20 ADD PUSH32 0x3032323233000000000000000000000000000000000000000000000000000000 DUP2 MSTORE POP JUMPDEST PUSH2 0xB6C JUMP JUMPDEST PUSH1 0x40 MLOAD DUP1 PUSH1 0x40 ADD PUSH1 0x40 MSTORE DUP1 PUSH1 0x5 DUP2 MSTORE PUSH1 0x20 ADD PUSH32 0x3032323233000000000000000000000000000000000000000000000000000000 DUP2 MSTORE POP JUMPDEST PUSH2 0xBA8 JUMP JUMPDEST PUSH1 0x40 MLOAD DUP1 PUSH1 0x40 ADD PUSH1 0x40 MSTORE DUP1 PUSH1 0x5 DUP2 MSTORE PUSH1 0x20 ADD PUSH32 0x3031313131000000000000000000000000000000000000000000000000000000 DUP2 MSTORE POP JUMPDEST PUSH2 0xBE4 JUMP JUMPDEST PUSH1 0x40 MLOAD DUP1 PUSH1 0x40 ADD PUSH1 0x40 MSTORE DUP1 PUSH1 0x5 DUP2 MSTORE PUSH1 0x20 ADD PUSH32 0x3031313131000000000000000000000000000000000000000000000000000000 DUP2 MSTORE POP JUMPDEST PUSH2 0x1FD5 JUMP JUMPDEST DUP1 SWAP3 POP DUP2 SWAP12 POP POP POP DUP8 DUP2 PUSH1 0x40 MLOAD PUSH1 0x20 ADD PUSH2 0xC04 SWAP3 SWAP2 SWAP1 PUSH2 0x2BE6 JUMP JUMPDEST PUSH1 0x40 MLOAD PUSH1 0x20 DUP2 DUP4 SUB SUB DUP2 MSTORE SWAP1 PUSH1 0x40 MSTORE SWAP8 POP PUSH2 0xCAC DUP11 DUP4 DUP1 PUSH2 0xC24 SWAP1 PUSH2 0x29FF JUMP JUMPDEST SWAP5 POP DUP6 PUSH1 0x3 DUP12 PUSH4 0xFFFFFFFF AND EQ PUSH2 0xC70 JUMPI PUSH1 0x40 MLOAD DUP1 PUSH1 0x40 ADD PUSH1 0x40 MSTORE DUP1 PUSH1 0xD DUP2 MSTORE PUSH1 0x20 ADD PUSH32 0x3030303030303333333333333400000000000000000000000000000000000000 DUP2 MSTORE POP PUSH2 0xCA7 JUMP JUMPDEST PUSH1 0x40 MLOAD DUP1 PUSH1 0x40 ADD PUSH1 0x40 MSTORE DUP1 PUSH1 0x2 DUP2 MSTORE PUSH1 0x20 ADD PUSH32 0x3030000000000000000000000000000000000000000000000000000000000000 DUP2 MSTORE POP JUMPDEST PUSH2 0x1FD5 JUMP JUMPDEST DUP1 SWAP3 POP DUP2 SWAP12 POP POP POP DUP8 DUP2 PUSH1 0x40 MLOAD PUSH1 0x20 ADD PUSH2 0xCC7 SWAP3 SWAP2 SWAP1 PUSH2 0x2BE6 JUMP JUMPDEST PUSH1 0x40 MLOAD PUSH1 0x20 DUP2 DUP4 SUB SUB DUP2 MSTORE SWAP1 PUSH1 0x40 MSTORE SWAP8 POP PUSH2 0xD6F DUP11 DUP4 DUP1 PUSH2 0xCE7 SWAP1 PUSH2 0x29FF JUMP JUMPDEST SWAP5 POP DUP6 PUSH1 0x3 DUP12 PUSH4 0xFFFFFFFF AND EQ PUSH2 0xD33 JUMPI PUSH1 0x40 MLOAD DUP1 PUSH1 0x40 ADD PUSH1 0x40 MSTORE DUP1 PUSH1 0xA DUP2 MSTORE PUSH1 0x20 ADD PUSH32 0x3030303030303131313100000000000000000000000000000000000000000000 DUP2 MSTORE POP PUSH2 0xD6A JUMP JUMPDEST PUSH1 0x40 MLOAD DUP1 PUSH1 0x40 ADD PUSH1 0x40 MSTORE DUP1 PUSH1 0x2 DUP2 MSTORE PUSH1 0x20 ADD PUSH32 0x3030000000000000000000000000000000000000000000000000000000000000 DUP2 MSTORE POP JUMPDEST PUSH2 0x1FD5 JUMP JUMPDEST DUP1 SWAP3 POP DUP2 SWAP12 POP POP POP DUP8 DUP2 PUSH1 0x40 MLOAD PUSH1 0x20 ADD PUSH2 0xD8A SWAP3 SWAP2 SWAP1 PUSH2 0x2BE6 JUMP JUMPDEST PUSH1 0x40 MLOAD PUSH1 0x20 DUP2 DUP4 SUB SUB DUP2 MSTORE SWAP1 PUSH1 0x40 MSTORE SWAP8 POP PUSH2 0xDE8 DUP11 DUP4 DUP1 PUSH2 0xDAA SWAP1 PUSH2 0x29FF JUMP JUMPDEST SWAP5 POP DUP6 PUSH1 0x40 MLOAD DUP1 PUSH1 0x40 ADD PUSH1 0x40 MSTORE DUP1 PUSH1 0xA DUP2 MSTORE PUSH1 0x20 ADD PUSH32 0x3030303030303031323300000000000000000000000000000000000000000000 DUP2 MSTORE POP PUSH2 0x1FD5 JUMP JUMPDEST DUP1 SWAP3 POP DUP2 SWAP12 POP POP POP DUP8 DUP2 PUSH1 0x40 MLOAD PUSH1 0x20 ADD PUSH2 0xE03 SWAP3 SWAP2 SWAP1 PUSH2 0x2BE6 JUMP JUMPDEST PUSH1 0x40 MLOAD PUSH1 0x20 DUP2 DUP4 SUB SUB DUP2 MSTORE SWAP1 PUSH1 0x40 MSTORE SWAP8 POP PUSH2 0xF3F DUP11 DUP4 DUP1 PUSH2 0xE23 SWAP1 PUSH2 0x29FF JUMP JUMPDEST SWAP5 POP DUP6 PUSH1 0x3 DUP12 PUSH4 0xFFFFFFFF AND EQ PUSH2 0xF03 JUMPI PUSH1 0x6 DUP12 PUSH4 0xFFFFFFFF AND EQ PUSH2 0xEC7 JUMPI PUSH1 0x8 DUP12 PUSH4 0xFFFFFFFF AND EQ PUSH2 0xE8B JUMPI PUSH1 0x40 MLOAD DUP1 PUSH1 0x40 ADD PUSH1 0x40 MSTORE DUP1 PUSH1 0x11 DUP2 MSTORE PUSH1 0x20 ADD PUSH32 0x3031313131313132333434343435353535000000000000000000000000000000 DUP2 MSTORE POP PUSH2 0xEC2 JUMP JUMPDEST PUSH1 0x40 MLOAD DUP1 PUSH1 0x40 ADD PUSH1 0x40 MSTORE DUP1 PUSH1 0x7 DUP2 MSTORE PUSH1 0x20 ADD PUSH32 0x3531353535343400000000000000000000000000000000000000000000000000 DUP2 MSTORE POP JUMPDEST PUSH2 0xEFE JUMP JUMPDEST PUSH1 0x40 MLOAD DUP1 PUSH1 0x40 ADD PUSH1 0x40 MSTORE DUP1 PUSH1 0x10 DUP2 MSTORE PUSH1 0x20 ADD PUSH32 0x3031313131313132343434343535353500000000000000000000000000000000 DUP2 MSTORE POP JUMPDEST PUSH2 0xF3A JUMP JUMPDEST PUSH1 0x40 MLOAD DUP1 PUSH1 0x40 ADD PUSH1 0x40 MSTORE DUP1 PUSH1 0x10 DUP2 MSTORE PUSH1 0x20 ADD PUSH32 0x3031313131313132343434343535353500000000000000000000000000000000 DUP2 MSTORE POP JUMPDEST PUSH2 0x1FD5 JUMP JUMPDEST DUP1 SWAP3 POP DUP2 SWAP12 POP POP POP DUP8 DUP2 PUSH1 0x40 MLOAD PUSH1 0x20 ADD PUSH2 0xF5A SWAP3 SWAP2 SWAP1 PUSH2 0x2C57 JUMP JUMPDEST PUSH1 0x40 MLOAD PUSH1 0x20 DUP2 DUP4 SUB SUB DUP2 MSTORE SWAP1 PUSH1 0x40 MSTORE SWAP8 POP PUSH2 0x10E0 DUP11 DUP4 DUP1 PUSH2 0xF7A SWAP1 PUSH2 0x29FF JUMP JUMPDEST SWAP5 POP DUP6 PUSH1 0x1 DUP12 PUSH4 0xFFFFFFFF AND EQ PUSH2 0x10A4 JUMPI PUSH1 0x2 DUP12 PUSH4 0xFFFFFFFF AND EQ PUSH2 0x1068 JUMPI PUSH1 0x3 DUP12 PUSH4 0xFFFFFFFF AND EQ PUSH2 0x102C JUMPI PUSH1 0x6 DUP12 PUSH4 0xFFFFFFFF AND EQ PUSH2 0xFF0 JUMPI PUSH1 0x40 MLOAD DUP1 PUSH1 0x40 ADD PUSH1 0x40 MSTORE DUP1 PUSH1 0x3 DUP2 MSTORE PUSH1 0x20 ADD PUSH32 0x3031320000000000000000000000000000000000000000000000000000000000 DUP2 MSTORE POP PUSH2 0x1027 JUMP JUMPDEST PUSH1 0x40 MLOAD DUP1 PUSH1 0x40 ADD PUSH1 0x40 MSTORE DUP1 PUSH1 0x3 DUP2 MSTORE PUSH1 0x20 ADD PUSH32 0x3031330000000000000000000000000000000000000000000000000000000000 DUP2 MSTORE POP JUMPDEST PUSH2 0x1063 JUMP JUMPDEST PUSH1 0x40 MLOAD DUP1 PUSH1 0x40 ADD PUSH1 0x40 MSTORE DUP1 PUSH1 0x2 DUP2 MSTORE PUSH1 0x20 ADD PUSH32 0x3032000000000000000000000000000000000000000000000000000000000000 DUP2 MSTORE POP JUMPDEST PUSH2 0x109F JUMP JUMPDEST PUSH1 0x40 MLOAD DUP1 PUSH1 0x40 ADD PUSH1 0x40 MSTORE DUP1 PUSH1 0x2 DUP2 MSTORE PUSH1 0x20 ADD PUSH32 0x3032000000000000000000000000000000000000000000000000000000000000 DUP2 MSTORE POP JUMPDEST PUSH2 0x10DB JUMP JUMPDEST PUSH1 0x40 MLOAD DUP1 PUSH1 0x40 ADD PUSH1 0x40 MSTORE DUP1 PUSH1 0x2 DUP2 MSTORE PUSH1 0x20 ADD PUSH32 0x3032000000000000000000000000000000000000000000000000000000000000 DUP2 MSTORE POP JUMPDEST PUSH2 0x1FD5 JUMP JUMPDEST DUP1 SWAP3 POP DUP2 SWAP12 POP POP POP DUP8 DUP2 PUSH1 0x40 MLOAD PUSH1 0x20 ADD PUSH2 0x10FB SWAP3 SWAP2 SWAP1 PUSH2 0x2BE6 JUMP JUMPDEST PUSH1 0x40 MLOAD PUSH1 0x20 DUP2 DUP4 SUB SUB DUP2 MSTORE SWAP1 PUSH1 0x40 MSTORE SWAP8 POP PUSH2 0x114C DUP11 PUSH0 PUSH1 0x40 MLOAD DUP1 PUSH1 0x40 ADD PUSH1 0x40 MSTORE DUP1 PUSH1 0x10 DUP2 MSTORE PUSH1 0x20 ADD PUSH32 0x3031323334353637383941424344454600000000000000000000000000000000 DUP2 MSTORE POP PUSH2 0x207F JUMP JUMPDEST DUP1 SWAP3 POP DUP2 SWAP12 POP POP POP DUP8 DUP2 PUSH1 0x40 MLOAD PUSH1 0x20 ADD PUSH2 0x1167 SWAP3 SWAP2 SWAP1 PUSH2 0x2CD3 JUMP JUMPDEST PUSH1 0x40 MLOAD PUSH1 0x20 DUP2 DUP4 SUB SUB DUP2 MSTORE SWAP1 PUSH1 0x40 MSTORE SWAP8 POP PUSH2 0x11B8 DUP11 PUSH0 PUSH1 0x40 MLOAD DUP1 PUSH1 0x40 ADD PUSH1 0x40 MSTORE DUP1 PUSH1 0x10 DUP2 MSTORE PUSH1 0x20 ADD PUSH32 0x3031323334353637383941424344454600000000000000000000000000000000 DUP2 MSTORE POP PUSH2 0x207F JUMP JUMPDEST DUP1 SWAP3 POP DUP2 SWAP12 POP POP POP DUP8 DUP2 PUSH1 0x40 MLOAD PUSH1 0x20 ADD PUSH2 0x11D3 SWAP3 SWAP2 SWAP1 PUSH2 0x2BE6 JUMP JUMPDEST PUSH1 0x40 MLOAD PUSH1 0x20 DUP2 DUP4 SUB SUB DUP2 MSTORE SWAP1 PUSH1 0x40 MSTORE SWAP8 POP PUSH0 JUMPDEST DUP7 PUSH4 0xFFFFFFFF AND DUP2 PUSH4 0xFFFFFFFF AND LT ISZERO PUSH2 0x1BBE JUMPI PUSH0 DUP1 DUP3 PUSH4 0xFFFFFFFF AND SUB PUSH2 0x1288 JUMPI PUSH1 0x40 MLOAD DUP1 PUSH1 0x40 ADD PUSH1 0x40 MSTORE DUP1 PUSH1 0x4 DUP2 MSTORE PUSH1 0x20 ADD PUSH32 0x4354515000000000000000000000000000000000000000000000000000000000 DUP2 MSTORE POP DUP12 PUSH1 0x1 PUSH1 0x6 DUP2 LT PUSH2 0x1252 JUMPI PUSH2 0x1251 PUSH2 0x2632 JUMP JUMPDEST JUMPDEST PUSH1 0x20 MUL ADD MLOAD PUSH1 0xFF AND DUP16 PUSH2 0x1265 SWAP2 SWAP1 PUSH2 0x2D32 JUMP JUMPDEST DUP2 MLOAD DUP2 LT PUSH2 0x1276 JUMPI PUSH2 0x1275 PUSH2 0x2632 JUMP JUMPDEST JUMPDEST PUSH1 0x20 ADD ADD MLOAD PUSH1 0xF8 SHR PUSH1 0xF8 SHL SWAP1 POP PUSH2 0x139B JUMP JUMPDEST PUSH0 DUP1 SLOAD SWAP1 PUSH2 0x100 EXP SWAP1 DIV PUSH20 0xFFFFFFFFFFFFFFFFFFFFFFFFFFFFFFFFFFFFFFFF AND PUSH20 0xFFFFFFFFFFFFFFFFFFFFFFFFFFFFFFFFFFFFFFFF AND PUSH4 0x591E5735 DUP14 DUP14 PUSH1 0x1 PUSH1 0x6 DUP2 LT PUSH2 0x12D8 JUMPI PUSH2 0x12D7 PUSH2 0x2632 JUMP JUMPDEST JUMPDEST PUSH1 0x20 MUL ADD MLOAD PUSH1 0x40 MLOAD DUP4 PUSH4 0xFFFFFFFF AND PUSH1 0xE0 SHL DUP2 MSTORE PUSH1 0x4 ADD PUSH2 0x12FA SWAP3 SWAP2 SWAP1 PUSH2 0x276A JUMP JUMPDEST PUSH1 0xA0 PUSH1 0x40 MLOAD DUP1 DUP4 SUB DUP2 DUP7 GAS STATICCALL ISZERO DUP1 ISZERO PUSH2 0x1315 JUMPI RETURNDATASIZE PUSH0 DUP1 RETURNDATACOPY RETURNDATASIZE PUSH0 REVERT JUMPDEST POP POP POP POP PUSH1 0x40 MLOAD RETURNDATASIZE PUSH1 0x1F NOT PUSH1 0x1F DUP3 ADD AND DUP3 ADD DUP1 PUSH1 0x40 MSTORE POP DUP2 ADD SWAP1 PUSH2 0x1339 SWAP2 SWAP1 PUSH2 0x2607 JUMP JUMPDEST SWAP12 POP PUSH1 0x40 MLOAD DUP1 PUSH1 0x40 ADD PUSH1 0x40 MSTORE DUP1 PUSH1 0x4 DUP2 MSTORE PUSH1 0x20 ADD PUSH32 0x4354515000000000000000000000000000000000000000000000000000000000 DUP2 MSTORE POP DUP13 PUSH1 0x20 ADD MLOAD PUSH4 0xFFFFFFFF AND DUP2 MLOAD DUP2 LT PUSH2 0x138D JUMPI PUSH2 0x138C PUSH2 0x2632 JUMP JUMPDEST JUMPDEST PUSH1 0x20 ADD ADD MLOAD PUSH1 0xF8 SHR PUSH1 0xF8 SHL SWAP1 POP JUMPDEST PUSH0 DUP1 SLOAD SWAP1 PUSH2 0x100 EXP SWAP1 DIV PUSH20 0xFFFFFFFFFFFFFFFFFFFFFFFFFFFFFFFFFFFFFFFF AND PUSH20 0xFFFFFFFFFFFFFFFFFFFFFFFFFFFFFFFFFFFFFFFF AND PUSH4 0x591E5735 DUP14 DUP14 PUSH1 0x4 PUSH1 0x6 DUP2 LT PUSH2 0x13EB JUMPI PUSH2 0x13EA PUSH2 0x2632 JUMP JUMPDEST JUMPDEST PUSH1 0x20 MUL ADD MLOAD PUSH1 0x40 MLOAD DUP4 PUSH4 0xFFFFFFFF AND PUSH1 0xE0 SHL DUP2 MSTORE PUSH1 0x4 ADD PUSH2 0x140D SWAP3 SWAP2 SWAP1 PUSH2 0x276A JUMP JUMPDEST PUSH1 0xA0 PUSH1 0x40 MLOAD DUP1 DUP4 SUB DUP2 DUP7 GAS STATICCALL ISZERO DUP1 ISZERO PUSH2 0x1428 JUMPI RETURNDATASIZE PUSH0 DUP1 RETURNDATACOPY RETURNDATASIZE PUSH0 REVERT JUMPDEST POP POP POP POP PUSH1 0x40 MLOAD RETURNDATASIZE PUSH1 0x1F NOT PUSH1 0x1F DUP3 ADD AND DUP3 ADD DUP1 PUSH1 0x40 MSTORE POP DUP2 ADD SWAP1 PUSH2 0x144C SWAP2 SWAP1 PUSH2 0x2607 JUMP JUMPDEST SWAP12 POP PUSH0 PUSH32 0x5400000000000000000000000000000000000000000000000000000000000000 DUP3 PUSH31 0xFFFFFFFFFFFFFFFFFFFFFFFFFFFFFFFFFFFFFFFFFFFFFFFFFFFFFFFFFFFFFF NOT AND EQ PUSH2 0x15DD JUMPI PUSH32 0x5100000000000000000000000000000000000000000000000000000000000000 DUP3 PUSH31 0xFFFFFFFFFFFFFFFFFFFFFFFFFFFFFFFFFFFFFFFFFFFFFFFFFFFFFFFFFFFFFF NOT AND EQ PUSH2 0x15A1 JUMPI PUSH32 0x5000000000000000000000000000000000000000000000000000000000000000 DUP3 PUSH31 0xFFFFFFFFFFFFFFFFFFFFFFFFFFFFFFFFFFFFFFFFFFFFFFFFFFFFFFFFFFFFFF NOT AND EQ PUSH2 0x1565 JUMPI PUSH1 0x40 MLOAD DUP1 PUSH1 0x40 ADD PUSH1 0x40 MSTORE DUP1 PUSH1 0x8 DUP2 MSTORE PUSH1 0x20 ADD PUSH32 0x3030303030303030000000000000000000000000000000000000000000000000 DUP2 MSTORE POP PUSH2 0x159C JUMP JUMPDEST PUSH1 0x40 MLOAD DUP1 PUSH1 0x40 ADD PUSH1 0x40 MSTORE DUP1 PUSH1 0x8 DUP2 MSTORE PUSH1 0x20 ADD PUSH32 0x3536363738383635000000000000000000000000000000000000000000000000 DUP2 MSTORE POP JUMPDEST PUSH2 0x15D8 JUMP JUMPDEST PUSH1 0x40 MLOAD DUP1 PUSH1 0x40 ADD PUSH1 0x40 MSTORE DUP1 PUSH1 0x8 DUP2 MSTORE PUSH1 0x20 ADD PUSH32 0x3030313132323030000000000000000000000000000000000000000000000000 DUP2 MSTORE POP JUMPDEST PUSH2 0x1614 JUMP JUMPDEST PUSH1 0x40 MLOAD DUP1 PUSH1 0x40 ADD PUSH1 0x40 MSTORE DUP1 PUSH1 0x8 DUP2 MSTORE PUSH1 0x20 ADD PUSH32 0x3034323631353337000000000000000000000000000000000000000000000000 DUP2 MSTORE POP JUMPDEST DUP14 PUSH1 0x20 ADD MLOAD PUSH4 0xFFFFFFFF AND DUP2 MLOAD DUP2 LT PUSH2 0x1630 JUMPI PUSH2 0x162F PUSH2 0x2632 JUMP JUMPDEST JUMPDEST PUSH1 0x20 ADD ADD MLOAD PUSH1 0xF8 SHR PUSH1 0xF8 SHL SWAP1 POP DUP11 DUP3 DUP3 PUSH1 0x40 MLOAD PUSH1 0x20 ADD PUSH2 0x1652 SWAP4 SWAP3 SWAP2 SWAP1 PUSH2 0x2DAC JUMP JUMPDEST PUSH1 0x40 MLOAD PUSH1 0x20 DUP2 DUP4 SUB SUB DUP2 MSTORE SWAP1 PUSH1 0x40 MSTORE SWAP11 POP PUSH0 DUP4 PUSH4 0xFFFFFFFF AND GT ISZERO PUSH2 0x1822 JUMPI PUSH2 0x16B1 DUP14 PUSH0 PUSH1 0x40 MLOAD DUP1 PUSH1 0x40 ADD PUSH1 0x40 MSTORE DUP1 PUSH1 0x10 DUP2 MSTORE PUSH1 0x20 ADD PUSH32 0x464643434D4D4D4D4D4D4D494941414100000000000000000000000000000000 DUP2 MSTORE POP PUSH2 0x207F JUMP JUMPDEST DUP1 SWAP6 POP DUP2 SWAP15 POP POP POP DUP11 DUP5 PUSH1 0x40 MLOAD PUSH1 0x20 ADD PUSH2 0x16CC SWAP3 SWAP2 SWAP1 PUSH2 0x2E39 JUMP JUMPDEST PUSH1 0x40 MLOAD PUSH1 0x20 DUP2 DUP4 SUB SUB DUP2 MSTORE SWAP1 PUSH1 0x40 MSTORE SWAP11 POP PUSH2 0x171D DUP14 PUSH0 PUSH1 0x40 MLOAD DUP1 PUSH1 0x40 ADD PUSH1 0x40 MSTORE DUP1 PUSH1 0x10 DUP2 MSTORE PUSH1 0x20 ADD PUSH32 0x3031323334353637383941424344454600000000000000000000000000000000 DUP2 MSTORE POP PUSH2 0x207F JUMP JUMPDEST DUP1 SWAP6 POP DUP2 SWAP15 POP POP POP DUP11 DUP5 PUSH1 0x40 MLOAD PUSH1 0x20 ADD PUSH2 0x1738 SWAP3 SWAP2 SWAP1 PUSH2 0x2BE6 JUMP JUMPDEST PUSH1 0x40 MLOAD PUSH1 0x20 DUP2 DUP4 SUB SUB DUP2 MSTORE SWAP1 PUSH1 0x40 MSTORE SWAP11 POP PUSH2 0x1789 DUP14 PUSH0 PUSH1 0x40 MLOAD DUP1 PUSH1 0x40 ADD PUSH1 0x40 MSTORE DUP1 PUSH1 0x10 DUP2 MSTORE PUSH1 0x20 ADD PUSH32 0x3031323334353637383941424344454600000000000000000000000000000000 DUP2 MSTORE POP PUSH2 0x207F JUMP JUMPDEST DUP1 SWAP6 POP DUP2 SWAP15 POP POP POP DUP11 DUP5 PUSH1 0x40 MLOAD PUSH1 0x20 ADD PUSH2 0x17A4 SWAP3 SWAP2 SWAP1 PUSH2 0x2BE6 JUMP JUMPDEST PUSH1 0x40 MLOAD PUSH1 0x20 DUP2 DUP4 SUB SUB DUP2 MSTORE SWAP1 PUSH1 0x40 MSTORE SWAP11 POP PUSH2 0x17F5 DUP14 PUSH0 PUSH1 0x40 MLOAD DUP1 PUSH1 0x40 ADD PUSH1 0x40 MSTORE DUP1 PUSH1 0x10 DUP2 MSTORE PUSH1 0x20 ADD PUSH32 0x3031323334353637383941424344454600000000000000000000000000000000 DUP2 MSTORE POP PUSH2 0x207F JUMP JUMPDEST DUP1 SWAP6 POP DUP2 SWAP15 POP POP POP DUP11 DUP5 PUSH1 0x40 MLOAD PUSH1 0x20 ADD PUSH2 0x1810 SWAP3 SWAP2 SWAP1 PUSH2 0x2BE6 JUMP JUMPDEST PUSH1 0x40 MLOAD PUSH1 0x20 DUP2 DUP4 SUB SUB DUP2 MSTORE SWAP1 PUSH1 0x40 MSTORE SWAP11 POP JUMPDEST PUSH2 0x1862 DUP14 PUSH0 PUSH1 0x40 MLOAD DUP1 PUSH1 0x40 ADD PUSH1 0x40 MSTORE DUP1 PUSH1 0x4 DUP2 MSTORE PUSH1 0x20 ADD PUSH32 0x5344445400000000000000000000000000000000000000000000000000000000 DUP2 MSTORE POP PUSH2 0x207F JUMP JUMPDEST DUP1 SWAP6 POP DUP2 SWAP15 POP POP POP DUP11 DUP5 PUSH1 0x40 MLOAD PUSH1 0x20 ADD PUSH2 0x187D SWAP3 SWAP2 SWAP1 PUSH2 0x2EB5 JUMP JUMPDEST PUSH1 0x40 MLOAD PUSH1 0x20 DUP2 DUP4 SUB SUB DUP2 MSTORE SWAP1 PUSH1 0x40 MSTORE SWAP11 POP PUSH2 0x18CE DUP14 PUSH0 PUSH1 0x40 MLOAD DUP1 PUSH1 0x40 ADD PUSH1 0x40 MSTORE DUP1 PUSH1 0x10 DUP2 MSTORE PUSH1 0x20 ADD PUSH32 0x3031323334353637383941424344454600000000000000000000000000000000 DUP2 MSTORE POP PUSH2 0x207F JUMP JUMPDEST DUP1 SWAP6 POP DUP2 SWAP15 POP POP POP DUP11 DUP5 PUSH1 0x40 MLOAD PUSH1 0x20 ADD PUSH2 0x18E9 SWAP3 SWAP2 SWAP1 PUSH2 0x2BE6 JUMP JUMPDEST PUSH1 0x40 MLOAD PUSH1 0x20 DUP2 DUP4 SUB SUB DUP2 MSTORE SWAP1 PUSH1 0x40 MSTORE SWAP11 POP PUSH2 0x193A DUP14 PUSH0 PUSH1 0x40 MLOAD DUP1 PUSH1 0x40 ADD PUSH1 0x40 MSTORE DUP1 PUSH1 0x10 DUP2 MSTORE PUSH1 0x20 ADD PUSH32 0x3031323334353637383941424344454600000000000000000000000000000000 DUP2 MSTORE POP PUSH2 0x207F JUMP JUMPDEST DUP1 SWAP6 POP DUP2 SWAP15 POP POP POP DUP11 DUP5 PUSH1 0x40 MLOAD PUSH1 0x20 ADD PUSH2 0x1955 SWAP3 SWAP2 SWAP1 PUSH2 0x2BE6 JUMP JUMPDEST PUSH1 0x40 MLOAD PUSH1 0x20 DUP2 DUP4 SUB SUB DUP2 MSTORE SWAP1 PUSH1 0x40 MSTORE SWAP11 POP PUSH2 0x19B3 DUP14 DUP7 DUP1 PUSH2 0x1975 SWAP1 PUSH2 0x29FF JUMP JUMPDEST SWAP8 POP DUP9 PUSH1 0x40 MLOAD DUP1 PUSH1 0x40 ADD PUSH1 0x40 MSTORE DUP1 PUSH1 0x3 DUP2 MSTORE PUSH1 0x20 ADD PUSH32 0x3031320000000000000000000000000000000000000000000000000000000000 DUP2 MSTORE POP PUSH2 0x1FD5 JUMP JUMPDEST DUP1 SWAP6 POP DUP2 SWAP15 POP POP POP DUP11 DUP5 PUSH1 0x40 MLOAD PUSH1 0x20 ADD PUSH2 0x19CE SWAP3 SWAP2 SWAP1 PUSH2 0x2F31 JUMP JUMPDEST PUSH1 0x40 MLOAD PUSH1 0x20 DUP2 DUP4 SUB SUB DUP2 MSTORE SWAP1 PUSH1 0x40 MSTORE SWAP11 POP PUSH2 0x1A2C DUP14 DUP7 DUP1 PUSH2 0x19EE SWAP1 PUSH2 0x29FF JUMP JUMPDEST SWAP8 POP DUP9 PUSH1 0x40 MLOAD DUP1 PUSH1 0x40 ADD PUSH1 0x40 MSTORE DUP1 PUSH1 0x4 DUP2 MSTORE PUSH1 0x20 ADD PUSH32 0x3031323300000000000000000000000000000000000000000000000000000000 DUP2 MSTORE POP PUSH2 0x1FD5 JUMP JUMPDEST DUP1 SWAP6 POP DUP2 SWAP15 POP POP POP DUP11 DUP5 PUSH1 0x40 MLOAD PUSH1 0x20 ADD PUSH2 0x1A47 SWAP3 SWAP2 SWAP1 PUSH2 0x2BE6 JUMP JUMPDEST PUSH1 0x40 MLOAD PUSH1 0x20 DUP2 DUP4 SUB SUB DUP2 MSTORE SWAP1 PUSH1 0x40 MSTORE SWAP11 POP PUSH2 0x1AA5 DUP14 DUP7 DUP1 PUSH2 0x1A67 SWAP1 PUSH2 0x29FF JUMP JUMPDEST SWAP8 POP DUP9 PUSH1 0x40 MLOAD DUP1 PUSH1 0x40 ADD PUSH1 0x40 MSTORE DUP1 PUSH1 0x6 DUP2 MSTORE PUSH1 0x20 ADD PUSH32 0x3031313232330000000000000000000000000000000000000000000000000000 DUP2 MSTORE POP PUSH2 0x1FD5 JUMP JUMPDEST DUP1 SWAP6 POP DUP2 SWAP15 POP POP POP DUP11 DUP5 PUSH1 0x40 MLOAD PUSH1 0x20 ADD PUSH2 0x1AC0 SWAP3 SWAP2 SWAP1 PUSH2 0x2BE6 JUMP JUMPDEST PUSH1 0x40 MLOAD PUSH1 0x20 DUP2 DUP4 SUB SUB DUP2 MSTORE SWAP1 PUSH1 0x40 MSTORE SWAP11 POP PUSH2 0x1B11 DUP14 PUSH0 PUSH1 0x40 MLOAD DUP1 PUSH1 0x40 ADD PUSH1 0x40 MSTORE DUP1 PUSH1 0x10 DUP2 MSTORE PUSH1 0x20 ADD PUSH32 0x3031323334353637383941424344454600000000000000000000000000000000 DUP2 MSTORE POP PUSH2 0x207F JUMP JUMPDEST DUP1 SWAP6 POP DUP2 SWAP15 POP POP POP DUP11 DUP5 PUSH1 0x40 MLOAD PUSH1 0x20 ADD PUSH2 0x1B2C SWAP3 SWAP2 SWAP1 PUSH2 0x2FAD JUMP JUMPDEST PUSH1 0x40 MLOAD PUSH1 0x20 DUP2 DUP4 SUB SUB DUP2 MSTORE SWAP1 PUSH1 0x40 MSTORE SWAP11 POP PUSH2 0x1B7D DUP14 PUSH0 PUSH1 0x40 MLOAD DUP1 PUSH1 0x40 ADD PUSH1 0x40 MSTORE DUP1 PUSH1 0x10 DUP2 MSTORE PUSH1 0x20 ADD PUSH32 0x3031323334353637383941424344454600000000000000000000000000000000 DUP2 MSTORE POP PUSH2 0x207F JUMP JUMPDEST DUP1 SWAP6 POP DUP2 SWAP15 POP POP POP DUP11 DUP5 PUSH1 0x40 MLOAD PUSH1 0x20 ADD PUSH2 0x1B98 SWAP3 SWAP2 SWAP1 PUSH2 0x2BE6 JUMP JUMPDEST PUSH1 0x40 MLOAD PUSH1 0x20 DUP2 DUP4 SUB SUB DUP2 MSTORE SWAP1 PUSH1 0x40 MSTORE SWAP11 POP POP POP DUP1 DUP1 PUSH2 0x1BB6 SWAP1 PUSH2 0x2990 JUMP JUMPDEST SWAP2 POP POP PUSH2 0x11E6 JUMP JUMPDEST POP DUP8 SWAP11 POP POP POP POP POP POP POP POP POP POP POP SWAP3 SWAP2 POP POP JUMP JUMPDEST PUSH2 0x1BDA PUSH2 0x215C JUMP JUMPDEST PUSH2 0x2CA DUP3 GT ISZERO PUSH2 0x1C30 JUMPI PUSH1 0x40 MLOAD DUP1 PUSH1 0xC0 ADD PUSH1 0x40 MSTORE DUP1 PUSH1 0x9 PUSH1 0xFF AND DUP2 MSTORE PUSH1 0x20 ADD PUSH1 0x4 PUSH1 0xFF AND DUP2 MSTORE PUSH1 0x20 ADD PUSH1 0x2 PUSH1 0xFF AND DUP2 MSTORE PUSH1 0x20 ADD PUSH1 0x5 PUSH1 0xFF AND DUP2 MSTORE PUSH1 0x20 ADD PUSH1 0x8 PUSH1 0xFF AND DUP2 MSTORE PUSH1 0x20 ADD PUSH1 0xC PUSH1 0xFF AND DUP2 MSTORE POP SWAP1 POP PUSH2 0x1E77 JUMP JUMPDEST PUSH2 0x111 DUP3 GT ISZERO PUSH2 0x1C86 JUMPI PUSH1 0x40 MLOAD DUP1 PUSH1 0xC0 ADD PUSH1 0x40 MSTORE DUP1 PUSH1 0x7 PUSH1 0xFF AND DUP2 MSTORE PUSH1 0x20 ADD PUSH1 0x4 PUSH1 0xFF AND DUP2 MSTORE PUSH1 0x20 ADD PUSH1 0x1 PUSH1 0xFF AND DUP2 MSTORE PUSH1 0x20 ADD PUSH1 0x4 PUSH1 0xFF AND DUP2 MSTORE PUSH1 0x20 ADD PUSH1 0x8 PUSH1 0xFF AND DUP2 MSTORE PUSH1 0x20 ADD PUSH1 0xB PUSH1 0xFF AND DUP2 MSTORE POP SWAP1 POP PUSH2 0x1E77 JUMP JUMPDEST PUSH1 0x68 DUP3 GT ISZERO PUSH2 0x1CDB JUMPI PUSH1 0x40 MLOAD DUP1 PUSH1 0xC0 ADD PUSH1 0x40 MSTORE DUP1 PUSH1 0x5 PUSH1 0xFF AND DUP2 MSTORE PUSH1 0x20 ADD PUSH1 0x4 PUSH1 0xFF AND DUP2 MSTORE PUSH1 0x20 ADD PUSH1 0x1 PUSH1 0xFF AND DUP2 MSTORE PUSH1 0x20 ADD PUSH1 0x3 PUSH1 0xFF AND DUP2 MSTORE PUSH1 0x20 ADD PUSH1 0x8 PUSH1 0xFF AND DUP2 MSTORE PUSH1 0x20 ADD PUSH1 0xA PUSH1 0xFF AND DUP2 MSTORE POP SWAP1 POP PUSH2 0x1E77 JUMP JUMPDEST PUSH1 0x28 DUP3 GT ISZERO PUSH2 0x1D30 JUMPI PUSH1 0x40 MLOAD DUP1 PUSH1 0xC0 ADD PUSH1 0x40 MSTORE DUP1 PUSH1 0x4 PUSH1 0xFF AND DUP2 MSTORE PUSH1 0x20 ADD PUSH1 0x4 PUSH1 0xFF AND DUP2 MSTORE PUSH1 0x20 ADD PUSH1 0x1 PUSH1 0xFF AND DUP2 MSTORE PUSH1 0x20 ADD PUSH1 0x2 PUSH1 0xFF AND DUP2 MSTORE PUSH1 0x20 ADD PUSH1 0x4 PUSH1 0xFF AND DUP2 MSTORE PUSH1 0x20 ADD PUSH1 0x9 PUSH1 0xFF AND DUP2 MSTORE POP SWAP1 POP PUSH2 0x1E77 JUMP JUMPDEST PUSH1 0xF DUP3 GT ISZERO PUSH2 0x1D85 JUMPI PUSH1 0x40 MLOAD DUP1 PUSH1 0xC0 ADD PUSH1 0x40 MSTORE DUP1 PUSH1 0x3 PUSH1 0xFF AND DUP2 MSTORE PUSH1 0x20 ADD PUSH1 0x4 PUSH1 0xFF AND DUP2 MSTORE PUSH1 0x20 ADD PUSH1 0x1 PUSH1 0xFF AND DUP2 MSTORE PUSH1 0x20 ADD PUSH1 0x2 PUSH1 0xFF AND DUP2 MSTORE PUSH1 0x20 ADD PUSH1 0x2 PUSH1 0xFF AND DUP2 MSTORE PUSH1 0x20 ADD PUSH1 0x8 PUSH1 0xFF AND DUP2 MSTORE POP SWAP1 POP PUSH2 0x1E77 JUMP JUMPDEST PUSH1 0x6 DUP3 GT ISZERO PUSH2 0x1DDA JUMPI PUSH1 0x40 MLOAD DUP1 PUSH1 0xC0 ADD PUSH1 0x40 MSTORE DUP1 PUSH1 0x2 PUSH1 0xFF AND DUP2 MSTORE PUSH1 0x20 ADD PUSH1 0x3 PUSH1 0xFF AND DUP2 MSTORE PUSH1 0x20 ADD PUSH1 0x1 PUSH1 0xFF AND DUP2 MSTORE PUSH1 0x20 ADD PUSH1 0x1 PUSH1 0xFF AND DUP2 MSTORE PUSH1 0x20 ADD PUSH1 0x1 PUSH1 0xFF AND DUP2 MSTORE PUSH1 0x20 ADD PUSH1 0x7 PUSH1 0xFF AND DUP2 MSTORE POP SWAP1 POP PUSH2 0x1E77 JUMP JUMPDEST PUSH1 0x2 DUP3 GT ISZERO PUSH2 0x1E2F JUMPI PUSH1 0x40 MLOAD DUP1 PUSH1 0xC0 ADD PUSH1 0x40 MSTORE DUP1 PUSH1 0x1 PUSH1 0xFF AND DUP2 MSTORE PUSH1 0x20 ADD PUSH1 0x3 PUSH1 0xFF AND DUP2 MSTORE PUSH1 0x20 ADD PUSH1 0x1 PUSH1 0xFF AND DUP2 MSTORE PUSH1 0x20 ADD PUSH1 0x1 PUSH1 0xFF AND DUP2 MSTORE PUSH1 0x20 ADD PUSH1 0x1 PUSH1 0xFF AND DUP2 MSTORE PUSH1 0x20 ADD PUSH1 0x6 PUSH1 0xFF AND DUP2 MSTORE POP SWAP1 POP PUSH2 0x1E77 JUMP JUMPDEST PUSH1 0x40 MLOAD DUP1 PUSH1 0xC0 ADD PUSH1 0x40 MSTORE DUP1 PUSH1 0x1 PUSH1 0xFF AND DUP2 MSTORE PUSH1 0x20 ADD PUSH1 0x3 PUSH1 0xFF AND DUP2 MSTORE PUSH1 0x20 ADD PUSH1 0x1 PUSH1 0xFF AND DUP2 MSTORE PUSH1 0x20 ADD PUSH1 0x1 PUSH1 0xFF AND DUP2 MSTORE PUSH1 0x20 ADD PUSH1 0x1 PUSH1 0xFF AND DUP2 MSTORE PUSH1 0x20 ADD PUSH1 0x5 PUSH1 0xFF AND DUP2 MSTORE POP SWAP1 POP JUMPDEST SWAP2 SWAP1 POP JUMP JUMPDEST PUSH1 0x60 PUSH0 DUP3 SUB PUSH2 0x1EC2 JUMPI PUSH1 0x40 MLOAD DUP1 PUSH1 0x40 ADD PUSH1 0x40 MSTORE DUP1 PUSH1 0x1 DUP2 MSTORE PUSH1 0x20 ADD PUSH32 0x3000000000000000000000000000000000000000000000000000000000000000 DUP2 MSTORE POP SWAP1 POP PUSH2 0x1FD0 JUMP JUMPDEST PUSH0 DUP3 SWAP1 POP PUSH0 JUMPDEST PUSH0 DUP3 EQ PUSH2 0x1EF1 JUMPI DUP1 DUP1 PUSH2 0x1EDA SWAP1 PUSH2 0x2FDF JUMP JUMPDEST SWAP2 POP POP PUSH1 0xA DUP3 PUSH2 0x1EEA SWAP2 SWAP1 PUSH2 0x3026 JUMP JUMPDEST SWAP2 POP PUSH2 0x1EC8 JUMP JUMPDEST PUSH0 DUP2 PUSH8 0xFFFFFFFFFFFFFFFF DUP2 GT ISZERO PUSH2 0x1F0C JUMPI PUSH2 0x1F0B PUSH2 0x2453 JUMP JUMPDEST JUMPDEST PUSH1 0x40 MLOAD SWAP1 DUP1 DUP3 MSTORE DUP1 PUSH1 0x1F ADD PUSH1 0x1F NOT AND PUSH1 0x20 ADD DUP3 ADD PUSH1 0x40 MSTORE DUP1 ISZERO PUSH2 0x1F3E JUMPI DUP2 PUSH1 0x20 ADD PUSH1 0x1 DUP3 MUL DUP1 CALLDATASIZE DUP4 CALLDATACOPY DUP1 DUP3 ADD SWAP2 POP POP SWAP1 POP JUMPDEST POP SWAP1 POP JUMPDEST PUSH0 DUP6 EQ PUSH2 0x1FC9 JUMPI PUSH1 0x1 DUP3 PUSH2 0x1F56 SWAP2 SWAP1 PUSH2 0x3056 JUMP JUMPDEST SWAP2 POP PUSH1 0xA DUP6 PUSH2 0x1F65 SWAP2 SWAP1 PUSH2 0x2D32 JUMP JUMPDEST PUSH1 0x30 PUSH2 0x1F71 SWAP2 SWAP1 PUSH2 0x3089 JUMP JUMPDEST PUSH1 0xF8 SHL DUP2 DUP4 DUP2 MLOAD DUP2 LT PUSH2 0x1F87 JUMPI PUSH2 0x1F86 PUSH2 0x2632 JUMP JUMPDEST JUMPDEST PUSH1 0x20 ADD ADD SWAP1 PUSH31 0xFFFFFFFFFFFFFFFFFFFFFFFFFFFFFFFFFFFFFFFFFFFFFFFFFFFFFFFFFFFFFF NOT AND SWAP1 DUP2 PUSH0 BYTE SWAP1 MSTORE8 POP PUSH1 0xA DUP6 PUSH2 0x1FC2 SWAP2 SWAP1 PUSH2 0x3026 JUMP JUMPDEST SWAP5 POP PUSH2 0x1F42 JUMP JUMPDEST DUP1 SWAP4 POP POP POP POP JUMPDEST SWAP2 SWAP1 POP JUMP JUMPDEST PUSH2 0x1FDD PUSH2 0x217E JUMP JUMPDEST PUSH0 DUP1 PUSH0 SWAP1 POP JUMPDEST DUP5 MLOAD DUP2 PUSH1 0xFF AND LT ISZERO PUSH2 0x2030 JUMPI DUP5 DUP2 PUSH1 0xFF AND DUP2 MLOAD DUP2 LT PUSH2 0x2005 JUMPI PUSH2 0x2004 PUSH2 0x2632 JUMP JUMPDEST JUMPDEST PUSH1 0x20 MUL PUSH1 0x20 ADD ADD MLOAD PUSH4 0xFFFFFFFF AND DUP7 PUSH1 0xFF AND SUB ISZERO PUSH2 0x2030 JUMPI DUP1 DUP1 PUSH2 0x2028 SWAP1 PUSH2 0x29FF JUMP JUMPDEST SWAP2 POP POP PUSH2 0x1FE3 JUMP JUMPDEST DUP5 MLOAD DUP2 PUSH1 0xFF AND SUB PUSH2 0x2064 JUMPI DUP7 DUP5 PUSH0 DUP2 MLOAD DUP2 LT PUSH2 0x204F JUMPI PUSH2 0x204E PUSH2 0x2632 JUMP JUMPDEST JUMPDEST PUSH1 0x20 ADD ADD MLOAD PUSH1 0xF8 SHR PUSH1 0xF8 SHL SWAP3 POP SWAP3 POP POP PUSH2 0x2076 JUMP JUMPDEST PUSH2 0x2070 DUP8 PUSH1 0x1 DUP7 PUSH2 0x207F JUMP JUMPDEST SWAP3 POP SWAP3 POP POP JUMPDEST SWAP5 POP SWAP5 SWAP3 POP POP POP JUMP JUMPDEST PUSH2 0x2087 PUSH2 0x217E JUMP JUMPDEST PUSH0 DUP1 PUSH0 SWAP1 SLOAD SWAP1 PUSH2 0x100 EXP SWAP1 DIV PUSH20 0xFFFFFFFFFFFFFFFFFFFFFFFFFFFFFFFFFFFFFFFF AND PUSH20 0xFFFFFFFFFFFFFFFFFFFFFFFFFFFFFFFFFFFFFFFF AND PUSH4 0x290F1050 DUP7 DUP7 DUP7 MLOAD PUSH1 0x40 MLOAD DUP5 PUSH4 0xFFFFFFFF AND PUSH1 0xE0 SHL DUP2 MSTORE PUSH1 0x4 ADD PUSH2 0x20E6 SWAP4 SWAP3 SWAP2 SWAP1 PUSH2 0x29CA JUMP JUMPDEST PUSH1 0xA0 PUSH1 0x40 MLOAD DUP1 DUP4 SUB DUP2 DUP7 GAS STATICCALL ISZERO DUP1 ISZERO PUSH2 0x2101 JUMPI RETURNDATASIZE PUSH0 DUP1 RETURNDATACOPY RETURNDATASIZE PUSH0 REVERT JUMPDEST POP POP POP POP PUSH1 0x40 MLOAD RETURNDATASIZE PUSH1 0x1F NOT PUSH1 0x1F DUP3 ADD AND DUP3 ADD DUP1 PUSH1 0x40 MSTORE POP DUP2 ADD SWAP1 PUSH2 0x2125 SWAP2 SWAP1 PUSH2 0x2607 JUMP JUMPDEST SWAP5 POP DUP5 DUP4 DUP7 PUSH1 0x20 ADD MLOAD PUSH4 0xFFFFFFFF AND DUP2 MLOAD DUP2 LT PUSH2 0x2145 JUMPI PUSH2 0x2144 PUSH2 0x2632 JUMP JUMPDEST JUMPDEST PUSH1 0x20 ADD ADD MLOAD PUSH1 0xF8 SHR PUSH1 0xF8 SHL SWAP2 POP SWAP2 POP SWAP4 POP SWAP4 SWAP2 POP POP JUMP JUMPDEST PUSH1 0x40 MLOAD DUP1 PUSH1 0xC0 ADD PUSH1 0x40 MSTORE DUP1 PUSH1 0x6 SWAP1 PUSH1 0x20 DUP3 MUL DUP1 CALLDATASIZE DUP4 CALLDATACOPY DUP1 DUP3 ADD SWAP2 POP POP SWAP1 POP POP SWAP1 JUMP JUMPDEST PUSH1 0x40 MLOAD DUP1 PUSH1 0x40 ADD PUSH1 0x40 MSTORE DUP1 PUSH2 0x2191 PUSH2 0x21A3 JUMP JUMPDEST DUP2 MSTORE PUSH1 0x20 ADD PUSH0 PUSH4 0xFFFFFFFF AND DUP2 MSTORE POP SWAP1 JUMP JUMPDEST PUSH1 0x40 MLOAD DUP1 PUSH1 0x80 ADD PUSH1 0x40 MSTORE DUP1 PUSH1 0x4 SWAP1 PUSH1 0x20 DUP3 MUL DUP1 CALLDATASIZE DUP4 CALLDATACOPY DUP1 DUP3 ADD SWAP2 POP POP SWAP1 POP POP SWAP1 JUMP JUMPDEST PUSH0 PUSH1 0x40 MLOAD SWAP1 POP SWAP1 JUMP JUMPDEST PUSH0 DUP1 REVERT JUMPDEST PUSH0 PUSH16 0xFFFFFFFFFFFFFFFFFFFFFFFFFFFFFFFF DUP3 AND SWAP1 POP SWAP2 SWAP1 POP JUMP JUMPDEST PUSH2 0x21F6 DUP2 PUSH2 0x21D2 JUMP JUMPDEST DUP2 EQ PUSH2 0x2200 JUMPI PUSH0 DUP1 REVERT JUMPDEST POP JUMP JUMPDEST PUSH0 DUP2 CALLDATALOAD SWAP1 POP PUSH2 0x2211 DUP2 PUSH2 0x21ED JUMP JUMPDEST SWAP3 SWAP2 POP POP JUMP JUMPDEST PUSH0 DUP2 SWAP1 POP SWAP2 SWAP1 POP JUMP JUMPDEST PUSH2 0x2229 DUP2 PUSH2 0x2217 JUMP JUMPDEST DUP2 EQ PUSH2 0x2233 JUMPI PUSH0 DUP1 REVERT JUMPDEST POP JUMP JUMPDEST PUSH0 DUP2 CALLDATALOAD SWAP1 POP PUSH2 0x2244 DUP2 PUSH2 0x2220 JUMP JUMPDEST SWAP3 SWAP2 POP POP JUMP JUMPDEST PUSH0 DUP1 PUSH1 0x40 DUP4 DUP6 SUB SLT ISZERO PUSH2 0x2260 JUMPI PUSH2 0x225F PUSH2 0x21CE JUMP JUMPDEST JUMPDEST PUSH0 PUSH2 0x226D DUP6 DUP3 DUP7 ADD PUSH2 0x2203 JUMP JUMPDEST SWAP3 POP POP PUSH1 0x20 PUSH2 0x227E DUP6 DUP3 DUP7 ADD PUSH2 0x2236 JUMP JUMPDEST SWAP2 POP POP SWAP3 POP SWAP3 SWAP1 POP JUMP JUMPDEST PUSH0 DUP2 MLOAD SWAP1 POP SWAP2 SWAP1 POP JUMP JUMPDEST PUSH0 DUP3 DUP3 MSTORE PUSH1 0x20 DUP3 ADD SWAP1 POP SWAP3 SWAP2 POP POP JUMP JUMPDEST PUSH0 JUMPDEST DUP4 DUP2 LT ISZERO PUSH2 0x22BF JUMPI DUP1 DUP3 ADD MLOAD DUP2 DUP5 ADD MSTORE PUSH1 0x20 DUP2 ADD SWAP1 POP PUSH2 0x22A4 JUMP JUMPDEST PUSH0 DUP5 DUP5 ADD MSTORE POP POP POP POP JUMP JUMPDEST PUSH0 PUSH1 0x1F NOT PUSH1 0x1F DUP4 ADD AND SWAP1 POP SWAP2 SWAP1 POP JUMP JUMPDEST PUSH0 PUSH2 0x22E4 DUP3 PUSH2 0x2288 JUMP JUMPDEST PUSH2 0x22EE DUP2 DUP6 PUSH2 0x2292 JUMP JUMPDEST SWAP4 POP PUSH2 0x22FE DUP2 DUP6 PUSH1 0x20 DUP7 ADD PUSH2 0x22A2 JUMP JUMPDEST PUSH2 0x2307 DUP2 PUSH2 0x22CA JUMP JUMPDEST DUP5 ADD SWAP2 POP POP SWAP3 SWAP2 POP POP JUMP JUMPDEST PUSH0 PUSH1 0x20 DUP3 ADD SWAP1 POP DUP2 DUP2 SUB PUSH0 DUP4 ADD MSTORE PUSH2 0x232A DUP2 DUP5 PUSH2 0x22DA JUMP JUMPDEST SWAP1 POP SWAP3 SWAP2 POP POP JUMP JUMPDEST PUSH0 PUSH1 0x20 DUP3 DUP5 SUB SLT ISZERO PUSH2 0x2347 JUMPI PUSH2 0x2346 PUSH2 0x21CE JUMP JUMPDEST JUMPDEST PUSH0 PUSH2 0x2354 DUP5 DUP3 DUP6 ADD PUSH2 0x2236 JUMP JUMPDEST SWAP2 POP POP SWAP3 SWAP2 POP POP JUMP JUMPDEST PUSH0 PUSH1 0x6 SWAP1 POP SWAP2 SWAP1 POP JUMP JUMPDEST PUSH0 DUP2 SWAP1 POP SWAP3 SWAP2 POP POP JUMP JUMPDEST PUSH0 DUP2 SWAP1 POP SWAP2 SWAP1 POP JUMP JUMPDEST PUSH0 PUSH1 0xFF DUP3 AND SWAP1 POP SWAP2 SWAP1 POP JUMP JUMPDEST PUSH2 0x238F DUP2 PUSH2 0x237A JUMP JUMPDEST DUP3 MSTORE POP POP JUMP JUMPDEST PUSH0 PUSH2 0x23A0 DUP4 DUP4 PUSH2 0x2386 JUMP JUMPDEST PUSH1 0x20 DUP4 ADD SWAP1 POP SWAP3 SWAP2 POP POP JUMP JUMPDEST PUSH0 PUSH1 0x20 DUP3 ADD SWAP1 POP SWAP2 SWAP1 POP JUMP JUMPDEST PUSH2 0x23C1 DUP2 PUSH2 0x235D JUMP JUMPDEST PUSH2 0x23CB DUP2 DUP5 PUSH2 0x2367 JUMP JUMPDEST SWAP3 POP PUSH2 0x23D6 DUP3 PUSH2 0x2371 JUMP JUMPDEST DUP1 PUSH0 JUMPDEST DUP4 DUP2 LT ISZERO PUSH2 0x2406 JUMPI DUP2 MLOAD PUSH2 0x23ED DUP8 DUP3 PUSH2 0x2395 JUMP JUMPDEST SWAP7 POP PUSH2 0x23F8 DUP4 PUSH2 0x23AC JUMP JUMPDEST SWAP3 POP POP PUSH1 0x1 DUP2 ADD SWAP1 POP PUSH2 0x23D9 JUMP JUMPDEST POP POP POP POP POP POP JUMP JUMPDEST PUSH0 PUSH1 0xC0 DUP3 ADD SWAP1 POP PUSH2 0x2421 PUSH0 DUP4 ADD DUP5 PUSH2 0x23B8 JUMP JUMPDEST SWAP3 SWAP2 POP POP JUMP JUMPDEST PUSH2 0x2430 DUP2 PUSH2 0x21D2 JUMP JUMPDEST DUP3 MSTORE POP POP JUMP JUMPDEST PUSH0 PUSH1 0x20 DUP3 ADD SWAP1 POP PUSH2 0x2449 PUSH0 DUP4 ADD DUP5 PUSH2 0x2427 JUMP JUMPDEST SWAP3 SWAP2 POP POP JUMP JUMPDEST PUSH0 DUP1 REVERT JUMPDEST PUSH32 0x4E487B7100000000000000000000000000000000000000000000000000000000 PUSH0 MSTORE PUSH1 0x41 PUSH1 0x4 MSTORE PUSH1 0x24 PUSH0 REVERT JUMPDEST PUSH2 0x2489 DUP3 PUSH2 0x22CA JUMP JUMPDEST DUP2 ADD DUP2 DUP2 LT PUSH8 0xFFFFFFFFFFFFFFFF DUP3 GT OR ISZERO PUSH2 0x24A8 JUMPI PUSH2 0x24A7 PUSH2 0x2453 JUMP JUMPDEST JUMPDEST DUP1 PUSH1 0x40 MSTORE POP POP POP JUMP JUMPDEST PUSH0 PUSH2 0x24BA PUSH2 0x21C5 JUMP JUMPDEST SWAP1 POP PUSH2 0x24C6 DUP3 DUP3 PUSH2 0x2480 JUMP JUMPDEST SWAP2 SWAP1 POP JUMP JUMPDEST PUSH0 DUP1 REVERT JUMPDEST PUSH0 PUSH8 0xFFFFFFFFFFFFFFFF DUP3 GT ISZERO PUSH2 0x24E9 JUMPI PUSH2 0x24E8 PUSH2 0x2453 JUMP JUMPDEST JUMPDEST PUSH1 0x20 DUP3 MUL SWAP1 POP SWAP2 SWAP1 POP JUMP JUMPDEST PUSH0 DUP1 REVERT JUMPDEST PUSH0 PUSH4 0xFFFFFFFF DUP3 AND SWAP1 POP SWAP2 SWAP1 POP JUMP JUMPDEST PUSH2 0x2510 DUP2 PUSH2 0x24F8 JUMP JUMPDEST DUP2 EQ PUSH2 0x251A JUMPI PUSH0 DUP1 REVERT JUMPDEST POP JUMP JUMPDEST PUSH0 DUP2 MLOAD SWAP1 POP PUSH2 0x252B DUP2 PUSH2 0x2507 JUMP JUMPDEST SWAP3 SWAP2 POP POP JUMP JUMPDEST PUSH0 PUSH2 0x2543 PUSH2 0x253E DUP5 PUSH2 0x24CF JUMP JUMPDEST PUSH2 0x24B1 JUMP JUMPDEST SWAP1 POP DUP1 PUSH1 0x20 DUP5 MUL DUP4 ADD DUP6 DUP2 GT ISZERO PUSH2 0x255D JUMPI PUSH2 0x255C PUSH2 0x24F4 JUMP JUMPDEST JUMPDEST DUP4 JUMPDEST DUP2 DUP2 LT ISZERO PUSH2 0x2586 JUMPI DUP1 PUSH2 0x2572 DUP9 DUP3 PUSH2 0x251D JUMP JUMPDEST DUP5 MSTORE PUSH1 0x20 DUP5 ADD SWAP4 POP POP PUSH1 0x20 DUP2 ADD SWAP1 POP PUSH2 0x255F JUMP JUMPDEST POP POP POP SWAP4 SWAP3 POP POP POP JUMP JUMPDEST PUSH0 DUP3 PUSH1 0x1F DUP4 ADD SLT PUSH2 0x25A4 JUMPI PUSH2 0x25A3 PUSH2 0x24CB JUMP JUMPDEST JUMPDEST PUSH1 0x4 PUSH2 0x25B1 DUP5 DUP3 DUP6 PUSH2 0x2531 JUMP JUMPDEST SWAP2 POP POP SWAP3 SWAP2 POP POP JUMP JUMPDEST PUSH0 PUSH1 0xA0 DUP3 DUP5 SUB SLT ISZERO PUSH2 0x25CF JUMPI PUSH2 0x25CE PUSH2 0x244F JUMP JUMPDEST JUMPDEST PUSH2 0x25D9 PUSH1 0x40 PUSH2 0x24B1 JUMP JUMPDEST SWAP1 POP PUSH0 PUSH2 0x25E8 DUP5 DUP3 DUP6 ADD PUSH2 0x2590 JUMP JUMPDEST PUSH0 DUP4 ADD MSTORE POP PUSH1 0x80 PUSH2 0x25FB DUP5 DUP3 DUP6 ADD PUSH2 0x251D JUMP JUMPDEST PUSH1 0x20 DUP4 ADD MSTORE POP SWAP3 SWAP2 POP POP JUMP JUMPDEST PUSH0 PUSH1 0xA0 DUP3 DUP5 SUB SLT ISZERO PUSH2 0x261C JUMPI PUSH2 0x261B PUSH2 0x21CE JUMP JUMPDEST JUMPDEST PUSH0 PUSH2 0x2629 DUP5 DUP3 DUP6 ADD PUSH2 0x25BA JUMP JUMPDEST SWAP2 POP POP SWAP3 SWAP2 POP POP JUMP JUMPDEST PUSH32 0x4E487B7100000000000000000000000000000000000000000000000000000000 PUSH0 MSTORE PUSH1 0x32 PUSH1 0x4 MSTORE PUSH1 0x24 PUSH0 REVERT JUMPDEST PUSH0 PUSH1 0x4 SWAP1 POP SWAP2 SWAP1 POP JUMP JUMPDEST PUSH0 DUP2 SWAP1 POP SWAP3 SWAP2 POP POP JUMP JUMPDEST PUSH0 DUP2 SWAP1 POP SWAP2 SWAP1 POP JUMP JUMPDEST PUSH2 0x2685 DUP2 PUSH2 0x24F8 JUMP JUMPDEST DUP3 MSTORE POP POP JUMP JUMPDEST PUSH0 PUSH2 0x2696 DUP4 DUP4 PUSH2 0x267C JUMP JUMPDEST PUSH1 0x20 DUP4 ADD SWAP1 POP SWAP3 SWAP2 POP POP JUMP JUMPDEST PUSH0 PUSH1 0x20 DUP3 ADD SWAP1 POP SWAP2 SWAP1 POP JUMP JUMPDEST PUSH2 0x26B7 DUP2 PUSH2 0x265F JUMP JUMPDEST PUSH2 0x26C1 DUP2 DUP5 PUSH2 0x2669 JUMP JUMPDEST SWAP3 POP PUSH2 0x26CC DUP3 PUSH2 0x2673 JUMP JUMPDEST DUP1 PUSH0 JUMPDEST DUP4 DUP2 LT ISZERO PUSH2 0x26FC JUMPI DUP2 MLOAD PUSH2 0x26E3 DUP8 DUP3 PUSH2 0x268B JUMP JUMPDEST SWAP7 POP PUSH2 0x26EE DUP4 PUSH2 0x26A2 JUMP JUMPDEST SWAP3 POP POP PUSH1 0x1 DUP2 ADD SWAP1 POP PUSH2 0x26CF JUMP JUMPDEST POP POP POP POP POP POP JUMP JUMPDEST PUSH1 0xA0 DUP3 ADD PUSH0 DUP3 ADD MLOAD PUSH2 0x2718 PUSH0 DUP6 ADD DUP3 PUSH2 0x26AE JUMP JUMPDEST POP PUSH1 0x20 DUP3 ADD MLOAD PUSH2 0x272B PUSH1 0x80 DUP6 ADD DUP3 PUSH2 0x267C JUMP JUMPDEST POP POP POP POP JUMP JUMPDEST PUSH0 DUP2 SWAP1 POP SWAP2 SWAP1 POP JUMP JUMPDEST PUSH0 PUSH2 0x2754 PUSH2 0x274F PUSH2 0x274A DUP5 PUSH2 0x237A JUMP JUMPDEST PUSH2 0x2731 JUMP JUMPDEST PUSH2 0x24F8 JUMP JUMPDEST SWAP1 POP SWAP2 SWAP1 POP JUMP JUMPDEST PUSH2 0x2764 DUP2 PUSH2 0x273A JUMP JUMPDEST DUP3 MSTORE POP POP JUMP JUMPDEST PUSH0 PUSH1 0xC0 DUP3 ADD SWAP1 POP PUSH2 0x277D PUSH0 DUP4 ADD DUP6 PUSH2 0x2704 JUMP JUMPDEST PUSH2 0x278A PUSH1 0xA0 DUP4 ADD DUP5 PUSH2 0x275B JUMP JUMPDEST SWAP4 SWAP3 POP POP POP JUMP JUMPDEST PUSH0 DUP2 MLOAD SWAP1 POP SWAP2 SWAP1 POP JUMP JUMPDEST PUSH0 DUP2 SWAP1 POP SWAP3 SWAP2 POP POP JUMP JUMPDEST PUSH0 PUSH2 0x27AF DUP3 PUSH2 0x2791 JUMP JUMPDEST PUSH2 0x27B9 DUP2 DUP6 PUSH2 0x279B JUMP JUMPDEST SWAP4 POP PUSH2 0x27C9 DUP2 DUP6 PUSH1 0x20 DUP7 ADD PUSH2 0x22A2 JUMP JUMPDEST DUP1 DUP5 ADD SWAP2 POP POP SWAP3 SWAP2 POP POP JUMP JUMPDEST PUSH0 DUP2 SWAP1 POP SWAP3 SWAP2 POP POP JUMP JUMPDEST PUSH32 0x7061000000000000000000000000000000000000000000000000000000000000 PUSH0 DUP3 ADD MSTORE POP JUMP JUMPDEST PUSH0 PUSH2 0x2813 PUSH1 0x2 DUP4 PUSH2 0x27D5 JUMP JUMPDEST SWAP2 POP PUSH2 0x281E DUP3 PUSH2 0x27DF JUMP JUMPDEST PUSH1 0x2 DUP3 ADD SWAP1 POP SWAP2 SWAP1 POP JUMP JUMPDEST PUSH0 PUSH2 0x2833 DUP3 PUSH2 0x2288 JUMP JUMPDEST PUSH2 0x283D DUP2 DUP6 PUSH2 0x27D5 JUMP JUMPDEST SWAP4 POP PUSH2 0x284D DUP2 DUP6 PUSH1 0x20 DUP7 ADD PUSH2 0x22A2 JUMP JUMPDEST DUP1 DUP5 ADD SWAP2 POP POP SWAP3 SWAP2 POP POP JUMP JUMPDEST PUSH0 PUSH2 0x2864 DUP3 DUP6 PUSH2 0x27A5 JUMP JUMPDEST SWAP2 POP PUSH2 0x286F DUP3 PUSH2 0x2807 JUMP JUMPDEST SWAP2 POP PUSH2 0x287B DUP3 DUP5 PUSH2 0x2829 JUMP JUMPDEST SWAP2 POP DUP2 SWAP1 POP SWAP4 SWAP3 POP POP POP JUMP JUMPDEST PUSH32 0x4E487B7100000000000000000000000000000000000000000000000000000000 PUSH0 MSTORE PUSH1 0x11 PUSH1 0x4 MSTORE PUSH1 0x24 PUSH0 REVERT JUMPDEST PUSH0 PUSH2 0x28BE DUP3 PUSH2 0x237A JUMP JUMPDEST SWAP2 POP PUSH2 0x28C9 DUP4 PUSH2 0x237A JUMP JUMPDEST SWAP3 POP DUP3 DUP3 ADD SWAP1 POP PUSH1 0xFF DUP2 GT ISZERO PUSH2 0x28E2 JUMPI PUSH2 0x28E1 PUSH2 0x2887 JUMP JUMPDEST JUMPDEST SWAP3 SWAP2 POP POP JUMP JUMPDEST PUSH0 PUSH1 0xE0 DUP3 ADD SWAP1 POP PUSH2 0x28FB PUSH0 DUP4 ADD DUP7 PUSH2 0x2704 JUMP JUMPDEST PUSH2 0x2908 PUSH1 0xA0 DUP4 ADD DUP6 PUSH2 0x275B JUMP JUMPDEST PUSH2 0x2915 PUSH1 0xC0 DUP4 ADD DUP5 PUSH2 0x275B JUMP JUMPDEST SWAP5 SWAP4 POP POP POP POP JUMP JUMPDEST PUSH0 PUSH2 0x2927 DUP3 PUSH2 0x24F8 JUMP JUMPDEST SWAP2 POP PUSH2 0x2932 DUP4 PUSH2 0x24F8 JUMP JUMPDEST SWAP3 POP DUP3 DUP3 MUL PUSH2 0x2940 DUP2 PUSH2 0x24F8 JUMP JUMPDEST SWAP2 POP DUP1 DUP3 EQ PUSH2 0x2952 JUMPI PUSH2 0x2951 PUSH2 0x2887 JUMP JUMPDEST JUMPDEST POP SWAP3 SWAP2 POP POP JUMP JUMPDEST PUSH0 PUSH2 0x2963 DUP3 PUSH2 0x24F8 JUMP JUMPDEST SWAP2 POP PUSH2 0x296E DUP4 PUSH2 0x24F8 JUMP JUMPDEST SWAP3 POP DUP3 DUP3 ADD SWAP1 POP PUSH4 0xFFFFFFFF DUP2 GT ISZERO PUSH2 0x298A JUMPI PUSH2 0x2989 PUSH2 0x2887 JUMP JUMPDEST JUMPDEST SWAP3 SWAP2 POP POP JUMP JUMPDEST PUSH0 PUSH2 0x299A DUP3 PUSH2 0x24F8 JUMP JUMPDEST SWAP2 POP PUSH4 0xFFFFFFFF DUP3 SUB PUSH2 0x29B0 JUMPI PUSH2 0x29AF PUSH2 0x2887 JUMP JUMPDEST JUMPDEST PUSH1 0x1 DUP3 ADD SWAP1 POP SWAP2 SWAP1 POP JUMP JUMPDEST PUSH2 0x29C4 DUP2 PUSH2 0x24F8 JUMP JUMPDEST DUP3 MSTORE POP POP JUMP JUMPDEST PUSH0 PUSH1 0xE0 DUP3 ADD SWAP1 POP PUSH2 0x29DD PUSH0 DUP4 ADD DUP7 PUSH2 0x2704 JUMP JUMPDEST PUSH2 0x29EA PUSH1 0xA0 DUP4 ADD DUP6 PUSH2 0x29BB JUMP JUMPDEST PUSH2 0x29F7 PUSH1 0xC0 DUP4 ADD DUP5 PUSH2 0x29BB JUMP JUMPDEST SWAP5 SWAP4 POP POP POP POP JUMP JUMPDEST PUSH0 PUSH2 0x2A09 DUP3 PUSH2 0x237A JUMP JUMPDEST SWAP2 POP PUSH1 0xFF DUP3 SUB PUSH2 0x2A1C JUMPI PUSH2 0x2A1B PUSH2 0x2887 JUMP JUMPDEST JUMPDEST PUSH1 0x1 DUP3 ADD SWAP1 POP SWAP2 SWAP1 POP JUMP JUMPDEST PUSH32 0x2E62670000000000000000000000000000000000000000000000000000000000 PUSH0 DUP3 ADD MSTORE POP JUMP JUMPDEST PUSH0 PUSH2 0x2A5B PUSH1 0x3 DUP4 PUSH2 0x27D5 JUMP JUMPDEST SWAP2 POP PUSH2 0x2A66 DUP3 PUSH2 0x2A27 JUMP JUMPDEST PUSH1 0x3 DUP3 ADD SWAP1 POP SWAP2 SWAP1 POP JUMP JUMPDEST PUSH0 PUSH32 0xFF00000000000000000000000000000000000000000000000000000000000000 DUP3 AND SWAP1 POP SWAP2 SWAP1 POP JUMP JUMPDEST PUSH0 DUP2 SWAP1 POP SWAP2 SWAP1 POP JUMP JUMPDEST PUSH2 0x2AB6 PUSH2 0x2AB1 DUP3 PUSH2 0x2A71 JUMP JUMPDEST PUSH2 0x2A9C JUMP JUMPDEST DUP3 MSTORE POP POP JUMP JUMPDEST PUSH0 PUSH2 0x2AC7 DUP3 DUP6 PUSH2 0x27A5 JUMP JUMPDEST SWAP2 POP PUSH2 0x2AD2 DUP3 PUSH2 0x2A4F JUMP JUMPDEST SWAP2 POP PUSH2 0x2ADE DUP3 DUP5 PUSH2 0x2AA5 JUMP JUMPDEST PUSH1 0x1 DUP3 ADD SWAP2 POP DUP2 SWAP1 POP SWAP4 SWAP3 POP POP POP JUMP JUMPDEST PUSH32 0x2E6D610000000000000000000000000000000000000000000000000000000000 PUSH0 DUP3 ADD MSTORE POP JUMP JUMPDEST PUSH0 PUSH2 0x2B22 PUSH1 0x3 DUP4 PUSH2 0x27D5 JUMP JUMPDEST SWAP2 POP PUSH2 0x2B2D DUP3 PUSH2 0x2AEE JUMP JUMPDEST PUSH1 0x3 DUP3 ADD SWAP1 POP SWAP2 SWAP1 POP JUMP JUMPDEST PUSH0 PUSH2 0x2B43 DUP3 DUP6 PUSH2 0x27A5 JUMP JUMPDEST SWAP2 POP PUSH2 0x2B4E DUP3 PUSH2 0x2B16 JUMP JUMPDEST SWAP2 POP PUSH2 0x2B5A DUP3 DUP5 PUSH2 0x2AA5 JUMP JUMPDEST PUSH1 0x1 DUP3 ADD SWAP2 POP DUP2 SWAP1 POP SWAP4 SWAP3 POP POP POP JUMP JUMPDEST PUSH32 0x2E74720000000000000000000000000000000000000000000000000000000000 PUSH0 DUP3 ADD MSTORE POP JUMP JUMPDEST PUSH0 PUSH2 0x2B9E PUSH1 0x3 DUP4 PUSH2 0x27D5 JUMP JUMPDEST SWAP2 POP PUSH2 0x2BA9 DUP3 PUSH2 0x2B6A JUMP JUMPDEST PUSH1 0x3 DUP3 ADD SWAP1 POP SWAP2 SWAP1 POP JUMP JUMPDEST PUSH0 PUSH2 0x2BBF DUP3 DUP6 PUSH2 0x27A5 JUMP JUMPDEST SWAP2 POP PUSH2 0x2BCA DUP3 PUSH2 0x2B92 JUMP JUMPDEST SWAP2 POP PUSH2 0x2BD6 DUP3 DUP5 PUSH2 0x2AA5 JUMP JUMPDEST PUSH1 0x1 DUP3 ADD SWAP2 POP DUP2 SWAP1 POP SWAP4 SWAP3 POP POP POP JUMP JUMPDEST PUSH0 PUSH2 0x2BF1 DUP3 DUP6 PUSH2 0x27A5 JUMP JUMPDEST SWAP2 POP PUSH2 0x2BFD DUP3 DUP5 PUSH2 0x2AA5 JUMP JUMPDEST PUSH1 0x1 DUP3 ADD SWAP2 POP DUP2 SWAP1 POP SWAP4 SWAP3 POP POP POP JUMP JUMPDEST PUSH32 0x2E66780000000000000000000000000000000000000000000000000000000000 PUSH0 DUP3 ADD MSTORE POP JUMP JUMPDEST PUSH0 PUSH2 0x2C41 PUSH1 0x3 DUP4 PUSH2 0x27D5 JUMP JUMPDEST SWAP2 POP PUSH2 0x2C4C DUP3 PUSH2 0x2C0D JUMP JUMPDEST PUSH1 0x3 DUP3 ADD SWAP1 POP SWAP2 SWAP1 POP JUMP JUMPDEST PUSH0 PUSH2 0x2C62 DUP3 DUP6 PUSH2 0x27A5 JUMP JUMPDEST SWAP2 POP PUSH2 0x2C6D DUP3 PUSH2 0x2C35 JUMP JUMPDEST SWAP2 POP PUSH2 0x2C79 DUP3 DUP5 PUSH2 0x2AA5 JUMP JUMPDEST PUSH1 0x1 DUP3 ADD SWAP2 POP DUP2 SWAP1 POP SWAP4 SWAP3 POP POP POP JUMP JUMPDEST PUSH32 0x2E726E0000000000000000000000000000000000000000000000000000000000 PUSH0 DUP3 ADD MSTORE POP JUMP JUMPDEST PUSH0 PUSH2 0x2CBD PUSH1 0x3 DUP4 PUSH2 0x27D5 JUMP JUMPDEST SWAP2 POP PUSH2 0x2CC8 DUP3 PUSH2 0x2C89 JUMP JUMPDEST PUSH1 0x3 DUP3 ADD SWAP1 POP SWAP2 SWAP1 POP JUMP JUMPDEST PUSH0 PUSH2 0x2CDE DUP3 DUP6 PUSH2 0x27A5 JUMP JUMPDEST SWAP2 POP PUSH2 0x2CE9 DUP3 PUSH2 0x2CB1 JUMP JUMPDEST SWAP2 POP PUSH2 0x2CF5 DUP3 DUP5 PUSH2 0x2AA5 JUMP JUMPDEST PUSH1 0x1 DUP3 ADD SWAP2 POP DUP2 SWAP1 POP SWAP4 SWAP3 POP POP POP JUMP JUMPDEST PUSH32 0x4E487B7100000000000000000000000000000000000000000000000000000000 PUSH0 MSTORE PUSH1 0x12 PUSH1 0x4 MSTORE PUSH1 0x24 PUSH0 REVERT JUMPDEST PUSH0 PUSH2 0x2D3C DUP3 PUSH2 0x2217 JUMP JUMPDEST SWAP2 POP PUSH2 0x2D47 DUP4 PUSH2 0x2217 JUMP JUMPDEST SWAP3 POP DUP3 PUSH2 0x2D57 JUMPI PUSH2 0x2D56 PUSH2 0x2D05 JUMP JUMPDEST JUMPDEST DUP3 DUP3 MOD SWAP1 POP SWAP3 SWAP2 POP POP JUMP JUMPDEST PUSH32 0x2E73680000000000000000000000000000000000000000000000000000000000 PUSH0 DUP3 ADD MSTORE POP JUMP JUMPDEST PUSH0 PUSH2 0x2D96 PUSH1 0x3 DUP4 PUSH2 0x27D5 JUMP JUMPDEST SWAP2 POP PUSH2 0x2DA1 DUP3 PUSH2 0x2D62 JUMP JUMPDEST PUSH1 0x3 DUP3 ADD SWAP1 POP SWAP2 SWAP1 POP JUMP JUMPDEST PUSH0 PUSH2 0x2DB7 DUP3 DUP7 PUSH2 0x27A5 JUMP JUMPDEST SWAP2 POP PUSH2 0x2DC2 DUP3 PUSH2 0x2D8A JUMP JUMPDEST SWAP2 POP PUSH2 0x2DCE DUP3 DUP6 PUSH2 0x2AA5 JUMP JUMPDEST PUSH1 0x1 DUP3 ADD SWAP2 POP PUSH2 0x2DDE DUP3 DUP5 PUSH2 0x2AA5 JUMP JUMPDEST PUSH1 0x1 DUP3 ADD SWAP2 POP DUP2 SWAP1 POP SWAP5 SWAP4 POP POP POP POP JUMP JUMPDEST PUSH32 0x6672000000000000000000000000000000000000000000000000000000000000 PUSH0 DUP3 ADD MSTORE POP JUMP JUMPDEST PUSH0 PUSH2 0x2E23 PUSH1 0x2 DUP4 PUSH2 0x27D5 JUMP JUMPDEST SWAP2 POP PUSH2 0x2E2E DUP3 PUSH2 0x2DEF JUMP JUMPDEST PUSH1 0x2 DUP3 ADD SWAP1 POP SWAP2 SWAP1 POP JUMP JUMPDEST PUSH0 PUSH2 0x2E44 DUP3 DUP6 PUSH2 0x27A5 JUMP JUMPDEST SWAP2 POP PUSH2 0x2E4F DUP3 PUSH2 0x2E17 JUMP JUMPDEST SWAP2 POP PUSH2 0x2E5B DUP3 DUP5 PUSH2 0x2AA5 JUMP JUMPDEST PUSH1 0x1 DUP3 ADD SWAP2 POP DUP2 SWAP1 POP SWAP4 SWAP3 POP POP POP JUMP JUMPDEST PUSH32 0x696E000000000000000000000000000000000000000000000000000000000000 PUSH0 DUP3 ADD MSTORE POP JUMP JUMPDEST PUSH0 PUSH2 0x2E9F PUSH1 0x2 DUP4 PUSH2 0x27D5 JUMP JUMPDEST SWAP2 POP PUSH2 0x2EAA DUP3 PUSH2 0x2E6B JUMP JUMPDEST PUSH1 0x2 DUP3 ADD SWAP1 POP SWAP2 SWAP1 POP JUMP JUMPDEST PUSH0 PUSH2 0x2EC0 DUP3 DUP6 PUSH2 0x27A5 JUMP JUMPDEST SWAP2 POP PUSH2 0x2ECB DUP3 PUSH2 0x2E93 JUMP JUMPDEST SWAP2 POP PUSH2 0x2ED7 DUP3 DUP5 PUSH2 0x2AA5 JUMP JUMPDEST PUSH1 0x1 DUP3 ADD SWAP2 POP DUP2 SWAP1 POP SWAP4 SWAP3 POP POP POP JUMP JUMPDEST PUSH32 0x7374000000000000000000000000000000000000000000000000000000000000 PUSH0 DUP3 ADD MSTORE POP JUMP JUMPDEST PUSH0 PUSH2 0x2F1B PUSH1 0x2 DUP4 PUSH2 0x27D5 JUMP JUMPDEST SWAP2 POP PUSH2 0x2F26 DUP3 PUSH2 0x2EE7 JUMP JUMPDEST PUSH1 0x2 DUP3 ADD SWAP1 POP SWAP2 SWAP1 POP JUMP JUMPDEST PUSH0 PUSH2 0x2F3C DUP3 DUP6 PUSH2 0x27A5 JUMP JUMPDEST SWAP2 POP PUSH2 0x2F47 DUP3 PUSH2 0x2F0F JUMP JUMPDEST SWAP2 POP PUSH2 0x2F53 DUP3 DUP5 PUSH2 0x2AA5 JUMP JUMPDEST PUSH1 0x1 DUP3 ADD SWAP2 POP DUP2 SWAP1 POP SWAP4 SWAP3 POP POP POP JUMP JUMPDEST PUSH32 0x726E000000000000000000000000000000000000000000000000000000000000 PUSH0 DUP3 ADD MSTORE POP JUMP JUMPDEST PUSH0 PUSH2 0x2F97 PUSH1 0x2 DUP4 PUSH2 0x27D5 JUMP JUMPDEST SWAP2 POP PUSH2 0x2FA2 DUP3 PUSH2 0x2F63 JUMP JUMPDEST PUSH1 0x2 DUP3 ADD SWAP1 POP SWAP2 SWAP1 POP JUMP JUMPDEST PUSH0 PUSH2 0x2FB8 DUP3 DUP6 PUSH2 0x27A5 JUMP JUMPDEST SWAP2 POP PUSH2 0x2FC3 DUP3 PUSH2 0x2F8B JUMP JUMPDEST SWAP2 POP PUSH2 0x2FCF DUP3 DUP5 PUSH2 0x2AA5 JUMP JUMPDEST PUSH1 0x1 DUP3 ADD SWAP2 POP DUP2 SWAP1 POP SWAP4 SWAP3 POP POP POP JUMP JUMPDEST PUSH0 PUSH2 0x2FE9 DUP3 PUSH2 0x2217 JUMP JUMPDEST SWAP2 POP PUSH32 0xFFFFFFFFFFFFFFFFFFFFFFFFFFFFFFFFFFFFFFFFFFFFFFFFFFFFFFFFFFFFFFFF DUP3 SUB PUSH2 0x301B JUMPI PUSH2 0x301A PUSH2 0x2887 JUMP JUMPDEST JUMPDEST PUSH1 0x1 DUP3 ADD SWAP1 POP SWAP2 SWAP1 POP JUMP JUMPDEST PUSH0 PUSH2 0x3030 DUP3 PUSH2 0x2217 JUMP JUMPDEST SWAP2 POP PUSH2 0x303B DUP4 PUSH2 0x2217 JUMP JUMPDEST SWAP3 POP DUP3 PUSH2 0x304B JUMPI PUSH2 0x304A PUSH2 0x2D05 JUMP JUMPDEST JUMPDEST DUP3 DUP3 DIV SWAP1 POP SWAP3 SWAP2 POP POP JUMP JUMPDEST PUSH0 PUSH2 0x3060 DUP3 PUSH2 0x2217 JUMP JUMPDEST SWAP2 POP PUSH2 0x306B DUP4 PUSH2 0x2217 JUMP JUMPDEST SWAP3 POP DUP3 DUP3 SUB SWAP1 POP DUP2 DUP2 GT ISZERO PUSH2 0x3083 JUMPI PUSH2 0x3082 PUSH2 0x2887 JUMP JUMPDEST JUMPDEST SWAP3 SWAP2 POP POP JUMP JUMPDEST PUSH0 PUSH2 0x3093 DUP3 PUSH2 0x2217 JUMP JUMPDEST SWAP2 POP PUSH2 0x309E DUP4 PUSH2 0x2217 JUMP JUMPDEST SWAP3 POP DUP3 DUP3 ADD SWAP1 POP DUP1 DUP3 GT ISZERO PUSH2 0x30B6 JUMPI PUSH2 0x30B5 PUSH2 0x2887 JUMP JUMPDEST JUMPDEST SWAP3 SWAP2 POP POP JUMP INVALID LOG2 PUSH5 0x6970667358 0x22 SLT KECCAK256 0xFC DUP15 SWAP9 EXTCODECOPY 0xBB RETURNDATASIZE 0x1F PUSH2 0x75B DUP7 AND SLOAD 0x27 MOD STOP SWAP16 GT SWAP9 BLOCKHASH DUP8 PUSH30 0x388C1C7B4ECA03D1637C64736F6C63430008140033000000000000000000 "
				},
				"gasEstimates": {
					"creation": {
						"codeDepositCost": "2506000",
						"executionCost": "infinite",
						"totalCost": "infinite"
					},
					"external": {
						"generateFormula(uint128,uint256)": "infinite",
						"supplyDataFromTokenId(uint256)": "infinite"
					},
					"internal": {
						"drawProp(struct IEuclidRandomizer.RandomizerState memory,uint8,uint32[] memory,bytes memory)": "infinite",
						"randomizeProp(struct IEuclidRandomizer.RandomizerState memory,uint32,bytes memory)": "infinite"
					}
				},
				"methodIdentifiers": {
					"generateFormula(uint128,uint256)": "9e36c585",
					"supplyDataFromTokenId(uint256)": "a654ca61"
				}
			},
			"storageLayout": {
				"storage": [
					{
						"astId": 215,
						"contract": "contracts/EuclidFormula.sol:EuclidFormula",
						"label": "randomizer",
						"offset": 0,
						"slot": "0",
						"type": "t_contract(IEuclidRandomizer)1390"
					}
				],
				"types": {
					"t_contract(IEuclidRandomizer)1390": {
						"encoding": "inplace",
						"label": "contract IEuclidRandomizer",
						"numberOfBytes": "20"
					}
				}
			},
			"userdoc": {
				"kind": "user",
				"methods": {},
				"version": 1
			}
		}
	}
}