{
	"contracts/EuclidRandomizer.sol": {
		"EuclidRandomizer": {
			"abi": [
				{
					"inputs": [],
					"stateMutability": "nonpayable",
					"type": "constructor"
				},
				{
					"inputs": [
						{
							"components": [
								{
									"internalType": "uint32[4]",
									"name": "state",
									"type": "uint32[4]"
								},
								{
									"internalType": "uint32",
									"name": "value",
									"type": "uint32"
								}
							],
							"internalType": "struct IEuclidRandomizer.RandomizerState",
							"name": "self",
							"type": "tuple"
						},
						{
							"internalType": "uint32",
							"name": "maxExclusive",
							"type": "uint32"
						}
					],
					"name": "getInt",
					"outputs": [
						{
							"components": [
								{
									"internalType": "uint32[4]",
									"name": "state",
									"type": "uint32[4]"
								},
								{
									"internalType": "uint32",
									"name": "value",
									"type": "uint32"
								}
							],
							"internalType": "struct IEuclidRandomizer.RandomizerState",
							"name": "",
							"type": "tuple"
						}
					],
					"stateMutability": "pure",
					"type": "function"
				},
				{
					"inputs": [
						{
							"components": [
								{
									"internalType": "uint32[4]",
									"name": "state",
									"type": "uint32[4]"
								},
								{
									"internalType": "uint32",
									"name": "value",
									"type": "uint32"
								}
							],
							"internalType": "struct IEuclidRandomizer.RandomizerState",
							"name": "self",
							"type": "tuple"
						},
						{
							"internalType": "uint32",
							"name": "minInclusive",
							"type": "uint32"
						},
						{
							"internalType": "uint32",
							"name": "maxExclusive",
							"type": "uint32"
						}
					],
					"name": "getIntRange",
					"outputs": [
						{
							"components": [
								{
									"internalType": "uint32[4]",
									"name": "state",
									"type": "uint32[4]"
								},
								{
									"internalType": "uint32",
									"name": "value",
									"type": "uint32"
								}
							],
							"internalType": "struct IEuclidRandomizer.RandomizerState",
							"name": "",
							"type": "tuple"
						}
					],
					"stateMutability": "pure",
					"type": "function"
				},
				{
					"inputs": [
						{
							"components": [
								{
									"internalType": "uint32[4]",
									"name": "state",
									"type": "uint32[4]"
								},
								{
									"internalType": "uint32",
									"name": "value",
									"type": "uint32"
								}
							],
							"internalType": "struct IEuclidRandomizer.RandomizerState",
							"name": "self",
							"type": "tuple"
						}
					],
					"name": "getNextValue",
					"outputs": [
						{
							"components": [
								{
									"internalType": "uint32[4]",
									"name": "state",
									"type": "uint32[4]"
								},
								{
									"internalType": "uint32",
									"name": "value",
									"type": "uint32"
								}
							],
							"internalType": "struct IEuclidRandomizer.RandomizerState",
							"name": "",
							"type": "tuple"
						}
					],
					"stateMutability": "pure",
					"type": "function"
				},
				{
					"inputs": [
						{
							"internalType": "uint128",
							"name": "seed",
							"type": "uint128"
						}
					],
					"name": "initialize",
					"outputs": [
						{
							"components": [
								{
									"internalType": "uint32[4]",
									"name": "state",
									"type": "uint32[4]"
								},
								{
									"internalType": "uint32",
									"name": "value",
									"type": "uint32"
								}
							],
							"internalType": "struct IEuclidRandomizer.RandomizerState",
							"name": "",
							"type": "tuple"
						}
					],
					"stateMutability": "pure",
					"type": "function"
				},
				{
					"inputs": [
						{
							"internalType": "bytes16",
							"name": "seed",
							"type": "bytes16"
						}
					],
					"name": "initialize",
					"outputs": [
						{
							"components": [
								{
									"internalType": "uint32[4]",
									"name": "state",
									"type": "uint32[4]"
								},
								{
									"internalType": "uint32",
									"name": "value",
									"type": "uint32"
								}
							],
							"internalType": "struct IEuclidRandomizer.RandomizerState",
							"name": "",
							"type": "tuple"
						}
					],
					"stateMutability": "pure",
					"type": "function"
				},
				{
					"inputs": [
						{
							"internalType": "address",
							"name": "contractAddress",
							"type": "address"
						},
						{
							"internalType": "address",
							"name": "senderAddress",
							"type": "address"
						},
						{
							"internalType": "uint256",
							"name": "blockNumber",
							"type": "uint256"
						},
						{
							"internalType": "uint256",
							"name": "tokenNumber",
							"type": "uint256"
						}
					],
					"name": "makeSeed",
					"outputs": [
						{
							"internalType": "uint128",
							"name": "",
							"type": "uint128"
						}
					],
					"stateMutability": "view",
					"type": "function"
				}
			],
			"devdoc": {
				"kind": "dev",
				"methods": {},
				"version": 1
			},
			"evm": {
				"assembly": "    /* \"contracts/EuclidRandomizer.sol\":1005:2654  contract EuclidRandomizer is IEuclidRandomizer {... */\n  mstore(0x40, 0x80)\n    /* \"contracts/EuclidRandomizer.sol\":1055:1071  constructor() {} */\n  callvalue\n  dup1\n  iszero\n  tag_1\n  jumpi\n  0x00\n  dup1\n  revert\ntag_1:\n  pop\n    /* \"contracts/EuclidRandomizer.sol\":1005:2654  contract EuclidRandomizer is IEuclidRandomizer {... */\n  dataSize(sub_0)\n  dup1\n  dataOffset(sub_0)\n  0x00\n  codecopy\n  0x00\n  return\nstop\n\nsub_0: assembly {\n        /* \"contracts/EuclidRandomizer.sol\":1005:2654  contract EuclidRandomizer is IEuclidRandomizer {... */\n      mstore(0x40, 0x80)\n      callvalue\n      dup1\n      iszero\n      tag_1\n      jumpi\n      0x00\n      dup1\n      revert\n    tag_1:\n      pop\n      jumpi(tag_2, lt(calldatasize, 0x04))\n      shr(0xe0, calldataload(0x00))\n      dup1\n      0x290f1050\n      eq\n      tag_3\n      jumpi\n      dup1\n      0x56db9ef1\n      eq\n      tag_4\n      jumpi\n      dup1\n      0x591e5735\n      eq\n      tag_5\n      jumpi\n      dup1\n      0xbd33d1e3\n      eq\n      tag_6\n      jumpi\n      dup1\n      0xbe1cfcc4\n      eq\n      tag_7\n      jumpi\n      dup1\n      0xf192d0e7\n      eq\n      tag_8\n      jumpi\n    tag_2:\n      0x00\n      dup1\n      revert\n        /* \"contracts/EuclidRandomizer.sol\":2384:2652  function getIntRange(RandomizerState memory self, uint32 minInclusive, uint32 maxExclusive) public pure override returns (RandomizerState memory) {... */\n    tag_3:\n      tag_9\n      0x04\n      dup1\n      calldatasize\n      sub\n      dup2\n      add\n      swap1\n      tag_10\n      swap2\n      swap1\n      tag_11\n      jump\t// in\n    tag_10:\n      tag_12\n      jump\t// in\n    tag_9:\n      mload(0x40)\n      tag_13\n      swap2\n      swap1\n      tag_14\n      jump\t// in\n    tag_13:\n      mload(0x40)\n      dup1\n      swap2\n      sub\n      swap1\n      return\n        /* \"contracts/EuclidRandomizer.sol\":1365:1620  function initialize(uint128 seed) public pure override returns (RandomizerState memory) {... */\n    tag_4:\n      tag_15\n      0x04\n      dup1\n      calldatasize\n      sub\n      dup2\n      add\n      swap1\n      tag_16\n      swap2\n      swap1\n      tag_17\n      jump\t// in\n    tag_16:\n      tag_18\n      jump\t// in\n    tag_15:\n      mload(0x40)\n      tag_19\n      swap2\n      swap1\n      tag_14\n      jump\t// in\n    tag_19:\n      mload(0x40)\n      dup1\n      swap2\n      sub\n      swap1\n      return\n        /* \"contracts/EuclidRandomizer.sol\":2172:2382  function getInt(RandomizerState memory self, uint32 maxExclusive) public pure override returns (RandomizerState memory) {... */\n    tag_5:\n      tag_20\n      0x04\n      dup1\n      calldatasize\n      sub\n      dup2\n      add\n      swap1\n      tag_21\n      swap2\n      swap1\n      tag_22\n      jump\t// in\n    tag_21:\n      tag_23\n      jump\t// in\n    tag_20:\n      mload(0x40)\n      tag_24\n      swap2\n      swap1\n      tag_14\n      jump\t// in\n    tag_24:\n      mload(0x40)\n      dup1\n      swap2\n      sub\n      swap1\n      return\n        /* \"contracts/EuclidRandomizer.sol\":1622:1750  function initialize(bytes16 seed) public pure override returns (RandomizerState memory) {... */\n    tag_6:\n      tag_25\n      0x04\n      dup1\n      calldatasize\n      sub\n      dup2\n      add\n      swap1\n      tag_26\n      swap2\n      swap1\n      tag_27\n      jump\t// in\n    tag_26:\n      tag_28\n      jump\t// in\n    tag_25:\n      mload(0x40)\n      tag_29\n      swap2\n      swap1\n      tag_14\n      jump\t// in\n    tag_29:\n      mload(0x40)\n      dup1\n      swap2\n      sub\n      swap1\n      return\n        /* \"contracts/EuclidRandomizer.sol\":1810:2170  function getNextValue(RandomizerState memory self) public pure override returns (RandomizerState memory) {... */\n    tag_7:\n      tag_30\n      0x04\n      dup1\n      calldatasize\n      sub\n      dup2\n      add\n      swap1\n      tag_31\n      swap2\n      swap1\n      tag_32\n      jump\t// in\n    tag_31:\n      tag_33\n      jump\t// in\n    tag_30:\n      mload(0x40)\n      tag_34\n      swap2\n      swap1\n      tag_14\n      jump\t// in\n    tag_34:\n      mload(0x40)\n      dup1\n      swap2\n      sub\n      swap1\n      return\n        /* \"contracts/EuclidRandomizer.sol\":1073:1363  function makeSeed(address contractAddress, address senderAddress, uint blockNumber, uint256 tokenNumber) public view override returns (uint128) {... */\n    tag_8:\n      tag_35\n      0x04\n      dup1\n      calldatasize\n      sub\n      dup2\n      add\n      swap1\n      tag_36\n      swap2\n      swap1\n      tag_37\n      jump\t// in\n    tag_36:\n      tag_38\n      jump\t// in\n    tag_35:\n      mload(0x40)\n      tag_39\n      swap2\n      swap1\n      tag_40\n      jump\t// in\n    tag_39:\n      mload(0x40)\n      dup1\n      swap2\n      sub\n      swap1\n      return\n        /* \"contracts/EuclidRandomizer.sol\":2384:2652  function getIntRange(RandomizerState memory self, uint32 minInclusive, uint32 maxExclusive) public pure override returns (RandomizerState memory) {... */\n    tag_12:\n        /* \"contracts/EuclidRandomizer.sol\":2506:2528  RandomizerState memory */\n      tag_41\n      tag_42\n      jump\t// in\n    tag_41:\n        /* \"contracts/EuclidRandomizer.sol\":2541:2559  getNextValue(self) */\n      tag_44\n        /* \"contracts/EuclidRandomizer.sol\":2554:2558  self */\n      dup5\n        /* \"contracts/EuclidRandomizer.sol\":2541:2553  getNextValue */\n      tag_33\n        /* \"contracts/EuclidRandomizer.sol\":2541:2559  getNextValue(self) */\n      jump\t// in\n    tag_44:\n        /* \"contracts/EuclidRandomizer.sol\":2534:2559  self = getNextValue(self) */\n      swap4\n      pop\n        /* \"contracts/EuclidRandomizer.sol\":2619:2631  minInclusive */\n      dup3\n        /* \"contracts/EuclidRandomizer.sol\":2606:2618  maxExclusive */\n      dup3\n        /* \"contracts/EuclidRandomizer.sol\":2606:2631  maxExclusive-minInclusive */\n      tag_45\n      swap2\n      swap1\n      tag_46\n      jump\t// in\n    tag_45:\n        /* \"contracts/EuclidRandomizer.sol\":2592:2596  self */\n      dup5\n        /* \"contracts/EuclidRandomizer.sol\":2592:2602  self.value */\n      0x20\n      add\n      mload\n        /* \"contracts/EuclidRandomizer.sol\":2592:2632  self.value % (maxExclusive-minInclusive) */\n      tag_47\n      swap2\n      swap1\n      tag_48\n      jump\t// in\n    tag_47:\n        /* \"contracts/EuclidRandomizer.sol\":2576:2588  minInclusive */\n      dup4\n        /* \"contracts/EuclidRandomizer.sol\":2576:2633  minInclusive + (self.value % (maxExclusive-minInclusive)) */\n      tag_49\n      swap2\n      swap1\n      tag_50\n      jump\t// in\n    tag_49:\n        /* \"contracts/EuclidRandomizer.sol\":2563:2567  self */\n      dup5\n        /* \"contracts/EuclidRandomizer.sol\":2563:2573  self.value */\n      0x20\n      add\n        /* \"contracts/EuclidRandomizer.sol\":2563:2633  self.value = minInclusive + (self.value % (maxExclusive-minInclusive)) */\n      swap1\n      0xffffffff\n      and\n      swap1\n      dup2\n      0xffffffff\n      and\n      dup2\n      mstore\n      pop\n      pop\n        /* \"contracts/EuclidRandomizer.sol\":2644:2648  self */\n      dup4\n        /* \"contracts/EuclidRandomizer.sol\":2637:2648  return self */\n      swap1\n      pop\n        /* \"contracts/EuclidRandomizer.sol\":2384:2652  function getIntRange(RandomizerState memory self, uint32 minInclusive, uint32 maxExclusive) public pure override returns (RandomizerState memory) {... */\n      swap4\n      swap3\n      pop\n      pop\n      pop\n      jump\t// out\n        /* \"contracts/EuclidRandomizer.sol\":1365:1620  function initialize(uint128 seed) public pure override returns (RandomizerState memory) {... */\n    tag_18:\n        /* \"contracts/EuclidRandomizer.sol\":1429:1451  RandomizerState memory */\n      tag_51\n      tag_42\n      jump\t// in\n    tag_51:\n        /* \"contracts/EuclidRandomizer.sol\":1457:1484  RandomizerState memory self */\n      tag_53\n      tag_42\n      jump\t// in\n    tag_53:\n        /* \"contracts/EuclidRandomizer.sol\":1493:1499  uint i */\n      0x00\n        /* \"contracts/EuclidRandomizer.sol\":1488:1584  for (uint i = 0; i < 4; i++) {... */\n    tag_54:\n        /* \"contracts/EuclidRandomizer.sol\":1509:1510  4 */\n      0x04\n        /* \"contracts/EuclidRandomizer.sol\":1505:1506  i */\n      dup2\n        /* \"contracts/EuclidRandomizer.sol\":1505:1510  i < 4 */\n      lt\n        /* \"contracts/EuclidRandomizer.sol\":1488:1584  for (uint i = 0; i < 4; i++) {... */\n      iszero\n      tag_55\n      jumpi\n        /* \"contracts/EuclidRandomizer.sol\":1567:1577  0xffffffff */\n      0xffffffff\n        /* \"contracts/EuclidRandomizer.sol\":1561:1562  i */\n      dup2\n        /* \"contracts/EuclidRandomizer.sol\":1558:1560  32 */\n      0x20\n        /* \"contracts/EuclidRandomizer.sol\":1558:1562  32*i */\n      tag_57\n      swap2\n      swap1\n      tag_58\n      jump\t// in\n    tag_57:\n        /* \"contracts/EuclidRandomizer.sol\":1549:1553  seed */\n      dup6\n        /* \"contracts/EuclidRandomizer.sol\":1549:1563  seed >> (32*i) */\n      0xffffffffffffffffffffffffffffffff\n      and\n      swap1\n      shr\n        /* \"contracts/EuclidRandomizer.sol\":1548:1577  (seed >> (32*i)) & 0xffffffff */\n      and\n        /* \"contracts/EuclidRandomizer.sol\":1522:1526  self */\n      dup3\n        /* \"contracts/EuclidRandomizer.sol\":1522:1532  self.state */\n      0x00\n      add\n      mload\n        /* \"contracts/EuclidRandomizer.sol\":1535:1536  i */\n      dup3\n        /* \"contracts/EuclidRandomizer.sol\":1533:1534  3 */\n      0x03\n        /* \"contracts/EuclidRandomizer.sol\":1533:1536  3-i */\n      tag_59\n      swap2\n      swap1\n      tag_60\n      jump\t// in\n    tag_59:\n        /* \"contracts/EuclidRandomizer.sol\":1522:1537  self.state[3-i] */\n      0x04\n      dup2\n      lt\n      tag_61\n      jumpi\n      tag_62\n      tag_63\n      jump\t// in\n    tag_62:\n    tag_61:\n      0x20\n      mul\n      add\n        /* \"contracts/EuclidRandomizer.sol\":1522:1579  self.state[3-i] = uint32( (seed >> (32*i)) & 0xffffffff ) */\n      swap1\n      0xffffffff\n      and\n      swap1\n      dup2\n      0xffffffff\n      and\n      dup2\n      mstore\n      pop\n      pop\n        /* \"contracts/EuclidRandomizer.sol\":1512:1515  i++ */\n      dup1\n      dup1\n      tag_64\n      swap1\n      tag_65\n      jump\t// in\n    tag_64:\n      swap2\n      pop\n      pop\n        /* \"contracts/EuclidRandomizer.sol\":1488:1584  for (uint i = 0; i < 4; i++) {... */\n      jump(tag_54)\n    tag_55:\n      pop\n        /* \"contracts/EuclidRandomizer.sol\":1600:1601  0 */\n      0x00\n        /* \"contracts/EuclidRandomizer.sol\":1587:1591  self */\n      dup2\n        /* \"contracts/EuclidRandomizer.sol\":1587:1597  self.value */\n      0x20\n      add\n        /* \"contracts/EuclidRandomizer.sol\":1587:1601  self.value = 0 */\n      swap1\n      0xffffffff\n      and\n      swap1\n      dup2\n      0xffffffff\n      and\n      dup2\n      mstore\n      pop\n      pop\n        /* \"contracts/EuclidRandomizer.sol\":1612:1616  self */\n      dup1\n        /* \"contracts/EuclidRandomizer.sol\":1605:1616  return self */\n      swap2\n      pop\n      pop\n        /* \"contracts/EuclidRandomizer.sol\":1365:1620  function initialize(uint128 seed) public pure override returns (RandomizerState memory) {... */\n      swap2\n      swap1\n      pop\n      jump\t// out\n        /* \"contracts/EuclidRandomizer.sol\":2172:2382  function getInt(RandomizerState memory self, uint32 maxExclusive) public pure override returns (RandomizerState memory) {... */\n    tag_23:\n        /* \"contracts/EuclidRandomizer.sol\":2268:2290  RandomizerState memory */\n      tag_66\n      tag_42\n      jump\t// in\n    tag_66:\n        /* \"contracts/EuclidRandomizer.sol\":2303:2321  getNextValue(self) */\n      tag_68\n        /* \"contracts/EuclidRandomizer.sol\":2316:2320  self */\n      dup4\n        /* \"contracts/EuclidRandomizer.sol\":2303:2315  getNextValue */\n      tag_33\n        /* \"contracts/EuclidRandomizer.sol\":2303:2321  getNextValue(self) */\n      jump\t// in\n    tag_68:\n        /* \"contracts/EuclidRandomizer.sol\":2296:2321  self = getNextValue(self) */\n      swap3\n      pop\n        /* \"contracts/EuclidRandomizer.sol\":2351:2363  maxExclusive */\n      dup2\n        /* \"contracts/EuclidRandomizer.sol\":2338:2342  self */\n      dup4\n        /* \"contracts/EuclidRandomizer.sol\":2338:2348  self.value */\n      0x20\n      add\n      mload\n        /* \"contracts/EuclidRandomizer.sol\":2338:2363  self.value % maxExclusive */\n      tag_69\n      swap2\n      swap1\n      tag_48\n      jump\t// in\n    tag_69:\n        /* \"contracts/EuclidRandomizer.sol\":2325:2329  self */\n      dup4\n        /* \"contracts/EuclidRandomizer.sol\":2325:2335  self.value */\n      0x20\n      add\n        /* \"contracts/EuclidRandomizer.sol\":2325:2363  self.value = self.value % maxExclusive */\n      swap1\n      0xffffffff\n      and\n      swap1\n      dup2\n      0xffffffff\n      and\n      dup2\n      mstore\n      pop\n      pop\n        /* \"contracts/EuclidRandomizer.sol\":2374:2378  self */\n      dup3\n        /* \"contracts/EuclidRandomizer.sol\":2367:2378  return self */\n      swap1\n      pop\n        /* \"contracts/EuclidRandomizer.sol\":2172:2382  function getInt(RandomizerState memory self, uint32 maxExclusive) public pure override returns (RandomizerState memory) {... */\n      swap3\n      swap2\n      pop\n      pop\n      jump\t// out\n        /* \"contracts/EuclidRandomizer.sol\":1622:1750  function initialize(bytes16 seed) public pure override returns (RandomizerState memory) {... */\n    tag_28:\n        /* \"contracts/EuclidRandomizer.sol\":1686:1708  RandomizerState memory */\n      tag_70\n      tag_42\n      jump\t// in\n    tag_70:\n        /* \"contracts/EuclidRandomizer.sol\":1721:1746  initialize(uint128(seed)) */\n      tag_72\n        /* \"contracts/EuclidRandomizer.sol\":1740:1744  seed */\n      dup3\n        /* \"contracts/EuclidRandomizer.sol\":1732:1745  uint128(seed) */\n      0x80\n      shr\n        /* \"contracts/EuclidRandomizer.sol\":1721:1731  initialize */\n      tag_18\n        /* \"contracts/EuclidRandomizer.sol\":1721:1746  initialize(uint128(seed)) */\n      jump\t// in\n    tag_72:\n        /* \"contracts/EuclidRandomizer.sol\":1714:1746  return initialize(uint128(seed)) */\n      swap1\n      pop\n        /* \"contracts/EuclidRandomizer.sol\":1622:1750  function initialize(bytes16 seed) public pure override returns (RandomizerState memory) {... */\n      swap2\n      swap1\n      pop\n      jump\t// out\n        /* \"contracts/EuclidRandomizer.sol\":1810:2170  function getNextValue(RandomizerState memory self) public pure override returns (RandomizerState memory) {... */\n    tag_33:\n        /* \"contracts/EuclidRandomizer.sol\":1891:1913  RandomizerState memory */\n      tag_73\n      tag_42\n      jump\t// in\n    tag_73:\n        /* \"contracts/EuclidRandomizer.sol\":1919:1927  uint32 t */\n      0x00\n        /* \"contracts/EuclidRandomizer.sol\":1930:1934  self */\n      dup3\n        /* \"contracts/EuclidRandomizer.sol\":1930:1940  self.state */\n      0x00\n      add\n      mload\n        /* \"contracts/EuclidRandomizer.sol\":1941:1942  3 */\n      0x03\n        /* \"contracts/EuclidRandomizer.sol\":1930:1943  self.state[3] */\n      0x04\n      dup2\n      lt\n      tag_75\n      jumpi\n      tag_76\n      tag_63\n      jump\t// in\n    tag_76:\n    tag_75:\n      0x20\n      mul\n      add\n      mload\n        /* \"contracts/EuclidRandomizer.sol\":1919:1943  uint32 t = self.state[3] */\n      swap1\n      pop\n        /* \"contracts/EuclidRandomizer.sol\":1963:1967  self */\n      dup3\n        /* \"contracts/EuclidRandomizer.sol\":1963:1973  self.state */\n      0x00\n      add\n      mload\n        /* \"contracts/EuclidRandomizer.sol\":1974:1975  2 */\n      0x02\n        /* \"contracts/EuclidRandomizer.sol\":1963:1976  self.state[2] */\n      0x04\n      dup2\n      lt\n      tag_77\n      jumpi\n      tag_78\n      tag_63\n      jump\t// in\n    tag_78:\n    tag_77:\n      0x20\n      mul\n      add\n      mload\n        /* \"contracts/EuclidRandomizer.sol\":1947:1951  self */\n      dup4\n        /* \"contracts/EuclidRandomizer.sol\":1947:1957  self.state */\n      0x00\n      add\n      mload\n        /* \"contracts/EuclidRandomizer.sol\":1958:1959  3 */\n      0x03\n        /* \"contracts/EuclidRandomizer.sol\":1947:1960  self.state[3] */\n      0x04\n      dup2\n      lt\n      tag_79\n      jumpi\n      tag_80\n      tag_63\n      jump\t// in\n    tag_80:\n    tag_79:\n      0x20\n      mul\n      add\n        /* \"contracts/EuclidRandomizer.sol\":1947:1976  self.state[3] = self.state[2] */\n      swap1\n      0xffffffff\n      and\n      swap1\n      dup2\n      0xffffffff\n      and\n      dup2\n      mstore\n      pop\n      pop\n        /* \"contracts/EuclidRandomizer.sol\":1996:2000  self */\n      dup3\n        /* \"contracts/EuclidRandomizer.sol\":1996:2006  self.state */\n      0x00\n      add\n      mload\n        /* \"contracts/EuclidRandomizer.sol\":2007:2008  1 */\n      0x01\n        /* \"contracts/EuclidRandomizer.sol\":1996:2009  self.state[1] */\n      0x04\n      dup2\n      lt\n      tag_81\n      jumpi\n      tag_82\n      tag_63\n      jump\t// in\n    tag_82:\n    tag_81:\n      0x20\n      mul\n      add\n      mload\n        /* \"contracts/EuclidRandomizer.sol\":1980:1984  self */\n      dup4\n        /* \"contracts/EuclidRandomizer.sol\":1980:1990  self.state */\n      0x00\n      add\n      mload\n        /* \"contracts/EuclidRandomizer.sol\":1991:1992  2 */\n      0x02\n        /* \"contracts/EuclidRandomizer.sol\":1980:1993  self.state[2] */\n      0x04\n      dup2\n      lt\n      tag_83\n      jumpi\n      tag_84\n      tag_63\n      jump\t// in\n    tag_84:\n    tag_83:\n      0x20\n      mul\n      add\n        /* \"contracts/EuclidRandomizer.sol\":1980:2009  self.state[2] = self.state[1] */\n      swap1\n      0xffffffff\n      and\n      swap1\n      dup2\n      0xffffffff\n      and\n      dup2\n      mstore\n      pop\n      pop\n        /* \"contracts/EuclidRandomizer.sol\":2029:2033  self */\n      dup3\n        /* \"contracts/EuclidRandomizer.sol\":2029:2039  self.state */\n      0x00\n      add\n      mload\n        /* \"contracts/EuclidRandomizer.sol\":2040:2041  0 */\n      0x00\n        /* \"contracts/EuclidRandomizer.sol\":2029:2042  self.state[0] */\n      0x04\n      dup2\n      lt\n      tag_85\n      jumpi\n      tag_86\n      tag_63\n      jump\t// in\n    tag_86:\n    tag_85:\n      0x20\n      mul\n      add\n      mload\n        /* \"contracts/EuclidRandomizer.sol\":2013:2017  self */\n      dup4\n        /* \"contracts/EuclidRandomizer.sol\":2013:2023  self.state */\n      0x00\n      add\n      mload\n        /* \"contracts/EuclidRandomizer.sol\":2024:2025  1 */\n      0x01\n        /* \"contracts/EuclidRandomizer.sol\":2013:2026  self.state[1] */\n      0x04\n      dup2\n      lt\n      tag_87\n      jumpi\n      tag_88\n      tag_63\n      jump\t// in\n    tag_88:\n    tag_87:\n      0x20\n      mul\n      add\n        /* \"contracts/EuclidRandomizer.sol\":2013:2042  self.state[1] = self.state[0] */\n      swap1\n      0xffffffff\n      and\n      swap1\n      dup2\n      0xffffffff\n      and\n      dup2\n      mstore\n      pop\n      pop\n        /* \"contracts/EuclidRandomizer.sol\":2046:2054  uint32 s */\n      0x00\n        /* \"contracts/EuclidRandomizer.sol\":2057:2061  self */\n      dup4\n        /* \"contracts/EuclidRandomizer.sol\":2057:2067  self.state */\n      0x00\n      add\n      mload\n        /* \"contracts/EuclidRandomizer.sol\":2068:2069  0 */\n      0x00\n        /* \"contracts/EuclidRandomizer.sol\":2057:2070  self.state[0] */\n      0x04\n      dup2\n      lt\n      tag_89\n      jumpi\n      tag_90\n      tag_63\n      jump\t// in\n    tag_90:\n    tag_89:\n      0x20\n      mul\n      add\n      mload\n        /* \"contracts/EuclidRandomizer.sol\":2046:2070  uint32 s = self.state[0] */\n      swap1\n      pop\n        /* \"contracts/EuclidRandomizer.sol\":2084:2086  11 */\n      0x0b\n        /* \"contracts/EuclidRandomizer.sol\":2079:2080  t */\n      dup3\n        /* \"contracts/EuclidRandomizer.sol\":2079:2086  t << 11 */\n      0xffffffff\n      and\n      swap1\n      shl\n        /* \"contracts/EuclidRandomizer.sol\":2074:2086  t ^= t << 11 */\n      dup3\n      xor\n      swap2\n      pop\n        /* \"contracts/EuclidRandomizer.sol\":2100:2101  8 */\n      0x08\n        /* \"contracts/EuclidRandomizer.sol\":2095:2096  t */\n      dup3\n        /* \"contracts/EuclidRandomizer.sol\":2095:2101  t >> 8 */\n      0xffffffff\n      and\n      swap1\n      shr\n        /* \"contracts/EuclidRandomizer.sol\":2090:2101  t ^= t >> 8 */\n      dup3\n      xor\n      swap2\n      pop\n        /* \"contracts/EuclidRandomizer.sol\":2148:2150  19 */\n      0x13\n        /* \"contracts/EuclidRandomizer.sol\":2143:2144  s */\n      dup2\n        /* \"contracts/EuclidRandomizer.sol\":2143:2150  s >> 19 */\n      0xffffffff\n      and\n      swap1\n      shr\n        /* \"contracts/EuclidRandomizer.sol\":2138:2139  s */\n      dup2\n        /* \"contracts/EuclidRandomizer.sol\":2134:2135  t */\n      dup4\n        /* \"contracts/EuclidRandomizer.sol\":2134:2139  t ^ s */\n      xor\n        /* \"contracts/EuclidRandomizer.sol\":2134:2151  t ^ s ^ (s >> 19) */\n      xor\n        /* \"contracts/EuclidRandomizer.sol\":2118:2122  self */\n      dup5\n        /* \"contracts/EuclidRandomizer.sol\":2118:2128  self.state */\n      0x00\n      add\n      mload\n        /* \"contracts/EuclidRandomizer.sol\":2129:2130  0 */\n      0x00\n        /* \"contracts/EuclidRandomizer.sol\":2118:2131  self.state[0] */\n      0x04\n      dup2\n      lt\n      tag_91\n      jumpi\n      tag_92\n      tag_63\n      jump\t// in\n    tag_92:\n    tag_91:\n      0x20\n      mul\n      add\n        /* \"contracts/EuclidRandomizer.sol\":2118:2151  self.state[0] = t ^ s ^ (s >> 19) */\n      swap1\n      0xffffffff\n      and\n      swap1\n      dup2\n      0xffffffff\n      and\n      dup2\n      mstore\n      pop\n        /* \"contracts/EuclidRandomizer.sol\":2105:2109  self */\n      dup5\n        /* \"contracts/EuclidRandomizer.sol\":2105:2115  self.value */\n      0x20\n      add\n        /* \"contracts/EuclidRandomizer.sol\":2105:2151  self.value = self.state[0] = t ^ s ^ (s >> 19) */\n      swap1\n      0xffffffff\n      and\n      swap1\n      dup2\n      0xffffffff\n      and\n      dup2\n      mstore\n      pop\n      pop\n        /* \"contracts/EuclidRandomizer.sol\":2162:2166  self */\n      dup4\n        /* \"contracts/EuclidRandomizer.sol\":2155:2166  return self */\n      swap3\n      pop\n      pop\n      pop\n        /* \"contracts/EuclidRandomizer.sol\":1810:2170  function getNextValue(RandomizerState memory self) public pure override returns (RandomizerState memory) {... */\n      swap2\n      swap1\n      pop\n      jump\t// out\n        /* \"contracts/EuclidRandomizer.sol\":1073:1363  function makeSeed(address contractAddress, address senderAddress, uint blockNumber, uint256 tokenNumber) public view override returns (uint128) {... */\n    tag_38:\n        /* \"contracts/EuclidRandomizer.sol\":1208:1215  uint128 */\n      0x00\n        /* \"contracts/EuclidRandomizer.sol\":1293:1295  11 */\n      0x0b\n        /* \"contracts/EuclidRandomizer.sol\":1281:1292  blockNumber */\n      dup4\n        /* \"contracts/EuclidRandomizer.sol\":1281:1295  blockNumber-11 */\n      tag_94\n      swap2\n      swap1\n      tag_60\n      jump\t// in\n    tag_94:\n        /* \"contracts/EuclidRandomizer.sol\":1271:1296  blockhash(blockNumber-11) */\n      blockhash\n        /* \"contracts/EuclidRandomizer.sol\":1298:1313  contractAddress */\n      dup6\n        /* \"contracts/EuclidRandomizer.sol\":1315:1328  senderAddress */\n      dup6\n        /* \"contracts/EuclidRandomizer.sol\":1330:1341  tokenNumber */\n      dup5\n        /* \"contracts/EuclidRandomizer.sol\":1254:1356  abi.encodePacked(blockhash(blockNumber-11), contractAddress, senderAddress, tokenNumber, \"ba-dum-tss\") */\n      add(0x20, mload(0x40))\n      tag_95\n      swap5\n      swap4\n      swap3\n      swap2\n      swap1\n      tag_96\n      jump\t// in\n    tag_95:\n      mload(0x40)\n      0x20\n      dup2\n      dup4\n      sub\n      sub\n      dup2\n      mstore\n      swap1\n      0x40\n      mstore\n        /* \"contracts/EuclidRandomizer.sol\":1244:1357  keccak256(abi.encodePacked(blockhash(blockNumber-11), contractAddress, senderAddress, tokenNumber, \"ba-dum-tss\")) */\n      dup1\n      mload\n      swap1\n      0x20\n      add\n      keccak256\n        /* \"contracts/EuclidRandomizer.sol\":1228:1359  uint128(bytes16(keccak256(abi.encodePacked(blockhash(blockNumber-11), contractAddress, senderAddress, tokenNumber, \"ba-dum-tss\")))) */\n      0x80\n      shr\n        /* \"contracts/EuclidRandomizer.sol\":1221:1359  return uint128(bytes16(keccak256(abi.encodePacked(blockhash(blockNumber-11), contractAddress, senderAddress, tokenNumber, \"ba-dum-tss\")))) */\n      swap1\n      pop\n        /* \"contracts/EuclidRandomizer.sol\":1073:1363  function makeSeed(address contractAddress, address senderAddress, uint blockNumber, uint256 tokenNumber) public view override returns (uint128) {... */\n      swap5\n      swap4\n      pop\n      pop\n      pop\n      pop\n      jump\t// out\n    tag_42:\n      mload(0x40)\n      dup1\n      0x40\n      add\n      0x40\n      mstore\n      dup1\n      tag_97\n      tag_98\n      jump\t// in\n    tag_97:\n      dup2\n      mstore\n      0x20\n      add\n      and(0xffffffff, 0x00)\n      dup2\n      mstore\n      pop\n      swap1\n      jump\t// out\n    tag_98:\n      mload(0x40)\n      dup1\n      0x80\n      add\n      0x40\n      mstore\n      dup1\n      0x04\n      swap1\n      0x20\n      dup3\n      mul\n      dup1\n      calldatasize\n      dup4\n      calldatacopy\n      dup1\n      dup3\n      add\n      swap2\n      pop\n      pop\n      swap1\n      pop\n      pop\n      swap1\n      jump\t// out\n        /* \"#utility.yul\":7:82   */\n    tag_99:\n        /* \"#utility.yul\":40:46   */\n      0x00\n        /* \"#utility.yul\":73:75   */\n      0x40\n        /* \"#utility.yul\":67:76   */\n      mload\n        /* \"#utility.yul\":57:76   */\n      swap1\n      pop\n        /* \"#utility.yul\":7:82   */\n      swap1\n      jump\t// out\n        /* \"#utility.yul\":88:205   */\n    tag_100:\n        /* \"#utility.yul\":197:198   */\n      0x00\n        /* \"#utility.yul\":194:195   */\n      dup1\n        /* \"#utility.yul\":187:199   */\n      revert\n        /* \"#utility.yul\":334:451   */\n    tag_102:\n        /* \"#utility.yul\":443:444   */\n      0x00\n        /* \"#utility.yul\":440:441   */\n      dup1\n        /* \"#utility.yul\":433:445   */\n      revert\n        /* \"#utility.yul\":457:559   */\n    tag_103:\n        /* \"#utility.yul\":498:504   */\n      0x00\n        /* \"#utility.yul\":549:551   */\n      0x1f\n        /* \"#utility.yul\":545:552   */\n      not\n        /* \"#utility.yul\":540:542   */\n      0x1f\n        /* \"#utility.yul\":533:538   */\n      dup4\n        /* \"#utility.yul\":529:543   */\n      add\n        /* \"#utility.yul\":525:553   */\n      and\n        /* \"#utility.yul\":515:553   */\n      swap1\n      pop\n        /* \"#utility.yul\":457:559   */\n      swap2\n      swap1\n      pop\n      jump\t// out\n        /* \"#utility.yul\":565:745   */\n    tag_104:\n        /* \"#utility.yul\":613:690   */\n      0x4e487b7100000000000000000000000000000000000000000000000000000000\n        /* \"#utility.yul\":610:611   */\n      0x00\n        /* \"#utility.yul\":603:691   */\n      mstore\n        /* \"#utility.yul\":710:714   */\n      0x41\n        /* \"#utility.yul\":707:708   */\n      0x04\n        /* \"#utility.yul\":700:715   */\n      mstore\n        /* \"#utility.yul\":734:738   */\n      0x24\n        /* \"#utility.yul\":731:732   */\n      0x00\n        /* \"#utility.yul\":724:739   */\n      revert\n        /* \"#utility.yul\":751:1032   */\n    tag_105:\n        /* \"#utility.yul\":834:861   */\n      tag_161\n        /* \"#utility.yul\":856:860   */\n      dup3\n        /* \"#utility.yul\":834:861   */\n      tag_103\n      jump\t// in\n    tag_161:\n        /* \"#utility.yul\":826:832   */\n      dup2\n        /* \"#utility.yul\":822:862   */\n      add\n        /* \"#utility.yul\":964:970   */\n      dup2\n        /* \"#utility.yul\":952:962   */\n      dup2\n        /* \"#utility.yul\":949:971   */\n      lt\n        /* \"#utility.yul\":928:946   */\n      0xffffffffffffffff\n        /* \"#utility.yul\":916:926   */\n      dup3\n        /* \"#utility.yul\":913:947   */\n      gt\n        /* \"#utility.yul\":910:972   */\n      or\n        /* \"#utility.yul\":907:995   */\n      iszero\n      tag_162\n      jumpi\n        /* \"#utility.yul\":975:993   */\n      tag_163\n      tag_104\n      jump\t// in\n    tag_163:\n        /* \"#utility.yul\":907:995   */\n    tag_162:\n        /* \"#utility.yul\":1015:1025   */\n      dup1\n        /* \"#utility.yul\":1011:1013   */\n      0x40\n        /* \"#utility.yul\":1004:1026   */\n      mstore\n        /* \"#utility.yul\":794:1032   */\n      pop\n        /* \"#utility.yul\":751:1032   */\n      pop\n      pop\n      jump\t// out\n        /* \"#utility.yul\":1038:1167   */\n    tag_106:\n        /* \"#utility.yul\":1072:1078   */\n      0x00\n        /* \"#utility.yul\":1099:1119   */\n      tag_165\n      tag_99\n      jump\t// in\n    tag_165:\n        /* \"#utility.yul\":1089:1119   */\n      swap1\n      pop\n        /* \"#utility.yul\":1128:1161   */\n      tag_166\n        /* \"#utility.yul\":1156:1160   */\n      dup3\n        /* \"#utility.yul\":1148:1154   */\n      dup3\n        /* \"#utility.yul\":1128:1161   */\n      tag_105\n      jump\t// in\n    tag_166:\n        /* \"#utility.yul\":1038:1167   */\n      swap2\n      swap1\n      pop\n      jump\t// out\n        /* \"#utility.yul\":1296:1413   */\n    tag_108:\n        /* \"#utility.yul\":1405:1406   */\n      0x00\n        /* \"#utility.yul\":1402:1403   */\n      dup1\n        /* \"#utility.yul\":1395:1407   */\n      revert\n        /* \"#utility.yul\":1419:1667   */\n    tag_109:\n        /* \"#utility.yul\":1493:1497   */\n      0x00\n        /* \"#utility.yul\":1583:1601   */\n      0xffffffffffffffff\n        /* \"#utility.yul\":1575:1581   */\n      dup3\n        /* \"#utility.yul\":1572:1602   */\n      gt\n        /* \"#utility.yul\":1569:1625   */\n      iszero\n      tag_170\n      jumpi\n        /* \"#utility.yul\":1605:1623   */\n      tag_171\n      tag_104\n      jump\t// in\n    tag_171:\n        /* \"#utility.yul\":1569:1625   */\n    tag_170:\n        /* \"#utility.yul\":1655:1659   */\n      0x20\n        /* \"#utility.yul\":1647:1653   */\n      dup3\n        /* \"#utility.yul\":1643:1660   */\n      mul\n        /* \"#utility.yul\":1635:1660   */\n      swap1\n      pop\n        /* \"#utility.yul\":1419:1667   */\n      swap2\n      swap1\n      pop\n      jump\t// out\n        /* \"#utility.yul\":1673:1790   */\n    tag_110:\n        /* \"#utility.yul\":1782:1783   */\n      0x00\n        /* \"#utility.yul\":1779:1780   */\n      dup1\n        /* \"#utility.yul\":1772:1784   */\n      revert\n        /* \"#utility.yul\":1796:1889   */\n    tag_111:\n        /* \"#utility.yul\":1832:1839   */\n      0x00\n        /* \"#utility.yul\":1872:1882   */\n      0xffffffff\n        /* \"#utility.yul\":1865:1870   */\n      dup3\n        /* \"#utility.yul\":1861:1883   */\n      and\n        /* \"#utility.yul\":1850:1883   */\n      swap1\n      pop\n        /* \"#utility.yul\":1796:1889   */\n      swap2\n      swap1\n      pop\n      jump\t// out\n        /* \"#utility.yul\":1895:2015   */\n    tag_112:\n        /* \"#utility.yul\":1967:1990   */\n      tag_175\n        /* \"#utility.yul\":1984:1989   */\n      dup2\n        /* \"#utility.yul\":1967:1990   */\n      tag_111\n      jump\t// in\n    tag_175:\n        /* \"#utility.yul\":1960:1965   */\n      dup2\n        /* \"#utility.yul\":1957:1991   */\n      eq\n        /* \"#utility.yul\":1947:2009   */\n      tag_176\n      jumpi\n        /* \"#utility.yul\":2005:2006   */\n      0x00\n        /* \"#utility.yul\":2002:2003   */\n      dup1\n        /* \"#utility.yul\":1995:2007   */\n      revert\n        /* \"#utility.yul\":1947:2009   */\n    tag_176:\n        /* \"#utility.yul\":1895:2015   */\n      pop\n      jump\t// out\n        /* \"#utility.yul\":2021:2158   */\n    tag_113:\n        /* \"#utility.yul\":2066:2071   */\n      0x00\n        /* \"#utility.yul\":2104:2110   */\n      dup2\n        /* \"#utility.yul\":2091:2111   */\n      calldataload\n        /* \"#utility.yul\":2082:2111   */\n      swap1\n      pop\n        /* \"#utility.yul\":2120:2152   */\n      tag_178\n        /* \"#utility.yul\":2146:2151   */\n      dup2\n        /* \"#utility.yul\":2120:2152   */\n      tag_112\n      jump\t// in\n    tag_178:\n        /* \"#utility.yul\":2021:2158   */\n      swap3\n      swap2\n      pop\n      pop\n      jump\t// out\n        /* \"#utility.yul\":2181:2821   */\n    tag_114:\n        /* \"#utility.yul\":2274:2279   */\n      0x00\n        /* \"#utility.yul\":2299:2377   */\n      tag_180\n        /* \"#utility.yul\":2315:2376   */\n      tag_181\n        /* \"#utility.yul\":2369:2375   */\n      dup5\n        /* \"#utility.yul\":2315:2376   */\n      tag_109\n      jump\t// in\n    tag_181:\n        /* \"#utility.yul\":2299:2377   */\n      tag_106\n      jump\t// in\n    tag_180:\n        /* \"#utility.yul\":2290:2377   */\n      swap1\n      pop\n        /* \"#utility.yul\":2397:2402   */\n      dup1\n        /* \"#utility.yul\":2450:2454   */\n      0x20\n        /* \"#utility.yul\":2442:2448   */\n      dup5\n        /* \"#utility.yul\":2438:2455   */\n      mul\n        /* \"#utility.yul\":2430:2436   */\n      dup4\n        /* \"#utility.yul\":2426:2456   */\n      add\n        /* \"#utility.yul\":2479:2482   */\n      dup6\n        /* \"#utility.yul\":2471:2477   */\n      dup2\n        /* \"#utility.yul\":2468:2483   */\n      gt\n        /* \"#utility.yul\":2465:2587   */\n      iszero\n      tag_182\n      jumpi\n        /* \"#utility.yul\":2498:2577   */\n      tag_183\n      tag_110\n      jump\t// in\n    tag_183:\n        /* \"#utility.yul\":2465:2587   */\n    tag_182:\n        /* \"#utility.yul\":2613:2619   */\n      dup4\n        /* \"#utility.yul\":2596:2815   */\n    tag_184:\n        /* \"#utility.yul\":2630:2636   */\n      dup2\n        /* \"#utility.yul\":2625:2628   */\n      dup2\n        /* \"#utility.yul\":2622:2637   */\n      lt\n        /* \"#utility.yul\":2596:2815   */\n      iszero\n      tag_186\n      jumpi\n        /* \"#utility.yul\":2705:2708   */\n      dup1\n        /* \"#utility.yul\":2734:2770   */\n      tag_187\n        /* \"#utility.yul\":2766:2769   */\n      dup9\n        /* \"#utility.yul\":2754:2764   */\n      dup3\n        /* \"#utility.yul\":2734:2770   */\n      tag_113\n      jump\t// in\n    tag_187:\n        /* \"#utility.yul\":2729:2732   */\n      dup5\n        /* \"#utility.yul\":2722:2771   */\n      mstore\n        /* \"#utility.yul\":2800:2804   */\n      0x20\n        /* \"#utility.yul\":2795:2798   */\n      dup5\n        /* \"#utility.yul\":2791:2805   */\n      add\n        /* \"#utility.yul\":2784:2805   */\n      swap4\n      pop\n        /* \"#utility.yul\":2672:2815   */\n      pop\n        /* \"#utility.yul\":2656:2660   */\n      0x20\n        /* \"#utility.yul\":2651:2654   */\n      dup2\n        /* \"#utility.yul\":2647:2661   */\n      add\n        /* \"#utility.yul\":2640:2661   */\n      swap1\n      pop\n        /* \"#utility.yul\":2596:2815   */\n      jump(tag_184)\n    tag_186:\n        /* \"#utility.yul\":2600:2621   */\n      pop\n        /* \"#utility.yul\":2280:2821   */\n      pop\n      pop\n        /* \"#utility.yul\":2181:2821   */\n      swap4\n      swap3\n      pop\n      pop\n      pop\n      jump\t// out\n        /* \"#utility.yul\":2844:3181   */\n    tag_115:\n        /* \"#utility.yul\":2912:2917   */\n      0x00\n        /* \"#utility.yul\":2961:2964   */\n      dup3\n        /* \"#utility.yul\":2954:2958   */\n      0x1f\n        /* \"#utility.yul\":2946:2952   */\n      dup4\n        /* \"#utility.yul\":2942:2959   */\n      add\n        /* \"#utility.yul\":2938:2965   */\n      slt\n        /* \"#utility.yul\":2928:3050   */\n      tag_189\n      jumpi\n        /* \"#utility.yul\":2969:3048   */\n      tag_190\n      tag_108\n      jump\t// in\n    tag_190:\n        /* \"#utility.yul\":2928:3050   */\n    tag_189:\n        /* \"#utility.yul\":3073:3077   */\n      0x04\n        /* \"#utility.yul\":3095:3175   */\n      tag_191\n        /* \"#utility.yul\":3171:3174   */\n      dup5\n        /* \"#utility.yul\":3163:3169   */\n      dup3\n        /* \"#utility.yul\":3155:3161   */\n      dup6\n        /* \"#utility.yul\":3095:3175   */\n      tag_114\n      jump\t// in\n    tag_191:\n        /* \"#utility.yul\":3086:3175   */\n      swap2\n      pop\n        /* \"#utility.yul\":2918:3181   */\n      pop\n        /* \"#utility.yul\":2844:3181   */\n      swap3\n      swap2\n      pop\n      pop\n      jump\t// out\n        /* \"#utility.yul\":3235:3840   */\n    tag_116:\n        /* \"#utility.yul\":3316:3321   */\n      0x00\n        /* \"#utility.yul\":3360:3364   */\n      0xa0\n        /* \"#utility.yul\":3348:3357   */\n      dup3\n        /* \"#utility.yul\":3343:3346   */\n      dup5\n        /* \"#utility.yul\":3339:3358   */\n      sub\n        /* \"#utility.yul\":3335:3365   */\n      slt\n        /* \"#utility.yul\":3332:3449   */\n      iszero\n      tag_193\n      jumpi\n        /* \"#utility.yul\":3368:3447   */\n      tag_194\n      tag_102\n      jump\t// in\n    tag_194:\n        /* \"#utility.yul\":3332:3449   */\n    tag_193:\n        /* \"#utility.yul\":3467:3488   */\n      tag_195\n        /* \"#utility.yul\":3483:3487   */\n      0x40\n        /* \"#utility.yul\":3467:3488   */\n      tag_106\n      jump\t// in\n    tag_195:\n        /* \"#utility.yul\":3458:3488   */\n      swap1\n      pop\n        /* \"#utility.yul\":3548:3549   */\n      0x00\n        /* \"#utility.yul\":3588:3659   */\n      tag_196\n        /* \"#utility.yul\":3655:3658   */\n      dup5\n        /* \"#utility.yul\":3646:3652   */\n      dup3\n        /* \"#utility.yul\":3635:3644   */\n      dup6\n        /* \"#utility.yul\":3631:3653   */\n      add\n        /* \"#utility.yul\":3588:3659   */\n      tag_115\n      jump\t// in\n    tag_196:\n        /* \"#utility.yul\":3581:3585   */\n      0x00\n        /* \"#utility.yul\":3574:3579   */\n      dup4\n        /* \"#utility.yul\":3570:3586   */\n      add\n        /* \"#utility.yul\":3563:3660   */\n      mstore\n        /* \"#utility.yul\":3498:3671   */\n      pop\n        /* \"#utility.yul\":3731:3734   */\n      0x80\n        /* \"#utility.yul\":3773:3821   */\n      tag_197\n        /* \"#utility.yul\":3817:3820   */\n      dup5\n        /* \"#utility.yul\":3808:3814   */\n      dup3\n        /* \"#utility.yul\":3797:3806   */\n      dup6\n        /* \"#utility.yul\":3793:3815   */\n      add\n        /* \"#utility.yul\":3773:3821   */\n      tag_113\n      jump\t// in\n    tag_197:\n        /* \"#utility.yul\":3766:3770   */\n      0x20\n        /* \"#utility.yul\":3759:3764   */\n      dup4\n        /* \"#utility.yul\":3755:3771   */\n      add\n        /* \"#utility.yul\":3748:3822   */\n      mstore\n        /* \"#utility.yul\":3681:3833   */\n      pop\n        /* \"#utility.yul\":3235:3840   */\n      swap3\n      swap2\n      pop\n      pop\n      jump\t// out\n        /* \"#utility.yul\":3846:4528   */\n    tag_11:\n        /* \"#utility.yul\":3953:3959   */\n      0x00\n        /* \"#utility.yul\":3961:3967   */\n      dup1\n        /* \"#utility.yul\":3969:3975   */\n      0x00\n        /* \"#utility.yul\":4018:4021   */\n      0xe0\n        /* \"#utility.yul\":4006:4015   */\n      dup5\n        /* \"#utility.yul\":3997:4004   */\n      dup7\n        /* \"#utility.yul\":3993:4016   */\n      sub\n        /* \"#utility.yul\":3989:4022   */\n      slt\n        /* \"#utility.yul\":3986:4106   */\n      iszero\n      tag_199\n      jumpi\n        /* \"#utility.yul\":4025:4104   */\n      tag_200\n      tag_100\n      jump\t// in\n    tag_200:\n        /* \"#utility.yul\":3986:4106   */\n    tag_199:\n        /* \"#utility.yul\":4145:4146   */\n      0x00\n        /* \"#utility.yul\":4170:4255   */\n      tag_201\n        /* \"#utility.yul\":4247:4254   */\n      dup7\n        /* \"#utility.yul\":4238:4244   */\n      dup3\n        /* \"#utility.yul\":4227:4236   */\n      dup8\n        /* \"#utility.yul\":4223:4245   */\n      add\n        /* \"#utility.yul\":4170:4255   */\n      tag_116\n      jump\t// in\n    tag_201:\n        /* \"#utility.yul\":4160:4255   */\n      swap4\n      pop\n        /* \"#utility.yul\":4116:4265   */\n      pop\n        /* \"#utility.yul\":4304:4307   */\n      0xa0\n        /* \"#utility.yul\":4331:4383   */\n      tag_202\n        /* \"#utility.yul\":4375:4382   */\n      dup7\n        /* \"#utility.yul\":4366:4372   */\n      dup3\n        /* \"#utility.yul\":4355:4364   */\n      dup8\n        /* \"#utility.yul\":4351:4373   */\n      add\n        /* \"#utility.yul\":4331:4383   */\n      tag_113\n      jump\t// in\n    tag_202:\n        /* \"#utility.yul\":4321:4383   */\n      swap3\n      pop\n        /* \"#utility.yul\":4275:4393   */\n      pop\n        /* \"#utility.yul\":4432:4435   */\n      0xc0\n        /* \"#utility.yul\":4459:4511   */\n      tag_203\n        /* \"#utility.yul\":4503:4510   */\n      dup7\n        /* \"#utility.yul\":4494:4500   */\n      dup3\n        /* \"#utility.yul\":4483:4492   */\n      dup8\n        /* \"#utility.yul\":4479:4501   */\n      add\n        /* \"#utility.yul\":4459:4511   */\n      tag_113\n      jump\t// in\n    tag_203:\n        /* \"#utility.yul\":4449:4511   */\n      swap2\n      pop\n        /* \"#utility.yul\":4403:4521   */\n      pop\n        /* \"#utility.yul\":3846:4528   */\n      swap3\n      pop\n      swap3\n      pop\n      swap3\n      jump\t// out\n        /* \"#utility.yul\":4534:4637   */\n    tag_117:\n        /* \"#utility.yul\":4598:4604   */\n      0x00\n        /* \"#utility.yul\":4626:4630   */\n      0x04\n        /* \"#utility.yul\":4616:4630   */\n      swap1\n      pop\n        /* \"#utility.yul\":4534:4637   */\n      swap2\n      swap1\n      pop\n      jump\t// out\n        /* \"#utility.yul\":4643:4775   */\n    tag_118:\n        /* \"#utility.yul\":4729:4740   */\n      0x00\n        /* \"#utility.yul\":4766:4769   */\n      dup2\n        /* \"#utility.yul\":4751:4769   */\n      swap1\n      pop\n        /* \"#utility.yul\":4643:4775   */\n      swap3\n      swap2\n      pop\n      pop\n      jump\t// out\n        /* \"#utility.yul\":4781:4878   */\n    tag_119:\n        /* \"#utility.yul\":4845:4849   */\n      0x00\n        /* \"#utility.yul\":4868:4871   */\n      dup2\n        /* \"#utility.yul\":4860:4871   */\n      swap1\n      pop\n        /* \"#utility.yul\":4781:4878   */\n      swap2\n      swap1\n      pop\n      jump\t// out\n        /* \"#utility.yul\":4884:4989   */\n    tag_120:\n        /* \"#utility.yul\":4959:4982   */\n      tag_208\n        /* \"#utility.yul\":4976:4981   */\n      dup2\n        /* \"#utility.yul\":4959:4982   */\n      tag_111\n      jump\t// in\n    tag_208:\n        /* \"#utility.yul\":4954:4957   */\n      dup3\n        /* \"#utility.yul\":4947:4983   */\n      mstore\n        /* \"#utility.yul\":4884:4989   */\n      pop\n      pop\n      jump\t// out\n        /* \"#utility.yul\":4995:5170   */\n    tag_121:\n        /* \"#utility.yul\":5062:5072   */\n      0x00\n        /* \"#utility.yul\":5083:5127   */\n      tag_210\n        /* \"#utility.yul\":5123:5126   */\n      dup4\n        /* \"#utility.yul\":5115:5121   */\n      dup4\n        /* \"#utility.yul\":5083:5127   */\n      tag_120\n      jump\t// in\n    tag_210:\n        /* \"#utility.yul\":5159:5163   */\n      0x20\n        /* \"#utility.yul\":5154:5157   */\n      dup4\n        /* \"#utility.yul\":5150:5164   */\n      add\n        /* \"#utility.yul\":5136:5164   */\n      swap1\n      pop\n        /* \"#utility.yul\":4995:5170   */\n      swap3\n      swap2\n      pop\n      pop\n      jump\t// out\n        /* \"#utility.yul\":5176:5286   */\n    tag_122:\n        /* \"#utility.yul\":5243:5247   */\n      0x00\n        /* \"#utility.yul\":5275:5279   */\n      0x20\n        /* \"#utility.yul\":5270:5273   */\n      dup3\n        /* \"#utility.yul\":5266:5280   */\n      add\n        /* \"#utility.yul\":5258:5280   */\n      swap1\n      pop\n        /* \"#utility.yul\":5176:5286   */\n      swap2\n      swap1\n      pop\n      jump\t// out\n        /* \"#utility.yul\":5322:5988   */\n    tag_123:\n        /* \"#utility.yul\":5446:5497   */\n      tag_213\n        /* \"#utility.yul\":5491:5496   */\n      dup2\n        /* \"#utility.yul\":5446:5497   */\n      tag_117\n      jump\t// in\n    tag_213:\n        /* \"#utility.yul\":5513:5586   */\n      tag_214\n        /* \"#utility.yul\":5579:5585   */\n      dup2\n        /* \"#utility.yul\":5574:5577   */\n      dup5\n        /* \"#utility.yul\":5513:5586   */\n      tag_118\n      jump\t// in\n    tag_214:\n        /* \"#utility.yul\":5506:5586   */\n      swap3\n      pop\n        /* \"#utility.yul\":5610:5663   */\n      tag_215\n        /* \"#utility.yul\":5657:5662   */\n      dup3\n        /* \"#utility.yul\":5610:5663   */\n      tag_119\n      jump\t// in\n    tag_215:\n        /* \"#utility.yul\":5686:5693   */\n      dup1\n        /* \"#utility.yul\":5717:5718   */\n      0x00\n        /* \"#utility.yul\":5702:5981   */\n    tag_216:\n        /* \"#utility.yul\":5727:5733   */\n      dup4\n        /* \"#utility.yul\":5724:5725   */\n      dup2\n        /* \"#utility.yul\":5721:5734   */\n      lt\n        /* \"#utility.yul\":5702:5981   */\n      iszero\n      tag_218\n      jumpi\n        /* \"#utility.yul\":5803:5809   */\n      dup2\n        /* \"#utility.yul\":5797:5810   */\n      mload\n        /* \"#utility.yul\":5830:5891   */\n      tag_219\n        /* \"#utility.yul\":5887:5890   */\n      dup8\n        /* \"#utility.yul\":5872:5885   */\n      dup3\n        /* \"#utility.yul\":5830:5891   */\n      tag_121\n      jump\t// in\n    tag_219:\n        /* \"#utility.yul\":5823:5891   */\n      swap7\n      pop\n        /* \"#utility.yul\":5914:5971   */\n      tag_220\n        /* \"#utility.yul\":5964:5970   */\n      dup4\n        /* \"#utility.yul\":5914:5971   */\n      tag_122\n      jump\t// in\n    tag_220:\n        /* \"#utility.yul\":5904:5971   */\n      swap3\n      pop\n        /* \"#utility.yul\":5762:5981   */\n      pop\n        /* \"#utility.yul\":5749:5750   */\n      0x01\n        /* \"#utility.yul\":5746:5747   */\n      dup2\n        /* \"#utility.yul\":5742:5751   */\n      add\n        /* \"#utility.yul\":5737:5751   */\n      swap1\n      pop\n        /* \"#utility.yul\":5702:5981   */\n      jump(tag_216)\n    tag_218:\n        /* \"#utility.yul\":5706:5720   */\n      pop\n        /* \"#utility.yul\":5422:5988   */\n      pop\n      pop\n      pop\n        /* \"#utility.yul\":5322:5988   */\n      pop\n      pop\n      jump\t// out\n        /* \"#utility.yul\":6086:6651   */\n    tag_124:\n        /* \"#utility.yul\":6247:6251   */\n      0xa0\n        /* \"#utility.yul\":6242:6245   */\n      dup3\n        /* \"#utility.yul\":6238:6252   */\n      add\n        /* \"#utility.yul\":6335:6339   */\n      0x00\n        /* \"#utility.yul\":6328:6333   */\n      dup3\n        /* \"#utility.yul\":6324:6340   */\n      add\n        /* \"#utility.yul\":6318:6341   */\n      mload\n        /* \"#utility.yul\":6354:6461   */\n      tag_222\n        /* \"#utility.yul\":6455:6459   */\n      0x00\n        /* \"#utility.yul\":6450:6453   */\n      dup6\n        /* \"#utility.yul\":6446:6460   */\n      add\n        /* \"#utility.yul\":6432:6444   */\n      dup3\n        /* \"#utility.yul\":6354:6461   */\n      tag_123\n      jump\t// in\n    tag_222:\n        /* \"#utility.yul\":6262:6471   */\n      pop\n        /* \"#utility.yul\":6554:6558   */\n      0x20\n        /* \"#utility.yul\":6547:6552   */\n      dup3\n        /* \"#utility.yul\":6543:6559   */\n      add\n        /* \"#utility.yul\":6537:6560   */\n      mload\n        /* \"#utility.yul\":6573:6634   */\n      tag_223\n        /* \"#utility.yul\":6628:6632   */\n      0x80\n        /* \"#utility.yul\":6623:6626   */\n      dup6\n        /* \"#utility.yul\":6619:6633   */\n      add\n        /* \"#utility.yul\":6605:6617   */\n      dup3\n        /* \"#utility.yul\":6573:6634   */\n      tag_120\n      jump\t// in\n    tag_223:\n        /* \"#utility.yul\":6481:6644   */\n      pop\n        /* \"#utility.yul\":6216:6651   */\n      pop\n        /* \"#utility.yul\":6086:6651   */\n      pop\n      pop\n      jump\t// out\n        /* \"#utility.yul\":6657:7008   */\n    tag_14:\n        /* \"#utility.yul\":6814:6818   */\n      0x00\n        /* \"#utility.yul\":6852:6855   */\n      0xa0\n        /* \"#utility.yul\":6841:6850   */\n      dup3\n        /* \"#utility.yul\":6837:6856   */\n      add\n        /* \"#utility.yul\":6829:6856   */\n      swap1\n      pop\n        /* \"#utility.yul\":6866:7001   */\n      tag_225\n        /* \"#utility.yul\":6998:6999   */\n      0x00\n        /* \"#utility.yul\":6987:6996   */\n      dup4\n        /* \"#utility.yul\":6983:7000   */\n      add\n        /* \"#utility.yul\":6974:6980   */\n      dup5\n        /* \"#utility.yul\":6866:7001   */\n      tag_124\n      jump\t// in\n    tag_225:\n        /* \"#utility.yul\":6657:7008   */\n      swap3\n      swap2\n      pop\n      pop\n      jump\t// out\n        /* \"#utility.yul\":7014:7132   */\n    tag_125:\n        /* \"#utility.yul\":7051:7058   */\n      0x00\n        /* \"#utility.yul\":7091:7125   */\n      0xffffffffffffffffffffffffffffffff\n        /* \"#utility.yul\":7084:7089   */\n      dup3\n        /* \"#utility.yul\":7080:7126   */\n      and\n        /* \"#utility.yul\":7069:7126   */\n      swap1\n      pop\n        /* \"#utility.yul\":7014:7132   */\n      swap2\n      swap1\n      pop\n      jump\t// out\n        /* \"#utility.yul\":7138:7260   */\n    tag_126:\n        /* \"#utility.yul\":7211:7235   */\n      tag_228\n        /* \"#utility.yul\":7229:7234   */\n      dup2\n        /* \"#utility.yul\":7211:7235   */\n      tag_125\n      jump\t// in\n    tag_228:\n        /* \"#utility.yul\":7204:7209   */\n      dup2\n        /* \"#utility.yul\":7201:7236   */\n      eq\n        /* \"#utility.yul\":7191:7254   */\n      tag_229\n      jumpi\n        /* \"#utility.yul\":7250:7251   */\n      0x00\n        /* \"#utility.yul\":7247:7248   */\n      dup1\n        /* \"#utility.yul\":7240:7252   */\n      revert\n        /* \"#utility.yul\":7191:7254   */\n    tag_229:\n        /* \"#utility.yul\":7138:7260   */\n      pop\n      jump\t// out\n        /* \"#utility.yul\":7266:7405   */\n    tag_127:\n        /* \"#utility.yul\":7312:7317   */\n      0x00\n        /* \"#utility.yul\":7350:7356   */\n      dup2\n        /* \"#utility.yul\":7337:7357   */\n      calldataload\n        /* \"#utility.yul\":7328:7357   */\n      swap1\n      pop\n        /* \"#utility.yul\":7366:7399   */\n      tag_231\n        /* \"#utility.yul\":7393:7398   */\n      dup2\n        /* \"#utility.yul\":7366:7399   */\n      tag_126\n      jump\t// in\n    tag_231:\n        /* \"#utility.yul\":7266:7405   */\n      swap3\n      swap2\n      pop\n      pop\n      jump\t// out\n        /* \"#utility.yul\":7411:7740   */\n    tag_17:\n        /* \"#utility.yul\":7470:7476   */\n      0x00\n        /* \"#utility.yul\":7519:7521   */\n      0x20\n        /* \"#utility.yul\":7507:7516   */\n      dup3\n        /* \"#utility.yul\":7498:7505   */\n      dup5\n        /* \"#utility.yul\":7494:7517   */\n      sub\n        /* \"#utility.yul\":7490:7522   */\n      slt\n        /* \"#utility.yul\":7487:7606   */\n      iszero\n      tag_233\n      jumpi\n        /* \"#utility.yul\":7525:7604   */\n      tag_234\n      tag_100\n      jump\t// in\n    tag_234:\n        /* \"#utility.yul\":7487:7606   */\n    tag_233:\n        /* \"#utility.yul\":7645:7646   */\n      0x00\n        /* \"#utility.yul\":7670:7723   */\n      tag_235\n        /* \"#utility.yul\":7715:7722   */\n      dup5\n        /* \"#utility.yul\":7706:7712   */\n      dup3\n        /* \"#utility.yul\":7695:7704   */\n      dup6\n        /* \"#utility.yul\":7691:7713   */\n      add\n        /* \"#utility.yul\":7670:7723   */\n      tag_127\n      jump\t// in\n    tag_235:\n        /* \"#utility.yul\":7660:7723   */\n      swap2\n      pop\n        /* \"#utility.yul\":7616:7733   */\n      pop\n        /* \"#utility.yul\":7411:7740   */\n      swap3\n      swap2\n      pop\n      pop\n      jump\t// out\n        /* \"#utility.yul\":7746:8284   */\n    tag_22:\n        /* \"#utility.yul\":7845:7851   */\n      0x00\n        /* \"#utility.yul\":7853:7859   */\n      dup1\n        /* \"#utility.yul\":7902:7905   */\n      0xc0\n        /* \"#utility.yul\":7890:7899   */\n      dup4\n        /* \"#utility.yul\":7881:7888   */\n      dup6\n        /* \"#utility.yul\":7877:7900   */\n      sub\n        /* \"#utility.yul\":7873:7906   */\n      slt\n        /* \"#utility.yul\":7870:7990   */\n      iszero\n      tag_237\n      jumpi\n        /* \"#utility.yul\":7909:7988   */\n      tag_238\n      tag_100\n      jump\t// in\n    tag_238:\n        /* \"#utility.yul\":7870:7990   */\n    tag_237:\n        /* \"#utility.yul\":8029:8030   */\n      0x00\n        /* \"#utility.yul\":8054:8139   */\n      tag_239\n        /* \"#utility.yul\":8131:8138   */\n      dup6\n        /* \"#utility.yul\":8122:8128   */\n      dup3\n        /* \"#utility.yul\":8111:8120   */\n      dup7\n        /* \"#utility.yul\":8107:8129   */\n      add\n        /* \"#utility.yul\":8054:8139   */\n      tag_116\n      jump\t// in\n    tag_239:\n        /* \"#utility.yul\":8044:8139   */\n      swap3\n      pop\n        /* \"#utility.yul\":8000:8149   */\n      pop\n        /* \"#utility.yul\":8188:8191   */\n      0xa0\n        /* \"#utility.yul\":8215:8267   */\n      tag_240\n        /* \"#utility.yul\":8259:8266   */\n      dup6\n        /* \"#utility.yul\":8250:8256   */\n      dup3\n        /* \"#utility.yul\":8239:8248   */\n      dup7\n        /* \"#utility.yul\":8235:8257   */\n      add\n        /* \"#utility.yul\":8215:8267   */\n      tag_113\n      jump\t// in\n    tag_240:\n        /* \"#utility.yul\":8205:8267   */\n      swap2\n      pop\n        /* \"#utility.yul\":8159:8277   */\n      pop\n        /* \"#utility.yul\":7746:8284   */\n      swap3\n      pop\n      swap3\n      swap1\n      pop\n      jump\t// out\n        /* \"#utility.yul\":8290:8440   */\n    tag_128:\n        /* \"#utility.yul\":8327:8334   */\n      0x00\n        /* \"#utility.yul\":8367:8433   */\n      0xffffffffffffffffffffffffffffffff00000000000000000000000000000000\n        /* \"#utility.yul\":8360:8365   */\n      dup3\n        /* \"#utility.yul\":8356:8434   */\n      and\n        /* \"#utility.yul\":8345:8434   */\n      swap1\n      pop\n        /* \"#utility.yul\":8290:8440   */\n      swap2\n      swap1\n      pop\n      jump\t// out\n        /* \"#utility.yul\":8446:8568   */\n    tag_129:\n        /* \"#utility.yul\":8519:8543   */\n      tag_243\n        /* \"#utility.yul\":8537:8542   */\n      dup2\n        /* \"#utility.yul\":8519:8543   */\n      tag_128\n      jump\t// in\n    tag_243:\n        /* \"#utility.yul\":8512:8517   */\n      dup2\n        /* \"#utility.yul\":8509:8544   */\n      eq\n        /* \"#utility.yul\":8499:8562   */\n      tag_244\n      jumpi\n        /* \"#utility.yul\":8558:8559   */\n      0x00\n        /* \"#utility.yul\":8555:8556   */\n      dup1\n        /* \"#utility.yul\":8548:8560   */\n      revert\n        /* \"#utility.yul\":8499:8562   */\n    tag_244:\n        /* \"#utility.yul\":8446:8568   */\n      pop\n      jump\t// out\n        /* \"#utility.yul\":8574:8713   */\n    tag_130:\n        /* \"#utility.yul\":8620:8625   */\n      0x00\n        /* \"#utility.yul\":8658:8664   */\n      dup2\n        /* \"#utility.yul\":8645:8665   */\n      calldataload\n        /* \"#utility.yul\":8636:8665   */\n      swap1\n      pop\n        /* \"#utility.yul\":8674:8707   */\n      tag_246\n        /* \"#utility.yul\":8701:8706   */\n      dup2\n        /* \"#utility.yul\":8674:8707   */\n      tag_129\n      jump\t// in\n    tag_246:\n        /* \"#utility.yul\":8574:8713   */\n      swap3\n      swap2\n      pop\n      pop\n      jump\t// out\n        /* \"#utility.yul\":8719:9048   */\n    tag_27:\n        /* \"#utility.yul\":8778:8784   */\n      0x00\n        /* \"#utility.yul\":8827:8829   */\n      0x20\n        /* \"#utility.yul\":8815:8824   */\n      dup3\n        /* \"#utility.yul\":8806:8813   */\n      dup5\n        /* \"#utility.yul\":8802:8825   */\n      sub\n        /* \"#utility.yul\":8798:8830   */\n      slt\n        /* \"#utility.yul\":8795:8914   */\n      iszero\n      tag_248\n      jumpi\n        /* \"#utility.yul\":8833:8912   */\n      tag_249\n      tag_100\n      jump\t// in\n    tag_249:\n        /* \"#utility.yul\":8795:8914   */\n    tag_248:\n        /* \"#utility.yul\":8953:8954   */\n      0x00\n        /* \"#utility.yul\":8978:9031   */\n      tag_250\n        /* \"#utility.yul\":9023:9030   */\n      dup5\n        /* \"#utility.yul\":9014:9020   */\n      dup3\n        /* \"#utility.yul\":9003:9012   */\n      dup6\n        /* \"#utility.yul\":8999:9021   */\n      add\n        /* \"#utility.yul\":8978:9031   */\n      tag_130\n      jump\t// in\n    tag_250:\n        /* \"#utility.yul\":8968:9031   */\n      swap2\n      pop\n        /* \"#utility.yul\":8924:9041   */\n      pop\n        /* \"#utility.yul\":8719:9048   */\n      swap3\n      swap2\n      pop\n      pop\n      jump\t// out\n        /* \"#utility.yul\":9054:9448   */\n    tag_32:\n        /* \"#utility.yul\":9145:9151   */\n      0x00\n        /* \"#utility.yul\":9194:9197   */\n      0xa0\n        /* \"#utility.yul\":9182:9191   */\n      dup3\n        /* \"#utility.yul\":9173:9180   */\n      dup5\n        /* \"#utility.yul\":9169:9192   */\n      sub\n        /* \"#utility.yul\":9165:9198   */\n      slt\n        /* \"#utility.yul\":9162:9282   */\n      iszero\n      tag_252\n      jumpi\n        /* \"#utility.yul\":9201:9280   */\n      tag_253\n      tag_100\n      jump\t// in\n    tag_253:\n        /* \"#utility.yul\":9162:9282   */\n    tag_252:\n        /* \"#utility.yul\":9321:9322   */\n      0x00\n        /* \"#utility.yul\":9346:9431   */\n      tag_254\n        /* \"#utility.yul\":9423:9430   */\n      dup5\n        /* \"#utility.yul\":9414:9420   */\n      dup3\n        /* \"#utility.yul\":9403:9412   */\n      dup6\n        /* \"#utility.yul\":9399:9421   */\n      add\n        /* \"#utility.yul\":9346:9431   */\n      tag_116\n      jump\t// in\n    tag_254:\n        /* \"#utility.yul\":9336:9431   */\n      swap2\n      pop\n        /* \"#utility.yul\":9292:9441   */\n      pop\n        /* \"#utility.yul\":9054:9448   */\n      swap3\n      swap2\n      pop\n      pop\n      jump\t// out\n        /* \"#utility.yul\":9454:9580   */\n    tag_131:\n        /* \"#utility.yul\":9491:9498   */\n      0x00\n        /* \"#utility.yul\":9531:9573   */\n      0xffffffffffffffffffffffffffffffffffffffff\n        /* \"#utility.yul\":9524:9529   */\n      dup3\n        /* \"#utility.yul\":9520:9574   */\n      and\n        /* \"#utility.yul\":9509:9574   */\n      swap1\n      pop\n        /* \"#utility.yul\":9454:9580   */\n      swap2\n      swap1\n      pop\n      jump\t// out\n        /* \"#utility.yul\":9586:9682   */\n    tag_132:\n        /* \"#utility.yul\":9623:9630   */\n      0x00\n        /* \"#utility.yul\":9652:9676   */\n      tag_257\n        /* \"#utility.yul\":9670:9675   */\n      dup3\n        /* \"#utility.yul\":9652:9676   */\n      tag_131\n      jump\t// in\n    tag_257:\n        /* \"#utility.yul\":9641:9676   */\n      swap1\n      pop\n        /* \"#utility.yul\":9586:9682   */\n      swap2\n      swap1\n      pop\n      jump\t// out\n        /* \"#utility.yul\":9688:9810   */\n    tag_133:\n        /* \"#utility.yul\":9761:9785   */\n      tag_259\n        /* \"#utility.yul\":9779:9784   */\n      dup2\n        /* \"#utility.yul\":9761:9785   */\n      tag_132\n      jump\t// in\n    tag_259:\n        /* \"#utility.yul\":9754:9759   */\n      dup2\n        /* \"#utility.yul\":9751:9786   */\n      eq\n        /* \"#utility.yul\":9741:9804   */\n      tag_260\n      jumpi\n        /* \"#utility.yul\":9800:9801   */\n      0x00\n        /* \"#utility.yul\":9797:9798   */\n      dup1\n        /* \"#utility.yul\":9790:9802   */\n      revert\n        /* \"#utility.yul\":9741:9804   */\n    tag_260:\n        /* \"#utility.yul\":9688:9810   */\n      pop\n      jump\t// out\n        /* \"#utility.yul\":9816:9955   */\n    tag_134:\n        /* \"#utility.yul\":9862:9867   */\n      0x00\n        /* \"#utility.yul\":9900:9906   */\n      dup2\n        /* \"#utility.yul\":9887:9907   */\n      calldataload\n        /* \"#utility.yul\":9878:9907   */\n      swap1\n      pop\n        /* \"#utility.yul\":9916:9949   */\n      tag_262\n        /* \"#utility.yul\":9943:9948   */\n      dup2\n        /* \"#utility.yul\":9916:9949   */\n      tag_133\n      jump\t// in\n    tag_262:\n        /* \"#utility.yul\":9816:9955   */\n      swap3\n      swap2\n      pop\n      pop\n      jump\t// out\n        /* \"#utility.yul\":9961:10038   */\n    tag_135:\n        /* \"#utility.yul\":9998:10005   */\n      0x00\n        /* \"#utility.yul\":10027:10032   */\n      dup2\n        /* \"#utility.yul\":10016:10032   */\n      swap1\n      pop\n        /* \"#utility.yul\":9961:10038   */\n      swap2\n      swap1\n      pop\n      jump\t// out\n        /* \"#utility.yul\":10044:10166   */\n    tag_136:\n        /* \"#utility.yul\":10117:10141   */\n      tag_265\n        /* \"#utility.yul\":10135:10140   */\n      dup2\n        /* \"#utility.yul\":10117:10141   */\n      tag_135\n      jump\t// in\n    tag_265:\n        /* \"#utility.yul\":10110:10115   */\n      dup2\n        /* \"#utility.yul\":10107:10142   */\n      eq\n        /* \"#utility.yul\":10097:10160   */\n      tag_266\n      jumpi\n        /* \"#utility.yul\":10156:10157   */\n      0x00\n        /* \"#utility.yul\":10153:10154   */\n      dup1\n        /* \"#utility.yul\":10146:10158   */\n      revert\n        /* \"#utility.yul\":10097:10160   */\n    tag_266:\n        /* \"#utility.yul\":10044:10166   */\n      pop\n      jump\t// out\n        /* \"#utility.yul\":10172:10311   */\n    tag_137:\n        /* \"#utility.yul\":10218:10223   */\n      0x00\n        /* \"#utility.yul\":10256:10262   */\n      dup2\n        /* \"#utility.yul\":10243:10263   */\n      calldataload\n        /* \"#utility.yul\":10234:10263   */\n      swap1\n      pop\n        /* \"#utility.yul\":10272:10305   */\n      tag_268\n        /* \"#utility.yul\":10299:10304   */\n      dup2\n        /* \"#utility.yul\":10272:10305   */\n      tag_136\n      jump\t// in\n    tag_268:\n        /* \"#utility.yul\":10172:10311   */\n      swap3\n      swap2\n      pop\n      pop\n      jump\t// out\n        /* \"#utility.yul\":10317:11082   */\n    tag_37:\n        /* \"#utility.yul\":10403:10409   */\n      0x00\n        /* \"#utility.yul\":10411:10417   */\n      dup1\n        /* \"#utility.yul\":10419:10425   */\n      0x00\n        /* \"#utility.yul\":10427:10433   */\n      dup1\n        /* \"#utility.yul\":10476:10479   */\n      0x80\n        /* \"#utility.yul\":10464:10473   */\n      dup6\n        /* \"#utility.yul\":10455:10462   */\n      dup8\n        /* \"#utility.yul\":10451:10474   */\n      sub\n        /* \"#utility.yul\":10447:10480   */\n      slt\n        /* \"#utility.yul\":10444:10564   */\n      iszero\n      tag_270\n      jumpi\n        /* \"#utility.yul\":10483:10562   */\n      tag_271\n      tag_100\n      jump\t// in\n    tag_271:\n        /* \"#utility.yul\":10444:10564   */\n    tag_270:\n        /* \"#utility.yul\":10603:10604   */\n      0x00\n        /* \"#utility.yul\":10628:10681   */\n      tag_272\n        /* \"#utility.yul\":10673:10680   */\n      dup8\n        /* \"#utility.yul\":10664:10670   */\n      dup3\n        /* \"#utility.yul\":10653:10662   */\n      dup9\n        /* \"#utility.yul\":10649:10671   */\n      add\n        /* \"#utility.yul\":10628:10681   */\n      tag_134\n      jump\t// in\n    tag_272:\n        /* \"#utility.yul\":10618:10681   */\n      swap5\n      pop\n        /* \"#utility.yul\":10574:10691   */\n      pop\n        /* \"#utility.yul\":10730:10732   */\n      0x20\n        /* \"#utility.yul\":10756:10809   */\n      tag_273\n        /* \"#utility.yul\":10801:10808   */\n      dup8\n        /* \"#utility.yul\":10792:10798   */\n      dup3\n        /* \"#utility.yul\":10781:10790   */\n      dup9\n        /* \"#utility.yul\":10777:10799   */\n      add\n        /* \"#utility.yul\":10756:10809   */\n      tag_134\n      jump\t// in\n    tag_273:\n        /* \"#utility.yul\":10746:10809   */\n      swap4\n      pop\n        /* \"#utility.yul\":10701:10819   */\n      pop\n        /* \"#utility.yul\":10858:10860   */\n      0x40\n        /* \"#utility.yul\":10884:10937   */\n      tag_274\n        /* \"#utility.yul\":10929:10936   */\n      dup8\n        /* \"#utility.yul\":10920:10926   */\n      dup3\n        /* \"#utility.yul\":10909:10918   */\n      dup9\n        /* \"#utility.yul\":10905:10927   */\n      add\n        /* \"#utility.yul\":10884:10937   */\n      tag_137\n      jump\t// in\n    tag_274:\n        /* \"#utility.yul\":10874:10937   */\n      swap3\n      pop\n        /* \"#utility.yul\":10829:10947   */\n      pop\n        /* \"#utility.yul\":10986:10988   */\n      0x60\n        /* \"#utility.yul\":11012:11065   */\n      tag_275\n        /* \"#utility.yul\":11057:11064   */\n      dup8\n        /* \"#utility.yul\":11048:11054   */\n      dup3\n        /* \"#utility.yul\":11037:11046   */\n      dup9\n        /* \"#utility.yul\":11033:11055   */\n      add\n        /* \"#utility.yul\":11012:11065   */\n      tag_137\n      jump\t// in\n    tag_275:\n        /* \"#utility.yul\":11002:11065   */\n      swap2\n      pop\n        /* \"#utility.yul\":10957:11075   */\n      pop\n        /* \"#utility.yul\":10317:11082   */\n      swap3\n      swap6\n      swap2\n      swap5\n      pop\n      swap3\n      pop\n      jump\t// out\n        /* \"#utility.yul\":11088:11206   */\n    tag_138:\n        /* \"#utility.yul\":11175:11199   */\n      tag_277\n        /* \"#utility.yul\":11193:11198   */\n      dup2\n        /* \"#utility.yul\":11175:11199   */\n      tag_125\n      jump\t// in\n    tag_277:\n        /* \"#utility.yul\":11170:11173   */\n      dup3\n        /* \"#utility.yul\":11163:11200   */\n      mstore\n        /* \"#utility.yul\":11088:11206   */\n      pop\n      pop\n      jump\t// out\n        /* \"#utility.yul\":11212:11434   */\n    tag_40:\n        /* \"#utility.yul\":11305:11309   */\n      0x00\n        /* \"#utility.yul\":11343:11345   */\n      0x20\n        /* \"#utility.yul\":11332:11341   */\n      dup3\n        /* \"#utility.yul\":11328:11346   */\n      add\n        /* \"#utility.yul\":11320:11346   */\n      swap1\n      pop\n        /* \"#utility.yul\":11356:11427   */\n      tag_279\n        /* \"#utility.yul\":11424:11425   */\n      0x00\n        /* \"#utility.yul\":11413:11422   */\n      dup4\n        /* \"#utility.yul\":11409:11426   */\n      add\n        /* \"#utility.yul\":11400:11406   */\n      dup5\n        /* \"#utility.yul\":11356:11427   */\n      tag_138\n      jump\t// in\n    tag_279:\n        /* \"#utility.yul\":11212:11434   */\n      swap3\n      swap2\n      pop\n      pop\n      jump\t// out\n        /* \"#utility.yul\":11440:11620   */\n    tag_139:\n        /* \"#utility.yul\":11488:11565   */\n      0x4e487b7100000000000000000000000000000000000000000000000000000000\n        /* \"#utility.yul\":11485:11486   */\n      0x00\n        /* \"#utility.yul\":11478:11566   */\n      mstore\n        /* \"#utility.yul\":11585:11589   */\n      0x11\n        /* \"#utility.yul\":11582:11583   */\n      0x04\n        /* \"#utility.yul\":11575:11590   */\n      mstore\n        /* \"#utility.yul\":11609:11613   */\n      0x24\n        /* \"#utility.yul\":11606:11607   */\n      0x00\n        /* \"#utility.yul\":11599:11614   */\n      revert\n        /* \"#utility.yul\":11626:11826   */\n    tag_46:\n        /* \"#utility.yul\":11665:11669   */\n      0x00\n        /* \"#utility.yul\":11685:11704   */\n      tag_282\n        /* \"#utility.yul\":11702:11703   */\n      dup3\n        /* \"#utility.yul\":11685:11704   */\n      tag_111\n      jump\t// in\n    tag_282:\n        /* \"#utility.yul\":11680:11704   */\n      swap2\n      pop\n        /* \"#utility.yul\":11718:11737   */\n      tag_283\n        /* \"#utility.yul\":11735:11736   */\n      dup4\n        /* \"#utility.yul\":11718:11737   */\n      tag_111\n      jump\t// in\n    tag_283:\n        /* \"#utility.yul\":11713:11737   */\n      swap3\n      pop\n        /* \"#utility.yul\":11761:11762   */\n      dup3\n        /* \"#utility.yul\":11758:11759   */\n      dup3\n        /* \"#utility.yul\":11754:11763   */\n      sub\n        /* \"#utility.yul\":11746:11763   */\n      swap1\n      pop\n        /* \"#utility.yul\":11785:11795   */\n      0xffffffff\n        /* \"#utility.yul\":11779:11783   */\n      dup2\n        /* \"#utility.yul\":11776:11796   */\n      gt\n        /* \"#utility.yul\":11773:11819   */\n      iszero\n      tag_284\n      jumpi\n        /* \"#utility.yul\":11799:11817   */\n      tag_285\n      tag_139\n      jump\t// in\n    tag_285:\n        /* \"#utility.yul\":11773:11819   */\n    tag_284:\n        /* \"#utility.yul\":11626:11826   */\n      swap3\n      swap2\n      pop\n      pop\n      jump\t// out\n        /* \"#utility.yul\":11832:12012   */\n    tag_140:\n        /* \"#utility.yul\":11880:11957   */\n      0x4e487b7100000000000000000000000000000000000000000000000000000000\n        /* \"#utility.yul\":11877:11878   */\n      0x00\n        /* \"#utility.yul\":11870:11958   */\n      mstore\n        /* \"#utility.yul\":11977:11981   */\n      0x12\n        /* \"#utility.yul\":11974:11975   */\n      0x04\n        /* \"#utility.yul\":11967:11982   */\n      mstore\n        /* \"#utility.yul\":12001:12005   */\n      0x24\n        /* \"#utility.yul\":11998:11999   */\n      0x00\n        /* \"#utility.yul\":11991:12006   */\n      revert\n        /* \"#utility.yul\":12018:12191   */\n    tag_48:\n        /* \"#utility.yul\":12049:12050   */\n      0x00\n        /* \"#utility.yul\":12066:12085   */\n      tag_288\n        /* \"#utility.yul\":12083:12084   */\n      dup3\n        /* \"#utility.yul\":12066:12085   */\n      tag_111\n      jump\t// in\n    tag_288:\n        /* \"#utility.yul\":12061:12085   */\n      swap2\n      pop\n        /* \"#utility.yul\":12099:12118   */\n      tag_289\n        /* \"#utility.yul\":12116:12117   */\n      dup4\n        /* \"#utility.yul\":12099:12118   */\n      tag_111\n      jump\t// in\n    tag_289:\n        /* \"#utility.yul\":12094:12118   */\n      swap3\n      pop\n        /* \"#utility.yul\":12137:12138   */\n      dup3\n        /* \"#utility.yul\":12127:12162   */\n      tag_290\n      jumpi\n        /* \"#utility.yul\":12142:12160   */\n      tag_291\n      tag_140\n      jump\t// in\n    tag_291:\n        /* \"#utility.yul\":12127:12162   */\n    tag_290:\n        /* \"#utility.yul\":12183:12184   */\n      dup3\n        /* \"#utility.yul\":12180:12181   */\n      dup3\n        /* \"#utility.yul\":12176:12185   */\n      mod\n        /* \"#utility.yul\":12171:12185   */\n      swap1\n      pop\n        /* \"#utility.yul\":12018:12191   */\n      swap3\n      swap2\n      pop\n      pop\n      jump\t// out\n        /* \"#utility.yul\":12197:12394   */\n    tag_50:\n        /* \"#utility.yul\":12236:12239   */\n      0x00\n        /* \"#utility.yul\":12255:12274   */\n      tag_293\n        /* \"#utility.yul\":12272:12273   */\n      dup3\n        /* \"#utility.yul\":12255:12274   */\n      tag_111\n      jump\t// in\n    tag_293:\n        /* \"#utility.yul\":12250:12274   */\n      swap2\n      pop\n        /* \"#utility.yul\":12288:12307   */\n      tag_294\n        /* \"#utility.yul\":12305:12306   */\n      dup4\n        /* \"#utility.yul\":12288:12307   */\n      tag_111\n      jump\t// in\n    tag_294:\n        /* \"#utility.yul\":12283:12307   */\n      swap3\n      pop\n        /* \"#utility.yul\":12330:12331   */\n      dup3\n        /* \"#utility.yul\":12327:12328   */\n      dup3\n        /* \"#utility.yul\":12323:12332   */\n      add\n        /* \"#utility.yul\":12316:12332   */\n      swap1\n      pop\n        /* \"#utility.yul\":12353:12363   */\n      0xffffffff\n        /* \"#utility.yul\":12348:12351   */\n      dup2\n        /* \"#utility.yul\":12345:12364   */\n      gt\n        /* \"#utility.yul\":12342:12387   */\n      iszero\n      tag_295\n      jumpi\n        /* \"#utility.yul\":12367:12385   */\n      tag_296\n      tag_139\n      jump\t// in\n    tag_296:\n        /* \"#utility.yul\":12342:12387   */\n    tag_295:\n        /* \"#utility.yul\":12197:12394   */\n      swap3\n      swap2\n      pop\n      pop\n      jump\t// out\n        /* \"#utility.yul\":12400:12810   */\n    tag_58:\n        /* \"#utility.yul\":12440:12447   */\n      0x00\n        /* \"#utility.yul\":12463:12483   */\n      tag_298\n        /* \"#utility.yul\":12481:12482   */\n      dup3\n        /* \"#utility.yul\":12463:12483   */\n      tag_135\n      jump\t// in\n    tag_298:\n        /* \"#utility.yul\":12458:12483   */\n      swap2\n      pop\n        /* \"#utility.yul\":12497:12517   */\n      tag_299\n        /* \"#utility.yul\":12515:12516   */\n      dup4\n        /* \"#utility.yul\":12497:12517   */\n      tag_135\n      jump\t// in\n    tag_299:\n        /* \"#utility.yul\":12492:12517   */\n      swap3\n      pop\n        /* \"#utility.yul\":12552:12553   */\n      dup3\n        /* \"#utility.yul\":12549:12550   */\n      dup3\n        /* \"#utility.yul\":12545:12554   */\n      mul\n        /* \"#utility.yul\":12574:12604   */\n      tag_300\n        /* \"#utility.yul\":12592:12603   */\n      dup2\n        /* \"#utility.yul\":12574:12604   */\n      tag_135\n      jump\t// in\n    tag_300:\n        /* \"#utility.yul\":12563:12604   */\n      swap2\n      pop\n        /* \"#utility.yul\":12753:12754   */\n      dup3\n        /* \"#utility.yul\":12744:12751   */\n      dup3\n        /* \"#utility.yul\":12740:12755   */\n      div\n        /* \"#utility.yul\":12737:12738   */\n      dup5\n        /* \"#utility.yul\":12734:12756   */\n      eq\n        /* \"#utility.yul\":12714:12715   */\n      dup4\n        /* \"#utility.yul\":12707:12716   */\n      iszero\n        /* \"#utility.yul\":12687:12770   */\n      or\n        /* \"#utility.yul\":12664:12803   */\n      tag_301\n      jumpi\n        /* \"#utility.yul\":12783:12801   */\n      tag_302\n      tag_139\n      jump\t// in\n    tag_302:\n        /* \"#utility.yul\":12664:12803   */\n    tag_301:\n        /* \"#utility.yul\":12448:12810   */\n      pop\n        /* \"#utility.yul\":12400:12810   */\n      swap3\n      swap2\n      pop\n      pop\n      jump\t// out\n        /* \"#utility.yul\":12816:13010   */\n    tag_60:\n        /* \"#utility.yul\":12856:12860   */\n      0x00\n        /* \"#utility.yul\":12876:12896   */\n      tag_304\n        /* \"#utility.yul\":12894:12895   */\n      dup3\n        /* \"#utility.yul\":12876:12896   */\n      tag_135\n      jump\t// in\n    tag_304:\n        /* \"#utility.yul\":12871:12896   */\n      swap2\n      pop\n        /* \"#utility.yul\":12910:12930   */\n      tag_305\n        /* \"#utility.yul\":12928:12929   */\n      dup4\n        /* \"#utility.yul\":12910:12930   */\n      tag_135\n      jump\t// in\n    tag_305:\n        /* \"#utility.yul\":12905:12930   */\n      swap3\n      pop\n        /* \"#utility.yul\":12954:12955   */\n      dup3\n        /* \"#utility.yul\":12951:12952   */\n      dup3\n        /* \"#utility.yul\":12947:12956   */\n      sub\n        /* \"#utility.yul\":12939:12956   */\n      swap1\n      pop\n        /* \"#utility.yul\":12978:12979   */\n      dup2\n        /* \"#utility.yul\":12972:12976   */\n      dup2\n        /* \"#utility.yul\":12969:12980   */\n      gt\n        /* \"#utility.yul\":12966:13003   */\n      iszero\n      tag_306\n      jumpi\n        /* \"#utility.yul\":12983:13001   */\n      tag_307\n      tag_139\n      jump\t// in\n    tag_307:\n        /* \"#utility.yul\":12966:13003   */\n    tag_306:\n        /* \"#utility.yul\":12816:13010   */\n      swap3\n      swap2\n      pop\n      pop\n      jump\t// out\n        /* \"#utility.yul\":13016:13196   */\n    tag_63:\n        /* \"#utility.yul\":13064:13141   */\n      0x4e487b7100000000000000000000000000000000000000000000000000000000\n        /* \"#utility.yul\":13061:13062   */\n      0x00\n        /* \"#utility.yul\":13054:13142   */\n      mstore\n        /* \"#utility.yul\":13161:13165   */\n      0x32\n        /* \"#utility.yul\":13158:13159   */\n      0x04\n        /* \"#utility.yul\":13151:13166   */\n      mstore\n        /* \"#utility.yul\":13185:13189   */\n      0x24\n        /* \"#utility.yul\":13182:13183   */\n      0x00\n        /* \"#utility.yul\":13175:13190   */\n      revert\n        /* \"#utility.yul\":13202:13435   */\n    tag_65:\n        /* \"#utility.yul\":13241:13244   */\n      0x00\n        /* \"#utility.yul\":13264:13288   */\n      tag_310\n        /* \"#utility.yul\":13282:13287   */\n      dup3\n        /* \"#utility.yul\":13264:13288   */\n      tag_135\n      jump\t// in\n    tag_310:\n        /* \"#utility.yul\":13255:13288   */\n      swap2\n      pop\n        /* \"#utility.yul\":13310:13376   */\n      0xffffffffffffffffffffffffffffffffffffffffffffffffffffffffffffffff\n        /* \"#utility.yul\":13303:13308   */\n      dup3\n        /* \"#utility.yul\":13300:13377   */\n      sub\n        /* \"#utility.yul\":13297:13400   */\n      tag_311\n      jumpi\n        /* \"#utility.yul\":13380:13398   */\n      tag_312\n      tag_139\n      jump\t// in\n    tag_312:\n        /* \"#utility.yul\":13297:13400   */\n    tag_311:\n        /* \"#utility.yul\":13427:13428   */\n      0x01\n        /* \"#utility.yul\":13420:13425   */\n      dup3\n        /* \"#utility.yul\":13416:13429   */\n      add\n        /* \"#utility.yul\":13409:13429   */\n      swap1\n      pop\n        /* \"#utility.yul\":13202:13435   */\n      swap2\n      swap1\n      pop\n      jump\t// out\n        /* \"#utility.yul\":13441:13518   */\n    tag_141:\n        /* \"#utility.yul\":13478:13485   */\n      0x00\n        /* \"#utility.yul\":13507:13512   */\n      dup2\n        /* \"#utility.yul\":13496:13512   */\n      swap1\n      pop\n        /* \"#utility.yul\":13441:13518   */\n      swap2\n      swap1\n      pop\n      jump\t// out\n        /* \"#utility.yul\":13524:13603   */\n    tag_142:\n        /* \"#utility.yul\":13563:13570   */\n      0x00\n        /* \"#utility.yul\":13592:13597   */\n      dup2\n        /* \"#utility.yul\":13581:13597   */\n      swap1\n      pop\n        /* \"#utility.yul\":13524:13603   */\n      swap2\n      swap1\n      pop\n      jump\t// out\n        /* \"#utility.yul\":13609:13766   */\n    tag_143:\n        /* \"#utility.yul\":13714:13759   */\n      tag_316\n        /* \"#utility.yul\":13734:13758   */\n      tag_317\n        /* \"#utility.yul\":13752:13757   */\n      dup3\n        /* \"#utility.yul\":13734:13758   */\n      tag_141\n      jump\t// in\n    tag_317:\n        /* \"#utility.yul\":13714:13759   */\n      tag_142\n      jump\t// in\n    tag_316:\n        /* \"#utility.yul\":13709:13712   */\n      dup3\n        /* \"#utility.yul\":13702:13760   */\n      mstore\n        /* \"#utility.yul\":13609:13766   */\n      pop\n      pop\n      jump\t// out\n        /* \"#utility.yul\":13772:13866   */\n    tag_144:\n        /* \"#utility.yul\":13805:13813   */\n      0x00\n        /* \"#utility.yul\":13853:13858   */\n      dup2\n        /* \"#utility.yul\":13849:13851   */\n      0x60\n        /* \"#utility.yul\":13845:13859   */\n      shl\n        /* \"#utility.yul\":13824:13859   */\n      swap1\n      pop\n        /* \"#utility.yul\":13772:13866   */\n      swap2\n      swap1\n      pop\n      jump\t// out\n        /* \"#utility.yul\":13872:13966   */\n    tag_145:\n        /* \"#utility.yul\":13911:13918   */\n      0x00\n        /* \"#utility.yul\":13940:13960   */\n      tag_320\n        /* \"#utility.yul\":13954:13959   */\n      dup3\n        /* \"#utility.yul\":13940:13960   */\n      tag_144\n      jump\t// in\n    tag_320:\n        /* \"#utility.yul\":13929:13960   */\n      swap1\n      pop\n        /* \"#utility.yul\":13872:13966   */\n      swap2\n      swap1\n      pop\n      jump\t// out\n        /* \"#utility.yul\":13972:14072   */\n    tag_146:\n        /* \"#utility.yul\":14011:14018   */\n      0x00\n        /* \"#utility.yul\":14040:14066   */\n      tag_322\n        /* \"#utility.yul\":14060:14065   */\n      dup3\n        /* \"#utility.yul\":14040:14066   */\n      tag_145\n      jump\t// in\n    tag_322:\n        /* \"#utility.yul\":14029:14066   */\n      swap1\n      pop\n        /* \"#utility.yul\":13972:14072   */\n      swap2\n      swap1\n      pop\n      jump\t// out\n        /* \"#utility.yul\":14078:14235   */\n    tag_147:\n        /* \"#utility.yul\":14183:14228   */\n      tag_324\n        /* \"#utility.yul\":14203:14227   */\n      tag_325\n        /* \"#utility.yul\":14221:14226   */\n      dup3\n        /* \"#utility.yul\":14203:14227   */\n      tag_132\n      jump\t// in\n    tag_325:\n        /* \"#utility.yul\":14183:14228   */\n      tag_146\n      jump\t// in\n    tag_324:\n        /* \"#utility.yul\":14178:14181   */\n      dup3\n        /* \"#utility.yul\":14171:14229   */\n      mstore\n        /* \"#utility.yul\":14078:14235   */\n      pop\n      pop\n      jump\t// out\n        /* \"#utility.yul\":14241:14320   */\n    tag_148:\n        /* \"#utility.yul\":14280:14287   */\n      0x00\n        /* \"#utility.yul\":14309:14314   */\n      dup2\n        /* \"#utility.yul\":14298:14314   */\n      swap1\n      pop\n        /* \"#utility.yul\":14241:14320   */\n      swap2\n      swap1\n      pop\n      jump\t// out\n        /* \"#utility.yul\":14326:14483   */\n    tag_149:\n        /* \"#utility.yul\":14431:14476   */\n      tag_328\n        /* \"#utility.yul\":14451:14475   */\n      tag_329\n        /* \"#utility.yul\":14469:14474   */\n      dup3\n        /* \"#utility.yul\":14451:14475   */\n      tag_135\n      jump\t// in\n    tag_329:\n        /* \"#utility.yul\":14431:14476   */\n      tag_148\n      jump\t// in\n    tag_328:\n        /* \"#utility.yul\":14426:14429   */\n      dup3\n        /* \"#utility.yul\":14419:14477   */\n      mstore\n        /* \"#utility.yul\":14326:14483   */\n      pop\n      pop\n      jump\t// out\n        /* \"#utility.yul\":14489:14637   */\n    tag_150:\n        /* \"#utility.yul\":14591:14602   */\n      0x00\n        /* \"#utility.yul\":14628:14631   */\n      dup2\n        /* \"#utility.yul\":14613:14631   */\n      swap1\n      pop\n        /* \"#utility.yul\":14489:14637   */\n      swap3\n      swap2\n      pop\n      pop\n      jump\t// out\n        /* \"#utility.yul\":14643:14803   */\n    tag_151:\n        /* \"#utility.yul\":14783:14795   */\n      0x62612d64756d2d74737300000000000000000000000000000000000000000000\n        /* \"#utility.yul\":14779:14780   */\n      0x00\n        /* \"#utility.yul\":14771:14777   */\n      dup3\n        /* \"#utility.yul\":14767:14781   */\n      add\n        /* \"#utility.yul\":14760:14796   */\n      mstore\n        /* \"#utility.yul\":14643:14803   */\n      pop\n      jump\t// out\n        /* \"#utility.yul\":14809:15211   */\n    tag_152:\n        /* \"#utility.yul\":14969:14972   */\n      0x00\n        /* \"#utility.yul\":14990:15075   */\n      tag_333\n        /* \"#utility.yul\":15072:15074   */\n      0x0a\n        /* \"#utility.yul\":15067:15070   */\n      dup4\n        /* \"#utility.yul\":14990:15075   */\n      tag_150\n      jump\t// in\n    tag_333:\n        /* \"#utility.yul\":14983:15075   */\n      swap2\n      pop\n        /* \"#utility.yul\":15084:15177   */\n      tag_334\n        /* \"#utility.yul\":15173:15176   */\n      dup3\n        /* \"#utility.yul\":15084:15177   */\n      tag_151\n      jump\t// in\n    tag_334:\n        /* \"#utility.yul\":15202:15204   */\n      0x0a\n        /* \"#utility.yul\":15197:15200   */\n      dup3\n        /* \"#utility.yul\":15193:15205   */\n      add\n        /* \"#utility.yul\":15186:15205   */\n      swap1\n      pop\n        /* \"#utility.yul\":14809:15211   */\n      swap2\n      swap1\n      pop\n      jump\t// out\n        /* \"#utility.yul\":15217:16162   */\n    tag_96:\n        /* \"#utility.yul\":15514:15517   */\n      0x00\n        /* \"#utility.yul\":15529:15604   */\n      tag_336\n        /* \"#utility.yul\":15600:15603   */\n      dup3\n        /* \"#utility.yul\":15591:15597   */\n      dup8\n        /* \"#utility.yul\":15529:15604   */\n      tag_143\n      jump\t// in\n    tag_336:\n        /* \"#utility.yul\":15629:15631   */\n      0x20\n        /* \"#utility.yul\":15624:15627   */\n      dup3\n        /* \"#utility.yul\":15620:15632   */\n      add\n        /* \"#utility.yul\":15613:15632   */\n      swap2\n      pop\n        /* \"#utility.yul\":15642:15717   */\n      tag_337\n        /* \"#utility.yul\":15713:15716   */\n      dup3\n        /* \"#utility.yul\":15704:15710   */\n      dup7\n        /* \"#utility.yul\":15642:15717   */\n      tag_147\n      jump\t// in\n    tag_337:\n        /* \"#utility.yul\":15742:15744   */\n      0x14\n        /* \"#utility.yul\":15737:15740   */\n      dup3\n        /* \"#utility.yul\":15733:15745   */\n      add\n        /* \"#utility.yul\":15726:15745   */\n      swap2\n      pop\n        /* \"#utility.yul\":15755:15830   */\n      tag_338\n        /* \"#utility.yul\":15826:15829   */\n      dup3\n        /* \"#utility.yul\":15817:15823   */\n      dup6\n        /* \"#utility.yul\":15755:15830   */\n      tag_147\n      jump\t// in\n    tag_338:\n        /* \"#utility.yul\":15855:15857   */\n      0x14\n        /* \"#utility.yul\":15850:15853   */\n      dup3\n        /* \"#utility.yul\":15846:15858   */\n      add\n        /* \"#utility.yul\":15839:15858   */\n      swap2\n      pop\n        /* \"#utility.yul\":15868:15943   */\n      tag_339\n        /* \"#utility.yul\":15939:15942   */\n      dup3\n        /* \"#utility.yul\":15930:15936   */\n      dup5\n        /* \"#utility.yul\":15868:15943   */\n      tag_149\n      jump\t// in\n    tag_339:\n        /* \"#utility.yul\":15968:15970   */\n      0x20\n        /* \"#utility.yul\":15963:15966   */\n      dup3\n        /* \"#utility.yul\":15959:15971   */\n      add\n        /* \"#utility.yul\":15952:15971   */\n      swap2\n      pop\n        /* \"#utility.yul\":15988:16136   */\n      tag_340\n        /* \"#utility.yul\":16132:16135   */\n      dup3\n        /* \"#utility.yul\":15988:16136   */\n      tag_152\n      jump\t// in\n    tag_340:\n        /* \"#utility.yul\":15981:16136   */\n      swap2\n      pop\n        /* \"#utility.yul\":16153:16156   */\n      dup2\n        /* \"#utility.yul\":16146:16156   */\n      swap1\n      pop\n        /* \"#utility.yul\":15217:16162   */\n      swap6\n      swap5\n      pop\n      pop\n      pop\n      pop\n      pop\n      jump\t// out\n\n    auxdata: 0xa2646970667358221220143b4b6fcb72d9d7c58d65a79fcb48e283dab4fc315ef078c77dd19632d5c82f64736f6c63430008140033\n}\n",
				"bytecode": {
					"linkReferences": {},
					"object": "608060405234801561000f575f80fd5b50610dea8061001d5f395ff3fe608060405234801561000f575f80fd5b5060043610610060575f3560e01c8063290f10501461006457806356db9ef114610094578063591e5735146100c4578063bd33d1e3146100f4578063be1cfcc414610124578063f192d0e714610154575b5f80fd5b61007e600480360381019061007991906106ed565b610184565b60405161008b919061080f565b60405180910390f35b6100ae60048036038101906100a9919061086d565b6101de565b6040516100bb919061080f565b60405180910390f35b6100de60048036038101906100d99190610898565b61028f565b6040516100eb919061080f565b60405180910390f35b61010e6004803603810190610109919061092b565b6102d2565b60405161011b919061080f565b60405180910390f35b61013e60048036038101906101399190610956565b6102ed565b60405161014b919061080f565b60405180910390f35b61016e60048036038101906101699190610a0e565b610489565b60405161017b9190610a81565b60405180910390f35b61018c6104d1565b610195846102ed565b935082826101a39190610ac7565b84602001516101b29190610b2b565b836101bd9190610b5b565b846020019063ffffffff16908163ffffffff16815250508390509392505050565b6101e66104d1565b6101ee6104d1565b5f5b600481101561026d5763ffffffff81602061020b9190610b92565b856fffffffffffffffffffffffffffffffff16901c16825f01518260036102329190610bd3565b6004811061024357610242610c06565b5b602002019063ffffffff16908163ffffffff1681525050808061026590610c33565b9150506101f0565b505f816020019063ffffffff16908163ffffffff168152505080915050919050565b6102976104d1565b6102a0836102ed565b92508183602001516102b29190610b2b565b836020019063ffffffff16908163ffffffff168152505082905092915050565b6102da6104d1565b6102e68260801c6101de565b9050919050565b6102f56104d1565b5f825f015160036004811061030d5761030c610c06565b5b60200201519050825f015160026004811061032b5761032a610c06565b5b6020020151835f015160036004811061034757610346610c06565b5b602002019063ffffffff16908163ffffffff1681525050825f015160016004811061037557610374610c06565b5b6020020151835f015160026004811061039157610390610c06565b5b602002019063ffffffff16908163ffffffff1681525050825f01515f600481106103be576103bd610c06565b5b6020020151835f01516001600481106103da576103d9610c06565b5b602002019063ffffffff16908163ffffffff16815250505f835f01515f6004811061040857610407610c06565b5b60200201519050600b8263ffffffff16901b8218915060088263ffffffff16901c8218915060138163ffffffff16901c81831818845f01515f6004811061045257610451610c06565b5b602002019063ffffffff16908163ffffffff16815250846020019063ffffffff16908163ffffffff16815250508392505050919050565b5f600b836104979190610bd3565b408585846040516020016104ae9493929190610d5c565b6040516020818303038152906040528051906020012060801c9050949350505050565b60405180604001604052806104e46104f6565b81526020015f63ffffffff1681525090565b6040518060800160405280600490602082028036833780820191505090505090565b5f604051905090565b5f80fd5b5f80fd5b5f601f19601f8301169050919050565b7f4e487b71000000000000000000000000000000000000000000000000000000005f52604160045260245ffd5b61056f82610529565b810181811067ffffffffffffffff8211171561058e5761058d610539565b5b80604052505050565b5f6105a0610518565b90506105ac8282610566565b919050565b5f80fd5b5f67ffffffffffffffff8211156105cf576105ce610539565b5b602082029050919050565b5f80fd5b5f63ffffffff82169050919050565b6105f6816105de565b8114610600575f80fd5b50565b5f81359050610611816105ed565b92915050565b5f610629610624846105b5565b610597565b90508060208402830185811115610643576106426105da565b5b835b8181101561066c57806106588882610603565b845260208401935050602081019050610645565b5050509392505050565b5f82601f83011261068a576106896105b1565b5b6004610697848285610617565b91505092915050565b5f60a082840312156106b5576106b4610525565b5b6106bf6040610597565b90505f6106ce84828501610676565b5f8301525060806106e184828501610603565b60208301525092915050565b5f805f60e0848603121561070457610703610521565b5b5f610711868287016106a0565b93505060a061072286828701610603565b92505060c061073386828701610603565b9150509250925092565b5f60049050919050565b5f81905092915050565b5f819050919050565b610763816105de565b82525050565b5f610774838361075a565b60208301905092915050565b5f602082019050919050565b6107958161073d565b61079f8184610747565b92506107aa82610751565b805f5b838110156107da5781516107c18782610769565b96506107cc83610780565b9250506001810190506107ad565b505050505050565b60a082015f8201516107f65f85018261078c565b506020820151610809608085018261075a565b50505050565b5f60a0820190506108225f8301846107e2565b92915050565b5f6fffffffffffffffffffffffffffffffff82169050919050565b61084c81610828565b8114610856575f80fd5b50565b5f8135905061086781610843565b92915050565b5f6020828403121561088257610881610521565b5b5f61088f84828501610859565b91505092915050565b5f8060c083850312156108ae576108ad610521565b5b5f6108bb858286016106a0565b92505060a06108cc85828601610603565b9150509250929050565b5f7fffffffffffffffffffffffffffffffff0000000000000000000000000000000082169050919050565b61090a816108d6565b8114610914575f80fd5b50565b5f8135905061092581610901565b92915050565b5f602082840312156109405761093f610521565b5b5f61094d84828501610917565b91505092915050565b5f60a0828403121561096b5761096a610521565b5b5f610978848285016106a0565b91505092915050565b5f73ffffffffffffffffffffffffffffffffffffffff82169050919050565b5f6109aa82610981565b9050919050565b6109ba816109a0565b81146109c4575f80fd5b50565b5f813590506109d5816109b1565b92915050565b5f819050919050565b6109ed816109db565b81146109f7575f80fd5b50565b5f81359050610a08816109e4565b92915050565b5f805f8060808587031215610a2657610a25610521565b5b5f610a33878288016109c7565b9450506020610a44878288016109c7565b9350506040610a55878288016109fa565b9250506060610a66878288016109fa565b91505092959194509250565b610a7b81610828565b82525050565b5f602082019050610a945f830184610a72565b92915050565b7f4e487b71000000000000000000000000000000000000000000000000000000005f52601160045260245ffd5b5f610ad1826105de565b9150610adc836105de565b9250828203905063ffffffff811115610af857610af7610a9a565b5b92915050565b7f4e487b71000000000000000000000000000000000000000000000000000000005f52601260045260245ffd5b5f610b35826105de565b9150610b40836105de565b925082610b5057610b4f610afe565b5b828206905092915050565b5f610b65826105de565b9150610b70836105de565b9250828201905063ffffffff811115610b8c57610b8b610a9a565b5b92915050565b5f610b9c826109db565b9150610ba7836109db565b9250828202610bb5816109db565b91508282048414831517610bcc57610bcb610a9a565b5b5092915050565b5f610bdd826109db565b9150610be8836109db565b9250828203905081811115610c0057610bff610a9a565b5b92915050565b7f4e487b71000000000000000000000000000000000000000000000000000000005f52603260045260245ffd5b5f610c3d826109db565b91507fffffffffffffffffffffffffffffffffffffffffffffffffffffffffffffffff8203610c6f57610c6e610a9a565b5b600182019050919050565b5f819050919050565b5f819050919050565b610c9d610c9882610c7a565b610c83565b82525050565b5f8160601b9050919050565b5f610cb982610ca3565b9050919050565b5f610cca82610caf565b9050919050565b610ce2610cdd826109a0565b610cc0565b82525050565b5f819050919050565b610d02610cfd826109db565b610ce8565b82525050565b5f81905092915050565b7f62612d64756d2d747373000000000000000000000000000000000000000000005f82015250565b5f610d46600a83610d08565b9150610d5182610d12565b600a82019050919050565b5f610d678287610c8c565b602082019150610d778286610cd1565b601482019150610d878285610cd1565b601482019150610d978284610cf1565b602082019150610da682610d3a565b91508190509594505050505056fea2646970667358221220143b4b6fcb72d9d7c58d65a79fcb48e283dab4fc315ef078c77dd19632d5c82f64736f6c63430008140033",
					"opcodes": "PUSH1 0x80 PUSH1 0x40 MSTORE CALLVALUE DUP1 ISZERO PUSH2 0xF JUMPI PUSH0 DUP1 REVERT JUMPDEST POP PUSH2 0xDEA DUP1 PUSH2 0x1D PUSH0 CODECOPY PUSH0 RETURN INVALID PUSH1 0x80 PUSH1 0x40 MSTORE CALLVALUE DUP1 ISZERO PUSH2 0xF JUMPI PUSH0 DUP1 REVERT JUMPDEST POP PUSH1 0x4 CALLDATASIZE LT PUSH2 0x60 JUMPI PUSH0 CALLDATALOAD PUSH1 0xE0 SHR DUP1 PUSH4 0x290F1050 EQ PUSH2 0x64 JUMPI DUP1 PUSH4 0x56DB9EF1 EQ PUSH2 0x94 JUMPI DUP1 PUSH4 0x591E5735 EQ PUSH2 0xC4 JUMPI DUP1 PUSH4 0xBD33D1E3 EQ PUSH2 0xF4 JUMPI DUP1 PUSH4 0xBE1CFCC4 EQ PUSH2 0x124 JUMPI DUP1 PUSH4 0xF192D0E7 EQ PUSH2 0x154 JUMPI JUMPDEST PUSH0 DUP1 REVERT JUMPDEST PUSH2 0x7E PUSH1 0x4 DUP1 CALLDATASIZE SUB DUP2 ADD SWAP1 PUSH2 0x79 SWAP2 SWAP1 PUSH2 0x6ED JUMP JUMPDEST PUSH2 0x184 JUMP JUMPDEST PUSH1 0x40 MLOAD PUSH2 0x8B SWAP2 SWAP1 PUSH2 0x80F JUMP JUMPDEST PUSH1 0x40 MLOAD DUP1 SWAP2 SUB SWAP1 RETURN JUMPDEST PUSH2 0xAE PUSH1 0x4 DUP1 CALLDATASIZE SUB DUP2 ADD SWAP1 PUSH2 0xA9 SWAP2 SWAP1 PUSH2 0x86D JUMP JUMPDEST PUSH2 0x1DE JUMP JUMPDEST PUSH1 0x40 MLOAD PUSH2 0xBB SWAP2 SWAP1 PUSH2 0x80F JUMP JUMPDEST PUSH1 0x40 MLOAD DUP1 SWAP2 SUB SWAP1 RETURN JUMPDEST PUSH2 0xDE PUSH1 0x4 DUP1 CALLDATASIZE SUB DUP2 ADD SWAP1 PUSH2 0xD9 SWAP2 SWAP1 PUSH2 0x898 JUMP JUMPDEST PUSH2 0x28F JUMP JUMPDEST PUSH1 0x40 MLOAD PUSH2 0xEB SWAP2 SWAP1 PUSH2 0x80F JUMP JUMPDEST PUSH1 0x40 MLOAD DUP1 SWAP2 SUB SWAP1 RETURN JUMPDEST PUSH2 0x10E PUSH1 0x4 DUP1 CALLDATASIZE SUB DUP2 ADD SWAP1 PUSH2 0x109 SWAP2 SWAP1 PUSH2 0x92B JUMP JUMPDEST PUSH2 0x2D2 JUMP JUMPDEST PUSH1 0x40 MLOAD PUSH2 0x11B SWAP2 SWAP1 PUSH2 0x80F JUMP JUMPDEST PUSH1 0x40 MLOAD DUP1 SWAP2 SUB SWAP1 RETURN JUMPDEST PUSH2 0x13E PUSH1 0x4 DUP1 CALLDATASIZE SUB DUP2 ADD SWAP1 PUSH2 0x139 SWAP2 SWAP1 PUSH2 0x956 JUMP JUMPDEST PUSH2 0x2ED JUMP JUMPDEST PUSH1 0x40 MLOAD PUSH2 0x14B SWAP2 SWAP1 PUSH2 0x80F JUMP JUMPDEST PUSH1 0x40 MLOAD DUP1 SWAP2 SUB SWAP1 RETURN JUMPDEST PUSH2 0x16E PUSH1 0x4 DUP1 CALLDATASIZE SUB DUP2 ADD SWAP1 PUSH2 0x169 SWAP2 SWAP1 PUSH2 0xA0E JUMP JUMPDEST PUSH2 0x489 JUMP JUMPDEST PUSH1 0x40 MLOAD PUSH2 0x17B SWAP2 SWAP1 PUSH2 0xA81 JUMP JUMPDEST PUSH1 0x40 MLOAD DUP1 SWAP2 SUB SWAP1 RETURN JUMPDEST PUSH2 0x18C PUSH2 0x4D1 JUMP JUMPDEST PUSH2 0x195 DUP5 PUSH2 0x2ED JUMP JUMPDEST SWAP4 POP DUP3 DUP3 PUSH2 0x1A3 SWAP2 SWAP1 PUSH2 0xAC7 JUMP JUMPDEST DUP5 PUSH1 0x20 ADD MLOAD PUSH2 0x1B2 SWAP2 SWAP1 PUSH2 0xB2B JUMP JUMPDEST DUP4 PUSH2 0x1BD SWAP2 SWAP1 PUSH2 0xB5B JUMP JUMPDEST DUP5 PUSH1 0x20 ADD SWAP1 PUSH4 0xFFFFFFFF AND SWAP1 DUP2 PUSH4 0xFFFFFFFF AND DUP2 MSTORE POP POP DUP4 SWAP1 POP SWAP4 SWAP3 POP POP POP JUMP JUMPDEST PUSH2 0x1E6 PUSH2 0x4D1 JUMP JUMPDEST PUSH2 0x1EE PUSH2 0x4D1 JUMP JUMPDEST PUSH0 JUMPDEST PUSH1 0x4 DUP2 LT ISZERO PUSH2 0x26D JUMPI PUSH4 0xFFFFFFFF DUP2 PUSH1 0x20 PUSH2 0x20B SWAP2 SWAP1 PUSH2 0xB92 JUMP JUMPDEST DUP6 PUSH16 0xFFFFFFFFFFFFFFFFFFFFFFFFFFFFFFFF AND SWAP1 SHR AND DUP3 PUSH0 ADD MLOAD DUP3 PUSH1 0x3 PUSH2 0x232 SWAP2 SWAP1 PUSH2 0xBD3 JUMP JUMPDEST PUSH1 0x4 DUP2 LT PUSH2 0x243 JUMPI PUSH2 0x242 PUSH2 0xC06 JUMP JUMPDEST JUMPDEST PUSH1 0x20 MUL ADD SWAP1 PUSH4 0xFFFFFFFF AND SWAP1 DUP2 PUSH4 0xFFFFFFFF AND DUP2 MSTORE POP POP DUP1 DUP1 PUSH2 0x265 SWAP1 PUSH2 0xC33 JUMP JUMPDEST SWAP2 POP POP PUSH2 0x1F0 JUMP JUMPDEST POP PUSH0 DUP2 PUSH1 0x20 ADD SWAP1 PUSH4 0xFFFFFFFF AND SWAP1 DUP2 PUSH4 0xFFFFFFFF AND DUP2 MSTORE POP POP DUP1 SWAP2 POP POP SWAP2 SWAP1 POP JUMP JUMPDEST PUSH2 0x297 PUSH2 0x4D1 JUMP JUMPDEST PUSH2 0x2A0 DUP4 PUSH2 0x2ED JUMP JUMPDEST SWAP3 POP DUP2 DUP4 PUSH1 0x20 ADD MLOAD PUSH2 0x2B2 SWAP2 SWAP1 PUSH2 0xB2B JUMP JUMPDEST DUP4 PUSH1 0x20 ADD SWAP1 PUSH4 0xFFFFFFFF AND SWAP1 DUP2 PUSH4 0xFFFFFFFF AND DUP2 MSTORE POP POP DUP3 SWAP1 POP SWAP3 SWAP2 POP POP JUMP JUMPDEST PUSH2 0x2DA PUSH2 0x4D1 JUMP JUMPDEST PUSH2 0x2E6 DUP3 PUSH1 0x80 SHR PUSH2 0x1DE JUMP JUMPDEST SWAP1 POP SWAP2 SWAP1 POP JUMP JUMPDEST PUSH2 0x2F5 PUSH2 0x4D1 JUMP JUMPDEST PUSH0 DUP3 PUSH0 ADD MLOAD PUSH1 0x3 PUSH1 0x4 DUP2 LT PUSH2 0x30D JUMPI PUSH2 0x30C PUSH2 0xC06 JUMP JUMPDEST JUMPDEST PUSH1 0x20 MUL ADD MLOAD SWAP1 POP DUP3 PUSH0 ADD MLOAD PUSH1 0x2 PUSH1 0x4 DUP2 LT PUSH2 0x32B JUMPI PUSH2 0x32A PUSH2 0xC06 JUMP JUMPDEST JUMPDEST PUSH1 0x20 MUL ADD MLOAD DUP4 PUSH0 ADD MLOAD PUSH1 0x3 PUSH1 0x4 DUP2 LT PUSH2 0x347 JUMPI PUSH2 0x346 PUSH2 0xC06 JUMP JUMPDEST JUMPDEST PUSH1 0x20 MUL ADD SWAP1 PUSH4 0xFFFFFFFF AND SWAP1 DUP2 PUSH4 0xFFFFFFFF AND DUP2 MSTORE POP POP DUP3 PUSH0 ADD MLOAD PUSH1 0x1 PUSH1 0x4 DUP2 LT PUSH2 0x375 JUMPI PUSH2 0x374 PUSH2 0xC06 JUMP JUMPDEST JUMPDEST PUSH1 0x20 MUL ADD MLOAD DUP4 PUSH0 ADD MLOAD PUSH1 0x2 PUSH1 0x4 DUP2 LT PUSH2 0x391 JUMPI PUSH2 0x390 PUSH2 0xC06 JUMP JUMPDEST JUMPDEST PUSH1 0x20 MUL ADD SWAP1 PUSH4 0xFFFFFFFF AND SWAP1 DUP2 PUSH4 0xFFFFFFFF AND DUP2 MSTORE POP POP DUP3 PUSH0 ADD MLOAD PUSH0 PUSH1 0x4 DUP2 LT PUSH2 0x3BE JUMPI PUSH2 0x3BD PUSH2 0xC06 JUMP JUMPDEST JUMPDEST PUSH1 0x20 MUL ADD MLOAD DUP4 PUSH0 ADD MLOAD PUSH1 0x1 PUSH1 0x4 DUP2 LT PUSH2 0x3DA JUMPI PUSH2 0x3D9 PUSH2 0xC06 JUMP JUMPDEST JUMPDEST PUSH1 0x20 MUL ADD SWAP1 PUSH4 0xFFFFFFFF AND SWAP1 DUP2 PUSH4 0xFFFFFFFF AND DUP2 MSTORE POP POP PUSH0 DUP4 PUSH0 ADD MLOAD PUSH0 PUSH1 0x4 DUP2 LT PUSH2 0x408 JUMPI PUSH2 0x407 PUSH2 0xC06 JUMP JUMPDEST JUMPDEST PUSH1 0x20 MUL ADD MLOAD SWAP1 POP PUSH1 0xB DUP3 PUSH4 0xFFFFFFFF AND SWAP1 SHL DUP3 XOR SWAP2 POP PUSH1 0x8 DUP3 PUSH4 0xFFFFFFFF AND SWAP1 SHR DUP3 XOR SWAP2 POP PUSH1 0x13 DUP2 PUSH4 0xFFFFFFFF AND SWAP1 SHR DUP2 DUP4 XOR XOR DUP5 PUSH0 ADD MLOAD PUSH0 PUSH1 0x4 DUP2 LT PUSH2 0x452 JUMPI PUSH2 0x451 PUSH2 0xC06 JUMP JUMPDEST JUMPDEST PUSH1 0x20 MUL ADD SWAP1 PUSH4 0xFFFFFFFF AND SWAP1 DUP2 PUSH4 0xFFFFFFFF AND DUP2 MSTORE POP DUP5 PUSH1 0x20 ADD SWAP1 PUSH4 0xFFFFFFFF AND SWAP1 DUP2 PUSH4 0xFFFFFFFF AND DUP2 MSTORE POP POP DUP4 SWAP3 POP POP POP SWAP2 SWAP1 POP JUMP JUMPDEST PUSH0 PUSH1 0xB DUP4 PUSH2 0x497 SWAP2 SWAP1 PUSH2 0xBD3 JUMP JUMPDEST BLOCKHASH DUP6 DUP6 DUP5 PUSH1 0x40 MLOAD PUSH1 0x20 ADD PUSH2 0x4AE SWAP5 SWAP4 SWAP3 SWAP2 SWAP1 PUSH2 0xD5C JUMP JUMPDEST PUSH1 0x40 MLOAD PUSH1 0x20 DUP2 DUP4 SUB SUB DUP2 MSTORE SWAP1 PUSH1 0x40 MSTORE DUP1 MLOAD SWAP1 PUSH1 0x20 ADD KECCAK256 PUSH1 0x80 SHR SWAP1 POP SWAP5 SWAP4 POP POP POP POP JUMP JUMPDEST PUSH1 0x40 MLOAD DUP1 PUSH1 0x40 ADD PUSH1 0x40 MSTORE DUP1 PUSH2 0x4E4 PUSH2 0x4F6 JUMP JUMPDEST DUP2 MSTORE PUSH1 0x20 ADD PUSH0 PUSH4 0xFFFFFFFF AND DUP2 MSTORE POP SWAP1 JUMP JUMPDEST PUSH1 0x40 MLOAD DUP1 PUSH1 0x80 ADD PUSH1 0x40 MSTORE DUP1 PUSH1 0x4 SWAP1 PUSH1 0x20 DUP3 MUL DUP1 CALLDATASIZE DUP4 CALLDATACOPY DUP1 DUP3 ADD SWAP2 POP POP SWAP1 POP POP SWAP1 JUMP JUMPDEST PUSH0 PUSH1 0x40 MLOAD SWAP1 POP SWAP1 JUMP JUMPDEST PUSH0 DUP1 REVERT JUMPDEST PUSH0 DUP1 REVERT JUMPDEST PUSH0 PUSH1 0x1F NOT PUSH1 0x1F DUP4 ADD AND SWAP1 POP SWAP2 SWAP1 POP JUMP JUMPDEST PUSH32 0x4E487B7100000000000000000000000000000000000000000000000000000000 PUSH0 MSTORE PUSH1 0x41 PUSH1 0x4 MSTORE PUSH1 0x24 PUSH0 REVERT JUMPDEST PUSH2 0x56F DUP3 PUSH2 0x529 JUMP JUMPDEST DUP2 ADD DUP2 DUP2 LT PUSH8 0xFFFFFFFFFFFFFFFF DUP3 GT OR ISZERO PUSH2 0x58E JUMPI PUSH2 0x58D PUSH2 0x539 JUMP JUMPDEST JUMPDEST DUP1 PUSH1 0x40 MSTORE POP POP POP JUMP JUMPDEST PUSH0 PUSH2 0x5A0 PUSH2 0x518 JUMP JUMPDEST SWAP1 POP PUSH2 0x5AC DUP3 DUP3 PUSH2 0x566 JUMP JUMPDEST SWAP2 SWAP1 POP JUMP JUMPDEST PUSH0 DUP1 REVERT JUMPDEST PUSH0 PUSH8 0xFFFFFFFFFFFFFFFF DUP3 GT ISZERO PUSH2 0x5CF JUMPI PUSH2 0x5CE PUSH2 0x539 JUMP JUMPDEST JUMPDEST PUSH1 0x20 DUP3 MUL SWAP1 POP SWAP2 SWAP1 POP JUMP JUMPDEST PUSH0 DUP1 REVERT JUMPDEST PUSH0 PUSH4 0xFFFFFFFF DUP3 AND SWAP1 POP SWAP2 SWAP1 POP JUMP JUMPDEST PUSH2 0x5F6 DUP2 PUSH2 0x5DE JUMP JUMPDEST DUP2 EQ PUSH2 0x600 JUMPI PUSH0 DUP1 REVERT JUMPDEST POP JUMP JUMPDEST PUSH0 DUP2 CALLDATALOAD SWAP1 POP PUSH2 0x611 DUP2 PUSH2 0x5ED JUMP JUMPDEST SWAP3 SWAP2 POP POP JUMP JUMPDEST PUSH0 PUSH2 0x629 PUSH2 0x624 DUP5 PUSH2 0x5B5 JUMP JUMPDEST PUSH2 0x597 JUMP JUMPDEST SWAP1 POP DUP1 PUSH1 0x20 DUP5 MUL DUP4 ADD DUP6 DUP2 GT ISZERO PUSH2 0x643 JUMPI PUSH2 0x642 PUSH2 0x5DA JUMP JUMPDEST JUMPDEST DUP4 JUMPDEST DUP2 DUP2 LT ISZERO PUSH2 0x66C JUMPI DUP1 PUSH2 0x658 DUP9 DUP3 PUSH2 0x603 JUMP JUMPDEST DUP5 MSTORE PUSH1 0x20 DUP5 ADD SWAP4 POP POP PUSH1 0x20 DUP2 ADD SWAP1 POP PUSH2 0x645 JUMP JUMPDEST POP POP POP SWAP4 SWAP3 POP POP POP JUMP JUMPDEST PUSH0 DUP3 PUSH1 0x1F DUP4 ADD SLT PUSH2 0x68A JUMPI PUSH2 0x689 PUSH2 0x5B1 JUMP JUMPDEST JUMPDEST PUSH1 0x4 PUSH2 0x697 DUP5 DUP3 DUP6 PUSH2 0x617 JUMP JUMPDEST SWAP2 POP POP SWAP3 SWAP2 POP POP JUMP JUMPDEST PUSH0 PUSH1 0xA0 DUP3 DUP5 SUB SLT ISZERO PUSH2 0x6B5 JUMPI PUSH2 0x6B4 PUSH2 0x525 JUMP JUMPDEST JUMPDEST PUSH2 0x6BF PUSH1 0x40 PUSH2 0x597 JUMP JUMPDEST SWAP1 POP PUSH0 PUSH2 0x6CE DUP5 DUP3 DUP6 ADD PUSH2 0x676 JUMP JUMPDEST PUSH0 DUP4 ADD MSTORE POP PUSH1 0x80 PUSH2 0x6E1 DUP5 DUP3 DUP6 ADD PUSH2 0x603 JUMP JUMPDEST PUSH1 0x20 DUP4 ADD MSTORE POP SWAP3 SWAP2 POP POP JUMP JUMPDEST PUSH0 DUP1 PUSH0 PUSH1 0xE0 DUP5 DUP7 SUB SLT ISZERO PUSH2 0x704 JUMPI PUSH2 0x703 PUSH2 0x521 JUMP JUMPDEST JUMPDEST PUSH0 PUSH2 0x711 DUP7 DUP3 DUP8 ADD PUSH2 0x6A0 JUMP JUMPDEST SWAP4 POP POP PUSH1 0xA0 PUSH2 0x722 DUP7 DUP3 DUP8 ADD PUSH2 0x603 JUMP JUMPDEST SWAP3 POP POP PUSH1 0xC0 PUSH2 0x733 DUP7 DUP3 DUP8 ADD PUSH2 0x603 JUMP JUMPDEST SWAP2 POP POP SWAP3 POP SWAP3 POP SWAP3 JUMP JUMPDEST PUSH0 PUSH1 0x4 SWAP1 POP SWAP2 SWAP1 POP JUMP JUMPDEST PUSH0 DUP2 SWAP1 POP SWAP3 SWAP2 POP POP JUMP JUMPDEST PUSH0 DUP2 SWAP1 POP SWAP2 SWAP1 POP JUMP JUMPDEST PUSH2 0x763 DUP2 PUSH2 0x5DE JUMP JUMPDEST DUP3 MSTORE POP POP JUMP JUMPDEST PUSH0 PUSH2 0x774 DUP4 DUP4 PUSH2 0x75A JUMP JUMPDEST PUSH1 0x20 DUP4 ADD SWAP1 POP SWAP3 SWAP2 POP POP JUMP JUMPDEST PUSH0 PUSH1 0x20 DUP3 ADD SWAP1 POP SWAP2 SWAP1 POP JUMP JUMPDEST PUSH2 0x795 DUP2 PUSH2 0x73D JUMP JUMPDEST PUSH2 0x79F DUP2 DUP5 PUSH2 0x747 JUMP JUMPDEST SWAP3 POP PUSH2 0x7AA DUP3 PUSH2 0x751 JUMP JUMPDEST DUP1 PUSH0 JUMPDEST DUP4 DUP2 LT ISZERO PUSH2 0x7DA JUMPI DUP2 MLOAD PUSH2 0x7C1 DUP8 DUP3 PUSH2 0x769 JUMP JUMPDEST SWAP7 POP PUSH2 0x7CC DUP4 PUSH2 0x780 JUMP JUMPDEST SWAP3 POP POP PUSH1 0x1 DUP2 ADD SWAP1 POP PUSH2 0x7AD JUMP JUMPDEST POP POP POP POP POP POP JUMP JUMPDEST PUSH1 0xA0 DUP3 ADD PUSH0 DUP3 ADD MLOAD PUSH2 0x7F6 PUSH0 DUP6 ADD DUP3 PUSH2 0x78C JUMP JUMPDEST POP PUSH1 0x20 DUP3 ADD MLOAD PUSH2 0x809 PUSH1 0x80 DUP6 ADD DUP3 PUSH2 0x75A JUMP JUMPDEST POP POP POP POP JUMP JUMPDEST PUSH0 PUSH1 0xA0 DUP3 ADD SWAP1 POP PUSH2 0x822 PUSH0 DUP4 ADD DUP5 PUSH2 0x7E2 JUMP JUMPDEST SWAP3 SWAP2 POP POP JUMP JUMPDEST PUSH0 PUSH16 0xFFFFFFFFFFFFFFFFFFFFFFFFFFFFFFFF DUP3 AND SWAP1 POP SWAP2 SWAP1 POP JUMP JUMPDEST PUSH2 0x84C DUP2 PUSH2 0x828 JUMP JUMPDEST DUP2 EQ PUSH2 0x856 JUMPI PUSH0 DUP1 REVERT JUMPDEST POP JUMP JUMPDEST PUSH0 DUP2 CALLDATALOAD SWAP1 POP PUSH2 0x867 DUP2 PUSH2 0x843 JUMP JUMPDEST SWAP3 SWAP2 POP POP JUMP JUMPDEST PUSH0 PUSH1 0x20 DUP3 DUP5 SUB SLT ISZERO PUSH2 0x882 JUMPI PUSH2 0x881 PUSH2 0x521 JUMP JUMPDEST JUMPDEST PUSH0 PUSH2 0x88F DUP5 DUP3 DUP6 ADD PUSH2 0x859 JUMP JUMPDEST SWAP2 POP POP SWAP3 SWAP2 POP POP JUMP JUMPDEST PUSH0 DUP1 PUSH1 0xC0 DUP4 DUP6 SUB SLT ISZERO PUSH2 0x8AE JUMPI PUSH2 0x8AD PUSH2 0x521 JUMP JUMPDEST JUMPDEST PUSH0 PUSH2 0x8BB DUP6 DUP3 DUP7 ADD PUSH2 0x6A0 JUMP JUMPDEST SWAP3 POP POP PUSH1 0xA0 PUSH2 0x8CC DUP6 DUP3 DUP7 ADD PUSH2 0x603 JUMP JUMPDEST SWAP2 POP POP SWAP3 POP SWAP3 SWAP1 POP JUMP JUMPDEST PUSH0 PUSH32 0xFFFFFFFFFFFFFFFFFFFFFFFFFFFFFFFF00000000000000000000000000000000 DUP3 AND SWAP1 POP SWAP2 SWAP1 POP JUMP JUMPDEST PUSH2 0x90A DUP2 PUSH2 0x8D6 JUMP JUMPDEST DUP2 EQ PUSH2 0x914 JUMPI PUSH0 DUP1 REVERT JUMPDEST POP JUMP JUMPDEST PUSH0 DUP2 CALLDATALOAD SWAP1 POP PUSH2 0x925 DUP2 PUSH2 0x901 JUMP JUMPDEST SWAP3 SWAP2 POP POP JUMP JUMPDEST PUSH0 PUSH1 0x20 DUP3 DUP5 SUB SLT ISZERO PUSH2 0x940 JUMPI PUSH2 0x93F PUSH2 0x521 JUMP JUMPDEST JUMPDEST PUSH0 PUSH2 0x94D DUP5 DUP3 DUP6 ADD PUSH2 0x917 JUMP JUMPDEST SWAP2 POP POP SWAP3 SWAP2 POP POP JUMP JUMPDEST PUSH0 PUSH1 0xA0 DUP3 DUP5 SUB SLT ISZERO PUSH2 0x96B JUMPI PUSH2 0x96A PUSH2 0x521 JUMP JUMPDEST JUMPDEST PUSH0 PUSH2 0x978 DUP5 DUP3 DUP6 ADD PUSH2 0x6A0 JUMP JUMPDEST SWAP2 POP POP SWAP3 SWAP2 POP POP JUMP JUMPDEST PUSH0 PUSH20 0xFFFFFFFFFFFFFFFFFFFFFFFFFFFFFFFFFFFFFFFF DUP3 AND SWAP1 POP SWAP2 SWAP1 POP JUMP JUMPDEST PUSH0 PUSH2 0x9AA DUP3 PUSH2 0x981 JUMP JUMPDEST SWAP1 POP SWAP2 SWAP1 POP JUMP JUMPDEST PUSH2 0x9BA DUP2 PUSH2 0x9A0 JUMP JUMPDEST DUP2 EQ PUSH2 0x9C4 JUMPI PUSH0 DUP1 REVERT JUMPDEST POP JUMP JUMPDEST PUSH0 DUP2 CALLDATALOAD SWAP1 POP PUSH2 0x9D5 DUP2 PUSH2 0x9B1 JUMP JUMPDEST SWAP3 SWAP2 POP POP JUMP JUMPDEST PUSH0 DUP2 SWAP1 POP SWAP2 SWAP1 POP JUMP JUMPDEST PUSH2 0x9ED DUP2 PUSH2 0x9DB JUMP JUMPDEST DUP2 EQ PUSH2 0x9F7 JUMPI PUSH0 DUP1 REVERT JUMPDEST POP JUMP JUMPDEST PUSH0 DUP2 CALLDATALOAD SWAP1 POP PUSH2 0xA08 DUP2 PUSH2 0x9E4 JUMP JUMPDEST SWAP3 SWAP2 POP POP JUMP JUMPDEST PUSH0 DUP1 PUSH0 DUP1 PUSH1 0x80 DUP6 DUP8 SUB SLT ISZERO PUSH2 0xA26 JUMPI PUSH2 0xA25 PUSH2 0x521 JUMP JUMPDEST JUMPDEST PUSH0 PUSH2 0xA33 DUP8 DUP3 DUP9 ADD PUSH2 0x9C7 JUMP JUMPDEST SWAP5 POP POP PUSH1 0x20 PUSH2 0xA44 DUP8 DUP3 DUP9 ADD PUSH2 0x9C7 JUMP JUMPDEST SWAP4 POP POP PUSH1 0x40 PUSH2 0xA55 DUP8 DUP3 DUP9 ADD PUSH2 0x9FA JUMP JUMPDEST SWAP3 POP POP PUSH1 0x60 PUSH2 0xA66 DUP8 DUP3 DUP9 ADD PUSH2 0x9FA JUMP JUMPDEST SWAP2 POP POP SWAP3 SWAP6 SWAP2 SWAP5 POP SWAP3 POP JUMP JUMPDEST PUSH2 0xA7B DUP2 PUSH2 0x828 JUMP JUMPDEST DUP3 MSTORE POP POP JUMP JUMPDEST PUSH0 PUSH1 0x20 DUP3 ADD SWAP1 POP PUSH2 0xA94 PUSH0 DUP4 ADD DUP5 PUSH2 0xA72 JUMP JUMPDEST SWAP3 SWAP2 POP POP JUMP JUMPDEST PUSH32 0x4E487B7100000000000000000000000000000000000000000000000000000000 PUSH0 MSTORE PUSH1 0x11 PUSH1 0x4 MSTORE PUSH1 0x24 PUSH0 REVERT JUMPDEST PUSH0 PUSH2 0xAD1 DUP3 PUSH2 0x5DE JUMP JUMPDEST SWAP2 POP PUSH2 0xADC DUP4 PUSH2 0x5DE JUMP JUMPDEST SWAP3 POP DUP3 DUP3 SUB SWAP1 POP PUSH4 0xFFFFFFFF DUP2 GT ISZERO PUSH2 0xAF8 JUMPI PUSH2 0xAF7 PUSH2 0xA9A JUMP JUMPDEST JUMPDEST SWAP3 SWAP2 POP POP JUMP JUMPDEST PUSH32 0x4E487B7100000000000000000000000000000000000000000000000000000000 PUSH0 MSTORE PUSH1 0x12 PUSH1 0x4 MSTORE PUSH1 0x24 PUSH0 REVERT JUMPDEST PUSH0 PUSH2 0xB35 DUP3 PUSH2 0x5DE JUMP JUMPDEST SWAP2 POP PUSH2 0xB40 DUP4 PUSH2 0x5DE JUMP JUMPDEST SWAP3 POP DUP3 PUSH2 0xB50 JUMPI PUSH2 0xB4F PUSH2 0xAFE JUMP JUMPDEST JUMPDEST DUP3 DUP3 MOD SWAP1 POP SWAP3 SWAP2 POP POP JUMP JUMPDEST PUSH0 PUSH2 0xB65 DUP3 PUSH2 0x5DE JUMP JUMPDEST SWAP2 POP PUSH2 0xB70 DUP4 PUSH2 0x5DE JUMP JUMPDEST SWAP3 POP DUP3 DUP3 ADD SWAP1 POP PUSH4 0xFFFFFFFF DUP2 GT ISZERO PUSH2 0xB8C JUMPI PUSH2 0xB8B PUSH2 0xA9A JUMP JUMPDEST JUMPDEST SWAP3 SWAP2 POP POP JUMP JUMPDEST PUSH0 PUSH2 0xB9C DUP3 PUSH2 0x9DB JUMP JUMPDEST SWAP2 POP PUSH2 0xBA7 DUP4 PUSH2 0x9DB JUMP JUMPDEST SWAP3 POP DUP3 DUP3 MUL PUSH2 0xBB5 DUP2 PUSH2 0x9DB JUMP JUMPDEST SWAP2 POP DUP3 DUP3 DIV DUP5 EQ DUP4 ISZERO OR PUSH2 0xBCC JUMPI PUSH2 0xBCB PUSH2 0xA9A JUMP JUMPDEST JUMPDEST POP SWAP3 SWAP2 POP POP JUMP JUMPDEST PUSH0 PUSH2 0xBDD DUP3 PUSH2 0x9DB JUMP JUMPDEST SWAP2 POP PUSH2 0xBE8 DUP4 PUSH2 0x9DB JUMP JUMPDEST SWAP3 POP DUP3 DUP3 SUB SWAP1 POP DUP2 DUP2 GT ISZERO PUSH2 0xC00 JUMPI PUSH2 0xBFF PUSH2 0xA9A JUMP JUMPDEST JUMPDEST SWAP3 SWAP2 POP POP JUMP JUMPDEST PUSH32 0x4E487B7100000000000000000000000000000000000000000000000000000000 PUSH0 MSTORE PUSH1 0x32 PUSH1 0x4 MSTORE PUSH1 0x24 PUSH0 REVERT JUMPDEST PUSH0 PUSH2 0xC3D DUP3 PUSH2 0x9DB JUMP JUMPDEST SWAP2 POP PUSH32 0xFFFFFFFFFFFFFFFFFFFFFFFFFFFFFFFFFFFFFFFFFFFFFFFFFFFFFFFFFFFFFFFF DUP3 SUB PUSH2 0xC6F JUMPI PUSH2 0xC6E PUSH2 0xA9A JUMP JUMPDEST JUMPDEST PUSH1 0x1 DUP3 ADD SWAP1 POP SWAP2 SWAP1 POP JUMP JUMPDEST PUSH0 DUP2 SWAP1 POP SWAP2 SWAP1 POP JUMP JUMPDEST PUSH0 DUP2 SWAP1 POP SWAP2 SWAP1 POP JUMP JUMPDEST PUSH2 0xC9D PUSH2 0xC98 DUP3 PUSH2 0xC7A JUMP JUMPDEST PUSH2 0xC83 JUMP JUMPDEST DUP3 MSTORE POP POP JUMP JUMPDEST PUSH0 DUP2 PUSH1 0x60 SHL SWAP1 POP SWAP2 SWAP1 POP JUMP JUMPDEST PUSH0 PUSH2 0xCB9 DUP3 PUSH2 0xCA3 JUMP JUMPDEST SWAP1 POP SWAP2 SWAP1 POP JUMP JUMPDEST PUSH0 PUSH2 0xCCA DUP3 PUSH2 0xCAF JUMP JUMPDEST SWAP1 POP SWAP2 SWAP1 POP JUMP JUMPDEST PUSH2 0xCE2 PUSH2 0xCDD DUP3 PUSH2 0x9A0 JUMP JUMPDEST PUSH2 0xCC0 JUMP JUMPDEST DUP3 MSTORE POP POP JUMP JUMPDEST PUSH0 DUP2 SWAP1 POP SWAP2 SWAP1 POP JUMP JUMPDEST PUSH2 0xD02 PUSH2 0xCFD DUP3 PUSH2 0x9DB JUMP JUMPDEST PUSH2 0xCE8 JUMP JUMPDEST DUP3 MSTORE POP POP JUMP JUMPDEST PUSH0 DUP2 SWAP1 POP SWAP3 SWAP2 POP POP JUMP JUMPDEST PUSH32 0x62612D64756D2D74737300000000000000000000000000000000000000000000 PUSH0 DUP3 ADD MSTORE POP JUMP JUMPDEST PUSH0 PUSH2 0xD46 PUSH1 0xA DUP4 PUSH2 0xD08 JUMP JUMPDEST SWAP2 POP PUSH2 0xD51 DUP3 PUSH2 0xD12 JUMP JUMPDEST PUSH1 0xA DUP3 ADD SWAP1 POP SWAP2 SWAP1 POP JUMP JUMPDEST PUSH0 PUSH2 0xD67 DUP3 DUP8 PUSH2 0xC8C JUMP JUMPDEST PUSH1 0x20 DUP3 ADD SWAP2 POP PUSH2 0xD77 DUP3 DUP7 PUSH2 0xCD1 JUMP JUMPDEST PUSH1 0x14 DUP3 ADD SWAP2 POP PUSH2 0xD87 DUP3 DUP6 PUSH2 0xCD1 JUMP JUMPDEST PUSH1 0x14 DUP3 ADD SWAP2 POP PUSH2 0xD97 DUP3 DUP5 PUSH2 0xCF1 JUMP JUMPDEST PUSH1 0x20 DUP3 ADD SWAP2 POP PUSH2 0xDA6 DUP3 PUSH2 0xD3A JUMP JUMPDEST SWAP2 POP DUP2 SWAP1 POP SWAP6 SWAP5 POP POP POP POP POP JUMP INVALID LOG2 PUSH5 0x6970667358 0x22 SLT KECCAK256 EQ EXTCODESIZE 0x4B PUSH16 0xCB72D9D7C58D65A79FCB48E283DAB4FC BALANCE 0x5E CREATE PUSH25 0xC77DD19632D5C82F64736F6C63430008140033000000000000 "
				},
				"gasEstimates": {
					"creation": {
						"codeDepositCost": "712400",
						"executionCost": "745",
						"totalCost": "713145"
					},
					"external": {
						"getInt((uint32[4],uint32),uint32)": "infinite",
						"getIntRange((uint32[4],uint32),uint32,uint32)": "infinite",
						"getNextValue((uint32[4],uint32))": "infinite",
						"initialize(bytes16)": "infinite",
						"initialize(uint128)": "infinite",
						"makeSeed(address,address,uint256,uint256)": "infinite"
					}
				},
				"methodIdentifiers": {
					"getInt((uint32[4],uint32),uint32)": "591e5735",
					"getIntRange((uint32[4],uint32),uint32,uint32)": "290f1050",
					"getNextValue((uint32[4],uint32))": "be1cfcc4",
					"initialize(bytes16)": "bd33d1e3",
					"initialize(uint128)": "56db9ef1",
					"makeSeed(address,address,uint256,uint256)": "f192d0e7"
				}
			},
			"storageLayout": {
				"storage": [],
				"types": null
			},
			"userdoc": {
				"kind": "user",
				"methods": {},
				"version": 1
			}
		}
	}
}