{
	"data": {
		"bytecode": {
			"linkReferences": {},
			"object": "608060405234801562000010575f80fd5b5060405162003211380380620032118339818101604052810190620000369190620000e1565b805f806101000a81548173ffffffffffffffffffffffffffffffffffffffff021916908373ffffffffffffffffffffffffffffffffffffffff1602179055505062000111565b5f80fd5b5f73ffffffffffffffffffffffffffffffffffffffff82169050919050565b5f620000ab8262000080565b9050919050565b620000bd816200009f565b8114620000c8575f80fd5b50565b5f81519050620000db81620000b2565b92915050565b5f60208284031215620000f957620000f86200007c565b5b5f6200010884828501620000cb565b91505092915050565b6130f2806200011f5f395ff3fe608060405234801561000f575f80fd5b5060043610610034575f3560e01c80639e36c58514610038578063a654ca6114610068575b5f80fd5b610052600480360381019061004d919061224a565b610098565b60405161005f9190612312565b60405180910390f35b610082600480360381019061007d9190612332565b611bd2565b60405161008f919061240e565b60405180910390f35b60605f805f9054906101000a900473ffffffffffffffffffffffffffffffffffffffff1673ffffffffffffffffffffffffffffffffffffffff166356db9ef1856040518263ffffffff1660e01b81526004016100f49190612436565b60a060405180830381865afa15801561010f573d5f803e3d5ffd5b505050506040513d601f19601f820116820180604052508101906101339190612607565b90505f61013f84611bd2565b905060605f8054906101000a900473ffffffffffffffffffffffffffffffffffffffff1673ffffffffffffffffffffffffffffffffffffffff1663591e573584845f6006811061019257610191612632565b5b60200201516040518363ffffffff1660e01b81526004016101b492919061276a565b60a060405180830381865afa1580156101cf573d5f803e3d5ffd5b505050506040513d601f19601f820116820180604052508101906101f39190612607565b92505f836020015190508161020d8263ffffffff16611e7c565b60405160200161021e929190612859565b60405160208183030381529060405291505f8054906101000a900473ffffffffffffffffffffffffffffffffffffffff1673ffffffffffffffffffffffffffffffffffffffff1663290f1050858560026006811061027f5761027e612632565b5b602002015160018760036006811061029a57610299612632565b5b60200201516102a991906128b4565b6040518463ffffffff1660e01b81526004016102c7939291906128e8565b60a060405180830381865afa1580156102e2573d5f803e3d5ffd5b505050506040513d601f19601f820116820180604052508101906103069190612607565b93505f846020015190505f81600361031e919061291d565b600961032a9190612959565b90505f8163ffffffff1667ffffffffffffffff81111561034d5761034c612453565b5b60405190808252806020026020018201604052801561037b5781602001602082028036833780820191505090505b5090505f8660056006811061039357610392612632565b5b602002015160ff1667ffffffffffffffff8111156103b4576103b3612453565b5b6040519080825280602002602001820160405280156103e25781602001602082028036833780820191505090505b5090505f5b82518163ffffffff16101561043d5780838263ffffffff16815181106104105761040f612632565b5b602002602001019063ffffffff16908163ffffffff1681525050808061043590612990565b9150506103e7565b505f5b81518163ffffffff161015610590575f8054906101000a900473ffffffffffffffffffffffffffffffffffffffff1673ffffffffffffffffffffffffffffffffffffffff1663290f10508a8386516040518463ffffffff1660e01b81526004016104ac939291906129ca565b60a060405180830381865afa1580156104c7573d5f803e3d5ffd5b505050506040513d601f19601f820116820180604052508101906104eb9190612607565b985082896020015163ffffffff168151811061050a57610509612632565b5b6020026020010151828263ffffffff168151811061052b5761052a612632565b5b602002602001019063ffffffff16908163ffffffff168152505080838a6020015163ffffffff168151811061056357610562612632565b5b602002602001019063ffffffff16908163ffffffff1681525050808061058890612990565b915050610440565b505f806108798a83806105a2906129ff565b9450855f8b63ffffffff161461083d5760018b63ffffffff16146108015760028b63ffffffff16146107c55760038b63ffffffff16146107895760048b63ffffffff161461074d5760058b63ffffffff16146107115760068b63ffffffff16146106d55760078b63ffffffff16146106995760088b63ffffffff161461065d576040518060400160405280600a81526020017f3031323334353637384100000000000000000000000000000000000000000000815250610694565b6040518060400160405280600381526020017f30343500000000000000000000000000000000000000000000000000000000008152505b6106d0565b6040518060400160405280600781526020017f30313233363741000000000000000000000000000000000000000000000000008152505b61070c565b6040518060400160405280600881526020017f30313233343537410000000000000000000000000000000000000000000000008152505b610748565b6040518060400160405280600681526020017f30313334354100000000000000000000000000000000000000000000000000008152505b610784565b6040518060400160405280600681526020017f30323334354100000000000000000000000000000000000000000000000000008152505b6107c0565b6040518060400160405280600681526020017f34393939393900000000000000000000000000000000000000000000000000008152505b6107fc565b6040518060400160405280600581526020017f30323435390000000000000000000000000000000000000000000000000000008152505b610838565b6040518060400160405280600881526020017f30313233363738410000000000000000000000000000000000000000000000008152505b610874565b6040518060400160405280600981526020017f30313233343536384100000000000000000000000000000000000000000000008152505b611fd5565b809250819b5050508781604051602001610894929190612abc565b604051602081830303815290604052975061093c8a83806108b4906129ff565b94508560038b63ffffffff1614610900576040518060400160405280600881526020017f3030303031313233000000000000000000000000000000000000000000000000815250610937565b6040518060400160405280600781526020017f30303030313132000000000000000000000000000000000000000000000000008152505b611fd5565b809250819b5050508781604051602001610957929190612b38565b6040516020818303038152906040529750610a498a8380610977906129ff565b94508560018b63ffffffff1614610a0d5760038b63ffffffff16146109d1576040518060400160405280600c81526020017f3031313232323333343536360000000000000000000000000000000000000000815250610a08565b6040518060400160405280600881526020017f30313132323233330000000000000000000000000000000000000000000000008152505b610a44565b6040518060400160405280600681526020017f30323232333300000000000000000000000000000000000000000000000000008152505b611fd5565b809250819b5050508781604051602001610a64929190612bb4565b6040516020818303038152906040529750610be98a8380610a84906129ff565b9450855f8b63ffffffff1614610bad5760038b63ffffffff1614610b715760068b63ffffffff1614610b355760078b63ffffffff1614610af9576040518060400160405280600681526020017f3031313131330000000000000000000000000000000000000000000000000000815250610b30565b6040518060400160405280600581526020017f30323232330000000000000000000000000000000000000000000000000000008152505b610b6c565b6040518060400160405280600581526020017f30323232330000000000000000000000000000000000000000000000000000008152505b610ba8565b6040518060400160405280600581526020017f30313131310000000000000000000000000000000000000000000000000000008152505b610be4565b6040518060400160405280600581526020017f30313131310000000000000000000000000000000000000000000000000000008152505b611fd5565b809250819b5050508781604051602001610c04929190612be6565b6040516020818303038152906040529750610cac8a8380610c24906129ff565b94508560038b63ffffffff1614610c70576040518060400160405280600d81526020017f3030303030303333333333333400000000000000000000000000000000000000815250610ca7565b6040518060400160405280600281526020017f30300000000000000000000000000000000000000000000000000000000000008152505b611fd5565b809250819b5050508781604051602001610cc7929190612be6565b6040516020818303038152906040529750610d6f8a8380610ce7906129ff565b94508560038b63ffffffff1614610d33576040518060400160405280600a81526020017f3030303030303131313100000000000000000000000000000000000000000000815250610d6a565b6040518060400160405280600281526020017f30300000000000000000000000000000000000000000000000000000000000008152505b611fd5565b809250819b5050508781604051602001610d8a929190612be6565b6040516020818303038152906040529750610de88a8380610daa906129ff565b9450856040518060400160405280600a81526020017f3030303030303031323300000000000000000000000000000000000000000000815250611fd5565b809250819b5050508781604051602001610e03929190612be6565b6040516020818303038152906040529750610f3f8a8380610e23906129ff565b94508560038b63ffffffff1614610f035760068b63ffffffff1614610ec75760088b63ffffffff1614610e8b576040518060400160405280601181526020017f3031313131313132333434343435353535000000000000000000000000000000815250610ec2565b6040518060400160405280600781526020017f35313535353434000000000000000000000000000000000000000000000000008152505b610efe565b6040518060400160405280601081526020017f30313131313131323434343435353535000000000000000000000000000000008152505b610f3a565b6040518060400160405280601081526020017f30313131313131323434343435353535000000000000000000000000000000008152505b611fd5565b809250819b5050508781604051602001610f5a929190612c57565b60405160208183030381529060405297506110e08a8380610f7a906129ff565b94508560018b63ffffffff16146110a45760028b63ffffffff16146110685760038b63ffffffff161461102c5760068b63ffffffff1614610ff0576040518060400160405280600381526020017f3031320000000000000000000000000000000000000000000000000000000000815250611027565b6040518060400160405280600381526020017f30313300000000000000000000000000000000000000000000000000000000008152505b611063565b6040518060400160405280600281526020017f30320000000000000000000000000000000000000000000000000000000000008152505b61109f565b6040518060400160405280600281526020017f30320000000000000000000000000000000000000000000000000000000000008152505b6110db565b6040518060400160405280600281526020017f30320000000000000000000000000000000000000000000000000000000000008152505b611fd5565b809250819b50505087816040516020016110fb929190612be6565b604051602081830303815290604052975061114c8a5f6040518060400160405280601081526020017f303132333435363738394142434445460000000000000000000000000000000081525061207f565b809250819b5050508781604051602001611167929190612cd3565b60405160208183030381529060405297506111b88a5f6040518060400160405280601081526020017f303132333435363738394142434445460000000000000000000000000000000081525061207f565b809250819b50505087816040516020016111d3929190612be6565b60405160208183030381529060405297505f5b8663ffffffff168163ffffffff161015611bbe575f808263ffffffff1603611288576040518060400160405280600481526020017f43545150000000000000000000000000000000000000000000000000000000008152508b60016006811061125257611251612632565b5b602002015160ff168f6112659190612d32565b8151811061127657611275612632565b5b602001015160f81c60f81b905061139b565b5f8054906101000a900473ffffffffffffffffffffffffffffffffffffffff1673ffffffffffffffffffffffffffffffffffffffff1663591e57358d8d6001600681106112d8576112d7612632565b5b60200201516040518363ffffffff1660e01b81526004016112fa92919061276a565b60a060405180830381865afa158015611315573d5f803e3d5ffd5b505050506040513d601f19601f820116820180604052508101906113399190612607565b9b506040518060400160405280600481526020017f43545150000000000000000000000000000000000000000000000000000000008152508c6020015163ffffffff168151811061138d5761138c612632565b5b602001015160f81c60f81b90505b5f8054906101000a900473ffffffffffffffffffffffffffffffffffffffff1673ffffffffffffffffffffffffffffffffffffffff1663591e57358d8d6004600681106113eb576113ea612632565b5b60200201516040518363ffffffff1660e01b815260040161140d92919061276a565b60a060405180830381865afa158015611428573d5f803e3d5ffd5b505050506040513d601f19601f8201168201806040525081019061144c9190612607565b9b505f7f5400000000000000000000000000000000000000000000000000000000000000827effffffffffffffffffffffffffffffffffffffffffffffffffffffffffffff1916146115dd577f5100000000000000000000000000000000000000000000000000000000000000827effffffffffffffffffffffffffffffffffffffffffffffffffffffffffffff1916146115a1577f5000000000000000000000000000000000000000000000000000000000000000827effffffffffffffffffffffffffffffffffffffffffffffffffffffffffffff191614611565576040518060400160405280600881526020017f303030303030303000000000000000000000000000000000000000000000000081525061159c565b6040518060400160405280600881526020017f35363637383836350000000000000000000000000000000000000000000000008152505b6115d8565b6040518060400160405280600881526020017f30303131323230300000000000000000000000000000000000000000000000008152505b611614565b6040518060400160405280600881526020017f30343236313533370000000000000000000000000000000000000000000000008152505b8d6020015163ffffffff16815181106116305761162f612632565b5b602001015160f81c60f81b90508a828260405160200161165293929190612dac565b6040516020818303038152906040529a505f8363ffffffff161115611822576116b18d5f6040518060400160405280601081526020017f464643434d4d4d4d4d4d4d49494141410000000000000000000000000000000081525061207f565b809550819e5050508a846040516020016116cc929190612e39565b6040516020818303038152906040529a5061171d8d5f6040518060400160405280601081526020017f303132333435363738394142434445460000000000000000000000000000000081525061207f565b809550819e5050508a84604051602001611738929190612be6565b6040516020818303038152906040529a506117898d5f6040518060400160405280601081526020017f303132333435363738394142434445460000000000000000000000000000000081525061207f565b809550819e5050508a846040516020016117a4929190612be6565b6040516020818303038152906040529a506117f58d5f6040518060400160405280601081526020017f303132333435363738394142434445460000000000000000000000000000000081525061207f565b809550819e5050508a84604051602001611810929190612be6565b6040516020818303038152906040529a505b6118628d5f6040518060400160405280600481526020017f534444540000000000000000000000000000000000000000000000000000000081525061207f565b809550819e5050508a8460405160200161187d929190612eb5565b6040516020818303038152906040529a506118ce8d5f6040518060400160405280601081526020017f303132333435363738394142434445460000000000000000000000000000000081525061207f565b809550819e5050508a846040516020016118e9929190612be6565b6040516020818303038152906040529a5061193a8d5f6040518060400160405280601081526020017f303132333435363738394142434445460000000000000000000000000000000081525061207f565b809550819e5050508a84604051602001611955929190612be6565b6040516020818303038152906040529a506119b38d8680611975906129ff565b9750886040518060400160405280600381526020017f3031320000000000000000000000000000000000000000000000000000000000815250611fd5565b809550819e5050508a846040516020016119ce929190612f31565b6040516020818303038152906040529a50611a2c8d86806119ee906129ff565b9750886040518060400160405280600481526020017f3031323300000000000000000000000000000000000000000000000000000000815250611fd5565b809550819e5050508a84604051602001611a47929190612be6565b6040516020818303038152906040529a50611aa58d8680611a67906129ff565b9750886040518060400160405280600681526020017f3031313232330000000000000000000000000000000000000000000000000000815250611fd5565b809550819e5050508a84604051602001611ac0929190612be6565b6040516020818303038152906040529a50611b118d5f6040518060400160405280601081526020017f303132333435363738394142434445460000000000000000000000000000000081525061207f565b809550819e5050508a84604051602001611b2c929190612fad565b6040516020818303038152906040529a50611b7d8d5f6040518060400160405280601081526020017f303132333435363738394142434445460000000000000000000000000000000081525061207f565b809550819e5050508a84604051602001611b98929190612be6565b6040516020818303038152906040529a5050508080611bb690612990565b9150506111e6565b50879a505050505050505050505092915050565b611bda61215c565b6102ca821115611c30576040518060c00160405280600960ff168152602001600460ff168152602001600260ff168152602001600560ff168152602001600860ff168152602001600c60ff168152509050611e77565b610111821115611c86576040518060c00160405280600760ff168152602001600460ff168152602001600160ff168152602001600460ff168152602001600860ff168152602001600b60ff168152509050611e77565b6068821115611cdb576040518060c00160405280600560ff168152602001600460ff168152602001600160ff168152602001600360ff168152602001600860ff168152602001600a60ff168152509050611e77565b6028821115611d30576040518060c00160405280600460ff168152602001600460ff168152602001600160ff168152602001600260ff168152602001600460ff168152602001600960ff168152509050611e77565b600f821115611d85576040518060c00160405280600360ff168152602001600460ff168152602001600160ff168152602001600260ff168152602001600260ff168152602001600860ff168152509050611e77565b6006821115611dda576040518060c00160405280600260ff168152602001600360ff168152602001600160ff168152602001600160ff168152602001600160ff168152602001600760ff168152509050611e77565b6002821115611e2f576040518060c00160405280600160ff168152602001600360ff168152602001600160ff168152602001600160ff168152602001600160ff168152602001600660ff168152509050611e77565b6040518060c00160405280600160ff168152602001600360ff168152602001600160ff168152602001600160ff168152602001600160ff168152602001600560ff1681525090505b919050565b60605f8203611ec2576040518060400160405280600181526020017f30000000000000000000000000000000000000000000000000000000000000008152509050611fd0565b5f8290505f5b5f8214611ef1578080611eda90612fdf565b915050600a82611eea9190613026565b9150611ec8565b5f8167ffffffffffffffff811115611f0c57611f0b612453565b5b6040519080825280601f01601f191660200182016040528015611f3e5781602001600182028036833780820191505090505b5090505b5f8514611fc957600182611f569190613056565b9150600a85611f659190612d32565b6030611f719190613089565b60f81b818381518110611f8757611f86612632565b5b60200101907effffffffffffffffffffffffffffffffffffffffffffffffffffffffffffff191690815f1a905350600a85611fc29190613026565b9450611f42565b8093505050505b919050565b611fdd61217e565b5f805f90505b84518160ff16101561203057848160ff168151811061200557612004612632565b5b602002602001015163ffffffff168660ff160315612030578080612028906129ff565b915050611fe3565b84518160ff16036120645786845f8151811061204f5761204e612632565b5b602001015160f81c60f81b9250925050612076565b6120708760018661207f565b92509250505b94509492505050565b61208761217e565b5f805f9054906101000a900473ffffffffffffffffffffffffffffffffffffffff1673ffffffffffffffffffffffffffffffffffffffff1663290f1050868686516040518463ffffffff1660e01b81526004016120e6939291906129ca565b60a060405180830381865afa158015612101573d5f803e3d5ffd5b505050506040513d601f19601f820116820180604052508101906121259190612607565b94508483866020015163ffffffff168151811061214557612144612632565b5b602001015160f81c60f81b91509150935093915050565b6040518060c00160405280600690602082028036833780820191505090505090565b60405180604001604052806121916121a3565b81526020015f63ffffffff1681525090565b6040518060800160405280600490602082028036833780820191505090505090565b5f604051905090565b5f80fd5b5f6fffffffffffffffffffffffffffffffff82169050919050565b6121f6816121d2565b8114612200575f80fd5b50565b5f81359050612211816121ed565b92915050565b5f819050919050565b61222981612217565b8114612233575f80fd5b50565b5f8135905061224481612220565b92915050565b5f80604083850312156122605761225f6121ce565b5b5f61226d85828601612203565b925050602061227e85828601612236565b9150509250929050565b5f81519050919050565b5f82825260208201905092915050565b5f5b838110156122bf5780820151818401526020810190506122a4565b5f8484015250505050565b5f601f19601f8301169050919050565b5f6122e482612288565b6122ee8185612292565b93506122fe8185602086016122a2565b612307816122ca565b840191505092915050565b5f6020820190508181035f83015261232a81846122da565b905092915050565b5f60208284031215612347576123466121ce565b5b5f61235484828501612236565b91505092915050565b5f60069050919050565b5f81905092915050565b5f819050919050565b5f60ff82169050919050565b61238f8161237a565b82525050565b5f6123a08383612386565b60208301905092915050565b5f602082019050919050565b6123c18161235d565b6123cb8184612367565b92506123d682612371565b805f5b838110156124065781516123ed8782612395565b96506123f8836123ac565b9250506001810190506123d9565b505050505050565b5f60c0820190506124215f8301846123b8565b92915050565b612430816121d2565b82525050565b5f6020820190506124495f830184612427565b92915050565b5f80fd5b7f4e487b71000000000000000000000000000000000000000000000000000000005f52604160045260245ffd5b612489826122ca565b810181811067ffffffffffffffff821117156124a8576124a7612453565b5b80604052505050565b5f6124ba6121c5565b90506124c68282612480565b919050565b5f80fd5b5f67ffffffffffffffff8211156124e9576124e8612453565b5b602082029050919050565b5f80fd5b5f63ffffffff82169050919050565b612510816124f8565b811461251a575f80fd5b50565b5f8151905061252b81612507565b92915050565b5f61254361253e846124cf565b6124b1565b9050806020840283018581111561255d5761255c6124f4565b5b835b818110156125865780612572888261251d565b84526020840193505060208101905061255f565b5050509392505050565b5f82601f8301126125a4576125a36124cb565b5b60046125b1848285612531565b91505092915050565b5f60a082840312156125cf576125ce61244f565b5b6125d960406124b1565b90505f6125e884828501612590565b5f8301525060806125fb8482850161251d565b60208301525092915050565b5f60a0828403121561261c5761261b6121ce565b5b5f612629848285016125ba565b91505092915050565b7f4e487b71000000000000000000000000000000000000000000000000000000005f52603260045260245ffd5b5f60049050919050565b5f81905092915050565b5f819050919050565b612685816124f8565b82525050565b5f612696838361267c565b60208301905092915050565b5f602082019050919050565b6126b78161265f565b6126c18184612669565b92506126cc82612673565b805f5b838110156126fc5781516126e3878261268b565b96506126ee836126a2565b9250506001810190506126cf565b505050505050565b60a082015f8201516127185f8501826126ae565b50602082015161272b608085018261267c565b50505050565b5f819050919050565b5f61275461274f61274a8461237a565b612731565b6124f8565b9050919050565b6127648161273a565b82525050565b5f60c08201905061277d5f830185612704565b61278a60a083018461275b565b9392505050565b5f81519050919050565b5f81905092915050565b5f6127af82612791565b6127b9818561279b565b93506127c98185602086016122a2565b80840191505092915050565b5f81905092915050565b7f70610000000000000000000000000000000000000000000000000000000000005f82015250565b5f6128136002836127d5565b915061281e826127df565b600282019050919050565b5f61283382612288565b61283d81856127d5565b935061284d8185602086016122a2565b80840191505092915050565b5f61286482856127a5565b915061286f82612807565b915061287b8284612829565b91508190509392505050565b7f4e487b71000000000000000000000000000000000000000000000000000000005f52601160045260245ffd5b5f6128be8261237a565b91506128c98361237a565b9250828201905060ff8111156128e2576128e1612887565b5b92915050565b5f60e0820190506128fb5f830186612704565b61290860a083018561275b565b61291560c083018461275b565b949350505050565b5f612927826124f8565b9150612932836124f8565b9250828202612940816124f8565b915080821461295257612951612887565b5b5092915050565b5f612963826124f8565b915061296e836124f8565b9250828201905063ffffffff81111561298a57612989612887565b5b92915050565b5f61299a826124f8565b915063ffffffff82036129b0576129af612887565b5b600182019050919050565b6129c4816124f8565b82525050565b5f60e0820190506129dd5f830186612704565b6129ea60a08301856129bb565b6129f760c08301846129bb565b949350505050565b5f612a098261237a565b915060ff8203612a1c57612a1b612887565b5b600182019050919050565b7f2e626700000000000000000000000000000000000000000000000000000000005f82015250565b5f612a5b6003836127d5565b9150612a6682612a27565b600382019050919050565b5f7fff0000000000000000000000000000000000000000000000000000000000000082169050919050565b5f819050919050565b612ab6612ab182612a71565b612a9c565b82525050565b5f612ac782856127a5565b9150612ad282612a4f565b9150612ade8284612aa5565b6001820191508190509392505050565b7f2e6d6100000000000000000000000000000000000000000000000000000000005f82015250565b5f612b226003836127d5565b9150612b2d82612aee565b600382019050919050565b5f612b4382856127a5565b9150612b4e82612b16565b9150612b5a8284612aa5565b6001820191508190509392505050565b7f2e747200000000000000000000000000000000000000000000000000000000005f82015250565b5f612b9e6003836127d5565b9150612ba982612b6a565b600382019050919050565b5f612bbf82856127a5565b9150612bca82612b92565b9150612bd68284612aa5565b6001820191508190509392505050565b5f612bf182856127a5565b9150612bfd8284612aa5565b6001820191508190509392505050565b7f2e667800000000000000000000000000000000000000000000000000000000005f82015250565b5f612c416003836127d5565b9150612c4c82612c0d565b600382019050919050565b5f612c6282856127a5565b9150612c6d82612c35565b9150612c798284612aa5565b6001820191508190509392505050565b7f2e726e00000000000000000000000000000000000000000000000000000000005f82015250565b5f612cbd6003836127d5565b9150612cc882612c89565b600382019050919050565b5f612cde82856127a5565b9150612ce982612cb1565b9150612cf58284612aa5565b6001820191508190509392505050565b7f4e487b71000000000000000000000000000000000000000000000000000000005f52601260045260245ffd5b5f612d3c82612217565b9150612d4783612217565b925082612d5757612d56612d05565b5b828206905092915050565b7f2e736800000000000000000000000000000000000000000000000000000000005f82015250565b5f612d966003836127d5565b9150612da182612d62565b600382019050919050565b5f612db782866127a5565b9150612dc282612d8a565b9150612dce8285612aa5565b600182019150612dde8284612aa5565b600182019150819050949350505050565b7f66720000000000000000000000000000000000000000000000000000000000005f82015250565b5f612e236002836127d5565b9150612e2e82612def565b600282019050919050565b5f612e4482856127a5565b9150612e4f82612e17565b9150612e5b8284612aa5565b6001820191508190509392505050565b7f696e0000000000000000000000000000000000000000000000000000000000005f82015250565b5f612e9f6002836127d5565b9150612eaa82612e6b565b600282019050919050565b5f612ec082856127a5565b9150612ecb82612e93565b9150612ed78284612aa5565b6001820191508190509392505050565b7f73740000000000000000000000000000000000000000000000000000000000005f82015250565b5f612f1b6002836127d5565b9150612f2682612ee7565b600282019050919050565b5f612f3c82856127a5565b9150612f4782612f0f565b9150612f538284612aa5565b6001820191508190509392505050565b7f726e0000000000000000000000000000000000000000000000000000000000005f82015250565b5f612f976002836127d5565b9150612fa282612f63565b600282019050919050565b5f612fb882856127a5565b9150612fc382612f8b565b9150612fcf8284612aa5565b6001820191508190509392505050565b5f612fe982612217565b91507fffffffffffffffffffffffffffffffffffffffffffffffffffffffffffffffff820361301b5761301a612887565b5b600182019050919050565b5f61303082612217565b915061303b83612217565b92508261304b5761304a612d05565b5b828204905092915050565b5f61306082612217565b915061306b83612217565b925082820390508181111561308357613082612887565b5b92915050565b5f61309382612217565b915061309e83612217565b92508282019050808211156130b6576130b5612887565b5b9291505056fea2646970667358221220fc8e983cbb3d1f61075b8616542706009f119840877d388c1c7b4eca03d1637c64736f6c63430008140033",
			"opcodes": "PUSH1 0x80 PUSH1 0x40 MSTORE CALLVALUE DUP1 ISZERO PUSH3 0x10 JUMPI PUSH0 DUP1 REVERT JUMPDEST POP PUSH1 0x40 MLOAD PUSH3 0x3211 CODESIZE SUB DUP1 PUSH3 0x3211 DUP4 CODECOPY DUP2 DUP2 ADD PUSH1 0x40 MSTORE DUP2 ADD SWAP1 PUSH3 0x36 SWAP2 SWAP1 PUSH3 0xE1 JUMP JUMPDEST DUP1 PUSH0 DUP1 PUSH2 0x100 EXP DUP2 SLOAD DUP2 PUSH20 0xFFFFFFFFFFFFFFFFFFFFFFFFFFFFFFFFFFFFFFFF MUL NOT AND SWAP1 DUP4 PUSH20 0xFFFFFFFFFFFFFFFFFFFFFFFFFFFFFFFFFFFFFFFF AND MUL OR SWAP1 SSTORE POP POP PUSH3 0x111 JUMP JUMPDEST PUSH0 DUP1 REVERT JUMPDEST PUSH0 PUSH20 0xFFFFFFFFFFFFFFFFFFFFFFFFFFFFFFFFFFFFFFFF DUP3 AND SWAP1 POP SWAP2 SWAP1 POP JUMP JUMPDEST PUSH0 PUSH3 0xAB DUP3 PUSH3 0x80 JUMP JUMPDEST SWAP1 POP SWAP2 SWAP1 POP JUMP JUMPDEST PUSH3 0xBD DUP2 PUSH3 0x9F JUMP JUMPDEST DUP2 EQ PUSH3 0xC8 JUMPI PUSH0 DUP1 REVERT JUMPDEST POP JUMP JUMPDEST PUSH0 DUP2 MLOAD SWAP1 POP PUSH3 0xDB DUP2 PUSH3 0xB2 JUMP JUMPDEST SWAP3 SWAP2 POP POP JUMP JUMPDEST PUSH0 PUSH1 0x20 DUP3 DUP5 SUB SLT ISZERO PUSH3 0xF9 JUMPI PUSH3 0xF8 PUSH3 0x7C JUMP JUMPDEST JUMPDEST PUSH0 PUSH3 0x108 DUP5 DUP3 DUP6 ADD PUSH3 0xCB JUMP JUMPDEST SWAP2 POP POP SWAP3 SWAP2 POP POP JUMP JUMPDEST PUSH2 0x30F2 DUP1 PUSH3 0x11F PUSH0 CODECOPY PUSH0 RETURN INVALID PUSH1 0x80 PUSH1 0x40 MSTORE CALLVALUE DUP1 ISZERO PUSH2 0xF JUMPI PUSH0 DUP1 REVERT JUMPDEST POP PUSH1 0x4 CALLDATASIZE LT PUSH2 0x34 JUMPI PUSH0 CALLDATALOAD PUSH1 0xE0 SHR DUP1 PUSH4 0x9E36C585 EQ PUSH2 0x38 JUMPI DUP1 PUSH4 0xA654CA61 EQ PUSH2 0x68 JUMPI JUMPDEST PUSH0 DUP1 REVERT JUMPDEST PUSH2 0x52 PUSH1 0x4 DUP1 CALLDATASIZE SUB DUP2 ADD SWAP1 PUSH2 0x4D SWAP2 SWAP1 PUSH2 0x224A JUMP JUMPDEST PUSH2 0x98 JUMP JUMPDEST PUSH1 0x40 MLOAD PUSH2 0x5F SWAP2 SWAP1 PUSH2 0x2312 JUMP JUMPDEST PUSH1 0x40 MLOAD DUP1 SWAP2 SUB SWAP1 RETURN JUMPDEST PUSH2 0x82 PUSH1 0x4 DUP1 CALLDATASIZE SUB DUP2 ADD SWAP1 PUSH2 0x7D SWAP2 SWAP1 PUSH2 0x2332 JUMP JUMPDEST PUSH2 0x1BD2 JUMP JUMPDEST PUSH1 0x40 MLOAD PUSH2 0x8F SWAP2 SWAP1 PUSH2 0x240E JUMP JUMPDEST PUSH1 0x40 MLOAD DUP1 SWAP2 SUB SWAP1 RETURN JUMPDEST PUSH1 0x60 PUSH0 DUP1 PUSH0 SWAP1 SLOAD SWAP1 PUSH2 0x100 EXP SWAP1 DIV PUSH20 0xFFFFFFFFFFFFFFFFFFFFFFFFFFFFFFFFFFFFFFFF AND PUSH20 0xFFFFFFFFFFFFFFFFFFFFFFFFFFFFFFFFFFFFFFFF AND PUSH4 0x56DB9EF1 DUP6 PUSH1 0x40 MLOAD DUP3 PUSH4 0xFFFFFFFF AND PUSH1 0xE0 SHL DUP2 MSTORE PUSH1 0x4 ADD PUSH2 0xF4 SWAP2 SWAP1 PUSH2 0x2436 JUMP JUMPDEST PUSH1 0xA0 PUSH1 0x40 MLOAD DUP1 DUP4 SUB DUP2 DUP7 GAS STATICCALL ISZERO DUP1 ISZERO PUSH2 0x10F JUMPI RETURNDATASIZE PUSH0 DUP1 RETURNDATACOPY RETURNDATASIZE PUSH0 REVERT JUMPDEST POP POP POP POP PUSH1 0x40 MLOAD RETURNDATASIZE PUSH1 0x1F NOT PUSH1 0x1F DUP3 ADD AND DUP3 ADD DUP1 PUSH1 0x40 MSTORE POP DUP2 ADD SWAP1 PUSH2 0x133 SWAP2 SWAP1 PUSH2 0x2607 JUMP JUMPDEST SWAP1 POP PUSH0 PUSH2 0x13F DUP5 PUSH2 0x1BD2 JUMP JUMPDEST SWAP1 POP PUSH1 0x60 PUSH0 DUP1 SLOAD SWAP1 PUSH2 0x100 EXP SWAP1 DIV PUSH20 0xFFFFFFFFFFFFFFFFFFFFFFFFFFFFFFFFFFFFFFFF AND PUSH20 0xFFFFFFFFFFFFFFFFFFFFFFFFFFFFFFFFFFFFFFFF AND PUSH4 0x591E5735 DUP5 DUP5 PUSH0 PUSH1 0x6 DUP2 LT PUSH2 0x192 JUMPI PUSH2 0x191 PUSH2 0x2632 JUMP JUMPDEST JUMPDEST PUSH1 0x20 MUL ADD MLOAD PUSH1 0x40 MLOAD DUP4 PUSH4 0xFFFFFFFF AND PUSH1 0xE0 SHL DUP2 MSTORE PUSH1 0x4 ADD PUSH2 0x1B4 SWAP3 SWAP2 SWAP1 PUSH2 0x276A JUMP JUMPDEST PUSH1 0xA0 PUSH1 0x40 MLOAD DUP1 DUP4 SUB DUP2 DUP7 GAS STATICCALL ISZERO DUP1 ISZERO PUSH2 0x1CF JUMPI RETURNDATASIZE PUSH0 DUP1 RETURNDATACOPY RETURNDATASIZE PUSH0 REVERT JUMPDEST POP POP POP POP PUSH1 0x40 MLOAD RETURNDATASIZE PUSH1 0x1F NOT PUSH1 0x1F DUP3 ADD AND DUP3 ADD DUP1 PUSH1 0x40 MSTORE POP DUP2 ADD SWAP1 PUSH2 0x1F3 SWAP2 SWAP1 PUSH2 0x2607 JUMP JUMPDEST SWAP3 POP PUSH0 DUP4 PUSH1 0x20 ADD MLOAD SWAP1 POP DUP2 PUSH2 0x20D DUP3 PUSH4 0xFFFFFFFF AND PUSH2 0x1E7C JUMP JUMPDEST PUSH1 0x40 MLOAD PUSH1 0x20 ADD PUSH2 0x21E SWAP3 SWAP2 SWAP1 PUSH2 0x2859 JUMP JUMPDEST PUSH1 0x40 MLOAD PUSH1 0x20 DUP2 DUP4 SUB SUB DUP2 MSTORE SWAP1 PUSH1 0x40 MSTORE SWAP2 POP PUSH0 DUP1 SLOAD SWAP1 PUSH2 0x100 EXP SWAP1 DIV PUSH20 0xFFFFFFFFFFFFFFFFFFFFFFFFFFFFFFFFFFFFFFFF AND PUSH20 0xFFFFFFFFFFFFFFFFFFFFFFFFFFFFFFFFFFFFFFFF AND PUSH4 0x290F1050 DUP6 DUP6 PUSH1 0x2 PUSH1 0x6 DUP2 LT PUSH2 0x27F JUMPI PUSH2 0x27E PUSH2 0x2632 JUMP JUMPDEST JUMPDEST PUSH1 0x20 MUL ADD MLOAD PUSH1 0x1 DUP8 PUSH1 0x3 PUSH1 0x6 DUP2 LT PUSH2 0x29A JUMPI PUSH2 0x299 PUSH2 0x2632 JUMP JUMPDEST JUMPDEST PUSH1 0x20 MUL ADD MLOAD PUSH2 0x2A9 SWAP2 SWAP1 PUSH2 0x28B4 JUMP JUMPDEST PUSH1 0x40 MLOAD DUP5 PUSH4 0xFFFFFFFF AND PUSH1 0xE0 SHL DUP2 MSTORE PUSH1 0x4 ADD PUSH2 0x2C7 SWAP4 SWAP3 SWAP2 SWAP1 PUSH2 0x28E8 JUMP JUMPDEST PUSH1 0xA0 PUSH1 0x40 MLOAD DUP1 DUP4 SUB DUP2 DUP7 GAS STATICCALL ISZERO DUP1 ISZERO PUSH2 0x2E2 JUMPI RETURNDATASIZE PUSH0 DUP1 RETURNDATACOPY RETURNDATASIZE PUSH0 REVERT JUMPDEST POP POP POP POP PUSH1 0x40 MLOAD RETURNDATASIZE PUSH1 0x1F NOT PUSH1 0x1F DUP3 ADD AND DUP3 ADD DUP1 PUSH1 0x40 MSTORE POP DUP2 ADD SWAP1 PUSH2 0x306 SWAP2 SWAP1 PUSH2 0x2607 JUMP JUMPDEST SWAP4 POP PUSH0 DUP5 PUSH1 0x20 ADD MLOAD SWAP1 POP PUSH0 DUP2 PUSH1 0x3 PUSH2 0x31E SWAP2 SWAP1 PUSH2 0x291D JUMP JUMPDEST PUSH1 0x9 PUSH2 0x32A SWAP2 SWAP1 PUSH2 0x2959 JUMP JUMPDEST SWAP1 POP PUSH0 DUP2 PUSH4 0xFFFFFFFF AND PUSH8 0xFFFFFFFFFFFFFFFF DUP2 GT ISZERO PUSH2 0x34D JUMPI PUSH2 0x34C PUSH2 0x2453 JUMP JUMPDEST JUMPDEST PUSH1 0x40 MLOAD SWAP1 DUP1 DUP3 MSTORE DUP1 PUSH1 0x20 MUL PUSH1 0x20 ADD DUP3 ADD PUSH1 0x40 MSTORE DUP1 ISZERO PUSH2 0x37B JUMPI DUP2 PUSH1 0x20 ADD PUSH1 0x20 DUP3 MUL DUP1 CALLDATASIZE DUP4 CALLDATACOPY DUP1 DUP3 ADD SWAP2 POP POP SWAP1 POP JUMPDEST POP SWAP1 POP PUSH0 DUP7 PUSH1 0x5 PUSH1 0x6 DUP2 LT PUSH2 0x393 JUMPI PUSH2 0x392 PUSH2 0x2632 JUMP JUMPDEST JUMPDEST PUSH1 0x20 MUL ADD MLOAD PUSH1 0xFF AND PUSH8 0xFFFFFFFFFFFFFFFF DUP2 GT ISZERO PUSH2 0x3B4 JUMPI PUSH2 0x3B3 PUSH2 0x2453 JUMP JUMPDEST JUMPDEST PUSH1 0x40 MLOAD SWAP1 DUP1 DUP3 MSTORE DUP1 PUSH1 0x20 MUL PUSH1 0x20 ADD DUP3 ADD PUSH1 0x40 MSTORE DUP1 ISZERO PUSH2 0x3E2 JUMPI DUP2 PUSH1 0x20 ADD PUSH1 0x20 DUP3 MUL DUP1 CALLDATASIZE DUP4 CALLDATACOPY DUP1 DUP3 ADD SWAP2 POP POP SWAP1 POP JUMPDEST POP SWAP1 POP PUSH0 JUMPDEST DUP3 MLOAD DUP2 PUSH4 0xFFFFFFFF AND LT ISZERO PUSH2 0x43D JUMPI DUP1 DUP4 DUP3 PUSH4 0xFFFFFFFF AND DUP2 MLOAD DUP2 LT PUSH2 0x410 JUMPI PUSH2 0x40F PUSH2 0x2632 JUMP JUMPDEST JUMPDEST PUSH1 0x20 MUL PUSH1 0x20 ADD ADD SWAP1 PUSH4 0xFFFFFFFF AND SWAP1 DUP2 PUSH4 0xFFFFFFFF AND DUP2 MSTORE POP POP DUP1 DUP1 PUSH2 0x435 SWAP1 PUSH2 0x2990 JUMP JUMPDEST SWAP2 POP POP PUSH2 0x3E7 JUMP JUMPDEST POP PUSH0 JUMPDEST DUP2 MLOAD DUP2 PUSH4 0xFFFFFFFF AND LT ISZERO PUSH2 0x590 JUMPI PUSH0 DUP1 SLOAD SWAP1 PUSH2 0x100 EXP SWAP1 DIV PUSH20 0xFFFFFFFFFFFFFFFFFFFFFFFFFFFFFFFFFFFFFFFF AND PUSH20 0xFFFFFFFFFFFFFFFFFFFFFFFFFFFFFFFFFFFFFFFF AND PUSH4 0x290F1050 DUP11 DUP4 DUP7 MLOAD PUSH1 0x40 MLOAD DUP5 PUSH4 0xFFFFFFFF AND PUSH1 0xE0 SHL DUP2 MSTORE PUSH1 0x4 ADD PUSH2 0x4AC SWAP4 SWAP3 SWAP2 SWAP1 PUSH2 0x29CA JUMP JUMPDEST PUSH1 0xA0 PUSH1 0x40 MLOAD DUP1 DUP4 SUB DUP2 DUP7 GAS STATICCALL ISZERO DUP1 ISZERO PUSH2 0x4C7 JUMPI RETURNDATASIZE PUSH0 DUP1 RETURNDATACOPY RETURNDATASIZE PUSH0 REVERT JUMPDEST POP POP POP POP PUSH1 0x40 MLOAD RETURNDATASIZE PUSH1 0x1F NOT PUSH1 0x1F DUP3 ADD AND DUP3 ADD DUP1 PUSH1 0x40 MSTORE POP DUP2 ADD SWAP1 PUSH2 0x4EB SWAP2 SWAP1 PUSH2 0x2607 JUMP JUMPDEST SWAP9 POP DUP3 DUP10 PUSH1 0x20 ADD MLOAD PUSH4 0xFFFFFFFF AND DUP2 MLOAD DUP2 LT PUSH2 0x50A JUMPI PUSH2 0x509 PUSH2 0x2632 JUMP JUMPDEST JUMPDEST PUSH1 0x20 MUL PUSH1 0x20 ADD ADD MLOAD DUP3 DUP3 PUSH4 0xFFFFFFFF AND DUP2 MLOAD DUP2 LT PUSH2 0x52B JUMPI PUSH2 0x52A PUSH2 0x2632 JUMP JUMPDEST JUMPDEST PUSH1 0x20 MUL PUSH1 0x20 ADD ADD SWAP1 PUSH4 0xFFFFFFFF AND SWAP1 DUP2 PUSH4 0xFFFFFFFF AND DUP2 MSTORE POP POP DUP1 DUP4 DUP11 PUSH1 0x20 ADD MLOAD PUSH4 0xFFFFFFFF AND DUP2 MLOAD DUP2 LT PUSH2 0x563 JUMPI PUSH2 0x562 PUSH2 0x2632 JUMP JUMPDEST JUMPDEST PUSH1 0x20 MUL PUSH1 0x20 ADD ADD SWAP1 PUSH4 0xFFFFFFFF AND SWAP1 DUP2 PUSH4 0xFFFFFFFF AND DUP2 MSTORE POP POP DUP1 DUP1 PUSH2 0x588 SWAP1 PUSH2 0x2990 JUMP JUMPDEST SWAP2 POP POP PUSH2 0x440 JUMP JUMPDEST POP PUSH0 DUP1 PUSH2 0x879 DUP11 DUP4 DUP1 PUSH2 0x5A2 SWAP1 PUSH2 0x29FF JUMP JUMPDEST SWAP5 POP DUP6 PUSH0 DUP12 PUSH4 0xFFFFFFFF AND EQ PUSH2 0x83D JUMPI PUSH1 0x1 DUP12 PUSH4 0xFFFFFFFF AND EQ PUSH2 0x801 JUMPI PUSH1 0x2 DUP12 PUSH4 0xFFFFFFFF AND EQ PUSH2 0x7C5 JUMPI PUSH1 0x3 DUP12 PUSH4 0xFFFFFFFF AND EQ PUSH2 0x789 JUMPI PUSH1 0x4 DUP12 PUSH4 0xFFFFFFFF AND EQ PUSH2 0x74D JUMPI PUSH1 0x5 DUP12 PUSH4 0xFFFFFFFF AND EQ PUSH2 0x711 JUMPI PUSH1 0x6 DUP12 PUSH4 0xFFFFFFFF AND EQ PUSH2 0x6D5 JUMPI PUSH1 0x7 DUP12 PUSH4 0xFFFFFFFF AND EQ PUSH2 0x699 JUMPI PUSH1 0x8 DUP12 PUSH4 0xFFFFFFFF AND EQ PUSH2 0x65D JUMPI PUSH1 0x40 MLOAD DUP1 PUSH1 0x40 ADD PUSH1 0x40 MSTORE DUP1 PUSH1 0xA DUP2 MSTORE PUSH1 0x20 ADD PUSH32 0x3031323334353637384100000000000000000000000000000000000000000000 DUP2 MSTORE POP PUSH2 0x694 JUMP JUMPDEST PUSH1 0x40 MLOAD DUP1 PUSH1 0x40 ADD PUSH1 0x40 MSTORE DUP1 PUSH1 0x3 DUP2 MSTORE PUSH1 0x20 ADD PUSH32 0x3034350000000000000000000000000000000000000000000000000000000000 DUP2 MSTORE POP JUMPDEST PUSH2 0x6D0 JUMP JUMPDEST PUSH1 0x40 MLOAD DUP1 PUSH1 0x40 ADD PUSH1 0x40 MSTORE DUP1 PUSH1 0x7 DUP2 MSTORE PUSH1 0x20 ADD PUSH32 0x3031323336374100000000000000000000000000000000000000000000000000 DUP2 MSTORE POP JUMPDEST PUSH2 0x70C JUMP JUMPDEST PUSH1 0x40 MLOAD DUP1 PUSH1 0x40 ADD PUSH1 0x40 MSTORE DUP1 PUSH1 0x8 DUP2 MSTORE PUSH1 0x20 ADD PUSH32 0x3031323334353741000000000000000000000000000000000000000000000000 DUP2 MSTORE POP JUMPDEST PUSH2 0x748 JUMP JUMPDEST PUSH1 0x40 MLOAD DUP1 PUSH1 0x40 ADD PUSH1 0x40 MSTORE DUP1 PUSH1 0x6 DUP2 MSTORE PUSH1 0x20 ADD PUSH32 0x3031333435410000000000000000000000000000000000000000000000000000 DUP2 MSTORE POP JUMPDEST PUSH2 0x784 JUMP JUMPDEST PUSH1 0x40 MLOAD DUP1 PUSH1 0x40 ADD PUSH1 0x40 MSTORE DUP1 PUSH1 0x6 DUP2 MSTORE PUSH1 0x20 ADD PUSH32 0x3032333435410000000000000000000000000000000000000000000000000000 DUP2 MSTORE POP JUMPDEST PUSH2 0x7C0 JUMP JUMPDEST PUSH1 0x40 MLOAD DUP1 PUSH1 0x40 ADD PUSH1 0x40 MSTORE DUP1 PUSH1 0x6 DUP2 MSTORE PUSH1 0x20 ADD PUSH32 0x3439393939390000000000000000000000000000000000000000000000000000 DUP2 MSTORE POP JUMPDEST PUSH2 0x7FC JUMP JUMPDEST PUSH1 0x40 MLOAD DUP1 PUSH1 0x40 ADD PUSH1 0x40 MSTORE DUP1 PUSH1 0x5 DUP2 MSTORE PUSH1 0x20 ADD PUSH32 0x3032343539000000000000000000000000000000000000000000000000000000 DUP2 MSTORE POP JUMPDEST PUSH2 0x838 JUMP JUMPDEST PUSH1 0x40 MLOAD DUP1 PUSH1 0x40 ADD PUSH1 0x40 MSTORE DUP1 PUSH1 0x8 DUP2 MSTORE PUSH1 0x20 ADD PUSH32 0x3031323336373841000000000000000000000000000000000000000000000000 DUP2 MSTORE POP JUMPDEST PUSH2 0x874 JUMP JUMPDEST PUSH1 0x40 MLOAD DUP1 PUSH1 0x40 ADD PUSH1 0x40 MSTORE DUP1 PUSH1 0x9 DUP2 MSTORE PUSH1 0x20 ADD PUSH32 0x3031323334353638410000000000000000000000000000000000000000000000 DUP2 MSTORE POP JUMPDEST PUSH2 0x1FD5 JUMP JUMPDEST DUP1 SWAP3 POP DUP2 SWAP12 POP POP POP DUP8 DUP2 PUSH1 0x40 MLOAD PUSH1 0x20 ADD PUSH2 0x894 SWAP3 SWAP2 SWAP1 PUSH2 0x2ABC JUMP JUMPDEST PUSH1 0x40 MLOAD PUSH1 0x20 DUP2 DUP4 SUB SUB DUP2 MSTORE SWAP1 PUSH1 0x40 MSTORE SWAP8 POP PUSH2 0x93C DUP11 DUP4 DUP1 PUSH2 0x8B4 SWAP1 PUSH2 0x29FF JUMP JUMPDEST SWAP5 POP DUP6 PUSH1 0x3 DUP12 PUSH4 0xFFFFFFFF AND EQ PUSH2 0x900 JUMPI PUSH1 0x40 MLOAD DUP1 PUSH1 0x40 ADD PUSH1 0x40 MSTORE DUP1 PUSH1 0x8 DUP2 MSTORE PUSH1 0x20 ADD PUSH32 0x3030303031313233000000000000000000000000000000000000000000000000 DUP2 MSTORE POP PUSH2 0x937 JUMP JUMPDEST PUSH1 0x40 MLOAD DUP1 PUSH1 0x40 ADD PUSH1 0x40 MSTORE DUP1 PUSH1 0x7 DUP2 MSTORE PUSH1 0x20 ADD PUSH32 0x3030303031313200000000000000000000000000000000000000000000000000 DUP2 MSTORE POP JUMPDEST PUSH2 0x1FD5 JUMP JUMPDEST DUP1 SWAP3 POP DUP2 SWAP12 POP POP POP DUP8 DUP2 PUSH1 0x40 MLOAD PUSH1 0x20 ADD PUSH2 0x957 SWAP3 SWAP2 SWAP1 PUSH2 0x2B38 JUMP JUMPDEST PUSH1 0x40 MLOAD PUSH1 0x20 DUP2 DUP4 SUB SUB DUP2 MSTORE SWAP1 PUSH1 0x40 MSTORE SWAP8 POP PUSH2 0xA49 DUP11 DUP4 DUP1 PUSH2 0x977 SWAP1 PUSH2 0x29FF JUMP JUMPDEST SWAP5 POP DUP6 PUSH1 0x1 DUP12 PUSH4 0xFFFFFFFF AND EQ PUSH2 0xA0D JUMPI PUSH1 0x3 DUP12 PUSH4 0xFFFFFFFF AND EQ PUSH2 0x9D1 JUMPI PUSH1 0x40 MLOAD DUP1 PUSH1 0x40 ADD PUSH1 0x40 MSTORE DUP1 PUSH1 0xC DUP2 MSTORE PUSH1 0x20 ADD PUSH32 0x3031313232323333343536360000000000000000000000000000000000000000 DUP2 MSTORE POP PUSH2 0xA08 JUMP JUMPDEST PUSH1 0x40 MLOAD DUP1 PUSH1 0x40 ADD PUSH1 0x40 MSTORE DUP1 PUSH1 0x8 DUP2 MSTORE PUSH1 0x20 ADD PUSH32 0x3031313232323333000000000000000000000000000000000000000000000000 DUP2 MSTORE POP JUMPDEST PUSH2 0xA44 JUMP JUMPDEST PUSH1 0x40 MLOAD DUP1 PUSH1 0x40 ADD PUSH1 0x40 MSTORE DUP1 PUSH1 0x6 DUP2 MSTORE PUSH1 0x20 ADD PUSH32 0x3032323233330000000000000000000000000000000000000000000000000000 DUP2 MSTORE POP JUMPDEST PUSH2 0x1FD5 JUMP JUMPDEST DUP1 SWAP3 POP DUP2 SWAP12 POP POP POP DUP8 DUP2 PUSH1 0x40 MLOAD PUSH1 0x20 ADD PUSH2 0xA64 SWAP3 SWAP2 SWAP1 PUSH2 0x2BB4 JUMP JUMPDEST PUSH1 0x40 MLOAD PUSH1 0x20 DUP2 DUP4 SUB SUB DUP2 MSTORE SWAP1 PUSH1 0x40 MSTORE SWAP8 POP PUSH2 0xBE9 DUP11 DUP4 DUP1 PUSH2 0xA84 SWAP1 PUSH2 0x29FF JUMP JUMPDEST SWAP5 POP DUP6 PUSH0 DUP12 PUSH4 0xFFFFFFFF AND EQ PUSH2 0xBAD JUMPI PUSH1 0x3 DUP12 PUSH4 0xFFFFFFFF AND EQ PUSH2 0xB71 JUMPI PUSH1 0x6 DUP12 PUSH4 0xFFFFFFFF AND EQ PUSH2 0xB35 JUMPI PUSH1 0x7 DUP12 PUSH4 0xFFFFFFFF AND EQ PUSH2 0xAF9 JUMPI PUSH1 0x40 MLOAD DUP1 PUSH1 0x40 ADD PUSH1 0x40 MSTORE DUP1 PUSH1 0x6 DUP2 MSTORE PUSH1 0x20 ADD PUSH32 0x3031313131330000000000000000000000000000000000000000000000000000 DUP2 MSTORE POP PUSH2 0xB30 JUMP JUMPDEST PUSH1 0x40 MLOAD DUP1 PUSH1 0x40 ADD PUSH1 0x40 MSTORE DUP1 PUSH1 0x5 DUP2 MSTORE PUSH1 0x20 ADD PUSH32 0x3032323233000000000000000000000000000000000000000000000000000000 DUP2 MSTORE POP JUMPDEST PUSH2 0xB6C JUMP JUMPDEST PUSH1 0x40 MLOAD DUP1 PUSH1 0x40 ADD PUSH1 0x40 MSTORE DUP1 PUSH1 0x5 DUP2 MSTORE PUSH1 0x20 ADD PUSH32 0x3032323233000000000000000000000000000000000000000000000000000000 DUP2 MSTORE POP JUMPDEST PUSH2 0xBA8 JUMP JUMPDEST PUSH1 0x40 MLOAD DUP1 PUSH1 0x40 ADD PUSH1 0x40 MSTORE DUP1 PUSH1 0x5 DUP2 MSTORE PUSH1 0x20 ADD PUSH32 0x3031313131000000000000000000000000000000000000000000000000000000 DUP2 MSTORE POP JUMPDEST PUSH2 0xBE4 JUMP JUMPDEST PUSH1 0x40 MLOAD DUP1 PUSH1 0x40 ADD PUSH1 0x40 MSTORE DUP1 PUSH1 0x5 DUP2 MSTORE PUSH1 0x20 ADD PUSH32 0x3031313131000000000000000000000000000000000000000000000000000000 DUP2 MSTORE POP JUMPDEST PUSH2 0x1FD5 JUMP JUMPDEST DUP1 SWAP3 POP DUP2 SWAP12 POP POP POP DUP8 DUP2 PUSH1 0x40 MLOAD PUSH1 0x20 ADD PUSH2 0xC04 SWAP3 SWAP2 SWAP1 PUSH2 0x2BE6 JUMP JUMPDEST PUSH1 0x40 MLOAD PUSH1 0x20 DUP2 DUP4 SUB SUB DUP2 MSTORE SWAP1 PUSH1 0x40 MSTORE SWAP8 POP PUSH2 0xCAC DUP11 DUP4 DUP1 PUSH2 0xC24 SWAP1 PUSH2 0x29FF JUMP JUMPDEST SWAP5 POP DUP6 PUSH1 0x3 DUP12 PUSH4 0xFFFFFFFF AND EQ PUSH2 0xC70 JUMPI PUSH1 0x40 MLOAD DUP1 PUSH1 0x40 ADD PUSH1 0x40 MSTORE DUP1 PUSH1 0xD DUP2 MSTORE PUSH1 0x20 ADD PUSH32 0x3030303030303333333333333400000000000000000000000000000000000000 DUP2 MSTORE POP PUSH2 0xCA7 JUMP JUMPDEST PUSH1 0x40 MLOAD DUP1 PUSH1 0x40 ADD PUSH1 0x40 MSTORE DUP1 PUSH1 0x2 DUP2 MSTORE PUSH1 0x20 ADD PUSH32 0x3030000000000000000000000000000000000000000000000000000000000000 DUP2 MSTORE POP JUMPDEST PUSH2 0x1FD5 JUMP JUMPDEST DUP1 SWAP3 POP DUP2 SWAP12 POP POP POP DUP8 DUP2 PUSH1 0x40 MLOAD PUSH1 0x20 ADD PUSH2 0xCC7 SWAP3 SWAP2 SWAP1 PUSH2 0x2BE6 JUMP JUMPDEST PUSH1 0x40 MLOAD PUSH1 0x20 DUP2 DUP4 SUB SUB DUP2 MSTORE SWAP1 PUSH1 0x40 MSTORE SWAP8 POP PUSH2 0xD6F DUP11 DUP4 DUP1 PUSH2 0xCE7 SWAP1 PUSH2 0x29FF JUMP JUMPDEST SWAP5 POP DUP6 PUSH1 0x3 DUP12 PUSH4 0xFFFFFFFF AND EQ PUSH2 0xD33 JUMPI PUSH1 0x40 MLOAD DUP1 PUSH1 0x40 ADD PUSH1 0x40 MSTORE DUP1 PUSH1 0xA DUP2 MSTORE PUSH1 0x20 ADD PUSH32 0x3030303030303131313100000000000000000000000000000000000000000000 DUP2 MSTORE POP PUSH2 0xD6A JUMP JUMPDEST PUSH1 0x40 MLOAD DUP1 PUSH1 0x40 ADD PUSH1 0x40 MSTORE DUP1 PUSH1 0x2 DUP2 MSTORE PUSH1 0x20 ADD PUSH32 0x3030000000000000000000000000000000000000000000000000000000000000 DUP2 MSTORE POP JUMPDEST PUSH2 0x1FD5 JUMP JUMPDEST DUP1 SWAP3 POP DUP2 SWAP12 POP POP POP DUP8 DUP2 PUSH1 0x40 MLOAD PUSH1 0x20 ADD PUSH2 0xD8A SWAP3 SWAP2 SWAP1 PUSH2 0x2BE6 JUMP JUMPDEST PUSH1 0x40 MLOAD PUSH1 0x20 DUP2 DUP4 SUB SUB DUP2 MSTORE SWAP1 PUSH1 0x40 MSTORE SWAP8 POP PUSH2 0xDE8 DUP11 DUP4 DUP1 PUSH2 0xDAA SWAP1 PUSH2 0x29FF JUMP JUMPDEST SWAP5 POP DUP6 PUSH1 0x40 MLOAD DUP1 PUSH1 0x40 ADD PUSH1 0x40 MSTORE DUP1 PUSH1 0xA DUP2 MSTORE PUSH1 0x20 ADD PUSH32 0x3030303030303031323300000000000000000000000000000000000000000000 DUP2 MSTORE POP PUSH2 0x1FD5 JUMP JUMPDEST DUP1 SWAP3 POP DUP2 SWAP12 POP POP POP DUP8 DUP2 PUSH1 0x40 MLOAD PUSH1 0x20 ADD PUSH2 0xE03 SWAP3 SWAP2 SWAP1 PUSH2 0x2BE6 JUMP JUMPDEST PUSH1 0x40 MLOAD PUSH1 0x20 DUP2 DUP4 SUB SUB DUP2 MSTORE SWAP1 PUSH1 0x40 MSTORE SWAP8 POP PUSH2 0xF3F DUP11 DUP4 DUP1 PUSH2 0xE23 SWAP1 PUSH2 0x29FF JUMP JUMPDEST SWAP5 POP DUP6 PUSH1 0x3 DUP12 PUSH4 0xFFFFFFFF AND EQ PUSH2 0xF03 JUMPI PUSH1 0x6 DUP12 PUSH4 0xFFFFFFFF AND EQ PUSH2 0xEC7 JUMPI PUSH1 0x8 DUP12 PUSH4 0xFFFFFFFF AND EQ PUSH2 0xE8B JUMPI PUSH1 0x40 MLOAD DUP1 PUSH1 0x40 ADD PUSH1 0x40 MSTORE DUP1 PUSH1 0x11 DUP2 MSTORE PUSH1 0x20 ADD PUSH32 0x3031313131313132333434343435353535000000000000000000000000000000 DUP2 MSTORE POP PUSH2 0xEC2 JUMP JUMPDEST PUSH1 0x40 MLOAD DUP1 PUSH1 0x40 ADD PUSH1 0x40 MSTORE DUP1 PUSH1 0x7 DUP2 MSTORE PUSH1 0x20 ADD PUSH32 0x3531353535343400000000000000000000000000000000000000000000000000 DUP2 MSTORE POP JUMPDEST PUSH2 0xEFE JUMP JUMPDEST PUSH1 0x40 MLOAD DUP1 PUSH1 0x40 ADD PUSH1 0x40 MSTORE DUP1 PUSH1 0x10 DUP2 MSTORE PUSH1 0x20 ADD PUSH32 0x3031313131313132343434343535353500000000000000000000000000000000 DUP2 MSTORE POP JUMPDEST PUSH2 0xF3A JUMP JUMPDEST PUSH1 0x40 MLOAD DUP1 PUSH1 0x40 ADD PUSH1 0x40 MSTORE DUP1 PUSH1 0x10 DUP2 MSTORE PUSH1 0x20 ADD PUSH32 0x3031313131313132343434343535353500000000000000000000000000000000 DUP2 MSTORE POP JUMPDEST PUSH2 0x1FD5 JUMP JUMPDEST DUP1 SWAP3 POP DUP2 SWAP12 POP POP POP DUP8 DUP2 PUSH1 0x40 MLOAD PUSH1 0x20 ADD PUSH2 0xF5A SWAP3 SWAP2 SWAP1 PUSH2 0x2C57 JUMP JUMPDEST PUSH1 0x40 MLOAD PUSH1 0x20 DUP2 DUP4 SUB SUB DUP2 MSTORE SWAP1 PUSH1 0x40 MSTORE SWAP8 POP PUSH2 0x10E0 DUP11 DUP4 DUP1 PUSH2 0xF7A SWAP1 PUSH2 0x29FF JUMP JUMPDEST SWAP5 POP DUP6 PUSH1 0x1 DUP12 PUSH4 0xFFFFFFFF AND EQ PUSH2 0x10A4 JUMPI PUSH1 0x2 DUP12 PUSH4 0xFFFFFFFF AND EQ PUSH2 0x1068 JUMPI PUSH1 0x3 DUP12 PUSH4 0xFFFFFFFF AND EQ PUSH2 0x102C JUMPI PUSH1 0x6 DUP12 PUSH4 0xFFFFFFFF AND EQ PUSH2 0xFF0 JUMPI PUSH1 0x40 MLOAD DUP1 PUSH1 0x40 ADD PUSH1 0x40 MSTORE DUP1 PUSH1 0x3 DUP2 MSTORE PUSH1 0x20 ADD PUSH32 0x3031320000000000000000000000000000000000000000000000000000000000 DUP2 MSTORE POP PUSH2 0x1027 JUMP JUMPDEST PUSH1 0x40 MLOAD DUP1 PUSH1 0x40 ADD PUSH1 0x40 MSTORE DUP1 PUSH1 0x3 DUP2 MSTORE PUSH1 0x20 ADD PUSH32 0x3031330000000000000000000000000000000000000000000000000000000000 DUP2 MSTORE POP JUMPDEST PUSH2 0x1063 JUMP JUMPDEST PUSH1 0x40 MLOAD DUP1 PUSH1 0x40 ADD PUSH1 0x40 MSTORE DUP1 PUSH1 0x2 DUP2 MSTORE PUSH1 0x20 ADD PUSH32 0x3032000000000000000000000000000000000000000000000000000000000000 DUP2 MSTORE POP JUMPDEST PUSH2 0x109F JUMP JUMPDEST PUSH1 0x40 MLOAD DUP1 PUSH1 0x40 ADD PUSH1 0x40 MSTORE DUP1 PUSH1 0x2 DUP2 MSTORE PUSH1 0x20 ADD PUSH32 0x3032000000000000000000000000000000000000000000000000000000000000 DUP2 MSTORE POP JUMPDEST PUSH2 0x10DB JUMP JUMPDEST PUSH1 0x40 MLOAD DUP1 PUSH1 0x40 ADD PUSH1 0x40 MSTORE DUP1 PUSH1 0x2 DUP2 MSTORE PUSH1 0x20 ADD PUSH32 0x3032000000000000000000000000000000000000000000000000000000000000 DUP2 MSTORE POP JUMPDEST PUSH2 0x1FD5 JUMP JUMPDEST DUP1 SWAP3 POP DUP2 SWAP12 POP POP POP DUP8 DUP2 PUSH1 0x40 MLOAD PUSH1 0x20 ADD PUSH2 0x10FB SWAP3 SWAP2 SWAP1 PUSH2 0x2BE6 JUMP JUMPDEST PUSH1 0x40 MLOAD PUSH1 0x20 DUP2 DUP4 SUB SUB DUP2 MSTORE SWAP1 PUSH1 0x40 MSTORE SWAP8 POP PUSH2 0x114C DUP11 PUSH0 PUSH1 0x40 MLOAD DUP1 PUSH1 0x40 ADD PUSH1 0x40 MSTORE DUP1 PUSH1 0x10 DUP2 MSTORE PUSH1 0x20 ADD PUSH32 0x3031323334353637383941424344454600000000000000000000000000000000 DUP2 MSTORE POP PUSH2 0x207F JUMP JUMPDEST DUP1 SWAP3 POP DUP2 SWAP12 POP POP POP DUP8 DUP2 PUSH1 0x40 MLOAD PUSH1 0x20 ADD PUSH2 0x1167 SWAP3 SWAP2 SWAP1 PUSH2 0x2CD3 JUMP JUMPDEST PUSH1 0x40 MLOAD PUSH1 0x20 DUP2 DUP4 SUB SUB DUP2 MSTORE SWAP1 PUSH1 0x40 MSTORE SWAP8 POP PUSH2 0x11B8 DUP11 PUSH0 PUSH1 0x40 MLOAD DUP1 PUSH1 0x40 ADD PUSH1 0x40 MSTORE DUP1 PUSH1 0x10 DUP2 MSTORE PUSH1 0x20 ADD PUSH32 0x3031323334353637383941424344454600000000000000000000000000000000 DUP2 MSTORE POP PUSH2 0x207F JUMP JUMPDEST DUP1 SWAP3 POP DUP2 SWAP12 POP POP POP DUP8 DUP2 PUSH1 0x40 MLOAD PUSH1 0x20 ADD PUSH2 0x11D3 SWAP3 SWAP2 SWAP1 PUSH2 0x2BE6 JUMP JUMPDEST PUSH1 0x40 MLOAD PUSH1 0x20 DUP2 DUP4 SUB SUB DUP2 MSTORE SWAP1 PUSH1 0x40 MSTORE SWAP8 POP PUSH0 JUMPDEST DUP7 PUSH4 0xFFFFFFFF AND DUP2 PUSH4 0xFFFFFFFF AND LT ISZERO PUSH2 0x1BBE JUMPI PUSH0 DUP1 DUP3 PUSH4 0xFFFFFFFF AND SUB PUSH2 0x1288 JUMPI PUSH1 0x40 MLOAD DUP1 PUSH1 0x40 ADD PUSH1 0x40 MSTORE DUP1 PUSH1 0x4 DUP2 MSTORE PUSH1 0x20 ADD PUSH32 0x4354515000000000000000000000000000000000000000000000000000000000 DUP2 MSTORE POP DUP12 PUSH1 0x1 PUSH1 0x6 DUP2 LT PUSH2 0x1252 JUMPI PUSH2 0x1251 PUSH2 0x2632 JUMP JUMPDEST JUMPDEST PUSH1 0x20 MUL ADD MLOAD PUSH1 0xFF AND DUP16 PUSH2 0x1265 SWAP2 SWAP1 PUSH2 0x2D32 JUMP JUMPDEST DUP2 MLOAD DUP2 LT PUSH2 0x1276 JUMPI PUSH2 0x1275 PUSH2 0x2632 JUMP JUMPDEST JUMPDEST PUSH1 0x20 ADD ADD MLOAD PUSH1 0xF8 SHR PUSH1 0xF8 SHL SWAP1 POP PUSH2 0x139B JUMP JUMPDEST PUSH0 DUP1 SLOAD SWAP1 PUSH2 0x100 EXP SWAP1 DIV PUSH20 0xFFFFFFFFFFFFFFFFFFFFFFFFFFFFFFFFFFFFFFFF AND PUSH20 0xFFFFFFFFFFFFFFFFFFFFFFFFFFFFFFFFFFFFFFFF AND PUSH4 0x591E5735 DUP14 DUP14 PUSH1 0x1 PUSH1 0x6 DUP2 LT PUSH2 0x12D8 JUMPI PUSH2 0x12D7 PUSH2 0x2632 JUMP JUMPDEST JUMPDEST PUSH1 0x20 MUL ADD MLOAD PUSH1 0x40 MLOAD DUP4 PUSH4 0xFFFFFFFF AND PUSH1 0xE0 SHL DUP2 MSTORE PUSH1 0x4 ADD PUSH2 0x12FA SWAP3 SWAP2 SWAP1 PUSH2 0x276A JUMP JUMPDEST PUSH1 0xA0 PUSH1 0x40 MLOAD DUP1 DUP4 SUB DUP2 DUP7 GAS STATICCALL ISZERO DUP1 ISZERO PUSH2 0x1315 JUMPI RETURNDATASIZE PUSH0 DUP1 RETURNDATACOPY RETURNDATASIZE PUSH0 REVERT JUMPDEST POP POP POP POP PUSH1 0x40 MLOAD RETURNDATASIZE PUSH1 0x1F NOT PUSH1 0x1F DUP3 ADD AND DUP3 ADD DUP1 PUSH1 0x40 MSTORE POP DUP2 ADD SWAP1 PUSH2 0x1339 SWAP2 SWAP1 PUSH2 0x2607 JUMP JUMPDEST SWAP12 POP PUSH1 0x40 MLOAD DUP1 PUSH1 0x40 ADD PUSH1 0x40 MSTORE DUP1 PUSH1 0x4 DUP2 MSTORE PUSH1 0x20 ADD PUSH32 0x4354515000000000000000000000000000000000000000000000000000000000 DUP2 MSTORE POP DUP13 PUSH1 0x20 ADD MLOAD PUSH4 0xFFFFFFFF AND DUP2 MLOAD DUP2 LT PUSH2 0x138D JUMPI PUSH2 0x138C PUSH2 0x2632 JUMP JUMPDEST JUMPDEST PUSH1 0x20 ADD ADD MLOAD PUSH1 0xF8 SHR PUSH1 0xF8 SHL SWAP1 POP JUMPDEST PUSH0 DUP1 SLOAD SWAP1 PUSH2 0x100 EXP SWAP1 DIV PUSH20 0xFFFFFFFFFFFFFFFFFFFFFFFFFFFFFFFFFFFFFFFF AND PUSH20 0xFFFFFFFFFFFFFFFFFFFFFFFFFFFFFFFFFFFFFFFF AND PUSH4 0x591E5735 DUP14 DUP14 PUSH1 0x4 PUSH1 0x6 DUP2 LT PUSH2 0x13EB JUMPI PUSH2 0x13EA PUSH2 0x2632 JUMP JUMPDEST JUMPDEST PUSH1 0x20 MUL ADD MLOAD PUSH1 0x40 MLOAD DUP4 PUSH4 0xFFFFFFFF AND PUSH1 0xE0 SHL DUP2 MSTORE PUSH1 0x4 ADD PUSH2 0x140D SWAP3 SWAP2 SWAP1 PUSH2 0x276A JUMP JUMPDEST PUSH1 0xA0 PUSH1 0x40 MLOAD DUP1 DUP4 SUB DUP2 DUP7 GAS STATICCALL ISZERO DUP1 ISZERO PUSH2 0x1428 JUMPI RETURNDATASIZE PUSH0 DUP1 RETURNDATACOPY RETURNDATASIZE PUSH0 REVERT JUMPDEST POP POP POP POP PUSH1 0x40 MLOAD RETURNDATASIZE PUSH1 0x1F NOT PUSH1 0x1F DUP3 ADD AND DUP3 ADD DUP1 PUSH1 0x40 MSTORE POP DUP2 ADD SWAP1 PUSH2 0x144C SWAP2 SWAP1 PUSH2 0x2607 JUMP JUMPDEST SWAP12 POP PUSH0 PUSH32 0x5400000000000000000000000000000000000000000000000000000000000000 DUP3 PUSH31 0xFFFFFFFFFFFFFFFFFFFFFFFFFFFFFFFFFFFFFFFFFFFFFFFFFFFFFFFFFFFFFF NOT AND EQ PUSH2 0x15DD JUMPI PUSH32 0x5100000000000000000000000000000000000000000000000000000000000000 DUP3 PUSH31 0xFFFFFFFFFFFFFFFFFFFFFFFFFFFFFFFFFFFFFFFFFFFFFFFFFFFFFFFFFFFFFF NOT AND EQ PUSH2 0x15A1 JUMPI PUSH32 0x5000000000000000000000000000000000000000000000000000000000000000 DUP3 PUSH31 0xFFFFFFFFFFFFFFFFFFFFFFFFFFFFFFFFFFFFFFFFFFFFFFFFFFFFFFFFFFFFFF NOT AND EQ PUSH2 0x1565 JUMPI PUSH1 0x40 MLOAD DUP1 PUSH1 0x40 ADD PUSH1 0x40 MSTORE DUP1 PUSH1 0x8 DUP2 MSTORE PUSH1 0x20 ADD PUSH32 0x3030303030303030000000000000000000000000000000000000000000000000 DUP2 MSTORE POP PUSH2 0x159C JUMP JUMPDEST PUSH1 0x40 MLOAD DUP1 PUSH1 0x40 ADD PUSH1 0x40 MSTORE DUP1 PUSH1 0x8 DUP2 MSTORE PUSH1 0x20 ADD PUSH32 0x3536363738383635000000000000000000000000000000000000000000000000 DUP2 MSTORE POP JUMPDEST PUSH2 0x15D8 JUMP JUMPDEST PUSH1 0x40 MLOAD DUP1 PUSH1 0x40 ADD PUSH1 0x40 MSTORE DUP1 PUSH1 0x8 DUP2 MSTORE PUSH1 0x20 ADD PUSH32 0x3030313132323030000000000000000000000000000000000000000000000000 DUP2 MSTORE POP JUMPDEST PUSH2 0x1614 JUMP JUMPDEST PUSH1 0x40 MLOAD DUP1 PUSH1 0x40 ADD PUSH1 0x40 MSTORE DUP1 PUSH1 0x8 DUP2 MSTORE PUSH1 0x20 ADD PUSH32 0x3034323631353337000000000000000000000000000000000000000000000000 DUP2 MSTORE POP JUMPDEST DUP14 PUSH1 0x20 ADD MLOAD PUSH4 0xFFFFFFFF AND DUP2 MLOAD DUP2 LT PUSH2 0x1630 JUMPI PUSH2 0x162F PUSH2 0x2632 JUMP JUMPDEST JUMPDEST PUSH1 0x20 ADD ADD MLOAD PUSH1 0xF8 SHR PUSH1 0xF8 SHL SWAP1 POP DUP11 DUP3 DUP3 PUSH1 0x40 MLOAD PUSH1 0x20 ADD PUSH2 0x1652 SWAP4 SWAP3 SWAP2 SWAP1 PUSH2 0x2DAC JUMP JUMPDEST PUSH1 0x40 MLOAD PUSH1 0x20 DUP2 DUP4 SUB SUB DUP2 MSTORE SWAP1 PUSH1 0x40 MSTORE SWAP11 POP PUSH0 DUP4 PUSH4 0xFFFFFFFF AND GT ISZERO PUSH2 0x1822 JUMPI PUSH2 0x16B1 DUP14 PUSH0 PUSH1 0x40 MLOAD DUP1 PUSH1 0x40 ADD PUSH1 0x40 MSTORE DUP1 PUSH1 0x10 DUP2 MSTORE PUSH1 0x20 ADD PUSH32 0x464643434D4D4D4D4D4D4D494941414100000000000000000000000000000000 DUP2 MSTORE POP PUSH2 0x207F JUMP JUMPDEST DUP1 SWAP6 POP DUP2 SWAP15 POP POP POP DUP11 DUP5 PUSH1 0x40 MLOAD PUSH1 0x20 ADD PUSH2 0x16CC SWAP3 SWAP2 SWAP1 PUSH2 0x2E39 JUMP JUMPDEST PUSH1 0x40 MLOAD PUSH1 0x20 DUP2 DUP4 SUB SUB DUP2 MSTORE SWAP1 PUSH1 0x40 MSTORE SWAP11 POP PUSH2 0x171D DUP14 PUSH0 PUSH1 0x40 MLOAD DUP1 PUSH1 0x40 ADD PUSH1 0x40 MSTORE DUP1 PUSH1 0x10 DUP2 MSTORE PUSH1 0x20 ADD PUSH32 0x3031323334353637383941424344454600000000000000000000000000000000 DUP2 MSTORE POP PUSH2 0x207F JUMP JUMPDEST DUP1 SWAP6 POP DUP2 SWAP15 POP POP POP DUP11 DUP5 PUSH1 0x40 MLOAD PUSH1 0x20 ADD PUSH2 0x1738 SWAP3 SWAP2 SWAP1 PUSH2 0x2BE6 JUMP JUMPDEST PUSH1 0x40 MLOAD PUSH1 0x20 DUP2 DUP4 SUB SUB DUP2 MSTORE SWAP1 PUSH1 0x40 MSTORE SWAP11 POP PUSH2 0x1789 DUP14 PUSH0 PUSH1 0x40 MLOAD DUP1 PUSH1 0x40 ADD PUSH1 0x40 MSTORE DUP1 PUSH1 0x10 DUP2 MSTORE PUSH1 0x20 ADD PUSH32 0x3031323334353637383941424344454600000000000000000000000000000000 DUP2 MSTORE POP PUSH2 0x207F JUMP JUMPDEST DUP1 SWAP6 POP DUP2 SWAP15 POP POP POP DUP11 DUP5 PUSH1 0x40 MLOAD PUSH1 0x20 ADD PUSH2 0x17A4 SWAP3 SWAP2 SWAP1 PUSH2 0x2BE6 JUMP JUMPDEST PUSH1 0x40 MLOAD PUSH1 0x20 DUP2 DUP4 SUB SUB DUP2 MSTORE SWAP1 PUSH1 0x40 MSTORE SWAP11 POP PUSH2 0x17F5 DUP14 PUSH0 PUSH1 0x40 MLOAD DUP1 PUSH1 0x40 ADD PUSH1 0x40 MSTORE DUP1 PUSH1 0x10 DUP2 MSTORE PUSH1 0x20 ADD PUSH32 0x3031323334353637383941424344454600000000000000000000000000000000 DUP2 MSTORE POP PUSH2 0x207F JUMP JUMPDEST DUP1 SWAP6 POP DUP2 SWAP15 POP POP POP DUP11 DUP5 PUSH1 0x40 MLOAD PUSH1 0x20 ADD PUSH2 0x1810 SWAP3 SWAP2 SWAP1 PUSH2 0x2BE6 JUMP JUMPDEST PUSH1 0x40 MLOAD PUSH1 0x20 DUP2 DUP4 SUB SUB DUP2 MSTORE SWAP1 PUSH1 0x40 MSTORE SWAP11 POP JUMPDEST PUSH2 0x1862 DUP14 PUSH0 PUSH1 0x40 MLOAD DUP1 PUSH1 0x40 ADD PUSH1 0x40 MSTORE DUP1 PUSH1 0x4 DUP2 MSTORE PUSH1 0x20 ADD PUSH32 0x5344445400000000000000000000000000000000000000000000000000000000 DUP2 MSTORE POP PUSH2 0x207F JUMP JUMPDEST DUP1 SWAP6 POP DUP2 SWAP15 POP POP POP DUP11 DUP5 PUSH1 0x40 MLOAD PUSH1 0x20 ADD PUSH2 0x187D SWAP3 SWAP2 SWAP1 PUSH2 0x2EB5 JUMP JUMPDEST PUSH1 0x40 MLOAD PUSH1 0x20 DUP2 DUP4 SUB SUB DUP2 MSTORE SWAP1 PUSH1 0x40 MSTORE SWAP11 POP PUSH2 0x18CE DUP14 PUSH0 PUSH1 0x40 MLOAD DUP1 PUSH1 0x40 ADD PUSH1 0x40 MSTORE DUP1 PUSH1 0x10 DUP2 MSTORE PUSH1 0x20 ADD PUSH32 0x3031323334353637383941424344454600000000000000000000000000000000 DUP2 MSTORE POP PUSH2 0x207F JUMP JUMPDEST DUP1 SWAP6 POP DUP2 SWAP15 POP POP POP DUP11 DUP5 PUSH1 0x40 MLOAD PUSH1 0x20 ADD PUSH2 0x18E9 SWAP3 SWAP2 SWAP1 PUSH2 0x2BE6 JUMP JUMPDEST PUSH1 0x40 MLOAD PUSH1 0x20 DUP2 DUP4 SUB SUB DUP2 MSTORE SWAP1 PUSH1 0x40 MSTORE SWAP11 POP PUSH2 0x193A DUP14 PUSH0 PUSH1 0x40 MLOAD DUP1 PUSH1 0x40 ADD PUSH1 0x40 MSTORE DUP1 PUSH1 0x10 DUP2 MSTORE PUSH1 0x20 ADD PUSH32 0x3031323334353637383941424344454600000000000000000000000000000000 DUP2 MSTORE POP PUSH2 0x207F JUMP JUMPDEST DUP1 SWAP6 POP DUP2 SWAP15 POP POP POP DUP11 DUP5 PUSH1 0x40 MLOAD PUSH1 0x20 ADD PUSH2 0x1955 SWAP3 SWAP2 SWAP1 PUSH2 0x2BE6 JUMP JUMPDEST PUSH1 0x40 MLOAD PUSH1 0x20 DUP2 DUP4 SUB SUB DUP2 MSTORE SWAP1 PUSH1 0x40 MSTORE SWAP11 POP PUSH2 0x19B3 DUP14 DUP7 DUP1 PUSH2 0x1975 SWAP1 PUSH2 0x29FF JUMP JUMPDEST SWAP8 POP DUP9 PUSH1 0x40 MLOAD DUP1 PUSH1 0x40 ADD PUSH1 0x40 MSTORE DUP1 PUSH1 0x3 DUP2 MSTORE PUSH1 0x20 ADD PUSH32 0x3031320000000000000000000000000000000000000000000000000000000000 DUP2 MSTORE POP PUSH2 0x1FD5 JUMP JUMPDEST DUP1 SWAP6 POP DUP2 SWAP15 POP POP POP DUP11 DUP5 PUSH1 0x40 MLOAD PUSH1 0x20 ADD PUSH2 0x19CE SWAP3 SWAP2 SWAP1 PUSH2 0x2F31 JUMP JUMPDEST PUSH1 0x40 MLOAD PUSH1 0x20 DUP2 DUP4 SUB SUB DUP2 MSTORE SWAP1 PUSH1 0x40 MSTORE SWAP11 POP PUSH2 0x1A2C DUP14 DUP7 DUP1 PUSH2 0x19EE SWAP1 PUSH2 0x29FF JUMP JUMPDEST SWAP8 POP DUP9 PUSH1 0x40 MLOAD DUP1 PUSH1 0x40 ADD PUSH1 0x40 MSTORE DUP1 PUSH1 0x4 DUP2 MSTORE PUSH1 0x20 ADD PUSH32 0x3031323300000000000000000000000000000000000000000000000000000000 DUP2 MSTORE POP PUSH2 0x1FD5 JUMP JUMPDEST DUP1 SWAP6 POP DUP2 SWAP15 POP POP POP DUP11 DUP5 PUSH1 0x40 MLOAD PUSH1 0x20 ADD PUSH2 0x1A47 SWAP3 SWAP2 SWAP1 PUSH2 0x2BE6 JUMP JUMPDEST PUSH1 0x40 MLOAD PUSH1 0x20 DUP2 DUP4 SUB SUB DUP2 MSTORE SWAP1 PUSH1 0x40 MSTORE SWAP11 POP PUSH2 0x1AA5 DUP14 DUP7 DUP1 PUSH2 0x1A67 SWAP1 PUSH2 0x29FF JUMP JUMPDEST SWAP8 POP DUP9 PUSH1 0x40 MLOAD DUP1 PUSH1 0x40 ADD PUSH1 0x40 MSTORE DUP1 PUSH1 0x6 DUP2 MSTORE PUSH1 0x20 ADD PUSH32 0x3031313232330000000000000000000000000000000000000000000000000000 DUP2 MSTORE POP PUSH2 0x1FD5 JUMP JUMPDEST DUP1 SWAP6 POP DUP2 SWAP15 POP POP POP DUP11 DUP5 PUSH1 0x40 MLOAD PUSH1 0x20 ADD PUSH2 0x1AC0 SWAP3 SWAP2 SWAP1 PUSH2 0x2BE6 JUMP JUMPDEST PUSH1 0x40 MLOAD PUSH1 0x20 DUP2 DUP4 SUB SUB DUP2 MSTORE SWAP1 PUSH1 0x40 MSTORE SWAP11 POP PUSH2 0x1B11 DUP14 PUSH0 PUSH1 0x40 MLOAD DUP1 PUSH1 0x40 ADD PUSH1 0x40 MSTORE DUP1 PUSH1 0x10 DUP2 MSTORE PUSH1 0x20 ADD PUSH32 0x3031323334353637383941424344454600000000000000000000000000000000 DUP2 MSTORE POP PUSH2 0x207F JUMP JUMPDEST DUP1 SWAP6 POP DUP2 SWAP15 POP POP POP DUP11 DUP5 PUSH1 0x40 MLOAD PUSH1 0x20 ADD PUSH2 0x1B2C SWAP3 SWAP2 SWAP1 PUSH2 0x2FAD JUMP JUMPDEST PUSH1 0x40 MLOAD PUSH1 0x20 DUP2 DUP4 SUB SUB DUP2 MSTORE SWAP1 PUSH1 0x40 MSTORE SWAP11 POP PUSH2 0x1B7D DUP14 PUSH0 PUSH1 0x40 MLOAD DUP1 PUSH1 0x40 ADD PUSH1 0x40 MSTORE DUP1 PUSH1 0x10 DUP2 MSTORE PUSH1 0x20 ADD PUSH32 0x3031323334353637383941424344454600000000000000000000000000000000 DUP2 MSTORE POP PUSH2 0x207F JUMP JUMPDEST DUP1 SWAP6 POP DUP2 SWAP15 POP POP POP DUP11 DUP5 PUSH1 0x40 MLOAD PUSH1 0x20 ADD PUSH2 0x1B98 SWAP3 SWAP2 SWAP1 PUSH2 0x2BE6 JUMP JUMPDEST PUSH1 0x40 MLOAD PUSH1 0x20 DUP2 DUP4 SUB SUB DUP2 MSTORE SWAP1 PUSH1 0x40 MSTORE SWAP11 POP POP POP DUP1 DUP1 PUSH2 0x1BB6 SWAP1 PUSH2 0x2990 JUMP JUMPDEST SWAP2 POP POP PUSH2 0x11E6 JUMP JUMPDEST POP DUP8 SWAP11 POP POP POP POP POP POP POP POP POP POP POP SWAP3 SWAP2 POP POP JUMP JUMPDEST PUSH2 0x1BDA PUSH2 0x215C JUMP JUMPDEST PUSH2 0x2CA DUP3 GT ISZERO PUSH2 0x1C30 JUMPI PUSH1 0x40 MLOAD DUP1 PUSH1 0xC0 ADD PUSH1 0x40 MSTORE DUP1 PUSH1 0x9 PUSH1 0xFF AND DUP2 MSTORE PUSH1 0x20 ADD PUSH1 0x4 PUSH1 0xFF AND DUP2 MSTORE PUSH1 0x20 ADD PUSH1 0x2 PUSH1 0xFF AND DUP2 MSTORE PUSH1 0x20 ADD PUSH1 0x5 PUSH1 0xFF AND DUP2 MSTORE PUSH1 0x20 ADD PUSH1 0x8 PUSH1 0xFF AND DUP2 MSTORE PUSH1 0x20 ADD PUSH1 0xC PUSH1 0xFF AND DUP2 MSTORE POP SWAP1 POP PUSH2 0x1E77 JUMP JUMPDEST PUSH2 0x111 DUP3 GT ISZERO PUSH2 0x1C86 JUMPI PUSH1 0x40 MLOAD DUP1 PUSH1 0xC0 ADD PUSH1 0x40 MSTORE DUP1 PUSH1 0x7 PUSH1 0xFF AND DUP2 MSTORE PUSH1 0x20 ADD PUSH1 0x4 PUSH1 0xFF AND DUP2 MSTORE PUSH1 0x20 ADD PUSH1 0x1 PUSH1 0xFF AND DUP2 MSTORE PUSH1 0x20 ADD PUSH1 0x4 PUSH1 0xFF AND DUP2 MSTORE PUSH1 0x20 ADD PUSH1 0x8 PUSH1 0xFF AND DUP2 MSTORE PUSH1 0x20 ADD PUSH1 0xB PUSH1 0xFF AND DUP2 MSTORE POP SWAP1 POP PUSH2 0x1E77 JUMP JUMPDEST PUSH1 0x68 DUP3 GT ISZERO PUSH2 0x1CDB JUMPI PUSH1 0x40 MLOAD DUP1 PUSH1 0xC0 ADD PUSH1 0x40 MSTORE DUP1 PUSH1 0x5 PUSH1 0xFF AND DUP2 MSTORE PUSH1 0x20 ADD PUSH1 0x4 PUSH1 0xFF AND DUP2 MSTORE PUSH1 0x20 ADD PUSH1 0x1 PUSH1 0xFF AND DUP2 MSTORE PUSH1 0x20 ADD PUSH1 0x3 PUSH1 0xFF AND DUP2 MSTORE PUSH1 0x20 ADD PUSH1 0x8 PUSH1 0xFF AND DUP2 MSTORE PUSH1 0x20 ADD PUSH1 0xA PUSH1 0xFF AND DUP2 MSTORE POP SWAP1 POP PUSH2 0x1E77 JUMP JUMPDEST PUSH1 0x28 DUP3 GT ISZERO PUSH2 0x1D30 JUMPI PUSH1 0x40 MLOAD DUP1 PUSH1 0xC0 ADD PUSH1 0x40 MSTORE DUP1 PUSH1 0x4 PUSH1 0xFF AND DUP2 MSTORE PUSH1 0x20 ADD PUSH1 0x4 PUSH1 0xFF AND DUP2 MSTORE PUSH1 0x20 ADD PUSH1 0x1 PUSH1 0xFF AND DUP2 MSTORE PUSH1 0x20 ADD PUSH1 0x2 PUSH1 0xFF AND DUP2 MSTORE PUSH1 0x20 ADD PUSH1 0x4 PUSH1 0xFF AND DUP2 MSTORE PUSH1 0x20 ADD PUSH1 0x9 PUSH1 0xFF AND DUP2 MSTORE POP SWAP1 POP PUSH2 0x1E77 JUMP JUMPDEST PUSH1 0xF DUP3 GT ISZERO PUSH2 0x1D85 JUMPI PUSH1 0x40 MLOAD DUP1 PUSH1 0xC0 ADD PUSH1 0x40 MSTORE DUP1 PUSH1 0x3 PUSH1 0xFF AND DUP2 MSTORE PUSH1 0x20 ADD PUSH1 0x4 PUSH1 0xFF AND DUP2 MSTORE PUSH1 0x20 ADD PUSH1 0x1 PUSH1 0xFF AND DUP2 MSTORE PUSH1 0x20 ADD PUSH1 0x2 PUSH1 0xFF AND DUP2 MSTORE PUSH1 0x20 ADD PUSH1 0x2 PUSH1 0xFF AND DUP2 MSTORE PUSH1 0x20 ADD PUSH1 0x8 PUSH1 0xFF AND DUP2 MSTORE POP SWAP1 POP PUSH2 0x1E77 JUMP JUMPDEST PUSH1 0x6 DUP3 GT ISZERO PUSH2 0x1DDA JUMPI PUSH1 0x40 MLOAD DUP1 PUSH1 0xC0 ADD PUSH1 0x40 MSTORE DUP1 PUSH1 0x2 PUSH1 0xFF AND DUP2 MSTORE PUSH1 0x20 ADD PUSH1 0x3 PUSH1 0xFF AND DUP2 MSTORE PUSH1 0x20 ADD PUSH1 0x1 PUSH1 0xFF AND DUP2 MSTORE PUSH1 0x20 ADD PUSH1 0x1 PUSH1 0xFF AND DUP2 MSTORE PUSH1 0x20 ADD PUSH1 0x1 PUSH1 0xFF AND DUP2 MSTORE PUSH1 0x20 ADD PUSH1 0x7 PUSH1 0xFF AND DUP2 MSTORE POP SWAP1 POP PUSH2 0x1E77 JUMP JUMPDEST PUSH1 0x2 DUP3 GT ISZERO PUSH2 0x1E2F JUMPI PUSH1 0x40 MLOAD DUP1 PUSH1 0xC0 ADD PUSH1 0x40 MSTORE DUP1 PUSH1 0x1 PUSH1 0xFF AND DUP2 MSTORE PUSH1 0x20 ADD PUSH1 0x3 PUSH1 0xFF AND DUP2 MSTORE PUSH1 0x20 ADD PUSH1 0x1 PUSH1 0xFF AND DUP2 MSTORE PUSH1 0x20 ADD PUSH1 0x1 PUSH1 0xFF AND DUP2 MSTORE PUSH1 0x20 ADD PUSH1 0x1 PUSH1 0xFF AND DUP2 MSTORE PUSH1 0x20 ADD PUSH1 0x6 PUSH1 0xFF AND DUP2 MSTORE POP SWAP1 POP PUSH2 0x1E77 JUMP JUMPDEST PUSH1 0x40 MLOAD DUP1 PUSH1 0xC0 ADD PUSH1 0x40 MSTORE DUP1 PUSH1 0x1 PUSH1 0xFF AND DUP2 MSTORE PUSH1 0x20 ADD PUSH1 0x3 PUSH1 0xFF AND DUP2 MSTORE PUSH1 0x20 ADD PUSH1 0x1 PUSH1 0xFF AND DUP2 MSTORE PUSH1 0x20 ADD PUSH1 0x1 PUSH1 0xFF AND DUP2 MSTORE PUSH1 0x20 ADD PUSH1 0x1 PUSH1 0xFF AND DUP2 MSTORE PUSH1 0x20 ADD PUSH1 0x5 PUSH1 0xFF AND DUP2 MSTORE POP SWAP1 POP JUMPDEST SWAP2 SWAP1 POP JUMP JUMPDEST PUSH1 0x60 PUSH0 DUP3 SUB PUSH2 0x1EC2 JUMPI PUSH1 0x40 MLOAD DUP1 PUSH1 0x40 ADD PUSH1 0x40 MSTORE DUP1 PUSH1 0x1 DUP2 MSTORE PUSH1 0x20 ADD PUSH32 0x3000000000000000000000000000000000000000000000000000000000000000 DUP2 MSTORE POP SWAP1 POP PUSH2 0x1FD0 JUMP JUMPDEST PUSH0 DUP3 SWAP1 POP PUSH0 JUMPDEST PUSH0 DUP3 EQ PUSH2 0x1EF1 JUMPI DUP1 DUP1 PUSH2 0x1EDA SWAP1 PUSH2 0x2FDF JUMP JUMPDEST SWAP2 POP POP PUSH1 0xA DUP3 PUSH2 0x1EEA SWAP2 SWAP1 PUSH2 0x3026 JUMP JUMPDEST SWAP2 POP PUSH2 0x1EC8 JUMP JUMPDEST PUSH0 DUP2 PUSH8 0xFFFFFFFFFFFFFFFF DUP2 GT ISZERO PUSH2 0x1F0C JUMPI PUSH2 0x1F0B PUSH2 0x2453 JUMP JUMPDEST JUMPDEST PUSH1 0x40 MLOAD SWAP1 DUP1 DUP3 MSTORE DUP1 PUSH1 0x1F ADD PUSH1 0x1F NOT AND PUSH1 0x20 ADD DUP3 ADD PUSH1 0x40 MSTORE DUP1 ISZERO PUSH2 0x1F3E JUMPI DUP2 PUSH1 0x20 ADD PUSH1 0x1 DUP3 MUL DUP1 CALLDATASIZE DUP4 CALLDATACOPY DUP1 DUP3 ADD SWAP2 POP POP SWAP1 POP JUMPDEST POP SWAP1 POP JUMPDEST PUSH0 DUP6 EQ PUSH2 0x1FC9 JUMPI PUSH1 0x1 DUP3 PUSH2 0x1F56 SWAP2 SWAP1 PUSH2 0x3056 JUMP JUMPDEST SWAP2 POP PUSH1 0xA DUP6 PUSH2 0x1F65 SWAP2 SWAP1 PUSH2 0x2D32 JUMP JUMPDEST PUSH1 0x30 PUSH2 0x1F71 SWAP2 SWAP1 PUSH2 0x3089 JUMP JUMPDEST PUSH1 0xF8 SHL DUP2 DUP4 DUP2 MLOAD DUP2 LT PUSH2 0x1F87 JUMPI PUSH2 0x1F86 PUSH2 0x2632 JUMP JUMPDEST JUMPDEST PUSH1 0x20 ADD ADD SWAP1 PUSH31 0xFFFFFFFFFFFFFFFFFFFFFFFFFFFFFFFFFFFFFFFFFFFFFFFFFFFFFFFFFFFFFF NOT AND SWAP1 DUP2 PUSH0 BYTE SWAP1 MSTORE8 POP PUSH1 0xA DUP6 PUSH2 0x1FC2 SWAP2 SWAP1 PUSH2 0x3026 JUMP JUMPDEST SWAP5 POP PUSH2 0x1F42 JUMP JUMPDEST DUP1 SWAP4 POP POP POP POP JUMPDEST SWAP2 SWAP1 POP JUMP JUMPDEST PUSH2 0x1FDD PUSH2 0x217E JUMP JUMPDEST PUSH0 DUP1 PUSH0 SWAP1 POP JUMPDEST DUP5 MLOAD DUP2 PUSH1 0xFF AND LT ISZERO PUSH2 0x2030 JUMPI DUP5 DUP2 PUSH1 0xFF AND DUP2 MLOAD DUP2 LT PUSH2 0x2005 JUMPI PUSH2 0x2004 PUSH2 0x2632 JUMP JUMPDEST JUMPDEST PUSH1 0x20 MUL PUSH1 0x20 ADD ADD MLOAD PUSH4 0xFFFFFFFF AND DUP7 PUSH1 0xFF AND SUB ISZERO PUSH2 0x2030 JUMPI DUP1 DUP1 PUSH2 0x2028 SWAP1 PUSH2 0x29FF JUMP JUMPDEST SWAP2 POP POP PUSH2 0x1FE3 JUMP JUMPDEST DUP5 MLOAD DUP2 PUSH1 0xFF AND SUB PUSH2 0x2064 JUMPI DUP7 DUP5 PUSH0 DUP2 MLOAD DUP2 LT PUSH2 0x204F JUMPI PUSH2 0x204E PUSH2 0x2632 JUMP JUMPDEST JUMPDEST PUSH1 0x20 ADD ADD MLOAD PUSH1 0xF8 SHR PUSH1 0xF8 SHL SWAP3 POP SWAP3 POP POP PUSH2 0x2076 JUMP JUMPDEST PUSH2 0x2070 DUP8 PUSH1 0x1 DUP7 PUSH2 0x207F JUMP JUMPDEST SWAP3 POP SWAP3 POP POP JUMPDEST SWAP5 POP SWAP5 SWAP3 POP POP POP JUMP JUMPDEST PUSH2 0x2087 PUSH2 0x217E JUMP JUMPDEST PUSH0 DUP1 PUSH0 SWAP1 SLOAD SWAP1 PUSH2 0x100 EXP SWAP1 DIV PUSH20 0xFFFFFFFFFFFFFFFFFFFFFFFFFFFFFFFFFFFFFFFF AND PUSH20 0xFFFFFFFFFFFFFFFFFFFFFFFFFFFFFFFFFFFFFFFF AND PUSH4 0x290F1050 DUP7 DUP7 DUP7 MLOAD PUSH1 0x40 MLOAD DUP5 PUSH4 0xFFFFFFFF AND PUSH1 0xE0 SHL DUP2 MSTORE PUSH1 0x4 ADD PUSH2 0x20E6 SWAP4 SWAP3 SWAP2 SWAP1 PUSH2 0x29CA JUMP JUMPDEST PUSH1 0xA0 PUSH1 0x40 MLOAD DUP1 DUP4 SUB DUP2 DUP7 GAS STATICCALL ISZERO DUP1 ISZERO PUSH2 0x2101 JUMPI RETURNDATASIZE PUSH0 DUP1 RETURNDATACOPY RETURNDATASIZE PUSH0 REVERT JUMPDEST POP POP POP POP PUSH1 0x40 MLOAD RETURNDATASIZE PUSH1 0x1F NOT PUSH1 0x1F DUP3 ADD AND DUP3 ADD DUP1 PUSH1 0x40 MSTORE POP DUP2 ADD SWAP1 PUSH2 0x2125 SWAP2 SWAP1 PUSH2 0x2607 JUMP JUMPDEST SWAP5 POP DUP5 DUP4 DUP7 PUSH1 0x20 ADD MLOAD PUSH4 0xFFFFFFFF AND DUP2 MLOAD DUP2 LT PUSH2 0x2145 JUMPI PUSH2 0x2144 PUSH2 0x2632 JUMP JUMPDEST JUMPDEST PUSH1 0x20 ADD ADD MLOAD PUSH1 0xF8 SHR PUSH1 0xF8 SHL SWAP2 POP SWAP2 POP SWAP4 POP SWAP4 SWAP2 POP POP JUMP JUMPDEST PUSH1 0x40 MLOAD DUP1 PUSH1 0xC0 ADD PUSH1 0x40 MSTORE DUP1 PUSH1 0x6 SWAP1 PUSH1 0x20 DUP3 MUL DUP1 CALLDATASIZE DUP4 CALLDATACOPY DUP1 DUP3 ADD SWAP2 POP POP SWAP1 POP POP SWAP1 JUMP JUMPDEST PUSH1 0x40 MLOAD DUP1 PUSH1 0x40 ADD PUSH1 0x40 MSTORE DUP1 PUSH2 0x2191 PUSH2 0x21A3 JUMP JUMPDEST DUP2 MSTORE PUSH1 0x20 ADD PUSH0 PUSH4 0xFFFFFFFF AND DUP2 MSTORE POP SWAP1 JUMP JUMPDEST PUSH1 0x40 MLOAD DUP1 PUSH1 0x80 ADD PUSH1 0x40 MSTORE DUP1 PUSH1 0x4 SWAP1 PUSH1 0x20 DUP3 MUL DUP1 CALLDATASIZE DUP4 CALLDATACOPY DUP1 DUP3 ADD SWAP2 POP POP SWAP1 POP POP SWAP1 JUMP JUMPDEST PUSH0 PUSH1 0x40 MLOAD SWAP1 POP SWAP1 JUMP JUMPDEST PUSH0 DUP1 REVERT JUMPDEST PUSH0 PUSH16 0xFFFFFFFFFFFFFFFFFFFFFFFFFFFFFFFF DUP3 AND SWAP1 POP SWAP2 SWAP1 POP JUMP JUMPDEST PUSH2 0x21F6 DUP2 PUSH2 0x21D2 JUMP JUMPDEST DUP2 EQ PUSH2 0x2200 JUMPI PUSH0 DUP1 REVERT JUMPDEST POP JUMP JUMPDEST PUSH0 DUP2 CALLDATALOAD SWAP1 POP PUSH2 0x2211 DUP2 PUSH2 0x21ED JUMP JUMPDEST SWAP3 SWAP2 POP POP JUMP JUMPDEST PUSH0 DUP2 SWAP1 POP SWAP2 SWAP1 POP JUMP JUMPDEST PUSH2 0x2229 DUP2 PUSH2 0x2217 JUMP JUMPDEST DUP2 EQ PUSH2 0x2233 JUMPI PUSH0 DUP1 REVERT JUMPDEST POP JUMP JUMPDEST PUSH0 DUP2 CALLDATALOAD SWAP1 POP PUSH2 0x2244 DUP2 PUSH2 0x2220 JUMP JUMPDEST SWAP3 SWAP2 POP POP JUMP JUMPDEST PUSH0 DUP1 PUSH1 0x40 DUP4 DUP6 SUB SLT ISZERO PUSH2 0x2260 JUMPI PUSH2 0x225F PUSH2 0x21CE JUMP JUMPDEST JUMPDEST PUSH0 PUSH2 0x226D DUP6 DUP3 DUP7 ADD PUSH2 0x2203 JUMP JUMPDEST SWAP3 POP POP PUSH1 0x20 PUSH2 0x227E DUP6 DUP3 DUP7 ADD PUSH2 0x2236 JUMP JUMPDEST SWAP2 POP POP SWAP3 POP SWAP3 SWAP1 POP JUMP JUMPDEST PUSH0 DUP2 MLOAD SWAP1 POP SWAP2 SWAP1 POP JUMP JUMPDEST PUSH0 DUP3 DUP3 MSTORE PUSH1 0x20 DUP3 ADD SWAP1 POP SWAP3 SWAP2 POP POP JUMP JUMPDEST PUSH0 JUMPDEST DUP4 DUP2 LT ISZERO PUSH2 0x22BF JUMPI DUP1 DUP3 ADD MLOAD DUP2 DUP5 ADD MSTORE PUSH1 0x20 DUP2 ADD SWAP1 POP PUSH2 0x22A4 JUMP JUMPDEST PUSH0 DUP5 DUP5 ADD MSTORE POP POP POP POP JUMP JUMPDEST PUSH0 PUSH1 0x1F NOT PUSH1 0x1F DUP4 ADD AND SWAP1 POP SWAP2 SWAP1 POP JUMP JUMPDEST PUSH0 PUSH2 0x22E4 DUP3 PUSH2 0x2288 JUMP JUMPDEST PUSH2 0x22EE DUP2 DUP6 PUSH2 0x2292 JUMP JUMPDEST SWAP4 POP PUSH2 0x22FE DUP2 DUP6 PUSH1 0x20 DUP7 ADD PUSH2 0x22A2 JUMP JUMPDEST PUSH2 0x2307 DUP2 PUSH2 0x22CA JUMP JUMPDEST DUP5 ADD SWAP2 POP POP SWAP3 SWAP2 POP POP JUMP JUMPDEST PUSH0 PUSH1 0x20 DUP3 ADD SWAP1 POP DUP2 DUP2 SUB PUSH0 DUP4 ADD MSTORE PUSH2 0x232A DUP2 DUP5 PUSH2 0x22DA JUMP JUMPDEST SWAP1 POP SWAP3 SWAP2 POP POP JUMP JUMPDEST PUSH0 PUSH1 0x20 DUP3 DUP5 SUB SLT ISZERO PUSH2 0x2347 JUMPI PUSH2 0x2346 PUSH2 0x21CE JUMP JUMPDEST JUMPDEST PUSH0 PUSH2 0x2354 DUP5 DUP3 DUP6 ADD PUSH2 0x2236 JUMP JUMPDEST SWAP2 POP POP SWAP3 SWAP2 POP POP JUMP JUMPDEST PUSH0 PUSH1 0x6 SWAP1 POP SWAP2 SWAP1 POP JUMP JUMPDEST PUSH0 DUP2 SWAP1 POP SWAP3 SWAP2 POP POP JUMP JUMPDEST PUSH0 DUP2 SWAP1 POP SWAP2 SWAP1 POP JUMP JUMPDEST PUSH0 PUSH1 0xFF DUP3 AND SWAP1 POP SWAP2 SWAP1 POP JUMP JUMPDEST PUSH2 0x238F DUP2 PUSH2 0x237A JUMP JUMPDEST DUP3 MSTORE POP POP JUMP JUMPDEST PUSH0 PUSH2 0x23A0 DUP4 DUP4 PUSH2 0x2386 JUMP JUMPDEST PUSH1 0x20 DUP4 ADD SWAP1 POP SWAP3 SWAP2 POP POP JUMP JUMPDEST PUSH0 PUSH1 0x20 DUP3 ADD SWAP1 POP SWAP2 SWAP1 POP JUMP JUMPDEST PUSH2 0x23C1 DUP2 PUSH2 0x235D JUMP JUMPDEST PUSH2 0x23CB DUP2 DUP5 PUSH2 0x2367 JUMP JUMPDEST SWAP3 POP PUSH2 0x23D6 DUP3 PUSH2 0x2371 JUMP JUMPDEST DUP1 PUSH0 JUMPDEST DUP4 DUP2 LT ISZERO PUSH2 0x2406 JUMPI DUP2 MLOAD PUSH2 0x23ED DUP8 DUP3 PUSH2 0x2395 JUMP JUMPDEST SWAP7 POP PUSH2 0x23F8 DUP4 PUSH2 0x23AC JUMP JUMPDEST SWAP3 POP POP PUSH1 0x1 DUP2 ADD SWAP1 POP PUSH2 0x23D9 JUMP JUMPDEST POP POP POP POP POP POP JUMP JUMPDEST PUSH0 PUSH1 0xC0 DUP3 ADD SWAP1 POP PUSH2 0x2421 PUSH0 DUP4 ADD DUP5 PUSH2 0x23B8 JUMP JUMPDEST SWAP3 SWAP2 POP POP JUMP JUMPDEST PUSH2 0x2430 DUP2 PUSH2 0x21D2 JUMP JUMPDEST DUP3 MSTORE POP POP JUMP JUMPDEST PUSH0 PUSH1 0x20 DUP3 ADD SWAP1 POP PUSH2 0x2449 PUSH0 DUP4 ADD DUP5 PUSH2 0x2427 JUMP JUMPDEST SWAP3 SWAP2 POP POP JUMP JUMPDEST PUSH0 DUP1 REVERT JUMPDEST PUSH32 0x4E487B7100000000000000000000000000000000000000000000000000000000 PUSH0 MSTORE PUSH1 0x41 PUSH1 0x4 MSTORE PUSH1 0x24 PUSH0 REVERT JUMPDEST PUSH2 0x2489 DUP3 PUSH2 0x22CA JUMP JUMPDEST DUP2 ADD DUP2 DUP2 LT PUSH8 0xFFFFFFFFFFFFFFFF DUP3 GT OR ISZERO PUSH2 0x24A8 JUMPI PUSH2 0x24A7 PUSH2 0x2453 JUMP JUMPDEST JUMPDEST DUP1 PUSH1 0x40 MSTORE POP POP POP JUMP JUMPDEST PUSH0 PUSH2 0x24BA PUSH2 0x21C5 JUMP JUMPDEST SWAP1 POP PUSH2 0x24C6 DUP3 DUP3 PUSH2 0x2480 JUMP JUMPDEST SWAP2 SWAP1 POP JUMP JUMPDEST PUSH0 DUP1 REVERT JUMPDEST PUSH0 PUSH8 0xFFFFFFFFFFFFFFFF DUP3 GT ISZERO PUSH2 0x24E9 JUMPI PUSH2 0x24E8 PUSH2 0x2453 JUMP JUMPDEST JUMPDEST PUSH1 0x20 DUP3 MUL SWAP1 POP SWAP2 SWAP1 POP JUMP JUMPDEST PUSH0 DUP1 REVERT JUMPDEST PUSH0 PUSH4 0xFFFFFFFF DUP3 AND SWAP1 POP SWAP2 SWAP1 POP JUMP JUMPDEST PUSH2 0x2510 DUP2 PUSH2 0x24F8 JUMP JUMPDEST DUP2 EQ PUSH2 0x251A JUMPI PUSH0 DUP1 REVERT JUMPDEST POP JUMP JUMPDEST PUSH0 DUP2 MLOAD SWAP1 POP PUSH2 0x252B DUP2 PUSH2 0x2507 JUMP JUMPDEST SWAP3 SWAP2 POP POP JUMP JUMPDEST PUSH0 PUSH2 0x2543 PUSH2 0x253E DUP5 PUSH2 0x24CF JUMP JUMPDEST PUSH2 0x24B1 JUMP JUMPDEST SWAP1 POP DUP1 PUSH1 0x20 DUP5 MUL DUP4 ADD DUP6 DUP2 GT ISZERO PUSH2 0x255D JUMPI PUSH2 0x255C PUSH2 0x24F4 JUMP JUMPDEST JUMPDEST DUP4 JUMPDEST DUP2 DUP2 LT ISZERO PUSH2 0x2586 JUMPI DUP1 PUSH2 0x2572 DUP9 DUP3 PUSH2 0x251D JUMP JUMPDEST DUP5 MSTORE PUSH1 0x20 DUP5 ADD SWAP4 POP POP PUSH1 0x20 DUP2 ADD SWAP1 POP PUSH2 0x255F JUMP JUMPDEST POP POP POP SWAP4 SWAP3 POP POP POP JUMP JUMPDEST PUSH0 DUP3 PUSH1 0x1F DUP4 ADD SLT PUSH2 0x25A4 JUMPI PUSH2 0x25A3 PUSH2 0x24CB JUMP JUMPDEST JUMPDEST PUSH1 0x4 PUSH2 0x25B1 DUP5 DUP3 DUP6 PUSH2 0x2531 JUMP JUMPDEST SWAP2 POP POP SWAP3 SWAP2 POP POP JUMP JUMPDEST PUSH0 PUSH1 0xA0 DUP3 DUP5 SUB SLT ISZERO PUSH2 0x25CF JUMPI PUSH2 0x25CE PUSH2 0x244F JUMP JUMPDEST JUMPDEST PUSH2 0x25D9 PUSH1 0x40 PUSH2 0x24B1 JUMP JUMPDEST SWAP1 POP PUSH0 PUSH2 0x25E8 DUP5 DUP3 DUP6 ADD PUSH2 0x2590 JUMP JUMPDEST PUSH0 DUP4 ADD MSTORE POP PUSH1 0x80 PUSH2 0x25FB DUP5 DUP3 DUP6 ADD PUSH2 0x251D JUMP JUMPDEST PUSH1 0x20 DUP4 ADD MSTORE POP SWAP3 SWAP2 POP POP JUMP JUMPDEST PUSH0 PUSH1 0xA0 DUP3 DUP5 SUB SLT ISZERO PUSH2 0x261C JUMPI PUSH2 0x261B PUSH2 0x21CE JUMP JUMPDEST JUMPDEST PUSH0 PUSH2 0x2629 DUP5 DUP3 DUP6 ADD PUSH2 0x25BA JUMP JUMPDEST SWAP2 POP POP SWAP3 SWAP2 POP POP JUMP JUMPDEST PUSH32 0x4E487B7100000000000000000000000000000000000000000000000000000000 PUSH0 MSTORE PUSH1 0x32 PUSH1 0x4 MSTORE PUSH1 0x24 PUSH0 REVERT JUMPDEST PUSH0 PUSH1 0x4 SWAP1 POP SWAP2 SWAP1 POP JUMP JUMPDEST PUSH0 DUP2 SWAP1 POP SWAP3 SWAP2 POP POP JUMP JUMPDEST PUSH0 DUP2 SWAP1 POP SWAP2 SWAP1 POP JUMP JUMPDEST PUSH2 0x2685 DUP2 PUSH2 0x24F8 JUMP JUMPDEST DUP3 MSTORE POP POP JUMP JUMPDEST PUSH0 PUSH2 0x2696 DUP4 DUP4 PUSH2 0x267C JUMP JUMPDEST PUSH1 0x20 DUP4 ADD SWAP1 POP SWAP3 SWAP2 POP POP JUMP JUMPDEST PUSH0 PUSH1 0x20 DUP3 ADD SWAP1 POP SWAP2 SWAP1 POP JUMP JUMPDEST PUSH2 0x26B7 DUP2 PUSH2 0x265F JUMP JUMPDEST PUSH2 0x26C1 DUP2 DUP5 PUSH2 0x2669 JUMP JUMPDEST SWAP3 POP PUSH2 0x26CC DUP3 PUSH2 0x2673 JUMP JUMPDEST DUP1 PUSH0 JUMPDEST DUP4 DUP2 LT ISZERO PUSH2 0x26FC JUMPI DUP2 MLOAD PUSH2 0x26E3 DUP8 DUP3 PUSH2 0x268B JUMP JUMPDEST SWAP7 POP PUSH2 0x26EE DUP4 PUSH2 0x26A2 JUMP JUMPDEST SWAP3 POP POP PUSH1 0x1 DUP2 ADD SWAP1 POP PUSH2 0x26CF JUMP JUMPDEST POP POP POP POP POP POP JUMP JUMPDEST PUSH1 0xA0 DUP3 ADD PUSH0 DUP3 ADD MLOAD PUSH2 0x2718 PUSH0 DUP6 ADD DUP3 PUSH2 0x26AE JUMP JUMPDEST POP PUSH1 0x20 DUP3 ADD MLOAD PUSH2 0x272B PUSH1 0x80 DUP6 ADD DUP3 PUSH2 0x267C JUMP JUMPDEST POP POP POP POP JUMP JUMPDEST PUSH0 DUP2 SWAP1 POP SWAP2 SWAP1 POP JUMP JUMPDEST PUSH0 PUSH2 0x2754 PUSH2 0x274F PUSH2 0x274A DUP5 PUSH2 0x237A JUMP JUMPDEST PUSH2 0x2731 JUMP JUMPDEST PUSH2 0x24F8 JUMP JUMPDEST SWAP1 POP SWAP2 SWAP1 POP JUMP JUMPDEST PUSH2 0x2764 DUP2 PUSH2 0x273A JUMP JUMPDEST DUP3 MSTORE POP POP JUMP JUMPDEST PUSH0 PUSH1 0xC0 DUP3 ADD SWAP1 POP PUSH2 0x277D PUSH0 DUP4 ADD DUP6 PUSH2 0x2704 JUMP JUMPDEST PUSH2 0x278A PUSH1 0xA0 DUP4 ADD DUP5 PUSH2 0x275B JUMP JUMPDEST SWAP4 SWAP3 POP POP POP JUMP JUMPDEST PUSH0 DUP2 MLOAD SWAP1 POP SWAP2 SWAP1 POP JUMP JUMPDEST PUSH0 DUP2 SWAP1 POP SWAP3 SWAP2 POP POP JUMP JUMPDEST PUSH0 PUSH2 0x27AF DUP3 PUSH2 0x2791 JUMP JUMPDEST PUSH2 0x27B9 DUP2 DUP6 PUSH2 0x279B JUMP JUMPDEST SWAP4 POP PUSH2 0x27C9 DUP2 DUP6 PUSH1 0x20 DUP7 ADD PUSH2 0x22A2 JUMP JUMPDEST DUP1 DUP5 ADD SWAP2 POP POP SWAP3 SWAP2 POP POP JUMP JUMPDEST PUSH0 DUP2 SWAP1 POP SWAP3 SWAP2 POP POP JUMP JUMPDEST PUSH32 0x7061000000000000000000000000000000000000000000000000000000000000 PUSH0 DUP3 ADD MSTORE POP JUMP JUMPDEST PUSH0 PUSH2 0x2813 PUSH1 0x2 DUP4 PUSH2 0x27D5 JUMP JUMPDEST SWAP2 POP PUSH2 0x281E DUP3 PUSH2 0x27DF JUMP JUMPDEST PUSH1 0x2 DUP3 ADD SWAP1 POP SWAP2 SWAP1 POP JUMP JUMPDEST PUSH0 PUSH2 0x2833 DUP3 PUSH2 0x2288 JUMP JUMPDEST PUSH2 0x283D DUP2 DUP6 PUSH2 0x27D5 JUMP JUMPDEST SWAP4 POP PUSH2 0x284D DUP2 DUP6 PUSH1 0x20 DUP7 ADD PUSH2 0x22A2 JUMP JUMPDEST DUP1 DUP5 ADD SWAP2 POP POP SWAP3 SWAP2 POP POP JUMP JUMPDEST PUSH0 PUSH2 0x2864 DUP3 DUP6 PUSH2 0x27A5 JUMP JUMPDEST SWAP2 POP PUSH2 0x286F DUP3 PUSH2 0x2807 JUMP JUMPDEST SWAP2 POP PUSH2 0x287B DUP3 DUP5 PUSH2 0x2829 JUMP JUMPDEST SWAP2 POP DUP2 SWAP1 POP SWAP4 SWAP3 POP POP POP JUMP JUMPDEST PUSH32 0x4E487B7100000000000000000000000000000000000000000000000000000000 PUSH0 MSTORE PUSH1 0x11 PUSH1 0x4 MSTORE PUSH1 0x24 PUSH0 REVERT JUMPDEST PUSH0 PUSH2 0x28BE DUP3 PUSH2 0x237A JUMP JUMPDEST SWAP2 POP PUSH2 0x28C9 DUP4 PUSH2 0x237A JUMP JUMPDEST SWAP3 POP DUP3 DUP3 ADD SWAP1 POP PUSH1 0xFF DUP2 GT ISZERO PUSH2 0x28E2 JUMPI PUSH2 0x28E1 PUSH2 0x2887 JUMP JUMPDEST JUMPDEST SWAP3 SWAP2 POP POP JUMP JUMPDEST PUSH0 PUSH1 0xE0 DUP3 ADD SWAP1 POP PUSH2 0x28FB PUSH0 DUP4 ADD DUP7 PUSH2 0x2704 JUMP JUMPDEST PUSH2 0x2908 PUSH1 0xA0 DUP4 ADD DUP6 PUSH2 0x275B JUMP JUMPDEST PUSH2 0x2915 PUSH1 0xC0 DUP4 ADD DUP5 PUSH2 0x275B JUMP JUMPDEST SWAP5 SWAP4 POP POP POP POP JUMP JUMPDEST PUSH0 PUSH2 0x2927 DUP3 PUSH2 0x24F8 JUMP JUMPDEST SWAP2 POP PUSH2 0x2932 DUP4 PUSH2 0x24F8 JUMP JUMPDEST SWAP3 POP DUP3 DUP3 MUL PUSH2 0x2940 DUP2 PUSH2 0x24F8 JUMP JUMPDEST SWAP2 POP DUP1 DUP3 EQ PUSH2 0x2952 JUMPI PUSH2 0x2951 PUSH2 0x2887 JUMP JUMPDEST JUMPDEST POP SWAP3 SWAP2 POP POP JUMP JUMPDEST PUSH0 PUSH2 0x2963 DUP3 PUSH2 0x24F8 JUMP JUMPDEST SWAP2 POP PUSH2 0x296E DUP4 PUSH2 0x24F8 JUMP JUMPDEST SWAP3 POP DUP3 DUP3 ADD SWAP1 POP PUSH4 0xFFFFFFFF DUP2 GT ISZERO PUSH2 0x298A JUMPI PUSH2 0x2989 PUSH2 0x2887 JUMP JUMPDEST JUMPDEST SWAP3 SWAP2 POP POP JUMP JUMPDEST PUSH0 PUSH2 0x299A DUP3 PUSH2 0x24F8 JUMP JUMPDEST SWAP2 POP PUSH4 0xFFFFFFFF DUP3 SUB PUSH2 0x29B0 JUMPI PUSH2 0x29AF PUSH2 0x2887 JUMP JUMPDEST JUMPDEST PUSH1 0x1 DUP3 ADD SWAP1 POP SWAP2 SWAP1 POP JUMP JUMPDEST PUSH2 0x29C4 DUP2 PUSH2 0x24F8 JUMP JUMPDEST DUP3 MSTORE POP POP JUMP JUMPDEST PUSH0 PUSH1 0xE0 DUP3 ADD SWAP1 POP PUSH2 0x29DD PUSH0 DUP4 ADD DUP7 PUSH2 0x2704 JUMP JUMPDEST PUSH2 0x29EA PUSH1 0xA0 DUP4 ADD DUP6 PUSH2 0x29BB JUMP JUMPDEST PUSH2 0x29F7 PUSH1 0xC0 DUP4 ADD DUP5 PUSH2 0x29BB JUMP JUMPDEST SWAP5 SWAP4 POP POP POP POP JUMP JUMPDEST PUSH0 PUSH2 0x2A09 DUP3 PUSH2 0x237A JUMP JUMPDEST SWAP2 POP PUSH1 0xFF DUP3 SUB PUSH2 0x2A1C JUMPI PUSH2 0x2A1B PUSH2 0x2887 JUMP JUMPDEST JUMPDEST PUSH1 0x1 DUP3 ADD SWAP1 POP SWAP2 SWAP1 POP JUMP JUMPDEST PUSH32 0x2E62670000000000000000000000000000000000000000000000000000000000 PUSH0 DUP3 ADD MSTORE POP JUMP JUMPDEST PUSH0 PUSH2 0x2A5B PUSH1 0x3 DUP4 PUSH2 0x27D5 JUMP JUMPDEST SWAP2 POP PUSH2 0x2A66 DUP3 PUSH2 0x2A27 JUMP JUMPDEST PUSH1 0x3 DUP3 ADD SWAP1 POP SWAP2 SWAP1 POP JUMP JUMPDEST PUSH0 PUSH32 0xFF00000000000000000000000000000000000000000000000000000000000000 DUP3 AND SWAP1 POP SWAP2 SWAP1 POP JUMP JUMPDEST PUSH0 DUP2 SWAP1 POP SWAP2 SWAP1 POP JUMP JUMPDEST PUSH2 0x2AB6 PUSH2 0x2AB1 DUP3 PUSH2 0x2A71 JUMP JUMPDEST PUSH2 0x2A9C JUMP JUMPDEST DUP3 MSTORE POP POP JUMP JUMPDEST PUSH0 PUSH2 0x2AC7 DUP3 DUP6 PUSH2 0x27A5 JUMP JUMPDEST SWAP2 POP PUSH2 0x2AD2 DUP3 PUSH2 0x2A4F JUMP JUMPDEST SWAP2 POP PUSH2 0x2ADE DUP3 DUP5 PUSH2 0x2AA5 JUMP JUMPDEST PUSH1 0x1 DUP3 ADD SWAP2 POP DUP2 SWAP1 POP SWAP4 SWAP3 POP POP POP JUMP JUMPDEST PUSH32 0x2E6D610000000000000000000000000000000000000000000000000000000000 PUSH0 DUP3 ADD MSTORE POP JUMP JUMPDEST PUSH0 PUSH2 0x2B22 PUSH1 0x3 DUP4 PUSH2 0x27D5 JUMP JUMPDEST SWAP2 POP PUSH2 0x2B2D DUP3 PUSH2 0x2AEE JUMP JUMPDEST PUSH1 0x3 DUP3 ADD SWAP1 POP SWAP2 SWAP1 POP JUMP JUMPDEST PUSH0 PUSH2 0x2B43 DUP3 DUP6 PUSH2 0x27A5 JUMP JUMPDEST SWAP2 POP PUSH2 0x2B4E DUP3 PUSH2 0x2B16 JUMP JUMPDEST SWAP2 POP PUSH2 0x2B5A DUP3 DUP5 PUSH2 0x2AA5 JUMP JUMPDEST PUSH1 0x1 DUP3 ADD SWAP2 POP DUP2 SWAP1 POP SWAP4 SWAP3 POP POP POP JUMP JUMPDEST PUSH32 0x2E74720000000000000000000000000000000000000000000000000000000000 PUSH0 DUP3 ADD MSTORE POP JUMP JUMPDEST PUSH0 PUSH2 0x2B9E PUSH1 0x3 DUP4 PUSH2 0x27D5 JUMP JUMPDEST SWAP2 POP PUSH2 0x2BA9 DUP3 PUSH2 0x2B6A JUMP JUMPDEST PUSH1 0x3 DUP3 ADD SWAP1 POP SWAP2 SWAP1 POP JUMP JUMPDEST PUSH0 PUSH2 0x2BBF DUP3 DUP6 PUSH2 0x27A5 JUMP JUMPDEST SWAP2 POP PUSH2 0x2BCA DUP3 PUSH2 0x2B92 JUMP JUMPDEST SWAP2 POP PUSH2 0x2BD6 DUP3 DUP5 PUSH2 0x2AA5 JUMP JUMPDEST PUSH1 0x1 DUP3 ADD SWAP2 POP DUP2 SWAP1 POP SWAP4 SWAP3 POP POP POP JUMP JUMPDEST PUSH0 PUSH2 0x2BF1 DUP3 DUP6 PUSH2 0x27A5 JUMP JUMPDEST SWAP2 POP PUSH2 0x2BFD DUP3 DUP5 PUSH2 0x2AA5 JUMP JUMPDEST PUSH1 0x1 DUP3 ADD SWAP2 POP DUP2 SWAP1 POP SWAP4 SWAP3 POP POP POP JUMP JUMPDEST PUSH32 0x2E66780000000000000000000000000000000000000000000000000000000000 PUSH0 DUP3 ADD MSTORE POP JUMP JUMPDEST PUSH0 PUSH2 0x2C41 PUSH1 0x3 DUP4 PUSH2 0x27D5 JUMP JUMPDEST SWAP2 POP PUSH2 0x2C4C DUP3 PUSH2 0x2C0D JUMP JUMPDEST PUSH1 0x3 DUP3 ADD SWAP1 POP SWAP2 SWAP1 POP JUMP JUMPDEST PUSH0 PUSH2 0x2C62 DUP3 DUP6 PUSH2 0x27A5 JUMP JUMPDEST SWAP2 POP PUSH2 0x2C6D DUP3 PUSH2 0x2C35 JUMP JUMPDEST SWAP2 POP PUSH2 0x2C79 DUP3 DUP5 PUSH2 0x2AA5 JUMP JUMPDEST PUSH1 0x1 DUP3 ADD SWAP2 POP DUP2 SWAP1 POP SWAP4 SWAP3 POP POP POP JUMP JUMPDEST PUSH32 0x2E726E0000000000000000000000000000000000000000000000000000000000 PUSH0 DUP3 ADD MSTORE POP JUMP JUMPDEST PUSH0 PUSH2 0x2CBD PUSH1 0x3 DUP4 PUSH2 0x27D5 JUMP JUMPDEST SWAP2 POP PUSH2 0x2CC8 DUP3 PUSH2 0x2C89 JUMP JUMPDEST PUSH1 0x3 DUP3 ADD SWAP1 POP SWAP2 SWAP1 POP JUMP JUMPDEST PUSH0 PUSH2 0x2CDE DUP3 DUP6 PUSH2 0x27A5 JUMP JUMPDEST SWAP2 POP PUSH2 0x2CE9 DUP3 PUSH2 0x2CB1 JUMP JUMPDEST SWAP2 POP PUSH2 0x2CF5 DUP3 DUP5 PUSH2 0x2AA5 JUMP JUMPDEST PUSH1 0x1 DUP3 ADD SWAP2 POP DUP2 SWAP1 POP SWAP4 SWAP3 POP POP POP JUMP JUMPDEST PUSH32 0x4E487B7100000000000000000000000000000000000000000000000000000000 PUSH0 MSTORE PUSH1 0x12 PUSH1 0x4 MSTORE PUSH1 0x24 PUSH0 REVERT JUMPDEST PUSH0 PUSH2 0x2D3C DUP3 PUSH2 0x2217 JUMP JUMPDEST SWAP2 POP PUSH2 0x2D47 DUP4 PUSH2 0x2217 JUMP JUMPDEST SWAP3 POP DUP3 PUSH2 0x2D57 JUMPI PUSH2 0x2D56 PUSH2 0x2D05 JUMP JUMPDEST JUMPDEST DUP3 DUP3 MOD SWAP1 POP SWAP3 SWAP2 POP POP JUMP JUMPDEST PUSH32 0x2E73680000000000000000000000000000000000000000000000000000000000 PUSH0 DUP3 ADD MSTORE POP JUMP JUMPDEST PUSH0 PUSH2 0x2D96 PUSH1 0x3 DUP4 PUSH2 0x27D5 JUMP JUMPDEST SWAP2 POP PUSH2 0x2DA1 DUP3 PUSH2 0x2D62 JUMP JUMPDEST PUSH1 0x3 DUP3 ADD SWAP1 POP SWAP2 SWAP1 POP JUMP JUMPDEST PUSH0 PUSH2 0x2DB7 DUP3 DUP7 PUSH2 0x27A5 JUMP JUMPDEST SWAP2 POP PUSH2 0x2DC2 DUP3 PUSH2 0x2D8A JUMP JUMPDEST SWAP2 POP PUSH2 0x2DCE DUP3 DUP6 PUSH2 0x2AA5 JUMP JUMPDEST PUSH1 0x1 DUP3 ADD SWAP2 POP PUSH2 0x2DDE DUP3 DUP5 PUSH2 0x2AA5 JUMP JUMPDEST PUSH1 0x1 DUP3 ADD SWAP2 POP DUP2 SWAP1 POP SWAP5 SWAP4 POP POP POP POP JUMP JUMPDEST PUSH32 0x6672000000000000000000000000000000000000000000000000000000000000 PUSH0 DUP3 ADD MSTORE POP JUMP JUMPDEST PUSH0 PUSH2 0x2E23 PUSH1 0x2 DUP4 PUSH2 0x27D5 JUMP JUMPDEST SWAP2 POP PUSH2 0x2E2E DUP3 PUSH2 0x2DEF JUMP JUMPDEST PUSH1 0x2 DUP3 ADD SWAP1 POP SWAP2 SWAP1 POP JUMP JUMPDEST PUSH0 PUSH2 0x2E44 DUP3 DUP6 PUSH2 0x27A5 JUMP JUMPDEST SWAP2 POP PUSH2 0x2E4F DUP3 PUSH2 0x2E17 JUMP JUMPDEST SWAP2 POP PUSH2 0x2E5B DUP3 DUP5 PUSH2 0x2AA5 JUMP JUMPDEST PUSH1 0x1 DUP3 ADD SWAP2 POP DUP2 SWAP1 POP SWAP4 SWAP3 POP POP POP JUMP JUMPDEST PUSH32 0x696E000000000000000000000000000000000000000000000000000000000000 PUSH0 DUP3 ADD MSTORE POP JUMP JUMPDEST PUSH0 PUSH2 0x2E9F PUSH1 0x2 DUP4 PUSH2 0x27D5 JUMP JUMPDEST SWAP2 POP PUSH2 0x2EAA DUP3 PUSH2 0x2E6B JUMP JUMPDEST PUSH1 0x2 DUP3 ADD SWAP1 POP SWAP2 SWAP1 POP JUMP JUMPDEST PUSH0 PUSH2 0x2EC0 DUP3 DUP6 PUSH2 0x27A5 JUMP JUMPDEST SWAP2 POP PUSH2 0x2ECB DUP3 PUSH2 0x2E93 JUMP JUMPDEST SWAP2 POP PUSH2 0x2ED7 DUP3 DUP5 PUSH2 0x2AA5 JUMP JUMPDEST PUSH1 0x1 DUP3 ADD SWAP2 POP DUP2 SWAP1 POP SWAP4 SWAP3 POP POP POP JUMP JUMPDEST PUSH32 0x7374000000000000000000000000000000000000000000000000000000000000 PUSH0 DUP3 ADD MSTORE POP JUMP JUMPDEST PUSH0 PUSH2 0x2F1B PUSH1 0x2 DUP4 PUSH2 0x27D5 JUMP JUMPDEST SWAP2 POP PUSH2 0x2F26 DUP3 PUSH2 0x2EE7 JUMP JUMPDEST PUSH1 0x2 DUP3 ADD SWAP1 POP SWAP2 SWAP1 POP JUMP JUMPDEST PUSH0 PUSH2 0x2F3C DUP3 DUP6 PUSH2 0x27A5 JUMP JUMPDEST SWAP2 POP PUSH2 0x2F47 DUP3 PUSH2 0x2F0F JUMP JUMPDEST SWAP2 POP PUSH2 0x2F53 DUP3 DUP5 PUSH2 0x2AA5 JUMP JUMPDEST PUSH1 0x1 DUP3 ADD SWAP2 POP DUP2 SWAP1 POP SWAP4 SWAP3 POP POP POP JUMP JUMPDEST PUSH32 0x726E000000000000000000000000000000000000000000000000000000000000 PUSH0 DUP3 ADD MSTORE POP JUMP JUMPDEST PUSH0 PUSH2 0x2F97 PUSH1 0x2 DUP4 PUSH2 0x27D5 JUMP JUMPDEST SWAP2 POP PUSH2 0x2FA2 DUP3 PUSH2 0x2F63 JUMP JUMPDEST PUSH1 0x2 DUP3 ADD SWAP1 POP SWAP2 SWAP1 POP JUMP JUMPDEST PUSH0 PUSH2 0x2FB8 DUP3 DUP6 PUSH2 0x27A5 JUMP JUMPDEST SWAP2 POP PUSH2 0x2FC3 DUP3 PUSH2 0x2F8B JUMP JUMPDEST SWAP2 POP PUSH2 0x2FCF DUP3 DUP5 PUSH2 0x2AA5 JUMP JUMPDEST PUSH1 0x1 DUP3 ADD SWAP2 POP DUP2 SWAP1 POP SWAP4 SWAP3 POP POP POP JUMP JUMPDEST PUSH0 PUSH2 0x2FE9 DUP3 PUSH2 0x2217 JUMP JUMPDEST SWAP2 POP PUSH32 0xFFFFFFFFFFFFFFFFFFFFFFFFFFFFFFFFFFFFFFFFFFFFFFFFFFFFFFFFFFFFFFFF DUP3 SUB PUSH2 0x301B JUMPI PUSH2 0x301A PUSH2 0x2887 JUMP JUMPDEST JUMPDEST PUSH1 0x1 DUP3 ADD SWAP1 POP SWAP2 SWAP1 POP JUMP JUMPDEST PUSH0 PUSH2 0x3030 DUP3 PUSH2 0x2217 JUMP JUMPDEST SWAP2 POP PUSH2 0x303B DUP4 PUSH2 0x2217 JUMP JUMPDEST SWAP3 POP DUP3 PUSH2 0x304B JUMPI PUSH2 0x304A PUSH2 0x2D05 JUMP JUMPDEST JUMPDEST DUP3 DUP3 DIV SWAP1 POP SWAP3 SWAP2 POP POP JUMP JUMPDEST PUSH0 PUSH2 0x3060 DUP3 PUSH2 0x2217 JUMP JUMPDEST SWAP2 POP PUSH2 0x306B DUP4 PUSH2 0x2217 JUMP JUMPDEST SWAP3 POP DUP3 DUP3 SUB SWAP1 POP DUP2 DUP2 GT ISZERO PUSH2 0x3083 JUMPI PUSH2 0x3082 PUSH2 0x2887 JUMP JUMPDEST JUMPDEST SWAP3 SWAP2 POP POP JUMP JUMPDEST PUSH0 PUSH2 0x3093 DUP3 PUSH2 0x2217 JUMP JUMPDEST SWAP2 POP PUSH2 0x309E DUP4 PUSH2 0x2217 JUMP JUMPDEST SWAP3 POP DUP3 DUP3 ADD SWAP1 POP DUP1 DUP3 GT ISZERO PUSH2 0x30B6 JUMPI PUSH2 0x30B5 PUSH2 0x2887 JUMP JUMPDEST JUMPDEST SWAP3 SWAP2 POP POP JUMP INVALID LOG2 PUSH5 0x6970667358 0x22 SLT KECCAK256 0xFC DUP15 SWAP9 EXTCODECOPY 0xBB RETURNDATASIZE 0x1F PUSH2 0x75B DUP7 AND SLOAD 0x27 MOD STOP SWAP16 GT SWAP9 BLOCKHASH DUP8 PUSH30 0x388C1C7B4ECA03D1637C64736F6C63430008140033000000000000000000 "
		},
		"gasEstimates": {
			"creation": {
				"codeDepositCost": "2506000",
				"executionCost": "infinite",
				"totalCost": "infinite"
			},
			"external": {
				"generateFormula(uint128,uint256)": "infinite",
				"supplyDataFromTokenId(uint256)": "infinite"
			},
			"internal": {
				"drawProp(struct IEuclidRandomizer.RandomizerState memory,uint8,uint32[] memory,bytes memory)": "infinite",
				"randomizeProp(struct IEuclidRandomizer.RandomizerState memory,uint32,bytes memory)": "infinite"
			}
		},
		"methodIdentifiers": {
			"generateFormula(uint128,uint256)": "9e36c585",
			"supplyDataFromTokenId(uint256)": "a654ca61"
		}
	},
	"abi": [
		{
			"inputs": [
				{
					"internalType": "address",
					"name": "randomizer_",
					"type": "address"
				}
			],
			"stateMutability": "nonpayable",
			"type": "constructor"
		},
		{
			"inputs": [
				{
					"internalType": "uint128",
					"name": "hash",
					"type": "uint128"
				},
				{
					"internalType": "uint256",
					"name": "tokenId",
					"type": "uint256"
				}
			],
			"name": "generateFormula",
			"outputs": [
				{
					"internalType": "string",
					"name": "",
					"type": "string"
				}
			],
			"stateMutability": "view",
			"type": "function"
		},
		{
			"inputs": [
				{
					"internalType": "uint256",
					"name": "tokenId",
					"type": "uint256"
				}
			],
			"name": "supplyDataFromTokenId",
			"outputs": [
				{
					"internalType": "uint8[6]",
					"name": "",
					"type": "uint8[6]"
				}
			],
			"stateMutability": "pure",
			"type": "function"
		}
	]
}